{
  "address": "0x38d38f83A45cc6FC916cA8badd77d61006aeB89F",
  "abi": [
    {
      "anonymous": false,
      "inputs": [
        {
          "indexed": true,
          "internalType": "address",
          "name": "owner",
          "type": "address"
        },
        {
          "indexed": true,
          "internalType": "address",
          "name": "spender",
          "type": "address"
        },
        {
          "indexed": false,
          "internalType": "uint256",
          "name": "value",
          "type": "uint256"
        }
      ],
      "name": "Approval",
      "type": "event"
    },
    {
      "anonymous": false,
      "inputs": [
        {
          "indexed": true,
          "internalType": "address",
          "name": "from",
          "type": "address"
        },
        {
          "indexed": true,
          "internalType": "address",
          "name": "cloned",
          "type": "address"
        }
      ],
      "name": "Clone",
      "type": "event"
    },
    {
      "anonymous": false,
      "inputs": [
        {
          "indexed": true,
          "internalType": "address",
          "name": "previousOwner",
          "type": "address"
        },
        {
          "indexed": true,
          "internalType": "address",
          "name": "newOwner",
          "type": "address"
        }
      ],
      "name": "OwnershipTransferred",
      "type": "event"
    },
    {
      "anonymous": false,
      "inputs": [
        {
          "indexed": false,
          "internalType": "address",
          "name": "account",
          "type": "address"
        }
      ],
      "name": "Paused",
      "type": "event"
    },
    {
      "anonymous": false,
      "inputs": [
        {
          "indexed": true,
          "internalType": "address",
          "name": "from",
          "type": "address"
        },
        {
          "indexed": true,
          "internalType": "address",
          "name": "to",
          "type": "address"
        },
        {
          "indexed": false,
          "internalType": "uint256",
          "name": "value",
          "type": "uint256"
        }
      ],
      "name": "Transfer",
      "type": "event"
    },
    {
      "anonymous": false,
      "inputs": [
        {
          "indexed": false,
          "internalType": "address",
          "name": "account",
          "type": "address"
        }
      ],
      "name": "Unpaused",
      "type": "event"
    },
    {
      "inputs": [],
      "name": "acceptOwnership",
      "outputs": [],
      "stateMutability": "nonpayable",
      "type": "function"
    },
    {
      "inputs": [
        {
          "internalType": "address",
          "name": "holder",
          "type": "address"
        },
        {
          "internalType": "address",
          "name": "spender",
          "type": "address"
        }
      ],
      "name": "allowance",
      "outputs": [
        {
          "internalType": "uint256",
          "name": "",
          "type": "uint256"
        }
      ],
      "stateMutability": "view",
      "type": "function"
    },
    {
      "inputs": [
        {
          "internalType": "address",
          "name": "spender",
          "type": "address"
        },
        {
          "internalType": "uint256",
          "name": "amount",
          "type": "uint256"
        }
      ],
      "name": "approve",
      "outputs": [
        {
          "internalType": "bool",
          "name": "",
          "type": "bool"
        }
      ],
      "stateMutability": "nonpayable",
      "type": "function"
    },
    {
      "inputs": [
        {
          "internalType": "address",
          "name": "account",
          "type": "address"
        }
      ],
      "name": "balanceOf",
      "outputs": [
        {
          "internalType": "uint256",
          "name": "",
          "type": "uint256"
        }
      ],
      "stateMutability": "view",
      "type": "function"
    },
    {
      "inputs": [
        {
          "internalType": "uint256",
          "name": "amount",
          "type": "uint256"
        }
      ],
      "name": "burn",
      "outputs": [],
      "stateMutability": "nonpayable",
      "type": "function"
    },
    {
      "inputs": [
        {
          "internalType": "string",
          "name": "name",
          "type": "string"
        },
        {
          "internalType": "string",
          "name": "symbol",
          "type": "string"
        },
        {
          "internalType": "uint8",
          "name": "decimals",
          "type": "uint8"
        },
        {
          "internalType": "address",
          "name": "owner",
          "type": "address"
        }
      ],
      "name": "create",
      "outputs": [],
      "stateMutability": "nonpayable",
      "type": "function"
    },
    {
      "inputs": [],
      "name": "decimals",
      "outputs": [
        {
          "internalType": "uint8",
          "name": "",
          "type": "uint8"
        }
      ],
      "stateMutability": "view",
      "type": "function"
    },
    {
      "inputs": [
        {
          "internalType": "address",
          "name": "spender",
          "type": "address"
        },
        {
          "internalType": "uint256",
          "name": "amount",
          "type": "uint256"
        }
      ],
      "name": "decreaseAllowance",
      "outputs": [
        {
          "internalType": "bool",
          "name": "",
          "type": "bool"
        }
      ],
      "stateMutability": "nonpayable",
      "type": "function"
    },
    {
      "inputs": [
        {
          "internalType": "address",
          "name": "spender",
          "type": "address"
        },
        {
          "internalType": "uint256",
          "name": "amount",
          "type": "uint256"
        }
      ],
      "name": "increaseAllowance",
      "outputs": [
        {
          "internalType": "bool",
          "name": "",
          "type": "bool"
        }
      ],
      "stateMutability": "nonpayable",
      "type": "function"
    },
    {
      "inputs": [
        {
          "internalType": "string",
          "name": "name",
          "type": "string"
        },
        {
          "internalType": "string",
          "name": "symbol",
          "type": "string"
        },
        {
          "internalType": "uint8",
          "name": "decimals",
          "type": "uint8"
        },
        {
          "internalType": "address",
          "name": "owner",
          "type": "address"
        }
      ],
      "name": "initialize",
      "outputs": [],
      "stateMutability": "nonpayable",
      "type": "function"
    },
    {
      "inputs": [
        {
          "internalType": "address",
          "name": "to",
          "type": "address"
        },
        {
          "internalType": "uint256",
          "name": "amount",
          "type": "uint256"
        }
      ],
      "name": "mint",
      "outputs": [],
      "stateMutability": "nonpayable",
      "type": "function"
    },
    {
      "inputs": [],
      "name": "name",
      "outputs": [
        {
          "internalType": "string",
          "name": "",
          "type": "string"
        }
      ],
      "stateMutability": "view",
      "type": "function"
    },
    {
      "inputs": [],
      "name": "nomineeOwner",
      "outputs": [
        {
          "internalType": "address",
          "name": "",
          "type": "address"
        }
      ],
      "stateMutability": "view",
      "type": "function"
    },
    {
      "inputs": [],
      "name": "owner",
      "outputs": [
        {
          "internalType": "address",
          "name": "",
          "type": "address"
        }
      ],
      "stateMutability": "view",
      "type": "function"
    },
    {
      "inputs": [],
      "name": "pause",
      "outputs": [],
      "stateMutability": "nonpayable",
      "type": "function"
    },
    {
      "inputs": [],
      "name": "paused",
      "outputs": [
        {
          "internalType": "bool",
          "name": "",
          "type": "bool"
        }
      ],
      "stateMutability": "view",
      "type": "function"
    },
    {
      "inputs": [],
      "name": "symbol",
      "outputs": [
        {
          "internalType": "string",
          "name": "",
          "type": "string"
        }
      ],
      "stateMutability": "view",
      "type": "function"
    },
    {
      "inputs": [],
      "name": "totalSupply",
      "outputs": [
        {
          "internalType": "uint256",
          "name": "",
          "type": "uint256"
        }
      ],
      "stateMutability": "view",
      "type": "function"
    },
    {
      "inputs": [
        {
          "internalType": "address",
          "name": "recipient",
          "type": "address"
        },
        {
          "internalType": "uint256",
          "name": "amount",
          "type": "uint256"
        }
      ],
      "name": "transfer",
      "outputs": [
        {
          "internalType": "bool",
          "name": "",
          "type": "bool"
        }
      ],
      "stateMutability": "nonpayable",
      "type": "function"
    },
    {
      "inputs": [
        {
          "internalType": "address",
          "name": "holder",
          "type": "address"
        },
        {
          "internalType": "address",
          "name": "recipient",
          "type": "address"
        },
        {
          "internalType": "uint256",
          "name": "amount",
          "type": "uint256"
        }
      ],
      "name": "transferFrom",
      "outputs": [
        {
          "internalType": "bool",
          "name": "",
          "type": "bool"
        }
      ],
      "stateMutability": "nonpayable",
      "type": "function"
    },
    {
      "inputs": [
        {
          "internalType": "address",
          "name": "account",
          "type": "address"
        }
      ],
      "name": "transferOwnership",
      "outputs": [],
      "stateMutability": "nonpayable",
      "type": "function"
    },
    {
      "inputs": [],
      "name": "unpause",
      "outputs": [],
      "stateMutability": "nonpayable",
      "type": "function"
    }
  ],
  "transactionHash": "0x2bf9e9bc125906c2e077657d9cbc7c665d9946c941bd7ced666d06957615259f",
  "args": [],
  "numDeployments": 2,
  "solcInputHash": "709e88c967d4c50b742894844abf5461",
  "bytecode": "0x608060405234801561001057600080fd5b50612b3d806100206000396000f3fe608060405234801561001057600080fd5b50600436106101425760003560e01c806370a08231116100b857806395d89b411161007c57806395d89b411461032d578063a457c2d71461034b578063a9059cbb1461037b578063dd62ed3e146103ab578063de7ea79d146103db578063f2fde38b146103f757610142565b806370a08231146102ad57806379ba5097146102dd5780638456cb59146102e75780638ab5150a146102f15780638da5cb5b1461030f57610142565b8063395093511161010a57806339509351146102015780633f4ba83a1461023157806340c10f191461023b57806342966c68146102575780635c975abb1461027357806361c6bc821461029157610142565b806306fdde0314610147578063095ea7b31461016557806318160ddd1461019557806323b872dd146101b3578063313ce567146101e3575b600080fd5b61014f610413565b60405161015c9190612174565b60405180910390f35b61017f600480360381019061017a9190611dc4565b6104ae565b60405161018c9190612159565b60405180910390f35b61019d6104c5565b6040516101aa91906123c9565b60405180910390f35b6101cd60048036038101906101c89190611d75565b6104d4565b6040516101da9190612159565b60405180910390f35b6101eb6105c6565b6040516101f891906123e4565b60405180910390f35b61021b60048036038101906102169190611dc4565b6105e6565b6040516102289190612159565b60405180910390f35b610239610715565b005b61025560048036038101906102509190611dc4565b61080b565b005b610271600480360381019061026c9190611e93565b6108b2565b005b61027b6108bf565b6040516102889190612159565b60405180910390f35b6102ab60048036038101906102a69190611e00565b6108df565b005b6102c760048036038101906102c29190611d10565b6109be565b6040516102d491906123c9565b60405180910390f35b6102e56109d0565b005b6102ef610b24565b005b6102f9610c1a565b604051610306919061213e565b60405180910390f35b610317610c4d565b604051610324919061213e565b60405180910390f35b610335610c80565b6040516103429190612174565b60405180910390f35b61036560048036038101906103609190611dc4565b610d1b565b6040516103729190612159565b60405180910390f35b61039560048036038101906103909190611dc4565b610e48565b6040516103a29190612159565b60405180910390f35b6103c560048036038101906103c09190611d39565b610e5f565b6040516103d291906123c9565b60405180910390f35b6103f560048036038101906103f09190611e00565b610eef565b005b610411600480360381019061040c9190611d10565b61106b565b005b606061041d611121565b600001805461042b90612592565b80601f016020809104026020016040519081016040528092919081815260200182805461045790612592565b80156104a45780601f10610479576101008083540402835291602001916104a4565b820191906000526020600020905b81548152906001019060200180831161048757829003601f168201915b5050505050905090565b60006104bb33848461114e565b6001905092915050565b60006104cf611322565b905090565b6000806104df611335565b60010160008673ffffffffffffffffffffffffffffffffffffffff1673ffffffffffffffffffffffffffffffffffffffff16815260200190815260200160002060003373ffffffffffffffffffffffffffffffffffffffff1673ffffffffffffffffffffffffffffffffffffffff168152602001908152602001600020549050828110156105a2576040517f08c379a000000000000000000000000000000000000000000000000000000000815260040161059990612329565b60405180910390fd5b6105af853385840361114e565b6105ba858585611362565b60019150509392505050565b60006105d0611121565b60020160009054906101000a900460ff16905090565b6000806105f1611335565b60010160003373ffffffffffffffffffffffffffffffffffffffff1673ffffffffffffffffffffffffffffffffffffffff168152602001908152602001600020905060008160008673ffffffffffffffffffffffffffffffffffffffff1673ffffffffffffffffffffffffffffffffffffffff1681526020019081526020016000205490508084820110156106bb576040517f08c379a00000000000000000000000000000000000000000000000000000000081526004016106b290612229565b60405180910390fd5b61070933868684018560008a73ffffffffffffffffffffffffffffffffffffffff1673ffffffffffffffffffffffffffffffffffffffff16815260200190815260200160002081905561114e565b60019250505092915050565b61071d6115ee565b60000160009054906101000a900473ffffffffffffffffffffffffffffffffffffffff1673ffffffffffffffffffffffffffffffffffffffff163373ffffffffffffffffffffffffffffffffffffffff16146107ae576040517f08c379a00000000000000000000000000000000000000000000000000000000081526004016107a590612309565b60405180910390fd5b60006107b861161b565b60000160006101000a81548160ff0219169083151502179055507f5db9ee0a495bf2e6ff9c91a7834c1ba4fdd244a5e8aa4e537bd38aeae4b073aa33604051610801919061213e565b60405180910390a1565b6108136115ee565b60000160009054906101000a900473ffffffffffffffffffffffffffffffffffffffff1673ffffffffffffffffffffffffffffffffffffffff163373ffffffffffffffffffffffffffffffffffffffff16146108a4576040517f08c379a000000000000000000000000000000000000000000000000000000000815260040161089b90612309565b60405180910390fd5b6108ae8282611648565b5050565b6108bc33826117ae565b50565b60006108c961161b565b60000160009054906101000a900460ff16905090565b60006108ea3061198e565b90508073ffffffffffffffffffffffffffffffffffffffff1663de7ea79d868686866040518563ffffffff1660e01b815260040161092b9493929190612196565b600060405180830381600087803b15801561094557600080fd5b505af1158015610959573d6000803e3d6000fd5b505050508073ffffffffffffffffffffffffffffffffffffffff163073ffffffffffffffffffffffffffffffffffffffff167fb557324045551eafb0789d69d5679a7017a31840124b2220df4b81dea45ec08360405160405180910390a35050505050565b60006109c982611a63565b9050919050565b6109d8611ab5565b60000160009054906101000a900473ffffffffffffffffffffffffffffffffffffffff1673ffffffffffffffffffffffffffffffffffffffff163373ffffffffffffffffffffffffffffffffffffffff1614610a69576040517f08c379a0000000000000000000000000000000000000000000000000000000008152600401610a60906122e9565b60405180910390fd5b6000610a736115ee565b90503373ffffffffffffffffffffffffffffffffffffffff168160000160009054906101000a900473ffffffffffffffffffffffffffffffffffffffff1673ffffffffffffffffffffffffffffffffffffffff167f8be0079c531659141344cd1fd0a4f28419497f9722a3daafe3b4186f6b6457e060405160405180910390a3610b063382611ae290919063ffffffff16565b610b216000610b13611ab5565b611b2990919063ffffffff16565b50565b610b2c6115ee565b60000160009054906101000a900473ffffffffffffffffffffffffffffffffffffffff1673ffffffffffffffffffffffffffffffffffffffff163373ffffffffffffffffffffffffffffffffffffffff1614610bbd576040517f08c379a0000000000000000000000000000000000000000000000000000000008152600401610bb490612309565b60405180910390fd5b6001610bc761161b565b60000160006101000a81548160ff0219169083151502179055507f62e78cea01bee320cd4e420270b5ea74000d11b0c9f74754ebdbfc544b05a25833604051610c10919061213e565b60405180910390a1565b6000610c24611ab5565b60000160009054906101000a900473ffffffffffffffffffffffffffffffffffffffff16905090565b6000610c576115ee565b60000160009054906101000a900473ffffffffffffffffffffffffffffffffffffffff16905090565b6060610c8a611121565b6001018054610c9890612592565b80601f0160208091040260200160405190810160405280929190818152602001828054610cc490612592565b8015610d115780601f10610ce657610100808354040283529160200191610d11565b820191906000526020600020905b815481529060010190602001808311610cf457829003601f168201915b5050505050905090565b600080610d26611335565b60010160003373ffffffffffffffffffffffffffffffffffffffff1673ffffffffffffffffffffffffffffffffffffffff168152602001908152602001600020905060008160008673ffffffffffffffffffffffffffffffffffffffff1673ffffffffffffffffffffffffffffffffffffffff16815260200190815260200160002054905080841115610dee576040517f08c379a0000000000000000000000000000000000000000000000000000000008152600401610de590612289565b60405180910390fd5b610e3c33868684038560008a73ffffffffffffffffffffffffffffffffffffffff1673ffffffffffffffffffffffffffffffffffffffff16815260200190815260200160002081905561114e565b60019250505092915050565b6000610e55338484611362565b6001905092915050565b6000610e69611335565b60010160008473ffffffffffffffffffffffffffffffffffffffff1673ffffffffffffffffffffffffffffffffffffffff16815260200190815260200160002060008373ffffffffffffffffffffffffffffffffffffffff1673ffffffffffffffffffffffffffffffffffffffff16815260200190815260200160002054905092915050565b6000610ef9611b70565b90508060000160019054906101000a900460ff16610f29578060000160009054906101000a900460ff1615610f32565b610f31611b9d565b5b610f71576040517f08c379a0000000000000000000000000000000000000000000000000000000008152600401610f68906122c9565b60405180910390fd5b60008160000160019054906101000a900460ff161590508015610fc95760018260000160016101000a81548160ff02191690831515021790555060018260000160006101000a81548160ff0219169083151502179055505b610fe383610fd56115ee565b611ae290919063ffffffff16565b6000610fed611121565b905086816000019080519060200190611007929190611bc6565b5085816001019080519060200190611020929190611bc6565b50848160020160006101000a81548160ff021916908360ff1602179055505080156110635760008260000160016101000a81548160ff0219169083151502179055505b505050505050565b6110736115ee565b60000160009054906101000a900473ffffffffffffffffffffffffffffffffffffffff1673ffffffffffffffffffffffffffffffffffffffff163373ffffffffffffffffffffffffffffffffffffffff1614611104576040517f08c379a00000000000000000000000000000000000000000000000000000000081526004016110fb90612309565b60405180910390fd5b61111e81611110611ab5565b611b2990919063ffffffff16565b50565b6000807f2967a798b92539a1b9eefe4d8eb931f96b68d27665e276f1bee2d5db7f74304790508091505090565b600073ffffffffffffffffffffffffffffffffffffffff168373ffffffffffffffffffffffffffffffffffffffff1614156111be576040517f08c379a00000000000000000000000000000000000000000000000000000000081526004016111b590612389565b60405180910390fd5b600073ffffffffffffffffffffffffffffffffffffffff168273ffffffffffffffffffffffffffffffffffffffff16141561122e576040517f08c379a000000000000000000000000000000000000000000000000000000000815260040161122590612249565b60405180910390fd5b80611237611335565b60010160008573ffffffffffffffffffffffffffffffffffffffff1673ffffffffffffffffffffffffffffffffffffffff16815260200190815260200160002060008473ffffffffffffffffffffffffffffffffffffffff1673ffffffffffffffffffffffffffffffffffffffff168152602001908152602001600020819055508173ffffffffffffffffffffffffffffffffffffffff168373ffffffffffffffffffffffffffffffffffffffff167f8c5be1e5ebec7d5bd14f71427d1e84f3dd0314c0f7b2291e5b200ac8c7c3b9258360405161131591906123c9565b60405180910390a3505050565b600061132c611335565b60020154905090565b6000807fc991b2e918acaba8e5721668ed0b1982684e5a8692a621bcd2d7ef326bb015b490508091505090565b600073ffffffffffffffffffffffffffffffffffffffff168373ffffffffffffffffffffffffffffffffffffffff1614156113d2576040517f08c379a00000000000000000000000000000000000000000000000000000000081526004016113c990612369565b60405180910390fd5b600073ffffffffffffffffffffffffffffffffffffffff168273ffffffffffffffffffffffffffffffffffffffff161415611442576040517f08c379a0000000000000000000000000000000000000000000000000000000008152600401611439906121e9565b60405180910390fd5b61144d838383611bae565b6000611457611335565b905060008160000160008673ffffffffffffffffffffffffffffffffffffffff1673ffffffffffffffffffffffffffffffffffffffff168152602001908152602001600020549050828110156114e2576040517f08c379a00000000000000000000000000000000000000000000000000000000081526004016114d990612269565b60405180910390fd5b8281038260000160008773ffffffffffffffffffffffffffffffffffffffff1673ffffffffffffffffffffffffffffffffffffffff16815260200190815260200160002081905550828260000160008673ffffffffffffffffffffffffffffffffffffffff1673ffffffffffffffffffffffffffffffffffffffff168152602001908152602001600020600082825461157b9190612471565b925050819055508373ffffffffffffffffffffffffffffffffffffffff168573ffffffffffffffffffffffffffffffffffffffff167fddf252ad1be2c89b69c2b068fc378daa952ba7f163c4a11628f55a4df523b3ef856040516115df91906123c9565b60405180910390a35050505050565b6000807f8a22373512790c48b83a1fe2efdd2888d4a917bcdc24d0adf63e60f67168046090508091505090565b6000807f68721c0bbf2c02a4d65000340d1370666be06a630022208d4baa9bd7a4b6fea890508091505090565b600073ffffffffffffffffffffffffffffffffffffffff168273ffffffffffffffffffffffffffffffffffffffff1614156116b8576040517f08c379a00000000000000000000000000000000000000000000000000000000081526004016116af906123a9565b60405180910390fd5b6116c460008383611bae565b60006116ce611335565b9050818160020160008282546116e49190612471565b92505081905550818160000160008573ffffffffffffffffffffffffffffffffffffffff1673ffffffffffffffffffffffffffffffffffffffff168152602001908152602001600020600082825461173c9190612471565b925050819055508273ffffffffffffffffffffffffffffffffffffffff16600073ffffffffffffffffffffffffffffffffffffffff167fddf252ad1be2c89b69c2b068fc378daa952ba7f163c4a11628f55a4df523b3ef846040516117a191906123c9565b60405180910390a3505050565b600073ffffffffffffffffffffffffffffffffffffffff168273ffffffffffffffffffffffffffffffffffffffff16141561181e576040517f08c379a000000000000000000000000000000000000000000000000000000000815260040161181590612349565b60405180910390fd5b61182a82600083611bae565b6000611834611335565b905060008160000160008573ffffffffffffffffffffffffffffffffffffffff1673ffffffffffffffffffffffffffffffffffffffff168152602001908152602001600020549050828110156118bf576040517f08c379a00000000000000000000000000000000000000000000000000000000081526004016118b690612209565b60405180910390fd5b8281038260000160008673ffffffffffffffffffffffffffffffffffffffff1673ffffffffffffffffffffffffffffffffffffffff168152602001908152602001600020819055508282600201600082825461191b91906124c7565b92505081905550600073ffffffffffffffffffffffffffffffffffffffff168473ffffffffffffffffffffffffffffffffffffffff167fddf252ad1be2c89b69c2b068fc378daa952ba7f163c4a11628f55a4df523b3ef8560405161198091906123c9565b60405180910390a350505050565b60006040517f3d602d80600a3d3981f3363d3d373d3d3d363d7300000000000000000000000081528260601b60148201527f5af43d82803e903d91602b57fd5bf3000000000000000000000000000000000060288201526037816000f0915050600073ffffffffffffffffffffffffffffffffffffffff168173ffffffffffffffffffffffffffffffffffffffff161415611a5e576040517f08c379a0000000000000000000000000000000000000000000000000000000008152600401611a55906122a9565b60405180910390fd5b919050565b6000611a6d611335565b60000160008373ffffffffffffffffffffffffffffffffffffffff1673ffffffffffffffffffffffffffffffffffffffff168152602001908152602001600020549050919050565b6000807f24aa1f7b31fd188a8d3ecfb06bc55c806040e59b03bd4396283442fce661789090508091505090565b808260000160006101000a81548173ffffffffffffffffffffffffffffffffffffffff021916908373ffffffffffffffffffffffffffffffffffffffff1602179055505050565b808260000160006101000a81548173ffffffffffffffffffffffffffffffffffffffff021916908373ffffffffffffffffffffffffffffffffffffffff1602179055505050565b6000807f2ae1e818fc317b4c150084d41bf7468a28b0861c8b85a3e58e4bb4d5dbbc6aa190508091505090565b6000611ba830611bb3565b15905090565b505050565b600080823b905060008111915050919050565b828054611bd290612592565b90600052602060002090601f016020900481019282611bf45760008555611c3b565b82601f10611c0d57805160ff1916838001178555611c3b565b82800160010185558215611c3b579182015b82811115611c3a578251825591602001919060010190611c1f565b5b509050611c489190611c4c565b5090565b5b80821115611c65576000816000905550600101611c4d565b5090565b6000611c7c611c7784612424565b6123ff565b905082815260208101848484011115611c9457600080fd5b611c9f848285612550565b509392505050565b600081359050611cb681612ac2565b92915050565b600082601f830112611ccd57600080fd5b8135611cdd848260208601611c69565b91505092915050565b600081359050611cf581612ad9565b92915050565b600081359050611d0a81612af0565b92915050565b600060208284031215611d2257600080fd5b6000611d3084828501611ca7565b91505092915050565b60008060408385031215611d4c57600080fd5b6000611d5a85828601611ca7565b9250506020611d6b85828601611ca7565b9150509250929050565b600080600060608486031215611d8a57600080fd5b6000611d9886828701611ca7565b9350506020611da986828701611ca7565b9250506040611dba86828701611ce6565b9150509250925092565b60008060408385031215611dd757600080fd5b6000611de585828601611ca7565b9250506020611df685828601611ce6565b9150509250929050565b60008060008060808587031215611e1657600080fd5b600085013567ffffffffffffffff811115611e3057600080fd5b611e3c87828801611cbc565b945050602085013567ffffffffffffffff811115611e5957600080fd5b611e6587828801611cbc565b9350506040611e7687828801611cfb565b9250506060611e8787828801611ca7565b91505092959194509250565b600060208284031215611ea557600080fd5b6000611eb384828501611ce6565b91505092915050565b611ec5816124fb565b82525050565b611ed48161250d565b82525050565b6000611ee582612455565b611eef8185612460565b9350611eff81856020860161255f565b611f0881612682565b840191505092915050565b6000611f20602383612460565b9150611f2b82612693565b604082019050919050565b6000611f43602283612460565b9150611f4e826126e2565b604082019050919050565b6000611f66602283612460565b9150611f7182612731565b604082019050919050565b6000611f89602283612460565b9150611f9482612780565b604082019050919050565b6000611fac602683612460565b9150611fb7826127cf565b604082019050919050565b6000611fcf602583612460565b9150611fda8261281e565b604082019050919050565b6000611ff2601683612460565b9150611ffd8261286d565b602082019050919050565b6000612015602e83612460565b915061202082612896565b604082019050919050565b6000612038602983612460565b9150612043826128e5565b604082019050919050565b600061205b601d83612460565b915061206682612934565b602082019050919050565b600061207e602883612460565b91506120898261295d565b604082019050919050565b60006120a1602183612460565b91506120ac826129ac565b604082019050919050565b60006120c4602583612460565b91506120cf826129fb565b604082019050919050565b60006120e7602483612460565b91506120f282612a4a565b604082019050919050565b600061210a601f83612460565b915061211582612a99565b602082019050919050565b61212981612539565b82525050565b61213881612543565b82525050565b60006020820190506121536000830184611ebc565b92915050565b600060208201905061216e6000830184611ecb565b92915050565b6000602082019050818103600083015261218e8184611eda565b905092915050565b600060808201905081810360008301526121b08187611eda565b905081810360208301526121c48186611eda565b90506121d3604083018561212f565b6121e06060830184611ebc565b95945050505050565b6000602082019050818103600083015261220281611f13565b9050919050565b6000602082019050818103600083015261222281611f36565b9050919050565b6000602082019050818103600083015261224281611f59565b9050919050565b6000602082019050818103600083015261226281611f7c565b9050919050565b6000602082019050818103600083015261228281611f9f565b9050919050565b600060208201905081810360008301526122a281611fc2565b9050919050565b600060208201905081810360008301526122c281611fe5565b9050919050565b600060208201905081810360008301526122e281612008565b9050919050565b600060208201905081810360008301526123028161202b565b9050919050565b600060208201905081810360008301526123228161204e565b9050919050565b6000602082019050818103600083015261234281612071565b9050919050565b6000602082019050818103600083015261236281612094565b9050919050565b60006020820190508181036000830152612382816120b7565b9050919050565b600060208201905081810360008301526123a2816120da565b9050919050565b600060208201905081810360008301526123c2816120fd565b9050919050565b60006020820190506123de6000830184612120565b92915050565b60006020820190506123f9600083018461212f565b92915050565b600061240961241a565b905061241582826125c4565b919050565b6000604051905090565b600067ffffffffffffffff82111561243f5761243e612653565b5b61244882612682565b9050602081019050919050565b600081519050919050565b600082825260208201905092915050565b600061247c82612539565b915061248783612539565b9250827fffffffffffffffffffffffffffffffffffffffffffffffffffffffffffffffff038211156124bc576124bb6125f5565b5b828201905092915050565b60006124d282612539565b91506124dd83612539565b9250828210156124f0576124ef6125f5565b5b828203905092915050565b600061250682612519565b9050919050565b60008115159050919050565b600073ffffffffffffffffffffffffffffffffffffffff82169050919050565b6000819050919050565b600060ff82169050919050565b82818337600083830152505050565b60005b8381101561257d578082015181840152602081019050612562565b8381111561258c576000848401525b50505050565b600060028204905060018216806125aa57607f821691505b602082108114156125be576125bd612624565b5b50919050565b6125cd82612682565b810181811067ffffffffffffffff821117156125ec576125eb612653565b5b80604052505050565b7f4e487b7100000000000000000000000000000000000000000000000000000000600052601160045260246000fd5b7f4e487b7100000000000000000000000000000000000000000000000000000000600052602260045260246000fd5b7f4e487b7100000000000000000000000000000000000000000000000000000000600052604160045260246000fd5b6000601f19601f8301169050919050565b7f45524332303a207472616e7366657220746f20746865207a65726f206164647260008201527f6573730000000000000000000000000000000000000000000000000000000000602082015250565b7f45524332303a206275726e20616d6f756e7420657863656564732062616c616e60008201527f6365000000000000000000000000000000000000000000000000000000000000602082015250565b7f4552433230457874656e6465643a2065786365737369766520616c6c6f77616e60008201527f6365000000000000000000000000000000000000000000000000000000000000602082015250565b7f45524332303a20617070726f766520746f20746865207a65726f20616464726560008201527f7373000000000000000000000000000000000000000000000000000000000000602082015250565b7f45524332303a207472616e7366657220616d6f756e742065786365656473206260008201527f616c616e63650000000000000000000000000000000000000000000000000000602082015250565b7f4552433230457874656e6465643a20696e73756666696369656e7420616c6c6f60008201527f77616e6365000000000000000000000000000000000000000000000000000000602082015250565b7f455243313136373a20637265617465206661696c656400000000000000000000600082015250565b7f496e697469616c697a61626c653a20636f6e747261637420697320616c72656160008201527f647920696e697469616c697a6564000000000000000000000000000000000000602082015250565b7f536166654f776e61626c653a2073656e646572206d757374206265206e6f6d6960008201527f6e6565206f776e65720000000000000000000000000000000000000000000000602082015250565b7f4f776e61626c653a2073656e646572206d757374206265206f776e6572000000600082015250565b7f45524332303a207472616e7366657220616d6f756e742065786365656473206160008201527f6c6c6f77616e6365000000000000000000000000000000000000000000000000602082015250565b7f45524332303a206275726e2066726f6d20746865207a65726f2061646472657360008201527f7300000000000000000000000000000000000000000000000000000000000000602082015250565b7f45524332303a207472616e736665722066726f6d20746865207a65726f20616460008201527f6472657373000000000000000000000000000000000000000000000000000000602082015250565b7f45524332303a20617070726f76652066726f6d20746865207a65726f2061646460008201527f7265737300000000000000000000000000000000000000000000000000000000602082015250565b7f45524332303a206d696e7420746f20746865207a65726f206164647265737300600082015250565b612acb816124fb565b8114612ad657600080fd5b50565b612ae281612539565b8114612aed57600080fd5b50565b612af981612543565b8114612b0457600080fd5b5056fea26469706673582212207f417b6ac81972d95c1d3749287732f0de13eefeb7c12f89618ce2630d2ef16964736f6c63430008040033",
  "devdoc": {
    "kind": "dev",
    "methods": {
      "allowance(address,address)": {
        "params": {
          "holder": "approver of allowance",
          "spender": "recipient of allowance"
        },
        "returns": {
          "_0": "token allowance"
        }
      },
      "approve(address,uint256)": {
        "details": "prefer ERC20Extended functions to avoid transaction-ordering vulnerability (see https://github.com/ethereum/EIPs/issues/20#issuecomment-263524729)",
        "params": {
          "amount": "quantity of tokens approved for spending",
          "spender": "recipient of allowance"
        },
        "returns": {
          "_0": "success status (always true; otherwise function should revert)"
        }
      },
      "balanceOf(address)": {
        "params": {
          "account": "address to query"
        },
        "returns": {
          "_0": "token balance"
        }
      },
      "decimals()": {
        "returns": {
          "_0": "token decimals"
        }
      },
      "decreaseAllowance(address,uint256)": {
        "params": {
          "amount": "quantity by which to decrease allowance",
          "spender": "address whose allowance to decrease"
        },
        "returns": {
          "_0": "success status (always true; otherwise function will revert)"
        }
      },
      "increaseAllowance(address,uint256)": {
        "params": {
          "amount": "quantity by which to increase allowance",
          "spender": "address whose allowance to increase"
        },
        "returns": {
          "_0": "success status (always true; otherwise function will revert)"
        }
      },
      "name()": {
        "returns": {
          "_0": "token name"
        }
      },
      "owner()": {
        "returns": {
          "_0": "conract owner"
        }
      },
      "pause()": {
        "details": "pause the contract"
      },
      "paused()": {
        "details": "Should return if the contract is paused"
      },
      "symbol()": {
        "returns": {
          "_0": "token symbol"
        }
      },
      "totalSupply()": {
        "returns": {
          "_0": "token supply"
        }
      },
      "transfer(address,uint256)": {
        "params": {
          "amount": "quantity of tokens to transfer",
          "recipient": "beneficiary of token transfer"
        },
        "returns": {
          "_0": "success status (always true; otherwise function should revert)"
        }
      },
      "transferFrom(address,address,uint256)": {
        "params": {
          "amount": "quantity of tokens to transfer",
          "holder": "holder of tokens prior to transfer",
          "recipient": "beneficiary of token transfer"
        },
        "returns": {
          "_0": "success status (always true; otherwise function should revert)"
        }
      },
      "transferOwnership(address)": {
        "details": "ownership transfer must be accepted by beneficiary before transfer is complete",
        "params": {
          "account": "address of new owner"
        }
      },
      "unpause()": {
        "details": "unpause the contract"
      }
    },
    "version": 1
  },
  "userdoc": {
    "kind": "user",
    "methods": {
      "acceptOwnership()": {
        "notice": "accept transfer of contract ownership"
      },
      "allowance(address,address)": {
        "notice": "query the allowance granted from given holder to given spender"
      },
      "approve(address,uint256)": {
        "notice": "grant approval to spender to spend tokens"
      },
      "balanceOf(address)": {
        "notice": "query the token balance of given account"
      },
      "decimals()": {
        "notice": "return token decimals, generally used only for display purposes"
      },
      "decreaseAllowance(address,uint256)": {
        "notice": "decrease spend amount granted to spender"
      },
      "increaseAllowance(address,uint256)": {
        "notice": "increase spend amount granted to spender"
      },
      "name()": {
        "notice": "return token name"
      },
      "owner()": {
        "notice": "get the ERC173 contract owner"
      },
      "symbol()": {
        "notice": "return token symbol"
      },
      "totalSupply()": {
        "notice": "query the total minted token supply"
      },
      "transfer(address,uint256)": {
        "notice": "transfer tokens to given recipient"
      },
      "transferFrom(address,address,uint256)": {
        "notice": "transfer tokens to given recipient on behalf of given holder"
      },
      "transferOwnership(address)": {
        "notice": "transfer contract ownership to new account"
      }
    },
    "version": 1
  },
  "storageLayout": {
    "storage": [],
    "types": null
  }
}