{
  "address": "0xc7C7C774aAFAbCd67498DA94Bf5EAAcb5536Bf54",
  "abi": [
    {
      "anonymous": false,
      "inputs": [
        {
          "indexed": true,
          "internalType": "address",
          "name": "from",
          "type": "address"
        },
        {
          "indexed": true,
          "internalType": "address",
          "name": "cloned",
          "type": "address"
        }
      ],
      "name": "Clone",
      "type": "event"
    },
    {
      "anonymous": false,
      "inputs": [
        {
          "components": [
            {
              "internalType": "address",
              "name": "target",
              "type": "address"
            },
            {
              "internalType": "enum IDiamondCuttable.FacetCutAction",
              "name": "action",
              "type": "uint8"
            },
            {
              "internalType": "bytes4[]",
              "name": "selectors",
              "type": "bytes4[]"
            }
          ],
          "indexed": false,
          "internalType": "struct IDiamondCuttable.FacetCut[]",
          "name": "facetCuts",
          "type": "tuple[]"
        },
        {
          "indexed": false,
          "internalType": "address",
          "name": "target",
          "type": "address"
        },
        {
          "indexed": false,
          "internalType": "bytes",
          "name": "data",
          "type": "bytes"
        }
      ],
      "name": "DiamondCut",
      "type": "event"
    },
    {
      "anonymous": false,
      "inputs": [
        {
          "indexed": true,
          "internalType": "address",
          "name": "previousOwner",
          "type": "address"
        },
        {
          "indexed": true,
          "internalType": "address",
          "name": "newOwner",
          "type": "address"
        }
      ],
      "name": "OwnershipTransferred",
      "type": "event"
    },
    {
      "anonymous": false,
      "inputs": [
        {
          "indexed": false,
          "internalType": "address",
          "name": "account",
          "type": "address"
        }
      ],
      "name": "Paused",
      "type": "event"
    },
    {
      "anonymous": false,
      "inputs": [
        {
          "indexed": false,
          "internalType": "address",
          "name": "account",
          "type": "address"
        }
      ],
      "name": "Unpaused",
      "type": "event"
    },
    {
      "stateMutability": "payable",
      "type": "fallback"
    },
    {
      "inputs": [],
      "name": "acceptOwnership",
      "outputs": [],
      "stateMutability": "nonpayable",
      "type": "function"
    },
    {
      "inputs": [
        {
          "components": [
            {
              "internalType": "address",
              "name": "owner",
              "type": "address"
            },
            {
              "internalType": "bytes4[]",
              "name": "interfaces",
              "type": "bytes4[]"
            },
            {
              "internalType": "address",
              "name": "fallbackAddress",
              "type": "address"
            },
            {
              "internalType": "bytes",
              "name": "data",
              "type": "bytes"
            }
          ],
          "internalType": "struct Diamond.InitArgs",
          "name": "args",
          "type": "tuple"
        }
      ],
      "name": "create",
      "outputs": [],
      "stateMutability": "nonpayable",
      "type": "function"
    },
    {
      "inputs": [
        {
          "components": [
            {
              "internalType": "address",
              "name": "target",
              "type": "address"
            },
            {
              "internalType": "enum IDiamondCuttable.FacetCutAction",
              "name": "action",
              "type": "uint8"
            },
            {
              "internalType": "bytes4[]",
              "name": "selectors",
              "type": "bytes4[]"
            }
          ],
          "internalType": "struct IDiamondCuttable.FacetCut[]",
          "name": "facetCuts",
          "type": "tuple[]"
        },
        {
          "internalType": "address",
          "name": "target",
          "type": "address"
        },
        {
          "internalType": "bytes",
          "name": "data",
          "type": "bytes"
        }
      ],
      "name": "diamondCut",
      "outputs": [],
      "stateMutability": "nonpayable",
      "type": "function"
    },
    {
      "inputs": [
        {
          "internalType": "bytes4",
          "name": "selector",
          "type": "bytes4"
        }
      ],
      "name": "facetAddress",
      "outputs": [
        {
          "internalType": "address",
          "name": "facet",
          "type": "address"
        }
      ],
      "stateMutability": "view",
      "type": "function"
    },
    {
      "inputs": [],
      "name": "facetAddresses",
      "outputs": [
        {
          "internalType": "address[]",
          "name": "addresses",
          "type": "address[]"
        }
      ],
      "stateMutability": "view",
      "type": "function"
    },
    {
      "inputs": [
        {
          "internalType": "address",
          "name": "facet",
          "type": "address"
        }
      ],
      "name": "facetFunctionSelectors",
      "outputs": [
        {
          "internalType": "bytes4[]",
          "name": "selectors",
          "type": "bytes4[]"
        }
      ],
      "stateMutability": "view",
      "type": "function"
    },
    {
      "inputs": [],
      "name": "facets",
      "outputs": [
        {
          "components": [
            {
              "internalType": "address",
              "name": "target",
              "type": "address"
            },
            {
              "internalType": "bytes4[]",
              "name": "selectors",
              "type": "bytes4[]"
            }
          ],
          "internalType": "struct IDiamondLoupe.Facet[]",
          "name": "diamondFacets",
          "type": "tuple[]"
        }
      ],
      "stateMutability": "view",
      "type": "function"
    },
    {
      "inputs": [],
      "name": "getFallbackAddress",
      "outputs": [
        {
          "internalType": "address",
          "name": "",
          "type": "address"
        }
      ],
      "stateMutability": "view",
      "type": "function"
    },
    {
      "inputs": [
        {
          "components": [
            {
              "internalType": "address",
              "name": "owner",
              "type": "address"
            },
            {
              "internalType": "bytes4[]",
              "name": "interfaces",
              "type": "bytes4[]"
            },
            {
              "internalType": "address",
              "name": "fallbackAddress",
              "type": "address"
            },
            {
              "internalType": "bytes",
              "name": "data",
              "type": "bytes"
            }
          ],
          "internalType": "struct Diamond.InitArgs",
          "name": "args",
          "type": "tuple"
        }
      ],
      "name": "init",
      "outputs": [],
      "stateMutability": "nonpayable",
      "type": "function"
    },
    {
      "inputs": [],
      "name": "nomineeOwner",
      "outputs": [
        {
          "internalType": "address",
          "name": "",
          "type": "address"
        }
      ],
      "stateMutability": "view",
      "type": "function"
    },
    {
      "inputs": [],
      "name": "owner",
      "outputs": [
        {
          "internalType": "address",
          "name": "",
          "type": "address"
        }
      ],
      "stateMutability": "view",
      "type": "function"
    },
    {
      "inputs": [],
      "name": "pause",
      "outputs": [],
      "stateMutability": "nonpayable",
      "type": "function"
    },
    {
      "inputs": [],
      "name": "paused",
      "outputs": [
        {
          "internalType": "bool",
          "name": "",
          "type": "bool"
        }
      ],
      "stateMutability": "view",
      "type": "function"
    },
    {
      "inputs": [
        {
          "internalType": "address",
          "name": "fallbackAddr",
          "type": "address"
        }
      ],
      "name": "setFallbackAddress",
      "outputs": [],
      "stateMutability": "nonpayable",
      "type": "function"
    },
    {
      "inputs": [
        {
          "internalType": "bytes4",
          "name": "interfaceId",
          "type": "bytes4"
        },
        {
          "internalType": "bool",
          "name": "supported",
          "type": "bool"
        }
      ],
      "name": "setSupportedInterface",
      "outputs": [],
      "stateMutability": "nonpayable",
      "type": "function"
    },
    {
      "inputs": [
        {
          "internalType": "bytes4",
          "name": "interfaceId",
          "type": "bytes4"
        }
      ],
      "name": "supportsInterface",
      "outputs": [
        {
          "internalType": "bool",
          "name": "",
          "type": "bool"
        }
      ],
      "stateMutability": "view",
      "type": "function"
    },
    {
      "inputs": [
        {
          "internalType": "address",
          "name": "account",
          "type": "address"
        }
      ],
      "name": "transferOwnership",
      "outputs": [],
      "stateMutability": "nonpayable",
      "type": "function"
    },
    {
      "inputs": [],
      "name": "unpause",
      "outputs": [],
      "stateMutability": "nonpayable",
      "type": "function"
    },
    {
      "stateMutability": "payable",
      "type": "receive"
    }
  ],
  "transactionHash": "0xe1ba7e6ae491cf0929a89bb6aa06dc16e11941d5691696327316d0f91cc5c8af",
  "args": [],
  "numDeployments": 1,
  "solcInputHash": "0901cad12aac146dbdbf78117ae00a1c",
  "bytecode": "0x608060405234801561001057600080fd5b50614b3f806100206000396000f3fe60806040526004361061010d5760003560e01c80638456cb591161009557806396c32e511161006457806396c32e51146103a3578063adfca15e146103cc578063c197ea3514610409578063cdffacc614610432578063f2fde38b1461046f57610114565b80638456cb591461030d5780638ab5150a146103245780638da5cb5b1461034f578063914237651461037a57610114565b806352ef6b2c116100dc57806352ef6b2c1461024c5780635c975abb1461027757806379ba5097146102a25780637a0ed627146102b95780637f73528b146102e457610114565b806301ffc9a7146101a45780631f931c1c146101e15780632c4080591461020a5780633f4ba83a1461023557610114565b3661011457005b600061011e610498565b905061013f8173ffffffffffffffffffffffffffffffffffffffff16610617565b61017e576040517f08c379a000000000000000000000000000000000000000000000000000000000815260040161017590613110565b60405180910390fd5b3660008037600080366000845af43d6000803e806000811461019f573d6000f35b3d6000fd5b3480156101b057600080fd5b506101cb60048036038101906101c6919061319c565b61062a565b6040516101d891906131e4565b60405180910390f35b3480156101ed57600080fd5b5061020860048036038101906102039190613318565b61085a565b005b34801561021657600080fd5b5061021f610968565b60405161022c91906133bc565b60405180910390f35b34801561024157600080fd5b5061024a61099b565b005b34801561025857600080fd5b50610261610a91565b60405161026e9190613495565b60405180910390f35b34801561028357600080fd5b5061028c610cf9565b60405161029991906131e4565b60405180910390f35b3480156102ae57600080fd5b506102b7610d19565b005b3480156102c557600080fd5b506102ce610e6d565b6040516102db9190613674565b60405180910390f35b3480156102f057600080fd5b5061030b600480360381019061030691906136c2565b6113d5565b005b34801561031957600080fd5b50610322611494565b005b34801561033057600080fd5b5061033961158a565b60405161034691906133bc565b60405180910390f35b34801561035b57600080fd5b506103646115bd565b60405161037191906133bc565b60405180910390f35b34801561038657600080fd5b506103a1600480360381019061039c9190613702565b6115f0565b005b3480156103af57600080fd5b506103ca60048036038101906103c591906139ed565b6116d6565b005b3480156103d857600080fd5b506103f360048036038101906103ee9190613702565b6117ac565b6040516104009190613aa5565b60405180910390f35b34801561041557600080fd5b50610430600480360381019061042b9190613aeb565b6119d0565b005b34801561043e57600080fd5b506104596004803603810190610454919061319c565b611cbe565b60405161046691906133bc565b60405180910390f35b34801561047b57600080fd5b5061049660048036038101906104919190613702565b611d25565b005b60008060007f177481ac65e4292921c69f62d1cc7f57541261e5d61c8175cf4e36a01c9bfc939050809150600082600001600080357fffffffff00000000000000000000000000000000000000000000000000000000167bffffffffffffffffffffffffffffffffffffffffffffffffffffffff19167bffffffffffffffffffffffffffffffffffffffffffffffffffffffff191681526020019081526020016000205460601c9050600073ffffffffffffffffffffffffffffffffffffffff168173ffffffffffffffffffffffffffffffffffffffff16141561060e578260030160009054906101000a900473ffffffffffffffffffffffffffffffffffffffff169050600073ffffffffffffffffffffffffffffffffffffffff168173ffffffffffffffffffffffffffffffffffffffff16141561060d576040517f08c379a000000000000000000000000000000000000000000000000000000000815260040161060490613ba6565b60405180910390fd5b5b80935050505090565b600080823b905060008111915050919050565b600080610635611ddb565b90507fe78a39d8000000000000000000000000000000000000000000000000000000007bffffffffffffffffffffffffffffffffffffffffffffffffffffffff1916837bffffffffffffffffffffffffffffffffffffffffffffffffffffffff1916148061070057507f7f5828d0000000000000000000000000000000000000000000000000000000007bffffffffffffffffffffffffffffffffffffffffffffffffffffffff1916837bffffffffffffffffffffffffffffffffffffffffffffffffffffffff1916145b8061076857507f01ffc9a7000000000000000000000000000000000000000000000000000000007bffffffffffffffffffffffffffffffffffffffffffffffffffffffff1916837bffffffffffffffffffffffffffffffffffffffffffffffffffffffff1916145b806107d057507f1f931c1c000000000000000000000000000000000000000000000000000000007bffffffffffffffffffffffffffffffffffffffffffffffffffffffff1916837bffffffffffffffffffffffffffffffffffffffffffffffffffffffff1916145b8061083857507f48e2b093000000000000000000000000000000000000000000000000000000007bffffffffffffffffffffffffffffffffffffffffffffffffffffffff1916837bffffffffffffffffffffffffffffffffffffffffffffffffffffffff1916145b8061085257506108518382611e0890919063ffffffff16565b5b915050919050565b610862611e73565b60000160009054906101000a900473ffffffffffffffffffffffffffffffffffffffff1673ffffffffffffffffffffffffffffffffffffffff163373ffffffffffffffffffffffffffffffffffffffff16146108f3576040517f08c379a00000000000000000000000000000000000000000000000000000000081526004016108ea90613c12565b60405180910390fd5b6109618585906109039190613d8a565b8484848080601f016020809104026020016040519081016040528093929190818152602001838380828437600081840152601f19601f82011690508083019250505050505050610951611ea0565b611ecd909392919063ffffffff16565b5050505050565b6000610972611ea0565b60030160009054906101000a900473ffffffffffffffffffffffffffffffffffffffff16905090565b6109a3611e73565b60000160009054906101000a900473ffffffffffffffffffffffffffffffffffffffff1673ffffffffffffffffffffffffffffffffffffffff163373ffffffffffffffffffffffffffffffffffffffff1614610a34576040517f08c379a0000000000000000000000000000000000000000000000000000000008152600401610a2b90613c12565b60405180910390fd5b6000610a3e612127565b60000160006101000a81548160ff0219169083151502179055507f5db9ee0a495bf2e6ff9c91a7834c1ba4fdd244a5e8aa4e537bd38aeae4b073aa33604051610a8791906133bc565b60405180910390a1565b60606000610a9d611ea0565b90508060010160009054906101000a900461ffff1661ffff1667ffffffffffffffff811115610acf57610ace613745565b5b604051908082528060200260200182016040528015610afd5781602001602082028036833780820191505090505b50915060008060005b8360010160009054906101000a900461ffff1661ffff16821015610cef57600084600201600083815260200190815260200160002054905060005b6008811015610cda578380610b5590613dd8565b9450508560010160009054906101000a900461ffff1661ffff16841115610b7b57610cda565b6000600582901b83901b90506000876000016000837bffffffffffffffffffffffffffffffffffffffffffffffffffffffff19167bffffffffffffffffffffffffffffffffffffffffffffffffffffffff191681526020019081526020016000205460601c90506000805b88811015610c58578a8181518110610c0157610c00613e21565b5b602002602001015173ffffffffffffffffffffffffffffffffffffffff168373ffffffffffffffffffffffffffffffffffffffff161415610c455760019150610c58565b8080610c5090613dd8565b915050610be6565b508015610c6757505050610cc7565b818a8981518110610c7b57610c7a613e21565b5b602002602001019073ffffffffffffffffffffffffffffffffffffffff16908173ffffffffffffffffffffffffffffffffffffffff16815250508780610cc090613dd8565b9850505050505b8080610cd290613dd8565b915050610b41565b50508080610ce790613dd8565b915050610b06565b5081845250505090565b6000610d03612127565b60000160009054906101000a900460ff16905090565b610d21612154565b60000160009054906101000a900473ffffffffffffffffffffffffffffffffffffffff1673ffffffffffffffffffffffffffffffffffffffff163373ffffffffffffffffffffffffffffffffffffffff1614610db2576040517f08c379a0000000000000000000000000000000000000000000000000000000008152600401610da990613ec2565b60405180910390fd5b6000610dbc611e73565b90503373ffffffffffffffffffffffffffffffffffffffff168160000160009054906101000a900473ffffffffffffffffffffffffffffffffffffffff1673ffffffffffffffffffffffffffffffffffffffff167f8be0079c531659141344cd1fd0a4f28419497f9722a3daafe3b4186f6b6457e060405160405180910390a3610e4f338261218190919063ffffffff16565b610e6a6000610e5c612154565b6121c890919063ffffffff16565b50565b60606000610e79611ea0565b90508060010160009054906101000a900461ffff1661ffff1667ffffffffffffffff811115610eab57610eaa613745565b5b604051908082528060200260200182016040528015610ee457816020015b610ed161305d565b815260200190600190039081610ec95790505b50915060008160010160009054906101000a900461ffff1661ffff1667ffffffffffffffff811115610f1957610f18613745565b5b604051908082528060200260200182016040528015610f475781602001602082028036833780820191505090505b50905060008060005b8460010160009054906101000a900461ffff1661ffff1682101561136157600085600201600083815260200190815260200160002054905060005b600881101561134c578380610f9f90613dd8565b9450508660010160009054906101000a900461ffff1661ffff16841115610fc55761134c565b6000600582901b83901b90506000886000016000837bffffffffffffffffffffffffffffffffffffffffffffffffffffffff19167bffffffffffffffffffffffffffffffffffffffffffffffffffffffff191681526020019081526020016000205460601c90506000805b8881101561119d578273ffffffffffffffffffffffffffffffffffffffff168c828151811061106257611061613e21565b5b60200260200101516000015173ffffffffffffffffffffffffffffffffffffffff16141561118a57838c828151811061109e5761109d613e21565b5b6020026020010151602001518b83815181106110bd576110bc613e21565b5b602002602001015160ff16815181106110d9576110d8613e21565b5b60200260200101907bffffffffffffffffffffffffffffffffffffffffffffffffffffffff191690817bffffffffffffffffffffffffffffffffffffffffffffffffffffffff19168152505060ff8a828151811061113a57611139613e21565b5b602002602001015160ff161061114f57600080fd5b89818151811061116257611161613e21565b5b60200260200101805180919061117790613eef565b60ff1660ff16815250506001915061119d565b808061119590613dd8565b915050611030565b5080156111ac57505050611339565b818b89815181106111c0576111bf613e21565b5b60200260200101516000019073ffffffffffffffffffffffffffffffffffffffff16908173ffffffffffffffffffffffffffffffffffffffff16815250508960010160009054906101000a900461ffff1661ffff1667ffffffffffffffff81111561122e5761122d613745565b5b60405190808252806020026020018201604052801561125c5781602001602082028036833780820191505090505b508b89815181106112705761126f613e21565b5b602002602001015160200181905250828b898151811061129357611292613e21565b5b6020026020010151602001516000815181106112b2576112b1613e21565b5b60200260200101907bffffffffffffffffffffffffffffffffffffffffffffffffffffffff191690817bffffffffffffffffffffffffffffffffffffffffffffffffffffffff191681525050600189898151811061131357611312613e21565b5b602002602001019060ff16908160ff1681525050878061133290613dd8565b9850505050505b808061134490613dd8565b915050610f8b565b5050808061135990613dd8565b915050610f50565b5060005b828110156113ca57600084828151811061138257611381613e21565b5b602002602001015160ff16905060008783815181106113a4576113a3613e21565b5b6020026020010151602001519050818152505080806113c290613dd8565b915050611365565b508185525050505090565b6113dd611e73565b60000160009054906101000a900473ffffffffffffffffffffffffffffffffffffffff1673ffffffffffffffffffffffffffffffffffffffff163373ffffffffffffffffffffffffffffffffffffffff161461146e576040517f08c379a000000000000000000000000000000000000000000000000000000000815260040161146590613c12565b60405180910390fd5b6000611478611ddb565b905061148f83838361220f9092919063ffffffff16565b505050565b61149c611e73565b60000160009054906101000a900473ffffffffffffffffffffffffffffffffffffffff1673ffffffffffffffffffffffffffffffffffffffff163373ffffffffffffffffffffffffffffffffffffffff161461152d576040517f08c379a000000000000000000000000000000000000000000000000000000000815260040161152490613c12565b60405180910390fd5b6001611537612127565b60000160006101000a81548160ff0219169083151502179055507f62e78cea01bee320cd4e420270b5ea74000d11b0c9f74754ebdbfc544b05a2583360405161158091906133bc565b60405180910390a1565b6000611594612154565b60000160009054906101000a900473ffffffffffffffffffffffffffffffffffffffff16905090565b60006115c7611e73565b60000160009054906101000a900473ffffffffffffffffffffffffffffffffffffffff16905090565b6115f8611e73565b60000160009054906101000a900473ffffffffffffffffffffffffffffffffffffffff1673ffffffffffffffffffffffffffffffffffffffff163373ffffffffffffffffffffffffffffffffffffffff1614611689576040517f08c379a000000000000000000000000000000000000000000000000000000000815260040161168090613c12565b60405180910390fd5b80611692611ea0565b60030160006101000a81548173ffffffffffffffffffffffffffffffffffffffff021916908373ffffffffffffffffffffffffffffffffffffffff16021790555050565b60006116e1306122e8565b90508073ffffffffffffffffffffffffffffffffffffffff1663c197ea35836040518263ffffffff1660e01b815260040161171c919061400b565b600060405180830381600087803b15801561173657600080fd5b505af115801561174a573d6000803e3d6000fd5b505050508073ffffffffffffffffffffffffffffffffffffffff163073ffffffffffffffffffffffffffffffffffffffff167fb557324045551eafb0789d69d5679a7017a31840124b2220df4b81dea45ec08360405160405180910390a35050565b606060006117b8611ea0565b90508060010160009054906101000a900461ffff1661ffff1667ffffffffffffffff8111156117ea576117e9613745565b5b6040519080825280602002602001820160405280156118185781602001602082028036833780820191505090505b50915060008060005b8360010160009054906101000a900461ffff1661ffff168210156119c457600084600201600083815260200190815260200160002054905060005b60088110156119af57838061187090613dd8565b9450508560010160009054906101000a900461ffff1661ffff16841115611896576119af565b6000600582901b83901b9050866000016000827bffffffffffffffffffffffffffffffffffffffffffffffffffffffff19167bffffffffffffffffffffffffffffffffffffffffffffffffffffffff191681526020019081526020016000205460601c73ffffffffffffffffffffffffffffffffffffffff168973ffffffffffffffffffffffffffffffffffffffff16141561199b57808887815181106119405761193f613e21565b5b60200260200101907bffffffffffffffffffffffffffffffffffffffffffffffffffffffff191690817bffffffffffffffffffffffffffffffffffffffffffffffffffffffff191681525050858061199790613dd8565b9650505b5080806119a790613dd8565b91505061185c565b505080806119bc90613dd8565b915050611821565b50818452505050919050565b60006119da6123bd565b90508060000160019054906101000a900460ff16611a0a578060000160009054906101000a900460ff1615611a13565b611a126123ea565b5b611a52576040517f08c379a0000000000000000000000000000000000000000000000000000000008152600401611a499061409f565b60405180910390fd5b60008160000160019054906101000a900460ff161590508015611aaa5760018260000160016101000a81548160ff02191690831515021790555060018260000160006101000a81548160ff0219169083151502179055505b611ad6836000016020810190611ac09190613702565b611ac8611e73565b61218190919063ffffffff16565b6000611ae0611ea0565b9050836040016020810190611af59190613702565b8160030160006101000a81548173ffffffffffffffffffffffffffffffffffffffff021916908373ffffffffffffffffffffffffffffffffffffffff160217905550600080856040016020810190611b4d9190613702565b73ffffffffffffffffffffffffffffffffffffffff16868060600190611b7391906140ce565b604051611b81929190614161565b600060405180830381855af49150503d8060008114611bbc576040519150601f19603f3d011682016040523d82523d6000602084013e611bc1565b606091505b5091509150818190611c09576040517f08c379a0000000000000000000000000000000000000000000000000000000008152600401611c0091906141be565b60405180910390fd5b506000611c14611ddb565b905060005b878060200190611c2991906141e0565b9050811015611c9057611c7d888060200190611c4591906141e0565b83818110611c5657611c55613e21565b5b9050602002016020810190611c6b919061319c565b60018461220f9092919063ffffffff16565b8080611c8890613dd8565b915050611c19565b50505050508015611cb95760008260000160016101000a81548160ff0219169083151502179055505b505050565b6000611cc8611ea0565b6000016000837bffffffffffffffffffffffffffffffffffffffffffffffffffffffff19167bffffffffffffffffffffffffffffffffffffffffffffffffffffffff191681526020019081526020016000205460601c9050919050565b611d2d611e73565b60000160009054906101000a900473ffffffffffffffffffffffffffffffffffffffff1673ffffffffffffffffffffffffffffffffffffffff163373ffffffffffffffffffffffffffffffffffffffff1614611dbe576040517f08c379a0000000000000000000000000000000000000000000000000000000008152600401611db590613c12565b60405180910390fd5b611dd881611dca612154565b6121c890919063ffffffff16565b50565b6000807f326d0c59a7612f6a9919e2a8ee333c80ba689d8ba2634de89c85cbb04832e70590508091505090565b6000826000016000837bffffffffffffffffffffffffffffffffffffffffffffffffffffffff19167bffffffffffffffffffffffffffffffffffffffffffffffffffffffff1916815260200190815260200160002060009054906101000a900460ff16905092915050565b6000807f8a22373512790c48b83a1fe2efdd2888d4a917bcdc24d0adf63e60f67168046090508091505090565b6000807f177481ac65e4292921c69f62d1cc7f57541261e5d61c8175cf4e36a01c9bfc9390508091505090565b60008460010160009054906101000a900461ffff1661ffff1690506000819050600080600783161115611f1757866002016000600384901c81526020019081526020016000205490505b60005b8651811015612086576000878281518110611f3857611f37613e21565b5b60200260200101519050600081602001519050600082604001515111611f93576040517f08c379a0000000000000000000000000000000000000000000000000000000008152600401611f8a906142b5565b60405180910390fd5b60006002811115611fa757611fa66142d5565b5b816002811115611fba57611fb96142d5565b5b1415611fe457611fd78585848d6123fb909392919063ffffffff16565b8095508196505050612077565b60016002811115611ff857611ff76142d5565b5b81600281111561200b5761200a6142d5565b5b141561202957612024828b6126bc90919063ffffffff16565b612076565b60028081111561203c5761203b6142d5565b5b81600281111561204f5761204e6142d5565b5b14156120755761206c8585848d612999909392919063ffffffff16565b80955081965050505b5b5b50508080600101915050611f1a565b508282146120ae57818760010160006101000a81548161ffff021916908361ffff1602179055505b60006007831611156120d95780876002016000600385901c8152602001908152602001600020819055505b7f8faa70878671ccd212d20771b795c50af8fd3ff6cf27f4bde57e5d4de0aeb67386868660405161210c939291906144a8565b60405180910390a161211e8585612e9e565b50505050505050565b6000807f68721c0bbf2c02a4d65000340d1370666be06a630022208d4baa9bd7a4b6fea890508091505090565b6000807f24aa1f7b31fd188a8d3ecfb06bc55c806040e59b03bd4396283442fce661789090508091505090565b808260000160006101000a81548173ffffffffffffffffffffffffffffffffffffffff021916908373ffffffffffffffffffffffffffffffffffffffff1602179055505050565b808260000160006101000a81548173ffffffffffffffffffffffffffffffffffffffff021916908373ffffffffffffffffffffffffffffffffffffffff1602179055505050565b63ffffffff60e01b827bffffffffffffffffffffffffffffffffffffffffffffffffffffffff19161415612278576040517f08c379a000000000000000000000000000000000000000000000000000000000815260040161226f90614539565b60405180910390fd5b80836000016000847bffffffffffffffffffffffffffffffffffffffffffffffffffffffff19167bffffffffffffffffffffffffffffffffffffffffffffffffffffffff1916815260200190815260200160002060006101000a81548160ff021916908315150217905550505050565b60006040517f3d602d80600a3d3981f3363d3d373d3d3d363d7300000000000000000000000081528260601b60148201527f5af43d82803e903d91602b57fd5bf3000000000000000000000000000000000060288201526037816000f0915050600073ffffffffffffffffffffffffffffffffffffffff168173ffffffffffffffffffffffffffffffffffffffff1614156123b8576040517f08c379a00000000000000000000000000000000000000000000000000000000081526004016123af906145a5565b60405180910390fd5b919050565b6000807f2ae1e818fc317b4c150084d41bf7468a28b0861c8b85a3e58e4bb4d5dbbc6aa190508091505090565b60006123f530610617565b15905090565b6000803073ffffffffffffffffffffffffffffffffffffffff16836000015173ffffffffffffffffffffffffffffffffffffffff16148061245b575061245a836000015173ffffffffffffffffffffffffffffffffffffffff16610617565b5b61249a576040517f08c379a000000000000000000000000000000000000000000000000000000000815260040161249190614637565b60405180910390fd5b60005b8360400151518110156126ac576000846040015182815181106124c3576124c2613e21565b5b602002602001015190506000886000016000837bffffffffffffffffffffffffffffffffffffffffffffffffffffffff19167bffffffffffffffffffffffffffffffffffffffffffffffffffffffff19168152602001908152602001600020549050600073ffffffffffffffffffffffffffffffffffffffff168160601c73ffffffffffffffffffffffffffffffffffffffff1614612597576040517f08c379a000000000000000000000000000000000000000000000000000000000815260040161258e906146c9565b60405180910390fd5b8760001b866000015160601b6bffffffffffffffffffffffff191617896000016000847bffffffffffffffffffffffffffffffffffffffffffffffffffffffff19167bffffffffffffffffffffffffffffffffffffffffffffffffffffffff19168152602001908152602001600020819055506000600560078a16901b905080837bffffffffffffffffffffffffffffffffffffffffffffffffffffffff1916901c817fffffffff0000000000000000000000000000000000000000000000000000000060001b901c19891617975060e081141561269457878a600201600060038c901c8152602001908152602001600020819055506000801b97505b8880600101995050505050808060010191505061249d565b5084849150915094509492505050565b6126df816000015173ffffffffffffffffffffffffffffffffffffffff16610617565b61271e576040517f08c379a00000000000000000000000000000000000000000000000000000000081526004016127159061475b565b60405180910390fd5b60005b8160400151518110156129945760008260400151828151811061274757612746613e21565b5b602002602001015190506000846000016000837bffffffffffffffffffffffffffffffffffffffffffffffffffffffff19167bffffffffffffffffffffffffffffffffffffffffffffffffffffffff1916815260200190815260200160002054905060008160601c9050600073ffffffffffffffffffffffffffffffffffffffff168173ffffffffffffffffffffffffffffffffffffffff161415612821576040517f08c379a0000000000000000000000000000000000000000000000000000000008152600401612818906147c7565b60405180910390fd5b3073ffffffffffffffffffffffffffffffffffffffff168173ffffffffffffffffffffffffffffffffffffffff161415612890576040517f08c379a000000000000000000000000000000000000000000000000000000000815260040161288790614859565b60405180910390fd5b846000015173ffffffffffffffffffffffffffffffffffffffff168173ffffffffffffffffffffffffffffffffffffffff161415612903576040517f08c379a00000000000000000000000000000000000000000000000000000000081526004016128fa906148eb565b60405180910390fd5b846000015160601b6bffffffffffffffffffffffff19166bffffffffffffffffffffffff60001b831617866000016000857bffffffffffffffffffffffffffffffffffffffffffffffffffffffff19167bffffffffffffffffffffffffffffffffffffffffffffffffffffffff19168152602001908152602001600020819055505050508080600101915050612721565b505050565b600080600073ffffffffffffffffffffffffffffffffffffffff16836000015173ffffffffffffffffffffffffffffffffffffffff1614612a0f576040517f08c379a0000000000000000000000000000000000000000000000000000000008152600401612a069061497d565b60405180910390fd5b6000600386901c9050600060078716905060005b856040015151811015612e8357600086604001518281518110612a4957612a48613e21565b5b6020026020010151905060008a6000016000837bffffffffffffffffffffffffffffffffffffffffffffffffffffffff19167bffffffffffffffffffffffffffffffffffffffffffffffffffffffff19168152602001908152602001600020549050600073ffffffffffffffffffffffffffffffffffffffff168160601c73ffffffffffffffffffffffffffffffffffffffff161415612b1e576040517f08c379a0000000000000000000000000000000000000000000000000000000008152600401612b15906147c7565b60405180910390fd5b3073ffffffffffffffffffffffffffffffffffffffff168160601c73ffffffffffffffffffffffffffffffffffffffff161415612b90576040517f08c379a0000000000000000000000000000000000000000000000000000000008152600401612b8790614859565b60405180910390fd5b6000801b891415612bc5578480600190039550508a600201600086815260200190815260200160002054985060079350612bcf565b8380600190039450505b6000806000600587901b8c901b9250847bffffffffffffffffffffffffffffffffffffffffffffffffffffffff1916837bffffffffffffffffffffffffffffffffffffffffffffffffffffffff191614612cf1578d6000016000847bffffffffffffffffffffffffffffffffffffffffffffffffffffffff19167bffffffffffffffffffffffffffffffffffffffffffffffffffffffff19168152602001908152602001600020546bffffffffffffffffffffffff19166bffffffffffffffffffffffff60001b8516178e6000016000857bffffffffffffffffffffffffffffffffffffffffffffffffffffffff19167bffffffffffffffffffffffffffffffffffffffffffffffffffffffff19168152602001908152602001600020819055505b8d6000016000867bffffffffffffffffffffffffffffffffffffffffffffffffffffffff19167bffffffffffffffffffffffffffffffffffffffffffffffffffffffff191681526020019081526020016000206000905560008460001c61ffff169050600381901c9250600560078216901b915050878214612df75760008e600201600084815260200190815260200160002054905081847bffffffffffffffffffffffffffffffffffffffffffffffffffffffff1916901c827fffffffff0000000000000000000000000000000000000000000000000000000060001b901c198216179050808f60020160008581526020019081526020016000208190555050612e48565b80837bffffffffffffffffffffffffffffffffffffffffffffffffffffffff1916901c817fffffffff0000000000000000000000000000000000000000000000000000000060001b901c198d16179b505b6000871415612e71578d6002016000898152602001908152602001600020600090556000801b9b505b50505050508080600101915050612a23565b5080600383901b179650868693509350505094509492505050565b60008151141515600073ffffffffffffffffffffffffffffffffffffffff168373ffffffffffffffffffffffffffffffffffffffff1614151514612f17576040517f08c379a0000000000000000000000000000000000000000000000000000000008152600401612f0e90614a0f565b60405180910390fd5b600073ffffffffffffffffffffffffffffffffffffffff168273ffffffffffffffffffffffffffffffffffffffff1614613059573073ffffffffffffffffffffffffffffffffffffffff168273ffffffffffffffffffffffffffffffffffffffff1614612fdd57612f9d8273ffffffffffffffffffffffffffffffffffffffff16610617565b612fdc576040517f08c379a0000000000000000000000000000000000000000000000000000000008152600401612fd390614aa1565b60405180910390fd5b5b60008273ffffffffffffffffffffffffffffffffffffffff16826040516130049190614af2565b600060405180830381855af49150503d806000811461303f576040519150601f19603f3d011682016040523d82523d6000602084013e613044565b606091505b5050905080613057573d6000803e3d6000fd5b505b5050565b6040518060400160405280600073ffffffffffffffffffffffffffffffffffffffff168152602001606081525090565b600082825260208201905092915050565b7f50726f78793a20696d706c656d656e746174696f6e206d75737420626520636f60008201527f6e74726163740000000000000000000000000000000000000000000000000000602082015250565b60006130fa60268361308d565b91506131058261309e565b604082019050919050565b60006020820190508181036000830152613129816130ed565b9050919050565b6000604051905090565b600080fd5b600080fd5b60007fffffffff0000000000000000000000000000000000000000000000000000000082169050919050565b61317981613144565b811461318457600080fd5b50565b60008135905061319681613170565b92915050565b6000602082840312156131b2576131b161313a565b5b60006131c084828501613187565b91505092915050565b60008115159050919050565b6131de816131c9565b82525050565b60006020820190506131f960008301846131d5565b92915050565b600080fd5b600080fd5b600080fd5b60008083601f840112613224576132236131ff565b5b8235905067ffffffffffffffff81111561324157613240613204565b5b60208301915083602082028301111561325d5761325c613209565b5b9250929050565b600073ffffffffffffffffffffffffffffffffffffffff82169050919050565b600061328f82613264565b9050919050565b61329f81613284565b81146132aa57600080fd5b50565b6000813590506132bc81613296565b92915050565b60008083601f8401126132d8576132d76131ff565b5b8235905067ffffffffffffffff8111156132f5576132f4613204565b5b60208301915083600182028301111561331157613310613209565b5b9250929050565b6000806000806000606086880312156133345761333361313a565b5b600086013567ffffffffffffffff8111156133525761335161313f565b5b61335e8882890161320e565b95509550506020613371888289016132ad565b935050604086013567ffffffffffffffff8111156133925761339161313f565b5b61339e888289016132c2565b92509250509295509295909350565b6133b681613284565b82525050565b60006020820190506133d160008301846133ad565b92915050565b600081519050919050565b600082825260208201905092915050565b6000819050602082019050919050565b61340c81613284565b82525050565b600061341e8383613403565b60208301905092915050565b6000602082019050919050565b6000613442826133d7565b61344c81856133e2565b9350613457836133f3565b8060005b8381101561348857815161346f8882613412565b975061347a8361342a565b92505060018101905061345b565b5085935050505092915050565b600060208201905081810360008301526134af8184613437565b905092915050565b600081519050919050565b600082825260208201905092915050565b6000819050602082019050919050565b600081519050919050565b600082825260208201905092915050565b6000819050602082019050919050565b61351881613144565b82525050565b600061352a838361350f565b60208301905092915050565b6000602082019050919050565b600061354e826134e3565b61355881856134ee565b9350613563836134ff565b8060005b8381101561359457815161357b888261351e565b975061358683613536565b925050600181019050613567565b5085935050505092915050565b60006040830160008301516135b96000860182613403565b50602083015184820360208601526135d18282613543565b9150508091505092915050565b60006135ea83836135a1565b905092915050565b6000602082019050919050565b600061360a826134b7565b61361481856134c2565b935083602082028501613626856134d3565b8060005b85811015613662578484038952815161364385826135de565b945061364e836135f2565b925060208a0199505060018101905061362a565b50829750879550505050505092915050565b6000602082019050818103600083015261368e81846135ff565b905092915050565b61369f816131c9565b81146136aa57600080fd5b50565b6000813590506136bc81613696565b92915050565b600080604083850312156136d9576136d861313a565b5b60006136e785828601613187565b92505060206136f8858286016136ad565b9150509250929050565b6000602082840312156137185761371761313a565b5b6000613726848285016132ad565b91505092915050565b600080fd5b6000601f19601f8301169050919050565b7f4e487b7100000000000000000000000000000000000000000000000000000000600052604160045260246000fd5b61377d82613734565b810181811067ffffffffffffffff8211171561379c5761379b613745565b5b80604052505050565b60006137af613130565b90506137bb8282613774565b919050565b600080fd5b600067ffffffffffffffff8211156137e0576137df613745565b5b602082029050602081019050919050565b60006138046137ff846137c5565b6137a5565b9050808382526020820190506020840283018581111561382757613826613209565b5b835b81811015613850578061383c8882613187565b845260208401935050602081019050613829565b5050509392505050565b600082601f83011261386f5761386e6131ff565b5b813561387f8482602086016137f1565b91505092915050565b600080fd5b600067ffffffffffffffff8211156138a8576138a7613745565b5b6138b182613734565b9050602081019050919050565b82818337600083830152505050565b60006138e06138db8461388d565b6137a5565b9050828152602081018484840111156138fc576138fb613888565b5b6139078482856138be565b509392505050565b600082601f830112613924576139236131ff565b5b81356139348482602086016138cd565b91505092915050565b6000608082840312156139535761395261372f565b5b61395d60806137a5565b9050600061396d848285016132ad565b600083015250602082013567ffffffffffffffff811115613991576139906137c0565b5b61399d8482850161385a565b60208301525060406139b1848285016132ad565b604083015250606082013567ffffffffffffffff8111156139d5576139d46137c0565b5b6139e18482850161390f565b60608301525092915050565b600060208284031215613a0357613a0261313a565b5b600082013567ffffffffffffffff811115613a2157613a2061313f565b5b613a2d8482850161393d565b91505092915050565b600082825260208201905092915050565b6000613a52826134e3565b613a5c8185613a36565b9350613a67836134ff565b8060005b83811015613a98578151613a7f888261351e565b9750613a8a83613536565b925050600181019050613a6b565b5085935050505092915050565b60006020820190508181036000830152613abf8184613a47565b905092915050565b600080fd5b600060808284031215613ae257613ae1613ac7565b5b81905092915050565b600060208284031215613b0157613b0061313a565b5b600082013567ffffffffffffffff811115613b1f57613b1e61313f565b5b613b2b84828501613acc565b91505092915050565b7f4469616d6f6e64426173653a206e6f20666163657420666f756e6420666f722060008201527f66756e6374696f6e207369676e61747572650000000000000000000000000000602082015250565b6000613b9060328361308d565b9150613b9b82613b34565b604082019050919050565b60006020820190508181036000830152613bbf81613b83565b9050919050565b7f4f776e61626c653a2073656e646572206d757374206265206f776e6572000000600082015250565b6000613bfc601d8361308d565b9150613c0782613bc6565b602082019050919050565b60006020820190508181036000830152613c2b81613bef565b9050919050565b600067ffffffffffffffff821115613c4d57613c4c613745565b5b602082029050602081019050919050565b60038110613c6b57600080fd5b50565b600081359050613c7d81613c5e565b92915050565b600060608284031215613c9957613c9861372f565b5b613ca360606137a5565b90506000613cb3848285016132ad565b6000830152506020613cc784828501613c6e565b602083015250604082013567ffffffffffffffff811115613ceb57613cea6137c0565b5b613cf78482850161385a565b60408301525092915050565b6000613d16613d1184613c32565b6137a5565b90508083825260208201905060208402830185811115613d3957613d38613209565b5b835b81811015613d8057803567ffffffffffffffff811115613d5e57613d5d6131ff565b5b808601613d6b8982613c83565b85526020850194505050602081019050613d3b565b5050509392505050565b6000613d97368484613d03565b905092915050565b7f4e487b7100000000000000000000000000000000000000000000000000000000600052601160045260246000fd5b6000819050919050565b6000613de382613dce565b91507fffffffffffffffffffffffffffffffffffffffffffffffffffffffffffffffff821415613e1657613e15613d9f565b5b600182019050919050565b7f4e487b7100000000000000000000000000000000000000000000000000000000600052603260045260246000fd5b7f536166654f776e61626c653a2073656e646572206d757374206265206e6f6d6960008201527f6e6565206f776e65720000000000000000000000000000000000000000000000602082015250565b6000613eac60298361308d565b9150613eb782613e50565b604082019050919050565b60006020820190508181036000830152613edb81613e9f565b9050919050565b600060ff82169050919050565b6000613efa82613ee2565b915060ff821415613f0e57613f0d613d9f565b5b600182019050919050565b600081519050919050565b600082825260208201905092915050565b60005b83811015613f53578082015181840152602081019050613f38565b83811115613f62576000848401525b50505050565b6000613f7382613f19565b613f7d8185613f24565b9350613f8d818560208601613f35565b613f9681613734565b840191505092915050565b6000608083016000830151613fb96000860182613403565b5060208301518482036020860152613fd18282613543565b9150506040830151613fe66040860182613403565b5060608301518482036060860152613ffe8282613f68565b9150508091505092915050565b600060208201905081810360008301526140258184613fa1565b905092915050565b7f496e697469616c697a61626c653a20636f6e747261637420697320616c72656160008201527f647920696e697469616c697a6564000000000000000000000000000000000000602082015250565b6000614089602e8361308d565b91506140948261402d565b604082019050919050565b600060208201905081810360008301526140b88161407c565b9050919050565b600080fd5b600080fd5b600080fd5b600080833560016020038436030381126140eb576140ea6140bf565b5b80840192508235915067ffffffffffffffff82111561410d5761410c6140c4565b5b602083019250600182023603831315614129576141286140c9565b5b509250929050565b600081905092915050565b60006141488385614131565b93506141558385846138be565b82840190509392505050565b600061416e82848661413c565b91508190509392505050565b600081519050919050565b60006141908261417a565b61419a818561308d565b93506141aa818560208601613f35565b6141b381613734565b840191505092915050565b600060208201905081810360008301526141d88184614185565b905092915050565b600080833560016020038436030381126141fd576141fc6140bf565b5b80840192508235915067ffffffffffffffff82111561421f5761421e6140c4565b5b60208301925060208202360383131561423b5761423a6140c9565b5b509250929050565b7f4469616d6f6e64426173653a206e6f2073656c6563746f72732073706563696660008201527f6965640000000000000000000000000000000000000000000000000000000000602082015250565b600061429f60238361308d565b91506142aa82614243565b604082019050919050565b600060208201905081810360008301526142ce81614292565b9050919050565b7f4e487b7100000000000000000000000000000000000000000000000000000000600052602160045260246000fd5b600081519050919050565b600082825260208201905092915050565b6000819050602082019050919050565b60038110614341576143406142d5565b5b50565b600081905061435282614330565b919050565b600061436282614344565b9050919050565b61437281614357565b82525050565b60006060830160008301516143906000860182613403565b5060208301516143a36020860182614369565b50604083015184820360408601526143bb8282613543565b9150508091505092915050565b60006143d48383614378565b905092915050565b6000602082019050919050565b60006143f482614304565b6143fe818561430f565b93508360208202850161441085614320565b8060005b8581101561444c578484038952815161442d85826143c8565b9450614438836143dc565b925060208a01995050600181019050614414565b50829750879550505050505092915050565b600082825260208201905092915050565b600061447a82613f19565b614484818561445e565b9350614494818560208601613f35565b61449d81613734565b840191505092915050565b600060608201905081810360008301526144c281866143e9565b90506144d160208301856133ad565b81810360408301526144e3818461446f565b9050949350505050565b7f4552433136353a20696e76616c696420696e7465726661636520696400000000600082015250565b6000614523601c8361308d565b915061452e826144ed565b602082019050919050565b6000602082019050818103600083015261455281614516565b9050919050565b7f455243313136373a20637265617465206661696c656400000000000000000000600082015250565b600061458f60168361308d565b915061459a82614559565b602082019050919050565b600060208201905081810360008301526145be81614582565b9050919050565b7f4469616d6f6e64426173653a204144442074617267657420686173206e6f206360008201527f6f64650000000000000000000000000000000000000000000000000000000000602082015250565b600061462160238361308d565b915061462c826145c5565b604082019050919050565b6000602082019050818103600083015261465081614614565b9050919050565b7f4469616d6f6e64426173653a2073656c6563746f7220616c726561647920616460008201527f6465640000000000000000000000000000000000000000000000000000000000602082015250565b60006146b360238361308d565b91506146be82614657565b604082019050919050565b600060208201905081810360008301526146e2816146a6565b9050919050565b7f4469616d6f6e64426173653a205245504c41434520746172676574206861732060008201527f6e6f20636f646500000000000000000000000000000000000000000000000000602082015250565b600061474560278361308d565b9150614750826146e9565b604082019050919050565b6000602082019050818103600083015261477481614738565b9050919050565b7f4469616d6f6e64426173653a2073656c6563746f72206e6f7420666f756e6400600082015250565b60006147b1601f8361308d565b91506147bc8261477b565b602082019050919050565b600060208201905081810360008301526147e0816147a4565b9050919050565b7f4469616d6f6e64426173653a2073656c6563746f7220697320696d6d7574616260008201527f6c65000000000000000000000000000000000000000000000000000000000000602082015250565b600061484360228361308d565b915061484e826147e7565b604082019050919050565b6000602082019050818103600083015261487281614836565b9050919050565b7f4469616d6f6e64426173653a205245504c41434520746172676574206973206960008201527f64656e746963616c000000000000000000000000000000000000000000000000602082015250565b60006148d560288361308d565b91506148e082614879565b604082019050919050565b60006020820190508181036000830152614904816148c8565b9050919050565b7f4469616d6f6e64426173653a2052454d4f564520746172676574206d7573742060008201527f6265207a65726f20616464726573730000000000000000000000000000000000602082015250565b6000614967602f8361308d565b91506149728261490b565b604082019050919050565b600060208201905081810360008301526149968161495a565b9050919050565b7f4469616d6f6e64426173653a20696e76616c696420696e697469616c697a617460008201527f696f6e20706172616d6574657273000000000000000000000000000000000000602082015250565b60006149f9602e8361308d565b9150614a048261499d565b604082019050919050565b60006020820190508181036000830152614a28816149ec565b9050919050565b7f4469616d6f6e64426173653a20696e697469616c697a6174696f6e207461726760008201527f657420686173206e6f20636f6465000000000000000000000000000000000000602082015250565b6000614a8b602e8361308d565b9150614a9682614a2f565b604082019050919050565b60006020820190508181036000830152614aba81614a7e565b9050919050565b6000614acc82613f19565b614ad68185614131565b9350614ae6818560208601613f35565b80840191505092915050565b6000614afe8284614ac1565b91508190509291505056fea264697066735822122009b57487d5ab8a750d755b8b1e2aa3c035ed964d3ad4ac3c7d0ae06f510ccb3364736f6c634300080b0033",
  "devdoc": {
    "kind": "dev",
    "methods": {
      "diamondCut((address,uint8,bytes4[])[],address,bytes)": {
        "params": {
          "data": "optional initialization call data",
          "facetCuts": "array of structured Diamond facet update data",
          "target": "optional recipient of initialization delegatecall"
        }
      },
      "facetAddress(bytes4)": {
        "params": {
          "selector": "function selector to query"
        },
        "returns": {
          "facet": "facet address (zero address if not found)"
        }
      },
      "facetAddresses()": {
        "returns": {
          "addresses": "array of facet addresses"
        }
      },
      "facetFunctionSelectors(address)": {
        "params": {
          "facet": "address of facet to query"
        },
        "returns": {
          "selectors": "array of function selectors"
        }
      },
      "facets()": {
        "returns": {
          "diamondFacets": "array of structured facet data"
        }
      },
      "owner()": {
        "returns": {
          "_0": "conract owner"
        }
      },
      "pause()": {
        "details": "pause the contract"
      },
      "paused()": {
        "details": "Should return if the contract is paused"
      },
      "supportsInterface(bytes4)": {
        "params": {
          "interfaceId": "interface id"
        },
        "returns": {
          "_0": "bool whether interface is supported"
        }
      },
      "transferOwnership(address)": {
        "details": "ownership transfer must be accepted by beneficiary before transfer is complete",
        "params": {
          "account": "address of new owner"
        }
      },
      "unpause()": {
        "details": "unpause the contract"
      }
    },
    "version": 1
  },
  "userdoc": {
    "kind": "user",
    "methods": {
      "acceptOwnership()": {
        "notice": "accept transfer of contract ownership"
      },
      "diamondCut((address,uint8,bytes4[])[],address,bytes)": {
        "notice": "update functions callable on Diamond proxy"
      },
      "facetAddress(bytes4)": {
        "notice": "get the address of the facet associated with given selector"
      },
      "facetAddresses()": {
        "notice": "get addresses of all facets used by diamond"
      },
      "facetFunctionSelectors(address)": {
        "notice": "get all selectors for given facet address"
      },
      "facets()": {
        "notice": "get all facets and their selectors"
      },
      "owner()": {
        "notice": "get the ERC173 contract owner"
      },
      "supportsInterface(bytes4)": {
        "notice": "query whether contract has registered support for given interface"
      },
      "transferOwnership(address)": {
        "notice": "transfer contract ownership to new account"
      }
    },
    "version": 1
  },
  "storageLayout": {
    "storage": [],
    "types": null
  }
}