{
  "address": "0xe54916C70f75a1A0C4749e4d830999daeF13f7FD",
  "abi": [
    {
      "anonymous": false,
      "inputs": [
        {
          "indexed": true,
          "internalType": "address",
          "name": "account",
          "type": "address"
        },
        {
          "indexed": false,
          "internalType": "uint256",
          "name": "income",
          "type": "uint256"
        }
      ],
      "name": "Alchemy",
      "type": "event"
    },
    {
      "anonymous": false,
      "inputs": [
        {
          "indexed": true,
          "internalType": "address",
          "name": "account",
          "type": "address"
        },
        {
          "indexed": true,
          "internalType": "address",
          "name": "operator",
          "type": "address"
        },
        {
          "indexed": false,
          "internalType": "bool",
          "name": "approved",
          "type": "bool"
        }
      ],
      "name": "ApprovalForAll",
      "type": "event"
    },
    {
      "anonymous": false,
      "inputs": [
        {
          "indexed": true,
          "internalType": "uint256",
          "name": "",
          "type": "uint256"
        },
        {
          "indexed": false,
          "internalType": "address",
          "name": "",
          "type": "address"
        },
        {
          "indexed": false,
          "internalType": "uint256",
          "name": "",
          "type": "uint256"
        },
        {
          "indexed": false,
          "internalType": "uint256",
          "name": "",
          "type": "uint256"
        }
      ],
      "name": "Finalize",
      "type": "event"
    },
    {
      "anonymous": false,
      "inputs": [
        {
          "indexed": true,
          "internalType": "address",
          "name": "operator",
          "type": "address"
        },
        {
          "indexed": true,
          "internalType": "address",
          "name": "from",
          "type": "address"
        },
        {
          "indexed": true,
          "internalType": "address",
          "name": "to",
          "type": "address"
        },
        {
          "indexed": false,
          "internalType": "uint256[]",
          "name": "ids",
          "type": "uint256[]"
        },
        {
          "indexed": false,
          "internalType": "uint256[]",
          "name": "values",
          "type": "uint256[]"
        }
      ],
      "name": "TransferBatch",
      "type": "event"
    },
    {
      "anonymous": false,
      "inputs": [
        {
          "indexed": true,
          "internalType": "address",
          "name": "operator",
          "type": "address"
        },
        {
          "indexed": true,
          "internalType": "address",
          "name": "from",
          "type": "address"
        },
        {
          "indexed": true,
          "internalType": "address",
          "name": "to",
          "type": "address"
        },
        {
          "indexed": false,
          "internalType": "uint256",
          "name": "id",
          "type": "uint256"
        },
        {
          "indexed": false,
          "internalType": "uint256",
          "name": "value",
          "type": "uint256"
        }
      ],
      "name": "TransferSingle",
      "type": "event"
    },
    {
      "inputs": [
        {
          "internalType": "uint256[]",
          "name": "ids",
          "type": "uint256[]"
        }
      ],
      "name": "alchemize",
      "outputs": [
        {
          "internalType": "uint256",
          "name": "income",
          "type": "uint256"
        }
      ],
      "stateMutability": "nonpayable",
      "type": "function"
    },
    {
      "inputs": [
        {
          "internalType": "address",
          "name": "source",
          "type": "address"
        },
        {
          "internalType": "uint256",
          "name": "income",
          "type": "uint256"
        }
      ],
      "name": "finalize",
      "outputs": [],
      "stateMutability": "nonpayable",
      "type": "function"
    },
    {
      "inputs": [],
      "name": "treasureSource",
      "outputs": [
        {
          "internalType": "address",
          "name": "",
          "type": "address"
        }
      ],
      "stateMutability": "view",
      "type": "function"
    }
  ],
  "transactionHash": "0x11c66d43c63c947effdda1b9e4343fefbf1e3ac3ff384e376036c93096fd96f3",
  "args": [],
  "numDeployments": 1,
  "solcInputHash": "b1a391ad26a855b7eca9d1bfba37e4c2",
  "bytecode": "0x608060405234801561001057600080fd5b5061150c806100206000396000f3fe608060405234801561001057600080fd5b50600436106100415760003560e01c80630553e156146100465780630b9d0b79146100625780638550e6d114610092575b600080fd5b610060600480360381019061005b9190610c0d565b6100b0565b005b61007c60048036038101906100779190610c49565b610251565b60405161008991906110d2565b60405180910390f35b61009a610755565b6040516100a79190610f05565b60405180910390f35b6100b8610781565b60000160009054906101000a900473ffffffffffffffffffffffffffffffffffffffff1673ffffffffffffffffffffffffffffffffffffffff163373ffffffffffffffffffffffffffffffffffffffff1614610149576040517f08c379a000000000000000000000000000000000000000000000000000000000815260040161014090611052565b60405180910390fd5b60008060010154905081600060020160008381526020019081526020016000206001018190555060008060020160008381526020019081526020016000206000015490506000838261019b91906111ae565b905060008111156101f8576101f78530836000800160009054906101000a900473ffffffffffffffffffffffffffffffffffffffff1673ffffffffffffffffffffffffffffffffffffffff166107ae909392919063ffffffff16565b5b6001836102059190611158565b600060010181905550827f6b386025bc0236c42d249e5de208a8f0f9383049cf5796dfa0a878fd9d73d11a86868560405161024293929190610f80565b60405180910390a25050505050565b600061025b610837565b60000160009054906101000a900460ff16156102ac576040517f08c379a00000000000000000000000000000000000000000000000000000000081526004016102a390611032565b60405180910390fd5b60006102b6610864565b905060008060010154905060008585905067ffffffffffffffff811115610306577f4e487b7100000000000000000000000000000000000000000000000000000000600052604160045260246000fd5b6040519080825280602002602001820160405280156103345781602001602082028036833780820191505090505b50905060005b8686905081101561062d578287878381811061037f577f4e487b7100000000000000000000000000000000000000000000000000000000600052603260045260246000fd5b90506020020135106103c6576040517f08c379a00000000000000000000000000000000000000000000000000000000081526004016103bd906110b2565b60405180910390fd5b6000846000016000898985818110610407577f4e487b7100000000000000000000000000000000000000000000000000000000600052603260045260246000fd5b90506020020135815260200190815260200160002060003373ffffffffffffffffffffffffffffffffffffffff1673ffffffffffffffffffffffffffffffffffffffff16815260200190815260200160002054905080600060020160008a8a8681811061049d577f4e487b7100000000000000000000000000000000000000000000000000000000600052603260045260246000fd5b90506020020135815260200190815260200160002060000160008282546104c49190611208565b9250508190555060008560000160008a8a8681811061050c577f4e487b7100000000000000000000000000000000000000000000000000000000600052603260045260246000fd5b90506020020135815260200190815260200160002060003373ffffffffffffffffffffffffffffffffffffffff1673ffffffffffffffffffffffffffffffffffffffff16815260200190815260200160002081905550600060020160008989858181106105a2577f4e487b7100000000000000000000000000000000000000000000000000000000600052603260045260246000fd5b90506020020135815260200190815260200160002060010154816105c691906111ae565b866105d19190611158565b95508083838151811061060d577f4e487b7100000000000000000000000000000000000000000000000000000000600052603260045260246000fd5b602002602001018181525050508080610625906112c6565b91505061033a565b5061067d33856000800160009054906101000a900473ffffffffffffffffffffffffffffffffffffffff1673ffffffffffffffffffffffffffffffffffffffff166108919092919063ffffffff16565b600073ffffffffffffffffffffffffffffffffffffffff163373ffffffffffffffffffffffffffffffffffffffff163373ffffffffffffffffffffffffffffffffffffffff167f4a39dc06d4c0dbc64b70af90fd698a233a518aa5d07e595d983b8c0526c8f7fb8989866040516106f693929190610fb7565b60405180910390a43373ffffffffffffffffffffffffffffffffffffffff167fe9df6fe73a4a0b4ca42668b18744091a48a640da4eccde958e65747c9b85606b8560405161074491906110d2565b60405180910390a250505092915050565b60008060000160009054906101000a900473ffffffffffffffffffffffffffffffffffffffff16905090565b6000807f8a22373512790c48b83a1fe2efdd2888d4a917bcdc24d0adf63e60f67168046090508091505090565b610831846323b872dd60e01b8585856040516024016107cf93929190610f20565b604051602081830303815290604052907bffffffffffffffffffffffffffffffffffffffffffffffffffffffff19166020820180517bffffffffffffffffffffffffffffffffffffffffffffffffffffffff8381831617835250505050610917565b50505050565b6000807f68721c0bbf2c02a4d65000340d1370666be06a630022208d4baa9bd7a4b6fea890508091505090565b6000807f1799cf914cb0cb442ca7c7ac709ee40d0cb89e87351dc08d517fbda27d50c68b90508091505090565b6109128363a9059cbb60e01b84846040516024016108b0929190610f57565b604051602081830303815290604052907bffffffffffffffffffffffffffffffffffffffffffffffffffffffff19166020820180517bffffffffffffffffffffffffffffffffffffffffffffffffffffffff8381831617835250505050610917565b505050565b6000610979826040518060400160405280602081526020017f5361666545524332303a206c6f772d6c6576656c2063616c6c206661696c65648152508573ffffffffffffffffffffffffffffffffffffffff166109de9092919063ffffffff16565b90506000815111156109d957808060200190518101906109999190610c8e565b6109d8576040517f08c379a00000000000000000000000000000000000000000000000000000000081526004016109cf90611092565b60405180910390fd5b5b505050565b60606109ed84846000856109f6565b90509392505050565b606082471015610a3b576040517f08c379a0000000000000000000000000000000000000000000000000000000008152600401610a3290611012565b60405180910390fd5b610a4485610b0a565b610a83576040517f08c379a0000000000000000000000000000000000000000000000000000000008152600401610a7a90611072565b60405180910390fd5b6000808673ffffffffffffffffffffffffffffffffffffffff168587604051610aac9190610eee565b60006040518083038185875af1925050503d8060008114610ae9576040519150601f19603f3d011682016040523d82523d6000602084013e610aee565b606091505b5091509150610afe828286610b1d565b92505050949350505050565b600080823b905060008111915050919050565b60608315610b2d57829050610b7d565b600083511115610b405782518084602001fd5b816040517f08c379a0000000000000000000000000000000000000000000000000000000008152600401610b749190610ff0565b60405180910390fd5b9392505050565b600081359050610b9381611491565b92915050565b60008083601f840112610bab57600080fd5b8235905067ffffffffffffffff811115610bc457600080fd5b602083019150836020820283011115610bdc57600080fd5b9250929050565b600081519050610bf2816114a8565b92915050565b600081359050610c07816114bf565b92915050565b60008060408385031215610c2057600080fd5b6000610c2e85828601610b84565b9250506020610c3f85828601610bf8565b9150509250929050565b60008060208385031215610c5c57600080fd5b600083013567ffffffffffffffff811115610c7657600080fd5b610c8285828601610b99565b92509250509250929050565b600060208284031215610ca057600080fd5b6000610cae84828501610be3565b91505092915050565b6000610cc38383610ed0565b60208301905092915050565b610cd88161123c565b82525050565b6000610cea838561112b565b93507f07ffffffffffffffffffffffffffffffffffffffffffffffffffffffffffffff831115610d1957600080fd5b602083029250610d2a838584611284565b82840190509392505050565b6000610d41826110fd565b610d4b818561112b565b9350610d56836110ed565b8060005b83811015610d87578151610d6e8882610cb7565b9750610d798361111e565b925050600181019050610d5a565b5085935050505092915050565b6000610d9f82611108565b610da9818561113c565b9350610db9818560208601611293565b80840191505092915050565b6000610dd082611113565b610dda8185611147565b9350610dea818560208601611293565b610df38161133e565b840191505092915050565b6000610e0b602683611147565b9150610e168261134f565b604082019050919050565b6000610e2e601083611147565b9150610e398261139e565b602082019050919050565b6000610e51601d83611147565b9150610e5c826113c7565b602082019050919050565b6000610e74601d83611147565b9150610e7f826113f0565b602082019050919050565b6000610e97602a83611147565b9150610ea282611419565b604082019050919050565b6000610eba601e83611147565b9150610ec582611468565b602082019050919050565b610ed98161127a565b82525050565b610ee88161127a565b82525050565b6000610efa8284610d94565b915081905092915050565b6000602082019050610f1a6000830184610ccf565b92915050565b6000606082019050610f356000830186610ccf565b610f426020830185610ccf565b610f4f6040830184610edf565b949350505050565b6000604082019050610f6c6000830185610ccf565b610f796020830184610edf565b9392505050565b6000606082019050610f956000830186610ccf565b610fa26020830185610edf565b610faf6040830184610edf565b949350505050565b60006040820190508181036000830152610fd2818587610cde565b90508181036020830152610fe68184610d36565b9050949350505050565b6000602082019050818103600083015261100a8184610dc5565b905092915050565b6000602082019050818103600083015261102b81610dfe565b9050919050565b6000602082019050818103600083015261104b81610e21565b9050919050565b6000602082019050818103600083015261106b81610e44565b9050919050565b6000602082019050818103600083015261108b81610e67565b9050919050565b600060208201905081810360008301526110ab81610e8a565b9050919050565b600060208201905081810360008301526110cb81610ead565b9050919050565b60006020820190506110e76000830184610edf565b92915050565b6000819050602082019050919050565b600081519050919050565b600081519050919050565b600081519050919050565b6000602082019050919050565b600082825260208201905092915050565b600081905092915050565b600082825260208201905092915050565b60006111638261127a565b915061116e8361127a565b9250827fffffffffffffffffffffffffffffffffffffffffffffffffffffffffffffffff038211156111a3576111a261130f565b5b828201905092915050565b60006111b98261127a565b91506111c48361127a565b9250817fffffffffffffffffffffffffffffffffffffffffffffffffffffffffffffffff04831182151516156111fd576111fc61130f565b5b828202905092915050565b60006112138261127a565b915061121e8361127a565b9250828210156112315761123061130f565b5b828203905092915050565b60006112478261125a565b9050919050565b60008115159050919050565b600073ffffffffffffffffffffffffffffffffffffffff82169050919050565b6000819050919050565b82818337600083830152505050565b60005b838110156112b1578082015181840152602081019050611296565b838111156112c0576000848401525b50505050565b60006112d18261127a565b91507fffffffffffffffffffffffffffffffffffffffffffffffffffffffffffffffff8214156113045761130361130f565b5b600182019050919050565b7f4e487b7100000000000000000000000000000000000000000000000000000000600052601160045260246000fd5b6000601f19601f8301169050919050565b7f416464726573733a20696e73756666696369656e742062616c616e636520666f60008201527f722063616c6c0000000000000000000000000000000000000000000000000000602082015250565b7f5061757361626c653a2070617573656400000000000000000000000000000000600082015250565b7f4f776e61626c653a2073656e646572206d757374206265206f776e6572000000600082015250565b7f416464726573733a2063616c6c20746f206e6f6e2d636f6e7472616374000000600082015250565b7f5361666545524332303a204552433230206f7065726174696f6e20646964206e60008201527f6f74207375636365656400000000000000000000000000000000000000000000602082015250565b7f44654d696e654e46543a20746f6b656e206e6f74206d696e6564207965740000600082015250565b61149a8161123c565b81146114a557600080fd5b50565b6114b18161124e565b81146114bc57600080fd5b50565b6114c88161127a565b81146114d357600080fd5b5056fea264697066735822122024e3da3e3e319dd91a5c14091501270b645fe4aed229a8b9dfc1b1b9678a97b864736f6c63430008040033",
  "devdoc": {
    "kind": "dev",
    "methods": {
      "alchemize(uint256[])": {
        "details": "burn tokens in batch and cashout income",
        "params": {
          "ids": "List of token ids to alchemize"
        },
        "returns": {
          "income": "total income"
        }
      }
    },
    "version": 1
  },
  "userdoc": {
    "kind": "user",
    "methods": {},
    "version": 1
  },
  "storageLayout": {
    "storage": [
      {
        "astId": 10656,
        "contract": "contracts/nft/facets/MiningPoolFacet.sol:MiningPoolFacet",
        "label": "s",
        "offset": 0,
        "slot": "0",
        "type": "t_struct(AppStorage)10992_storage"
      }
    ],
    "types": {
      "t_address": {
        "encoding": "inplace",
        "label": "address",
        "numberOfBytes": "20"
      },
      "t_contract(IERC20)209": {
        "encoding": "inplace",
        "label": "contract IERC20",
        "numberOfBytes": "20"
      },
      "t_mapping(t_uint256,t_struct(Token)10973_storage)": {
        "encoding": "mapping",
        "key": "t_uint256",
        "label": "mapping(uint256 => struct Token)",
        "numberOfBytes": "32",
        "value": "t_struct(Token)10973_storage"
      },
      "t_struct(AppStorage)10992_storage": {
        "encoding": "inplace",
        "label": "struct AppStorage",
        "members": [
          {
            "astId": 10981,
            "contract": "contracts/nft/facets/MiningPoolFacet.sol:MiningPoolFacet",
            "label": "income",
            "offset": 0,
            "slot": "0",
            "type": "t_contract(IERC20)209"
          },
          {
            "astId": 10983,
            "contract": "contracts/nft/facets/MiningPoolFacet.sol:MiningPoolFacet",
            "label": "mining",
            "offset": 0,
            "slot": "1",
            "type": "t_uint256"
          },
          {
            "astId": 10988,
            "contract": "contracts/nft/facets/MiningPoolFacet.sol:MiningPoolFacet",
            "label": "tokens",
            "offset": 0,
            "slot": "2",
            "type": "t_mapping(t_uint256,t_struct(Token)10973_storage)"
          },
          {
            "astId": 10991,
            "contract": "contracts/nft/facets/MiningPoolFacet.sol:MiningPoolFacet",
            "label": "royalty",
            "offset": 0,
            "slot": "3",
            "type": "t_struct(RoyaltyInfo)10978_storage"
          }
        ],
        "numberOfBytes": "128"
      },
      "t_struct(RoyaltyInfo)10978_storage": {
        "encoding": "inplace",
        "label": "struct RoyaltyInfo",
        "members": [
          {
            "astId": 10975,
            "contract": "contracts/nft/facets/MiningPoolFacet.sol:MiningPoolFacet",
            "label": "recipient",
            "offset": 0,
            "slot": "0",
            "type": "t_address"
          },
          {
            "astId": 10977,
            "contract": "contracts/nft/facets/MiningPoolFacet.sol:MiningPoolFacet",
            "label": "bps",
            "offset": 20,
            "slot": "0",
            "type": "t_uint16"
          }
        ],
        "numberOfBytes": "32"
      },
      "t_struct(Token)10973_storage": {
        "encoding": "inplace",
        "label": "struct Token",
        "members": [
          {
            "astId": 10970,
            "contract": "contracts/nft/facets/MiningPoolFacet.sol:MiningPoolFacet",
            "label": "supply",
            "offset": 0,
            "slot": "0",
            "type": "t_uint256"
          },
          {
            "astId": 10972,
            "contract": "contracts/nft/facets/MiningPoolFacet.sol:MiningPoolFacet",
            "label": "income",
            "offset": 0,
            "slot": "1",
            "type": "t_uint256"
          }
        ],
        "numberOfBytes": "64"
      },
      "t_uint16": {
        "encoding": "inplace",
        "label": "uint16",
        "numberOfBytes": "2"
      },
      "t_uint256": {
        "encoding": "inplace",
        "label": "uint256",
        "numberOfBytes": "32"
      }
    }
  }
}