{
  "address": "0x390C604fd04591bb1242a8dEbFd98bDE60b60806",
  "abi": [
    {
      "anonymous": false,
      "inputs": [
        {
          "indexed": true,
          "internalType": "address",
          "name": "account",
          "type": "address"
        },
        {
          "indexed": false,
          "internalType": "uint256",
          "name": "totalEarning",
          "type": "uint256"
        }
      ],
      "name": "Alchemy",
      "type": "event"
    },
    {
      "anonymous": false,
      "inputs": [
        {
          "indexed": true,
          "internalType": "address",
          "name": "account",
          "type": "address"
        },
        {
          "indexed": true,
          "internalType": "address",
          "name": "operator",
          "type": "address"
        },
        {
          "indexed": false,
          "internalType": "bool",
          "name": "approved",
          "type": "bool"
        }
      ],
      "name": "ApprovalForAll",
      "type": "event"
    },
    {
      "anonymous": false,
      "inputs": [
        {
          "indexed": true,
          "internalType": "uint128",
          "name": "",
          "type": "uint128"
        },
        {
          "indexed": false,
          "internalType": "uint256",
          "name": "",
          "type": "uint256"
        }
      ],
      "name": "Finalize",
      "type": "event"
    },
    {
      "anonymous": false,
      "inputs": [
        {
          "indexed": false,
          "internalType": "uint16",
          "name": "",
          "type": "uint16"
        }
      ],
      "name": "TokenRoyaltyBpsSet",
      "type": "event"
    },
    {
      "anonymous": false,
      "inputs": [
        {
          "indexed": true,
          "internalType": "address",
          "name": "operator",
          "type": "address"
        },
        {
          "indexed": true,
          "internalType": "address",
          "name": "from",
          "type": "address"
        },
        {
          "indexed": true,
          "internalType": "address",
          "name": "to",
          "type": "address"
        },
        {
          "indexed": false,
          "internalType": "uint256[]",
          "name": "ids",
          "type": "uint256[]"
        },
        {
          "indexed": false,
          "internalType": "uint256[]",
          "name": "values",
          "type": "uint256[]"
        }
      ],
      "name": "TransferBatch",
      "type": "event"
    },
    {
      "anonymous": false,
      "inputs": [
        {
          "indexed": true,
          "internalType": "address",
          "name": "operator",
          "type": "address"
        },
        {
          "indexed": true,
          "internalType": "address",
          "name": "from",
          "type": "address"
        },
        {
          "indexed": true,
          "internalType": "address",
          "name": "to",
          "type": "address"
        },
        {
          "indexed": false,
          "internalType": "uint256",
          "name": "id",
          "type": "uint256"
        },
        {
          "indexed": false,
          "internalType": "uint256",
          "name": "value",
          "type": "uint256"
        }
      ],
      "name": "TransferSingle",
      "type": "event"
    },
    {
      "anonymous": false,
      "inputs": [
        {
          "indexed": false,
          "internalType": "string",
          "name": "value",
          "type": "string"
        },
        {
          "indexed": true,
          "internalType": "uint256",
          "name": "tokenId",
          "type": "uint256"
        }
      ],
      "name": "URI",
      "type": "event"
    },
    {
      "inputs": [
        {
          "internalType": "bytes",
          "name": "args",
          "type": "bytes"
        }
      ],
      "name": "__DiamondFallback_init",
      "outputs": [],
      "stateMutability": "nonpayable",
      "type": "function"
    },
    {
      "inputs": [],
      "name": "alchemist",
      "outputs": [
        {
          "internalType": "address",
          "name": "",
          "type": "address"
        }
      ],
      "stateMutability": "pure",
      "type": "function"
    },
    {
      "inputs": [
        {
          "internalType": "address",
          "name": "account",
          "type": "address"
        },
        {
          "internalType": "uint256",
          "name": "id",
          "type": "uint256"
        }
      ],
      "name": "balanceOf",
      "outputs": [
        {
          "internalType": "uint256",
          "name": "",
          "type": "uint256"
        }
      ],
      "stateMutability": "view",
      "type": "function"
    },
    {
      "inputs": [
        {
          "internalType": "address[]",
          "name": "accounts",
          "type": "address[]"
        },
        {
          "internalType": "uint256[]",
          "name": "ids",
          "type": "uint256[]"
        }
      ],
      "name": "balanceOfBatch",
      "outputs": [
        {
          "internalType": "uint256[]",
          "name": "",
          "type": "uint256[]"
        }
      ],
      "stateMutability": "view",
      "type": "function"
    },
    {
      "inputs": [
        {
          "internalType": "uint256[]",
          "name": "ids",
          "type": "uint256[]"
        },
        {
          "internalType": "uint256[]",
          "name": "amounts",
          "type": "uint256[]"
        }
      ],
      "name": "burnBatch",
      "outputs": [],
      "stateMutability": "nonpayable",
      "type": "function"
    },
    {
      "inputs": [
        {
          "internalType": "uint256",
          "name": "tokenId",
          "type": "uint256"
        }
      ],
      "name": "earning",
      "outputs": [
        {
          "internalType": "uint256",
          "name": "",
          "type": "uint256"
        }
      ],
      "stateMutability": "view",
      "type": "function"
    },
    {
      "inputs": [],
      "name": "earningToken",
      "outputs": [
        {
          "internalType": "address",
          "name": "",
          "type": "address"
        }
      ],
      "stateMutability": "view",
      "type": "function"
    },
    {
      "inputs": [
        {
          "internalType": "uint128",
          "name": "timestamp",
          "type": "uint128"
        },
        {
          "internalType": "uint256",
          "name": "earningPerToken",
          "type": "uint256"
        }
      ],
      "name": "finalize",
      "outputs": [],
      "stateMutability": "nonpayable",
      "type": "function"
    },
    {
      "inputs": [],
      "name": "finalized",
      "outputs": [
        {
          "internalType": "uint128",
          "name": "",
          "type": "uint128"
        }
      ],
      "stateMutability": "view",
      "type": "function"
    },
    {
      "inputs": [
        {
          "internalType": "address",
          "name": "account",
          "type": "address"
        },
        {
          "internalType": "address",
          "name": "operator",
          "type": "address"
        }
      ],
      "name": "isApprovedForAll",
      "outputs": [
        {
          "internalType": "bool",
          "name": "",
          "type": "bool"
        }
      ],
      "stateMutability": "view",
      "type": "function"
    },
    {
      "inputs": [
        {
          "internalType": "address",
          "name": "account",
          "type": "address"
        },
        {
          "internalType": "uint256[]",
          "name": "ids",
          "type": "uint256[]"
        },
        {
          "internalType": "uint256[]",
          "name": "amounts",
          "type": "uint256[]"
        },
        {
          "internalType": "bytes",
          "name": "data",
          "type": "bytes"
        }
      ],
      "name": "mintBatch",
      "outputs": [],
      "stateMutability": "nonpayable",
      "type": "function"
    },
    {
      "inputs": [
        {
          "internalType": "uint256",
          "name": "",
          "type": "uint256"
        },
        {
          "internalType": "uint256",
          "name": "value",
          "type": "uint256"
        }
      ],
      "name": "royaltyInfo",
      "outputs": [
        {
          "internalType": "address",
          "name": "",
          "type": "address"
        },
        {
          "internalType": "uint256",
          "name": "",
          "type": "uint256"
        }
      ],
      "stateMutability": "view",
      "type": "function"
    },
    {
      "inputs": [
        {
          "internalType": "address",
          "name": "from",
          "type": "address"
        },
        {
          "internalType": "address",
          "name": "to",
          "type": "address"
        },
        {
          "internalType": "uint256[]",
          "name": "ids",
          "type": "uint256[]"
        },
        {
          "internalType": "uint256[]",
          "name": "amounts",
          "type": "uint256[]"
        },
        {
          "internalType": "bytes",
          "name": "data",
          "type": "bytes"
        }
      ],
      "name": "safeBatchTransferFrom",
      "outputs": [],
      "stateMutability": "nonpayable",
      "type": "function"
    },
    {
      "inputs": [
        {
          "internalType": "address",
          "name": "from",
          "type": "address"
        },
        {
          "internalType": "address",
          "name": "to",
          "type": "address"
        },
        {
          "internalType": "uint256",
          "name": "id",
          "type": "uint256"
        },
        {
          "internalType": "uint256",
          "name": "amount",
          "type": "uint256"
        },
        {
          "internalType": "bytes",
          "name": "data",
          "type": "bytes"
        }
      ],
      "name": "safeTransferFrom",
      "outputs": [],
      "stateMutability": "nonpayable",
      "type": "function"
    },
    {
      "inputs": [
        {
          "internalType": "address",
          "name": "operator",
          "type": "address"
        },
        {
          "internalType": "bool",
          "name": "status",
          "type": "bool"
        }
      ],
      "name": "setApprovalForAll",
      "outputs": [],
      "stateMutability": "nonpayable",
      "type": "function"
    },
    {
      "inputs": [
        {
          "internalType": "address",
          "name": "recipient",
          "type": "address"
        },
        {
          "internalType": "uint16",
          "name": "bps",
          "type": "uint16"
        }
      ],
      "name": "setRoyaltyInfo",
      "outputs": [],
      "stateMutability": "nonpayable",
      "type": "function"
    },
    {
      "inputs": [
        {
          "internalType": "string",
          "name": "baseURI",
          "type": "string"
        }
      ],
      "name": "setURI",
      "outputs": [],
      "stateMutability": "nonpayable",
      "type": "function"
    },
    {
      "inputs": [
        {
          "internalType": "bytes4",
          "name": "interfaceId",
          "type": "bytes4"
        }
      ],
      "name": "supportsInterface",
      "outputs": [
        {
          "internalType": "bool",
          "name": "",
          "type": "bool"
        }
      ],
      "stateMutability": "view",
      "type": "function"
    },
    {
      "inputs": [
        {
          "internalType": "uint256",
          "name": "tokenId",
          "type": "uint256"
        }
      ],
      "name": "uri",
      "outputs": [
        {
          "internalType": "string",
          "name": "",
          "type": "string"
        }
      ],
      "stateMutability": "view",
      "type": "function"
    }
  ],
  "transactionHash": "0x0da9b11b369556c1a15deceee072fb2dd94804df3f2d52fedbf3c33d6be59337",
  "args": [],
  "numDeployments": 1,
  "solcInputHash": "0029ed7bc4077fcb30b2d09070064992",
  "bytecode": "0x608060405234801561001057600080fd5b5061540e806100206000396000f3fe608060405234801561001057600080fd5b50600436106101205760003560e01c80636a148876116100ad578063a22cb46511610071578063a22cb4651461032a578063b3f05b9714610346578063e03d61e614610364578063e985e9c514610380578063f242432a146103b057610120565b80636a1488761461029a57806372504a24146102b65780637fe205c7146102d257806383ca4b6f146102f05780638de925f61461030c57610120565b80631f7fdffa116100f45780631f7fdffa146101d15780632a55205a146101ed5780632ac3fad91461021e5780632eb2c2d61461024e5780634e1273f41461026a57610120565b8062fdd58e1461012557806301ffc9a71461015557806302fe5305146101855780630e89341c146101a1575b600080fd5b61013f600480360381019061013a91906139af565b6103cc565b60405161014c91906145dd565b60405180910390f35b61016f600480360381019061016a9190613af5565b6103e0565b60405161017c91906142aa565b60405180910390f35b61019f600480360381019061019a9190613b88565b610403565b005b6101bb60048036038101906101b69190613c05565b6104a8565b6040516101c891906142c5565b60405180910390f35b6101eb60048036038101906101e69190613884565b610669565b005b61020760048036038101906102029190613c2e565b610798565b604051610215929190614228565b60405180910390f35b61023860048036038101906102339190613c05565b610856565b60405161024591906145dd565b60405180910390f35b61026860048036038101906102639190613736565b610878565b005b610284600480360381019061027f91906139eb565b61090c565b6040516102919190614251565b60405180910390f35b6102b460048036038101906102af9190613b47565b610bbf565b005b6102d060048036038101906102cb9190613973565b610c23565b005b6102da610d98565b6040516102e7919061414b565b60405180910390f35b61030a60048036038101906103059190613a57565b610dc4565b005b610314610ef0565b604051610321919061414b565b60405180910390f35b610344600480360381019061033f9190613937565b610eff565b005b61034e611074565b60405161035b91906145a7565b60405180910390f35b61037e60048036038101906103799190613bc9565b61109c565b005b61039a600480360381019061039591906136fa565b61134d565b6040516103a791906142aa565b60405180910390f35b6103ca60048036038101906103c591906137f5565b6113ea565b005b60006103d8838361147e565b905092915050565b60006103fc826103ee611551565b61157e90919063ffffffff16565b9050919050565b61040b6115e9565b60000160009054906101000a900473ffffffffffffffffffffffffffffffffffffffff1673ffffffffffffffffffffffffffffffffffffffff163373ffffffffffffffffffffffffffffffffffffffff161461049c576040517f08c379a000000000000000000000000000000000000000000000000000000000815260040161049390614467565b60405180910390fd5b6104a581611616565b50565b606060006104b4611639565b9050600081600101600085815260200190815260200160002080546104d890614a52565b80601f016020809104026020016040519081016040528092919081815260200182805461050490614a52565b80156105515780601f1061052657610100808354040283529160200191610551565b820191906000526020600020905b81548152906001019060200180831161053457829003601f168201915b50505050509050600082600001805461056990614a52565b80601f016020809104026020016040519081016040528092919081815260200182805461059590614a52565b80156105e25780601f106105b7576101008083540402835291602001916105e2565b820191906000526020600020905b8154815290600101906020018083116105c557829003601f168201915b505050505090506000815114156105fe57819350505050610664565b60008251111561063457808260405160200161061b929190614127565b6040516020818303038152906040529350505050610664565b8061063e86611666565b60405160200161064f929190614127565b60405160208183030381529060405293505050505b919050565b6106716115e9565b60000160009054906101000a900473ffffffffffffffffffffffffffffffffffffffff1673ffffffffffffffffffffffffffffffffffffffff163373ffffffffffffffffffffffffffffffffffffffff1614610702576040517f08c379a00000000000000000000000000000000000000000000000000000000081526004016106f990614467565b60405180910390fd5b61079086868680806020026020016040519081016040528093929190818152602001838360200280828437600081840152601f19601f82011690508083019250505050505050858580806020026020016040519081016040528093929190818152602001838360200280828437600081840152601f19601f8201169050808301925050505050505084611813565b505050505050565b6000806000806001016040518060400160405290816000820160009054906101000a900473ffffffffffffffffffffffffffffffffffffffff1673ffffffffffffffffffffffffffffffffffffffff1673ffffffffffffffffffffffffffffffffffffffff1681526020016000820160149054906101000a900461ffff1661ffff1661ffff168152505090508060000151612710826020015161ffff1686610840919061489e565b61084a9190614823565b92509250509250929050565b600080608083901c9050600083905061086f8282611834565b92505050919050565b3373ffffffffffffffffffffffffffffffffffffffff168573ffffffffffffffffffffffffffffffffffffffff1614806108b857506108b7853361134d565b5b6108f7576040517f08c379a00000000000000000000000000000000000000000000000000000000081526004016108ee906143a7565b60405180910390fd5b6109053386868686866119cb565b5050505050565b60608151835114610952576040517f08c379a000000000000000000000000000000000000000000000000000000000815260040161094990614547565b60405180910390fd5b600061095c6119ef565b60000190506000845167ffffffffffffffff8111156109a4577f4e487b7100000000000000000000000000000000000000000000000000000000600052604160045260246000fd5b6040519080825280602002602001820160405280156109d25781602001602082028036833780820191505090505b50905060005b8551811015610bb357600073ffffffffffffffffffffffffffffffffffffffff16868281518110610a32577f4e487b7100000000000000000000000000000000000000000000000000000000600052603260045260246000fd5b602002602001015173ffffffffffffffffffffffffffffffffffffffff161415610a91576040517f08c379a0000000000000000000000000000000000000000000000000000000008152600401610a8890614347565b60405180910390fd5b826000868381518110610acd577f4e487b7100000000000000000000000000000000000000000000000000000000600052603260045260246000fd5b602002602001015181526020019081526020016000206000878381518110610b1e577f4e487b7100000000000000000000000000000000000000000000000000000000600052603260045260246000fd5b602002602001015173ffffffffffffffffffffffffffffffffffffffff1673ffffffffffffffffffffffffffffffffffffffff16815260200190815260200160002054828281518110610b9a577f4e487b7100000000000000000000000000000000000000000000000000000000600052603260045260246000fd5b60200260200101818152505080806001019150506109d8565b50809250505092915050565b610bc7611a1c565b60000160019054906101000a900460ff16610c17576040517f08c379a0000000000000000000000000000000000000000000000000000000008152600401610c0e906144e7565b60405180910390fd5b610c2081611a49565b50565b610c2b6115e9565b60000160009054906101000a900473ffffffffffffffffffffffffffffffffffffffff1673ffffffffffffffffffffffffffffffffffffffff163373ffffffffffffffffffffffffffffffffffffffff1614610cbc576040517f08c379a0000000000000000000000000000000000000000000000000000000008152600401610cb390614467565b60405180910390fd5b60405180604001604052808373ffffffffffffffffffffffffffffffffffffffff1681526020018261ffff16815250600060010160008201518160000160006101000a81548173ffffffffffffffffffffffffffffffffffffffff021916908373ffffffffffffffffffffffffffffffffffffffff16021790555060208201518160000160146101000a81548161ffff021916908361ffff1602179055509050507f577133166751d165db2e7f4c7b9f50ef67bf80781894fc7f4d53df1067a39df181604051610d8c91906145c2565b60405180910390a15050565b60008060000160009054906101000a900473ffffffffffffffffffffffffffffffffffffffff16905090565b610dcc6115e9565b60000160009054906101000a900473ffffffffffffffffffffffffffffffffffffffff1673ffffffffffffffffffffffffffffffffffffffff163373ffffffffffffffffffffffffffffffffffffffff1614610e5d576040517f08c379a0000000000000000000000000000000000000000000000000000000008152600401610e5490614467565b60405180910390fd5b610eea33858580806020026020016040519081016040528093929190818152602001838360200280828437600081840152601f19601f82011690508083019250505050505050848480806020026020016040519081016040528093929190818152602001838360200280828437600081840152601f19601f82011690508083019250505050505050611bb7565b50505050565b6000610efa611eec565b905090565b8173ffffffffffffffffffffffffffffffffffffffff163373ffffffffffffffffffffffffffffffffffffffff161415610f6e576040517f08c379a0000000000000000000000000000000000000000000000000000000008152600401610f6590614507565b60405180910390fd5b80610f776119ef565b60010160003373ffffffffffffffffffffffffffffffffffffffff1673ffffffffffffffffffffffffffffffffffffffff16815260200190815260200160002060008473ffffffffffffffffffffffffffffffffffffffff1673ffffffffffffffffffffffffffffffffffffffff16815260200190815260200160002060006101000a81548160ff0219169083151502179055508173ffffffffffffffffffffffffffffffffffffffff163373ffffffffffffffffffffffffffffffffffffffff167f17307eab39ab6107e8899845ad3d59bd9653f200f220920489ca2b5937696c318360405161106891906142aa565b60405180910390a35050565b60008060020160009054906101000a90046fffffffffffffffffffffffffffffffff16905090565b6110a46115e9565b60000160009054906101000a900473ffffffffffffffffffffffffffffffffffffffff1673ffffffffffffffffffffffffffffffffffffffff163373ffffffffffffffffffffffffffffffffffffffff1614611135576040517f08c379a000000000000000000000000000000000000000000000000000000000815260040161112c90614467565b60405180910390fd5b600060020160009054906101000a90046fffffffffffffffffffffffffffffffff166fffffffffffffffffffffffffffffffff16826fffffffffffffffffffffffffffffffff161180156111a95750600062015180836111959190614b37565b6fffffffffffffffffffffffffffffffff16145b6111e8576040517f08c379a00000000000000000000000000000000000000000000000000000000081526004016111df906143c7565b60405180910390fd5b81600060020160006101000a8154816fffffffffffffffffffffffffffffffff02191690836fffffffffffffffffffffffffffffffff1602179055508060006003016000846fffffffffffffffffffffffffffffffff166fffffffffffffffffffffffffffffffff1681526020019081526020016000208190555060005b6007816fffffffffffffffffffffffffffffffff1610156112fe57816000600401600062015180846112989190614854565b866112a39190614787565b6fffffffffffffffffffffffffffffffff166fffffffffffffffffffffffffffffffff16815260200190815260200160002060008282546112e491906147cd565b9250508190555080806112f690614ab5565b915050611266565b50816fffffffffffffffffffffffffffffffff167ff9007d0dcd21bf7a26f5ec3bd5cf96e721c6e0faf320db4629dcd0895dcbeefb8260405161134191906145dd565b60405180910390a25050565b60006113576119ef565b60010160008473ffffffffffffffffffffffffffffffffffffffff1673ffffffffffffffffffffffffffffffffffffffff16815260200190815260200160002060008373ffffffffffffffffffffffffffffffffffffffff1673ffffffffffffffffffffffffffffffffffffffff16815260200190815260200160002060009054906101000a900460ff16905092915050565b3373ffffffffffffffffffffffffffffffffffffffff168573ffffffffffffffffffffffffffffffffffffffff16148061142a5750611429853361134d565b5b611469576040517f08c379a0000000000000000000000000000000000000000000000000000000008152600401611460906143a7565b60405180910390fd5b611477338686868686611f08565b5050505050565b60008073ffffffffffffffffffffffffffffffffffffffff168373ffffffffffffffffffffffffffffffffffffffff1614156114ef576040517f08c379a00000000000000000000000000000000000000000000000000000000081526004016114e690614327565b60405180910390fd5b6114f76119ef565b600001600083815260200190815260200160002060008473ffffffffffffffffffffffffffffffffffffffff1673ffffffffffffffffffffffffffffffffffffffff16815260200190815260200160002054905092915050565b6000807f326d0c59a7612f6a9919e2a8ee333c80ba689d8ba2634de89c85cbb04832e70590508091505090565b6000826000016000837bffffffffffffffffffffffffffffffffffffffffffffffffffffffff19167bffffffffffffffffffffffffffffffffffffffffffffffffffffffff1916815260200190815260200160002060009054906101000a900460ff16905092915050565b6000807f8a22373512790c48b83a1fe2efdd2888d4a917bcdc24d0adf63e60f67168046090508091505090565b8061161f611639565b600001908051906020019061163592919061325c565b5050565b6000807f4281b61aefbe70b3d3f684b428efca5f33077bc240e76f2808f9177c307617f490508091505090565b606060008214156116ae576040518060400160405280600181526020017f3000000000000000000000000000000000000000000000000000000000000000815250905061180e565b600082905060005b600082146116e05780806116c990614aee565b915050600a826116d99190614823565b91506116b6565b60008167ffffffffffffffff811115611722577f4e487b7100000000000000000000000000000000000000000000000000000000600052604160045260246000fd5b6040519080825280601f01601f1916602001820160405280156117545781602001600182028036833780820191505090505b5090505b600085146118075760018261176d919061492c565b9150600a8561177c9190614b68565b603061178891906147cd565b60f81b8183815181106117c4577f4e487b7100000000000000000000000000000000000000000000000000000000600052603260045260246000fd5b60200101907effffffffffffffffffffffffffffffffffffffffffffffffffffffffffffff1916908160001a905350600a856118009190614823565b9450611758565b8093505050505b919050565b61181f84848484611f2c565b61182e3360008686868661218a565b50505050565b600062015180838361184691906148f8565b6fffffffffffffffffffffffffffffffff1614156118a05760006003016000836fffffffffffffffffffffffffffffffff166fffffffffffffffffffffffffffffffff1681526020019081526020016000205490506119c5565b62093a8083836118b091906148f8565b6fffffffffffffffffffffffffffffffff16141561190a5760006004016000836fffffffffffffffffffffffffffffffff166fffffffffffffffffffffffffffffffff1681526020019081526020016000205490506119c4565b62127500838361191a91906148f8565b6fffffffffffffffffffffffffffffffff1614156119c3576000600401600062093a808461194891906148f8565b6fffffffffffffffffffffffffffffffff166fffffffffffffffffffffffffffffffff1681526020019081526020016000205460006004016000846fffffffffffffffffffffffffffffffff166fffffffffffffffffffffffffffffffff168152602001908152602001600020546119c091906147cd565b90505b5b5b92915050565b6119d9868686868686612371565b6119e786868686868661218a565b505050505050565b6000807f1799cf914cb0cb442ca7c7ac709ee40d0cb89e87351dc08d517fbda27d50c68b90508091505090565b6000807f2ae1e818fc317b4c150084d41bf7468a28b0861c8b85a3e58e4bb4d5dbbc6aa190508091505090565b611a51611a1c565b60000160019054906101000a900460ff16611aa1576040517f08c379a0000000000000000000000000000000000000000000000000000000008152600401611a98906144e7565b60405180910390fd5b60008060008084806020019051810190611abb919061367f565b935093509350935060405180604001604052808573ffffffffffffffffffffffffffffffffffffffff1681526020018461ffff16815250600060010160008201518160000160006101000a81548173ffffffffffffffffffffffffffffffffffffffff021916908373ffffffffffffffffffffffffffffffffffffffff16021790555060208201518160000160146101000a81548161ffff021916908361ffff160217905550905050816000800160006101000a81548173ffffffffffffffffffffffffffffffffffffffff021916908373ffffffffffffffffffffffffffffffffffffffff160217905550611bb081611616565b5050505050565b600073ffffffffffffffffffffffffffffffffffffffff168373ffffffffffffffffffffffffffffffffffffffff161415611c27576040517f08c379a0000000000000000000000000000000000000000000000000000000008152600401611c1e90614447565b60405180910390fd5b8051825114611c6b576040517f08c379a0000000000000000000000000000000000000000000000000000000008152600401611c6290614567565b60405180910390fd5b611c89338460008585604051806020016040528060008152506126c9565b6000611c936119ef565b600001905060005b8351811015611e66576000848281518110611cdf577f4e487b7100000000000000000000000000000000000000000000000000000000600052603260045260246000fd5b60200260200101519050838281518110611d22577f4e487b7100000000000000000000000000000000000000000000000000000000600052603260045260246000fd5b602002602001015183600083815260200190815260200160002060008873ffffffffffffffffffffffffffffffffffffffff1673ffffffffffffffffffffffffffffffffffffffff168152602001908152602001600020541015611dbb576040517f08c379a0000000000000000000000000000000000000000000000000000000008152600401611db290614367565b60405180910390fd5b838281518110611df4577f4e487b7100000000000000000000000000000000000000000000000000000000600052603260045260246000fd5b602002602001015183600083815260200190815260200160002060008873ffffffffffffffffffffffffffffffffffffffff1673ffffffffffffffffffffffffffffffffffffffff16815260200190815260200160002060008282540392505081905550508080600101915050611c9b565b50600073ffffffffffffffffffffffffffffffffffffffff168473ffffffffffffffffffffffffffffffffffffffff163373ffffffffffffffffffffffffffffffffffffffff167f4a39dc06d4c0dbc64b70af90fd698a233a518aa5d07e595d983b8c0526c8f7fb8686604051611ede929190614273565b60405180910390a450505050565b6000731a811678eeedf16a1d0df4b12e290f78a61a28f9905090565b611f168686868686866129ea565b611f24868686868686612c62565b505050505050565b600073ffffffffffffffffffffffffffffffffffffffff168473ffffffffffffffffffffffffffffffffffffffff161415611f9c576040517f08c379a0000000000000000000000000000000000000000000000000000000008152600401611f9390614587565b60405180910390fd5b8151835114611fe0576040517f08c379a0000000000000000000000000000000000000000000000000000000008152600401611fd790614567565b60405180910390fd5b611fef336000868686866126c9565b6000611ff96119ef565b600001905060005b845181101561210357838181518110612043577f4e487b7100000000000000000000000000000000000000000000000000000000600052603260045260246000fd5b6020026020010151826000878481518110612087577f4e487b7100000000000000000000000000000000000000000000000000000000600052603260045260246000fd5b6020026020010151815260200190815260200160002060008873ffffffffffffffffffffffffffffffffffffffff1673ffffffffffffffffffffffffffffffffffffffff16815260200190815260200160002060008282546120e991906147cd565b9250508190555080806120fb90614aee565b915050612001565b508473ffffffffffffffffffffffffffffffffffffffff16600073ffffffffffffffffffffffffffffffffffffffff163373ffffffffffffffffffffffffffffffffffffffff167f4a39dc06d4c0dbc64b70af90fd698a233a518aa5d07e595d983b8c0526c8f7fb878760405161217b929190614273565b60405180910390a45050505050565b6121a98473ffffffffffffffffffffffffffffffffffffffff16612e49565b15612369578373ffffffffffffffffffffffffffffffffffffffff1663bc197c8187878686866040518663ffffffff1660e01b81526004016121ef959493929190614166565b602060405180830381600087803b15801561220957600080fd5b505af192505050801561223a57506040513d601f19601f820116820180604052508101906122379190613b1e565b60015b6122e057612246614c55565b806308c379a014156122a3575061225b6152a1565b8061226657506122a5565b806040517f08c379a000000000000000000000000000000000000000000000000000000000815260040161229a91906142c5565b60405180910390fd5b505b6040517f08c379a00000000000000000000000000000000000000000000000000000000081526004016122d7906142e7565b60405180910390fd5b63bc197c8160e01b7bffffffffffffffffffffffffffffffffffffffffffffffffffffffff1916817bffffffffffffffffffffffffffffffffffffffffffffffffffffffff191614612367576040517f08c379a000000000000000000000000000000000000000000000000000000000815260040161235e90614307565b60405180910390fd5b505b505050505050565b600073ffffffffffffffffffffffffffffffffffffffff168473ffffffffffffffffffffffffffffffffffffffff1614156123e1576040517f08c379a00000000000000000000000000000000000000000000000000000000081526004016123d890614427565b60405180910390fd5b8151835114612425576040517f08c379a000000000000000000000000000000000000000000000000000000000815260040161241c90614567565b60405180910390fd5b6124338686868686866126c9565b600061243d6119ef565b600001905060005b8451811015612641576000858281518110612489577f4e487b7100000000000000000000000000000000000000000000000000000000600052603260045260246000fd5b6020026020010151905060008583815181106124ce577f4e487b7100000000000000000000000000000000000000000000000000000000600052603260045260246000fd5b60200260200101519050600084600084815260200190815260200160002060008b73ffffffffffffffffffffffffffffffffffffffff1673ffffffffffffffffffffffffffffffffffffffff1681526020019081526020016000205490508181101561256f576040517f08c379a000000000000000000000000000000000000000000000000000000000815260040161256690614387565b60405180910390fd5b81810385600085815260200190815260200160002060008c73ffffffffffffffffffffffffffffffffffffffff1673ffffffffffffffffffffffffffffffffffffffff16815260200190815260200160002081905550508084600084815260200190815260200160002060008a73ffffffffffffffffffffffffffffffffffffffff1673ffffffffffffffffffffffffffffffffffffffff168152602001908152602001600020600082825461262591906147cd565b925050819055505050808061263990614aee565b915050612445565b508473ffffffffffffffffffffffffffffffffffffffff168673ffffffffffffffffffffffffffffffffffffffff168873ffffffffffffffffffffffffffffffffffffffff167f4a39dc06d4c0dbc64b70af90fd698a233a518aa5d07e595d983b8c0526c8f7fb87876040516126b8929190614273565b60405180910390a450505050505050565b6126d7868686868686612e5c565b60006126e1611eec565b90508073ffffffffffffffffffffffffffffffffffffffff168673ffffffffffffffffffffffffffffffffffffffff161415612752576040517f08c379a000000000000000000000000000000000000000000000000000000000815260040161274990614487565b60405180910390fd5b8073ffffffffffffffffffffffffffffffffffffffff168573ffffffffffffffffffffffffffffffffffffffff1614156129e15761278e612e64565b60000160009054906101000a900460ff16156127df576040517f08c379a00000000000000000000000000000000000000000000000000000000081526004016127d690614407565b60405180910390fd5b600080600060020160009054906101000a90046fffffffffffffffffffffffffffffffff166fffffffffffffffffffffffffffffffff16905060005b865181101561294057600080612870898481518110612863577f4e487b7100000000000000000000000000000000000000000000000000000000600052603260045260246000fd5b6020026020010151612e91565b9150915083816fffffffffffffffffffffffffffffffff1611156128c9576040517f08c379a00000000000000000000000000000000000000000000000000000000081526004016128c0906144a7565b60405180910390fd5b6128d38282611834565b88848151811061290c577f4e487b7100000000000000000000000000000000000000000000000000000000600052603260045260246000fd5b602002602001015161291e919061489e565b8561292991906147cd565b94505050808061293890614aee565b91505061281b565b5061299088836000800160009054906101000a900473ffffffffffffffffffffffffffffffffffffffff1673ffffffffffffffffffffffffffffffffffffffff16612ea39092919063ffffffff16565b8773ffffffffffffffffffffffffffffffffffffffff167fe9df6fe73a4a0b4ca42668b18744091a48a640da4eccde958e65747c9b85606b836040516129d691906145dd565b60405180910390a250505b50505050505050565b600073ffffffffffffffffffffffffffffffffffffffff168473ffffffffffffffffffffffffffffffffffffffff161415612a5a576040517f08c379a0000000000000000000000000000000000000000000000000000000008152600401612a5190614427565b60405180910390fd5b612a78868686612a6987612f29565b612a7287612f29565b866126c9565b6000612a826119ef565b6000019050600081600086815260200190815260200160002060008873ffffffffffffffffffffffffffffffffffffffff1673ffffffffffffffffffffffffffffffffffffffff16815260200190815260200160002054905083811015612b1e576040517f08c379a0000000000000000000000000000000000000000000000000000000008152600401612b1590614387565b60405180910390fd5b83810382600087815260200190815260200160002060008973ffffffffffffffffffffffffffffffffffffffff1673ffffffffffffffffffffffffffffffffffffffff16815260200190815260200160002081905550508281600086815260200190815260200160002060008773ffffffffffffffffffffffffffffffffffffffff1673ffffffffffffffffffffffffffffffffffffffff1681526020019081526020016000206000828254612bd491906147cd565b925050819055508473ffffffffffffffffffffffffffffffffffffffff168673ffffffffffffffffffffffffffffffffffffffff168873ffffffffffffffffffffffffffffffffffffffff167fc3d58168c5ae7397731d063d5bbf3d657854427343f4c083240f7aacaa2d0f628787604051612c519291906145f8565b60405180910390a450505050505050565b612c818473ffffffffffffffffffffffffffffffffffffffff16612e49565b15612e41578373ffffffffffffffffffffffffffffffffffffffff1663f23a6e6187878686866040518663ffffffff1660e01b8152600401612cc79594939291906141ce565b602060405180830381600087803b158015612ce157600080fd5b505af1925050508015612d1257506040513d601f19601f82011682018060405250810190612d0f9190613b1e565b60015b612db857612d1e614c55565b806308c379a01415612d7b5750612d336152a1565b80612d3e5750612d7d565b806040517f08c379a0000000000000000000000000000000000000000000000000000000008152600401612d7291906142c5565b60405180910390fd5b505b6040517f08c379a0000000000000000000000000000000000000000000000000000000008152600401612daf906142e7565b60405180910390fd5b63f23a6e6160e01b7bffffffffffffffffffffffffffffffffffffffffffffffffffffffff1916817bffffffffffffffffffffffffffffffffffffffffffffffffffffffff191614612e3f576040517f08c379a0000000000000000000000000000000000000000000000000000000008152600401612e3690614307565b60405180910390fd5b505b505050505050565b600080823b905060008111915050919050565b505050505050565b6000807f68721c0bbf2c02a4d65000340d1370666be06a630022208d4baa9bd7a4b6fea890508091505090565b600080608083901c8391509150915091565b612f248363a9059cbb60e01b8484604051602401612ec2929190614228565b604051602081830303815290604052907bffffffffffffffffffffffffffffffffffffffffffffffffffffffff19166020820180517bffffffffffffffffffffffffffffffffffffffffffffffffffffffff8381831617835250505050612fef565b505050565b60606000600167ffffffffffffffff811115612f6e577f4e487b7100000000000000000000000000000000000000000000000000000000600052604160045260246000fd5b604051908082528060200260200182016040528015612f9c5781602001602082028036833780820191505090505b5090508281600081518110612fda577f4e487b7100000000000000000000000000000000000000000000000000000000600052603260045260246000fd5b60200260200101818152505080915050919050565b6000613051826040518060400160405280602081526020017f5361666545524332303a206c6f772d6c6576656c2063616c6c206661696c65648152508573ffffffffffffffffffffffffffffffffffffffff166130b69092919063ffffffff16565b90506000815111156130b157808060200190518101906130719190613acc565b6130b0576040517f08c379a00000000000000000000000000000000000000000000000000000000081526004016130a790614527565b60405180910390fd5b5b505050565b60606130c584846000856130ce565b90509392505050565b606082471015613113576040517f08c379a000000000000000000000000000000000000000000000000000000000815260040161310a906143e7565b60405180910390fd5b61311c856131e2565b61315b576040517f08c379a0000000000000000000000000000000000000000000000000000000008152600401613152906144c7565b60405180910390fd5b6000808673ffffffffffffffffffffffffffffffffffffffff1685876040516131849190614110565b60006040518083038185875af1925050503d80600081146131c1576040519150601f19603f3d011682016040523d82523d6000602084013e6131c6565b606091505b50915091506131d68282866131f5565b92505050949350505050565b600080823b905060008111915050919050565b6060831561320557829050613255565b6000835111156132185782518084602001fd5b816040517f08c379a000000000000000000000000000000000000000000000000000000000815260040161324c91906142c5565b60405180910390fd5b9392505050565b82805461326890614a52565b90600052602060002090601f01602090048101928261328a57600085556132d1565b82601f106132a357805160ff19168380011785556132d1565b828001600101855582156132d1579182015b828111156132d05782518255916020019190600101906132b5565b5b5090506132de91906132e2565b5090565b5b808211156132fb5760008160009055506001016132e3565b5090565b600061331261330d84614646565b614621565b9050808382526020820190508285602086028201111561333157600080fd5b60005b8581101561336157816133478882613491565b845260208401935060208301925050600181019050613334565b5050509392505050565b600061337e61337984614672565b614621565b9050808382526020820190508285602086028201111561339d57600080fd5b60005b858110156133cd57816133b3888261366a565b8452602084019350602083019250506001810190506133a0565b5050509392505050565b60006133ea6133e58461469e565b614621565b90508281526020810184848401111561340257600080fd5b61340d848285614a10565b509392505050565b6000613428613423846146cf565b614621565b90508281526020810184848401111561344057600080fd5b61344b848285614a10565b509392505050565b6000613466613461846146cf565b614621565b90508281526020810184848401111561347e57600080fd5b613489848285614a1f565b509392505050565b6000813590506134a081615337565b92915050565b6000815190506134b58161534e565b92915050565b600082601f8301126134cc57600080fd5b81356134dc8482602086016132ff565b91505092915050565b60008083601f8401126134f757600080fd5b8235905067ffffffffffffffff81111561351057600080fd5b60208301915083602082028301111561352857600080fd5b9250929050565b600082601f83011261354057600080fd5b813561355084826020860161336b565b91505092915050565b60008135905061356881615365565b92915050565b60008151905061357d81615365565b92915050565b6000813590506135928161537c565b92915050565b6000815190506135a78161537c565b92915050565b600082601f8301126135be57600080fd5b81356135ce8482602086016133d7565b91505092915050565b600082601f8301126135e857600080fd5b81356135f8848260208601613415565b91505092915050565b600082601f83011261361257600080fd5b8151613622848260208601613453565b91505092915050565b60008135905061363a81615393565b92915050565b60008135905061364f816153aa565b92915050565b600081519050613664816153aa565b92915050565b600081359050613679816153c1565b92915050565b6000806000806080858703121561369557600080fd5b60006136a3878288016134a6565b94505060206136b487828801613655565b93505060406136c5878288016134a6565b925050606085015167ffffffffffffffff8111156136e257600080fd5b6136ee87828801613601565b91505092959194509250565b6000806040838503121561370d57600080fd5b600061371b85828601613491565b925050602061372c85828601613491565b9150509250929050565b600080600080600060a0868803121561374e57600080fd5b600061375c88828901613491565b955050602061376d88828901613491565b945050604086013567ffffffffffffffff81111561378a57600080fd5b6137968882890161352f565b935050606086013567ffffffffffffffff8111156137b357600080fd5b6137bf8882890161352f565b925050608086013567ffffffffffffffff8111156137dc57600080fd5b6137e8888289016135ad565b9150509295509295909350565b600080600080600060a0868803121561380d57600080fd5b600061381b88828901613491565b955050602061382c88828901613491565b945050604061383d8882890161366a565b935050606061384e8882890161366a565b925050608086013567ffffffffffffffff81111561386b57600080fd5b613877888289016135ad565b9150509295509295909350565b6000806000806000806080878903121561389d57600080fd5b60006138ab89828a01613491565b965050602087013567ffffffffffffffff8111156138c857600080fd5b6138d489828a016134e5565b9550955050604087013567ffffffffffffffff8111156138f357600080fd5b6138ff89828a016134e5565b9350935050606087013567ffffffffffffffff81111561391e57600080fd5b61392a89828a016135ad565b9150509295509295509295565b6000806040838503121561394a57600080fd5b600061395885828601613491565b925050602061396985828601613559565b9150509250929050565b6000806040838503121561398657600080fd5b600061399485828601613491565b92505060206139a585828601613640565b9150509250929050565b600080604083850312156139c257600080fd5b60006139d085828601613491565b92505060206139e18582860161366a565b9150509250929050565b600080604083850312156139fe57600080fd5b600083013567ffffffffffffffff811115613a1857600080fd5b613a24858286016134bb565b925050602083013567ffffffffffffffff811115613a4157600080fd5b613a4d8582860161352f565b9150509250929050565b60008060008060408587031215613a6d57600080fd5b600085013567ffffffffffffffff811115613a8757600080fd5b613a93878288016134e5565b9450945050602085013567ffffffffffffffff811115613ab257600080fd5b613abe878288016134e5565b925092505092959194509250565b600060208284031215613ade57600080fd5b6000613aec8482850161356e565b91505092915050565b600060208284031215613b0757600080fd5b6000613b1584828501613583565b91505092915050565b600060208284031215613b3057600080fd5b6000613b3e84828501613598565b91505092915050565b600060208284031215613b5957600080fd5b600082013567ffffffffffffffff811115613b7357600080fd5b613b7f848285016135ad565b91505092915050565b600060208284031215613b9a57600080fd5b600082013567ffffffffffffffff811115613bb457600080fd5b613bc0848285016135d7565b91505092915050565b60008060408385031215613bdc57600080fd5b6000613bea8582860161362b565b9250506020613bfb8582860161366a565b9150509250929050565b600060208284031215613c1757600080fd5b6000613c258482850161366a565b91505092915050565b60008060408385031215613c4157600080fd5b6000613c4f8582860161366a565b9250506020613c608582860161366a565b9150509250929050565b6000613c7683836140f2565b60208301905092915050565b613c8b81614960565b82525050565b6000613c9c82614710565b613ca6818561473e565b9350613cb183614700565b8060005b83811015613ce2578151613cc98882613c6a565b9750613cd483614731565b925050600181019050613cb5565b5085935050505092915050565b613cf881614984565b82525050565b6000613d098261471b565b613d13818561474f565b9350613d23818560208601614a1f565b613d2c81614c77565b840191505092915050565b6000613d428261471b565b613d4c8185614760565b9350613d5c818560208601614a1f565b80840191505092915050565b6000613d7382614726565b613d7d818561476b565b9350613d8d818560208601614a1f565b613d9681614c77565b840191505092915050565b6000613dac82614726565b613db6818561477c565b9350613dc6818560208601614a1f565b80840191505092915050565b6000613ddf60348361476b565b9150613dea82614c95565b604082019050919050565b6000613e0260288361476b565b9150613e0d82614ce4565b604082019050919050565b6000613e25602b8361476b565b9150613e3082614d33565b604082019050919050565b6000613e4860318361476b565b9150613e5382614d82565b604082019050919050565b6000613e6b60248361476b565b9150613e7682614dd1565b604082019050919050565b6000613e8e602b8361476b565b9150613e9982614e20565b604082019050919050565b6000613eb160298361476b565b9150613ebc82614e6f565b604082019050919050565b6000613ed4601c8361476b565b9150613edf82614ebe565b602082019050919050565b6000613ef760268361476b565b9150613f0282614ee7565b604082019050919050565b6000613f1a60108361476b565b9150613f2582614f36565b602082019050919050565b6000613f3d60258361476b565b9150613f4882614f5f565b604082019050919050565b6000613f6060238361476b565b9150613f6b82614fae565b604082019050919050565b6000613f83601d8361476b565b9150613f8e82614ffd565b602082019050919050565b6000613fa660198361476b565b9150613fb182615026565b602082019050919050565b6000613fc960228361476b565b9150613fd48261504f565b604082019050919050565b6000613fec601d8361476b565b9150613ff78261509e565b602082019050919050565b600061400f602b8361476b565b915061401a826150c7565b604082019050919050565b600061403260298361476b565b915061403d82615116565b604082019050919050565b6000614055602a8361476b565b915061406082615165565b604082019050919050565b600061407860298361476b565b9150614083826151b4565b604082019050919050565b600061409b60288361476b565b91506140a682615203565b604082019050919050565b60006140be60218361476b565b91506140c982615252565b604082019050919050565b6140dd816149bc565b82525050565b6140ec816149d8565b82525050565b6140fb81614a06565b82525050565b61410a81614a06565b82525050565b600061411c8284613d37565b915081905092915050565b60006141338285613da1565b915061413f8284613da1565b91508190509392505050565b60006020820190506141606000830184613c82565b92915050565b600060a08201905061417b6000830188613c82565b6141886020830187613c82565b818103604083015261419a8186613c91565b905081810360608301526141ae8185613c91565b905081810360808301526141c28184613cfe565b90509695505050505050565b600060a0820190506141e36000830188613c82565b6141f06020830187613c82565b6141fd6040830186614101565b61420a6060830185614101565b818103608083015261421c8184613cfe565b90509695505050505050565b600060408201905061423d6000830185613c82565b61424a6020830184614101565b9392505050565b6000602082019050818103600083015261426b8184613c91565b905092915050565b6000604082019050818103600083015261428d8185613c91565b905081810360208301526142a18184613c91565b90509392505050565b60006020820190506142bf6000830184613cef565b92915050565b600060208201905081810360008301526142df8184613d68565b905092915050565b6000602082019050818103600083015261430081613dd2565b9050919050565b6000602082019050818103600083015261432081613df5565b9050919050565b6000602082019050818103600083015261434081613e18565b9050919050565b6000602082019050818103600083015261436081613e3b565b9050919050565b6000602082019050818103600083015261438081613e5e565b9050919050565b600060208201905081810360008301526143a081613e81565b9050919050565b600060208201905081810360008301526143c081613ea4565b9050919050565b600060208201905081810360008301526143e081613ec7565b9050919050565b6000602082019050818103600083015261440081613eea565b9050919050565b6000602082019050818103600083015261442081613f0d565b9050919050565b6000602082019050818103600083015261444081613f30565b9050919050565b6000602082019050818103600083015261446081613f53565b9050919050565b6000602082019050818103600083015261448081613f76565b9050919050565b600060208201905081810360008301526144a081613f99565b9050919050565b600060208201905081810360008301526144c081613fbc565b9050919050565b600060208201905081810360008301526144e081613fdf565b9050919050565b6000602082019050818103600083015261450081614002565b9050919050565b6000602082019050818103600083015261452081614025565b9050919050565b6000602082019050818103600083015261454081614048565b9050919050565b600060208201905081810360008301526145608161406b565b9050919050565b600060208201905081810360008301526145808161408e565b9050919050565b600060208201905081810360008301526145a0816140b1565b9050919050565b60006020820190506145bc60008301846140d4565b92915050565b60006020820190506145d760008301846140e3565b92915050565b60006020820190506145f26000830184614101565b92915050565b600060408201905061460d6000830185614101565b61461a6020830184614101565b9392505050565b600061462b61463c565b90506146378282614a84565b919050565b6000604051905090565b600067ffffffffffffffff82111561466157614660614c26565b5b602082029050602081019050919050565b600067ffffffffffffffff82111561468d5761468c614c26565b5b602082029050602081019050919050565b600067ffffffffffffffff8211156146b9576146b8614c26565b5b6146c282614c77565b9050602081019050919050565b600067ffffffffffffffff8211156146ea576146e9614c26565b5b6146f382614c77565b9050602081019050919050565b6000819050602082019050919050565b600081519050919050565b600081519050919050565b600081519050919050565b6000602082019050919050565b600082825260208201905092915050565b600082825260208201905092915050565b600081905092915050565b600082825260208201905092915050565b600081905092915050565b6000614792826149bc565b915061479d836149bc565b9250826fffffffffffffffffffffffffffffffff038211156147c2576147c1614b99565b5b828201905092915050565b60006147d882614a06565b91506147e383614a06565b9250827fffffffffffffffffffffffffffffffffffffffffffffffffffffffffffffffff0382111561481857614817614b99565b5b828201905092915050565b600061482e82614a06565b915061483983614a06565b92508261484957614848614bc8565b5b828204905092915050565b600061485f826149bc565b915061486a836149bc565b9250816fffffffffffffffffffffffffffffffff048311821515161561489357614892614b99565b5b828202905092915050565b60006148a982614a06565b91506148b483614a06565b9250817fffffffffffffffffffffffffffffffffffffffffffffffffffffffffffffffff04831182151516156148ed576148ec614b99565b5b828202905092915050565b6000614903826149bc565b915061490e836149bc565b92508282101561492157614920614b99565b5b828203905092915050565b600061493782614a06565b915061494283614a06565b92508282101561495557614954614b99565b5b828203905092915050565b600061496b826149e6565b9050919050565b600061497d826149e6565b9050919050565b60008115159050919050565b60007fffffffff0000000000000000000000000000000000000000000000000000000082169050919050565b60006fffffffffffffffffffffffffffffffff82169050919050565b600061ffff82169050919050565b600073ffffffffffffffffffffffffffffffffffffffff82169050919050565b6000819050919050565b82818337600083830152505050565b60005b83811015614a3d578082015181840152602081019050614a22565b83811115614a4c576000848401525b50505050565b60006002820490506001821680614a6a57607f821691505b60208210811415614a7e57614a7d614bf7565b5b50919050565b614a8d82614c77565b810181811067ffffffffffffffff82111715614aac57614aab614c26565b5b80604052505050565b6000614ac0826149bc565b91506fffffffffffffffffffffffffffffffff821415614ae357614ae2614b99565b5b600182019050919050565b6000614af982614a06565b91507fffffffffffffffffffffffffffffffffffffffffffffffffffffffffffffffff821415614b2c57614b2b614b99565b5b600182019050919050565b6000614b42826149bc565b9150614b4d836149bc565b925082614b5d57614b5c614bc8565b5b828206905092915050565b6000614b7382614a06565b9150614b7e83614a06565b925082614b8e57614b8d614bc8565b5b828206905092915050565b7f4e487b7100000000000000000000000000000000000000000000000000000000600052601160045260246000fd5b7f4e487b7100000000000000000000000000000000000000000000000000000000600052601260045260246000fd5b7f4e487b7100000000000000000000000000000000000000000000000000000000600052602260045260246000fd5b7f4e487b7100000000000000000000000000000000000000000000000000000000600052604160045260246000fd5b600060033d1115614c745760046000803e614c71600051614c88565b90505b90565b6000601f19601f8301169050919050565b60008160e01c9050919050565b7f455243313135353a207472616e7366657220746f206e6f6e204552433131353560008201527f526563656976657220696d706c656d656e746572000000000000000000000000602082015250565b7f455243313135353a204552433131353552656365697665722072656a6563746560008201527f6420746f6b656e73000000000000000000000000000000000000000000000000602082015250565b7f455243313135353a2062616c616e636520717565727920666f7220746865207a60008201527f65726f2061646472657373000000000000000000000000000000000000000000602082015250565b7f455243313135353a2062617463682062616c616e636520717565727920666f7260008201527f20746865207a65726f2061646472657373000000000000000000000000000000602082015250565b7f455243313135353a206275726e20616d6f756e7420657863656564732062616c60008201527f616e636500000000000000000000000000000000000000000000000000000000602082015250565b7f455243313135353a20696e73756666696369656e742062616c616e636573206660008201527f6f72207472616e73666572000000000000000000000000000000000000000000602082015250565b7f455243313135353a2063616c6c6572206973206e6f74206f776e6572206e6f7260008201527f20617070726f7665640000000000000000000000000000000000000000000000602082015250565b7f44654d696e654e46543a20696e76616c69642074696d657374616d7000000000600082015250565b7f416464726573733a20696e73756666696369656e742062616c616e636520666f60008201527f722063616c6c0000000000000000000000000000000000000000000000000000602082015250565b7f5061757361626c653a2070617573656400000000000000000000000000000000600082015250565b7f455243313135353a207472616e7366657220746f20746865207a65726f20616460008201527f6472657373000000000000000000000000000000000000000000000000000000602082015250565b7f455243313135353a206275726e2066726f6d20746865207a65726f206164647260008201527f6573730000000000000000000000000000000000000000000000000000000000602082015250565b7f4f776e61626c653a2073656e646572206d757374206265206f776e6572000000600082015250565b7f44654d696e654e46543a2066726f6d20616c6368656d69737400000000000000600082015250565b7f44654d696e654e46543a20746f6b656e206e6f742066696e616c697a6564207960008201527f6574000000000000000000000000000000000000000000000000000000000000602082015250565b7f416464726573733a2063616c6c20746f206e6f6e2d636f6e7472616374000000600082015250565b7f496e697469616c697a61626c653a20636f6e7472616374206973206e6f74206960008201527f6e697469616c697a696e67000000000000000000000000000000000000000000602082015250565b7f455243313135353a2073657474696e6720617070726f76616c2073746174757360008201527f20666f722073656c660000000000000000000000000000000000000000000000602082015250565b7f5361666545524332303a204552433230206f7065726174696f6e20646964206e60008201527f6f74207375636365656400000000000000000000000000000000000000000000602082015250565b7f455243313135353a206163636f756e747320616e6420696473206c656e67746860008201527f206d69736d617463680000000000000000000000000000000000000000000000602082015250565b7f455243313135353a2069647320616e6420616d6f756e7473206c656e6774682060008201527f6d69736d61746368000000000000000000000000000000000000000000000000602082015250565b7f455243313135353a206d696e7420746f20746865207a65726f2061646472657360008201527f7300000000000000000000000000000000000000000000000000000000000000602082015250565b600060443d10156152b157615334565b6152b961463c565b60043d036004823e80513d602482011167ffffffffffffffff821117156152e1575050615334565b808201805167ffffffffffffffff8111156152ff5750505050615334565b80602083010160043d03850181111561531c575050505050615334565b61532b82602001850186614a84565b82955050505050505b90565b61534081614960565b811461534b57600080fd5b50565b61535781614972565b811461536257600080fd5b50565b61536e81614984565b811461537957600080fd5b50565b61538581614990565b811461539057600080fd5b50565b61539c816149bc565b81146153a757600080fd5b50565b6153b3816149d8565b81146153be57600080fd5b50565b6153ca81614a06565b81146153d557600080fd5b5056fea26469706673582212209c98eb045242ea968e876798df44599f1908bdf61b8edaaf7fa26b36c7fcc9f564736f6c63430008040033",
  "devdoc": {
    "kind": "dev",
    "methods": {
      "balanceOf(address,uint256)": {
        "params": {
          "account": "address to query",
          "id": "token to query"
        },
        "returns": {
          "_0": "token balance"
        }
      },
      "balanceOfBatch(address[],uint256[])": {
        "params": {
          "accounts": "addresss to query",
          "ids": "tokens to query"
        },
        "returns": {
          "_0": "token balances"
        }
      },
      "isApprovedForAll(address,address)": {
        "params": {
          "account": "address to query for approval granted",
          "operator": "address to query for approval received"
        },
        "returns": {
          "_0": "whether operator is approved to spend tokens held by account"
        }
      },
      "safeBatchTransferFrom(address,address,uint256[],uint256[],bytes)": {
        "params": {
          "amounts": "list of quantities of tokens to transfer",
          "data": "data payload",
          "from": "sender of tokens",
          "ids": "list of token IDs",
          "to": "receiver of tokens"
        }
      },
      "safeTransferFrom(address,address,uint256,uint256,bytes)": {
        "params": {
          "amount": "quantity of tokens to transfer",
          "data": "data payload",
          "from": "sender of tokens",
          "id": "token ID",
          "to": "receiver of tokens"
        }
      },
      "setApprovalForAll(address,bool)": {
        "params": {
          "operator": "address whose approval status to update",
          "status": "whether operator should be considered approved"
        }
      },
      "supportsInterface(bytes4)": {
        "params": {
          "interfaceId": "interface id"
        },
        "returns": {
          "_0": "bool whether interface is supported"
        }
      }
    },
    "version": 1
  },
  "userdoc": {
    "kind": "user",
    "methods": {
      "balanceOf(address,uint256)": {
        "notice": "query the balance of given token held by given address"
      },
      "balanceOfBatch(address[],uint256[])": {
        "notice": "query the balances of given tokens held by given addresses"
      },
      "isApprovedForAll(address,address)": {
        "notice": "query approval status of given operator with respect to given address"
      },
      "safeBatchTransferFrom(address,address,uint256[],uint256[],bytes)": {
        "notice": "transfer batch of tokens between given addresses, checking for ERC1155Receiver implementation if applicable"
      },
      "safeTransferFrom(address,address,uint256,uint256,bytes)": {
        "notice": "transfer tokens between given addresses, checking for ERC1155Receiver implementation if applicable"
      },
      "setApprovalForAll(address,bool)": {
        "notice": "grant approval to or revoke approval from given operator to spend held tokens"
      },
      "supportsInterface(bytes4)": {
        "notice": "query whether contract has registered support for given interface"
      },
      "uri(uint256)": {
        "notice": "inheritdoc IERC1155Metadata"
      }
    },
    "version": 1
  },
  "storageLayout": {
    "storage": [
      {
        "astId": 2720,
        "contract": "contracts/nft/facets/ERC1155Facet.sol:ERC1155Facet",
        "label": "s",
        "offset": 0,
        "slot": "0",
        "type": "t_struct(AppStorage)3345_storage"
      }
    ],
    "types": {
      "t_address": {
        "encoding": "inplace",
        "label": "address",
        "numberOfBytes": "20"
      },
      "t_contract(IERC20)80": {
        "encoding": "inplace",
        "label": "contract IERC20",
        "numberOfBytes": "20"
      },
      "t_mapping(t_uint128,t_uint256)": {
        "encoding": "mapping",
        "key": "t_uint128",
        "label": "mapping(uint128 => uint256)",
        "numberOfBytes": "32",
        "value": "t_uint256"
      },
      "t_struct(AppStorage)3345_storage": {
        "encoding": "inplace",
        "label": "struct AppStorage",
        "members": [
          {
            "astId": 3331,
            "contract": "contracts/nft/facets/ERC1155Facet.sol:ERC1155Facet",
            "label": "earningToken",
            "offset": 0,
            "slot": "0",
            "type": "t_contract(IERC20)80"
          },
          {
            "astId": 3334,
            "contract": "contracts/nft/facets/ERC1155Facet.sol:ERC1155Facet",
            "label": "royalty",
            "offset": 0,
            "slot": "1",
            "type": "t_struct(RoyaltyInfo)3328_storage"
          },
          {
            "astId": 3336,
            "contract": "contracts/nft/facets/ERC1155Facet.sol:ERC1155Facet",
            "label": "finalized",
            "offset": 0,
            "slot": "2",
            "type": "t_uint128"
          },
          {
            "astId": 3340,
            "contract": "contracts/nft/facets/ERC1155Facet.sol:ERC1155Facet",
            "label": "daily",
            "offset": 0,
            "slot": "3",
            "type": "t_mapping(t_uint128,t_uint256)"
          },
          {
            "astId": 3344,
            "contract": "contracts/nft/facets/ERC1155Facet.sol:ERC1155Facet",
            "label": "weekly",
            "offset": 0,
            "slot": "4",
            "type": "t_mapping(t_uint128,t_uint256)"
          }
        ],
        "numberOfBytes": "160"
      },
      "t_struct(RoyaltyInfo)3328_storage": {
        "encoding": "inplace",
        "label": "struct RoyaltyInfo",
        "members": [
          {
            "astId": 3325,
            "contract": "contracts/nft/facets/ERC1155Facet.sol:ERC1155Facet",
            "label": "recipient",
            "offset": 0,
            "slot": "0",
            "type": "t_address"
          },
          {
            "astId": 3327,
            "contract": "contracts/nft/facets/ERC1155Facet.sol:ERC1155Facet",
            "label": "bps",
            "offset": 20,
            "slot": "0",
            "type": "t_uint16"
          }
        ],
        "numberOfBytes": "32"
      },
      "t_uint128": {
        "encoding": "inplace",
        "label": "uint128",
        "numberOfBytes": "16"
      },
      "t_uint16": {
        "encoding": "inplace",
        "label": "uint16",
        "numberOfBytes": "2"
      },
      "t_uint256": {
        "encoding": "inplace",
        "label": "uint256",
        "numberOfBytes": "32"
      }
    }
  }
}