{
  "address": "0x9E1f539FE120a83b7bCC29F41118C2178733e45a",
  "abi": [
    {
      "anonymous": false,
      "inputs": [
        {
          "indexed": true,
          "internalType": "uint256",
          "name": "",
          "type": "uint256"
        },
        {
          "indexed": false,
          "internalType": "uint256",
          "name": "",
          "type": "uint256"
        },
        {
          "indexed": false,
          "internalType": "uint256",
          "name": "",
          "type": "uint256"
        }
      ],
      "name": "BillingSale",
      "type": "event"
    },
    {
      "anonymous": false,
      "inputs": [
        {
          "indexed": true,
          "internalType": "uint256",
          "name": "",
          "type": "uint256"
        }
      ],
      "name": "CloseBilling",
      "type": "event"
    },
    {
      "anonymous": false,
      "inputs": [
        {
          "indexed": true,
          "internalType": "uint256",
          "name": "",
          "type": "uint256"
        }
      ],
      "name": "ResetShrink",
      "type": "event"
    },
    {
      "anonymous": false,
      "inputs": [
        {
          "indexed": true,
          "internalType": "address",
          "name": "",
          "type": "address"
        },
        {
          "indexed": false,
          "internalType": "uint256",
          "name": "",
          "type": "uint256"
        },
        {
          "indexed": false,
          "internalType": "uint256",
          "name": "",
          "type": "uint256"
        }
      ],
      "name": "RewardTokenSold",
      "type": "event"
    },
    {
      "inputs": [
        {
          "internalType": "uint256",
          "name": "maxToPay",
          "type": "uint256"
        }
      ],
      "name": "buyWithLockedPrice",
      "outputs": [],
      "stateMutability": "nonpayable",
      "type": "function"
    },
    {
      "inputs": [],
      "name": "closeBilling",
      "outputs": [],
      "stateMutability": "nonpayable",
      "type": "function"
    },
    {
      "inputs": [
        {
          "internalType": "address",
          "name": "recipient",
          "type": "address"
        },
        {
          "internalType": "uint256",
          "name": "start",
          "type": "uint256"
        },
        {
          "internalType": "uint256",
          "name": "end",
          "type": "uint256"
        }
      ],
      "name": "collectResidue",
      "outputs": [],
      "stateMutability": "nonpayable",
      "type": "function"
    },
    {
      "inputs": [
        {
          "internalType": "uint256",
          "name": "token",
          "type": "uint256"
        }
      ],
      "name": "getStatement",
      "outputs": [
        {
          "components": [
            {
              "internalType": "uint256",
              "name": "balance",
              "type": "uint256"
            },
            {
              "internalType": "uint256",
              "name": "income",
              "type": "uint256"
            },
            {
              "internalType": "uint256",
              "name": "debt",
              "type": "uint256"
            }
          ],
          "internalType": "struct Statement",
          "name": "",
          "type": "tuple"
        }
      ],
      "stateMutability": "view",
      "type": "function"
    },
    {
      "inputs": [],
      "name": "lockPrice",
      "outputs": [
        {
          "internalType": "uint256",
          "name": "",
          "type": "uint256"
        },
        {
          "internalType": "uint256",
          "name": "",
          "type": "uint256"
        }
      ],
      "stateMutability": "nonpayable",
      "type": "function"
    },
    {
      "inputs": [],
      "name": "resetShrink",
      "outputs": [],
      "stateMutability": "nonpayable",
      "type": "function"
    },
    {
      "inputs": [],
      "name": "tryBilling",
      "outputs": [],
      "stateMutability": "nonpayable",
      "type": "function"
    }
  ],
  "transactionHash": "0xb58657947ef0d2a764bb2e3727b00c9c9910a60f2e246d610995096f88f7f5cd",
  "args": [],
  "numDeployments": 1,
  "solcInputHash": "b1a391ad26a855b7eca9d1bfba37e4c2",
  "bytecode": "0x608060405234801561001057600080fd5b506130c0806100206000396000f3fe608060405234801561001057600080fd5b506004361061007d5760003560e01c80637c8428101161005b5780637c842810146100b55780639258d470146100d1578063a620ec0714610101578063faaa877e1461010b5761007d565b80633335eb3e1461008257806350003e691461008c578063799ced15146100ab575b600080fd5b61008a610127565b005b61009461020a565b6040516100a292919061295e565b60405180910390f35b6100b3610463565b005b6100cf60048036038101906100ca9190612287565b610695565b005b6100eb60048036038101906100e69190612287565b610a87565b6040516100f89190612943565b60405180910390f35b610109610ad5565b005b6101256004803603810190610120919061220f565b610f66565b005b61012f611133565b60000160009054906101000a900473ffffffffffffffffffffffffffffffffffffffff1673ffffffffffffffffffffffffffffffffffffffff163373ffffffffffffffffffffffffffffffffffffffff16146101c0576040517f08c379a00000000000000000000000000000000000000000000000000000000081526004016101b790612867565b60405180910390fd5b60006101ca611160565b905080600201547f3977767599cdf9243e3296ad8af3f27ba67942a7b776ded085259695f72d6b8260405160405180910390a26000816002018190555050565b6000806000610217611160565b9050600180811115610252577f4e487b7100000000000000000000000000000000000000000000000000000000600052602160045260246000fd5b8160010160149054906101000a900460ff16600181111561029c577f4e487b7100000000000000000000000000000000000000000000000000000000600052602160045260246000fd5b146102dc576040517f08c379a00000000000000000000000000000000000000000000000000000000081526004016102d390612807565b60405180910390fd5b60008060070160008060060154815260200190815260200160002060405180606001604052908160008201548152602001600182015481526020016002820154815250509050600061032d8361118d565b9050600061035f600060010160009054906101000a900473ffffffffffffffffffffffffffffffffffffffff1661137e565b90506000818460200151846103749190612bea565b61037e9190612a48565b9050600080856040015183116103a5576103a086604001518760200151611416565b6103b0565b6103af8585611416565b5b91509150604051806060016040528083815260200182815260200188600101601a9054906101000a900461ffff1661ffff16426103ed91906129f2565b8152508760040160003373ffffffffffffffffffffffffffffffffffffffff1673ffffffffffffffffffffffffffffffffffffffff168152602001908152602001600020600082015181600001556020820151816001015560408201518160020155905050818198509850505050505050509091565b61046b611133565b60000160009054906101000a900473ffffffffffffffffffffffffffffffffffffffff1673ffffffffffffffffffffffffffffffffffffffff163373ffffffffffffffffffffffffffffffffffffffff16146104fc576040517f08c379a00000000000000000000000000000000000000000000000000000000081526004016104f390612867565b60405180910390fd5b6000610506611160565b9050600180811115610541577f4e487b7100000000000000000000000000000000000000000000000000000000600052602160045260246000fd5b8160010160149054906101000a900460ff16600181111561058b577f4e487b7100000000000000000000000000000000000000000000000000000000600052602160045260246000fd5b14801561059b5750806003015442115b6105da576040517f08c379a00000000000000000000000000000000000000000000000000000000081526004016105d190612827565b60405180910390fd5b600080600601549050600080600701600080600601548152602001908152602001600020604051806060016040529081600082015481526020016001820154815260200160028201548152505090508060400151600060050160008282546106429190612c44565b925050819055506000836002015414156106865761068583600060030160009054906101000a900473ffffffffffffffffffffffffffffffffffffffff16611467565b5b6106908383611813565b505050565b600061069f611160565b90506001808111156106da577f4e487b7100000000000000000000000000000000000000000000000000000000600052602160045260246000fd5b8160010160149054906101000a900460ff166001811115610724577f4e487b7100000000000000000000000000000000000000000000000000000000600052602160045260246000fd5b14610764576040517f08c379a000000000000000000000000000000000000000000000000000000000815260040161075b90612807565b60405180910390fd5b60008160040160003373ffffffffffffffffffffffffffffffffffffffff1673ffffffffffffffffffffffffffffffffffffffff1681526020019081526020016000206040518060600160405290816000820154815260200160018201548152602001600282015481525050905080604001514210610818576040517f08c379a000000000000000000000000000000000000000000000000000000000815260040161080f90612887565b60405180910390fd5b60008060060154905060008060070160008381526020019081526020016000206040518060600160405290816000820154815260200160018201548152602001600282015481525050905060006108a38460200151876108789190612a48565b61088a846040015187602001516118ad565b8660000151856020015161089e9190612a48565b6118e5565b905060008460200151826108b79190612bea565b905060008560000151836108cb9190612bea565b90508084602001516108dd9190612c44565b60006007016000878152602001908152602001600020600101819055508360400151821015610938578184604001516109169190612c44565b6000600701600087815260200190815260200160002060020181905550610966565b60008060070160008781526020019081526020016000206002018190555061096587600060060154611813565b5b6109dd33600060040160009054906101000a900473ffffffffffffffffffffffffffffffffffffffff1684600060020160009054906101000a900473ffffffffffffffffffffffffffffffffffffffff1673ffffffffffffffffffffffffffffffffffffffff16611911909392919063ffffffff16565b610a2d3382600060010160009054906101000a900473ffffffffffffffffffffffffffffffffffffffff1673ffffffffffffffffffffffffffffffffffffffff1661199a9092919063ffffffff16565b3373ffffffffffffffffffffffffffffffffffffffff167f47f1fea3b5815b5f572137784f8bc49ca165c79598976847d9f917ad8911db388284604051610a7592919061295e565b60405180910390a25050505050505050565b610a8f61215b565b6000600701600083815260200190815260200160002060405180606001604052908160008201548152602001600182015481526020016002820154815250509050919050565b610add611133565b60000160009054906101000a900473ffffffffffffffffffffffffffffffffffffffff1673ffffffffffffffffffffffffffffffffffffffff163373ffffffffffffffffffffffffffffffffffffffff1614610b6e576040517f08c379a0000000000000000000000000000000000000000000000000000000008152600401610b6590612867565b60405180910390fd5b6000610b78611160565b905060006001811115610bb4577f4e487b7100000000000000000000000000000000000000000000000000000000600052602160045260246000fd5b8160010160149054906101000a900460ff166001811115610bfe577f4e487b7100000000000000000000000000000000000000000000000000000000600052602160045260246000fd5b14610c3e576040517f08c379a0000000000000000000000000000000000000000000000000000000008152600401610c35906128e7565b60405180910390fd5b60008060060154905060008060030160009054906101000a900473ffffffffffffffffffffffffffffffffffffffff169050600081905060008273ffffffffffffffffffffffffffffffffffffffff1662fdd58e30866040518363ffffffff1660e01b8152600401610cb1929190612743565b60206040518083038186803b158015610cc957600080fd5b505afa158015610cdd573d6000803e3d6000fd5b505050506040513d601f19601f82011682018060405250810190610d0191906122b0565b90506000811115610f3c576000610d188386611a20565b90506000826000800154610d2c9190612bea565b9050600080610dac8960010160009054906101000a900473ffffffffffffffffffffffffffffffffffffffff16600060010160009054906101000a900473ffffffffffffffffffffffffffffffffffffffff16600060020160009054906101000a900473ffffffffffffffffffffffffffffffffffffffff168787611b70565b915091508115610e235760405180606001604052808681526020018286610dd39190612c44565b81526020016000815250600060070160008a8152602001908152602001600020600082015181600001556020820151816001015560408201518160020155905050610e1e8989611813565b610f33565b604051806060016040528086815260200185815260200184815250600060070160008a815260200190815260200160002060008201518160000155602082015181600101556040820151816002015590505060008960010160189054906101000a900461ffff1661ffff1642610e9991906129f2565b9050808a6003018190555060018a60010160146101000a81548160ff02191690836001811115610ef2577f4e487b7100000000000000000000000000000000000000000000000000000000600052602160045260246000fd5b0217905550887f20cfaf2a50bcba94329a5b46907c714b181b93deee8f5ccc1963070629da6ceb4283604051610f2992919061295e565b60405180910390a2505b50505050610f47565b610f468585611813565b5b600085600201541115610f5f57610f5e8584611467565b5b5050505050565b610f6e611133565b60000160009054906101000a900473ffffffffffffffffffffffffffffffffffffffff1673ffffffffffffffffffffffffffffffffffffffff163373ffffffffffffffffffffffffffffffffffffffff1614610fff576040517f08c379a0000000000000000000000000000000000000000000000000000000008152600401610ff690612867565b60405180910390fd5b6000600601548110611046576040517f08c379a000000000000000000000000000000000000000000000000000000000815260040161103d90612907565b60405180910390fd5b6000808390505b8281116110da576000806007016000806006015481526020019081526020016000206001015490506000806007016000806006015481526020019081526020016000206001015490508081836110a39190612a48565b6110ad9190612bea565b826110b89190612c44565b846110c391906129f2565b9350505080806110d290612d2f565b91505061104d565b5061112d308583600060010160009054906101000a900473ffffffffffffffffffffffffffffffffffffffff1673ffffffffffffffffffffffffffffffffffffffff16611911909392919063ffffffff16565b50505050565b6000807f8a22373512790c48b83a1fe2efdd2888d4a917bcdc24d0adf63e60f67168046090508091505090565b6000807f1ae9d8d83f6f65ae1abd9acc0aca63e8c998a929dbd5efa644fcec5a336894a690508091505090565b6000808260000160009054906101000a900473ffffffffffffffffffffffffffffffffffffffff1673ffffffffffffffffffffffffffffffffffffffff1663feaf968c6040518163ffffffff1660e01b815260040160a06040518083038186803b1580156111fa57600080fd5b505afa15801561120e573d6000803e3d6000fd5b505050506040513d601f19601f8201168201806040525081019061123291906122d9565b5050509150506000811361124a576000915050611379565b60008360000160009054906101000a900473ffffffffffffffffffffffffffffffffffffffff1673ffffffffffffffffffffffffffffffffffffffff1663313ce5676040518163ffffffff1660e01b815260040160206040518083038186803b1580156112b657600080fd5b505afa1580156112ca573d6000803e3d6000fd5b505050506040513d601f19601f820116820180604052508101906112ee9190612350565b600a6112fa9190612acc565b905060008161132d600060020160009054906101000a900473ffffffffffffffffffffffffffffffffffffffff1661137e565b846113389190612bea565b6113429190612a48565b90506127108560010160169054906101000a900461ffff1661ffff16826113699190612bea565b6113739190612a48565b93505050505b919050565b6000808273ffffffffffffffffffffffffffffffffffffffff1663313ce5676040518163ffffffff1660e01b815260040160206040518083038186803b1580156113c757600080fd5b505afa1580156113db573d6000803e3d6000fd5b505050506040513d601f19601f820116820180604052508101906113ff9190612350565b905080600a61140e9190612acc565b915050919050565b6000808284111561143657600161142d85856118ad565b91509150611460565b600061144284866118ad565b90508061145a8683876114559190612a48565b6118ad565b92509250505b9250929050565b60008173ffffffffffffffffffffffffffffffffffffffff166376e6dca26040518163ffffffff1660e01b815260040160206040518083038186803b1580156114af57600080fd5b505afa1580156114c3573d6000803e3d6000fd5b505050506040513d601f19601f820116820180604052508101906114e791906122b0565b9050600060016114fb856002015484611d67565b61150591906129f2565b905060008460010160159054906101000a900460ff1660ff168361152991906129f2565b90508082101561180c576000600183836115439190612c44565b61154d91906129f2565b67ffffffffffffffff81111561158c577f4e487b7100000000000000000000000000000000000000000000000000000000600052604160045260246000fd5b6040519080825280602002602001820160405280156115ba5781602001602082028036833780820191505090505b5090506000600184846115cd9190612c44565b6115d791906129f2565b67ffffffffffffffff811115611616577f4e487b7100000000000000000000000000000000000000000000000000000000600052604160045260246000fd5b6040519080825280602002602001820160405280156116445781602001602082028036833780820191505090505b50905060008490505b83811161179257808386836116629190612c44565b81518110611699577f4e487b7100000000000000000000000000000000000000000000000000000000600052603260045260246000fd5b6020026020010181815250508673ffffffffffffffffffffffffffffffffffffffff1662fdd58e30836040518363ffffffff1660e01b81526004016116df929190612743565b60206040518083038186803b1580156116f757600080fd5b505afa15801561170b573d6000803e3d6000fd5b505050506040513d601f19601f8201168201806040525081019061172f91906122b0565b82868361173c9190612c44565b81518110611773577f4e487b7100000000000000000000000000000000000000000000000000000000600052603260045260246000fd5b602002602001018181525050808061178a90612d2f565b91505061164d565b508573ffffffffffffffffffffffffffffffffffffffff166383ca4b6f83836040518363ffffffff1660e01b81526004016117ce92919061278e565b600060405180830381600087803b1580156117e857600080fd5b505af11580156117fc573d6000803e3d6000fd5b5050505082876002018190555050505b5050505050565b60018161182091906129f2565b60006006018190555060008260010160146101000a81548160ff02191690836001811115611877577f4e487b7100000000000000000000000000000000000000000000000000000000600052602160045260246000fd5b0217905550807f3b60a8eedd1361983e95cb96ee4a32b37bf8480d8fa8d11a909f9deee6e2e5c660405160405180910390a25050565b60008182600184866118bf91906129f2565b6118c99190612c44565b6118d39190612a48565b6118dd9190612bea565b905092915050565b60008284106118fd576118f88383611d80565b611908565b6119078483611d80565b5b90509392505050565b611994846323b872dd60e01b8585856040516024016119329392919061270c565b604051602081830303815290604052907bffffffffffffffffffffffffffffffffffffffffffffffffffffffff19166020820180517bffffffffffffffffffffffffffffffffffffffffffffffffffffffff8381831617835250505050611d99565b50505050565b611a1b8363a9059cbb60e01b84846040516024016119b9929190612743565b604051602081830303815290604052907bffffffffffffffffffffffffffffffffffffffffffffffffffffffff19166020820180517bffffffffffffffffffffffffffffffffffffffffffffffffffffffff8381831617835250505050611d99565b505050565b600080600167ffffffffffffffff811115611a64577f4e487b7100000000000000000000000000000000000000000000000000000000600052604160045260246000fd5b604051908082528060200260200182016040528015611a925781602001602082028036833780820191505090505b5090508281600081518110611ad0577f4e487b7100000000000000000000000000000000000000000000000000000000600052603260045260246000fd5b6020026020010181815250508373ffffffffffffffffffffffffffffffffffffffff16630b9d0b79826040518263ffffffff1660e01b8152600401611b15919061276c565b602060405180830381600087803b158015611b2f57600080fd5b505af1158015611b43573d6000803e3d6000fd5b505050506040513d601f19601f82011682018060405250810190611b6791906122b0565b91505092915050565b600080611b7e868886611e60565b60006040518061010001604052808873ffffffffffffffffffffffffffffffffffffffff1681526020018773ffffffffffffffffffffffffffffffffffffffff168152602001610bb862ffffff1681526020013073ffffffffffffffffffffffffffffffffffffffff168152602001428152602001858152602001868152602001600073ffffffffffffffffffffffffffffffffffffffff1681525090506000808973ffffffffffffffffffffffffffffffffffffffff1683604051602401611c479190612927565b6040516020818303038152906040527f3ed209e4000000000000000000000000000000000000000000000000000000007bffffffffffffffffffffffffffffffffffffffffffffffffffffffff19166020820180517bffffffffffffffffffffffffffffffffffffffffffffffffffffffff8381831617835250505050604051611cd191906126f5565b6000604051808303816000865af19150503d8060008114611d0e576040519150601f19603f3d011682016040523d82523d6000602084013e611d13565b606091505b5091509150611d24898b6000611e60565b8115611d5257600081806020019051810190611d4091906122b0565b90506001819550955050505050611d5d565b600080945094505050505b9550959350505050565b6000818311611d765781611d78565b825b905092915050565b6000818310611d8f5781611d91565b825b905092915050565b6000611dfb826040518060400160405280602081526020017f5361666545524332303a206c6f772d6c6576656c2063616c6c206661696c65648152508573ffffffffffffffffffffffffffffffffffffffff16611fb59092919063ffffffff16565b9050600081511115611e5b5780806020019051810190611e1b919061225e565b611e5a576040517f08c379a0000000000000000000000000000000000000000000000000000000008152600401611e51906128c7565b60405180910390fd5b5b505050565b6000808473ffffffffffffffffffffffffffffffffffffffff1663095ea7b360e01b8585604051602401611e95929190612743565b604051602081830303815290604052907bffffffffffffffffffffffffffffffffffffffffffffffffffffffff19166020820180517bffffffffffffffffffffffffffffffffffffffffffffffffffffffff8381831617835250505050604051611eff91906126f5565b6000604051808303816000865af19150503d8060008114611f3c576040519150601f19603f3d011682016040523d82523d6000602084013e611f41565b606091505b5091509150818015611f6f5750600081511480611f6e575080806020019051810190611f6d919061225e565b5b5b611fae576040517f08c379a0000000000000000000000000000000000000000000000000000000008152600401611fa5906127e7565b60405180910390fd5b5050505050565b6060611fc48484600085611fcd565b90509392505050565b606082471015612012576040517f08c379a000000000000000000000000000000000000000000000000000000000815260040161200990612847565b60405180910390fd5b61201b856120e1565b61205a576040517f08c379a0000000000000000000000000000000000000000000000000000000008152600401612051906128a7565b60405180910390fd5b6000808673ffffffffffffffffffffffffffffffffffffffff16858760405161208391906126f5565b60006040518083038185875af1925050503d80600081146120c0576040519150601f19603f3d011682016040523d82523d6000602084013e6120c5565b606091505b50915091506120d58282866120f4565b92505050949350505050565b600080823b905060008111915050919050565b6060831561210457829050612154565b6000835111156121175782518084602001fd5b816040517f08c379a000000000000000000000000000000000000000000000000000000000815260040161214b91906127c5565b60405180910390fd5b9392505050565b60405180606001604052806000815260200160008152602001600081525090565b60008135905061218b81613000565b92915050565b6000815190506121a081613017565b92915050565b6000815190506121b58161302e565b92915050565b6000813590506121ca81613045565b92915050565b6000815190506121df81613045565b92915050565b6000815190506121f481613073565b92915050565b6000815190506122098161305c565b92915050565b60008060006060848603121561222457600080fd5b60006122328682870161217c565b9350506020612243868287016121bb565b9250506040612254868287016121bb565b9150509250925092565b60006020828403121561227057600080fd5b600061227e84828501612191565b91505092915050565b60006020828403121561229957600080fd5b60006122a7848285016121bb565b91505092915050565b6000602082840312156122c257600080fd5b60006122d0848285016121d0565b91505092915050565b600080600080600060a086880312156122f157600080fd5b60006122ff888289016121e5565b9550506020612310888289016121a6565b9450506040612321888289016121d0565b9350506060612332888289016121d0565b9250506080612343888289016121e5565b9150509295509295909350565b60006020828403121561236257600080fd5b6000612370848285016121fa565b91505092915050565b600061238583836126d7565b60208301905092915050565b61239a81612c78565b82525050565b6123a981612c78565b82525050565b60006123ba82612997565b6123c481856129c5565b93506123cf83612987565b8060005b838110156124005781516123e78882612379565b97506123f2836129b8565b9250506001810190506123d3565b5085935050505092915050565b6000612418826129a2565b61242281856129d6565b9350612432818560208601612cfc565b80840191505092915050565b6000612449826129ad565b61245381856129e1565b9350612463818560208601612cfc565b61246c81612dd6565b840191505092915050565b60006124846002836129e1565b915061248f82612df4565b602082019050919050565b60006124a7601d836129e1565b91506124b282612e1d565b602082019050919050565b60006124ca601c836129e1565b91506124d582612e46565b602082019050919050565b60006124ed6026836129e1565b91506124f882612e6f565b604082019050919050565b6000612510601d836129e1565b915061251b82612ebe565b602082019050919050565b6000612533601a836129e1565b915061253e82612ee7565b602082019050919050565b6000612556601d836129e1565b915061256182612f10565b602082019050919050565b6000612579602a836129e1565b915061258482612f39565b604082019050919050565b600061259c6020836129e1565b91506125a782612f88565b602082019050919050565b60006125bf6021836129e1565b91506125ca82612fb1565b604082019050919050565b610100820160008201516125ec6000850182612391565b5060208201516125ff6020850182612391565b50604082015161261260408501826126c8565b5060608201516126256060850182612391565b50608082015161263860808501826126d7565b5060a082015161264b60a08501826126d7565b5060c082015161265e60c08501826126d7565b5060e082015161267160e08501826126b9565b50505050565b60608201600082015161268d60008501826126d7565b5060208201516126a060208501826126d7565b5060408201516126b360408501826126d7565b50505050565b6126c281612ca0565b82525050565b6126d181612cc0565b82525050565b6126e081612ccf565b82525050565b6126ef81612ccf565b82525050565b6000612701828461240d565b915081905092915050565b600060608201905061272160008301866123a0565b61272e60208301856123a0565b61273b60408301846126e6565b949350505050565b600060408201905061275860008301856123a0565b61276560208301846126e6565b9392505050565b6000602082019050818103600083015261278681846123af565b905092915050565b600060408201905081810360008301526127a881856123af565b905081810360208301526127bc81846123af565b90509392505050565b600060208201905081810360008301526127df818461243e565b905092915050565b6000602082019050818103600083015261280081612477565b9050919050565b600060208201905081810360008301526128208161249a565b9050919050565b60006020820190508181036000830152612840816124bd565b9050919050565b60006020820190508181036000830152612860816124e0565b9050919050565b6000602082019050818103600083015261288081612503565b9050919050565b600060208201905081810360008301526128a081612526565b9050919050565b600060208201905081810360008301526128c081612549565b9050919050565b600060208201905081810360008301526128e08161256c565b9050919050565b600060208201905081810360008301526129008161258f565b9050919050565b60006020820190508181036000830152612920816125b2565b9050919050565b60006101008201905061293d60008301846125d5565b92915050565b60006060820190506129586000830184612677565b92915050565b600060408201905061297360008301856126e6565b61298060208301846126e6565b9392505050565b6000819050602082019050919050565b600081519050919050565b600081519050919050565b600081519050919050565b6000602082019050919050565b600082825260208201905092915050565b600081905092915050565b600082825260208201905092915050565b60006129fd82612ccf565b9150612a0883612ccf565b9250827fffffffffffffffffffffffffffffffffffffffffffffffffffffffffffffffff03821115612a3d57612a3c612d78565b5b828201905092915050565b6000612a5382612ccf565b9150612a5e83612ccf565b925082612a6e57612a6d612da7565b5b828204905092915050565b6000808291508390505b6001851115612ac357808604811115612a9f57612a9e612d78565b5b6001851615612aae5780820291505b8081029050612abc85612de7565b9450612a83565b94509492505050565b6000612ad782612ccf565b9150612ae283612cd9565b9250612b0f7fffffffffffffffffffffffffffffffffffffffffffffffffffffffffffffffff8484612b17565b905092915050565b600082612b275760019050612be3565b81612b355760009050612be3565b8160018114612b4b5760028114612b5557612b84565b6001915050612be3565b60ff841115612b6757612b66612d78565b5b8360020a915084821115612b7e57612b7d612d78565b5b50612be3565b5060208310610133831016604e8410600b8410161715612bb95782820a905083811115612bb457612bb3612d78565b5b612be3565b612bc68484846001612a79565b92509050818404811115612bdd57612bdc612d78565b5b81810290505b9392505050565b6000612bf582612ccf565b9150612c0083612ccf565b9250817fffffffffffffffffffffffffffffffffffffffffffffffffffffffffffffffff0483118215151615612c3957612c38612d78565b5b828202905092915050565b6000612c4f82612ccf565b9150612c5a83612ccf565b925082821015612c6d57612c6c612d78565b5b828203905092915050565b6000612c8382612ca0565b9050919050565b60008115159050919050565b6000819050919050565b600073ffffffffffffffffffffffffffffffffffffffff82169050919050565b600062ffffff82169050919050565b6000819050919050565b600060ff82169050919050565b600069ffffffffffffffffffff82169050919050565b60005b83811015612d1a578082015181840152602081019050612cff565b83811115612d29576000848401525b50505050565b6000612d3a82612ccf565b91507fffffffffffffffffffffffffffffffffffffffffffffffffffffffffffffffff821415612d6d57612d6c612d78565b5b600182019050919050565b7f4e487b7100000000000000000000000000000000000000000000000000000000600052601160045260246000fd5b7f4e487b7100000000000000000000000000000000000000000000000000000000600052601260045260246000fd5b6000601f19601f8301169050919050565b60008160011c9050919050565b7f5341000000000000000000000000000000000000000000000000000000000000600082015250565b7f44654d696e654167656e743a206e6f2073616c65206f6e2d676f696e67000000600082015250565b7f44654d696e654167656e743a206e6f2073616c65206578706972656400000000600082015250565b7f416464726573733a20696e73756666696369656e742062616c616e636520666f60008201527f722063616c6c0000000000000000000000000000000000000000000000000000602082015250565b7f4f776e61626c653a2073656e646572206d757374206265206f776e6572000000600082015250565b7f44654d696e654167656e743a2070726963652065787069726564000000000000600082015250565b7f416464726573733a2063616c6c20746f206e6f6e2d636f6e7472616374000000600082015250565b7f5361666545524332303a204552433230206f7065726174696f6e20646964206e60008201527f6f74207375636365656400000000000000000000000000000000000000000000602082015250565b7f44654d696e654167656e743a2062696c6c696e6720696e2070726f6772657373600082015250565b7f44654d696e654167656e743a20746f6b656e206e6f742062696c6c656420796560008201527f7400000000000000000000000000000000000000000000000000000000000000602082015250565b61300981612c78565b811461301457600080fd5b50565b61302081612c8a565b811461302b57600080fd5b50565b61303781612c96565b811461304257600080fd5b50565b61304e81612ccf565b811461305957600080fd5b50565b61306581612cd9565b811461307057600080fd5b50565b61307c81612ce6565b811461308757600080fd5b5056fea2646970667358221220a65ca549ce569db2492e08619de38f8d6c5d08efa4c61dc4ff9710e911680d1a64736f6c63430008040033",
  "devdoc": {
    "author": "Shu Dong",
    "kind": "dev",
    "methods": {
      "buyWithLockedPrice(uint256)": {
        "params": {
          "maxToPay": "The max amount of cost to pay"
        }
      }
    },
    "title": "BillingFacet",
    "version": 1
  },
  "userdoc": {
    "kind": "user",
    "methods": {
      "buyWithLockedPrice(uint256)": {
        "notice": "buy income token with locked price"
      },
      "closeBilling()": {
        "notice": "manually close the billing by paying cost with user deposit.         In this case, the pool will be shrinked starting from current         mining token."
      },
      "collectResidue(address,uint256,uint256)": {
        "notice": "Collect income leftover, no waste"
      },
      "lockPrice()": {
        "notice": "lock price to buy income token in income token sale"
      },
      "resetShrink()": {
        "notice": "disable shrink. Token already shrinked will not be affected"
      },
      "tryBilling()": {
        "notice": "It will try to sell income token at Uniswap to pay bill and start income token sale if it fails"
      }
    },
    "notice": "billing related functions",
    "version": 1
  },
  "storageLayout": {
    "storage": [
      {
        "astId": 6759,
        "contract": "contracts/agent/facets/BillingFacet.sol:BillingFacet",
        "label": "s",
        "offset": 0,
        "slot": "0",
        "type": "t_struct(AppStorage)9682_storage"
      }
    ],
    "types": {
      "t_address": {
        "encoding": "inplace",
        "label": "address",
        "numberOfBytes": "20"
      },
      "t_bool": {
        "encoding": "inplace",
        "label": "bool",
        "numberOfBytes": "1"
      },
      "t_contract(IERC20)209": {
        "encoding": "inplace",
        "label": "contract IERC20",
        "numberOfBytes": "20"
      },
      "t_mapping(t_address,t_mapping(t_address,t_mapping(t_uint256,t_uint256)))": {
        "encoding": "mapping",
        "key": "t_address",
        "label": "mapping(address => mapping(address => mapping(uint256 => uint256)))",
        "numberOfBytes": "32",
        "value": "t_mapping(t_address,t_mapping(t_uint256,t_uint256))"
      },
      "t_mapping(t_address,t_mapping(t_uint256,t_uint256))": {
        "encoding": "mapping",
        "key": "t_address",
        "label": "mapping(address => mapping(uint256 => uint256))",
        "numberOfBytes": "32",
        "value": "t_mapping(t_uint256,t_uint256)"
      },
      "t_mapping(t_address,t_struct(Account)9630_storage)": {
        "encoding": "mapping",
        "key": "t_address",
        "label": "mapping(address => struct Account)",
        "numberOfBytes": "32",
        "value": "t_struct(Account)9630_storage"
      },
      "t_mapping(t_address,t_uint256)": {
        "encoding": "mapping",
        "key": "t_address",
        "label": "mapping(address => uint256)",
        "numberOfBytes": "32",
        "value": "t_uint256"
      },
      "t_mapping(t_uint256,t_mapping(t_address,t_uint256))": {
        "encoding": "mapping",
        "key": "t_uint256",
        "label": "mapping(uint256 => mapping(address => uint256))",
        "numberOfBytes": "32",
        "value": "t_mapping(t_address,t_uint256)"
      },
      "t_mapping(t_uint256,t_struct(Statement)9637_storage)": {
        "encoding": "mapping",
        "key": "t_uint256",
        "label": "mapping(uint256 => struct Statement)",
        "numberOfBytes": "32",
        "value": "t_struct(Statement)9637_storage"
      },
      "t_mapping(t_uint256,t_uint256)": {
        "encoding": "mapping",
        "key": "t_uint256",
        "label": "mapping(uint256 => uint256)",
        "numberOfBytes": "32",
        "value": "t_uint256"
      },
      "t_struct(Account)9630_storage": {
        "encoding": "inplace",
        "label": "struct Account",
        "members": [
          {
            "astId": 9625,
            "contract": "contracts/agent/facets/BillingFacet.sol:BillingFacet",
            "label": "start",
            "offset": 0,
            "slot": "0",
            "type": "t_uint256"
          },
          {
            "astId": 9627,
            "contract": "contracts/agent/facets/BillingFacet.sol:BillingFacet",
            "label": "end",
            "offset": 0,
            "slot": "1",
            "type": "t_uint256"
          },
          {
            "astId": 9629,
            "contract": "contracts/agent/facets/BillingFacet.sol:BillingFacet",
            "label": "maxBalance",
            "offset": 0,
            "slot": "2",
            "type": "t_uint256"
          }
        ],
        "numberOfBytes": "96"
      },
      "t_struct(AppStorage)9682_storage": {
        "encoding": "inplace",
        "label": "struct AppStorage",
        "members": [
          {
            "astId": 9639,
            "contract": "contracts/agent/facets/BillingFacet.sol:BillingFacet",
            "label": "tokenCost",
            "offset": 0,
            "slot": "0",
            "type": "t_uint256"
          },
          {
            "astId": 9642,
            "contract": "contracts/agent/facets/BillingFacet.sol:BillingFacet",
            "label": "income",
            "offset": 0,
            "slot": "1",
            "type": "t_contract(IERC20)209"
          },
          {
            "astId": 9645,
            "contract": "contracts/agent/facets/BillingFacet.sol:BillingFacet",
            "label": "payment",
            "offset": 0,
            "slot": "2",
            "type": "t_contract(IERC20)209"
          },
          {
            "astId": 9647,
            "contract": "contracts/agent/facets/BillingFacet.sol:BillingFacet",
            "label": "nft",
            "offset": 0,
            "slot": "3",
            "type": "t_address"
          },
          {
            "astId": 9649,
            "contract": "contracts/agent/facets/BillingFacet.sol:BillingFacet",
            "label": "payee",
            "offset": 0,
            "slot": "4",
            "type": "t_address"
          },
          {
            "astId": 9651,
            "contract": "contracts/agent/facets/BillingFacet.sol:BillingFacet",
            "label": "initialized",
            "offset": 20,
            "slot": "4",
            "type": "t_bool"
          },
          {
            "astId": 9653,
            "contract": "contracts/agent/facets/BillingFacet.sol:BillingFacet",
            "label": "depositMultiplier",
            "offset": 21,
            "slot": "4",
            "type": "t_uint8"
          },
          {
            "astId": 9655,
            "contract": "contracts/agent/facets/BillingFacet.sol:BillingFacet",
            "label": "deposit",
            "offset": 0,
            "slot": "5",
            "type": "t_uint256"
          },
          {
            "astId": 9657,
            "contract": "contracts/agent/facets/BillingFacet.sol:BillingFacet",
            "label": "billing",
            "offset": 0,
            "slot": "6",
            "type": "t_uint256"
          },
          {
            "astId": 9662,
            "contract": "contracts/agent/facets/BillingFacet.sol:BillingFacet",
            "label": "statements",
            "offset": 0,
            "slot": "7",
            "type": "t_mapping(t_uint256,t_struct(Statement)9637_storage)"
          },
          {
            "astId": 9667,
            "contract": "contracts/agent/facets/BillingFacet.sol:BillingFacet",
            "label": "accounts",
            "offset": 0,
            "slot": "8",
            "type": "t_mapping(t_address,t_struct(Account)9630_storage)"
          },
          {
            "astId": 9673,
            "contract": "contracts/agent/facets/BillingFacet.sol:BillingFacet",
            "label": "balances",
            "offset": 0,
            "slot": "9",
            "type": "t_mapping(t_uint256,t_mapping(t_address,t_uint256))"
          },
          {
            "astId": 9681,
            "contract": "contracts/agent/facets/BillingFacet.sol:BillingFacet",
            "label": "allowances",
            "offset": 0,
            "slot": "10",
            "type": "t_mapping(t_address,t_mapping(t_address,t_mapping(t_uint256,t_uint256)))"
          }
        ],
        "numberOfBytes": "352"
      },
      "t_struct(Statement)9637_storage": {
        "encoding": "inplace",
        "label": "struct Statement",
        "members": [
          {
            "astId": 9632,
            "contract": "contracts/agent/facets/BillingFacet.sol:BillingFacet",
            "label": "balance",
            "offset": 0,
            "slot": "0",
            "type": "t_uint256"
          },
          {
            "astId": 9634,
            "contract": "contracts/agent/facets/BillingFacet.sol:BillingFacet",
            "label": "income",
            "offset": 0,
            "slot": "1",
            "type": "t_uint256"
          },
          {
            "astId": 9636,
            "contract": "contracts/agent/facets/BillingFacet.sol:BillingFacet",
            "label": "debt",
            "offset": 0,
            "slot": "2",
            "type": "t_uint256"
          }
        ],
        "numberOfBytes": "96"
      },
      "t_uint256": {
        "encoding": "inplace",
        "label": "uint256",
        "numberOfBytes": "32"
      },
      "t_uint8": {
        "encoding": "inplace",
        "label": "uint8",
        "numberOfBytes": "1"
      }
    }
  }
}