{
  "address": "0x72FA9476D293572BDe3F8B2f31876a5A794c72ED",
  "abi": [
    {
      "anonymous": false,
      "inputs": [
        {
          "indexed": true,
          "internalType": "address",
          "name": "from",
          "type": "address"
        },
        {
          "indexed": true,
          "internalType": "address",
          "name": "cloned",
          "type": "address"
        }
      ],
      "name": "Clone",
      "type": "event"
    },
    {
      "anonymous": false,
      "inputs": [
        {
          "indexed": true,
          "internalType": "address",
          "name": "previousOwner",
          "type": "address"
        },
        {
          "indexed": true,
          "internalType": "address",
          "name": "newOwner",
          "type": "address"
        }
      ],
      "name": "OwnershipTransferred",
      "type": "event"
    },
    {
      "anonymous": false,
      "inputs": [
        {
          "indexed": false,
          "internalType": "address",
          "name": "account",
          "type": "address"
        }
      ],
      "name": "Paused",
      "type": "event"
    },
    {
      "anonymous": false,
      "inputs": [
        {
          "indexed": false,
          "internalType": "address",
          "name": "account",
          "type": "address"
        }
      ],
      "name": "Unpaused",
      "type": "event"
    },
    {
      "stateMutability": "payable",
      "type": "fallback"
    },
    {
      "inputs": [],
      "name": "acceptOwnership",
      "outputs": [],
      "stateMutability": "nonpayable",
      "type": "function"
    },
    {
      "inputs": [
        {
          "internalType": "address",
          "name": "owner",
          "type": "address"
        },
        {
          "internalType": "address",
          "name": "diamondFacet",
          "type": "address"
        },
        {
          "internalType": "address",
          "name": "mortgageFacet",
          "type": "address"
        },
        {
          "components": [
            {
              "internalType": "address",
              "name": "target",
              "type": "address"
            },
            {
              "internalType": "enum IDiamondCuttable.FacetCutAction",
              "name": "action",
              "type": "uint8"
            },
            {
              "internalType": "bytes4[]",
              "name": "selectors",
              "type": "bytes4[]"
            }
          ],
          "internalType": "struct IDiamondCuttable.FacetCut[]",
          "name": "facetCuts",
          "type": "tuple[]"
        },
        {
          "internalType": "address",
          "name": "nft",
          "type": "address"
        },
        {
          "internalType": "address",
          "name": "payment",
          "type": "address"
        },
        {
          "internalType": "address",
          "name": "payee",
          "type": "address"
        },
        {
          "internalType": "uint256",
          "name": "tokenCost",
          "type": "uint256"
        }
      ],
      "name": "create",
      "outputs": [],
      "stateMutability": "nonpayable",
      "type": "function"
    },
    {
      "inputs": [
        {
          "internalType": "address",
          "name": "owner",
          "type": "address"
        },
        {
          "internalType": "address",
          "name": "diamondFacet",
          "type": "address"
        },
        {
          "internalType": "address",
          "name": "mortgageFacet",
          "type": "address"
        },
        {
          "components": [
            {
              "internalType": "address",
              "name": "target",
              "type": "address"
            },
            {
              "internalType": "enum IDiamondCuttable.FacetCutAction",
              "name": "action",
              "type": "uint8"
            },
            {
              "internalType": "bytes4[]",
              "name": "selectors",
              "type": "bytes4[]"
            }
          ],
          "internalType": "struct IDiamondCuttable.FacetCut[]",
          "name": "facetCuts",
          "type": "tuple[]"
        },
        {
          "internalType": "address",
          "name": "nft",
          "type": "address"
        },
        {
          "internalType": "address",
          "name": "payment",
          "type": "address"
        },
        {
          "internalType": "address",
          "name": "payee",
          "type": "address"
        },
        {
          "internalType": "uint256",
          "name": "tokenCost",
          "type": "uint256"
        }
      ],
      "name": "initialize",
      "outputs": [],
      "stateMutability": "nonpayable",
      "type": "function"
    },
    {
      "inputs": [],
      "name": "nomineeOwner",
      "outputs": [
        {
          "internalType": "address",
          "name": "",
          "type": "address"
        }
      ],
      "stateMutability": "view",
      "type": "function"
    },
    {
      "inputs": [],
      "name": "owner",
      "outputs": [
        {
          "internalType": "address",
          "name": "",
          "type": "address"
        }
      ],
      "stateMutability": "view",
      "type": "function"
    },
    {
      "inputs": [],
      "name": "pause",
      "outputs": [],
      "stateMutability": "nonpayable",
      "type": "function"
    },
    {
      "inputs": [],
      "name": "paused",
      "outputs": [
        {
          "internalType": "bool",
          "name": "",
          "type": "bool"
        }
      ],
      "stateMutability": "view",
      "type": "function"
    },
    {
      "inputs": [
        {
          "internalType": "bytes4",
          "name": "interfaceId",
          "type": "bytes4"
        }
      ],
      "name": "supportsInterface",
      "outputs": [
        {
          "internalType": "bool",
          "name": "",
          "type": "bool"
        }
      ],
      "stateMutability": "view",
      "type": "function"
    },
    {
      "inputs": [
        {
          "internalType": "address",
          "name": "account",
          "type": "address"
        }
      ],
      "name": "transferOwnership",
      "outputs": [],
      "stateMutability": "nonpayable",
      "type": "function"
    },
    {
      "inputs": [],
      "name": "unpause",
      "outputs": [],
      "stateMutability": "nonpayable",
      "type": "function"
    },
    {
      "stateMutability": "payable",
      "type": "receive"
    }
  ],
  "transactionHash": "0x700995c7a70063a2f69c133c69e081b1ccb011e09a3fc429ac342cef8dd12eab",
  "args": [],
  "numDeployments": 1,
  "solcInputHash": "b1a391ad26a855b7eca9d1bfba37e4c2",
  "bytecode": "0x608060405234801561001057600080fd5b5061200e806100206000396000f3fe6080604052600436106100955760003560e01c80638ab5150a116100595780638ab5150a146101d95780638da5cb5b14610204578063b061fb381461022f578063f2fde38b14610258578063f9f89f54146102815761009c565b806301ffc9a71461012c5780633f4ba83a146101695780635c975abb1461018057806379ba5097146101ab5780638456cb59146101c25761009c565b3661009c57005b60006100a66102aa565b90506100c78173ffffffffffffffffffffffffffffffffffffffff16610429565b610106576040517f08c379a00000000000000000000000000000000000000000000000000000000081526004016100fd90611b01565b60405180910390fd5b3660008037600080366000845af43d6000803e8060008114610127573d6000f35b3d6000fd5b34801561013857600080fd5b50610153600480360381019061014e91906115ba565b61043c565b6040516101609190611a24565b60405180910390f35b34801561017557600080fd5b5061017e6104b6565b005b34801561018c57600080fd5b506101956105ac565b6040516101a29190611a24565b60405180910390f35b3480156101b757600080fd5b506101c06105cc565b005b3480156101ce57600080fd5b506101d7610720565b005b3480156101e557600080fd5b506101ee610816565b6040516101fb919061193d565b60405180910390f35b34801561021057600080fd5b50610219610849565b604051610226919061193d565b60405180910390f35b34801561023b57600080fd5b50610256600480360381019061025191906114ec565b61087c565b005b34801561026457600080fd5b5061027f600480360381019061027a919061149a565b610b2a565b005b34801561028d57600080fd5b506102a860048036038101906102a391906114ec565b610be0565b005b60008060007f177481ac65e4292921c69f62d1cc7f57541261e5d61c8175cf4e36a01c9bfc939050809150600082600001600080357fffffffff00000000000000000000000000000000000000000000000000000000167bffffffffffffffffffffffffffffffffffffffffffffffffffffffff19167bffffffffffffffffffffffffffffffffffffffffffffffffffffffff191681526020019081526020016000205460601c9050600073ffffffffffffffffffffffffffffffffffffffff168173ffffffffffffffffffffffffffffffffffffffff161415610420578260030160009054906101000a900473ffffffffffffffffffffffffffffffffffffffff169050600073ffffffffffffffffffffffffffffffffffffffff168173ffffffffffffffffffffffffffffffffffffffff16141561041f576040517f08c379a000000000000000000000000000000000000000000000000000000000815260040161041690611aa1565b60405180910390fd5b5b80935050505090565b600080823b905060008111915050919050565b600061044782610cce565b806104af57507f4e2312e0000000000000000000000000000000000000000000000000000000007bffffffffffffffffffffffffffffffffffffffffffffffffffffffff1916827bffffffffffffffffffffffffffffffffffffffffffffffffffffffff1916145b9050919050565b6104be610ed8565b60000160009054906101000a900473ffffffffffffffffffffffffffffffffffffffff1673ffffffffffffffffffffffffffffffffffffffff163373ffffffffffffffffffffffffffffffffffffffff161461054f576040517f08c379a000000000000000000000000000000000000000000000000000000000815260040161054690611ae1565b60405180910390fd5b6000610559610f05565b60000160006101000a81548160ff0219169083151502179055507f5db9ee0a495bf2e6ff9c91a7834c1ba4fdd244a5e8aa4e537bd38aeae4b073aa336040516105a2919061193d565b60405180910390a1565b60006105b6610f05565b60000160009054906101000a900460ff16905090565b6105d4610f32565b60000160009054906101000a900473ffffffffffffffffffffffffffffffffffffffff1673ffffffffffffffffffffffffffffffffffffffff163373ffffffffffffffffffffffffffffffffffffffff1614610665576040517f08c379a000000000000000000000000000000000000000000000000000000000815260040161065c90611ac1565b60405180910390fd5b600061066f610ed8565b90503373ffffffffffffffffffffffffffffffffffffffff168160000160009054906101000a900473ffffffffffffffffffffffffffffffffffffffff1673ffffffffffffffffffffffffffffffffffffffff167f8be0079c531659141344cd1fd0a4f28419497f9722a3daafe3b4186f6b6457e060405160405180910390a36107023382610f5f90919063ffffffff16565b61071d600061070f610f32565b610fa690919063ffffffff16565b50565b610728610ed8565b60000160009054906101000a900473ffffffffffffffffffffffffffffffffffffffff1673ffffffffffffffffffffffffffffffffffffffff163373ffffffffffffffffffffffffffffffffffffffff16146107b9576040517f08c379a00000000000000000000000000000000000000000000000000000000081526004016107b090611ae1565b60405180910390fd5b60016107c3610f05565b60000160006101000a81548160ff0219169083151502179055507f62e78cea01bee320cd4e420270b5ea74000d11b0c9f74754ebdbfc544b05a2583360405161080c919061193d565b60405180910390a1565b6000610820610f32565b60000160009054906101000a900473ffffffffffffffffffffffffffffffffffffffff16905090565b6000610853610ed8565b60000160009054906101000a900473ffffffffffffffffffffffffffffffffffffffff16905090565b6000610886610fed565b90508060000160019054906101000a900460ff166108b6578060000160009054906101000a900460ff16156108bf565b6108be61101a565b5b6108fe576040517f08c379a00000000000000000000000000000000000000000000000000000000081526004016108f590611a81565b60405180910390fd5b60008160000160019054906101000a900460ff1615905080156109565760018260000160016101000a81548160ff02191690831515021790555060018260000160006101000a81548160ff0219169083151502179055505b6109638a8a8a8a8f61102b565b85600060030160006101000a81548173ffffffffffffffffffffffffffffffffffffffff021916908373ffffffffffffffffffffffffffffffffffffffff1602179055508573ffffffffffffffffffffffffffffffffffffffff16638550e6d16040518163ffffffff1660e01b815260040160206040518083038186803b1580156109ed57600080fd5b505afa158015610a01573d6000803e3d6000fd5b505050506040513d601f19601f82011682018060405250810190610a2591906114c3565b600060010160006101000a81548173ffffffffffffffffffffffffffffffffffffffff021916908373ffffffffffffffffffffffffffffffffffffffff16021790555084600060020160006101000a81548173ffffffffffffffffffffffffffffffffffffffff021916908373ffffffffffffffffffffffffffffffffffffffff16021790555083600060040160006101000a81548173ffffffffffffffffffffffffffffffffffffffff021916908373ffffffffffffffffffffffffffffffffffffffff1602179055508260008001819055508015610b1d5760008260000160016101000a81548160ff0219169083151502179055505b5050505050505050505050565b610b32610ed8565b60000160009054906101000a900473ffffffffffffffffffffffffffffffffffffffff1673ffffffffffffffffffffffffffffffffffffffff163373ffffffffffffffffffffffffffffffffffffffff1614610bc3576040517f08c379a0000000000000000000000000000000000000000000000000000000008152600401610bba90611ae1565b60405180910390fd5b610bdd81610bcf610f32565b610fa690919063ffffffff16565b50565b6000610beb30611312565b90508073ffffffffffffffffffffffffffffffffffffffff1663b061fb388b8b8b8b8b8b8b8b8b6040518a63ffffffff1660e01b8152600401610c3699989796959493929190611958565b600060405180830381600087803b158015610c5057600080fd5b505af1158015610c64573d6000803e3d6000fd5b505050508073ffffffffffffffffffffffffffffffffffffffff163073ffffffffffffffffffffffffffffffffffffffff167fb557324045551eafb0789d69d5679a7017a31840124b2220df4b81dea45ec08360405160405180910390a350505050505050505050565b60007fe78a39d8000000000000000000000000000000000000000000000000000000007bffffffffffffffffffffffffffffffffffffffffffffffffffffffff1916827bffffffffffffffffffffffffffffffffffffffffffffffffffffffff19161480610d9957507f7f5828d0000000000000000000000000000000000000000000000000000000007bffffffffffffffffffffffffffffffffffffffffffffffffffffffff1916827bffffffffffffffffffffffffffffffffffffffffffffffffffffffff1916145b80610e0157507f01ffc9a7000000000000000000000000000000000000000000000000000000007bffffffffffffffffffffffffffffffffffffffffffffffffffffffff1916827bffffffffffffffffffffffffffffffffffffffffffffffffffffffff1916145b80610e6957507f1f931c1c000000000000000000000000000000000000000000000000000000007bffffffffffffffffffffffffffffffffffffffffffffffffffffffff1916827bffffffffffffffffffffffffffffffffffffffffffffffffffffffff1916145b80610ed157507f48e2b093000000000000000000000000000000000000000000000000000000007bffffffffffffffffffffffffffffffffffffffffffffffffffffffff1916827bffffffffffffffffffffffffffffffffffffffffffffffffffffffff1916145b9050919050565b6000807f8a22373512790c48b83a1fe2efdd2888d4a917bcdc24d0adf63e60f67168046090508091505090565b6000807f68721c0bbf2c02a4d65000340d1370666be06a630022208d4baa9bd7a4b6fea890508091505090565b6000807f24aa1f7b31fd188a8d3ecfb06bc55c806040e59b03bd4396283442fce661789090508091505090565b808260000160006101000a81548173ffffffffffffffffffffffffffffffffffffffff021916908373ffffffffffffffffffffffffffffffffffffffff1602179055505050565b808260000160006101000a81548173ffffffffffffffffffffffffffffffffffffffff021916908373ffffffffffffffffffffffffffffffffffffffff1602179055505050565b6000807f2ae1e818fc317b4c150084d41bf7468a28b0861c8b85a3e58e4bb4d5dbbc6aa190508091505090565b600061102530610429565b15905090565b611033610fed565b60000160019054906101000a900460ff16611083576040517f08c379a000000000000000000000000000000000000000000000000000000000815260040161107a90611b21565b60405180910390fd5b61109d3361108f610ed8565b610f5f90919063ffffffff16565b6000808673ffffffffffffffffffffffffffffffffffffffff16631f931c1c60e01b868660006040516024016110d5939291906119df565b604051602081830303815290604052907bffffffffffffffffffffffffffffffffffffffffffffffffffffffff19166020820180517bffffffffffffffffffffffffffffffffffffffffffffffffffffffff838183161783525050505060405161113f9190611926565b600060405180830381855af49150503d806000811461117a576040519150601f19603f3d011682016040523d82523d6000602084013e61117f565b606091505b50915091508181906111c7576040517f08c379a00000000000000000000000000000000000000000000000000000000081526004016111be9190611a3f565b60405180910390fd5b508673ffffffffffffffffffffffffffffffffffffffff16639142376560e01b876040516024016111f8919061193d565b604051602081830303815290604052907bffffffffffffffffffffffffffffffffffffffffffffffffffffffff19166020820180517bffffffffffffffffffffffffffffffffffffffffffffffffffffffff83818316178352505050506040516112629190611926565b600060405180830381855af49150503d806000811461129d576040519150601f19603f3d011682016040523d82523d6000602084013e6112a2565b606091505b5080925081935050508181906112ee576040517f08c379a00000000000000000000000000000000000000000000000000000000081526004016112e59190611a3f565b60405180910390fd5b50611309836112fb610ed8565b610f5f90919063ffffffff16565b50505050505050565b60006040517f3d602d80600a3d3981f3363d3d373d3d3d363d7300000000000000000000000081528260601b60148201527f5af43d82803e903d91602b57fd5bf3000000000000000000000000000000000060288201526037816000f0915050600073ffffffffffffffffffffffffffffffffffffffff168173ffffffffffffffffffffffffffffffffffffffff1614156113e2576040517f08c379a00000000000000000000000000000000000000000000000000000000081526004016113d990611a61565b60405180910390fd5b919050565b6000813590506113f681611f83565b92915050565b60008151905061140b81611f83565b92915050565b60008083601f84011261142357600080fd5b8235905067ffffffffffffffff81111561143c57600080fd5b60208301915083602082028301111561145457600080fd5b9250929050565b60008135905061146a81611f9a565b92915050565b60008135905061147f81611fb1565b92915050565b60008135905061149481611fc1565b92915050565b6000602082840312156114ac57600080fd5b60006114ba848285016113e7565b91505092915050565b6000602082840312156114d557600080fd5b60006114e3848285016113fc565b91505092915050565b60008060008060008060008060006101008a8c03121561150b57600080fd5b60006115198c828d016113e7565b995050602061152a8c828d016113e7565b985050604061153b8c828d016113e7565b97505060608a013567ffffffffffffffff81111561155857600080fd5b6115648c828d01611411565b965096505060806115778c828d016113e7565b94505060a06115888c828d016113e7565b93505060c06115998c828d016113e7565b92505060e06115aa8c828d01611485565b9150509295985092959850929598565b6000602082840312156115cc57600080fd5b60006115da8482850161145b565b91505092915050565b60006115ef838361170d565b60208301905092915050565b600061160783836118ad565b905092915050565b61161881611c83565b82525050565b61162781611c83565b82525050565b60006116398385611b85565b935061164482611b41565b8060005b8581101561167d5761165a8284611c31565b61166488826115e3565b975061166f83611b6b565b925050600181019050611648565b5085925050509392505050565b60006116968385611b96565b9350836020840285016116a884611b4b565b8060005b878110156116ec5784840389526116c38284611c5f565b6116cd85826115fb565b94506116d883611b78565b925060208a019950506001810190506116ac565b50829750879450505050509392505050565b61170781611c95565b82525050565b61171681611ca1565b82525050565b600061172782611b55565b6117318185611ba7565b9350611741818560208601611d1c565b80840191505092915050565b61175681611d0a565b82525050565b600061176782611b60565b6117718185611bb2565b9350611781818560208601611d1c565b61178a81611d7e565b840191505092915050565b60006117a2601683611bb2565b91506117ad82611d8f565b602082019050919050565b60006117c5602e83611bb2565b91506117d082611db8565b604082019050919050565b60006117e8603283611bb2565b91506117f382611e07565b604082019050919050565b600061180b602983611bb2565b915061181682611e56565b604082019050919050565b600061182e601d83611bb2565b915061183982611ea5565b602082019050919050565b6000611851600083611bb2565b915061185c82611ece565b600082019050919050565b6000611874602683611bb2565b915061187f82611ed1565b604082019050919050565b6000611897602b83611bb2565b91506118a282611f20565b604082019050919050565b6000606083016118c06000840184611bc3565b6118cd600086018261160f565b506118db6020840184611c48565b6118e8602086018261174d565b506118f66040840184611bda565b858303604087015261190983828461162d565b925050508091505092915050565b61192081611d00565b82525050565b6000611932828461171c565b915081905092915050565b6000602082019050611952600083018461161e565b92915050565b60006101008201905061196e600083018c61161e565b61197b602083018b61161e565b611988604083018a61161e565b818103606083015261199b81888a61168a565b90506119aa608083018761161e565b6119b760a083018661161e565b6119c460c083018561161e565b6119d160e0830184611917565b9a9950505050505050505050565b600060608201905081810360008301526119fa81858761168a565b9050611a09602083018461161e565b8181036040830152611a1a81611844565b9050949350505050565b6000602082019050611a3960008301846116fe565b92915050565b60006020820190508181036000830152611a59818461175c565b905092915050565b60006020820190508181036000830152611a7a81611795565b9050919050565b60006020820190508181036000830152611a9a816117b8565b9050919050565b60006020820190508181036000830152611aba816117db565b9050919050565b60006020820190508181036000830152611ada816117fe565b9050919050565b60006020820190508181036000830152611afa81611821565b9050919050565b60006020820190508181036000830152611b1a81611867565b9050919050565b60006020820190508181036000830152611b3a8161188a565b9050919050565b6000819050919050565b6000819050919050565b600081519050919050565b600081519050919050565b6000602082019050919050565b6000602082019050919050565b600082825260208201905092915050565b600082825260208201905092915050565b600081905092915050565b600082825260208201905092915050565b6000611bd260208401846113e7565b905092915050565b60008083356001602003843603038112611bf357600080fd5b83810192508235915060208301925067ffffffffffffffff821115611c1757600080fd5b602082023603841315611c2957600080fd5b509250929050565b6000611c40602084018461145b565b905092915050565b6000611c576020840184611470565b905092915050565b600082356001606003833603038112611c7757600080fd5b82810191505092915050565b6000611c8e82611ce0565b9050919050565b60008115159050919050565b60007fffffffff0000000000000000000000000000000000000000000000000000000082169050919050565b6000819050611cdb82611f6f565b919050565b600073ffffffffffffffffffffffffffffffffffffffff82169050919050565b6000819050919050565b6000611d1582611ccd565b9050919050565b60005b83811015611d3a578082015181840152602081019050611d1f565b83811115611d49576000848401525b50505050565b7f4e487b7100000000000000000000000000000000000000000000000000000000600052602160045260246000fd5b6000601f19601f8301169050919050565b7f455243313136373a20637265617465206661696c656400000000000000000000600082015250565b7f496e697469616c697a61626c653a20636f6e747261637420697320616c72656160008201527f647920696e697469616c697a6564000000000000000000000000000000000000602082015250565b7f4469616d6f6e64426173653a206e6f20666163657420666f756e6420666f722060008201527f66756e6374696f6e207369676e61747572650000000000000000000000000000602082015250565b7f536166654f776e61626c653a2073656e646572206d757374206265206e6f6d6960008201527f6e6565206f776e65720000000000000000000000000000000000000000000000602082015250565b7f4f776e61626c653a2073656e646572206d757374206265206f776e6572000000600082015250565b50565b7f50726f78793a20696d706c656d656e746174696f6e206d75737420626520636f60008201527f6e74726163740000000000000000000000000000000000000000000000000000602082015250565b7f496e697469616c697a61626c653a20636f6e7472616374206973206e6f74206960008201527f6e697469616c697a696e67000000000000000000000000000000000000000000602082015250565b60038110611f8057611f7f611d4f565b5b50565b611f8c81611c83565b8114611f9757600080fd5b50565b611fa381611ca1565b8114611fae57600080fd5b50565b60038110611fbe57600080fd5b50565b611fca81611d00565b8114611fd557600080fd5b5056fea264697066735822122033437c9cb9446692d1c289bb40e892ec6c4305c0639c36fdbc1f7dfc86224bf964736f6c63430008040033",
  "devdoc": {
    "kind": "dev",
    "methods": {
      "owner()": {
        "returns": {
          "_0": "conract owner"
        }
      },
      "pause()": {
        "details": "pause the contract"
      },
      "paused()": {
        "details": "Should return if the contract is paused"
      },
      "supportsInterface(bytes4)": {
        "params": {
          "interfaceId": "interface id"
        },
        "returns": {
          "_0": "bool whether interface is supported"
        }
      },
      "transferOwnership(address)": {
        "details": "ownership transfer must be accepted by beneficiary before transfer is complete",
        "params": {
          "account": "address of new owner"
        }
      },
      "unpause()": {
        "details": "unpause the contract"
      }
    },
    "version": 1
  },
  "userdoc": {
    "kind": "user",
    "methods": {
      "acceptOwnership()": {
        "notice": "accept transfer of contract ownership"
      },
      "owner()": {
        "notice": "get the ERC173 contract owner"
      },
      "supportsInterface(bytes4)": {
        "notice": "query whether contract has registered support for given interface"
      },
      "transferOwnership(address)": {
        "notice": "transfer contract ownership to new account"
      }
    },
    "version": 1
  },
  "storageLayout": {
    "storage": [
      {
        "astId": 6587,
        "contract": "contracts/agent/DeMineAgent.sol:DeMineAgent",
        "label": "s",
        "offset": 0,
        "slot": "0",
        "type": "t_struct(AppStorage)9682_storage"
      }
    ],
    "types": {
      "t_address": {
        "encoding": "inplace",
        "label": "address",
        "numberOfBytes": "20"
      },
      "t_bool": {
        "encoding": "inplace",
        "label": "bool",
        "numberOfBytes": "1"
      },
      "t_contract(IERC20)209": {
        "encoding": "inplace",
        "label": "contract IERC20",
        "numberOfBytes": "20"
      },
      "t_mapping(t_address,t_mapping(t_address,t_mapping(t_uint256,t_uint256)))": {
        "encoding": "mapping",
        "key": "t_address",
        "label": "mapping(address => mapping(address => mapping(uint256 => uint256)))",
        "numberOfBytes": "32",
        "value": "t_mapping(t_address,t_mapping(t_uint256,t_uint256))"
      },
      "t_mapping(t_address,t_mapping(t_uint256,t_uint256))": {
        "encoding": "mapping",
        "key": "t_address",
        "label": "mapping(address => mapping(uint256 => uint256))",
        "numberOfBytes": "32",
        "value": "t_mapping(t_uint256,t_uint256)"
      },
      "t_mapping(t_address,t_struct(Account)9630_storage)": {
        "encoding": "mapping",
        "key": "t_address",
        "label": "mapping(address => struct Account)",
        "numberOfBytes": "32",
        "value": "t_struct(Account)9630_storage"
      },
      "t_mapping(t_address,t_uint256)": {
        "encoding": "mapping",
        "key": "t_address",
        "label": "mapping(address => uint256)",
        "numberOfBytes": "32",
        "value": "t_uint256"
      },
      "t_mapping(t_uint256,t_mapping(t_address,t_uint256))": {
        "encoding": "mapping",
        "key": "t_uint256",
        "label": "mapping(uint256 => mapping(address => uint256))",
        "numberOfBytes": "32",
        "value": "t_mapping(t_address,t_uint256)"
      },
      "t_mapping(t_uint256,t_struct(Statement)9637_storage)": {
        "encoding": "mapping",
        "key": "t_uint256",
        "label": "mapping(uint256 => struct Statement)",
        "numberOfBytes": "32",
        "value": "t_struct(Statement)9637_storage"
      },
      "t_mapping(t_uint256,t_uint256)": {
        "encoding": "mapping",
        "key": "t_uint256",
        "label": "mapping(uint256 => uint256)",
        "numberOfBytes": "32",
        "value": "t_uint256"
      },
      "t_struct(Account)9630_storage": {
        "encoding": "inplace",
        "label": "struct Account",
        "members": [
          {
            "astId": 9625,
            "contract": "contracts/agent/DeMineAgent.sol:DeMineAgent",
            "label": "start",
            "offset": 0,
            "slot": "0",
            "type": "t_uint256"
          },
          {
            "astId": 9627,
            "contract": "contracts/agent/DeMineAgent.sol:DeMineAgent",
            "label": "end",
            "offset": 0,
            "slot": "1",
            "type": "t_uint256"
          },
          {
            "astId": 9629,
            "contract": "contracts/agent/DeMineAgent.sol:DeMineAgent",
            "label": "maxBalance",
            "offset": 0,
            "slot": "2",
            "type": "t_uint256"
          }
        ],
        "numberOfBytes": "96"
      },
      "t_struct(AppStorage)9682_storage": {
        "encoding": "inplace",
        "label": "struct AppStorage",
        "members": [
          {
            "astId": 9639,
            "contract": "contracts/agent/DeMineAgent.sol:DeMineAgent",
            "label": "tokenCost",
            "offset": 0,
            "slot": "0",
            "type": "t_uint256"
          },
          {
            "astId": 9642,
            "contract": "contracts/agent/DeMineAgent.sol:DeMineAgent",
            "label": "income",
            "offset": 0,
            "slot": "1",
            "type": "t_contract(IERC20)209"
          },
          {
            "astId": 9645,
            "contract": "contracts/agent/DeMineAgent.sol:DeMineAgent",
            "label": "payment",
            "offset": 0,
            "slot": "2",
            "type": "t_contract(IERC20)209"
          },
          {
            "astId": 9647,
            "contract": "contracts/agent/DeMineAgent.sol:DeMineAgent",
            "label": "nft",
            "offset": 0,
            "slot": "3",
            "type": "t_address"
          },
          {
            "astId": 9649,
            "contract": "contracts/agent/DeMineAgent.sol:DeMineAgent",
            "label": "payee",
            "offset": 0,
            "slot": "4",
            "type": "t_address"
          },
          {
            "astId": 9651,
            "contract": "contracts/agent/DeMineAgent.sol:DeMineAgent",
            "label": "initialized",
            "offset": 20,
            "slot": "4",
            "type": "t_bool"
          },
          {
            "astId": 9653,
            "contract": "contracts/agent/DeMineAgent.sol:DeMineAgent",
            "label": "depositMultiplier",
            "offset": 21,
            "slot": "4",
            "type": "t_uint8"
          },
          {
            "astId": 9655,
            "contract": "contracts/agent/DeMineAgent.sol:DeMineAgent",
            "label": "deposit",
            "offset": 0,
            "slot": "5",
            "type": "t_uint256"
          },
          {
            "astId": 9657,
            "contract": "contracts/agent/DeMineAgent.sol:DeMineAgent",
            "label": "billing",
            "offset": 0,
            "slot": "6",
            "type": "t_uint256"
          },
          {
            "astId": 9662,
            "contract": "contracts/agent/DeMineAgent.sol:DeMineAgent",
            "label": "statements",
            "offset": 0,
            "slot": "7",
            "type": "t_mapping(t_uint256,t_struct(Statement)9637_storage)"
          },
          {
            "astId": 9667,
            "contract": "contracts/agent/DeMineAgent.sol:DeMineAgent",
            "label": "accounts",
            "offset": 0,
            "slot": "8",
            "type": "t_mapping(t_address,t_struct(Account)9630_storage)"
          },
          {
            "astId": 9673,
            "contract": "contracts/agent/DeMineAgent.sol:DeMineAgent",
            "label": "balances",
            "offset": 0,
            "slot": "9",
            "type": "t_mapping(t_uint256,t_mapping(t_address,t_uint256))"
          },
          {
            "astId": 9681,
            "contract": "contracts/agent/DeMineAgent.sol:DeMineAgent",
            "label": "allowances",
            "offset": 0,
            "slot": "10",
            "type": "t_mapping(t_address,t_mapping(t_address,t_mapping(t_uint256,t_uint256)))"
          }
        ],
        "numberOfBytes": "352"
      },
      "t_struct(Statement)9637_storage": {
        "encoding": "inplace",
        "label": "struct Statement",
        "members": [
          {
            "astId": 9632,
            "contract": "contracts/agent/DeMineAgent.sol:DeMineAgent",
            "label": "balance",
            "offset": 0,
            "slot": "0",
            "type": "t_uint256"
          },
          {
            "astId": 9634,
            "contract": "contracts/agent/DeMineAgent.sol:DeMineAgent",
            "label": "income",
            "offset": 0,
            "slot": "1",
            "type": "t_uint256"
          },
          {
            "astId": 9636,
            "contract": "contracts/agent/DeMineAgent.sol:DeMineAgent",
            "label": "debt",
            "offset": 0,
            "slot": "2",
            "type": "t_uint256"
          }
        ],
        "numberOfBytes": "96"
      },
      "t_uint256": {
        "encoding": "inplace",
        "label": "uint256",
        "numberOfBytes": "32"
      },
      "t_uint8": {
        "encoding": "inplace",
        "label": "uint8",
        "numberOfBytes": "1"
      }
    }
  }
}