{
  "address": "0xd0CdDf6DfE39fA331A0C505e0cF07C5aBf773aB0",
  "abi": [
    {
      "anonymous": false,
      "inputs": [
        {
          "indexed": true,
          "internalType": "address",
          "name": "from",
          "type": "address"
        },
        {
          "indexed": true,
          "internalType": "address",
          "name": "cloned",
          "type": "address"
        }
      ],
      "name": "Clone",
      "type": "event"
    },
    {
      "stateMutability": "payable",
      "type": "fallback"
    },
    {
      "inputs": [
        {
          "internalType": "address",
          "name": "diamondFacet",
          "type": "address"
        },
        {
          "components": [
            {
              "internalType": "address",
              "name": "target",
              "type": "address"
            },
            {
              "internalType": "enum IDiamondCuttable.FacetCutAction",
              "name": "action",
              "type": "uint8"
            },
            {
              "internalType": "bytes4[]",
              "name": "selectors",
              "type": "bytes4[]"
            }
          ],
          "internalType": "struct IDiamondCuttable.FacetCut[]",
          "name": "facetCuts",
          "type": "tuple[]"
        },
        {
          "internalType": "bytes4[]",
          "name": "interfaces",
          "type": "bytes4[]"
        },
        {
          "internalType": "address",
          "name": "income",
          "type": "address"
        },
        {
          "internalType": "address",
          "name": "recipient",
          "type": "address"
        },
        {
          "internalType": "uint16",
          "name": "bps",
          "type": "uint16"
        },
        {
          "internalType": "string",
          "name": "uri",
          "type": "string"
        },
        {
          "internalType": "address",
          "name": "owner",
          "type": "address"
        }
      ],
      "name": "create",
      "outputs": [],
      "stateMutability": "nonpayable",
      "type": "function"
    },
    {
      "inputs": [
        {
          "internalType": "address",
          "name": "diamondFacet",
          "type": "address"
        },
        {
          "components": [
            {
              "internalType": "address",
              "name": "target",
              "type": "address"
            },
            {
              "internalType": "enum IDiamondCuttable.FacetCutAction",
              "name": "action",
              "type": "uint8"
            },
            {
              "internalType": "bytes4[]",
              "name": "selectors",
              "type": "bytes4[]"
            }
          ],
          "internalType": "struct IDiamondCuttable.FacetCut[]",
          "name": "facetCuts",
          "type": "tuple[]"
        },
        {
          "internalType": "bytes4[]",
          "name": "interfaces",
          "type": "bytes4[]"
        },
        {
          "internalType": "address",
          "name": "income",
          "type": "address"
        },
        {
          "internalType": "address",
          "name": "recipient",
          "type": "address"
        },
        {
          "internalType": "uint16",
          "name": "bps",
          "type": "uint16"
        },
        {
          "internalType": "string",
          "name": "uri",
          "type": "string"
        },
        {
          "internalType": "address",
          "name": "owner",
          "type": "address"
        }
      ],
      "name": "initialize",
      "outputs": [],
      "stateMutability": "nonpayable",
      "type": "function"
    },
    {
      "stateMutability": "payable",
      "type": "receive"
    }
  ],
  "transactionHash": "0xa64ec22f228298fe2caa18a979c3f5c596afc5baac8ebc42fdb5eee27e3dea19",
  "args": [],
  "numDeployments": 1,
  "solcInputHash": "91f67aea1dc348227e3f6da62b6e39f7",
  "bytecode": "0x608060405234801561001057600080fd5b50611955806100206000396000f3fe60806040526004361061002d5760003560e01c806345faf773146100c45780636d53b128146100ed57610034565b3661003457005b600061003e610116565b905061005f8173ffffffffffffffffffffffffffffffffffffffff16610295565b61009e576040517f08c379a0000000000000000000000000000000000000000000000000000000008152600401610095906112e6565b60405180910390fd5b3660008037600080366000845af43d6000803e80600081146100bf573d6000f35b3d6000fd5b3480156100d057600080fd5b506100eb60048036038101906100e69190610cb7565b6102a8565b005b3480156100f957600080fd5b50610114600480360381019061010f9190610cb7565b610399565b005b60008060007f177481ac65e4292921c69f62d1cc7f57541261e5d61c8175cf4e36a01c9bfc939050809150600082600001600080357fffffffff00000000000000000000000000000000000000000000000000000000167bffffffffffffffffffffffffffffffffffffffffffffffffffffffff19167bffffffffffffffffffffffffffffffffffffffffffffffffffffffff191681526020019081526020016000205460601c9050600073ffffffffffffffffffffffffffffffffffffffff168173ffffffffffffffffffffffffffffffffffffffff16141561028c578260030160009054906101000a900473ffffffffffffffffffffffffffffffffffffffff169050600073ffffffffffffffffffffffffffffffffffffffff168173ffffffffffffffffffffffffffffffffffffffff16141561028b576040517f08c379a0000000000000000000000000000000000000000000000000000000008152600401610282906112c6565b60405180910390fd5b5b80935050505090565b600080823b905060008111915050919050565b60006102b3306105b7565b90508073ffffffffffffffffffffffffffffffffffffffff16636d53b1288c8c8c8c8c8c8c8c8c8c6040518b63ffffffff1660e01b81526004016103009a99989796959493929190611168565b600060405180830381600087803b15801561031a57600080fd5b505af115801561032e573d6000803e3d6000fd5b505050508073ffffffffffffffffffffffffffffffffffffffff163073ffffffffffffffffffffffffffffffffffffffff167fb557324045551eafb0789d69d5679a7017a31840124b2220df4b81dea45ec08360405160405180910390a35050505050505050505050565b60006103a361068c565b90508060000160019054906101000a900460ff166103d3578060000160009054906101000a900460ff16156103dc565b6103db6106b9565b5b61041b576040517f08c379a0000000000000000000000000000000000000000000000000000000008152600401610412906112a6565b60405180910390fd5b60008160000160019054906101000a900460ff1615905080156104735760018260000160016101000a81548160ff02191690831515021790555060018260000160006101000a81548160ff0219169083151502179055505b6104818c8c8c8c8c886106ca565b8361048a61091d565b60000190805190602001906104a0929190610ac4565b5060405180604001604052808773ffffffffffffffffffffffffffffffffffffffff1681526020018661ffff16815250600060030160008201518160000160006101000a81548173ffffffffffffffffffffffffffffffffffffffff021916908373ffffffffffffffffffffffffffffffffffffffff16021790555060208201518160000160146101000a81548161ffff021916908361ffff160217905550905050866000800160006101000a81548173ffffffffffffffffffffffffffffffffffffffff021916908373ffffffffffffffffffffffffffffffffffffffff16021790555080156105a95760008260000160016101000a81548160ff0219169083151502179055505b505050505050505050505050565b60006040517f3d602d80600a3d3981f3363d3d373d3d3d363d7300000000000000000000000081528260601b60148201527f5af43d82803e903d91602b57fd5bf3000000000000000000000000000000000060288201526037816000f0915050600073ffffffffffffffffffffffffffffffffffffffff168173ffffffffffffffffffffffffffffffffffffffff161415610687576040517f08c379a000000000000000000000000000000000000000000000000000000000815260040161067e90611286565b60405180910390fd5b919050565b6000807f2ae1e818fc317b4c150084d41bf7468a28b0861c8b85a3e58e4bb4d5dbbc6aa190508091505090565b60006106c430610295565b15905090565b6106d261068c565b60000160019054906101000a900460ff16610722576040517f08c379a000000000000000000000000000000000000000000000000000000000815260040161071990611306565b60405180910390fd5b61073c3361072e61094a565b61097790919063ffffffff16565b6000808773ffffffffffffffffffffffffffffffffffffffff16631f931c1c60e01b88886000604051602401610774939291906111ff565b604051602081830303815290604052907bffffffffffffffffffffffffffffffffffffffffffffffffffffffff19166020820180517bffffffffffffffffffffffffffffffffffffffffffffffffffffffff83818316178352505050506040516107de9190611151565b600060405180830381855af49150503d8060008114610819576040519150601f19603f3d011682016040523d82523d6000602084013e61081e565b606091505b5091509150818190610866576040517f08c379a000000000000000000000000000000000000000000000000000000000815260040161085d9190611244565b60405180910390fd5b5060006108716109be565b905060005b868690508110156108f7576108e48787838181106108bd577f4e487b7100000000000000000000000000000000000000000000000000000000600052603260045260246000fd5b90506020020160208101906108d29190610dba565b6001846109eb9092919063ffffffff16565b80806108ef9061160f565b915050610876565b506109128461090461094a565b61097790919063ffffffff16565b505050505050505050565b6000807f4281b61aefbe70b3d3f684b428efca5f33077bc240e76f2808f9177c307617f490508091505090565b6000807f8a22373512790c48b83a1fe2efdd2888d4a917bcdc24d0adf63e60f67168046090508091505090565b808260000160006101000a81548173ffffffffffffffffffffffffffffffffffffffff021916908373ffffffffffffffffffffffffffffffffffffffff1602179055505050565b6000807f326d0c59a7612f6a9919e2a8ee333c80ba689d8ba2634de89c85cbb04832e70590508091505090565b63ffffffff60e01b827bffffffffffffffffffffffffffffffffffffffffffffffffffffffff19161415610a54576040517f08c379a0000000000000000000000000000000000000000000000000000000008152600401610a4b90611266565b60405180910390fd5b80836000016000847bffffffffffffffffffffffffffffffffffffffffffffffffffffffff19167bffffffffffffffffffffffffffffffffffffffffffffffffffffffff1916815260200190815260200160002060006101000a81548160ff021916908315150217905550505050565b828054610ad0906115ac565b90600052602060002090601f016020900481019282610af25760008555610b39565b82601f10610b0b57805160ff1916838001178555610b39565b82800160010185558215610b39579182015b82811115610b38578251825591602001919060010190610b1d565b5b509050610b469190610b4a565b5090565b5b80821115610b63576000816000905550600101610b4b565b5090565b6000610b7a610b758461134b565b611326565b905082815260208101848484011115610b9257600080fd5b610b9d84828561156a565b509392505050565b600081359050610bb4816118ca565b92915050565b60008083601f840112610bcc57600080fd5b8235905067ffffffffffffffff811115610be557600080fd5b602083019150836020820283011115610bfd57600080fd5b9250929050565b60008083601f840112610c1657600080fd5b8235905067ffffffffffffffff811115610c2f57600080fd5b602083019150836020820283011115610c4757600080fd5b9250929050565b600081359050610c5d816118e1565b92915050565b600081359050610c72816118f8565b92915050565b600082601f830112610c8957600080fd5b8135610c99848260208601610b67565b91505092915050565b600081359050610cb181611908565b92915050565b6000806000806000806000806000806101008b8d031215610cd757600080fd5b6000610ce58d828e01610ba5565b9a505060208b013567ffffffffffffffff811115610d0257600080fd5b610d0e8d828e01610c04565b995099505060408b013567ffffffffffffffff811115610d2d57600080fd5b610d398d828e01610bba565b97509750506060610d4c8d828e01610ba5565b9550506080610d5d8d828e01610ba5565b94505060a0610d6e8d828e01610ca2565b93505060c08b013567ffffffffffffffff811115610d8b57600080fd5b610d978d828e01610c78565b92505060e0610da88d828e01610ba5565b9150509295989b9194979a5092959850565b600060208284031215610dcc57600080fd5b6000610dda84828501610c4e565b91505092915050565b6000610def8383610f5b565b60208301905092915050565b6000610e0783836110d8565b905092915050565b610e18816114cf565b82525050565b610e27816114cf565b82525050565b6000610e3983856113c0565b9350610e448261137c565b8060005b85811015610e7d57610e5a828461147d565b610e648882610de3565b9750610e6f836113a6565b925050600181019050610e48565b5085925050509392505050565b6000610e9683856113d1565b9350610ea18261137c565b8060005b85811015610eda57610eb7828461147d565b610ec18882610de3565b9750610ecc836113a6565b925050600181019050610ea5565b5085925050509392505050565b6000610ef383856113e2565b935083602084028501610f0584611386565b8060005b87811015610f49578484038952610f2082846114ab565b610f2a8582610dfb565b9450610f35836113b3565b925060208a01995050600181019050610f09565b50829750879450505050509392505050565b610f64816114e1565b82525050565b6000610f7582611390565b610f7f81856113f3565b9350610f8f818560208601611579565b80840191505092915050565b610fa481611558565b82525050565b6000610fb58261139b565b610fbf81856113fe565b9350610fcf818560208601611579565b610fd881611714565b840191505092915050565b6000610ff0601c836113fe565b9150610ffb82611725565b602082019050919050565b60006110136016836113fe565b915061101e8261174e565b602082019050919050565b6000611036602e836113fe565b915061104182611777565b604082019050919050565b60006110596032836113fe565b9150611064826117c6565b604082019050919050565b600061107c6000836113fe565b915061108782611815565b600082019050919050565b600061109f6026836113fe565b91506110aa82611818565b604082019050919050565b60006110c2602b836113fe565b91506110cd82611867565b604082019050919050565b6000606083016110eb600084018461140f565b6110f86000860182610e0f565b506111066020840184611494565b6111136020860182610f9b565b506111216040840184611426565b8583036040870152611134838284610e2d565b925050508091505092915050565b61114b81611520565b82525050565b600061115d8284610f6a565b915081905092915050565b60006101008201905061117e600083018d610e1e565b8181036020830152611191818b8d610ee7565b905081810360408301526111a681898b610e8a565b90506111b56060830188610e1e565b6111c26080830187610e1e565b6111cf60a0830186611142565b81810360c08301526111e18185610faa565b90506111f060e0830184610e1e565b9b9a5050505050505050505050565b6000606082019050818103600083015261121a818587610ee7565b90506112296020830184610e1e565b818103604083015261123a8161106f565b9050949350505050565b6000602082019050818103600083015261125e8184610faa565b905092915050565b6000602082019050818103600083015261127f81610fe3565b9050919050565b6000602082019050818103600083015261129f81611006565b9050919050565b600060208201905081810360008301526112bf81611029565b9050919050565b600060208201905081810360008301526112df8161104c565b9050919050565b600060208201905081810360008301526112ff81611092565b9050919050565b6000602082019050818103600083015261131f816110b5565b9050919050565b6000611330611341565b905061133c82826115de565b919050565b6000604051905090565b600067ffffffffffffffff821115611366576113656116e5565b5b61136f82611714565b9050602081019050919050565b6000819050919050565b6000819050919050565b600081519050919050565b600081519050919050565b6000602082019050919050565b6000602082019050919050565b600082825260208201905092915050565b600082825260208201905092915050565b600082825260208201905092915050565b600081905092915050565b600082825260208201905092915050565b600061141e6020840184610ba5565b905092915050565b6000808335600160200384360303811261143f57600080fd5b83810192508235915060208301925067ffffffffffffffff82111561146357600080fd5b60208202360384131561147557600080fd5b509250929050565b600061148c6020840184610c4e565b905092915050565b60006114a36020840184610c63565b905092915050565b6000823560016060038336030381126114c357600080fd5b82810191505092915050565b60006114da8261152e565b9050919050565b60007fffffffff0000000000000000000000000000000000000000000000000000000082169050919050565b600081905061151b826118b6565b919050565b600061ffff82169050919050565b600073ffffffffffffffffffffffffffffffffffffffff82169050919050565b6000819050919050565b60006115638261150d565b9050919050565b82818337600083830152505050565b60005b8381101561159757808201518184015260208101905061157c565b838111156115a6576000848401525b50505050565b600060028204905060018216806115c457607f821691505b602082108114156115d8576115d76116b6565b5b50919050565b6115e782611714565b810181811067ffffffffffffffff82111715611606576116056116e5565b5b80604052505050565b600061161a8261154e565b91507fffffffffffffffffffffffffffffffffffffffffffffffffffffffffffffffff82141561164d5761164c611658565b5b600182019050919050565b7f4e487b7100000000000000000000000000000000000000000000000000000000600052601160045260246000fd5b7f4e487b7100000000000000000000000000000000000000000000000000000000600052602160045260246000fd5b7f4e487b7100000000000000000000000000000000000000000000000000000000600052602260045260246000fd5b7f4e487b7100000000000000000000000000000000000000000000000000000000600052604160045260246000fd5b6000601f19601f8301169050919050565b7f4552433136353a20696e76616c696420696e7465726661636520696400000000600082015250565b7f455243313136373a20637265617465206661696c656400000000000000000000600082015250565b7f496e697469616c697a61626c653a20636f6e747261637420697320616c72656160008201527f647920696e697469616c697a6564000000000000000000000000000000000000602082015250565b7f4469616d6f6e64426173653a206e6f20666163657420666f756e6420666f722060008201527f66756e6374696f6e207369676e61747572650000000000000000000000000000602082015250565b50565b7f50726f78793a20696d706c656d656e746174696f6e206d75737420626520636f60008201527f6e74726163740000000000000000000000000000000000000000000000000000602082015250565b7f496e697469616c697a61626c653a20636f6e7472616374206973206e6f74206960008201527f6e697469616c697a696e67000000000000000000000000000000000000000000602082015250565b600381106118c7576118c6611687565b5b50565b6118d3816114cf565b81146118de57600080fd5b50565b6118ea816114e1565b81146118f557600080fd5b50565b6003811061190557600080fd5b50565b61191181611520565b811461191c57600080fd5b5056fea26469706673582212200976dc294ccbcffccea92c6e4728e41bbbf1ffbeb868b48cd354cf1bbefdea3764736f6c63430008040033",
  "devdoc": {
    "kind": "dev",
    "methods": {},
    "version": 1
  },
  "userdoc": {
    "kind": "user",
    "methods": {},
    "version": 1
  },
  "storageLayout": {
    "storage": [
      {
        "astId": 10119,
        "contract": "contracts/nft/DeMineNFT.sol:DeMineNFT",
        "label": "s",
        "offset": 0,
        "slot": "0",
        "type": "t_struct(AppStorage)10983_storage"
      }
    ],
    "types": {
      "t_address": {
        "encoding": "inplace",
        "label": "address",
        "numberOfBytes": "20"
      },
      "t_contract(IERC20)209": {
        "encoding": "inplace",
        "label": "contract IERC20",
        "numberOfBytes": "20"
      },
      "t_mapping(t_uint256,t_struct(Token)10964_storage)": {
        "encoding": "mapping",
        "key": "t_uint256",
        "label": "mapping(uint256 => struct Token)",
        "numberOfBytes": "32",
        "value": "t_struct(Token)10964_storage"
      },
      "t_struct(AppStorage)10983_storage": {
        "encoding": "inplace",
        "label": "struct AppStorage",
        "members": [
          {
            "astId": 10972,
            "contract": "contracts/nft/DeMineNFT.sol:DeMineNFT",
            "label": "income",
            "offset": 0,
            "slot": "0",
            "type": "t_contract(IERC20)209"
          },
          {
            "astId": 10974,
            "contract": "contracts/nft/DeMineNFT.sol:DeMineNFT",
            "label": "mining",
            "offset": 0,
            "slot": "1",
            "type": "t_uint256"
          },
          {
            "astId": 10979,
            "contract": "contracts/nft/DeMineNFT.sol:DeMineNFT",
            "label": "tokens",
            "offset": 0,
            "slot": "2",
            "type": "t_mapping(t_uint256,t_struct(Token)10964_storage)"
          },
          {
            "astId": 10982,
            "contract": "contracts/nft/DeMineNFT.sol:DeMineNFT",
            "label": "royalty",
            "offset": 0,
            "slot": "3",
            "type": "t_struct(RoyaltyInfo)10969_storage"
          }
        ],
        "numberOfBytes": "128"
      },
      "t_struct(RoyaltyInfo)10969_storage": {
        "encoding": "inplace",
        "label": "struct RoyaltyInfo",
        "members": [
          {
            "astId": 10966,
            "contract": "contracts/nft/DeMineNFT.sol:DeMineNFT",
            "label": "recipient",
            "offset": 0,
            "slot": "0",
            "type": "t_address"
          },
          {
            "astId": 10968,
            "contract": "contracts/nft/DeMineNFT.sol:DeMineNFT",
            "label": "bps",
            "offset": 20,
            "slot": "0",
            "type": "t_uint16"
          }
        ],
        "numberOfBytes": "32"
      },
      "t_struct(Token)10964_storage": {
        "encoding": "inplace",
        "label": "struct Token",
        "members": [
          {
            "astId": 10961,
            "contract": "contracts/nft/DeMineNFT.sol:DeMineNFT",
            "label": "supply",
            "offset": 0,
            "slot": "0",
            "type": "t_uint256"
          },
          {
            "astId": 10963,
            "contract": "contracts/nft/DeMineNFT.sol:DeMineNFT",
            "label": "income",
            "offset": 0,
            "slot": "1",
            "type": "t_uint256"
          }
        ],
        "numberOfBytes": "64"
      },
      "t_uint16": {
        "encoding": "inplace",
        "label": "uint16",
        "numberOfBytes": "2"
      },
      "t_uint256": {
        "encoding": "inplace",
        "label": "uint256",
        "numberOfBytes": "32"
      }
    }
  }
}