{
  "address": "0x3d70e066459B6e77cc670f6A0d5A870725ED4D80",
  "abi": [
    {
      "anonymous": false,
      "inputs": [
        {
          "indexed": true,
          "internalType": "address",
          "name": "from",
          "type": "address"
        },
        {
          "indexed": true,
          "internalType": "address",
          "name": "cloned",
          "type": "address"
        }
      ],
      "name": "Clone",
      "type": "event"
    },
    {
      "anonymous": false,
      "inputs": [
        {
          "indexed": true,
          "internalType": "address",
          "name": "previousOwner",
          "type": "address"
        },
        {
          "indexed": true,
          "internalType": "address",
          "name": "newOwner",
          "type": "address"
        }
      ],
      "name": "OwnershipTransferred",
      "type": "event"
    },
    {
      "anonymous": false,
      "inputs": [
        {
          "indexed": false,
          "internalType": "address",
          "name": "account",
          "type": "address"
        }
      ],
      "name": "Paused",
      "type": "event"
    },
    {
      "anonymous": false,
      "inputs": [
        {
          "indexed": false,
          "internalType": "address",
          "name": "account",
          "type": "address"
        }
      ],
      "name": "Unpaused",
      "type": "event"
    },
    {
      "stateMutability": "payable",
      "type": "fallback"
    },
    {
      "inputs": [],
      "name": "acceptOwnership",
      "outputs": [],
      "stateMutability": "nonpayable",
      "type": "function"
    },
    {
      "inputs": [
        {
          "internalType": "address",
          "name": "owner",
          "type": "address"
        },
        {
          "internalType": "address",
          "name": "diamondFacet",
          "type": "address"
        },
        {
          "internalType": "address",
          "name": "erc1155Facet",
          "type": "address"
        },
        {
          "components": [
            {
              "internalType": "address",
              "name": "target",
              "type": "address"
            },
            {
              "internalType": "enum IDiamondCuttable.FacetCutAction",
              "name": "action",
              "type": "uint8"
            },
            {
              "internalType": "bytes4[]",
              "name": "selectors",
              "type": "bytes4[]"
            }
          ],
          "internalType": "struct IDiamondCuttable.FacetCut[]",
          "name": "facetCuts",
          "type": "tuple[]"
        },
        {
          "internalType": "address",
          "name": "income",
          "type": "address"
        },
        {
          "internalType": "address",
          "name": "recipient",
          "type": "address"
        },
        {
          "internalType": "uint16",
          "name": "bps",
          "type": "uint16"
        },
        {
          "internalType": "string",
          "name": "uri",
          "type": "string"
        }
      ],
      "name": "create",
      "outputs": [],
      "stateMutability": "nonpayable",
      "type": "function"
    },
    {
      "inputs": [
        {
          "internalType": "address",
          "name": "owner",
          "type": "address"
        },
        {
          "internalType": "address",
          "name": "diamondFacet",
          "type": "address"
        },
        {
          "internalType": "address",
          "name": "erc1155Facet",
          "type": "address"
        },
        {
          "components": [
            {
              "internalType": "address",
              "name": "target",
              "type": "address"
            },
            {
              "internalType": "enum IDiamondCuttable.FacetCutAction",
              "name": "action",
              "type": "uint8"
            },
            {
              "internalType": "bytes4[]",
              "name": "selectors",
              "type": "bytes4[]"
            }
          ],
          "internalType": "struct IDiamondCuttable.FacetCut[]",
          "name": "facetCuts",
          "type": "tuple[]"
        },
        {
          "internalType": "address",
          "name": "income",
          "type": "address"
        },
        {
          "internalType": "address",
          "name": "recipient",
          "type": "address"
        },
        {
          "internalType": "uint16",
          "name": "bps",
          "type": "uint16"
        },
        {
          "internalType": "string",
          "name": "uri",
          "type": "string"
        }
      ],
      "name": "initialize",
      "outputs": [],
      "stateMutability": "nonpayable",
      "type": "function"
    },
    {
      "inputs": [],
      "name": "nomineeOwner",
      "outputs": [
        {
          "internalType": "address",
          "name": "",
          "type": "address"
        }
      ],
      "stateMutability": "view",
      "type": "function"
    },
    {
      "inputs": [],
      "name": "owner",
      "outputs": [
        {
          "internalType": "address",
          "name": "",
          "type": "address"
        }
      ],
      "stateMutability": "view",
      "type": "function"
    },
    {
      "inputs": [],
      "name": "pause",
      "outputs": [],
      "stateMutability": "nonpayable",
      "type": "function"
    },
    {
      "inputs": [],
      "name": "paused",
      "outputs": [
        {
          "internalType": "bool",
          "name": "",
          "type": "bool"
        }
      ],
      "stateMutability": "view",
      "type": "function"
    },
    {
      "inputs": [
        {
          "internalType": "bytes4",
          "name": "interfaceId",
          "type": "bytes4"
        }
      ],
      "name": "supportsInterface",
      "outputs": [
        {
          "internalType": "bool",
          "name": "",
          "type": "bool"
        }
      ],
      "stateMutability": "view",
      "type": "function"
    },
    {
      "inputs": [
        {
          "internalType": "address",
          "name": "account",
          "type": "address"
        }
      ],
      "name": "transferOwnership",
      "outputs": [],
      "stateMutability": "nonpayable",
      "type": "function"
    },
    {
      "inputs": [],
      "name": "unpause",
      "outputs": [],
      "stateMutability": "nonpayable",
      "type": "function"
    },
    {
      "stateMutability": "payable",
      "type": "receive"
    }
  ],
  "transactionHash": "0x772b1e5e5bdc6327af2618666b2896c2e619d90c330485851aa12a9b8e19fb67",
  "args": [],
  "numDeployments": 2,
  "solcInputHash": "efcf127fadccc2305b02968480739e5f",
  "bytecode": "0x608060405234801561001057600080fd5b5061235f806100206000396000f3fe6080604052600436106100955760003560e01c806379ba50971161005957806379ba5097146101fd5780638456cb59146102145780638ab5150a1461022b5780638da5cb5b14610256578063f2fde38b146102815761009c565b806301ffc9a71461012c57806305525fe8146101695780633f4ba83a146101925780635c975abb146101a9578063750a61e1146101d45761009c565b3661009c57005b60006100a66102aa565b90506100c78173ffffffffffffffffffffffffffffffffffffffff16610429565b610106576040517f08c379a00000000000000000000000000000000000000000000000000000000081526004016100fd90611d28565b60405180910390fd5b3660008037600080366000845af43d6000803e8060008114610127573d6000f35b3d6000fd5b34801561013857600080fd5b50610153600480360381019061014e91906117da565b61043c565b6040516101609190611c4b565b60405180910390f35b34801561017557600080fd5b50610190600480360381019061018b91906116f4565b610656565b005b34801561019e57600080fd5b506101a7610872565b005b3480156101b557600080fd5b506101be610968565b6040516101cb9190611c4b565b60405180910390f35b3480156101e057600080fd5b506101fb60048036038101906101f691906116f4565b610988565b005b34801561020957600080fd5b50610212610a76565b005b34801561022057600080fd5b50610229610bca565b005b34801561023757600080fd5b50610240610cc0565b60405161024d9190611b5d565b60405180910390f35b34801561026257600080fd5b5061026b610cf3565b6040516102789190611b5d565b60405180910390f35b34801561028d57600080fd5b506102a860048036038101906102a391906116cb565b610d26565b005b60008060007f177481ac65e4292921c69f62d1cc7f57541261e5d61c8175cf4e36a01c9bfc939050809150600082600001600080357fffffffff00000000000000000000000000000000000000000000000000000000167bffffffffffffffffffffffffffffffffffffffffffffffffffffffff19167bffffffffffffffffffffffffffffffffffffffffffffffffffffffff191681526020019081526020016000205460601c9050600073ffffffffffffffffffffffffffffffffffffffff168173ffffffffffffffffffffffffffffffffffffffff161415610420578260030160009054906101000a900473ffffffffffffffffffffffffffffffffffffffff169050600073ffffffffffffffffffffffffffffffffffffffff168173ffffffffffffffffffffffffffffffffffffffff16141561041f576040517f08c379a000000000000000000000000000000000000000000000000000000000815260040161041690611cc8565b60405180910390fd5b5b80935050505090565b600080823b905060008111915050919050565b600061044782610ddc565b806104af57507fd9b67a26000000000000000000000000000000000000000000000000000000007bffffffffffffffffffffffffffffffffffffffffffffffffffffffff1916827bffffffffffffffffffffffffffffffffffffffffffffffffffffffff1916145b8061051757507ff52c97cd000000000000000000000000000000000000000000000000000000007bffffffffffffffffffffffffffffffffffffffffffffffffffffffff1916827bffffffffffffffffffffffffffffffffffffffffffffffffffffffff1916145b8061057f57507f0e89341c000000000000000000000000000000000000000000000000000000007bffffffffffffffffffffffffffffffffffffffffffffffffffffffff1916827bffffffffffffffffffffffffffffffffffffffffffffffffffffffff1916145b806105e757507f2a55205a000000000000000000000000000000000000000000000000000000007bffffffffffffffffffffffffffffffffffffffffffffffffffffffff1916827bffffffffffffffffffffffffffffffffffffffffffffffffffffffff1916145b8061064f57507f8ecdeda8000000000000000000000000000000000000000000000000000000007bffffffffffffffffffffffffffffffffffffffffffffffffffffffff1916827bffffffffffffffffffffffffffffffffffffffffffffffffffffffff1916145b9050919050565b6000610660610fe6565b90508060000160019054906101000a900460ff16610690578060000160009054906101000a900460ff1615610699565b610698611013565b5b6106d8576040517f08c379a00000000000000000000000000000000000000000000000000000000081526004016106cf90611ca8565b60405180910390fd5b60008160000160019054906101000a900460ff1615905080156107305760018260000160016101000a81548160ff02191690831515021790555060018260000160006101000a81548160ff0219169083151502179055505b61073d8a8a8a8a8f611024565b8261074661130b565b600001908051906020019061075c929190611522565b5060405180604001604052808673ffffffffffffffffffffffffffffffffffffffff1681526020018561ffff16815250600060030160008201518160000160006101000a81548173ffffffffffffffffffffffffffffffffffffffff021916908373ffffffffffffffffffffffffffffffffffffffff16021790555060208201518160000160146101000a81548161ffff021916908361ffff160217905550905050856000800160006101000a81548173ffffffffffffffffffffffffffffffffffffffff021916908373ffffffffffffffffffffffffffffffffffffffff16021790555080156108655760008260000160016101000a81548160ff0219169083151502179055505b5050505050505050505050565b61087a611338565b60000160009054906101000a900473ffffffffffffffffffffffffffffffffffffffff1673ffffffffffffffffffffffffffffffffffffffff163373ffffffffffffffffffffffffffffffffffffffff161461090b576040517f08c379a000000000000000000000000000000000000000000000000000000000815260040161090290611d08565b60405180910390fd5b6000610915611365565b60000160006101000a81548160ff0219169083151502179055507f5db9ee0a495bf2e6ff9c91a7834c1ba4fdd244a5e8aa4e537bd38aeae4b073aa3360405161095e9190611b5d565b60405180910390a1565b6000610972611365565b60000160009054906101000a900460ff16905090565b600061099330611392565b90508073ffffffffffffffffffffffffffffffffffffffff166305525fe88b8b8b8b8b8b8b8b8b6040518a63ffffffff1660e01b81526004016109de99989796959493929190611b78565b600060405180830381600087803b1580156109f857600080fd5b505af1158015610a0c573d6000803e3d6000fd5b505050508073ffffffffffffffffffffffffffffffffffffffff163073ffffffffffffffffffffffffffffffffffffffff167fb557324045551eafb0789d69d5679a7017a31840124b2220df4b81dea45ec08360405160405180910390a350505050505050505050565b610a7e611467565b60000160009054906101000a900473ffffffffffffffffffffffffffffffffffffffff1673ffffffffffffffffffffffffffffffffffffffff163373ffffffffffffffffffffffffffffffffffffffff1614610b0f576040517f08c379a0000000000000000000000000000000000000000000000000000000008152600401610b0690611ce8565b60405180910390fd5b6000610b19611338565b90503373ffffffffffffffffffffffffffffffffffffffff168160000160009054906101000a900473ffffffffffffffffffffffffffffffffffffffff1673ffffffffffffffffffffffffffffffffffffffff167f8be0079c531659141344cd1fd0a4f28419497f9722a3daafe3b4186f6b6457e060405160405180910390a3610bac338261149490919063ffffffff16565b610bc76000610bb9611467565b6114db90919063ffffffff16565b50565b610bd2611338565b60000160009054906101000a900473ffffffffffffffffffffffffffffffffffffffff1673ffffffffffffffffffffffffffffffffffffffff163373ffffffffffffffffffffffffffffffffffffffff1614610c63576040517f08c379a0000000000000000000000000000000000000000000000000000000008152600401610c5a90611d08565b60405180910390fd5b6001610c6d611365565b60000160006101000a81548160ff0219169083151502179055507f62e78cea01bee320cd4e420270b5ea74000d11b0c9f74754ebdbfc544b05a25833604051610cb69190611b5d565b60405180910390a1565b6000610cca611467565b60000160009054906101000a900473ffffffffffffffffffffffffffffffffffffffff16905090565b6000610cfd611338565b60000160009054906101000a900473ffffffffffffffffffffffffffffffffffffffff16905090565b610d2e611338565b60000160009054906101000a900473ffffffffffffffffffffffffffffffffffffffff1673ffffffffffffffffffffffffffffffffffffffff163373ffffffffffffffffffffffffffffffffffffffff1614610dbf576040517f08c379a0000000000000000000000000000000000000000000000000000000008152600401610db690611d08565b60405180910390fd5b610dd981610dcb611467565b6114db90919063ffffffff16565b50565b60007fe78a39d8000000000000000000000000000000000000000000000000000000007bffffffffffffffffffffffffffffffffffffffffffffffffffffffff1916827bffffffffffffffffffffffffffffffffffffffffffffffffffffffff19161480610ea757507f7f5828d0000000000000000000000000000000000000000000000000000000007bffffffffffffffffffffffffffffffffffffffffffffffffffffffff1916827bffffffffffffffffffffffffffffffffffffffffffffffffffffffff1916145b80610f0f57507f01ffc9a7000000000000000000000000000000000000000000000000000000007bffffffffffffffffffffffffffffffffffffffffffffffffffffffff1916827bffffffffffffffffffffffffffffffffffffffffffffffffffffffff1916145b80610f7757507f1f931c1c000000000000000000000000000000000000000000000000000000007bffffffffffffffffffffffffffffffffffffffffffffffffffffffff1916827bffffffffffffffffffffffffffffffffffffffffffffffffffffffff1916145b80610fdf57507f48e2b093000000000000000000000000000000000000000000000000000000007bffffffffffffffffffffffffffffffffffffffffffffffffffffffff1916827bffffffffffffffffffffffffffffffffffffffffffffffffffffffff1916145b9050919050565b6000807f2ae1e818fc317b4c150084d41bf7468a28b0861c8b85a3e58e4bb4d5dbbc6aa190508091505090565b600061101e30610429565b15905090565b61102c610fe6565b60000160019054906101000a900460ff1661107c576040517f08c379a000000000000000000000000000000000000000000000000000000000815260040161107390611d48565b60405180910390fd5b61109633611088611338565b61149490919063ffffffff16565b6000808673ffffffffffffffffffffffffffffffffffffffff16631f931c1c60e01b868660006040516024016110ce93929190611c06565b604051602081830303815290604052907bffffffffffffffffffffffffffffffffffffffffffffffffffffffff19166020820180517bffffffffffffffffffffffffffffffffffffffffffffffffffffffff83818316178352505050506040516111389190611b46565b600060405180830381855af49150503d8060008114611173576040519150601f19603f3d011682016040523d82523d6000602084013e611178565b606091505b50915091508181906111c0576040517f08c379a00000000000000000000000000000000000000000000000000000000081526004016111b79190611c66565b60405180910390fd5b508673ffffffffffffffffffffffffffffffffffffffff16639142376560e01b876040516024016111f19190611b5d565b604051602081830303815290604052907bffffffffffffffffffffffffffffffffffffffffffffffffffffffff19166020820180517bffffffffffffffffffffffffffffffffffffffffffffffffffffffff838183161783525050505060405161125b9190611b46565b600060405180830381855af49150503d8060008114611296576040519150601f19603f3d011682016040523d82523d6000602084013e61129b565b606091505b5080925081935050508181906112e7576040517f08c379a00000000000000000000000000000000000000000000000000000000081526004016112de9190611c66565b60405180910390fd5b50611302836112f4611338565b61149490919063ffffffff16565b50505050505050565b6000807f4281b61aefbe70b3d3f684b428efca5f33077bc240e76f2808f9177c307617f490508091505090565b6000807f8a22373512790c48b83a1fe2efdd2888d4a917bcdc24d0adf63e60f67168046090508091505090565b6000807f68721c0bbf2c02a4d65000340d1370666be06a630022208d4baa9bd7a4b6fea890508091505090565b60006040517f3d602d80600a3d3981f3363d3d373d3d3d363d7300000000000000000000000081528260601b60148201527f5af43d82803e903d91602b57fd5bf3000000000000000000000000000000000060288201526037816000f0915050600073ffffffffffffffffffffffffffffffffffffffff168173ffffffffffffffffffffffffffffffffffffffff161415611462576040517f08c379a000000000000000000000000000000000000000000000000000000000815260040161145990611c88565b60405180910390fd5b919050565b6000807f24aa1f7b31fd188a8d3ecfb06bc55c806040e59b03bd4396283442fce661789090508091505090565b808260000160006101000a81548173ffffffffffffffffffffffffffffffffffffffff021916908373ffffffffffffffffffffffffffffffffffffffff1602179055505050565b808260000160006101000a81548173ffffffffffffffffffffffffffffffffffffffff021916908373ffffffffffffffffffffffffffffffffffffffff1602179055505050565b82805461152e90611fdf565b90600052602060002090601f0160209004810192826115505760008555611597565b82601f1061156957805160ff1916838001178555611597565b82800160010185558215611597579182015b8281111561159657825182559160200191906001019061157b565b5b5090506115a491906115a8565b5090565b5b808211156115c15760008160009055506001016115a9565b5090565b60006115d86115d384611d8d565b611d68565b9050828152602081018484840111156115f057600080fd5b6115fb848285611f9d565b509392505050565b600081359050611612816122d4565b92915050565b60008083601f84011261162a57600080fd5b8235905067ffffffffffffffff81111561164357600080fd5b60208301915083602082028301111561165b57600080fd5b9250929050565b600081359050611671816122eb565b92915050565b60008135905061168681612302565b92915050565b600082601f83011261169d57600080fd5b81356116ad8482602086016115c5565b91505092915050565b6000813590506116c581612312565b92915050565b6000602082840312156116dd57600080fd5b60006116eb84828501611603565b91505092915050565b60008060008060008060008060006101008a8c03121561171357600080fd5b60006117218c828d01611603565b99505060206117328c828d01611603565b98505060406117438c828d01611603565b97505060608a013567ffffffffffffffff81111561176057600080fd5b61176c8c828d01611618565b9650965050608061177f8c828d01611603565b94505060a06117908c828d01611603565b93505060c06117a18c828d016116b6565b92505060e08a013567ffffffffffffffff8111156117be57600080fd5b6117ca8c828d0161168c565b9150509295985092959850929598565b6000602082840312156117ec57600080fd5b60006117fa84828501611662565b91505092915050565b600061180f838361192d565b60208301905092915050565b60006118278383611acd565b905092915050565b61183881611f00565b82525050565b61184781611f00565b82525050565b60006118598385611e02565b935061186482611dbe565b8060005b8581101561189d5761187a8284611eae565b6118848882611803565b975061188f83611de8565b925050600181019050611868565b5085925050509392505050565b60006118b68385611e13565b9350836020840285016118c884611dc8565b8060005b8781101561190c5784840389526118e38284611edc565b6118ed858261181b565b94506118f883611df5565b925060208a019950506001810190506118cc565b50829750879450505050509392505050565b61192781611f12565b82525050565b61193681611f1e565b82525050565b600061194782611dd2565b6119518185611e24565b9350611961818560208601611fac565b80840191505092915050565b61197681611f8b565b82525050565b600061198782611ddd565b6119918185611e2f565b93506119a1818560208601611fac565b6119aa816120cf565b840191505092915050565b60006119c2601683611e2f565b91506119cd826120e0565b602082019050919050565b60006119e5602e83611e2f565b91506119f082612109565b604082019050919050565b6000611a08603283611e2f565b9150611a1382612158565b604082019050919050565b6000611a2b602983611e2f565b9150611a36826121a7565b604082019050919050565b6000611a4e601d83611e2f565b9150611a59826121f6565b602082019050919050565b6000611a71600083611e2f565b9150611a7c8261221f565b600082019050919050565b6000611a94602683611e2f565b9150611a9f82612222565b604082019050919050565b6000611ab7602b83611e2f565b9150611ac282612271565b604082019050919050565b600060608301611ae06000840184611e40565b611aed600086018261182f565b50611afb6020840184611ec5565b611b08602086018261196d565b50611b166040840184611e57565b8583036040870152611b2983828461184d565b925050508091505092915050565b611b4081611f5d565b82525050565b6000611b52828461193c565b915081905092915050565b6000602082019050611b72600083018461183e565b92915050565b600061010082019050611b8e600083018c61183e565b611b9b602083018b61183e565b611ba8604083018a61183e565b8181036060830152611bbb81888a6118aa565b9050611bca608083018761183e565b611bd760a083018661183e565b611be460c0830185611b37565b81810360e0830152611bf6818461197c565b90509a9950505050505050505050565b60006060820190508181036000830152611c218185876118aa565b9050611c30602083018461183e565b8181036040830152611c4181611a64565b9050949350505050565b6000602082019050611c60600083018461191e565b92915050565b60006020820190508181036000830152611c80818461197c565b905092915050565b60006020820190508181036000830152611ca1816119b5565b9050919050565b60006020820190508181036000830152611cc1816119d8565b9050919050565b60006020820190508181036000830152611ce1816119fb565b9050919050565b60006020820190508181036000830152611d0181611a1e565b9050919050565b60006020820190508181036000830152611d2181611a41565b9050919050565b60006020820190508181036000830152611d4181611a87565b9050919050565b60006020820190508181036000830152611d6181611aaa565b9050919050565b6000611d72611d83565b9050611d7e8282612011565b919050565b6000604051905090565b600067ffffffffffffffff821115611da857611da76120a0565b5b611db1826120cf565b9050602081019050919050565b6000819050919050565b6000819050919050565b600081519050919050565b600081519050919050565b6000602082019050919050565b6000602082019050919050565b600082825260208201905092915050565b600082825260208201905092915050565b600081905092915050565b600082825260208201905092915050565b6000611e4f6020840184611603565b905092915050565b60008083356001602003843603038112611e7057600080fd5b83810192508235915060208301925067ffffffffffffffff821115611e9457600080fd5b602082023603841315611ea657600080fd5b509250929050565b6000611ebd6020840184611662565b905092915050565b6000611ed46020840184611677565b905092915050565b600082356001606003833603038112611ef457600080fd5b82810191505092915050565b6000611f0b82611f6b565b9050919050565b60008115159050919050565b60007fffffffff0000000000000000000000000000000000000000000000000000000082169050919050565b6000819050611f58826122c0565b919050565b600061ffff82169050919050565b600073ffffffffffffffffffffffffffffffffffffffff82169050919050565b6000611f9682611f4a565b9050919050565b82818337600083830152505050565b60005b83811015611fca578082015181840152602081019050611faf565b83811115611fd9576000848401525b50505050565b60006002820490506001821680611ff757607f821691505b6020821081141561200b5761200a612071565b5b50919050565b61201a826120cf565b810181811067ffffffffffffffff82111715612039576120386120a0565b5b80604052505050565b7f4e487b7100000000000000000000000000000000000000000000000000000000600052602160045260246000fd5b7f4e487b7100000000000000000000000000000000000000000000000000000000600052602260045260246000fd5b7f4e487b7100000000000000000000000000000000000000000000000000000000600052604160045260246000fd5b6000601f19601f8301169050919050565b7f455243313136373a20637265617465206661696c656400000000000000000000600082015250565b7f496e697469616c697a61626c653a20636f6e747261637420697320616c72656160008201527f647920696e697469616c697a6564000000000000000000000000000000000000602082015250565b7f4469616d6f6e64426173653a206e6f20666163657420666f756e6420666f722060008201527f66756e6374696f6e207369676e61747572650000000000000000000000000000602082015250565b7f536166654f776e61626c653a2073656e646572206d757374206265206e6f6d6960008201527f6e6565206f776e65720000000000000000000000000000000000000000000000602082015250565b7f4f776e61626c653a2073656e646572206d757374206265206f776e6572000000600082015250565b50565b7f50726f78793a20696d706c656d656e746174696f6e206d75737420626520636f60008201527f6e74726163740000000000000000000000000000000000000000000000000000602082015250565b7f496e697469616c697a61626c653a20636f6e7472616374206973206e6f74206960008201527f6e697469616c697a696e67000000000000000000000000000000000000000000602082015250565b600381106122d1576122d0612042565b5b50565b6122dd81611f00565b81146122e857600080fd5b50565b6122f481611f1e565b81146122ff57600080fd5b50565b6003811061230f57600080fd5b50565b61231b81611f5d565b811461232657600080fd5b5056fea264697066735822122069f0c53db91fa6bde7a76be1c0ad7ef79c36a311b568ae91a1313f56cbfc9d9764736f6c63430008040033",
  "devdoc": {
    "kind": "dev",
    "methods": {
      "owner()": {
        "returns": {
          "_0": "conract owner"
        }
      },
      "pause()": {
        "details": "pause the contract"
      },
      "paused()": {
        "details": "Should return if the contract is paused"
      },
      "supportsInterface(bytes4)": {
        "params": {
          "interfaceId": "interface id"
        },
        "returns": {
          "_0": "bool whether interface is supported"
        }
      },
      "transferOwnership(address)": {
        "details": "ownership transfer must be accepted by beneficiary before transfer is complete",
        "params": {
          "account": "address of new owner"
        }
      },
      "unpause()": {
        "details": "unpause the contract"
      }
    },
    "version": 1
  },
  "userdoc": {
    "kind": "user",
    "methods": {
      "acceptOwnership()": {
        "notice": "accept transfer of contract ownership"
      },
      "owner()": {
        "notice": "get the ERC173 contract owner"
      },
      "supportsInterface(bytes4)": {
        "notice": "query whether contract has registered support for given interface"
      },
      "transferOwnership(address)": {
        "notice": "transfer contract ownership to new account"
      }
    },
    "version": 1
  },
  "storageLayout": {
    "storage": [
      {
        "astId": 6963,
        "contract": "contracts/nft/DeMineNFT.sol:DeMineNFT",
        "label": "s",
        "offset": 0,
        "slot": "0",
        "type": "t_struct(AppStorage)7776_storage"
      }
    ],
    "types": {
      "t_address": {
        "encoding": "inplace",
        "label": "address",
        "numberOfBytes": "20"
      },
      "t_contract(IERC20)209": {
        "encoding": "inplace",
        "label": "contract IERC20",
        "numberOfBytes": "20"
      },
      "t_mapping(t_uint256,t_struct(Token)7757_storage)": {
        "encoding": "mapping",
        "key": "t_uint256",
        "label": "mapping(uint256 => struct Token)",
        "numberOfBytes": "32",
        "value": "t_struct(Token)7757_storage"
      },
      "t_struct(AppStorage)7776_storage": {
        "encoding": "inplace",
        "label": "struct AppStorage",
        "members": [
          {
            "astId": 7765,
            "contract": "contracts/nft/DeMineNFT.sol:DeMineNFT",
            "label": "income",
            "offset": 0,
            "slot": "0",
            "type": "t_contract(IERC20)209"
          },
          {
            "astId": 7767,
            "contract": "contracts/nft/DeMineNFT.sol:DeMineNFT",
            "label": "mining",
            "offset": 0,
            "slot": "1",
            "type": "t_uint256"
          },
          {
            "astId": 7772,
            "contract": "contracts/nft/DeMineNFT.sol:DeMineNFT",
            "label": "tokens",
            "offset": 0,
            "slot": "2",
            "type": "t_mapping(t_uint256,t_struct(Token)7757_storage)"
          },
          {
            "astId": 7775,
            "contract": "contracts/nft/DeMineNFT.sol:DeMineNFT",
            "label": "royalty",
            "offset": 0,
            "slot": "3",
            "type": "t_struct(RoyaltyInfo)7762_storage"
          }
        ],
        "numberOfBytes": "128"
      },
      "t_struct(RoyaltyInfo)7762_storage": {
        "encoding": "inplace",
        "label": "struct RoyaltyInfo",
        "members": [
          {
            "astId": 7759,
            "contract": "contracts/nft/DeMineNFT.sol:DeMineNFT",
            "label": "recipient",
            "offset": 0,
            "slot": "0",
            "type": "t_address"
          },
          {
            "astId": 7761,
            "contract": "contracts/nft/DeMineNFT.sol:DeMineNFT",
            "label": "bps",
            "offset": 20,
            "slot": "0",
            "type": "t_uint16"
          }
        ],
        "numberOfBytes": "32"
      },
      "t_struct(Token)7757_storage": {
        "encoding": "inplace",
        "label": "struct Token",
        "members": [
          {
            "astId": 7754,
            "contract": "contracts/nft/DeMineNFT.sol:DeMineNFT",
            "label": "supply",
            "offset": 0,
            "slot": "0",
            "type": "t_uint256"
          },
          {
            "astId": 7756,
            "contract": "contracts/nft/DeMineNFT.sol:DeMineNFT",
            "label": "income",
            "offset": 0,
            "slot": "1",
            "type": "t_uint256"
          }
        ],
        "numberOfBytes": "64"
      },
      "t_uint16": {
        "encoding": "inplace",
        "label": "uint16",
        "numberOfBytes": "2"
      },
      "t_uint256": {
        "encoding": "inplace",
        "label": "uint256",
        "numberOfBytes": "32"
      }
    }
  }
}