{
  "address": "0xA3CbEDda9975530110f5283369B0F58e8124B9CE",
  "abi": [
    {
      "anonymous": false,
      "inputs": [
        {
          "indexed": true,
          "internalType": "address",
          "name": "previousOwner",
          "type": "address"
        },
        {
          "indexed": true,
          "internalType": "address",
          "name": "newOwner",
          "type": "address"
        }
      ],
      "name": "OwnershipTransferred",
      "type": "event"
    },
    {
      "anonymous": false,
      "inputs": [
        {
          "indexed": false,
          "internalType": "address",
          "name": "account",
          "type": "address"
        }
      ],
      "name": "Paused",
      "type": "event"
    },
    {
      "anonymous": false,
      "inputs": [
        {
          "indexed": false,
          "internalType": "address",
          "name": "account",
          "type": "address"
        }
      ],
      "name": "Unpaused",
      "type": "event"
    },
    {
      "inputs": [],
      "name": "acceptOwnership",
      "outputs": [],
      "stateMutability": "nonpayable",
      "type": "function"
    },
    {
      "inputs": [],
      "name": "nomineeOwner",
      "outputs": [
        {
          "internalType": "address",
          "name": "",
          "type": "address"
        }
      ],
      "stateMutability": "view",
      "type": "function"
    },
    {
      "inputs": [],
      "name": "owner",
      "outputs": [
        {
          "internalType": "address",
          "name": "",
          "type": "address"
        }
      ],
      "stateMutability": "view",
      "type": "function"
    },
    {
      "inputs": [],
      "name": "pause",
      "outputs": [],
      "stateMutability": "nonpayable",
      "type": "function"
    },
    {
      "inputs": [],
      "name": "paused",
      "outputs": [
        {
          "internalType": "bool",
          "name": "",
          "type": "bool"
        }
      ],
      "stateMutability": "view",
      "type": "function"
    },
    {
      "inputs": [
        {
          "internalType": "address",
          "name": "account",
          "type": "address"
        }
      ],
      "name": "transferOwnership",
      "outputs": [],
      "stateMutability": "nonpayable",
      "type": "function"
    },
    {
      "inputs": [],
      "name": "unpause",
      "outputs": [],
      "stateMutability": "nonpayable",
      "type": "function"
    }
  ],
  "transactionHash": "0x778c2da81884cfd7dc36afdbaab36df1e1bd10329d9268d45b15174111110239",
  "args": [],
  "numDeployments": 1,
  "solcInputHash": "91f67aea1dc348227e3f6da62b6e39f7",
  "bytecode": "0x608060405234801561001057600080fd5b506108d3806100206000396000f3fe608060405234801561001057600080fd5b506004361061007d5760003560e01c80638456cb591161005b5780638456cb59146100b45780638ab5150a146100be5780638da5cb5b146100dc578063f2fde38b146100fa5761007d565b80633f4ba83a146100825780635c975abb1461008c57806379ba5097146100aa575b600080fd5b61008a610116565b005b61009461020c565b6040516100a19190610764565b60405180910390f35b6100b261022c565b005b6100bc610380565b005b6100c6610476565b6040516100d39190610749565b60405180910390f35b6100e46104a9565b6040516100f19190610749565b60405180910390f35b610114600480360381019061010f91906106bc565b6104dc565b005b61011e610592565b60000160009054906101000a900473ffffffffffffffffffffffffffffffffffffffff1673ffffffffffffffffffffffffffffffffffffffff163373ffffffffffffffffffffffffffffffffffffffff16146101af576040517f08c379a00000000000000000000000000000000000000000000000000000000081526004016101a69061079f565b60405180910390fd5b60006101b96105bf565b60000160006101000a81548160ff0219169083151502179055507f5db9ee0a495bf2e6ff9c91a7834c1ba4fdd244a5e8aa4e537bd38aeae4b073aa336040516102029190610749565b60405180910390a1565b60006102166105bf565b60000160009054906101000a900460ff16905090565b6102346105ec565b60000160009054906101000a900473ffffffffffffffffffffffffffffffffffffffff1673ffffffffffffffffffffffffffffffffffffffff163373ffffffffffffffffffffffffffffffffffffffff16146102c5576040517f08c379a00000000000000000000000000000000000000000000000000000000081526004016102bc9061077f565b60405180910390fd5b60006102cf610592565b90503373ffffffffffffffffffffffffffffffffffffffff168160000160009054906101000a900473ffffffffffffffffffffffffffffffffffffffff1673ffffffffffffffffffffffffffffffffffffffff167f8be0079c531659141344cd1fd0a4f28419497f9722a3daafe3b4186f6b6457e060405160405180910390a3610362338261061990919063ffffffff16565b61037d600061036f6105ec565b61066090919063ffffffff16565b50565b610388610592565b60000160009054906101000a900473ffffffffffffffffffffffffffffffffffffffff1673ffffffffffffffffffffffffffffffffffffffff163373ffffffffffffffffffffffffffffffffffffffff1614610419576040517f08c379a00000000000000000000000000000000000000000000000000000000081526004016104109061079f565b60405180910390fd5b60016104236105bf565b60000160006101000a81548160ff0219169083151502179055507f62e78cea01bee320cd4e420270b5ea74000d11b0c9f74754ebdbfc544b05a2583360405161046c9190610749565b60405180910390a1565b60006104806105ec565b60000160009054906101000a900473ffffffffffffffffffffffffffffffffffffffff16905090565b60006104b3610592565b60000160009054906101000a900473ffffffffffffffffffffffffffffffffffffffff16905090565b6104e4610592565b60000160009054906101000a900473ffffffffffffffffffffffffffffffffffffffff1673ffffffffffffffffffffffffffffffffffffffff163373ffffffffffffffffffffffffffffffffffffffff1614610575576040517f08c379a000000000000000000000000000000000000000000000000000000000815260040161056c9061079f565b60405180910390fd5b61058f816105816105ec565b61066090919063ffffffff16565b50565b6000807f8a22373512790c48b83a1fe2efdd2888d4a917bcdc24d0adf63e60f67168046090508091505090565b6000807f68721c0bbf2c02a4d65000340d1370666be06a630022208d4baa9bd7a4b6fea890508091505090565b6000807f24aa1f7b31fd188a8d3ecfb06bc55c806040e59b03bd4396283442fce661789090508091505090565b808260000160006101000a81548173ffffffffffffffffffffffffffffffffffffffff021916908373ffffffffffffffffffffffffffffffffffffffff1602179055505050565b808260000160006101000a81548173ffffffffffffffffffffffffffffffffffffffff021916908373ffffffffffffffffffffffffffffffffffffffff1602179055505050565b6000813590506106b681610886565b92915050565b6000602082840312156106ce57600080fd5b60006106dc848285016106a7565b91505092915050565b6106ee816107d0565b82525050565b6106fd816107e2565b82525050565b60006107106029836107bf565b915061071b8261080e565b604082019050919050565b6000610733601d836107bf565b915061073e8261085d565b602082019050919050565b600060208201905061075e60008301846106e5565b92915050565b600060208201905061077960008301846106f4565b92915050565b6000602082019050818103600083015261079881610703565b9050919050565b600060208201905081810360008301526107b881610726565b9050919050565b600082825260208201905092915050565b60006107db826107ee565b9050919050565b60008115159050919050565b600073ffffffffffffffffffffffffffffffffffffffff82169050919050565b7f536166654f776e61626c653a2073656e646572206d757374206265206e6f6d6960008201527f6e6565206f776e65720000000000000000000000000000000000000000000000602082015250565b7f4f776e61626c653a2073656e646572206d757374206265206f776e6572000000600082015250565b61088f816107d0565b811461089a57600080fd5b5056fea2646970667358221220f97f15015ef753cc64043f3c8a022a7981a84014c2c183e865583b2116e77bdd64736f6c63430008040033",
  "devdoc": {
    "kind": "dev",
    "methods": {
      "owner()": {
        "returns": {
          "_0": "conract owner"
        }
      },
      "pause()": {
        "details": "pause the contract"
      },
      "paused()": {
        "details": "Should return if the contract is paused"
      },
      "transferOwnership(address)": {
        "details": "ownership transfer must be accepted by beneficiary before transfer is complete",
        "params": {
          "account": "address of new owner"
        }
      },
      "unpause()": {
        "details": "unpause the contract"
      }
    },
    "version": 1
  },
  "userdoc": {
    "kind": "user",
    "methods": {
      "acceptOwnership()": {
        "notice": "accept transfer of contract ownership"
      },
      "owner()": {
        "notice": "get the ERC173 contract owner"
      },
      "transferOwnership(address)": {
        "notice": "transfer contract ownership to new account"
      }
    },
    "version": 1
  },
  "storageLayout": {
    "storage": [],
    "types": null
  }
}