{
  "address": "0x2d27b3Ce30d492bE671E8791d312EfFd60934d4a",
  "abi": [
    {
      "anonymous": false,
      "inputs": [
        {
          "indexed": true,
          "internalType": "address",
          "name": "owner",
          "type": "address"
        },
        {
          "indexed": true,
          "internalType": "address",
          "name": "spender",
          "type": "address"
        },
        {
          "indexed": false,
          "internalType": "uint256",
          "name": "value",
          "type": "uint256"
        }
      ],
      "name": "Approval",
      "type": "event"
    },
    {
      "anonymous": false,
      "inputs": [
        {
          "indexed": true,
          "internalType": "address",
          "name": "from",
          "type": "address"
        },
        {
          "indexed": true,
          "internalType": "address",
          "name": "cloned",
          "type": "address"
        }
      ],
      "name": "Clone",
      "type": "event"
    },
    {
      "anonymous": false,
      "inputs": [
        {
          "indexed": true,
          "internalType": "address",
          "name": "previousOwner",
          "type": "address"
        },
        {
          "indexed": true,
          "internalType": "address",
          "name": "newOwner",
          "type": "address"
        }
      ],
      "name": "OwnershipTransferred",
      "type": "event"
    },
    {
      "anonymous": false,
      "inputs": [
        {
          "indexed": false,
          "internalType": "address",
          "name": "account",
          "type": "address"
        }
      ],
      "name": "Paused",
      "type": "event"
    },
    {
      "anonymous": false,
      "inputs": [
        {
          "indexed": true,
          "internalType": "address",
          "name": "from",
          "type": "address"
        },
        {
          "indexed": true,
          "internalType": "address",
          "name": "to",
          "type": "address"
        },
        {
          "indexed": false,
          "internalType": "uint256",
          "name": "value",
          "type": "uint256"
        }
      ],
      "name": "Transfer",
      "type": "event"
    },
    {
      "anonymous": false,
      "inputs": [
        {
          "indexed": false,
          "internalType": "address",
          "name": "account",
          "type": "address"
        }
      ],
      "name": "Unpaused",
      "type": "event"
    },
    {
      "inputs": [],
      "name": "acceptOwnership",
      "outputs": [],
      "stateMutability": "nonpayable",
      "type": "function"
    },
    {
      "inputs": [
        {
          "internalType": "address",
          "name": "holder",
          "type": "address"
        },
        {
          "internalType": "address",
          "name": "spender",
          "type": "address"
        }
      ],
      "name": "allowance",
      "outputs": [
        {
          "internalType": "uint256",
          "name": "",
          "type": "uint256"
        }
      ],
      "stateMutability": "view",
      "type": "function"
    },
    {
      "inputs": [
        {
          "internalType": "address",
          "name": "spender",
          "type": "address"
        },
        {
          "internalType": "uint256",
          "name": "amount",
          "type": "uint256"
        }
      ],
      "name": "approve",
      "outputs": [
        {
          "internalType": "bool",
          "name": "",
          "type": "bool"
        }
      ],
      "stateMutability": "nonpayable",
      "type": "function"
    },
    {
      "inputs": [
        {
          "internalType": "address",
          "name": "account",
          "type": "address"
        }
      ],
      "name": "balanceOf",
      "outputs": [
        {
          "internalType": "uint256",
          "name": "",
          "type": "uint256"
        }
      ],
      "stateMutability": "view",
      "type": "function"
    },
    {
      "inputs": [
        {
          "internalType": "address",
          "name": "from",
          "type": "address"
        },
        {
          "internalType": "uint256",
          "name": "amount",
          "type": "uint256"
        }
      ],
      "name": "burn",
      "outputs": [],
      "stateMutability": "nonpayable",
      "type": "function"
    },
    {
      "inputs": [
        {
          "internalType": "string",
          "name": "name",
          "type": "string"
        },
        {
          "internalType": "string",
          "name": "symbol",
          "type": "string"
        },
        {
          "internalType": "uint8",
          "name": "decimals",
          "type": "uint8"
        },
        {
          "internalType": "address",
          "name": "owner",
          "type": "address"
        }
      ],
      "name": "create",
      "outputs": [],
      "stateMutability": "nonpayable",
      "type": "function"
    },
    {
      "inputs": [],
      "name": "decimals",
      "outputs": [
        {
          "internalType": "uint8",
          "name": "",
          "type": "uint8"
        }
      ],
      "stateMutability": "view",
      "type": "function"
    },
    {
      "inputs": [
        {
          "internalType": "address",
          "name": "spender",
          "type": "address"
        },
        {
          "internalType": "uint256",
          "name": "amount",
          "type": "uint256"
        }
      ],
      "name": "decreaseAllowance",
      "outputs": [
        {
          "internalType": "bool",
          "name": "",
          "type": "bool"
        }
      ],
      "stateMutability": "nonpayable",
      "type": "function"
    },
    {
      "inputs": [
        {
          "internalType": "address",
          "name": "spender",
          "type": "address"
        },
        {
          "internalType": "uint256",
          "name": "amount",
          "type": "uint256"
        }
      ],
      "name": "increaseAllowance",
      "outputs": [
        {
          "internalType": "bool",
          "name": "",
          "type": "bool"
        }
      ],
      "stateMutability": "nonpayable",
      "type": "function"
    },
    {
      "inputs": [
        {
          "internalType": "string",
          "name": "name",
          "type": "string"
        },
        {
          "internalType": "string",
          "name": "symbol",
          "type": "string"
        },
        {
          "internalType": "uint8",
          "name": "decimals",
          "type": "uint8"
        },
        {
          "internalType": "address",
          "name": "owner",
          "type": "address"
        }
      ],
      "name": "initialize",
      "outputs": [],
      "stateMutability": "nonpayable",
      "type": "function"
    },
    {
      "inputs": [
        {
          "internalType": "address",
          "name": "to",
          "type": "address"
        },
        {
          "internalType": "uint256",
          "name": "amount",
          "type": "uint256"
        }
      ],
      "name": "mint",
      "outputs": [],
      "stateMutability": "nonpayable",
      "type": "function"
    },
    {
      "inputs": [],
      "name": "name",
      "outputs": [
        {
          "internalType": "string",
          "name": "",
          "type": "string"
        }
      ],
      "stateMutability": "view",
      "type": "function"
    },
    {
      "inputs": [],
      "name": "nomineeOwner",
      "outputs": [
        {
          "internalType": "address",
          "name": "",
          "type": "address"
        }
      ],
      "stateMutability": "view",
      "type": "function"
    },
    {
      "inputs": [],
      "name": "owner",
      "outputs": [
        {
          "internalType": "address",
          "name": "",
          "type": "address"
        }
      ],
      "stateMutability": "view",
      "type": "function"
    },
    {
      "inputs": [],
      "name": "pause",
      "outputs": [],
      "stateMutability": "nonpayable",
      "type": "function"
    },
    {
      "inputs": [],
      "name": "paused",
      "outputs": [
        {
          "internalType": "bool",
          "name": "",
          "type": "bool"
        }
      ],
      "stateMutability": "view",
      "type": "function"
    },
    {
      "inputs": [],
      "name": "symbol",
      "outputs": [
        {
          "internalType": "string",
          "name": "",
          "type": "string"
        }
      ],
      "stateMutability": "view",
      "type": "function"
    },
    {
      "inputs": [],
      "name": "totalSupply",
      "outputs": [
        {
          "internalType": "uint256",
          "name": "",
          "type": "uint256"
        }
      ],
      "stateMutability": "view",
      "type": "function"
    },
    {
      "inputs": [
        {
          "internalType": "address",
          "name": "recipient",
          "type": "address"
        },
        {
          "internalType": "uint256",
          "name": "amount",
          "type": "uint256"
        }
      ],
      "name": "transfer",
      "outputs": [
        {
          "internalType": "bool",
          "name": "",
          "type": "bool"
        }
      ],
      "stateMutability": "nonpayable",
      "type": "function"
    },
    {
      "inputs": [
        {
          "internalType": "address",
          "name": "holder",
          "type": "address"
        },
        {
          "internalType": "address",
          "name": "recipient",
          "type": "address"
        },
        {
          "internalType": "uint256",
          "name": "amount",
          "type": "uint256"
        }
      ],
      "name": "transferFrom",
      "outputs": [
        {
          "internalType": "bool",
          "name": "",
          "type": "bool"
        }
      ],
      "stateMutability": "nonpayable",
      "type": "function"
    },
    {
      "inputs": [
        {
          "internalType": "address",
          "name": "account",
          "type": "address"
        }
      ],
      "name": "transferOwnership",
      "outputs": [],
      "stateMutability": "nonpayable",
      "type": "function"
    },
    {
      "inputs": [],
      "name": "unpause",
      "outputs": [],
      "stateMutability": "nonpayable",
      "type": "function"
    }
  ],
  "transactionHash": "0xf8b5c1f5ae3dbfc593029a2d46bd24764c6192042ffc9650727b01e9fe0cf9fb",
  "args": [],
  "numDeployments": 1,
  "solcInputHash": "b7bd290a884a46f3ffbbdd789f9c9e96",
  "bytecode": "0x608060405234801561001057600080fd5b50612bae806100206000396000f3fe608060405234801561001057600080fd5b50600436106101425760003560e01c806379ba5097116100b85780639dc29fac1161007c5780639dc29fac1461032f578063a457c2d71461034b578063a9059cbb1461037b578063dd62ed3e146103ab578063de7ea79d146103db578063f2fde38b146103f757610142565b806379ba5097146102c15780638456cb59146102cb5780638ab5150a146102d55780638da5cb5b146102f357806395d89b411461031157610142565b8063395093511161010a57806339509351146102015780633f4ba83a1461023157806340c10f191461023b5780635c975abb1461025757806361c6bc821461027557806370a082311461029157610142565b806306fdde0314610147578063095ea7b31461016557806318160ddd1461019557806323b872dd146101b3578063313ce567146101e3575b600080fd5b61014f610413565b60405161015c91906121e5565b60405180910390f35b61017f600480360381019061017a9190611e5e565b6104ae565b60405161018c91906121ca565b60405180910390f35b61019d6104c5565b6040516101aa919061243a565b60405180910390f35b6101cd60048036038101906101c89190611e0f565b6104d4565b6040516101da91906121ca565b60405180910390f35b6101eb6105c6565b6040516101f89190612455565b60405180910390f35b61021b60048036038101906102169190611e5e565b6105e6565b60405161022891906121ca565b60405180910390f35b610239610715565b005b61025560048036038101906102509190611e5e565b61080b565b005b61025f6108b2565b60405161026c91906121ca565b60405180910390f35b61028f600480360381019061028a9190611e9a565b6108d2565b005b6102ab60048036038101906102a69190611daa565b6109b1565b6040516102b8919061243a565b60405180910390f35b6102c96109c3565b005b6102d3610b17565b005b6102dd610c0d565b6040516102ea91906121af565b60405180910390f35b6102fb610c40565b60405161030891906121af565b60405180910390f35b610319610c73565b60405161032691906121e5565b60405180910390f35b61034960048036038101906103449190611e5e565b610d0e565b005b61036560048036038101906103609190611e5e565b610db5565b60405161037291906121ca565b60405180910390f35b61039560048036038101906103909190611e5e565b610ee2565b6040516103a291906121ca565b60405180910390f35b6103c560048036038101906103c09190611dd3565b610ef9565b6040516103d2919061243a565b60405180910390f35b6103f560048036038101906103f09190611e9a565b610f89565b005b610411600480360381019061040c9190611daa565b611105565b005b606061041d6111bb565b600001805461042b90612603565b80601f016020809104026020016040519081016040528092919081815260200182805461045790612603565b80156104a45780601f10610479576101008083540402835291602001916104a4565b820191906000526020600020905b81548152906001019060200180831161048757829003601f168201915b5050505050905090565b60006104bb3384846111e8565b6001905092915050565b60006104cf6113bc565b905090565b6000806104df6113cf565b60010160008673ffffffffffffffffffffffffffffffffffffffff1673ffffffffffffffffffffffffffffffffffffffff16815260200190815260200160002060003373ffffffffffffffffffffffffffffffffffffffff1673ffffffffffffffffffffffffffffffffffffffff168152602001908152602001600020549050828110156105a2576040517f08c379a00000000000000000000000000000000000000000000000000000000081526004016105999061239a565b60405180910390fd5b6105af85338584036111e8565b6105ba8585856113fc565b60019150509392505050565b60006105d06111bb565b60020160009054906101000a900460ff16905090565b6000806105f16113cf565b60010160003373ffffffffffffffffffffffffffffffffffffffff1673ffffffffffffffffffffffffffffffffffffffff168152602001908152602001600020905060008160008673ffffffffffffffffffffffffffffffffffffffff1673ffffffffffffffffffffffffffffffffffffffff1681526020019081526020016000205490508084820110156106bb576040517f08c379a00000000000000000000000000000000000000000000000000000000081526004016106b29061229a565b60405180910390fd5b61070933868684018560008a73ffffffffffffffffffffffffffffffffffffffff1673ffffffffffffffffffffffffffffffffffffffff1681526020019081526020016000208190556111e8565b60019250505092915050565b61071d611688565b60000160009054906101000a900473ffffffffffffffffffffffffffffffffffffffff1673ffffffffffffffffffffffffffffffffffffffff163373ffffffffffffffffffffffffffffffffffffffff16146107ae576040517f08c379a00000000000000000000000000000000000000000000000000000000081526004016107a59061237a565b60405180910390fd5b60006107b86116b5565b60000160006101000a81548160ff0219169083151502179055507f5db9ee0a495bf2e6ff9c91a7834c1ba4fdd244a5e8aa4e537bd38aeae4b073aa3360405161080191906121af565b60405180910390a1565b610813611688565b60000160009054906101000a900473ffffffffffffffffffffffffffffffffffffffff1673ffffffffffffffffffffffffffffffffffffffff163373ffffffffffffffffffffffffffffffffffffffff16146108a4576040517f08c379a000000000000000000000000000000000000000000000000000000000815260040161089b9061237a565b60405180910390fd5b6108ae82826116e2565b5050565b60006108bc6116b5565b60000160009054906101000a900460ff16905090565b60006108dd30611848565b90508073ffffffffffffffffffffffffffffffffffffffff1663de7ea79d868686866040518563ffffffff1660e01b815260040161091e9493929190612207565b600060405180830381600087803b15801561093857600080fd5b505af115801561094c573d6000803e3d6000fd5b505050508073ffffffffffffffffffffffffffffffffffffffff163073ffffffffffffffffffffffffffffffffffffffff167fb557324045551eafb0789d69d5679a7017a31840124b2220df4b81dea45ec08360405160405180910390a35050505050565b60006109bc8261191d565b9050919050565b6109cb61196f565b60000160009054906101000a900473ffffffffffffffffffffffffffffffffffffffff1673ffffffffffffffffffffffffffffffffffffffff163373ffffffffffffffffffffffffffffffffffffffff1614610a5c576040517f08c379a0000000000000000000000000000000000000000000000000000000008152600401610a539061235a565b60405180910390fd5b6000610a66611688565b90503373ffffffffffffffffffffffffffffffffffffffff168160000160009054906101000a900473ffffffffffffffffffffffffffffffffffffffff1673ffffffffffffffffffffffffffffffffffffffff167f8be0079c531659141344cd1fd0a4f28419497f9722a3daafe3b4186f6b6457e060405160405180910390a3610af9338261199c90919063ffffffff16565b610b146000610b0661196f565b6119e390919063ffffffff16565b50565b610b1f611688565b60000160009054906101000a900473ffffffffffffffffffffffffffffffffffffffff1673ffffffffffffffffffffffffffffffffffffffff163373ffffffffffffffffffffffffffffffffffffffff1614610bb0576040517f08c379a0000000000000000000000000000000000000000000000000000000008152600401610ba79061237a565b60405180910390fd5b6001610bba6116b5565b60000160006101000a81548160ff0219169083151502179055507f62e78cea01bee320cd4e420270b5ea74000d11b0c9f74754ebdbfc544b05a25833604051610c0391906121af565b60405180910390a1565b6000610c1761196f565b60000160009054906101000a900473ffffffffffffffffffffffffffffffffffffffff16905090565b6000610c4a611688565b60000160009054906101000a900473ffffffffffffffffffffffffffffffffffffffff16905090565b6060610c7d6111bb565b6001018054610c8b90612603565b80601f0160208091040260200160405190810160405280929190818152602001828054610cb790612603565b8015610d045780601f10610cd957610100808354040283529160200191610d04565b820191906000526020600020905b815481529060010190602001808311610ce757829003601f168201915b5050505050905090565b610d16611688565b60000160009054906101000a900473ffffffffffffffffffffffffffffffffffffffff1673ffffffffffffffffffffffffffffffffffffffff163373ffffffffffffffffffffffffffffffffffffffff1614610da7576040517f08c379a0000000000000000000000000000000000000000000000000000000008152600401610d9e9061237a565b60405180910390fd5b610db18282611a2a565b5050565b600080610dc06113cf565b60010160003373ffffffffffffffffffffffffffffffffffffffff1673ffffffffffffffffffffffffffffffffffffffff168152602001908152602001600020905060008160008673ffffffffffffffffffffffffffffffffffffffff1673ffffffffffffffffffffffffffffffffffffffff16815260200190815260200160002054905080841115610e88576040517f08c379a0000000000000000000000000000000000000000000000000000000008152600401610e7f906122fa565b60405180910390fd5b610ed633868684038560008a73ffffffffffffffffffffffffffffffffffffffff1673ffffffffffffffffffffffffffffffffffffffff1681526020019081526020016000208190556111e8565b60019250505092915050565b6000610eef3384846113fc565b6001905092915050565b6000610f036113cf565b60010160008473ffffffffffffffffffffffffffffffffffffffff1673ffffffffffffffffffffffffffffffffffffffff16815260200190815260200160002060008373ffffffffffffffffffffffffffffffffffffffff1673ffffffffffffffffffffffffffffffffffffffff16815260200190815260200160002054905092915050565b6000610f93611c0a565b90508060000160019054906101000a900460ff16610fc3578060000160009054906101000a900460ff1615610fcc565b610fcb611c37565b5b61100b576040517f08c379a00000000000000000000000000000000000000000000000000000000081526004016110029061233a565b60405180910390fd5b60008160000160019054906101000a900460ff1615905080156110635760018260000160016101000a81548160ff02191690831515021790555060018260000160006101000a81548160ff0219169083151502179055505b61107d8361106f611688565b61199c90919063ffffffff16565b60006110876111bb565b9050868160000190805190602001906110a1929190611c60565b50858160010190805190602001906110ba929190611c60565b50848160020160006101000a81548160ff021916908360ff1602179055505080156110fd5760008260000160016101000a81548160ff0219169083151502179055505b505050505050565b61110d611688565b60000160009054906101000a900473ffffffffffffffffffffffffffffffffffffffff1673ffffffffffffffffffffffffffffffffffffffff163373ffffffffffffffffffffffffffffffffffffffff161461119e576040517f08c379a00000000000000000000000000000000000000000000000000000000081526004016111959061237a565b60405180910390fd5b6111b8816111aa61196f565b6119e390919063ffffffff16565b50565b6000807f2967a798b92539a1b9eefe4d8eb931f96b68d27665e276f1bee2d5db7f74304790508091505090565b600073ffffffffffffffffffffffffffffffffffffffff168373ffffffffffffffffffffffffffffffffffffffff161415611258576040517f08c379a000000000000000000000000000000000000000000000000000000000815260040161124f906123fa565b60405180910390fd5b600073ffffffffffffffffffffffffffffffffffffffff168273ffffffffffffffffffffffffffffffffffffffff1614156112c8576040517f08c379a00000000000000000000000000000000000000000000000000000000081526004016112bf906122ba565b60405180910390fd5b806112d16113cf565b60010160008573ffffffffffffffffffffffffffffffffffffffff1673ffffffffffffffffffffffffffffffffffffffff16815260200190815260200160002060008473ffffffffffffffffffffffffffffffffffffffff1673ffffffffffffffffffffffffffffffffffffffff168152602001908152602001600020819055508173ffffffffffffffffffffffffffffffffffffffff168373ffffffffffffffffffffffffffffffffffffffff167f8c5be1e5ebec7d5bd14f71427d1e84f3dd0314c0f7b2291e5b200ac8c7c3b925836040516113af919061243a565b60405180910390a3505050565b60006113c66113cf565b60020154905090565b6000807fc991b2e918acaba8e5721668ed0b1982684e5a8692a621bcd2d7ef326bb015b490508091505090565b600073ffffffffffffffffffffffffffffffffffffffff168373ffffffffffffffffffffffffffffffffffffffff16141561146c576040517f08c379a0000000000000000000000000000000000000000000000000000000008152600401611463906123da565b60405180910390fd5b600073ffffffffffffffffffffffffffffffffffffffff168273ffffffffffffffffffffffffffffffffffffffff1614156114dc576040517f08c379a00000000000000000000000000000000000000000000000000000000081526004016114d39061225a565b60405180910390fd5b6114e7838383611c48565b60006114f16113cf565b905060008160000160008673ffffffffffffffffffffffffffffffffffffffff1673ffffffffffffffffffffffffffffffffffffffff1681526020019081526020016000205490508281101561157c576040517f08c379a0000000000000000000000000000000000000000000000000000000008152600401611573906122da565b60405180910390fd5b8281038260000160008773ffffffffffffffffffffffffffffffffffffffff1673ffffffffffffffffffffffffffffffffffffffff16815260200190815260200160002081905550828260000160008673ffffffffffffffffffffffffffffffffffffffff1673ffffffffffffffffffffffffffffffffffffffff168152602001908152602001600020600082825461161591906124e2565b925050819055508373ffffffffffffffffffffffffffffffffffffffff168573ffffffffffffffffffffffffffffffffffffffff167fddf252ad1be2c89b69c2b068fc378daa952ba7f163c4a11628f55a4df523b3ef85604051611679919061243a565b60405180910390a35050505050565b6000807f8a22373512790c48b83a1fe2efdd2888d4a917bcdc24d0adf63e60f67168046090508091505090565b6000807f68721c0bbf2c02a4d65000340d1370666be06a630022208d4baa9bd7a4b6fea890508091505090565b600073ffffffffffffffffffffffffffffffffffffffff168273ffffffffffffffffffffffffffffffffffffffff161415611752576040517f08c379a00000000000000000000000000000000000000000000000000000000081526004016117499061241a565b60405180910390fd5b61175e60008383611c48565b60006117686113cf565b90508181600201600082825461177e91906124e2565b92505081905550818160000160008573ffffffffffffffffffffffffffffffffffffffff1673ffffffffffffffffffffffffffffffffffffffff16815260200190815260200160002060008282546117d691906124e2565b925050819055508273ffffffffffffffffffffffffffffffffffffffff16600073ffffffffffffffffffffffffffffffffffffffff167fddf252ad1be2c89b69c2b068fc378daa952ba7f163c4a11628f55a4df523b3ef8460405161183b919061243a565b60405180910390a3505050565b60006040517f3d602d80600a3d3981f3363d3d373d3d3d363d7300000000000000000000000081528260601b60148201527f5af43d82803e903d91602b57fd5bf3000000000000000000000000000000000060288201526037816000f0915050600073ffffffffffffffffffffffffffffffffffffffff168173ffffffffffffffffffffffffffffffffffffffff161415611918576040517f08c379a000000000000000000000000000000000000000000000000000000000815260040161190f9061231a565b60405180910390fd5b919050565b60006119276113cf565b60000160008373ffffffffffffffffffffffffffffffffffffffff1673ffffffffffffffffffffffffffffffffffffffff168152602001908152602001600020549050919050565b6000807f24aa1f7b31fd188a8d3ecfb06bc55c806040e59b03bd4396283442fce661789090508091505090565b808260000160006101000a81548173ffffffffffffffffffffffffffffffffffffffff021916908373ffffffffffffffffffffffffffffffffffffffff1602179055505050565b808260000160006101000a81548173ffffffffffffffffffffffffffffffffffffffff021916908373ffffffffffffffffffffffffffffffffffffffff1602179055505050565b600073ffffffffffffffffffffffffffffffffffffffff168273ffffffffffffffffffffffffffffffffffffffff161415611a9a576040517f08c379a0000000000000000000000000000000000000000000000000000000008152600401611a91906123ba565b60405180910390fd5b611aa682600083611c48565b6000611ab06113cf565b905060008160000160008573ffffffffffffffffffffffffffffffffffffffff1673ffffffffffffffffffffffffffffffffffffffff16815260200190815260200160002054905082811015611b3b576040517f08c379a0000000000000000000000000000000000000000000000000000000008152600401611b329061227a565b60405180910390fd5b8281038260000160008673ffffffffffffffffffffffffffffffffffffffff1673ffffffffffffffffffffffffffffffffffffffff1681526020019081526020016000208190555082826002016000828254611b979190612538565b92505081905550600073ffffffffffffffffffffffffffffffffffffffff168473ffffffffffffffffffffffffffffffffffffffff167fddf252ad1be2c89b69c2b068fc378daa952ba7f163c4a11628f55a4df523b3ef85604051611bfc919061243a565b60405180910390a350505050565b6000807f2ae1e818fc317b4c150084d41bf7468a28b0861c8b85a3e58e4bb4d5dbbc6aa190508091505090565b6000611c4230611c4d565b15905090565b505050565b600080823b905060008111915050919050565b828054611c6c90612603565b90600052602060002090601f016020900481019282611c8e5760008555611cd5565b82601f10611ca757805160ff1916838001178555611cd5565b82800160010185558215611cd5579182015b82811115611cd4578251825591602001919060010190611cb9565b5b509050611ce29190611ce6565b5090565b5b80821115611cff576000816000905550600101611ce7565b5090565b6000611d16611d1184612495565b612470565b905082815260208101848484011115611d2e57600080fd5b611d398482856125c1565b509392505050565b600081359050611d5081612b33565b92915050565b600082601f830112611d6757600080fd5b8135611d77848260208601611d03565b91505092915050565b600081359050611d8f81612b4a565b92915050565b600081359050611da481612b61565b92915050565b600060208284031215611dbc57600080fd5b6000611dca84828501611d41565b91505092915050565b60008060408385031215611de657600080fd5b6000611df485828601611d41565b9250506020611e0585828601611d41565b9150509250929050565b600080600060608486031215611e2457600080fd5b6000611e3286828701611d41565b9350506020611e4386828701611d41565b9250506040611e5486828701611d80565b9150509250925092565b60008060408385031215611e7157600080fd5b6000611e7f85828601611d41565b9250506020611e9085828601611d80565b9150509250929050565b60008060008060808587031215611eb057600080fd5b600085013567ffffffffffffffff811115611eca57600080fd5b611ed687828801611d56565b945050602085013567ffffffffffffffff811115611ef357600080fd5b611eff87828801611d56565b9350506040611f1087828801611d95565b9250506060611f2187828801611d41565b91505092959194509250565b611f368161256c565b82525050565b611f458161257e565b82525050565b6000611f56826124c6565b611f6081856124d1565b9350611f708185602086016125d0565b611f79816126f3565b840191505092915050565b6000611f916023836124d1565b9150611f9c82612704565b604082019050919050565b6000611fb46022836124d1565b9150611fbf82612753565b604082019050919050565b6000611fd76022836124d1565b9150611fe2826127a2565b604082019050919050565b6000611ffa6022836124d1565b9150612005826127f1565b604082019050919050565b600061201d6026836124d1565b915061202882612840565b604082019050919050565b60006120406025836124d1565b915061204b8261288f565b604082019050919050565b60006120636016836124d1565b915061206e826128de565b602082019050919050565b6000612086602e836124d1565b915061209182612907565b604082019050919050565b60006120a96029836124d1565b91506120b482612956565b604082019050919050565b60006120cc601d836124d1565b91506120d7826129a5565b602082019050919050565b60006120ef6028836124d1565b91506120fa826129ce565b604082019050919050565b60006121126021836124d1565b915061211d82612a1d565b604082019050919050565b60006121356025836124d1565b915061214082612a6c565b604082019050919050565b60006121586024836124d1565b915061216382612abb565b604082019050919050565b600061217b601f836124d1565b915061218682612b0a565b602082019050919050565b61219a816125aa565b82525050565b6121a9816125b4565b82525050565b60006020820190506121c46000830184611f2d565b92915050565b60006020820190506121df6000830184611f3c565b92915050565b600060208201905081810360008301526121ff8184611f4b565b905092915050565b600060808201905081810360008301526122218187611f4b565b905081810360208301526122358186611f4b565b905061224460408301856121a0565b6122516060830184611f2d565b95945050505050565b6000602082019050818103600083015261227381611f84565b9050919050565b6000602082019050818103600083015261229381611fa7565b9050919050565b600060208201905081810360008301526122b381611fca565b9050919050565b600060208201905081810360008301526122d381611fed565b9050919050565b600060208201905081810360008301526122f381612010565b9050919050565b6000602082019050818103600083015261231381612033565b9050919050565b6000602082019050818103600083015261233381612056565b9050919050565b6000602082019050818103600083015261235381612079565b9050919050565b600060208201905081810360008301526123738161209c565b9050919050565b60006020820190508181036000830152612393816120bf565b9050919050565b600060208201905081810360008301526123b3816120e2565b9050919050565b600060208201905081810360008301526123d381612105565b9050919050565b600060208201905081810360008301526123f381612128565b9050919050565b600060208201905081810360008301526124138161214b565b9050919050565b600060208201905081810360008301526124338161216e565b9050919050565b600060208201905061244f6000830184612191565b92915050565b600060208201905061246a60008301846121a0565b92915050565b600061247a61248b565b90506124868282612635565b919050565b6000604051905090565b600067ffffffffffffffff8211156124b0576124af6126c4565b5b6124b9826126f3565b9050602081019050919050565b600081519050919050565b600082825260208201905092915050565b60006124ed826125aa565b91506124f8836125aa565b9250827fffffffffffffffffffffffffffffffffffffffffffffffffffffffffffffffff0382111561252d5761252c612666565b5b828201905092915050565b6000612543826125aa565b915061254e836125aa565b92508282101561256157612560612666565b5b828203905092915050565b60006125778261258a565b9050919050565b60008115159050919050565b600073ffffffffffffffffffffffffffffffffffffffff82169050919050565b6000819050919050565b600060ff82169050919050565b82818337600083830152505050565b60005b838110156125ee5780820151818401526020810190506125d3565b838111156125fd576000848401525b50505050565b6000600282049050600182168061261b57607f821691505b6020821081141561262f5761262e612695565b5b50919050565b61263e826126f3565b810181811067ffffffffffffffff8211171561265d5761265c6126c4565b5b80604052505050565b7f4e487b7100000000000000000000000000000000000000000000000000000000600052601160045260246000fd5b7f4e487b7100000000000000000000000000000000000000000000000000000000600052602260045260246000fd5b7f4e487b7100000000000000000000000000000000000000000000000000000000600052604160045260246000fd5b6000601f19601f8301169050919050565b7f45524332303a207472616e7366657220746f20746865207a65726f206164647260008201527f6573730000000000000000000000000000000000000000000000000000000000602082015250565b7f45524332303a206275726e20616d6f756e7420657863656564732062616c616e60008201527f6365000000000000000000000000000000000000000000000000000000000000602082015250565b7f4552433230457874656e6465643a2065786365737369766520616c6c6f77616e60008201527f6365000000000000000000000000000000000000000000000000000000000000602082015250565b7f45524332303a20617070726f766520746f20746865207a65726f20616464726560008201527f7373000000000000000000000000000000000000000000000000000000000000602082015250565b7f45524332303a207472616e7366657220616d6f756e742065786365656473206260008201527f616c616e63650000000000000000000000000000000000000000000000000000602082015250565b7f4552433230457874656e6465643a20696e73756666696369656e7420616c6c6f60008201527f77616e6365000000000000000000000000000000000000000000000000000000602082015250565b7f455243313136373a20637265617465206661696c656400000000000000000000600082015250565b7f496e697469616c697a61626c653a20636f6e747261637420697320616c72656160008201527f647920696e697469616c697a6564000000000000000000000000000000000000602082015250565b7f536166654f776e61626c653a2073656e646572206d757374206265206e6f6d6960008201527f6e6565206f776e65720000000000000000000000000000000000000000000000602082015250565b7f4f776e61626c653a2073656e646572206d757374206265206f776e6572000000600082015250565b7f45524332303a207472616e7366657220616d6f756e742065786365656473206160008201527f6c6c6f77616e6365000000000000000000000000000000000000000000000000602082015250565b7f45524332303a206275726e2066726f6d20746865207a65726f2061646472657360008201527f7300000000000000000000000000000000000000000000000000000000000000602082015250565b7f45524332303a207472616e736665722066726f6d20746865207a65726f20616460008201527f6472657373000000000000000000000000000000000000000000000000000000602082015250565b7f45524332303a20617070726f76652066726f6d20746865207a65726f2061646460008201527f7265737300000000000000000000000000000000000000000000000000000000602082015250565b7f45524332303a206d696e7420746f20746865207a65726f206164647265737300600082015250565b612b3c8161256c565b8114612b4757600080fd5b50565b612b53816125aa565b8114612b5e57600080fd5b50565b612b6a816125b4565b8114612b7557600080fd5b5056fea2646970667358221220b4b7d2b427397cb39fa7d7bb508a5932a0fa2eabc63ad93acf398b0d0970806864736f6c63430008040033",
  "devdoc": {
    "kind": "dev",
    "methods": {
      "allowance(address,address)": {
        "params": {
          "holder": "approver of allowance",
          "spender": "recipient of allowance"
        },
        "returns": {
          "_0": "token allowance"
        }
      },
      "approve(address,uint256)": {
        "details": "prefer ERC20Extended functions to avoid transaction-ordering vulnerability (see https://github.com/ethereum/EIPs/issues/20#issuecomment-263524729)",
        "params": {
          "amount": "quantity of tokens approved for spending",
          "spender": "recipient of allowance"
        },
        "returns": {
          "_0": "success status (always true; otherwise function should revert)"
        }
      },
      "balanceOf(address)": {
        "params": {
          "account": "address to query"
        },
        "returns": {
          "_0": "token balance"
        }
      },
      "decimals()": {
        "returns": {
          "_0": "token decimals"
        }
      },
      "decreaseAllowance(address,uint256)": {
        "params": {
          "amount": "quantity by which to decrease allowance",
          "spender": "address whose allowance to decrease"
        },
        "returns": {
          "_0": "success status (always true; otherwise function will revert)"
        }
      },
      "increaseAllowance(address,uint256)": {
        "params": {
          "amount": "quantity by which to increase allowance",
          "spender": "address whose allowance to increase"
        },
        "returns": {
          "_0": "success status (always true; otherwise function will revert)"
        }
      },
      "name()": {
        "returns": {
          "_0": "token name"
        }
      },
      "owner()": {
        "returns": {
          "_0": "conract owner"
        }
      },
      "pause()": {
        "details": "pause the contract"
      },
      "paused()": {
        "details": "Should return if the contract is paused"
      },
      "symbol()": {
        "returns": {
          "_0": "token symbol"
        }
      },
      "totalSupply()": {
        "returns": {
          "_0": "token supply"
        }
      },
      "transfer(address,uint256)": {
        "params": {
          "amount": "quantity of tokens to transfer",
          "recipient": "beneficiary of token transfer"
        },
        "returns": {
          "_0": "success status (always true; otherwise function should revert)"
        }
      },
      "transferFrom(address,address,uint256)": {
        "params": {
          "amount": "quantity of tokens to transfer",
          "holder": "holder of tokens prior to transfer",
          "recipient": "beneficiary of token transfer"
        },
        "returns": {
          "_0": "success status (always true; otherwise function should revert)"
        }
      },
      "transferOwnership(address)": {
        "details": "ownership transfer must be accepted by beneficiary before transfer is complete",
        "params": {
          "account": "address of new owner"
        }
      },
      "unpause()": {
        "details": "unpause the contract"
      }
    },
    "version": 1
  },
  "userdoc": {
    "kind": "user",
    "methods": {
      "acceptOwnership()": {
        "notice": "accept transfer of contract ownership"
      },
      "allowance(address,address)": {
        "notice": "query the allowance granted from given holder to given spender"
      },
      "approve(address,uint256)": {
        "notice": "grant approval to spender to spend tokens"
      },
      "balanceOf(address)": {
        "notice": "query the token balance of given account"
      },
      "decimals()": {
        "notice": "return token decimals, generally used only for display purposes"
      },
      "decreaseAllowance(address,uint256)": {
        "notice": "decrease spend amount granted to spender"
      },
      "increaseAllowance(address,uint256)": {
        "notice": "increase spend amount granted to spender"
      },
      "name()": {
        "notice": "return token name"
      },
      "owner()": {
        "notice": "get the ERC173 contract owner"
      },
      "symbol()": {
        "notice": "return token symbol"
      },
      "totalSupply()": {
        "notice": "query the total minted token supply"
      },
      "transfer(address,uint256)": {
        "notice": "transfer tokens to given recipient"
      },
      "transferFrom(address,address,uint256)": {
        "notice": "transfer tokens to given recipient on behalf of given holder"
      },
      "transferOwnership(address)": {
        "notice": "transfer contract ownership to new account"
      }
    },
    "version": 1
  },
  "storageLayout": {
    "storage": [],
    "types": null
  }
}