{
  "address": "0x1c01c1e87802Fd73f0f2BD7AeE20d9161d9Ab029",
  "abi": [
    {
      "anonymous": false,
      "inputs": [
        {
          "indexed": true,
          "internalType": "address",
          "name": "account",
          "type": "address"
        },
        {
          "indexed": true,
          "internalType": "address",
          "name": "operator",
          "type": "address"
        },
        {
          "indexed": false,
          "internalType": "bool",
          "name": "approved",
          "type": "bool"
        }
      ],
      "name": "ApprovalForAll",
      "type": "event"
    },
    {
      "anonymous": false,
      "inputs": [
        {
          "indexed": false,
          "internalType": "uint16",
          "name": "",
          "type": "uint16"
        }
      ],
      "name": "TokenRoyaltyBpsSet",
      "type": "event"
    },
    {
      "anonymous": false,
      "inputs": [
        {
          "indexed": true,
          "internalType": "address",
          "name": "operator",
          "type": "address"
        },
        {
          "indexed": true,
          "internalType": "address",
          "name": "from",
          "type": "address"
        },
        {
          "indexed": true,
          "internalType": "address",
          "name": "to",
          "type": "address"
        },
        {
          "indexed": false,
          "internalType": "uint256[]",
          "name": "ids",
          "type": "uint256[]"
        },
        {
          "indexed": false,
          "internalType": "uint256[]",
          "name": "values",
          "type": "uint256[]"
        }
      ],
      "name": "TransferBatch",
      "type": "event"
    },
    {
      "anonymous": false,
      "inputs": [
        {
          "indexed": true,
          "internalType": "address",
          "name": "operator",
          "type": "address"
        },
        {
          "indexed": true,
          "internalType": "address",
          "name": "from",
          "type": "address"
        },
        {
          "indexed": true,
          "internalType": "address",
          "name": "to",
          "type": "address"
        },
        {
          "indexed": false,
          "internalType": "uint256",
          "name": "id",
          "type": "uint256"
        },
        {
          "indexed": false,
          "internalType": "uint256",
          "name": "value",
          "type": "uint256"
        }
      ],
      "name": "TransferSingle",
      "type": "event"
    },
    {
      "anonymous": false,
      "inputs": [
        {
          "indexed": false,
          "internalType": "string",
          "name": "value",
          "type": "string"
        },
        {
          "indexed": true,
          "internalType": "uint256",
          "name": "tokenId",
          "type": "uint256"
        }
      ],
      "name": "URI",
      "type": "event"
    },
    {
      "inputs": [
        {
          "internalType": "address",
          "name": "account",
          "type": "address"
        },
        {
          "internalType": "uint256",
          "name": "id",
          "type": "uint256"
        }
      ],
      "name": "balanceOf",
      "outputs": [
        {
          "internalType": "uint256",
          "name": "",
          "type": "uint256"
        }
      ],
      "stateMutability": "view",
      "type": "function"
    },
    {
      "inputs": [
        {
          "internalType": "address[]",
          "name": "accounts",
          "type": "address[]"
        },
        {
          "internalType": "uint256[]",
          "name": "ids",
          "type": "uint256[]"
        }
      ],
      "name": "balanceOfBatch",
      "outputs": [
        {
          "internalType": "uint256[]",
          "name": "",
          "type": "uint256[]"
        }
      ],
      "stateMutability": "view",
      "type": "function"
    },
    {
      "inputs": [
        {
          "internalType": "uint256[]",
          "name": "ids",
          "type": "uint256[]"
        },
        {
          "internalType": "uint256[]",
          "name": "amounts",
          "type": "uint256[]"
        }
      ],
      "name": "burnBatch",
      "outputs": [],
      "stateMutability": "nonpayable",
      "type": "function"
    },
    {
      "inputs": [],
      "name": "getMining",
      "outputs": [
        {
          "internalType": "uint256",
          "name": "",
          "type": "uint256"
        }
      ],
      "stateMutability": "view",
      "type": "function"
    },
    {
      "inputs": [
        {
          "internalType": "uint256",
          "name": "id",
          "type": "uint256"
        }
      ],
      "name": "getTokenInfo",
      "outputs": [
        {
          "components": [
            {
              "internalType": "uint256",
              "name": "supply",
              "type": "uint256"
            },
            {
              "internalType": "uint256",
              "name": "income",
              "type": "uint256"
            }
          ],
          "internalType": "struct Token",
          "name": "",
          "type": "tuple"
        }
      ],
      "stateMutability": "view",
      "type": "function"
    },
    {
      "inputs": [
        {
          "internalType": "address",
          "name": "account",
          "type": "address"
        },
        {
          "internalType": "address",
          "name": "operator",
          "type": "address"
        }
      ],
      "name": "isApprovedForAll",
      "outputs": [
        {
          "internalType": "bool",
          "name": "",
          "type": "bool"
        }
      ],
      "stateMutability": "view",
      "type": "function"
    },
    {
      "inputs": [
        {
          "internalType": "address",
          "name": "account",
          "type": "address"
        },
        {
          "internalType": "uint256[]",
          "name": "ids",
          "type": "uint256[]"
        },
        {
          "internalType": "uint256[]",
          "name": "amounts",
          "type": "uint256[]"
        },
        {
          "internalType": "bytes",
          "name": "data",
          "type": "bytes"
        }
      ],
      "name": "mintBatch",
      "outputs": [],
      "stateMutability": "nonpayable",
      "type": "function"
    },
    {
      "inputs": [
        {
          "internalType": "uint256",
          "name": "",
          "type": "uint256"
        },
        {
          "internalType": "uint256",
          "name": "value",
          "type": "uint256"
        }
      ],
      "name": "royaltyInfo",
      "outputs": [
        {
          "internalType": "address",
          "name": "",
          "type": "address"
        },
        {
          "internalType": "uint256",
          "name": "",
          "type": "uint256"
        }
      ],
      "stateMutability": "view",
      "type": "function"
    },
    {
      "inputs": [
        {
          "internalType": "address",
          "name": "from",
          "type": "address"
        },
        {
          "internalType": "address",
          "name": "to",
          "type": "address"
        },
        {
          "internalType": "uint256[]",
          "name": "ids",
          "type": "uint256[]"
        },
        {
          "internalType": "uint256[]",
          "name": "amounts",
          "type": "uint256[]"
        },
        {
          "internalType": "bytes",
          "name": "data",
          "type": "bytes"
        }
      ],
      "name": "safeBatchTransferFrom",
      "outputs": [],
      "stateMutability": "nonpayable",
      "type": "function"
    },
    {
      "inputs": [
        {
          "internalType": "address",
          "name": "from",
          "type": "address"
        },
        {
          "internalType": "address",
          "name": "to",
          "type": "address"
        },
        {
          "internalType": "uint256",
          "name": "id",
          "type": "uint256"
        },
        {
          "internalType": "uint256",
          "name": "amount",
          "type": "uint256"
        },
        {
          "internalType": "bytes",
          "name": "data",
          "type": "bytes"
        }
      ],
      "name": "safeTransferFrom",
      "outputs": [],
      "stateMutability": "nonpayable",
      "type": "function"
    },
    {
      "inputs": [
        {
          "internalType": "address",
          "name": "operator",
          "type": "address"
        },
        {
          "internalType": "bool",
          "name": "status",
          "type": "bool"
        }
      ],
      "name": "setApprovalForAll",
      "outputs": [],
      "stateMutability": "nonpayable",
      "type": "function"
    },
    {
      "inputs": [
        {
          "internalType": "address",
          "name": "recipient",
          "type": "address"
        },
        {
          "internalType": "uint16",
          "name": "bps",
          "type": "uint16"
        }
      ],
      "name": "setRoyaltyInfo",
      "outputs": [],
      "stateMutability": "nonpayable",
      "type": "function"
    },
    {
      "inputs": [
        {
          "internalType": "string",
          "name": "baseURI",
          "type": "string"
        }
      ],
      "name": "setURI",
      "outputs": [],
      "stateMutability": "nonpayable",
      "type": "function"
    },
    {
      "inputs": [
        {
          "internalType": "bytes4",
          "name": "interfaceId",
          "type": "bytes4"
        }
      ],
      "name": "supportsInterface",
      "outputs": [
        {
          "internalType": "bool",
          "name": "",
          "type": "bool"
        }
      ],
      "stateMutability": "view",
      "type": "function"
    },
    {
      "inputs": [
        {
          "internalType": "uint256",
          "name": "tokenId",
          "type": "uint256"
        }
      ],
      "name": "uri",
      "outputs": [
        {
          "internalType": "string",
          "name": "",
          "type": "string"
        }
      ],
      "stateMutability": "view",
      "type": "function"
    }
  ],
  "transactionHash": "0xbcebeb678aeeb557c454ef428c0bc7d135c70f97f2a91cc7a3395873f9028d15",
  "args": [],
  "numDeployments": 2,
  "solcInputHash": "efcf127fadccc2305b02968480739e5f",
  "bytecode": "0x608060405234801561001057600080fd5b506142ef806100206000396000f3fe608060405234801561001057600080fd5b50600436106100f45760003560e01c80634e1273f4116100975780638c7a63ae116100665780638c7a63ae14610294578063a22cb465146102c4578063e985e9c5146102e0578063f242432a14610310576100f4565b80634e1273f41461020e57806372504a241461023e57806376e6dca21461025a57806383ca4b6f14610278576100f4565b80630e89341c116100d35780630e89341c146101755780631f7fdffa146101a55780632a55205a146101c15780632eb2c2d6146101f2576100f4565b8062fdd58e146100f957806301ffc9a71461012957806302fe530514610159575b600080fd5b610113600480360381019061010e9190612e2e565b61032c565b60405161012091906137e1565b60405180910390f35b610143600480360381019061013e9190612f4b565b610340565b604051610150919061356e565b60405180910390f35b610173600480360381019061016e9190612f9d565b610363565b005b61018f600480360381019061018a9190612fde565b610408565b60405161019c9190613589565b60405180910390f35b6101bf60048036038101906101ba9190612d03565b6105c9565b005b6101db60048036038101906101d69190613007565b6106f8565b6040516101e99291906134ec565b60405180910390f35b61020c60048036038101906102079190612bb5565b6107b6565b005b61022860048036038101906102239190612e6a565b61084a565b6040516102359190613515565b60405180910390f35b61025860048036038101906102539190612df2565b610afd565b005b610262610c72565b60405161026f91906137e1565b60405180910390f35b610292600480360381019061028d9190612ed6565b610c7e565b005b6102ae60048036038101906102a99190612fde565b610d11565b6040516102bb91906137ab565b60405180910390f35b6102de60048036038101906102d99190612db6565b610d55565b005b6102fa60048036038101906102f59190612b79565b610eca565b604051610307919061356e565b60405180910390f35b61032a60048036038101906103259190612c74565b610f67565b005b60006103388383610ffb565b905092915050565b600061035c8261034e6110ce565b6110fb90919063ffffffff16565b9050919050565b61036b611166565b60000160009054906101000a900473ffffffffffffffffffffffffffffffffffffffff1673ffffffffffffffffffffffffffffffffffffffff163373ffffffffffffffffffffffffffffffffffffffff16146103fc576040517f08c379a00000000000000000000000000000000000000000000000000000000081526004016103f39061370b565b60405180910390fd5b61040581611193565b50565b606060006104146111b6565b90506000816001016000858152602001908152602001600020805461043890613b59565b80601f016020809104026020016040519081016040528092919081815260200182805461046490613b59565b80156104b15780601f10610486576101008083540402835291602001916104b1565b820191906000526020600020905b81548152906001019060200180831161049457829003601f168201915b5050505050905060008260000180546104c990613b59565b80601f01602080910402602001604051908101604052809291908181526020018280546104f590613b59565b80156105425780601f1061051757610100808354040283529160200191610542565b820191906000526020600020905b81548152906001019060200180831161052557829003601f168201915b5050505050905060008151141561055e578193505050506105c4565b60008251111561059457808260405160200161057b929190613406565b60405160208183030381529060405293505050506105c4565b8061059e866111e3565b6040516020016105af929190613406565b60405160208183030381529060405293505050505b919050565b6105d1611166565b60000160009054906101000a900473ffffffffffffffffffffffffffffffffffffffff1673ffffffffffffffffffffffffffffffffffffffff163373ffffffffffffffffffffffffffffffffffffffff1614610662576040517f08c379a00000000000000000000000000000000000000000000000000000000081526004016106599061370b565b60405180910390fd5b6106f086868680806020026020016040519081016040528093929190818152602001838360200280828437600081840152601f19601f82011690508083019250505050505050858580806020026020016040519081016040528093929190818152602001838360200280828437600081840152601f19601f8201169050808301925050505050505084611390565b505050505050565b6000806000806003016040518060400160405290816000820160009054906101000a900473ffffffffffffffffffffffffffffffffffffffff1673ffffffffffffffffffffffffffffffffffffffff1673ffffffffffffffffffffffffffffffffffffffff1681526020016000820160149054906101000a900461ffff1661ffff1661ffff168152505090508060000151612710826020015161ffff16866107a09190613a07565b6107aa91906139d6565b92509250509250929050565b3373ffffffffffffffffffffffffffffffffffffffff168573ffffffffffffffffffffffffffffffffffffffff1614806107f657506107f58533610eca565b5b610835576040517f08c379a000000000000000000000000000000000000000000000000000000000815260040161082c9061366b565b60405180910390fd5b6108433386868686866113b1565b5050505050565b60608151835114610890576040517f08c379a00000000000000000000000000000000000000000000000000000000081526004016108879061374b565b60405180910390fd5b600061089a6113d5565b60000190506000845167ffffffffffffffff8111156108e2577f4e487b7100000000000000000000000000000000000000000000000000000000600052604160045260246000fd5b6040519080825280602002602001820160405280156109105781602001602082028036833780820191505090505b50905060005b8551811015610af157600073ffffffffffffffffffffffffffffffffffffffff16868281518110610970577f4e487b7100000000000000000000000000000000000000000000000000000000600052603260045260246000fd5b602002602001015173ffffffffffffffffffffffffffffffffffffffff1614156109cf576040517f08c379a00000000000000000000000000000000000000000000000000000000081526004016109c69061360b565b60405180910390fd5b826000868381518110610a0b577f4e487b7100000000000000000000000000000000000000000000000000000000600052603260045260246000fd5b602002602001015181526020019081526020016000206000878381518110610a5c577f4e487b7100000000000000000000000000000000000000000000000000000000600052603260045260246000fd5b602002602001015173ffffffffffffffffffffffffffffffffffffffff1673ffffffffffffffffffffffffffffffffffffffff16815260200190815260200160002054828281518110610ad8577f4e487b7100000000000000000000000000000000000000000000000000000000600052603260045260246000fd5b6020026020010181815250508080600101915050610916565b50809250505092915050565b610b05611166565b60000160009054906101000a900473ffffffffffffffffffffffffffffffffffffffff1673ffffffffffffffffffffffffffffffffffffffff163373ffffffffffffffffffffffffffffffffffffffff1614610b96576040517f08c379a0000000000000000000000000000000000000000000000000000000008152600401610b8d9061370b565b60405180910390fd5b60405180604001604052808373ffffffffffffffffffffffffffffffffffffffff1681526020018261ffff16815250600060030160008201518160000160006101000a81548173ffffffffffffffffffffffffffffffffffffffff021916908373ffffffffffffffffffffffffffffffffffffffff16021790555060208201518160000160146101000a81548161ffff021916908361ffff1602179055509050507f577133166751d165db2e7f4c7b9f50ef67bf80781894fc7f4d53df1067a39df181604051610c6691906137c6565b60405180910390a15050565b60008060010154905090565b610d0b33858580806020026020016040519081016040528093929190818152602001838360200280828437600081840152601f19601f82011690508083019250505050505050848480806020026020016040519081016040528093929190818152602001838360200280828437600081840152601f19601f82011690508083019250505050505050611402565b50505050565b610d196127f8565b60006002016000838152602001908152602001600020604051806040016040529081600082015481526020016001820154815250509050919050565b8173ffffffffffffffffffffffffffffffffffffffff163373ffffffffffffffffffffffffffffffffffffffff161415610dc4576040517f08c379a0000000000000000000000000000000000000000000000000000000008152600401610dbb9061372b565b60405180910390fd5b80610dcd6113d5565b60010160003373ffffffffffffffffffffffffffffffffffffffff1673ffffffffffffffffffffffffffffffffffffffff16815260200190815260200160002060008473ffffffffffffffffffffffffffffffffffffffff1673ffffffffffffffffffffffffffffffffffffffff16815260200190815260200160002060006101000a81548160ff0219169083151502179055508173ffffffffffffffffffffffffffffffffffffffff163373ffffffffffffffffffffffffffffffffffffffff167f17307eab39ab6107e8899845ad3d59bd9653f200f220920489ca2b5937696c3183604051610ebe919061356e565b60405180910390a35050565b6000610ed46113d5565b60010160008473ffffffffffffffffffffffffffffffffffffffff1673ffffffffffffffffffffffffffffffffffffffff16815260200190815260200160002060008373ffffffffffffffffffffffffffffffffffffffff1673ffffffffffffffffffffffffffffffffffffffff16815260200190815260200160002060009054906101000a900460ff16905092915050565b3373ffffffffffffffffffffffffffffffffffffffff168573ffffffffffffffffffffffffffffffffffffffff161480610fa75750610fa68533610eca565b5b610fe6576040517f08c379a0000000000000000000000000000000000000000000000000000000008152600401610fdd9061366b565b60405180910390fd5b610ff4338686868686611737565b5050505050565b60008073ffffffffffffffffffffffffffffffffffffffff168373ffffffffffffffffffffffffffffffffffffffff16141561106c576040517f08c379a0000000000000000000000000000000000000000000000000000000008152600401611063906135eb565b60405180910390fd5b6110746113d5565b600001600083815260200190815260200160002060008473ffffffffffffffffffffffffffffffffffffffff1673ffffffffffffffffffffffffffffffffffffffff16815260200190815260200160002054905092915050565b6000807f326d0c59a7612f6a9919e2a8ee333c80ba689d8ba2634de89c85cbb04832e70590508091505090565b6000826000016000837bffffffffffffffffffffffffffffffffffffffffffffffffffffffff19167bffffffffffffffffffffffffffffffffffffffffffffffffffffffff1916815260200190815260200160002060009054906101000a900460ff16905092915050565b6000807f8a22373512790c48b83a1fe2efdd2888d4a917bcdc24d0adf63e60f67168046090508091505090565b8061119c6111b6565b60000190805190602001906111b2929190612812565b5050565b6000807f4281b61aefbe70b3d3f684b428efca5f33077bc240e76f2808f9177c307617f490508091505090565b6060600082141561122b576040518060400160405280600181526020017f3000000000000000000000000000000000000000000000000000000000000000815250905061138b565b600082905060005b6000821461125d57808061124690613bbc565b915050600a8261125691906139d6565b9150611233565b60008167ffffffffffffffff81111561129f577f4e487b7100000000000000000000000000000000000000000000000000000000600052604160045260246000fd5b6040519080825280601f01601f1916602001820160405280156112d15781602001600182028036833780820191505090505b5090505b60008514611384576001826112ea9190613a61565b9150600a856112f99190613c05565b60306113059190613980565b60f81b818381518110611341577f4e487b7100000000000000000000000000000000000000000000000000000000600052603260045260246000fd5b60200101907effffffffffffffffffffffffffffffffffffffffffffffffffffffffffffff1916908160001a905350600a8561137d91906139d6565b94506112d5565b8093505050505b919050565b61139c8484848461175b565b6113ab336000868686866119b9565b50505050565b6113bf868686868686611ba0565b6113cd8686868686866119b9565b505050505050565b6000807f1799cf914cb0cb442ca7c7ac709ee40d0cb89e87351dc08d517fbda27d50c68b90508091505090565b600073ffffffffffffffffffffffffffffffffffffffff168373ffffffffffffffffffffffffffffffffffffffff161415611472576040517f08c379a0000000000000000000000000000000000000000000000000000000008152600401611469906136cb565b60405180910390fd5b80518251146114b6576040517f08c379a00000000000000000000000000000000000000000000000000000000081526004016114ad9061376b565b60405180910390fd5b6114d433846000858560405180602001604052806000815250611ef8565b60006114de6113d5565b600001905060005b83518110156116b157600084828151811061152a577f4e487b7100000000000000000000000000000000000000000000000000000000600052603260045260246000fd5b6020026020010151905083828151811061156d577f4e487b7100000000000000000000000000000000000000000000000000000000600052603260045260246000fd5b602002602001015183600083815260200190815260200160002060008873ffffffffffffffffffffffffffffffffffffffff1673ffffffffffffffffffffffffffffffffffffffff168152602001908152602001600020541015611606576040517f08c379a00000000000000000000000000000000000000000000000000000000081526004016115fd9061362b565b60405180910390fd5b83828151811061163f577f4e487b7100000000000000000000000000000000000000000000000000000000600052603260045260246000fd5b602002602001015183600083815260200190815260200160002060008873ffffffffffffffffffffffffffffffffffffffff1673ffffffffffffffffffffffffffffffffffffffff168152602001908152602001600020600082825403925050819055505080806001019150506114e6565b50600073ffffffffffffffffffffffffffffffffffffffff168473ffffffffffffffffffffffffffffffffffffffff163373ffffffffffffffffffffffffffffffffffffffff167f4a39dc06d4c0dbc64b70af90fd698a233a518aa5d07e595d983b8c0526c8f7fb8686604051611729929190613537565b60405180910390a450505050565b61174586868686868661228b565b611753868686868686612503565b505050505050565b600073ffffffffffffffffffffffffffffffffffffffff168473ffffffffffffffffffffffffffffffffffffffff1614156117cb576040517f08c379a00000000000000000000000000000000000000000000000000000000081526004016117c29061378b565b60405180910390fd5b815183511461180f576040517f08c379a00000000000000000000000000000000000000000000000000000000081526004016118069061376b565b60405180910390fd5b61181e33600086868686611ef8565b60006118286113d5565b600001905060005b845181101561193257838181518110611872577f4e487b7100000000000000000000000000000000000000000000000000000000600052603260045260246000fd5b60200260200101518260008784815181106118b6577f4e487b7100000000000000000000000000000000000000000000000000000000600052603260045260246000fd5b6020026020010151815260200190815260200160002060008873ffffffffffffffffffffffffffffffffffffffff1673ffffffffffffffffffffffffffffffffffffffff16815260200190815260200160002060008282546119189190613980565b92505081905550808061192a90613bbc565b915050611830565b508473ffffffffffffffffffffffffffffffffffffffff16600073ffffffffffffffffffffffffffffffffffffffff163373ffffffffffffffffffffffffffffffffffffffff167f4a39dc06d4c0dbc64b70af90fd698a233a518aa5d07e595d983b8c0526c8f7fb87876040516119aa929190613537565b60405180910390a45050505050565b6119d88473ffffffffffffffffffffffffffffffffffffffff166126ea565b15611b98578373ffffffffffffffffffffffffffffffffffffffff1663bc197c8187878686866040518663ffffffff1660e01b8152600401611a1e95949392919061342a565b602060405180830381600087803b158015611a3857600080fd5b505af1925050508015611a6957506040513d601f19601f82011682018060405250810190611a669190612f74565b60015b611b0f57611a75613cf2565b806308c379a01415611ad25750611a8a6141b0565b80611a955750611ad4565b806040517f08c379a0000000000000000000000000000000000000000000000000000000008152600401611ac99190613589565b60405180910390fd5b505b6040517f08c379a0000000000000000000000000000000000000000000000000000000008152600401611b06906135ab565b60405180910390fd5b63bc197c8160e01b7bffffffffffffffffffffffffffffffffffffffffffffffffffffffff1916817bffffffffffffffffffffffffffffffffffffffffffffffffffffffff191614611b96576040517f08c379a0000000000000000000000000000000000000000000000000000000008152600401611b8d906135cb565b60405180910390fd5b505b505050505050565b600073ffffffffffffffffffffffffffffffffffffffff168473ffffffffffffffffffffffffffffffffffffffff161415611c10576040517f08c379a0000000000000000000000000000000000000000000000000000000008152600401611c07906136ab565b60405180910390fd5b8151835114611c54576040517f08c379a0000000000000000000000000000000000000000000000000000000008152600401611c4b9061376b565b60405180910390fd5b611c62868686868686611ef8565b6000611c6c6113d5565b600001905060005b8451811015611e70576000858281518110611cb8577f4e487b7100000000000000000000000000000000000000000000000000000000600052603260045260246000fd5b602002602001015190506000858381518110611cfd577f4e487b7100000000000000000000000000000000000000000000000000000000600052603260045260246000fd5b60200260200101519050600084600084815260200190815260200160002060008b73ffffffffffffffffffffffffffffffffffffffff1673ffffffffffffffffffffffffffffffffffffffff16815260200190815260200160002054905081811015611d9e576040517f08c379a0000000000000000000000000000000000000000000000000000000008152600401611d959061364b565b60405180910390fd5b81810385600085815260200190815260200160002060008c73ffffffffffffffffffffffffffffffffffffffff1673ffffffffffffffffffffffffffffffffffffffff16815260200190815260200160002081905550508084600084815260200190815260200160002060008a73ffffffffffffffffffffffffffffffffffffffff1673ffffffffffffffffffffffffffffffffffffffff1681526020019081526020016000206000828254611e549190613980565b9250508190555050508080611e6890613bbc565b915050611c74565b508473ffffffffffffffffffffffffffffffffffffffff168673ffffffffffffffffffffffffffffffffffffffff168873ffffffffffffffffffffffffffffffffffffffff167f4a39dc06d4c0dbc64b70af90fd698a233a518aa5d07e595d983b8c0526c8f7fb8787604051611ee7929190613537565b60405180910390a450505050505050565b611f006126fd565b60000160009054906101000a900460ff1615611f51576040517f08c379a0000000000000000000000000000000000000000000000000000000008152600401611f489061368b565b60405180910390fd5b611f5f86868686868661272a565b600073ffffffffffffffffffffffffffffffffffffffff168473ffffffffffffffffffffffffffffffffffffffff1614156120f15760008060010154905060005b84518110156120ee5781858281518110611fe3577f4e487b7100000000000000000000000000000000000000000000000000000000600052603260045260246000fd5b60200260200101511161202b576040517f08c379a0000000000000000000000000000000000000000000000000000000008152600401612022906136eb565b60405180910390fd5b838181518110612064577f4e487b7100000000000000000000000000000000000000000000000000000000600052603260045260246000fd5b6020026020010151600060020160008784815181106120ac577f4e487b7100000000000000000000000000000000000000000000000000000000600052603260045260246000fd5b6020026020010151815260200190815260200160002060000160008282546120d49190613a61565b9250508190555080806120e690613bbc565b915050611fa0565b50505b600073ffffffffffffffffffffffffffffffffffffffff168573ffffffffffffffffffffffffffffffffffffffff1614156122835760008060010154905060005b84518110156122805781858281518110612175577f4e487b7100000000000000000000000000000000000000000000000000000000600052603260045260246000fd5b6020026020010151116121bd576040517f08c379a00000000000000000000000000000000000000000000000000000000081526004016121b4906136eb565b60405180910390fd5b8381815181106121f6577f4e487b7100000000000000000000000000000000000000000000000000000000600052603260045260246000fd5b60200260200101516000600201600087848151811061223e577f4e487b7100000000000000000000000000000000000000000000000000000000600052603260045260246000fd5b6020026020010151815260200190815260200160002060000160008282546122669190613980565b92505081905550808061227890613bbc565b915050612132565b50505b505050505050565b600073ffffffffffffffffffffffffffffffffffffffff168473ffffffffffffffffffffffffffffffffffffffff1614156122fb576040517f08c379a00000000000000000000000000000000000000000000000000000000081526004016122f2906136ab565b60405180910390fd5b61231986868661230a87612732565b61231387612732565b86611ef8565b60006123236113d5565b6000019050600081600086815260200190815260200160002060008873ffffffffffffffffffffffffffffffffffffffff1673ffffffffffffffffffffffffffffffffffffffff168152602001908152602001600020549050838110156123bf576040517f08c379a00000000000000000000000000000000000000000000000000000000081526004016123b69061364b565b60405180910390fd5b83810382600087815260200190815260200160002060008973ffffffffffffffffffffffffffffffffffffffff1673ffffffffffffffffffffffffffffffffffffffff16815260200190815260200160002081905550508281600086815260200190815260200160002060008773ffffffffffffffffffffffffffffffffffffffff1673ffffffffffffffffffffffffffffffffffffffff16815260200190815260200160002060008282546124759190613980565b925050819055508473ffffffffffffffffffffffffffffffffffffffff168673ffffffffffffffffffffffffffffffffffffffff168873ffffffffffffffffffffffffffffffffffffffff167fc3d58168c5ae7397731d063d5bbf3d657854427343f4c083240f7aacaa2d0f6287876040516124f29291906137fc565b60405180910390a450505050505050565b6125228473ffffffffffffffffffffffffffffffffffffffff166126ea565b156126e2578373ffffffffffffffffffffffffffffffffffffffff1663f23a6e6187878686866040518663ffffffff1660e01b8152600401612568959493929190613492565b602060405180830381600087803b15801561258257600080fd5b505af19250505080156125b357506040513d601f19601f820116820180604052508101906125b09190612f74565b60015b612659576125bf613cf2565b806308c379a0141561261c57506125d46141b0565b806125df575061261e565b806040517f08c379a00000000000000000000000000000000000000000000000000000000081526004016126139190613589565b60405180910390fd5b505b6040517f08c379a0000000000000000000000000000000000000000000000000000000008152600401612650906135ab565b60405180910390fd5b63f23a6e6160e01b7bffffffffffffffffffffffffffffffffffffffffffffffffffffffff1916817bffffffffffffffffffffffffffffffffffffffffffffffffffffffff1916146126e0576040517f08c379a00000000000000000000000000000000000000000000000000000000081526004016126d7906135cb565b60405180910390fd5b505b505050505050565b600080823b905060008111915050919050565b6000807f68721c0bbf2c02a4d65000340d1370666be06a630022208d4baa9bd7a4b6fea890508091505090565b505050505050565b60606000600167ffffffffffffffff811115612777577f4e487b7100000000000000000000000000000000000000000000000000000000600052604160045260246000fd5b6040519080825280602002602001820160405280156127a55781602001602082028036833780820191505090505b50905082816000815181106127e3577f4e487b7100000000000000000000000000000000000000000000000000000000600052603260045260246000fd5b60200260200101818152505080915050919050565b604051806040016040528060008152602001600081525090565b82805461281e90613b59565b90600052602060002090601f0160209004810192826128405760008555612887565b82601f1061285957805160ff1916838001178555612887565b82800160010185558215612887579182015b8281111561288657825182559160200191906001019061286b565b5b5090506128949190612898565b5090565b5b808211156128b1576000816000905550600101612899565b5090565b60006128c86128c38461384a565b613825565b905080838252602082019050828560208602820111156128e757600080fd5b60005b8581101561291757816128fd8882612a09565b8452602084019350602083019250506001810190506128ea565b5050509392505050565b600061293461292f84613876565b613825565b9050808382526020820190508285602086028201111561295357600080fd5b60005b8581101561298357816129698882612b64565b845260208401935060208301925050600181019050612956565b5050509392505050565b60006129a061299b846138a2565b613825565b9050828152602081018484840111156129b857600080fd5b6129c3848285613b17565b509392505050565b60006129de6129d9846138d3565b613825565b9050828152602081018484840111156129f657600080fd5b612a01848285613b17565b509392505050565b600081359050612a1881614246565b92915050565b600082601f830112612a2f57600080fd5b8135612a3f8482602086016128b5565b91505092915050565b60008083601f840112612a5a57600080fd5b8235905067ffffffffffffffff811115612a7357600080fd5b602083019150836020820283011115612a8b57600080fd5b9250929050565b600082601f830112612aa357600080fd5b8135612ab3848260208601612921565b91505092915050565b600081359050612acb8161425d565b92915050565b600081359050612ae081614274565b92915050565b600081519050612af581614274565b92915050565b600082601f830112612b0c57600080fd5b8135612b1c84826020860161298d565b91505092915050565b600082601f830112612b3657600080fd5b8135612b468482602086016129cb565b91505092915050565b600081359050612b5e8161428b565b92915050565b600081359050612b73816142a2565b92915050565b60008060408385031215612b8c57600080fd5b6000612b9a85828601612a09565b9250506020612bab85828601612a09565b9150509250929050565b600080600080600060a08688031215612bcd57600080fd5b6000612bdb88828901612a09565b9550506020612bec88828901612a09565b945050604086013567ffffffffffffffff811115612c0957600080fd5b612c1588828901612a92565b935050606086013567ffffffffffffffff811115612c3257600080fd5b612c3e88828901612a92565b925050608086013567ffffffffffffffff811115612c5b57600080fd5b612c6788828901612afb565b9150509295509295909350565b600080600080600060a08688031215612c8c57600080fd5b6000612c9a88828901612a09565b9550506020612cab88828901612a09565b9450506040612cbc88828901612b64565b9350506060612ccd88828901612b64565b925050608086013567ffffffffffffffff811115612cea57600080fd5b612cf688828901612afb565b9150509295509295909350565b60008060008060008060808789031215612d1c57600080fd5b6000612d2a89828a01612a09565b965050602087013567ffffffffffffffff811115612d4757600080fd5b612d5389828a01612a48565b9550955050604087013567ffffffffffffffff811115612d7257600080fd5b612d7e89828a01612a48565b9350935050606087013567ffffffffffffffff811115612d9d57600080fd5b612da989828a01612afb565b9150509295509295509295565b60008060408385031215612dc957600080fd5b6000612dd785828601612a09565b9250506020612de885828601612abc565b9150509250929050565b60008060408385031215612e0557600080fd5b6000612e1385828601612a09565b9250506020612e2485828601612b4f565b9150509250929050565b60008060408385031215612e4157600080fd5b6000612e4f85828601612a09565b9250506020612e6085828601612b64565b9150509250929050565b60008060408385031215612e7d57600080fd5b600083013567ffffffffffffffff811115612e9757600080fd5b612ea385828601612a1e565b925050602083013567ffffffffffffffff811115612ec057600080fd5b612ecc85828601612a92565b9150509250929050565b60008060008060408587031215612eec57600080fd5b600085013567ffffffffffffffff811115612f0657600080fd5b612f1287828801612a48565b9450945050602085013567ffffffffffffffff811115612f3157600080fd5b612f3d87828801612a48565b925092505092959194509250565b600060208284031215612f5d57600080fd5b6000612f6b84828501612ad1565b91505092915050565b600060208284031215612f8657600080fd5b6000612f9484828501612ae6565b91505092915050565b600060208284031215612faf57600080fd5b600082013567ffffffffffffffff811115612fc957600080fd5b612fd584828501612b25565b91505092915050565b600060208284031215612ff057600080fd5b6000612ffe84828501612b64565b91505092915050565b6000806040838503121561301a57600080fd5b600061302885828601612b64565b925050602061303985828601612b64565b9150509250929050565b600061304f83836133e8565b60208301905092915050565b61306481613a95565b82525050565b600061307582613914565b61307f8185613942565b935061308a83613904565b8060005b838110156130bb5781516130a28882613043565b97506130ad83613935565b92505060018101905061308e565b5085935050505092915050565b6130d181613aa7565b82525050565b60006130e28261391f565b6130ec8185613953565b93506130fc818560208601613b26565b61310581613d14565b840191505092915050565b600061311b8261392a565b6131258185613964565b9350613135818560208601613b26565b61313e81613d14565b840191505092915050565b60006131548261392a565b61315e8185613975565b935061316e818560208601613b26565b80840191505092915050565b6000613187603483613964565b915061319282613d32565b604082019050919050565b60006131aa602883613964565b91506131b582613d81565b604082019050919050565b60006131cd602b83613964565b91506131d882613dd0565b604082019050919050565b60006131f0603183613964565b91506131fb82613e1f565b604082019050919050565b6000613213602483613964565b915061321e82613e6e565b604082019050919050565b6000613236602b83613964565b915061324182613ebd565b604082019050919050565b6000613259602983613964565b915061326482613f0c565b604082019050919050565b600061327c601083613964565b915061328782613f5b565b602082019050919050565b600061329f602583613964565b91506132aa82613f84565b604082019050919050565b60006132c2602383613964565b91506132cd82613fd3565b604082019050919050565b60006132e5602083613964565b91506132f082614022565b602082019050919050565b6000613308601d83613964565b91506133138261404b565b602082019050919050565b600061332b602983613964565b915061333682614074565b604082019050919050565b600061334e602983613964565b9150613359826140c3565b604082019050919050565b6000613371602883613964565b915061337c82614112565b604082019050919050565b6000613394602183613964565b915061339f82614161565b604082019050919050565b6040820160008201516133c060008501826133e8565b5060208201516133d360208501826133e8565b50505050565b6133e281613adf565b82525050565b6133f181613b0d565b82525050565b61340081613b0d565b82525050565b60006134128285613149565b915061341e8284613149565b91508190509392505050565b600060a08201905061343f600083018861305b565b61344c602083018761305b565b818103604083015261345e818661306a565b90508181036060830152613472818561306a565b9050818103608083015261348681846130d7565b90509695505050505050565b600060a0820190506134a7600083018861305b565b6134b4602083018761305b565b6134c160408301866133f7565b6134ce60608301856133f7565b81810360808301526134e081846130d7565b90509695505050505050565b6000604082019050613501600083018561305b565b61350e60208301846133f7565b9392505050565b6000602082019050818103600083015261352f818461306a565b905092915050565b60006040820190508181036000830152613551818561306a565b90508181036020830152613565818461306a565b90509392505050565b600060208201905061358360008301846130c8565b92915050565b600060208201905081810360008301526135a38184613110565b905092915050565b600060208201905081810360008301526135c48161317a565b9050919050565b600060208201905081810360008301526135e48161319d565b9050919050565b60006020820190508181036000830152613604816131c0565b9050919050565b60006020820190508181036000830152613624816131e3565b9050919050565b6000602082019050818103600083015261364481613206565b9050919050565b6000602082019050818103600083015261366481613229565b9050919050565b600060208201905081810360008301526136848161324c565b9050919050565b600060208201905081810360008301526136a48161326f565b9050919050565b600060208201905081810360008301526136c481613292565b9050919050565b600060208201905081810360008301526136e4816132b5565b9050919050565b60006020820190508181036000830152613704816132d8565b9050919050565b60006020820190508181036000830152613724816132fb565b9050919050565b600060208201905081810360008301526137448161331e565b9050919050565b6000602082019050818103600083015261376481613341565b9050919050565b6000602082019050818103600083015261378481613364565b9050919050565b600060208201905081810360008301526137a481613387565b9050919050565b60006040820190506137c060008301846133aa565b92915050565b60006020820190506137db60008301846133d9565b92915050565b60006020820190506137f660008301846133f7565b92915050565b600060408201905061381160008301856133f7565b61381e60208301846133f7565b9392505050565b600061382f613840565b905061383b8282613b8b565b919050565b6000604051905090565b600067ffffffffffffffff82111561386557613864613cc3565b5b602082029050602081019050919050565b600067ffffffffffffffff82111561389157613890613cc3565b5b602082029050602081019050919050565b600067ffffffffffffffff8211156138bd576138bc613cc3565b5b6138c682613d14565b9050602081019050919050565b600067ffffffffffffffff8211156138ee576138ed613cc3565b5b6138f782613d14565b9050602081019050919050565b6000819050602082019050919050565b600081519050919050565b600081519050919050565b600081519050919050565b6000602082019050919050565b600082825260208201905092915050565b600082825260208201905092915050565b600082825260208201905092915050565b600081905092915050565b600061398b82613b0d565b915061399683613b0d565b9250827fffffffffffffffffffffffffffffffffffffffffffffffffffffffffffffffff038211156139cb576139ca613c36565b5b828201905092915050565b60006139e182613b0d565b91506139ec83613b0d565b9250826139fc576139fb613c65565b5b828204905092915050565b6000613a1282613b0d565b9150613a1d83613b0d565b9250817fffffffffffffffffffffffffffffffffffffffffffffffffffffffffffffffff0483118215151615613a5657613a55613c36565b5b828202905092915050565b6000613a6c82613b0d565b9150613a7783613b0d565b925082821015613a8a57613a89613c36565b5b828203905092915050565b6000613aa082613aed565b9050919050565b60008115159050919050565b60007fffffffff0000000000000000000000000000000000000000000000000000000082169050919050565b600061ffff82169050919050565b600073ffffffffffffffffffffffffffffffffffffffff82169050919050565b6000819050919050565b82818337600083830152505050565b60005b83811015613b44578082015181840152602081019050613b29565b83811115613b53576000848401525b50505050565b60006002820490506001821680613b7157607f821691505b60208210811415613b8557613b84613c94565b5b50919050565b613b9482613d14565b810181811067ffffffffffffffff82111715613bb357613bb2613cc3565b5b80604052505050565b6000613bc782613b0d565b91507fffffffffffffffffffffffffffffffffffffffffffffffffffffffffffffffff821415613bfa57613bf9613c36565b5b600182019050919050565b6000613c1082613b0d565b9150613c1b83613b0d565b925082613c2b57613c2a613c65565b5b828206905092915050565b7f4e487b7100000000000000000000000000000000000000000000000000000000600052601160045260246000fd5b7f4e487b7100000000000000000000000000000000000000000000000000000000600052601260045260246000fd5b7f4e487b7100000000000000000000000000000000000000000000000000000000600052602260045260246000fd5b7f4e487b7100000000000000000000000000000000000000000000000000000000600052604160045260246000fd5b600060033d1115613d115760046000803e613d0e600051613d25565b90505b90565b6000601f19601f8301169050919050565b60008160e01c9050919050565b7f455243313135353a207472616e7366657220746f206e6f6e204552433131353560008201527f526563656976657220696d706c656d656e746572000000000000000000000000602082015250565b7f455243313135353a204552433131353552656365697665722072656a6563746560008201527f6420746f6b656e73000000000000000000000000000000000000000000000000602082015250565b7f455243313135353a2062616c616e636520717565727920666f7220746865207a60008201527f65726f2061646472657373000000000000000000000000000000000000000000602082015250565b7f455243313135353a2062617463682062616c616e636520717565727920666f7260008201527f20746865207a65726f2061646472657373000000000000000000000000000000602082015250565b7f455243313135353a206275726e20616d6f756e7420657863656564732062616c60008201527f616e636500000000000000000000000000000000000000000000000000000000602082015250565b7f455243313135353a20696e73756666696369656e742062616c616e636573206660008201527f6f72207472616e73666572000000000000000000000000000000000000000000602082015250565b7f455243313135353a2063616c6c6572206973206e6f74206f776e6572206e6f7260008201527f20617070726f7665640000000000000000000000000000000000000000000000602082015250565b7f5061757361626c653a2070617573656400000000000000000000000000000000600082015250565b7f455243313135353a207472616e7366657220746f20746865207a65726f20616460008201527f6472657373000000000000000000000000000000000000000000000000000000602082015250565b7f455243313135353a206275726e2066726f6d20746865207a65726f206164647260008201527f6573730000000000000000000000000000000000000000000000000000000000602082015250565b7f44654d696e654e46543a206d696e6564206f72206d696e696e6720746f6b656e600082015250565b7f4f776e61626c653a2073656e646572206d757374206265206f776e6572000000600082015250565b7f455243313135353a2073657474696e6720617070726f76616c2073746174757360008201527f20666f722073656c660000000000000000000000000000000000000000000000602082015250565b7f455243313135353a206163636f756e747320616e6420696473206c656e67746860008201527f206d69736d617463680000000000000000000000000000000000000000000000602082015250565b7f455243313135353a2069647320616e6420616d6f756e7473206c656e6774682060008201527f6d69736d61746368000000000000000000000000000000000000000000000000602082015250565b7f455243313135353a206d696e7420746f20746865207a65726f2061646472657360008201527f7300000000000000000000000000000000000000000000000000000000000000602082015250565b600060443d10156141c057614243565b6141c8613840565b60043d036004823e80513d602482011167ffffffffffffffff821117156141f0575050614243565b808201805167ffffffffffffffff81111561420e5750505050614243565b80602083010160043d03850181111561422b575050505050614243565b61423a82602001850186613b8b565b82955050505050505b90565b61424f81613a95565b811461425a57600080fd5b50565b61426681613aa7565b811461427157600080fd5b50565b61427d81613ab3565b811461428857600080fd5b50565b61429481613adf565b811461429f57600080fd5b50565b6142ab81613b0d565b81146142b657600080fd5b5056fea264697066735822122084af26aedaeccd0228d1669d237789dbb2ef6117ea84661a5246a891ca93591f64736f6c63430008040033",
  "devdoc": {
    "kind": "dev",
    "methods": {
      "balanceOf(address,uint256)": {
        "params": {
          "account": "address to query",
          "id": "token to query"
        },
        "returns": {
          "_0": "token balance"
        }
      },
      "balanceOfBatch(address[],uint256[])": {
        "params": {
          "accounts": "addresss to query",
          "ids": "tokens to query"
        },
        "returns": {
          "_0": "token balances"
        }
      },
      "isApprovedForAll(address,address)": {
        "params": {
          "account": "address to query for approval granted",
          "operator": "address to query for approval received"
        },
        "returns": {
          "_0": "whether operator is approved to spend tokens held by account"
        }
      },
      "safeBatchTransferFrom(address,address,uint256[],uint256[],bytes)": {
        "params": {
          "amounts": "list of quantities of tokens to transfer",
          "data": "data payload",
          "from": "sender of tokens",
          "ids": "list of token IDs",
          "to": "receiver of tokens"
        }
      },
      "safeTransferFrom(address,address,uint256,uint256,bytes)": {
        "params": {
          "amount": "quantity of tokens to transfer",
          "data": "data payload",
          "from": "sender of tokens",
          "id": "token ID",
          "to": "receiver of tokens"
        }
      },
      "setApprovalForAll(address,bool)": {
        "params": {
          "operator": "address whose approval status to update",
          "status": "whether operator should be considered approved"
        }
      },
      "supportsInterface(bytes4)": {
        "params": {
          "interfaceId": "interface id"
        },
        "returns": {
          "_0": "bool whether interface is supported"
        }
      }
    },
    "version": 1
  },
  "userdoc": {
    "kind": "user",
    "methods": {
      "balanceOf(address,uint256)": {
        "notice": "query the balance of given token held by given address"
      },
      "balanceOfBatch(address[],uint256[])": {
        "notice": "query the balances of given tokens held by given addresses"
      },
      "isApprovedForAll(address,address)": {
        "notice": "query approval status of given operator with respect to given address"
      },
      "safeBatchTransferFrom(address,address,uint256[],uint256[],bytes)": {
        "notice": "transfer batch of tokens between given addresses, checking for ERC1155Receiver implementation if applicable"
      },
      "safeTransferFrom(address,address,uint256,uint256,bytes)": {
        "notice": "transfer tokens between given addresses, checking for ERC1155Receiver implementation if applicable"
      },
      "setApprovalForAll(address,bool)": {
        "notice": "grant approval to or revoke approval from given operator to spend held tokens"
      },
      "supportsInterface(bytes4)": {
        "notice": "query whether contract has registered support for given interface"
      },
      "uri(uint256)": {
        "notice": "inheritdoc IERC1155Metadata"
      }
    },
    "version": 1
  },
  "storageLayout": {
    "storage": [
      {
        "astId": 7155,
        "contract": "contracts/nft/facets/ERC1155Facet.sol:ERC1155Facet",
        "label": "s",
        "offset": 0,
        "slot": "0",
        "type": "t_struct(AppStorage)7776_storage"
      }
    ],
    "types": {
      "t_address": {
        "encoding": "inplace",
        "label": "address",
        "numberOfBytes": "20"
      },
      "t_contract(IERC20)209": {
        "encoding": "inplace",
        "label": "contract IERC20",
        "numberOfBytes": "20"
      },
      "t_mapping(t_uint256,t_struct(Token)7757_storage)": {
        "encoding": "mapping",
        "key": "t_uint256",
        "label": "mapping(uint256 => struct Token)",
        "numberOfBytes": "32",
        "value": "t_struct(Token)7757_storage"
      },
      "t_struct(AppStorage)7776_storage": {
        "encoding": "inplace",
        "label": "struct AppStorage",
        "members": [
          {
            "astId": 7765,
            "contract": "contracts/nft/facets/ERC1155Facet.sol:ERC1155Facet",
            "label": "income",
            "offset": 0,
            "slot": "0",
            "type": "t_contract(IERC20)209"
          },
          {
            "astId": 7767,
            "contract": "contracts/nft/facets/ERC1155Facet.sol:ERC1155Facet",
            "label": "mining",
            "offset": 0,
            "slot": "1",
            "type": "t_uint256"
          },
          {
            "astId": 7772,
            "contract": "contracts/nft/facets/ERC1155Facet.sol:ERC1155Facet",
            "label": "tokens",
            "offset": 0,
            "slot": "2",
            "type": "t_mapping(t_uint256,t_struct(Token)7757_storage)"
          },
          {
            "astId": 7775,
            "contract": "contracts/nft/facets/ERC1155Facet.sol:ERC1155Facet",
            "label": "royalty",
            "offset": 0,
            "slot": "3",
            "type": "t_struct(RoyaltyInfo)7762_storage"
          }
        ],
        "numberOfBytes": "128"
      },
      "t_struct(RoyaltyInfo)7762_storage": {
        "encoding": "inplace",
        "label": "struct RoyaltyInfo",
        "members": [
          {
            "astId": 7759,
            "contract": "contracts/nft/facets/ERC1155Facet.sol:ERC1155Facet",
            "label": "recipient",
            "offset": 0,
            "slot": "0",
            "type": "t_address"
          },
          {
            "astId": 7761,
            "contract": "contracts/nft/facets/ERC1155Facet.sol:ERC1155Facet",
            "label": "bps",
            "offset": 20,
            "slot": "0",
            "type": "t_uint16"
          }
        ],
        "numberOfBytes": "32"
      },
      "t_struct(Token)7757_storage": {
        "encoding": "inplace",
        "label": "struct Token",
        "members": [
          {
            "astId": 7754,
            "contract": "contracts/nft/facets/ERC1155Facet.sol:ERC1155Facet",
            "label": "supply",
            "offset": 0,
            "slot": "0",
            "type": "t_uint256"
          },
          {
            "astId": 7756,
            "contract": "contracts/nft/facets/ERC1155Facet.sol:ERC1155Facet",
            "label": "income",
            "offset": 0,
            "slot": "1",
            "type": "t_uint256"
          }
        ],
        "numberOfBytes": "64"
      },
      "t_uint16": {
        "encoding": "inplace",
        "label": "uint16",
        "numberOfBytes": "2"
      },
      "t_uint256": {
        "encoding": "inplace",
        "label": "uint256",
        "numberOfBytes": "32"
      }
    }
  }
}