{
  "address": "0x3CD25EB666d6CA7fCe4c76FfE98BDe19E985629C",
  "abi": [
    {
      "anonymous": false,
      "inputs": [
        {
          "indexed": true,
          "internalType": "address",
          "name": "account",
          "type": "address"
        },
        {
          "indexed": true,
          "internalType": "address",
          "name": "operator",
          "type": "address"
        },
        {
          "indexed": false,
          "internalType": "bool",
          "name": "approved",
          "type": "bool"
        }
      ],
      "name": "ApprovalForAll",
      "type": "event"
    },
    {
      "anonymous": false,
      "inputs": [
        {
          "indexed": false,
          "internalType": "uint16",
          "name": "",
          "type": "uint16"
        }
      ],
      "name": "TokenRoyaltyBpsSet",
      "type": "event"
    },
    {
      "anonymous": false,
      "inputs": [
        {
          "indexed": true,
          "internalType": "address",
          "name": "operator",
          "type": "address"
        },
        {
          "indexed": true,
          "internalType": "address",
          "name": "from",
          "type": "address"
        },
        {
          "indexed": true,
          "internalType": "address",
          "name": "to",
          "type": "address"
        },
        {
          "indexed": false,
          "internalType": "uint256[]",
          "name": "ids",
          "type": "uint256[]"
        },
        {
          "indexed": false,
          "internalType": "uint256[]",
          "name": "values",
          "type": "uint256[]"
        }
      ],
      "name": "TransferBatch",
      "type": "event"
    },
    {
      "anonymous": false,
      "inputs": [
        {
          "indexed": true,
          "internalType": "address",
          "name": "operator",
          "type": "address"
        },
        {
          "indexed": true,
          "internalType": "address",
          "name": "from",
          "type": "address"
        },
        {
          "indexed": true,
          "internalType": "address",
          "name": "to",
          "type": "address"
        },
        {
          "indexed": false,
          "internalType": "uint256",
          "name": "id",
          "type": "uint256"
        },
        {
          "indexed": false,
          "internalType": "uint256",
          "name": "value",
          "type": "uint256"
        }
      ],
      "name": "TransferSingle",
      "type": "event"
    },
    {
      "anonymous": false,
      "inputs": [
        {
          "indexed": false,
          "internalType": "string",
          "name": "value",
          "type": "string"
        },
        {
          "indexed": true,
          "internalType": "uint256",
          "name": "tokenId",
          "type": "uint256"
        }
      ],
      "name": "URI",
      "type": "event"
    },
    {
      "inputs": [
        {
          "internalType": "address",
          "name": "account",
          "type": "address"
        },
        {
          "internalType": "uint256",
          "name": "id",
          "type": "uint256"
        }
      ],
      "name": "balanceOf",
      "outputs": [
        {
          "internalType": "uint256",
          "name": "",
          "type": "uint256"
        }
      ],
      "stateMutability": "view",
      "type": "function"
    },
    {
      "inputs": [
        {
          "internalType": "address[]",
          "name": "accounts",
          "type": "address[]"
        },
        {
          "internalType": "uint256[]",
          "name": "ids",
          "type": "uint256[]"
        }
      ],
      "name": "balanceOfBatch",
      "outputs": [
        {
          "internalType": "uint256[]",
          "name": "",
          "type": "uint256[]"
        }
      ],
      "stateMutability": "view",
      "type": "function"
    },
    {
      "inputs": [
        {
          "internalType": "uint256[]",
          "name": "ids",
          "type": "uint256[]"
        },
        {
          "internalType": "uint256[]",
          "name": "amounts",
          "type": "uint256[]"
        }
      ],
      "name": "burnBatch",
      "outputs": [],
      "stateMutability": "nonpayable",
      "type": "function"
    },
    {
      "inputs": [
        {
          "internalType": "address",
          "name": "account",
          "type": "address"
        },
        {
          "internalType": "address",
          "name": "operator",
          "type": "address"
        }
      ],
      "name": "isApprovedForAll",
      "outputs": [
        {
          "internalType": "bool",
          "name": "",
          "type": "bool"
        }
      ],
      "stateMutability": "view",
      "type": "function"
    },
    {
      "inputs": [
        {
          "internalType": "address",
          "name": "account",
          "type": "address"
        },
        {
          "internalType": "uint256[]",
          "name": "ids",
          "type": "uint256[]"
        },
        {
          "internalType": "uint256[]",
          "name": "amounts",
          "type": "uint256[]"
        },
        {
          "internalType": "bytes",
          "name": "data",
          "type": "bytes"
        }
      ],
      "name": "mintBatch",
      "outputs": [],
      "stateMutability": "nonpayable",
      "type": "function"
    },
    {
      "inputs": [
        {
          "internalType": "uint256",
          "name": "",
          "type": "uint256"
        },
        {
          "internalType": "uint256",
          "name": "value",
          "type": "uint256"
        }
      ],
      "name": "royaltyInfo",
      "outputs": [
        {
          "internalType": "address",
          "name": "",
          "type": "address"
        },
        {
          "internalType": "uint256",
          "name": "",
          "type": "uint256"
        }
      ],
      "stateMutability": "view",
      "type": "function"
    },
    {
      "inputs": [
        {
          "internalType": "address",
          "name": "from",
          "type": "address"
        },
        {
          "internalType": "address",
          "name": "to",
          "type": "address"
        },
        {
          "internalType": "uint256[]",
          "name": "ids",
          "type": "uint256[]"
        },
        {
          "internalType": "uint256[]",
          "name": "amounts",
          "type": "uint256[]"
        },
        {
          "internalType": "bytes",
          "name": "data",
          "type": "bytes"
        }
      ],
      "name": "safeBatchTransferFrom",
      "outputs": [],
      "stateMutability": "nonpayable",
      "type": "function"
    },
    {
      "inputs": [
        {
          "internalType": "address",
          "name": "from",
          "type": "address"
        },
        {
          "internalType": "address",
          "name": "to",
          "type": "address"
        },
        {
          "internalType": "uint256",
          "name": "id",
          "type": "uint256"
        },
        {
          "internalType": "uint256",
          "name": "amount",
          "type": "uint256"
        },
        {
          "internalType": "bytes",
          "name": "data",
          "type": "bytes"
        }
      ],
      "name": "safeTransferFrom",
      "outputs": [],
      "stateMutability": "nonpayable",
      "type": "function"
    },
    {
      "inputs": [
        {
          "internalType": "address",
          "name": "operator",
          "type": "address"
        },
        {
          "internalType": "bool",
          "name": "status",
          "type": "bool"
        }
      ],
      "name": "setApprovalForAll",
      "outputs": [],
      "stateMutability": "nonpayable",
      "type": "function"
    },
    {
      "inputs": [
        {
          "internalType": "address",
          "name": "recipient",
          "type": "address"
        },
        {
          "internalType": "uint16",
          "name": "bps",
          "type": "uint16"
        }
      ],
      "name": "setRoyaltyInfo",
      "outputs": [],
      "stateMutability": "nonpayable",
      "type": "function"
    },
    {
      "inputs": [
        {
          "internalType": "string",
          "name": "baseURI",
          "type": "string"
        }
      ],
      "name": "setURI",
      "outputs": [],
      "stateMutability": "nonpayable",
      "type": "function"
    },
    {
      "inputs": [
        {
          "internalType": "bytes4",
          "name": "interfaceId",
          "type": "bytes4"
        }
      ],
      "name": "supportsInterface",
      "outputs": [
        {
          "internalType": "bool",
          "name": "",
          "type": "bool"
        }
      ],
      "stateMutability": "view",
      "type": "function"
    },
    {
      "inputs": [
        {
          "internalType": "uint256",
          "name": "tokenId",
          "type": "uint256"
        }
      ],
      "name": "uri",
      "outputs": [
        {
          "internalType": "string",
          "name": "",
          "type": "string"
        }
      ],
      "stateMutability": "view",
      "type": "function"
    }
  ],
  "transactionHash": "0x2b1e49b8eee02ab46deadbfafdd37aff007f1dd712e240ebefeb3c7217698e06",
  "args": [],
  "numDeployments": 1,
  "solcInputHash": "91f67aea1dc348227e3f6da62b6e39f7",
  "bytecode": "0x608060405234801561001057600080fd5b50614064806100206000396000f3fe608060405234801561001057600080fd5b50600436106100ce5760003560e01c80632eb2c2d61161008c57806383ca4b6f1161006657806383ca4b6f14610234578063a22cb46514610250578063e985e9c51461026c578063f242432a1461029c576100ce565b80632eb2c2d6146101cc5780634e1273f4146101e857806372504a2414610218576100ce565b8062fdd58e146100d357806301ffc9a71461010357806302fe5305146101335780630e89341c1461014f5780631f7fdffa1461017f5780632a55205a1461019b575b600080fd5b6100ed60048036038101906100e89190612bf6565b6102b8565b6040516100fa9190613556565b60405180910390f35b61011d60048036038101906101189190612d0a565b6102cc565b60405161012a91906132fe565b60405180910390f35b61014d60048036038101906101489190612d5c565b6102ef565b005b61016960048036038101906101649190612d9d565b610394565b6040516101769190613319565b60405180910390f35b61019960048036038101906101949190612ad3565b610555565b005b6101b560048036038101906101b09190612dc6565b610600565b6040516101c392919061327c565b60405180910390f35b6101e660048036038101906101e19190612985565b6106be565b005b61020260048036038101906101fd9190612c32565b610752565b60405161020f91906132a5565b60405180910390f35b610232600480360381019061022d9190612bba565b610a05565b005b61024e60048036038101906102499190612c9e565b610b7a565b005b61026a60048036038101906102659190612b7e565b610b89565b005b61028660048036038101906102819190612949565b610cfe565b60405161029391906132fe565b60405180910390f35b6102b660048036038101906102b19190612a44565b610d9b565b005b60006102c48383610e2f565b905092915050565b60006102e8826102da610f02565b610f2f90919063ffffffff16565b9050919050565b6102f7610f9a565b60000160009054906101000a900473ffffffffffffffffffffffffffffffffffffffff1673ffffffffffffffffffffffffffffffffffffffff163373ffffffffffffffffffffffffffffffffffffffff1614610388576040517f08c379a000000000000000000000000000000000000000000000000000000000815260040161037f9061349b565b60405180910390fd5b61039181610fc7565b50565b606060006103a0610fea565b9050600081600101600085815260200190815260200160002080546103c4906138ce565b80601f01602080910402602001604051908101604052809291908181526020018280546103f0906138ce565b801561043d5780601f106104125761010080835404028352916020019161043d565b820191906000526020600020905b81548152906001019060200180831161042057829003601f168201915b505050505090506000826000018054610455906138ce565b80601f0160208091040260200160405190810160405280929190818152602001828054610481906138ce565b80156104ce5780601f106104a3576101008083540402835291602001916104ce565b820191906000526020600020905b8154815290600101906020018083116104b157829003601f168201915b505050505090506000815114156104ea57819350505050610550565b600082511115610520578082604051602001610507929190613196565b6040516020818303038152906040529350505050610550565b8061052a86611017565b60405160200161053b929190613196565b60405160208183030381529060405293505050505b919050565b61055d610f9a565b60000160009054906101000a900473ffffffffffffffffffffffffffffffffffffffff1673ffffffffffffffffffffffffffffffffffffffff163373ffffffffffffffffffffffffffffffffffffffff16146105ee576040517f08c379a00000000000000000000000000000000000000000000000000000000081526004016105e59061349b565b60405180910390fd5b6105fa848484846111c4565b50505050565b6000806000806003016040518060400160405290816000820160009054906101000a900473ffffffffffffffffffffffffffffffffffffffff1673ffffffffffffffffffffffffffffffffffffffff1673ffffffffffffffffffffffffffffffffffffffff1681526020016000820160149054906101000a900461ffff1661ffff1661ffff168152505090508060000151612710826020015161ffff16866106a8919061377c565b6106b2919061374b565b92509250509250929050565b3373ffffffffffffffffffffffffffffffffffffffff168573ffffffffffffffffffffffffffffffffffffffff1614806106fe57506106fd8533610cfe565b5b61073d576040517f08c379a0000000000000000000000000000000000000000000000000000000008152600401610734906133fb565b60405180910390fd5b61074b3386868686866111e5565b5050505050565b60608151835114610798576040517f08c379a000000000000000000000000000000000000000000000000000000000815260040161078f906134db565b60405180910390fd5b60006107a2611209565b60000190506000845167ffffffffffffffff8111156107ea577f4e487b7100000000000000000000000000000000000000000000000000000000600052604160045260246000fd5b6040519080825280602002602001820160405280156108185781602001602082028036833780820191505090505b50905060005b85518110156109f957600073ffffffffffffffffffffffffffffffffffffffff16868281518110610878577f4e487b7100000000000000000000000000000000000000000000000000000000600052603260045260246000fd5b602002602001015173ffffffffffffffffffffffffffffffffffffffff1614156108d7576040517f08c379a00000000000000000000000000000000000000000000000000000000081526004016108ce9061339b565b60405180910390fd5b826000868381518110610913577f4e487b7100000000000000000000000000000000000000000000000000000000600052603260045260246000fd5b602002602001015181526020019081526020016000206000878381518110610964577f4e487b7100000000000000000000000000000000000000000000000000000000600052603260045260246000fd5b602002602001015173ffffffffffffffffffffffffffffffffffffffff1673ffffffffffffffffffffffffffffffffffffffff168152602001908152602001600020548282815181106109e0577f4e487b7100000000000000000000000000000000000000000000000000000000600052603260045260246000fd5b602002602001018181525050808060010191505061081e565b50809250505092915050565b610a0d610f9a565b60000160009054906101000a900473ffffffffffffffffffffffffffffffffffffffff1673ffffffffffffffffffffffffffffffffffffffff163373ffffffffffffffffffffffffffffffffffffffff1614610a9e576040517f08c379a0000000000000000000000000000000000000000000000000000000008152600401610a959061349b565b60405180910390fd5b60405180604001604052808373ffffffffffffffffffffffffffffffffffffffff1681526020018261ffff16815250600060030160008201518160000160006101000a81548173ffffffffffffffffffffffffffffffffffffffff021916908373ffffffffffffffffffffffffffffffffffffffff16021790555060208201518160000160146101000a81548161ffff021916908361ffff1602179055509050507f577133166751d165db2e7f4c7b9f50ef67bf80781894fc7f4d53df1067a39df181604051610b6e919061353b565b60405180910390a15050565b610b85338383611236565b5050565b8173ffffffffffffffffffffffffffffffffffffffff163373ffffffffffffffffffffffffffffffffffffffff161415610bf8576040517f08c379a0000000000000000000000000000000000000000000000000000000008152600401610bef906134bb565b60405180910390fd5b80610c01611209565b60010160003373ffffffffffffffffffffffffffffffffffffffff1673ffffffffffffffffffffffffffffffffffffffff16815260200190815260200160002060008473ffffffffffffffffffffffffffffffffffffffff1673ffffffffffffffffffffffffffffffffffffffff16815260200190815260200160002060006101000a81548160ff0219169083151502179055508173ffffffffffffffffffffffffffffffffffffffff163373ffffffffffffffffffffffffffffffffffffffff167f17307eab39ab6107e8899845ad3d59bd9653f200f220920489ca2b5937696c3183604051610cf291906132fe565b60405180910390a35050565b6000610d08611209565b60010160008473ffffffffffffffffffffffffffffffffffffffff1673ffffffffffffffffffffffffffffffffffffffff16815260200190815260200160002060008373ffffffffffffffffffffffffffffffffffffffff1673ffffffffffffffffffffffffffffffffffffffff16815260200190815260200160002060009054906101000a900460ff16905092915050565b3373ffffffffffffffffffffffffffffffffffffffff168573ffffffffffffffffffffffffffffffffffffffff161480610ddb5750610dda8533610cfe565b5b610e1a576040517f08c379a0000000000000000000000000000000000000000000000000000000008152600401610e11906133fb565b60405180910390fd5b610e2833868686868661156b565b5050505050565b60008073ffffffffffffffffffffffffffffffffffffffff168373ffffffffffffffffffffffffffffffffffffffff161415610ea0576040517f08c379a0000000000000000000000000000000000000000000000000000000008152600401610e979061337b565b60405180910390fd5b610ea8611209565b600001600083815260200190815260200160002060008473ffffffffffffffffffffffffffffffffffffffff1673ffffffffffffffffffffffffffffffffffffffff16815260200190815260200160002054905092915050565b6000807f326d0c59a7612f6a9919e2a8ee333c80ba689d8ba2634de89c85cbb04832e70590508091505090565b6000826000016000837bffffffffffffffffffffffffffffffffffffffffffffffffffffffff19167bffffffffffffffffffffffffffffffffffffffffffffffffffffffff1916815260200190815260200160002060009054906101000a900460ff16905092915050565b6000807f8a22373512790c48b83a1fe2efdd2888d4a917bcdc24d0adf63e60f67168046090508091505090565b80610fd0610fea565b6000019080519060200190610fe692919061262c565b5050565b6000807f4281b61aefbe70b3d3f684b428efca5f33077bc240e76f2808f9177c307617f490508091505090565b6060600082141561105f576040518060400160405280600181526020017f300000000000000000000000000000000000000000000000000000000000000081525090506111bf565b600082905060005b6000821461109157808061107a90613931565b915050600a8261108a919061374b565b9150611067565b60008167ffffffffffffffff8111156110d3577f4e487b7100000000000000000000000000000000000000000000000000000000600052604160045260246000fd5b6040519080825280601f01601f1916602001820160405280156111055781602001600182028036833780820191505090505b5090505b600085146111b85760018261111e91906137d6565b9150600a8561112d919061397a565b603061113991906136f5565b60f81b818381518110611175577f4e487b7100000000000000000000000000000000000000000000000000000000600052603260045260246000fd5b60200101907effffffffffffffffffffffffffffffffffffffffffffffffffffffffffffff1916908160001a905350600a856111b1919061374b565b9450611109565b8093505050505b919050565b6111d08484848461158f565b6111df336000868686866117ed565b50505050565b6111f38686868686866119d4565b6112018686868686866117ed565b505050505050565b6000807f1799cf914cb0cb442ca7c7ac709ee40d0cb89e87351dc08d517fbda27d50c68b90508091505090565b600073ffffffffffffffffffffffffffffffffffffffff168373ffffffffffffffffffffffffffffffffffffffff1614156112a6576040517f08c379a000000000000000000000000000000000000000000000000000000000815260040161129d9061345b565b60405180910390fd5b80518251146112ea576040517f08c379a00000000000000000000000000000000000000000000000000000000081526004016112e1906134fb565b60405180910390fd5b61130833846000858560405180602001604052806000815250611d2c565b6000611312611209565b600001905060005b83518110156114e557600084828151811061135e577f4e487b7100000000000000000000000000000000000000000000000000000000600052603260045260246000fd5b602002602001015190508382815181106113a1577f4e487b7100000000000000000000000000000000000000000000000000000000600052603260045260246000fd5b602002602001015183600083815260200190815260200160002060008873ffffffffffffffffffffffffffffffffffffffff1673ffffffffffffffffffffffffffffffffffffffff16815260200190815260200160002054101561143a576040517f08c379a0000000000000000000000000000000000000000000000000000000008152600401611431906133bb565b60405180910390fd5b838281518110611473577f4e487b7100000000000000000000000000000000000000000000000000000000600052603260045260246000fd5b602002602001015183600083815260200190815260200160002060008873ffffffffffffffffffffffffffffffffffffffff1673ffffffffffffffffffffffffffffffffffffffff1681526020019081526020016000206000828254039250508190555050808060010191505061131a565b50600073ffffffffffffffffffffffffffffffffffffffff168473ffffffffffffffffffffffffffffffffffffffff163373ffffffffffffffffffffffffffffffffffffffff167f4a39dc06d4c0dbc64b70af90fd698a233a518aa5d07e595d983b8c0526c8f7fb868660405161155d9291906132c7565b60405180910390a450505050565b6115798686868686866120bf565b611587868686868686612337565b505050505050565b600073ffffffffffffffffffffffffffffffffffffffff168473ffffffffffffffffffffffffffffffffffffffff1614156115ff576040517f08c379a00000000000000000000000000000000000000000000000000000000081526004016115f69061351b565b60405180910390fd5b8151835114611643576040517f08c379a000000000000000000000000000000000000000000000000000000000815260040161163a906134fb565b60405180910390fd5b61165233600086868686611d2c565b600061165c611209565b600001905060005b8451811015611766578381815181106116a6577f4e487b7100000000000000000000000000000000000000000000000000000000600052603260045260246000fd5b60200260200101518260008784815181106116ea577f4e487b7100000000000000000000000000000000000000000000000000000000600052603260045260246000fd5b6020026020010151815260200190815260200160002060008873ffffffffffffffffffffffffffffffffffffffff1673ffffffffffffffffffffffffffffffffffffffff168152602001908152602001600020600082825461174c91906136f5565b92505081905550808061175e90613931565b915050611664565b508473ffffffffffffffffffffffffffffffffffffffff16600073ffffffffffffffffffffffffffffffffffffffff163373ffffffffffffffffffffffffffffffffffffffff167f4a39dc06d4c0dbc64b70af90fd698a233a518aa5d07e595d983b8c0526c8f7fb87876040516117de9291906132c7565b60405180910390a45050505050565b61180c8473ffffffffffffffffffffffffffffffffffffffff1661251e565b156119cc578373ffffffffffffffffffffffffffffffffffffffff1663bc197c8187878686866040518663ffffffff1660e01b81526004016118529594939291906131ba565b602060405180830381600087803b15801561186c57600080fd5b505af192505050801561189d57506040513d601f19601f8201168201806040525081019061189a9190612d33565b60015b611943576118a9613a67565b806308c379a0141561190657506118be613f25565b806118c95750611908565b806040517f08c379a00000000000000000000000000000000000000000000000000000000081526004016118fd9190613319565b60405180910390fd5b505b6040517f08c379a000000000000000000000000000000000000000000000000000000000815260040161193a9061333b565b60405180910390fd5b63bc197c8160e01b7bffffffffffffffffffffffffffffffffffffffffffffffffffffffff1916817bffffffffffffffffffffffffffffffffffffffffffffffffffffffff1916146119ca576040517f08c379a00000000000000000000000000000000000000000000000000000000081526004016119c19061335b565b60405180910390fd5b505b505050505050565b600073ffffffffffffffffffffffffffffffffffffffff168473ffffffffffffffffffffffffffffffffffffffff161415611a44576040517f08c379a0000000000000000000000000000000000000000000000000000000008152600401611a3b9061343b565b60405180910390fd5b8151835114611a88576040517f08c379a0000000000000000000000000000000000000000000000000000000008152600401611a7f906134fb565b60405180910390fd5b611a96868686868686611d2c565b6000611aa0611209565b600001905060005b8451811015611ca4576000858281518110611aec577f4e487b7100000000000000000000000000000000000000000000000000000000600052603260045260246000fd5b602002602001015190506000858381518110611b31577f4e487b7100000000000000000000000000000000000000000000000000000000600052603260045260246000fd5b60200260200101519050600084600084815260200190815260200160002060008b73ffffffffffffffffffffffffffffffffffffffff1673ffffffffffffffffffffffffffffffffffffffff16815260200190815260200160002054905081811015611bd2576040517f08c379a0000000000000000000000000000000000000000000000000000000008152600401611bc9906133db565b60405180910390fd5b81810385600085815260200190815260200160002060008c73ffffffffffffffffffffffffffffffffffffffff1673ffffffffffffffffffffffffffffffffffffffff16815260200190815260200160002081905550508084600084815260200190815260200160002060008a73ffffffffffffffffffffffffffffffffffffffff1673ffffffffffffffffffffffffffffffffffffffff1681526020019081526020016000206000828254611c8891906136f5565b9250508190555050508080611c9c90613931565b915050611aa8565b508473ffffffffffffffffffffffffffffffffffffffff168673ffffffffffffffffffffffffffffffffffffffff168873ffffffffffffffffffffffffffffffffffffffff167f4a39dc06d4c0dbc64b70af90fd698a233a518aa5d07e595d983b8c0526c8f7fb8787604051611d1b9291906132c7565b60405180910390a450505050505050565b611d34612531565b60000160009054906101000a900460ff1615611d85576040517f08c379a0000000000000000000000000000000000000000000000000000000008152600401611d7c9061341b565b60405180910390fd5b611d9386868686868661255e565b600073ffffffffffffffffffffffffffffffffffffffff168473ffffffffffffffffffffffffffffffffffffffff161415611f255760008060010154905060005b8451811015611f225781858281518110611e17577f4e487b7100000000000000000000000000000000000000000000000000000000600052603260045260246000fd5b602002602001015111611e5f576040517f08c379a0000000000000000000000000000000000000000000000000000000008152600401611e569061347b565b60405180910390fd5b838181518110611e98577f4e487b7100000000000000000000000000000000000000000000000000000000600052603260045260246000fd5b602002602001015160006002016000878481518110611ee0577f4e487b7100000000000000000000000000000000000000000000000000000000600052603260045260246000fd5b602002602001015181526020019081526020016000206000016000828254611f0891906137d6565b925050819055508080611f1a90613931565b915050611dd4565b50505b600073ffffffffffffffffffffffffffffffffffffffff168573ffffffffffffffffffffffffffffffffffffffff1614156120b75760008060010154905060005b84518110156120b45781858281518110611fa9577f4e487b7100000000000000000000000000000000000000000000000000000000600052603260045260246000fd5b602002602001015111611ff1576040517f08c379a0000000000000000000000000000000000000000000000000000000008152600401611fe89061347b565b60405180910390fd5b83818151811061202a577f4e487b7100000000000000000000000000000000000000000000000000000000600052603260045260246000fd5b602002602001015160006002016000878481518110612072577f4e487b7100000000000000000000000000000000000000000000000000000000600052603260045260246000fd5b60200260200101518152602001908152602001600020600001600082825461209a91906136f5565b9250508190555080806120ac90613931565b915050611f66565b50505b505050505050565b600073ffffffffffffffffffffffffffffffffffffffff168473ffffffffffffffffffffffffffffffffffffffff16141561212f576040517f08c379a00000000000000000000000000000000000000000000000000000000081526004016121269061343b565b60405180910390fd5b61214d86868661213e87612566565b61214787612566565b86611d2c565b6000612157611209565b6000019050600081600086815260200190815260200160002060008873ffffffffffffffffffffffffffffffffffffffff1673ffffffffffffffffffffffffffffffffffffffff168152602001908152602001600020549050838110156121f3576040517f08c379a00000000000000000000000000000000000000000000000000000000081526004016121ea906133db565b60405180910390fd5b83810382600087815260200190815260200160002060008973ffffffffffffffffffffffffffffffffffffffff1673ffffffffffffffffffffffffffffffffffffffff16815260200190815260200160002081905550508281600086815260200190815260200160002060008773ffffffffffffffffffffffffffffffffffffffff1673ffffffffffffffffffffffffffffffffffffffff16815260200190815260200160002060008282546122a991906136f5565b925050819055508473ffffffffffffffffffffffffffffffffffffffff168673ffffffffffffffffffffffffffffffffffffffff168873ffffffffffffffffffffffffffffffffffffffff167fc3d58168c5ae7397731d063d5bbf3d657854427343f4c083240f7aacaa2d0f628787604051612326929190613571565b60405180910390a450505050505050565b6123568473ffffffffffffffffffffffffffffffffffffffff1661251e565b15612516578373ffffffffffffffffffffffffffffffffffffffff1663f23a6e6187878686866040518663ffffffff1660e01b815260040161239c959493929190613222565b602060405180830381600087803b1580156123b657600080fd5b505af19250505080156123e757506040513d601f19601f820116820180604052508101906123e49190612d33565b60015b61248d576123f3613a67565b806308c379a014156124505750612408613f25565b806124135750612452565b806040517f08c379a00000000000000000000000000000000000000000000000000000000081526004016124479190613319565b60405180910390fd5b505b6040517f08c379a00000000000000000000000000000000000000000000000000000000081526004016124849061333b565b60405180910390fd5b63f23a6e6160e01b7bffffffffffffffffffffffffffffffffffffffffffffffffffffffff1916817bffffffffffffffffffffffffffffffffffffffffffffffffffffffff191614612514576040517f08c379a000000000000000000000000000000000000000000000000000000000815260040161250b9061335b565b60405180910390fd5b505b505050505050565b600080823b905060008111915050919050565b6000807f68721c0bbf2c02a4d65000340d1370666be06a630022208d4baa9bd7a4b6fea890508091505090565b505050505050565b60606000600167ffffffffffffffff8111156125ab577f4e487b7100000000000000000000000000000000000000000000000000000000600052604160045260246000fd5b6040519080825280602002602001820160405280156125d95781602001602082028036833780820191505090505b5090508281600081518110612617577f4e487b7100000000000000000000000000000000000000000000000000000000600052603260045260246000fd5b60200260200101818152505080915050919050565b828054612638906138ce565b90600052602060002090601f01602090048101928261265a57600085556126a1565b82601f1061267357805160ff19168380011785556126a1565b828001600101855582156126a1579182015b828111156126a0578251825591602001919060010190612685565b5b5090506126ae91906126b2565b5090565b5b808211156126cb5760008160009055506001016126b3565b5090565b60006126e26126dd846135bf565b61359a565b9050808382526020820190508285602086028201111561270157600080fd5b60005b8581101561273157816127178882612823565b845260208401935060208301925050600181019050612704565b5050509392505050565b600061274e612749846135eb565b61359a565b9050808382526020820190508285602086028201111561276d57600080fd5b60005b8581101561279d57816127838882612934565b845260208401935060208301925050600181019050612770565b5050509392505050565b60006127ba6127b584613617565b61359a565b9050828152602081018484840111156127d257600080fd5b6127dd84828561388c565b509392505050565b60006127f86127f384613648565b61359a565b90508281526020810184848401111561281057600080fd5b61281b84828561388c565b509392505050565b60008135905061283281613fbb565b92915050565b600082601f83011261284957600080fd5b81356128598482602086016126cf565b91505092915050565b600082601f83011261287357600080fd5b813561288384826020860161273b565b91505092915050565b60008135905061289b81613fd2565b92915050565b6000813590506128b081613fe9565b92915050565b6000815190506128c581613fe9565b92915050565b600082601f8301126128dc57600080fd5b81356128ec8482602086016127a7565b91505092915050565b600082601f83011261290657600080fd5b81356129168482602086016127e5565b91505092915050565b60008135905061292e81614000565b92915050565b60008135905061294381614017565b92915050565b6000806040838503121561295c57600080fd5b600061296a85828601612823565b925050602061297b85828601612823565b9150509250929050565b600080600080600060a0868803121561299d57600080fd5b60006129ab88828901612823565b95505060206129bc88828901612823565b945050604086013567ffffffffffffffff8111156129d957600080fd5b6129e588828901612862565b935050606086013567ffffffffffffffff811115612a0257600080fd5b612a0e88828901612862565b925050608086013567ffffffffffffffff811115612a2b57600080fd5b612a37888289016128cb565b9150509295509295909350565b600080600080600060a08688031215612a5c57600080fd5b6000612a6a88828901612823565b9550506020612a7b88828901612823565b9450506040612a8c88828901612934565b9350506060612a9d88828901612934565b925050608086013567ffffffffffffffff811115612aba57600080fd5b612ac6888289016128cb565b9150509295509295909350565b60008060008060808587031215612ae957600080fd5b6000612af787828801612823565b945050602085013567ffffffffffffffff811115612b1457600080fd5b612b2087828801612862565b935050604085013567ffffffffffffffff811115612b3d57600080fd5b612b4987828801612862565b925050606085013567ffffffffffffffff811115612b6657600080fd5b612b72878288016128cb565b91505092959194509250565b60008060408385031215612b9157600080fd5b6000612b9f85828601612823565b9250506020612bb08582860161288c565b9150509250929050565b60008060408385031215612bcd57600080fd5b6000612bdb85828601612823565b9250506020612bec8582860161291f565b9150509250929050565b60008060408385031215612c0957600080fd5b6000612c1785828601612823565b9250506020612c2885828601612934565b9150509250929050565b60008060408385031215612c4557600080fd5b600083013567ffffffffffffffff811115612c5f57600080fd5b612c6b85828601612838565b925050602083013567ffffffffffffffff811115612c8857600080fd5b612c9485828601612862565b9150509250929050565b60008060408385031215612cb157600080fd5b600083013567ffffffffffffffff811115612ccb57600080fd5b612cd785828601612862565b925050602083013567ffffffffffffffff811115612cf457600080fd5b612d0085828601612862565b9150509250929050565b600060208284031215612d1c57600080fd5b6000612d2a848285016128a1565b91505092915050565b600060208284031215612d4557600080fd5b6000612d53848285016128b6565b91505092915050565b600060208284031215612d6e57600080fd5b600082013567ffffffffffffffff811115612d8857600080fd5b612d94848285016128f5565b91505092915050565b600060208284031215612daf57600080fd5b6000612dbd84828501612934565b91505092915050565b60008060408385031215612dd957600080fd5b6000612de785828601612934565b9250506020612df885828601612934565b9150509250929050565b6000612e0e8383613178565b60208301905092915050565b612e238161380a565b82525050565b6000612e3482613689565b612e3e81856136b7565b9350612e4983613679565b8060005b83811015612e7a578151612e618882612e02565b9750612e6c836136aa565b925050600181019050612e4d565b5085935050505092915050565b612e908161381c565b82525050565b6000612ea182613694565b612eab81856136c8565b9350612ebb81856020860161389b565b612ec481613a89565b840191505092915050565b6000612eda8261369f565b612ee481856136d9565b9350612ef481856020860161389b565b612efd81613a89565b840191505092915050565b6000612f138261369f565b612f1d81856136ea565b9350612f2d81856020860161389b565b80840191505092915050565b6000612f466034836136d9565b9150612f5182613aa7565b604082019050919050565b6000612f696028836136d9565b9150612f7482613af6565b604082019050919050565b6000612f8c602b836136d9565b9150612f9782613b45565b604082019050919050565b6000612faf6031836136d9565b9150612fba82613b94565b604082019050919050565b6000612fd26024836136d9565b9150612fdd82613be3565b604082019050919050565b6000612ff5602b836136d9565b915061300082613c32565b604082019050919050565b60006130186029836136d9565b915061302382613c81565b604082019050919050565b600061303b6010836136d9565b915061304682613cd0565b602082019050919050565b600061305e6025836136d9565b915061306982613cf9565b604082019050919050565b60006130816023836136d9565b915061308c82613d48565b604082019050919050565b60006130a46020836136d9565b91506130af82613d97565b602082019050919050565b60006130c7601d836136d9565b91506130d282613dc0565b602082019050919050565b60006130ea6029836136d9565b91506130f582613de9565b604082019050919050565b600061310d6029836136d9565b915061311882613e38565b604082019050919050565b60006131306028836136d9565b915061313b82613e87565b604082019050919050565b60006131536021836136d9565b915061315e82613ed6565b604082019050919050565b61317281613854565b82525050565b61318181613882565b82525050565b61319081613882565b82525050565b60006131a28285612f08565b91506131ae8284612f08565b91508190509392505050565b600060a0820190506131cf6000830188612e1a565b6131dc6020830187612e1a565b81810360408301526131ee8186612e29565b905081810360608301526132028185612e29565b905081810360808301526132168184612e96565b90509695505050505050565b600060a0820190506132376000830188612e1a565b6132446020830187612e1a565b6132516040830186613187565b61325e6060830185613187565b81810360808301526132708184612e96565b90509695505050505050565b60006040820190506132916000830185612e1a565b61329e6020830184613187565b9392505050565b600060208201905081810360008301526132bf8184612e29565b905092915050565b600060408201905081810360008301526132e18185612e29565b905081810360208301526132f58184612e29565b90509392505050565b60006020820190506133136000830184612e87565b92915050565b600060208201905081810360008301526133338184612ecf565b905092915050565b6000602082019050818103600083015261335481612f39565b9050919050565b6000602082019050818103600083015261337481612f5c565b9050919050565b6000602082019050818103600083015261339481612f7f565b9050919050565b600060208201905081810360008301526133b481612fa2565b9050919050565b600060208201905081810360008301526133d481612fc5565b9050919050565b600060208201905081810360008301526133f481612fe8565b9050919050565b600060208201905081810360008301526134148161300b565b9050919050565b600060208201905081810360008301526134348161302e565b9050919050565b6000602082019050818103600083015261345481613051565b9050919050565b6000602082019050818103600083015261347481613074565b9050919050565b6000602082019050818103600083015261349481613097565b9050919050565b600060208201905081810360008301526134b4816130ba565b9050919050565b600060208201905081810360008301526134d4816130dd565b9050919050565b600060208201905081810360008301526134f481613100565b9050919050565b6000602082019050818103600083015261351481613123565b9050919050565b6000602082019050818103600083015261353481613146565b9050919050565b60006020820190506135506000830184613169565b92915050565b600060208201905061356b6000830184613187565b92915050565b60006040820190506135866000830185613187565b6135936020830184613187565b9392505050565b60006135a46135b5565b90506135b08282613900565b919050565b6000604051905090565b600067ffffffffffffffff8211156135da576135d9613a38565b5b602082029050602081019050919050565b600067ffffffffffffffff82111561360657613605613a38565b5b602082029050602081019050919050565b600067ffffffffffffffff82111561363257613631613a38565b5b61363b82613a89565b9050602081019050919050565b600067ffffffffffffffff82111561366357613662613a38565b5b61366c82613a89565b9050602081019050919050565b6000819050602082019050919050565b600081519050919050565b600081519050919050565b600081519050919050565b6000602082019050919050565b600082825260208201905092915050565b600082825260208201905092915050565b600082825260208201905092915050565b600081905092915050565b600061370082613882565b915061370b83613882565b9250827fffffffffffffffffffffffffffffffffffffffffffffffffffffffffffffffff038211156137405761373f6139ab565b5b828201905092915050565b600061375682613882565b915061376183613882565b925082613771576137706139da565b5b828204905092915050565b600061378782613882565b915061379283613882565b9250817fffffffffffffffffffffffffffffffffffffffffffffffffffffffffffffffff04831182151516156137cb576137ca6139ab565b5b828202905092915050565b60006137e182613882565b91506137ec83613882565b9250828210156137ff576137fe6139ab565b5b828203905092915050565b600061381582613862565b9050919050565b60008115159050919050565b60007fffffffff0000000000000000000000000000000000000000000000000000000082169050919050565b600061ffff82169050919050565b600073ffffffffffffffffffffffffffffffffffffffff82169050919050565b6000819050919050565b82818337600083830152505050565b60005b838110156138b957808201518184015260208101905061389e565b838111156138c8576000848401525b50505050565b600060028204905060018216806138e657607f821691505b602082108114156138fa576138f9613a09565b5b50919050565b61390982613a89565b810181811067ffffffffffffffff8211171561392857613927613a38565b5b80604052505050565b600061393c82613882565b91507fffffffffffffffffffffffffffffffffffffffffffffffffffffffffffffffff82141561396f5761396e6139ab565b5b600182019050919050565b600061398582613882565b915061399083613882565b9250826139a05761399f6139da565b5b828206905092915050565b7f4e487b7100000000000000000000000000000000000000000000000000000000600052601160045260246000fd5b7f4e487b7100000000000000000000000000000000000000000000000000000000600052601260045260246000fd5b7f4e487b7100000000000000000000000000000000000000000000000000000000600052602260045260246000fd5b7f4e487b7100000000000000000000000000000000000000000000000000000000600052604160045260246000fd5b600060033d1115613a865760046000803e613a83600051613a9a565b90505b90565b6000601f19601f8301169050919050565b60008160e01c9050919050565b7f455243313135353a207472616e7366657220746f206e6f6e204552433131353560008201527f526563656976657220696d706c656d656e746572000000000000000000000000602082015250565b7f455243313135353a204552433131353552656365697665722072656a6563746560008201527f6420746f6b656e73000000000000000000000000000000000000000000000000602082015250565b7f455243313135353a2062616c616e636520717565727920666f7220746865207a60008201527f65726f2061646472657373000000000000000000000000000000000000000000602082015250565b7f455243313135353a2062617463682062616c616e636520717565727920666f7260008201527f20746865207a65726f2061646472657373000000000000000000000000000000602082015250565b7f455243313135353a206275726e20616d6f756e7420657863656564732062616c60008201527f616e636500000000000000000000000000000000000000000000000000000000602082015250565b7f455243313135353a20696e73756666696369656e742062616c616e636573206660008201527f6f72207472616e73666572000000000000000000000000000000000000000000602082015250565b7f455243313135353a2063616c6c6572206973206e6f74206f776e6572206e6f7260008201527f20617070726f7665640000000000000000000000000000000000000000000000602082015250565b7f5061757361626c653a2070617573656400000000000000000000000000000000600082015250565b7f455243313135353a207472616e7366657220746f20746865207a65726f20616460008201527f6472657373000000000000000000000000000000000000000000000000000000602082015250565b7f455243313135353a206275726e2066726f6d20746865207a65726f206164647260008201527f6573730000000000000000000000000000000000000000000000000000000000602082015250565b7f44654d696e654e46543a206d696e6564206f72206d696e696e6720746f6b656e600082015250565b7f4f776e61626c653a2073656e646572206d757374206265206f776e6572000000600082015250565b7f455243313135353a2073657474696e6720617070726f76616c2073746174757360008201527f20666f722073656c660000000000000000000000000000000000000000000000602082015250565b7f455243313135353a206163636f756e747320616e6420696473206c656e67746860008201527f206d69736d617463680000000000000000000000000000000000000000000000602082015250565b7f455243313135353a2069647320616e6420616d6f756e7473206c656e6774682060008201527f6d69736d61746368000000000000000000000000000000000000000000000000602082015250565b7f455243313135353a206d696e7420746f20746865207a65726f2061646472657360008201527f7300000000000000000000000000000000000000000000000000000000000000602082015250565b600060443d1015613f3557613fb8565b613f3d6135b5565b60043d036004823e80513d602482011167ffffffffffffffff82111715613f65575050613fb8565b808201805167ffffffffffffffff811115613f835750505050613fb8565b80602083010160043d038501811115613fa0575050505050613fb8565b613faf82602001850186613900565b82955050505050505b90565b613fc48161380a565b8114613fcf57600080fd5b50565b613fdb8161381c565b8114613fe657600080fd5b50565b613ff281613828565b8114613ffd57600080fd5b50565b61400981613854565b811461401457600080fd5b50565b61402081613882565b811461402b57600080fd5b5056fea2646970667358221220719c122a8623a35bb2b77fdba8a5b03c33cfa28d00bf546c5d0d757f6274468b64736f6c63430008040033",
  "devdoc": {
    "kind": "dev",
    "methods": {
      "balanceOf(address,uint256)": {
        "params": {
          "account": "address to query",
          "id": "token to query"
        },
        "returns": {
          "_0": "token balance"
        }
      },
      "balanceOfBatch(address[],uint256[])": {
        "params": {
          "accounts": "addresss to query",
          "ids": "tokens to query"
        },
        "returns": {
          "_0": "token balances"
        }
      },
      "isApprovedForAll(address,address)": {
        "params": {
          "account": "address to query for approval granted",
          "operator": "address to query for approval received"
        },
        "returns": {
          "_0": "whether operator is approved to spend tokens held by account"
        }
      },
      "safeBatchTransferFrom(address,address,uint256[],uint256[],bytes)": {
        "params": {
          "amounts": "list of quantities of tokens to transfer",
          "data": "data payload",
          "from": "sender of tokens",
          "ids": "list of token IDs",
          "to": "receiver of tokens"
        }
      },
      "safeTransferFrom(address,address,uint256,uint256,bytes)": {
        "params": {
          "amount": "quantity of tokens to transfer",
          "data": "data payload",
          "from": "sender of tokens",
          "id": "token ID",
          "to": "receiver of tokens"
        }
      },
      "setApprovalForAll(address,bool)": {
        "params": {
          "operator": "address whose approval status to update",
          "status": "whether operator should be considered approved"
        }
      },
      "supportsInterface(bytes4)": {
        "params": {
          "interfaceId": "interface id"
        },
        "returns": {
          "_0": "bool whether interface is supported"
        }
      }
    },
    "version": 1
  },
  "userdoc": {
    "kind": "user",
    "methods": {
      "balanceOf(address,uint256)": {
        "notice": "query the balance of given token held by given address"
      },
      "balanceOfBatch(address[],uint256[])": {
        "notice": "query the balances of given tokens held by given addresses"
      },
      "isApprovedForAll(address,address)": {
        "notice": "query approval status of given operator with respect to given address"
      },
      "safeBatchTransferFrom(address,address,uint256[],uint256[],bytes)": {
        "notice": "transfer batch of tokens between given addresses, checking for ERC1155Receiver implementation if applicable"
      },
      "safeTransferFrom(address,address,uint256,uint256,bytes)": {
        "notice": "transfer tokens between given addresses, checking for ERC1155Receiver implementation if applicable"
      },
      "setApprovalForAll(address,bool)": {
        "notice": "grant approval to or revoke approval from given operator to spend held tokens"
      },
      "supportsInterface(bytes4)": {
        "notice": "query whether contract has registered support for given interface"
      },
      "uri(uint256)": {
        "notice": "inheritdoc IERC1155Metadata"
      }
    },
    "version": 1
  },
  "storageLayout": {
    "storage": [
      {
        "astId": 10260,
        "contract": "contracts/nft/facets/ERC1155Facet.sol:ERC1155Facet",
        "label": "s",
        "offset": 0,
        "slot": "0",
        "type": "t_struct(AppStorage)10983_storage"
      }
    ],
    "types": {
      "t_address": {
        "encoding": "inplace",
        "label": "address",
        "numberOfBytes": "20"
      },
      "t_contract(IERC20)209": {
        "encoding": "inplace",
        "label": "contract IERC20",
        "numberOfBytes": "20"
      },
      "t_mapping(t_uint256,t_struct(Token)10964_storage)": {
        "encoding": "mapping",
        "key": "t_uint256",
        "label": "mapping(uint256 => struct Token)",
        "numberOfBytes": "32",
        "value": "t_struct(Token)10964_storage"
      },
      "t_struct(AppStorage)10983_storage": {
        "encoding": "inplace",
        "label": "struct AppStorage",
        "members": [
          {
            "astId": 10972,
            "contract": "contracts/nft/facets/ERC1155Facet.sol:ERC1155Facet",
            "label": "income",
            "offset": 0,
            "slot": "0",
            "type": "t_contract(IERC20)209"
          },
          {
            "astId": 10974,
            "contract": "contracts/nft/facets/ERC1155Facet.sol:ERC1155Facet",
            "label": "mining",
            "offset": 0,
            "slot": "1",
            "type": "t_uint256"
          },
          {
            "astId": 10979,
            "contract": "contracts/nft/facets/ERC1155Facet.sol:ERC1155Facet",
            "label": "tokens",
            "offset": 0,
            "slot": "2",
            "type": "t_mapping(t_uint256,t_struct(Token)10964_storage)"
          },
          {
            "astId": 10982,
            "contract": "contracts/nft/facets/ERC1155Facet.sol:ERC1155Facet",
            "label": "royalty",
            "offset": 0,
            "slot": "3",
            "type": "t_struct(RoyaltyInfo)10969_storage"
          }
        ],
        "numberOfBytes": "128"
      },
      "t_struct(RoyaltyInfo)10969_storage": {
        "encoding": "inplace",
        "label": "struct RoyaltyInfo",
        "members": [
          {
            "astId": 10966,
            "contract": "contracts/nft/facets/ERC1155Facet.sol:ERC1155Facet",
            "label": "recipient",
            "offset": 0,
            "slot": "0",
            "type": "t_address"
          },
          {
            "astId": 10968,
            "contract": "contracts/nft/facets/ERC1155Facet.sol:ERC1155Facet",
            "label": "bps",
            "offset": 20,
            "slot": "0",
            "type": "t_uint16"
          }
        ],
        "numberOfBytes": "32"
      },
      "t_struct(Token)10964_storage": {
        "encoding": "inplace",
        "label": "struct Token",
        "members": [
          {
            "astId": 10961,
            "contract": "contracts/nft/facets/ERC1155Facet.sol:ERC1155Facet",
            "label": "supply",
            "offset": 0,
            "slot": "0",
            "type": "t_uint256"
          },
          {
            "astId": 10963,
            "contract": "contracts/nft/facets/ERC1155Facet.sol:ERC1155Facet",
            "label": "income",
            "offset": 0,
            "slot": "1",
            "type": "t_uint256"
          }
        ],
        "numberOfBytes": "64"
      },
      "t_uint16": {
        "encoding": "inplace",
        "label": "uint16",
        "numberOfBytes": "2"
      },
      "t_uint256": {
        "encoding": "inplace",
        "label": "uint256",
        "numberOfBytes": "32"
      }
    }
  }
}