{
  "address": "0x8ADBE11fF16d449783bB460485490F1b658E527d",
  "abi": [
    {
      "anonymous": false,
      "inputs": [
        {
          "indexed": true,
          "internalType": "address",
          "name": "account",
          "type": "address"
        },
        {
          "indexed": true,
          "internalType": "address",
          "name": "operator",
          "type": "address"
        },
        {
          "indexed": false,
          "internalType": "bool",
          "name": "approved",
          "type": "bool"
        }
      ],
      "name": "ApprovalForAll",
      "type": "event"
    },
    {
      "anonymous": false,
      "inputs": [
        {
          "indexed": false,
          "internalType": "uint16",
          "name": "",
          "type": "uint16"
        }
      ],
      "name": "TokenRoyaltyBpsSet",
      "type": "event"
    },
    {
      "anonymous": false,
      "inputs": [
        {
          "indexed": true,
          "internalType": "address",
          "name": "operator",
          "type": "address"
        },
        {
          "indexed": true,
          "internalType": "address",
          "name": "from",
          "type": "address"
        },
        {
          "indexed": true,
          "internalType": "address",
          "name": "to",
          "type": "address"
        },
        {
          "indexed": false,
          "internalType": "uint256[]",
          "name": "ids",
          "type": "uint256[]"
        },
        {
          "indexed": false,
          "internalType": "uint256[]",
          "name": "values",
          "type": "uint256[]"
        }
      ],
      "name": "TransferBatch",
      "type": "event"
    },
    {
      "anonymous": false,
      "inputs": [
        {
          "indexed": true,
          "internalType": "address",
          "name": "operator",
          "type": "address"
        },
        {
          "indexed": true,
          "internalType": "address",
          "name": "from",
          "type": "address"
        },
        {
          "indexed": true,
          "internalType": "address",
          "name": "to",
          "type": "address"
        },
        {
          "indexed": false,
          "internalType": "uint256",
          "name": "id",
          "type": "uint256"
        },
        {
          "indexed": false,
          "internalType": "uint256",
          "name": "value",
          "type": "uint256"
        }
      ],
      "name": "TransferSingle",
      "type": "event"
    },
    {
      "anonymous": false,
      "inputs": [
        {
          "indexed": false,
          "internalType": "string",
          "name": "value",
          "type": "string"
        },
        {
          "indexed": true,
          "internalType": "uint256",
          "name": "tokenId",
          "type": "uint256"
        }
      ],
      "name": "URI",
      "type": "event"
    },
    {
      "inputs": [
        {
          "internalType": "address",
          "name": "account",
          "type": "address"
        },
        {
          "internalType": "uint256",
          "name": "id",
          "type": "uint256"
        }
      ],
      "name": "balanceOf",
      "outputs": [
        {
          "internalType": "uint256",
          "name": "",
          "type": "uint256"
        }
      ],
      "stateMutability": "view",
      "type": "function"
    },
    {
      "inputs": [
        {
          "internalType": "address[]",
          "name": "accounts",
          "type": "address[]"
        },
        {
          "internalType": "uint256[]",
          "name": "ids",
          "type": "uint256[]"
        }
      ],
      "name": "balanceOfBatch",
      "outputs": [
        {
          "internalType": "uint256[]",
          "name": "",
          "type": "uint256[]"
        }
      ],
      "stateMutability": "view",
      "type": "function"
    },
    {
      "inputs": [
        {
          "internalType": "uint256[]",
          "name": "ids",
          "type": "uint256[]"
        },
        {
          "internalType": "uint256[]",
          "name": "amounts",
          "type": "uint256[]"
        }
      ],
      "name": "burnBatch",
      "outputs": [],
      "stateMutability": "nonpayable",
      "type": "function"
    },
    {
      "inputs": [],
      "name": "getMining",
      "outputs": [
        {
          "internalType": "uint256",
          "name": "",
          "type": "uint256"
        }
      ],
      "stateMutability": "view",
      "type": "function"
    },
    {
      "inputs": [
        {
          "internalType": "uint256[]",
          "name": "ids",
          "type": "uint256[]"
        }
      ],
      "name": "getTokenInfo",
      "outputs": [
        {
          "components": [
            {
              "internalType": "uint256",
              "name": "supply",
              "type": "uint256"
            },
            {
              "internalType": "uint256",
              "name": "income",
              "type": "uint256"
            }
          ],
          "internalType": "struct Token[]",
          "name": "",
          "type": "tuple[]"
        }
      ],
      "stateMutability": "view",
      "type": "function"
    },
    {
      "inputs": [
        {
          "internalType": "address",
          "name": "account",
          "type": "address"
        },
        {
          "internalType": "address",
          "name": "operator",
          "type": "address"
        }
      ],
      "name": "isApprovedForAll",
      "outputs": [
        {
          "internalType": "bool",
          "name": "",
          "type": "bool"
        }
      ],
      "stateMutability": "view",
      "type": "function"
    },
    {
      "inputs": [
        {
          "internalType": "address",
          "name": "account",
          "type": "address"
        },
        {
          "internalType": "uint256[]",
          "name": "ids",
          "type": "uint256[]"
        },
        {
          "internalType": "uint256[]",
          "name": "amounts",
          "type": "uint256[]"
        },
        {
          "internalType": "bytes",
          "name": "data",
          "type": "bytes"
        }
      ],
      "name": "mintBatch",
      "outputs": [],
      "stateMutability": "nonpayable",
      "type": "function"
    },
    {
      "inputs": [
        {
          "internalType": "uint256",
          "name": "",
          "type": "uint256"
        },
        {
          "internalType": "uint256",
          "name": "value",
          "type": "uint256"
        }
      ],
      "name": "royaltyInfo",
      "outputs": [
        {
          "internalType": "address",
          "name": "",
          "type": "address"
        },
        {
          "internalType": "uint256",
          "name": "",
          "type": "uint256"
        }
      ],
      "stateMutability": "view",
      "type": "function"
    },
    {
      "inputs": [
        {
          "internalType": "address",
          "name": "from",
          "type": "address"
        },
        {
          "internalType": "address",
          "name": "to",
          "type": "address"
        },
        {
          "internalType": "uint256[]",
          "name": "ids",
          "type": "uint256[]"
        },
        {
          "internalType": "uint256[]",
          "name": "amounts",
          "type": "uint256[]"
        },
        {
          "internalType": "bytes",
          "name": "data",
          "type": "bytes"
        }
      ],
      "name": "safeBatchTransferFrom",
      "outputs": [],
      "stateMutability": "nonpayable",
      "type": "function"
    },
    {
      "inputs": [
        {
          "internalType": "address",
          "name": "from",
          "type": "address"
        },
        {
          "internalType": "address",
          "name": "to",
          "type": "address"
        },
        {
          "internalType": "uint256",
          "name": "id",
          "type": "uint256"
        },
        {
          "internalType": "uint256",
          "name": "amount",
          "type": "uint256"
        },
        {
          "internalType": "bytes",
          "name": "data",
          "type": "bytes"
        }
      ],
      "name": "safeTransferFrom",
      "outputs": [],
      "stateMutability": "nonpayable",
      "type": "function"
    },
    {
      "inputs": [
        {
          "internalType": "address",
          "name": "operator",
          "type": "address"
        },
        {
          "internalType": "bool",
          "name": "status",
          "type": "bool"
        }
      ],
      "name": "setApprovalForAll",
      "outputs": [],
      "stateMutability": "nonpayable",
      "type": "function"
    },
    {
      "inputs": [
        {
          "internalType": "address",
          "name": "recipient",
          "type": "address"
        },
        {
          "internalType": "uint16",
          "name": "bps",
          "type": "uint16"
        }
      ],
      "name": "setRoyaltyInfo",
      "outputs": [],
      "stateMutability": "nonpayable",
      "type": "function"
    },
    {
      "inputs": [
        {
          "internalType": "string",
          "name": "baseURI",
          "type": "string"
        }
      ],
      "name": "setURI",
      "outputs": [],
      "stateMutability": "nonpayable",
      "type": "function"
    },
    {
      "inputs": [
        {
          "internalType": "bytes4",
          "name": "interfaceId",
          "type": "bytes4"
        }
      ],
      "name": "supportsInterface",
      "outputs": [
        {
          "internalType": "bool",
          "name": "",
          "type": "bool"
        }
      ],
      "stateMutability": "view",
      "type": "function"
    },
    {
      "inputs": [
        {
          "internalType": "uint256",
          "name": "tokenId",
          "type": "uint256"
        }
      ],
      "name": "uri",
      "outputs": [
        {
          "internalType": "string",
          "name": "",
          "type": "string"
        }
      ],
      "stateMutability": "view",
      "type": "function"
    }
  ],
  "transactionHash": "0x3175bbb2a64fa61b4202340d9a746e7d8e1fe8f35210319260002e2cfdf67d6f",
  "args": [],
  "numDeployments": 3,
  "solcInputHash": "5a5a78fa6cc16765d3a0e8735811d999",
  "bytecode": "0x608060405234801561001057600080fd5b5061450d806100206000396000f3fe608060405234801561001057600080fd5b50600436106100f45760003560e01c80634e1273f411610097578063a22cb46511610066578063a22cb46514610294578063b346cbfc146102b0578063e985e9c5146102e0578063f242432a14610310576100f4565b80634e1273f41461020e57806372504a241461023e57806376e6dca21461025a57806383ca4b6f14610278576100f4565b80630e89341c116100d35780630e89341c146101755780631f7fdffa146101a55780632a55205a146101c15780632eb2c2d6146101f2576100f4565b8062fdd58e146100f957806301ffc9a71461012957806302fe530514610159575b600080fd5b610113600480360381019061010e9190612f51565b61032c565b60405161012091906139c6565b60405180910390f35b610143600480360381019061013e91906130b3565b610340565b604051610150919061376e565b60405180910390f35b610173600480360381019061016e9190613105565b610363565b005b61018f600480360381019061018a9190613146565b610408565b60405161019c9190613789565b60405180910390f35b6101bf60048036038101906101ba9190612e26565b6105c9565b005b6101db60048036038101906101d6919061316f565b6106f8565b6040516101e99291906136ca565b60405180910390f35b61020c60048036038101906102079190612cd8565b6107b6565b005b61022860048036038101906102239190612f8d565b61084a565b6040516102359190613715565b60405180910390f35b61025860048036038101906102539190612f15565b610afd565b005b610262610c72565b60405161026f91906139c6565b60405180910390f35b610292600480360381019061028d919061303e565b610c7e565b005b6102ae60048036038101906102a99190612ed9565b610d11565b005b6102ca60048036038101906102c59190612ff9565b610e86565b6040516102d791906136f3565b60405180910390f35b6102fa60048036038101906102f59190612c9c565b610fed565b604051610307919061376e565b60405180910390f35b61032a60048036038101906103259190612d97565b61108a565b005b6000610338838361111e565b905092915050565b600061035c8261034e6111f1565b61121e90919063ffffffff16565b9050919050565b61036b611289565b60000160009054906101000a900473ffffffffffffffffffffffffffffffffffffffff1673ffffffffffffffffffffffffffffffffffffffff163373ffffffffffffffffffffffffffffffffffffffff16146103fc576040517f08c379a00000000000000000000000000000000000000000000000000000000081526004016103f39061390b565b60405180910390fd5b610405816112b6565b50565b606060006104146112d9565b90506000816001016000858152602001908152602001600020805461043890613d77565b80601f016020809104026020016040519081016040528092919081815260200182805461046490613d77565b80156104b15780601f10610486576101008083540402835291602001916104b1565b820191906000526020600020905b81548152906001019060200180831161049457829003601f168201915b5050505050905060008260000180546104c990613d77565b80601f01602080910402602001604051908101604052809291908181526020018280546104f590613d77565b80156105425780601f1061051757610100808354040283529160200191610542565b820191906000526020600020905b81548152906001019060200180831161052557829003601f168201915b5050505050905060008151141561055e578193505050506105c4565b60008251111561059457808260405160200161057b9291906135e4565b60405160208183030381529060405293505050506105c4565b8061059e86611306565b6040516020016105af9291906135e4565b60405160208183030381529060405293505050505b919050565b6105d1611289565b60000160009054906101000a900473ffffffffffffffffffffffffffffffffffffffff1673ffffffffffffffffffffffffffffffffffffffff163373ffffffffffffffffffffffffffffffffffffffff1614610662576040517f08c379a00000000000000000000000000000000000000000000000000000000081526004016106599061390b565b60405180910390fd5b6106f086868680806020026020016040519081016040528093929190818152602001838360200280828437600081840152601f19601f82011690508083019250505050505050858580806020026020016040519081016040528093929190818152602001838360200280828437600081840152601f19601f82011690508083019250505050505050846114b3565b505050505050565b6000806000806003016040518060400160405290816000820160009054906101000a900473ffffffffffffffffffffffffffffffffffffffff1673ffffffffffffffffffffffffffffffffffffffff1673ffffffffffffffffffffffffffffffffffffffff1681526020016000820160149054906101000a900461ffff1661ffff1661ffff168152505090508060000151612710826020015161ffff16866107a09190613c25565b6107aa9190613bf4565b92509250509250929050565b3373ffffffffffffffffffffffffffffffffffffffff168573ffffffffffffffffffffffffffffffffffffffff1614806107f657506107f58533610fed565b5b610835576040517f08c379a000000000000000000000000000000000000000000000000000000000815260040161082c9061386b565b60405180910390fd5b6108433386868686866114d4565b5050505050565b60608151835114610890576040517f08c379a00000000000000000000000000000000000000000000000000000000081526004016108879061394b565b60405180910390fd5b600061089a6114f8565b60000190506000845167ffffffffffffffff8111156108e2577f4e487b7100000000000000000000000000000000000000000000000000000000600052604160045260246000fd5b6040519080825280602002602001820160405280156109105781602001602082028036833780820191505090505b50905060005b8551811015610af157600073ffffffffffffffffffffffffffffffffffffffff16868281518110610970577f4e487b7100000000000000000000000000000000000000000000000000000000600052603260045260246000fd5b602002602001015173ffffffffffffffffffffffffffffffffffffffff1614156109cf576040517f08c379a00000000000000000000000000000000000000000000000000000000081526004016109c69061380b565b60405180910390fd5b826000868381518110610a0b577f4e487b7100000000000000000000000000000000000000000000000000000000600052603260045260246000fd5b602002602001015181526020019081526020016000206000878381518110610a5c577f4e487b7100000000000000000000000000000000000000000000000000000000600052603260045260246000fd5b602002602001015173ffffffffffffffffffffffffffffffffffffffff1673ffffffffffffffffffffffffffffffffffffffff16815260200190815260200160002054828281518110610ad8577f4e487b7100000000000000000000000000000000000000000000000000000000600052603260045260246000fd5b6020026020010181815250508080600101915050610916565b50809250505092915050565b610b05611289565b60000160009054906101000a900473ffffffffffffffffffffffffffffffffffffffff1673ffffffffffffffffffffffffffffffffffffffff163373ffffffffffffffffffffffffffffffffffffffff1614610b96576040517f08c379a0000000000000000000000000000000000000000000000000000000008152600401610b8d9061390b565b60405180910390fd5b60405180604001604052808373ffffffffffffffffffffffffffffffffffffffff1681526020018261ffff16815250600060030160008201518160000160006101000a81548173ffffffffffffffffffffffffffffffffffffffff021916908373ffffffffffffffffffffffffffffffffffffffff16021790555060208201518160000160146101000a81548161ffff021916908361ffff1602179055509050507f577133166751d165db2e7f4c7b9f50ef67bf80781894fc7f4d53df1067a39df181604051610c6691906139ab565b60405180910390a15050565b60008060010154905090565b610d0b33858580806020026020016040519081016040528093929190818152602001838360200280828437600081840152601f19601f82011690508083019250505050505050848480806020026020016040519081016040528093929190818152602001838360200280828437600081840152601f19601f82011690508083019250505050505050611525565b50505050565b8173ffffffffffffffffffffffffffffffffffffffff163373ffffffffffffffffffffffffffffffffffffffff161415610d80576040517f08c379a0000000000000000000000000000000000000000000000000000000008152600401610d779061392b565b60405180910390fd5b80610d896114f8565b60010160003373ffffffffffffffffffffffffffffffffffffffff1673ffffffffffffffffffffffffffffffffffffffff16815260200190815260200160002060008473ffffffffffffffffffffffffffffffffffffffff1673ffffffffffffffffffffffffffffffffffffffff16815260200190815260200160002060006101000a81548160ff0219169083151502179055508173ffffffffffffffffffffffffffffffffffffffff163373ffffffffffffffffffffffffffffffffffffffff167f17307eab39ab6107e8899845ad3d59bd9653f200f220920489ca2b5937696c3183604051610e7a919061376e565b60405180910390a35050565b606060008383905067ffffffffffffffff811115610ecd577f4e487b7100000000000000000000000000000000000000000000000000000000600052604160045260246000fd5b604051908082528060200260200182016040528015610f0657816020015b610ef361291b565b815260200190600190039081610eeb5790505b50905060005b84849050811015610fe25760006002016000868684818110610f57577f4e487b7100000000000000000000000000000000000000000000000000000000600052603260045260246000fd5b90506020020135815260200190815260200160002060405180604001604052908160008201548152602001600182015481525050828281518110610fc4577f4e487b7100000000000000000000000000000000000000000000000000000000600052603260045260246000fd5b60200260200101819052508080610fda90613dda565b915050610f0c565b508091505092915050565b6000610ff76114f8565b60010160008473ffffffffffffffffffffffffffffffffffffffff1673ffffffffffffffffffffffffffffffffffffffff16815260200190815260200160002060008373ffffffffffffffffffffffffffffffffffffffff1673ffffffffffffffffffffffffffffffffffffffff16815260200190815260200160002060009054906101000a900460ff16905092915050565b3373ffffffffffffffffffffffffffffffffffffffff168573ffffffffffffffffffffffffffffffffffffffff1614806110ca57506110c98533610fed565b5b611109576040517f08c379a00000000000000000000000000000000000000000000000000000000081526004016111009061386b565b60405180910390fd5b61111733868686868661185a565b5050505050565b60008073ffffffffffffffffffffffffffffffffffffffff168373ffffffffffffffffffffffffffffffffffffffff16141561118f576040517f08c379a0000000000000000000000000000000000000000000000000000000008152600401611186906137eb565b60405180910390fd5b6111976114f8565b600001600083815260200190815260200160002060008473ffffffffffffffffffffffffffffffffffffffff1673ffffffffffffffffffffffffffffffffffffffff16815260200190815260200160002054905092915050565b6000807f326d0c59a7612f6a9919e2a8ee333c80ba689d8ba2634de89c85cbb04832e70590508091505090565b6000826000016000837bffffffffffffffffffffffffffffffffffffffffffffffffffffffff19167bffffffffffffffffffffffffffffffffffffffffffffffffffffffff1916815260200190815260200160002060009054906101000a900460ff16905092915050565b6000807f8a22373512790c48b83a1fe2efdd2888d4a917bcdc24d0adf63e60f67168046090508091505090565b806112bf6112d9565b60000190805190602001906112d5929190612935565b5050565b6000807f4281b61aefbe70b3d3f684b428efca5f33077bc240e76f2808f9177c307617f490508091505090565b6060600082141561134e576040518060400160405280600181526020017f300000000000000000000000000000000000000000000000000000000000000081525090506114ae565b600082905060005b6000821461138057808061136990613dda565b915050600a826113799190613bf4565b9150611356565b60008167ffffffffffffffff8111156113c2577f4e487b7100000000000000000000000000000000000000000000000000000000600052604160045260246000fd5b6040519080825280601f01601f1916602001820160405280156113f45781602001600182028036833780820191505090505b5090505b600085146114a75760018261140d9190613c7f565b9150600a8561141c9190613e23565b60306114289190613b9e565b60f81b818381518110611464577f4e487b7100000000000000000000000000000000000000000000000000000000600052603260045260246000fd5b60200101907effffffffffffffffffffffffffffffffffffffffffffffffffffffffffffff1916908160001a905350600a856114a09190613bf4565b94506113f8565b8093505050505b919050565b6114bf8484848461187e565b6114ce33600086868686611adc565b50505050565b6114e2868686868686611cc3565b6114f0868686868686611adc565b505050505050565b6000807f1799cf914cb0cb442ca7c7ac709ee40d0cb89e87351dc08d517fbda27d50c68b90508091505090565b600073ffffffffffffffffffffffffffffffffffffffff168373ffffffffffffffffffffffffffffffffffffffff161415611595576040517f08c379a000000000000000000000000000000000000000000000000000000000815260040161158c906138cb565b60405180910390fd5b80518251146115d9576040517f08c379a00000000000000000000000000000000000000000000000000000000081526004016115d09061396b565b60405180910390fd5b6115f73384600085856040518060200160405280600081525061201b565b60006116016114f8565b600001905060005b83518110156117d457600084828151811061164d577f4e487b7100000000000000000000000000000000000000000000000000000000600052603260045260246000fd5b60200260200101519050838281518110611690577f4e487b7100000000000000000000000000000000000000000000000000000000600052603260045260246000fd5b602002602001015183600083815260200190815260200160002060008873ffffffffffffffffffffffffffffffffffffffff1673ffffffffffffffffffffffffffffffffffffffff168152602001908152602001600020541015611729576040517f08c379a00000000000000000000000000000000000000000000000000000000081526004016117209061382b565b60405180910390fd5b838281518110611762577f4e487b7100000000000000000000000000000000000000000000000000000000600052603260045260246000fd5b602002602001015183600083815260200190815260200160002060008873ffffffffffffffffffffffffffffffffffffffff1673ffffffffffffffffffffffffffffffffffffffff16815260200190815260200160002060008282540392505081905550508080600101915050611609565b50600073ffffffffffffffffffffffffffffffffffffffff168473ffffffffffffffffffffffffffffffffffffffff163373ffffffffffffffffffffffffffffffffffffffff167f4a39dc06d4c0dbc64b70af90fd698a233a518aa5d07e595d983b8c0526c8f7fb868660405161184c929190613737565b60405180910390a450505050565b6118688686868686866123ae565b611876868686868686612626565b505050505050565b600073ffffffffffffffffffffffffffffffffffffffff168473ffffffffffffffffffffffffffffffffffffffff1614156118ee576040517f08c379a00000000000000000000000000000000000000000000000000000000081526004016118e59061398b565b60405180910390fd5b8151835114611932576040517f08c379a00000000000000000000000000000000000000000000000000000000081526004016119299061396b565b60405180910390fd5b6119413360008686868661201b565b600061194b6114f8565b600001905060005b8451811015611a5557838181518110611995577f4e487b7100000000000000000000000000000000000000000000000000000000600052603260045260246000fd5b60200260200101518260008784815181106119d9577f4e487b7100000000000000000000000000000000000000000000000000000000600052603260045260246000fd5b6020026020010151815260200190815260200160002060008873ffffffffffffffffffffffffffffffffffffffff1673ffffffffffffffffffffffffffffffffffffffff1681526020019081526020016000206000828254611a3b9190613b9e565b925050819055508080611a4d90613dda565b915050611953565b508473ffffffffffffffffffffffffffffffffffffffff16600073ffffffffffffffffffffffffffffffffffffffff163373ffffffffffffffffffffffffffffffffffffffff167f4a39dc06d4c0dbc64b70af90fd698a233a518aa5d07e595d983b8c0526c8f7fb8787604051611acd929190613737565b60405180910390a45050505050565b611afb8473ffffffffffffffffffffffffffffffffffffffff1661280d565b15611cbb578373ffffffffffffffffffffffffffffffffffffffff1663bc197c8187878686866040518663ffffffff1660e01b8152600401611b41959493929190613608565b602060405180830381600087803b158015611b5b57600080fd5b505af1925050508015611b8c57506040513d601f19601f82011682018060405250810190611b8991906130dc565b60015b611c3257611b98613f10565b806308c379a01415611bf55750611bad6143ce565b80611bb85750611bf7565b806040517f08c379a0000000000000000000000000000000000000000000000000000000008152600401611bec9190613789565b60405180910390fd5b505b6040517f08c379a0000000000000000000000000000000000000000000000000000000008152600401611c29906137ab565b60405180910390fd5b63bc197c8160e01b7bffffffffffffffffffffffffffffffffffffffffffffffffffffffff1916817bffffffffffffffffffffffffffffffffffffffffffffffffffffffff191614611cb9576040517f08c379a0000000000000000000000000000000000000000000000000000000008152600401611cb0906137cb565b60405180910390fd5b505b505050505050565b600073ffffffffffffffffffffffffffffffffffffffff168473ffffffffffffffffffffffffffffffffffffffff161415611d33576040517f08c379a0000000000000000000000000000000000000000000000000000000008152600401611d2a906138ab565b60405180910390fd5b8151835114611d77576040517f08c379a0000000000000000000000000000000000000000000000000000000008152600401611d6e9061396b565b60405180910390fd5b611d8586868686868661201b565b6000611d8f6114f8565b600001905060005b8451811015611f93576000858281518110611ddb577f4e487b7100000000000000000000000000000000000000000000000000000000600052603260045260246000fd5b602002602001015190506000858381518110611e20577f4e487b7100000000000000000000000000000000000000000000000000000000600052603260045260246000fd5b60200260200101519050600084600084815260200190815260200160002060008b73ffffffffffffffffffffffffffffffffffffffff1673ffffffffffffffffffffffffffffffffffffffff16815260200190815260200160002054905081811015611ec1576040517f08c379a0000000000000000000000000000000000000000000000000000000008152600401611eb89061384b565b60405180910390fd5b81810385600085815260200190815260200160002060008c73ffffffffffffffffffffffffffffffffffffffff1673ffffffffffffffffffffffffffffffffffffffff16815260200190815260200160002081905550508084600084815260200190815260200160002060008a73ffffffffffffffffffffffffffffffffffffffff1673ffffffffffffffffffffffffffffffffffffffff1681526020019081526020016000206000828254611f779190613b9e565b9250508190555050508080611f8b90613dda565b915050611d97565b508473ffffffffffffffffffffffffffffffffffffffff168673ffffffffffffffffffffffffffffffffffffffff168873ffffffffffffffffffffffffffffffffffffffff167f4a39dc06d4c0dbc64b70af90fd698a233a518aa5d07e595d983b8c0526c8f7fb878760405161200a929190613737565b60405180910390a450505050505050565b612023612820565b60000160009054906101000a900460ff1615612074576040517f08c379a000000000000000000000000000000000000000000000000000000000815260040161206b9061388b565b60405180910390fd5b61208286868686868661284d565b600073ffffffffffffffffffffffffffffffffffffffff168473ffffffffffffffffffffffffffffffffffffffff1614156122145760008060010154905060005b84518110156122115781858281518110612106577f4e487b7100000000000000000000000000000000000000000000000000000000600052603260045260246000fd5b60200260200101511161214e576040517f08c379a0000000000000000000000000000000000000000000000000000000008152600401612145906138eb565b60405180910390fd5b838181518110612187577f4e487b7100000000000000000000000000000000000000000000000000000000600052603260045260246000fd5b6020026020010151600060020160008784815181106121cf577f4e487b7100000000000000000000000000000000000000000000000000000000600052603260045260246000fd5b6020026020010151815260200190815260200160002060000160008282546121f79190613c7f565b92505081905550808061220990613dda565b9150506120c3565b50505b600073ffffffffffffffffffffffffffffffffffffffff168573ffffffffffffffffffffffffffffffffffffffff1614156123a65760008060010154905060005b84518110156123a35781858281518110612298577f4e487b7100000000000000000000000000000000000000000000000000000000600052603260045260246000fd5b6020026020010151116122e0576040517f08c379a00000000000000000000000000000000000000000000000000000000081526004016122d7906138eb565b60405180910390fd5b838181518110612319577f4e487b7100000000000000000000000000000000000000000000000000000000600052603260045260246000fd5b602002602001015160006002016000878481518110612361577f4e487b7100000000000000000000000000000000000000000000000000000000600052603260045260246000fd5b6020026020010151815260200190815260200160002060000160008282546123899190613b9e565b92505081905550808061239b90613dda565b915050612255565b50505b505050505050565b600073ffffffffffffffffffffffffffffffffffffffff168473ffffffffffffffffffffffffffffffffffffffff16141561241e576040517f08c379a0000000000000000000000000000000000000000000000000000000008152600401612415906138ab565b60405180910390fd5b61243c86868661242d87612855565b61243687612855565b8661201b565b60006124466114f8565b6000019050600081600086815260200190815260200160002060008873ffffffffffffffffffffffffffffffffffffffff1673ffffffffffffffffffffffffffffffffffffffff168152602001908152602001600020549050838110156124e2576040517f08c379a00000000000000000000000000000000000000000000000000000000081526004016124d99061384b565b60405180910390fd5b83810382600087815260200190815260200160002060008973ffffffffffffffffffffffffffffffffffffffff1673ffffffffffffffffffffffffffffffffffffffff16815260200190815260200160002081905550508281600086815260200190815260200160002060008773ffffffffffffffffffffffffffffffffffffffff1673ffffffffffffffffffffffffffffffffffffffff16815260200190815260200160002060008282546125989190613b9e565b925050819055508473ffffffffffffffffffffffffffffffffffffffff168673ffffffffffffffffffffffffffffffffffffffff168873ffffffffffffffffffffffffffffffffffffffff167fc3d58168c5ae7397731d063d5bbf3d657854427343f4c083240f7aacaa2d0f6287876040516126159291906139e1565b60405180910390a450505050505050565b6126458473ffffffffffffffffffffffffffffffffffffffff1661280d565b15612805578373ffffffffffffffffffffffffffffffffffffffff1663f23a6e6187878686866040518663ffffffff1660e01b815260040161268b959493929190613670565b602060405180830381600087803b1580156126a557600080fd5b505af19250505080156126d657506040513d601f19601f820116820180604052508101906126d391906130dc565b60015b61277c576126e2613f10565b806308c379a0141561273f57506126f76143ce565b806127025750612741565b806040517f08c379a00000000000000000000000000000000000000000000000000000000081526004016127369190613789565b60405180910390fd5b505b6040517f08c379a0000000000000000000000000000000000000000000000000000000008152600401612773906137ab565b60405180910390fd5b63f23a6e6160e01b7bffffffffffffffffffffffffffffffffffffffffffffffffffffffff1916817bffffffffffffffffffffffffffffffffffffffffffffffffffffffff191614612803576040517f08c379a00000000000000000000000000000000000000000000000000000000081526004016127fa906137cb565b60405180910390fd5b505b505050505050565b600080823b905060008111915050919050565b6000807f68721c0bbf2c02a4d65000340d1370666be06a630022208d4baa9bd7a4b6fea890508091505090565b505050505050565b60606000600167ffffffffffffffff81111561289a577f4e487b7100000000000000000000000000000000000000000000000000000000600052604160045260246000fd5b6040519080825280602002602001820160405280156128c85781602001602082028036833780820191505090505b5090508281600081518110612906577f4e487b7100000000000000000000000000000000000000000000000000000000600052603260045260246000fd5b60200260200101818152505080915050919050565b604051806040016040528060008152602001600081525090565b82805461294190613d77565b90600052602060002090601f01602090048101928261296357600085556129aa565b82601f1061297c57805160ff19168380011785556129aa565b828001600101855582156129aa579182015b828111156129a957825182559160200191906001019061298e565b5b5090506129b791906129bb565b5090565b5b808211156129d45760008160009055506001016129bc565b5090565b60006129eb6129e684613a2f565b613a0a565b90508083825260208201905082856020860282011115612a0a57600080fd5b60005b85811015612a3a5781612a208882612b2c565b845260208401935060208301925050600181019050612a0d565b5050509392505050565b6000612a57612a5284613a5b565b613a0a565b90508083825260208201905082856020860282011115612a7657600080fd5b60005b85811015612aa65781612a8c8882612c87565b845260208401935060208301925050600181019050612a79565b5050509392505050565b6000612ac3612abe84613a87565b613a0a565b905082815260208101848484011115612adb57600080fd5b612ae6848285613d35565b509392505050565b6000612b01612afc84613ab8565b613a0a565b905082815260208101848484011115612b1957600080fd5b612b24848285613d35565b509392505050565b600081359050612b3b81614464565b92915050565b600082601f830112612b5257600080fd5b8135612b628482602086016129d8565b91505092915050565b60008083601f840112612b7d57600080fd5b8235905067ffffffffffffffff811115612b9657600080fd5b602083019150836020820283011115612bae57600080fd5b9250929050565b600082601f830112612bc657600080fd5b8135612bd6848260208601612a44565b91505092915050565b600081359050612bee8161447b565b92915050565b600081359050612c0381614492565b92915050565b600081519050612c1881614492565b92915050565b600082601f830112612c2f57600080fd5b8135612c3f848260208601612ab0565b91505092915050565b600082601f830112612c5957600080fd5b8135612c69848260208601612aee565b91505092915050565b600081359050612c81816144a9565b92915050565b600081359050612c96816144c0565b92915050565b60008060408385031215612caf57600080fd5b6000612cbd85828601612b2c565b9250506020612cce85828601612b2c565b9150509250929050565b600080600080600060a08688031215612cf057600080fd5b6000612cfe88828901612b2c565b9550506020612d0f88828901612b2c565b945050604086013567ffffffffffffffff811115612d2c57600080fd5b612d3888828901612bb5565b935050606086013567ffffffffffffffff811115612d5557600080fd5b612d6188828901612bb5565b925050608086013567ffffffffffffffff811115612d7e57600080fd5b612d8a88828901612c1e565b9150509295509295909350565b600080600080600060a08688031215612daf57600080fd5b6000612dbd88828901612b2c565b9550506020612dce88828901612b2c565b9450506040612ddf88828901612c87565b9350506060612df088828901612c87565b925050608086013567ffffffffffffffff811115612e0d57600080fd5b612e1988828901612c1e565b9150509295509295909350565b60008060008060008060808789031215612e3f57600080fd5b6000612e4d89828a01612b2c565b965050602087013567ffffffffffffffff811115612e6a57600080fd5b612e7689828a01612b6b565b9550955050604087013567ffffffffffffffff811115612e9557600080fd5b612ea189828a01612b6b565b9350935050606087013567ffffffffffffffff811115612ec057600080fd5b612ecc89828a01612c1e565b9150509295509295509295565b60008060408385031215612eec57600080fd5b6000612efa85828601612b2c565b9250506020612f0b85828601612bdf565b9150509250929050565b60008060408385031215612f2857600080fd5b6000612f3685828601612b2c565b9250506020612f4785828601612c72565b9150509250929050565b60008060408385031215612f6457600080fd5b6000612f7285828601612b2c565b9250506020612f8385828601612c87565b9150509250929050565b60008060408385031215612fa057600080fd5b600083013567ffffffffffffffff811115612fba57600080fd5b612fc685828601612b41565b925050602083013567ffffffffffffffff811115612fe357600080fd5b612fef85828601612bb5565b9150509250929050565b6000806020838503121561300c57600080fd5b600083013567ffffffffffffffff81111561302657600080fd5b61303285828601612b6b565b92509250509250929050565b6000806000806040858703121561305457600080fd5b600085013567ffffffffffffffff81111561306e57600080fd5b61307a87828801612b6b565b9450945050602085013567ffffffffffffffff81111561309957600080fd5b6130a587828801612b6b565b925092505092959194509250565b6000602082840312156130c557600080fd5b60006130d384828501612bf4565b91505092915050565b6000602082840312156130ee57600080fd5b60006130fc84828501612c09565b91505092915050565b60006020828403121561311757600080fd5b600082013567ffffffffffffffff81111561313157600080fd5b61313d84828501612c48565b91505092915050565b60006020828403121561315857600080fd5b600061316684828501612c87565b91505092915050565b6000806040838503121561318257600080fd5b600061319085828601612c87565b92505060206131a185828601612c87565b9150509250929050565b60006131b78383613588565b60408301905092915050565b60006131cf83836135c6565b60208301905092915050565b6131e481613cb3565b82525050565b60006131f582613b09565b6131ff8185613b4f565b935061320a83613ae9565b8060005b8381101561323b57815161322288826131ab565b975061322d83613b35565b92505060018101905061320e565b5085935050505092915050565b600061325382613b14565b61325d8185613b60565b935061326883613af9565b8060005b8381101561329957815161328088826131c3565b975061328b83613b42565b92505060018101905061326c565b5085935050505092915050565b6132af81613cc5565b82525050565b60006132c082613b1f565b6132ca8185613b71565b93506132da818560208601613d44565b6132e381613f32565b840191505092915050565b60006132f982613b2a565b6133038185613b82565b9350613313818560208601613d44565b61331c81613f32565b840191505092915050565b600061333282613b2a565b61333c8185613b93565b935061334c818560208601613d44565b80840191505092915050565b6000613365603483613b82565b915061337082613f50565b604082019050919050565b6000613388602883613b82565b915061339382613f9f565b604082019050919050565b60006133ab602b83613b82565b91506133b682613fee565b604082019050919050565b60006133ce603183613b82565b91506133d98261403d565b604082019050919050565b60006133f1602483613b82565b91506133fc8261408c565b604082019050919050565b6000613414602b83613b82565b915061341f826140db565b604082019050919050565b6000613437602983613b82565b91506134428261412a565b604082019050919050565b600061345a601083613b82565b915061346582614179565b602082019050919050565b600061347d602583613b82565b9150613488826141a2565b604082019050919050565b60006134a0602383613b82565b91506134ab826141f1565b604082019050919050565b60006134c3602083613b82565b91506134ce82614240565b602082019050919050565b60006134e6601d83613b82565b91506134f182614269565b602082019050919050565b6000613509602983613b82565b915061351482614292565b604082019050919050565b600061352c602983613b82565b9150613537826142e1565b604082019050919050565b600061354f602883613b82565b915061355a82614330565b604082019050919050565b6000613572602183613b82565b915061357d8261437f565b604082019050919050565b60408201600082015161359e60008501826135c6565b5060208201516135b160208501826135c6565b50505050565b6135c081613cfd565b82525050565b6135cf81613d2b565b82525050565b6135de81613d2b565b82525050565b60006135f08285613327565b91506135fc8284613327565b91508190509392505050565b600060a08201905061361d60008301886131db565b61362a60208301876131db565b818103604083015261363c8186613248565b905081810360608301526136508185613248565b9050818103608083015261366481846132b5565b90509695505050505050565b600060a08201905061368560008301886131db565b61369260208301876131db565b61369f60408301866135d5565b6136ac60608301856135d5565b81810360808301526136be81846132b5565b90509695505050505050565b60006040820190506136df60008301856131db565b6136ec60208301846135d5565b9392505050565b6000602082019050818103600083015261370d81846131ea565b905092915050565b6000602082019050818103600083015261372f8184613248565b905092915050565b600060408201905081810360008301526137518185613248565b905081810360208301526137658184613248565b90509392505050565b600060208201905061378360008301846132a6565b92915050565b600060208201905081810360008301526137a381846132ee565b905092915050565b600060208201905081810360008301526137c481613358565b9050919050565b600060208201905081810360008301526137e48161337b565b9050919050565b600060208201905081810360008301526138048161339e565b9050919050565b60006020820190508181036000830152613824816133c1565b9050919050565b60006020820190508181036000830152613844816133e4565b9050919050565b6000602082019050818103600083015261386481613407565b9050919050565b600060208201905081810360008301526138848161342a565b9050919050565b600060208201905081810360008301526138a48161344d565b9050919050565b600060208201905081810360008301526138c481613470565b9050919050565b600060208201905081810360008301526138e481613493565b9050919050565b60006020820190508181036000830152613904816134b6565b9050919050565b60006020820190508181036000830152613924816134d9565b9050919050565b60006020820190508181036000830152613944816134fc565b9050919050565b600060208201905081810360008301526139648161351f565b9050919050565b6000602082019050818103600083015261398481613542565b9050919050565b600060208201905081810360008301526139a481613565565b9050919050565b60006020820190506139c060008301846135b7565b92915050565b60006020820190506139db60008301846135d5565b92915050565b60006040820190506139f660008301856135d5565b613a0360208301846135d5565b9392505050565b6000613a14613a25565b9050613a208282613da9565b919050565b6000604051905090565b600067ffffffffffffffff821115613a4a57613a49613ee1565b5b602082029050602081019050919050565b600067ffffffffffffffff821115613a7657613a75613ee1565b5b602082029050602081019050919050565b600067ffffffffffffffff821115613aa257613aa1613ee1565b5b613aab82613f32565b9050602081019050919050565b600067ffffffffffffffff821115613ad357613ad2613ee1565b5b613adc82613f32565b9050602081019050919050565b6000819050602082019050919050565b6000819050602082019050919050565b600081519050919050565b600081519050919050565b600081519050919050565b600081519050919050565b6000602082019050919050565b6000602082019050919050565b600082825260208201905092915050565b600082825260208201905092915050565b600082825260208201905092915050565b600082825260208201905092915050565b600081905092915050565b6000613ba982613d2b565b9150613bb483613d2b565b9250827fffffffffffffffffffffffffffffffffffffffffffffffffffffffffffffffff03821115613be957613be8613e54565b5b828201905092915050565b6000613bff82613d2b565b9150613c0a83613d2b565b925082613c1a57613c19613e83565b5b828204905092915050565b6000613c3082613d2b565b9150613c3b83613d2b565b9250817fffffffffffffffffffffffffffffffffffffffffffffffffffffffffffffffff0483118215151615613c7457613c73613e54565b5b828202905092915050565b6000613c8a82613d2b565b9150613c9583613d2b565b925082821015613ca857613ca7613e54565b5b828203905092915050565b6000613cbe82613d0b565b9050919050565b60008115159050919050565b60007fffffffff0000000000000000000000000000000000000000000000000000000082169050919050565b600061ffff82169050919050565b600073ffffffffffffffffffffffffffffffffffffffff82169050919050565b6000819050919050565b82818337600083830152505050565b60005b83811015613d62578082015181840152602081019050613d47565b83811115613d71576000848401525b50505050565b60006002820490506001821680613d8f57607f821691505b60208210811415613da357613da2613eb2565b5b50919050565b613db282613f32565b810181811067ffffffffffffffff82111715613dd157613dd0613ee1565b5b80604052505050565b6000613de582613d2b565b91507fffffffffffffffffffffffffffffffffffffffffffffffffffffffffffffffff821415613e1857613e17613e54565b5b600182019050919050565b6000613e2e82613d2b565b9150613e3983613d2b565b925082613e4957613e48613e83565b5b828206905092915050565b7f4e487b7100000000000000000000000000000000000000000000000000000000600052601160045260246000fd5b7f4e487b7100000000000000000000000000000000000000000000000000000000600052601260045260246000fd5b7f4e487b7100000000000000000000000000000000000000000000000000000000600052602260045260246000fd5b7f4e487b7100000000000000000000000000000000000000000000000000000000600052604160045260246000fd5b600060033d1115613f2f5760046000803e613f2c600051613f43565b90505b90565b6000601f19601f8301169050919050565b60008160e01c9050919050565b7f455243313135353a207472616e7366657220746f206e6f6e204552433131353560008201527f526563656976657220696d706c656d656e746572000000000000000000000000602082015250565b7f455243313135353a204552433131353552656365697665722072656a6563746560008201527f6420746f6b656e73000000000000000000000000000000000000000000000000602082015250565b7f455243313135353a2062616c616e636520717565727920666f7220746865207a60008201527f65726f2061646472657373000000000000000000000000000000000000000000602082015250565b7f455243313135353a2062617463682062616c616e636520717565727920666f7260008201527f20746865207a65726f2061646472657373000000000000000000000000000000602082015250565b7f455243313135353a206275726e20616d6f756e7420657863656564732062616c60008201527f616e636500000000000000000000000000000000000000000000000000000000602082015250565b7f455243313135353a20696e73756666696369656e742062616c616e636573206660008201527f6f72207472616e73666572000000000000000000000000000000000000000000602082015250565b7f455243313135353a2063616c6c6572206973206e6f74206f776e6572206e6f7260008201527f20617070726f7665640000000000000000000000000000000000000000000000602082015250565b7f5061757361626c653a2070617573656400000000000000000000000000000000600082015250565b7f455243313135353a207472616e7366657220746f20746865207a65726f20616460008201527f6472657373000000000000000000000000000000000000000000000000000000602082015250565b7f455243313135353a206275726e2066726f6d20746865207a65726f206164647260008201527f6573730000000000000000000000000000000000000000000000000000000000602082015250565b7f44654d696e654e46543a206d696e6564206f72206d696e696e6720746f6b656e600082015250565b7f4f776e61626c653a2073656e646572206d757374206265206f776e6572000000600082015250565b7f455243313135353a2073657474696e6720617070726f76616c2073746174757360008201527f20666f722073656c660000000000000000000000000000000000000000000000602082015250565b7f455243313135353a206163636f756e747320616e6420696473206c656e67746860008201527f206d69736d617463680000000000000000000000000000000000000000000000602082015250565b7f455243313135353a2069647320616e6420616d6f756e7473206c656e6774682060008201527f6d69736d61746368000000000000000000000000000000000000000000000000602082015250565b7f455243313135353a206d696e7420746f20746865207a65726f2061646472657360008201527f7300000000000000000000000000000000000000000000000000000000000000602082015250565b600060443d10156143de57614461565b6143e6613a25565b60043d036004823e80513d602482011167ffffffffffffffff8211171561440e575050614461565b808201805167ffffffffffffffff81111561442c5750505050614461565b80602083010160043d038501811115614449575050505050614461565b61445882602001850186613da9565b82955050505050505b90565b61446d81613cb3565b811461447857600080fd5b50565b61448481613cc5565b811461448f57600080fd5b50565b61449b81613cd1565b81146144a657600080fd5b50565b6144b281613cfd565b81146144bd57600080fd5b50565b6144c981613d2b565b81146144d457600080fd5b5056fea2646970667358221220d294506742b0df6d1db63fcd81f2d15cd1ad0924d960c94ae760de36f9a006ec64736f6c63430008040033",
  "devdoc": {
    "kind": "dev",
    "methods": {
      "balanceOf(address,uint256)": {
        "params": {
          "account": "address to query",
          "id": "token to query"
        },
        "returns": {
          "_0": "token balance"
        }
      },
      "balanceOfBatch(address[],uint256[])": {
        "params": {
          "accounts": "addresss to query",
          "ids": "tokens to query"
        },
        "returns": {
          "_0": "token balances"
        }
      },
      "isApprovedForAll(address,address)": {
        "params": {
          "account": "address to query for approval granted",
          "operator": "address to query for approval received"
        },
        "returns": {
          "_0": "whether operator is approved to spend tokens held by account"
        }
      },
      "safeBatchTransferFrom(address,address,uint256[],uint256[],bytes)": {
        "params": {
          "amounts": "list of quantities of tokens to transfer",
          "data": "data payload",
          "from": "sender of tokens",
          "ids": "list of token IDs",
          "to": "receiver of tokens"
        }
      },
      "safeTransferFrom(address,address,uint256,uint256,bytes)": {
        "params": {
          "amount": "quantity of tokens to transfer",
          "data": "data payload",
          "from": "sender of tokens",
          "id": "token ID",
          "to": "receiver of tokens"
        }
      },
      "setApprovalForAll(address,bool)": {
        "params": {
          "operator": "address whose approval status to update",
          "status": "whether operator should be considered approved"
        }
      },
      "supportsInterface(bytes4)": {
        "params": {
          "interfaceId": "interface id"
        },
        "returns": {
          "_0": "bool whether interface is supported"
        }
      }
    },
    "version": 1
  },
  "userdoc": {
    "kind": "user",
    "methods": {
      "balanceOf(address,uint256)": {
        "notice": "query the balance of given token held by given address"
      },
      "balanceOfBatch(address[],uint256[])": {
        "notice": "query the balances of given tokens held by given addresses"
      },
      "isApprovedForAll(address,address)": {
        "notice": "query approval status of given operator with respect to given address"
      },
      "safeBatchTransferFrom(address,address,uint256[],uint256[],bytes)": {
        "notice": "transfer batch of tokens between given addresses, checking for ERC1155Receiver implementation if applicable"
      },
      "safeTransferFrom(address,address,uint256,uint256,bytes)": {
        "notice": "transfer tokens between given addresses, checking for ERC1155Receiver implementation if applicable"
      },
      "setApprovalForAll(address,bool)": {
        "notice": "grant approval to or revoke approval from given operator to spend held tokens"
      },
      "supportsInterface(bytes4)": {
        "notice": "query whether contract has registered support for given interface"
      },
      "uri(uint256)": {
        "notice": "inheritdoc IERC1155Metadata"
      }
    },
    "version": 1
  },
  "storageLayout": {
    "storage": [
      {
        "astId": 2217,
        "contract": "contracts/nft/facets/ERC1155Facet.sol:ERC1155Facet",
        "label": "s",
        "offset": 0,
        "slot": "0",
        "type": "t_struct(AppStorage)2581_storage"
      }
    ],
    "types": {
      "t_address": {
        "encoding": "inplace",
        "label": "address",
        "numberOfBytes": "20"
      },
      "t_contract(IERC20)80": {
        "encoding": "inplace",
        "label": "contract IERC20",
        "numberOfBytes": "20"
      },
      "t_mapping(t_uint256,t_struct(Token)2562_storage)": {
        "encoding": "mapping",
        "key": "t_uint256",
        "label": "mapping(uint256 => struct Token)",
        "numberOfBytes": "32",
        "value": "t_struct(Token)2562_storage"
      },
      "t_struct(AppStorage)2581_storage": {
        "encoding": "inplace",
        "label": "struct AppStorage",
        "members": [
          {
            "astId": 2570,
            "contract": "contracts/nft/facets/ERC1155Facet.sol:ERC1155Facet",
            "label": "income",
            "offset": 0,
            "slot": "0",
            "type": "t_contract(IERC20)80"
          },
          {
            "astId": 2572,
            "contract": "contracts/nft/facets/ERC1155Facet.sol:ERC1155Facet",
            "label": "mining",
            "offset": 0,
            "slot": "1",
            "type": "t_uint256"
          },
          {
            "astId": 2577,
            "contract": "contracts/nft/facets/ERC1155Facet.sol:ERC1155Facet",
            "label": "tokens",
            "offset": 0,
            "slot": "2",
            "type": "t_mapping(t_uint256,t_struct(Token)2562_storage)"
          },
          {
            "astId": 2580,
            "contract": "contracts/nft/facets/ERC1155Facet.sol:ERC1155Facet",
            "label": "royalty",
            "offset": 0,
            "slot": "3",
            "type": "t_struct(RoyaltyInfo)2567_storage"
          }
        ],
        "numberOfBytes": "128"
      },
      "t_struct(RoyaltyInfo)2567_storage": {
        "encoding": "inplace",
        "label": "struct RoyaltyInfo",
        "members": [
          {
            "astId": 2564,
            "contract": "contracts/nft/facets/ERC1155Facet.sol:ERC1155Facet",
            "label": "recipient",
            "offset": 0,
            "slot": "0",
            "type": "t_address"
          },
          {
            "astId": 2566,
            "contract": "contracts/nft/facets/ERC1155Facet.sol:ERC1155Facet",
            "label": "bps",
            "offset": 20,
            "slot": "0",
            "type": "t_uint16"
          }
        ],
        "numberOfBytes": "32"
      },
      "t_struct(Token)2562_storage": {
        "encoding": "inplace",
        "label": "struct Token",
        "members": [
          {
            "astId": 2559,
            "contract": "contracts/nft/facets/ERC1155Facet.sol:ERC1155Facet",
            "label": "supply",
            "offset": 0,
            "slot": "0",
            "type": "t_uint256"
          },
          {
            "astId": 2561,
            "contract": "contracts/nft/facets/ERC1155Facet.sol:ERC1155Facet",
            "label": "income",
            "offset": 0,
            "slot": "1",
            "type": "t_uint256"
          }
        ],
        "numberOfBytes": "64"
      },
      "t_uint16": {
        "encoding": "inplace",
        "label": "uint16",
        "numberOfBytes": "2"
      },
      "t_uint256": {
        "encoding": "inplace",
        "label": "uint256",
        "numberOfBytes": "32"
      }
    }
  }
}