{
  "address": "0xefED4A411Ab94861853902C08484313B317F4362",
  "abi": [
    {
      "anonymous": false,
      "inputs": [
        {
          "indexed": true,
          "internalType": "address",
          "name": "owner",
          "type": "address"
        },
        {
          "indexed": true,
          "internalType": "address",
          "name": "spender",
          "type": "address"
        },
        {
          "indexed": false,
          "internalType": "uint256",
          "name": "value",
          "type": "uint256"
        }
      ],
      "name": "Approval",
      "type": "event"
    },
    {
      "anonymous": false,
      "inputs": [
        {
          "indexed": true,
          "internalType": "address",
          "name": "from",
          "type": "address"
        },
        {
          "indexed": true,
          "internalType": "address",
          "name": "to",
          "type": "address"
        },
        {
          "indexed": false,
          "internalType": "uint256",
          "name": "value",
          "type": "uint256"
        }
      ],
      "name": "Transfer",
      "type": "event"
    },
    {
      "inputs": [
        {
          "internalType": "address",
          "name": "holder",
          "type": "address"
        },
        {
          "internalType": "address",
          "name": "spender",
          "type": "address"
        }
      ],
      "name": "allowance",
      "outputs": [
        {
          "internalType": "uint256",
          "name": "",
          "type": "uint256"
        }
      ],
      "stateMutability": "view",
      "type": "function"
    },
    {
      "inputs": [
        {
          "internalType": "address",
          "name": "spender",
          "type": "address"
        },
        {
          "internalType": "uint256",
          "name": "amount",
          "type": "uint256"
        }
      ],
      "name": "approve",
      "outputs": [
        {
          "internalType": "bool",
          "name": "",
          "type": "bool"
        }
      ],
      "stateMutability": "nonpayable",
      "type": "function"
    },
    {
      "inputs": [
        {
          "internalType": "address",
          "name": "account",
          "type": "address"
        }
      ],
      "name": "balanceOf",
      "outputs": [
        {
          "internalType": "uint256",
          "name": "",
          "type": "uint256"
        }
      ],
      "stateMutability": "view",
      "type": "function"
    },
    {
      "inputs": [
        {
          "internalType": "uint256",
          "name": "amount",
          "type": "uint256"
        }
      ],
      "name": "burn",
      "outputs": [],
      "stateMutability": "nonpayable",
      "type": "function"
    },
    {
      "inputs": [],
      "name": "decimals",
      "outputs": [
        {
          "internalType": "uint8",
          "name": "",
          "type": "uint8"
        }
      ],
      "stateMutability": "view",
      "type": "function"
    },
    {
      "inputs": [
        {
          "internalType": "address",
          "name": "spender",
          "type": "address"
        },
        {
          "internalType": "uint256",
          "name": "amount",
          "type": "uint256"
        }
      ],
      "name": "decreaseAllowance",
      "outputs": [
        {
          "internalType": "bool",
          "name": "",
          "type": "bool"
        }
      ],
      "stateMutability": "nonpayable",
      "type": "function"
    },
    {
      "inputs": [
        {
          "internalType": "address",
          "name": "spender",
          "type": "address"
        },
        {
          "internalType": "uint256",
          "name": "amount",
          "type": "uint256"
        }
      ],
      "name": "increaseAllowance",
      "outputs": [
        {
          "internalType": "bool",
          "name": "",
          "type": "bool"
        }
      ],
      "stateMutability": "nonpayable",
      "type": "function"
    },
    {
      "inputs": [
        {
          "internalType": "string",
          "name": "name",
          "type": "string"
        },
        {
          "internalType": "string",
          "name": "symbol",
          "type": "string"
        },
        {
          "internalType": "uint8",
          "name": "decimals",
          "type": "uint8"
        }
      ],
      "name": "init",
      "outputs": [],
      "stateMutability": "nonpayable",
      "type": "function"
    },
    {
      "inputs": [
        {
          "internalType": "address",
          "name": "to",
          "type": "address"
        },
        {
          "internalType": "uint256",
          "name": "amount",
          "type": "uint256"
        }
      ],
      "name": "mint",
      "outputs": [],
      "stateMutability": "nonpayable",
      "type": "function"
    },
    {
      "inputs": [],
      "name": "name",
      "outputs": [
        {
          "internalType": "string",
          "name": "",
          "type": "string"
        }
      ],
      "stateMutability": "view",
      "type": "function"
    },
    {
      "inputs": [],
      "name": "symbol",
      "outputs": [
        {
          "internalType": "string",
          "name": "",
          "type": "string"
        }
      ],
      "stateMutability": "view",
      "type": "function"
    },
    {
      "inputs": [],
      "name": "totalSupply",
      "outputs": [
        {
          "internalType": "uint256",
          "name": "",
          "type": "uint256"
        }
      ],
      "stateMutability": "view",
      "type": "function"
    },
    {
      "inputs": [
        {
          "internalType": "address",
          "name": "recipient",
          "type": "address"
        },
        {
          "internalType": "uint256",
          "name": "amount",
          "type": "uint256"
        }
      ],
      "name": "transfer",
      "outputs": [
        {
          "internalType": "bool",
          "name": "",
          "type": "bool"
        }
      ],
      "stateMutability": "nonpayable",
      "type": "function"
    },
    {
      "inputs": [
        {
          "internalType": "address",
          "name": "holder",
          "type": "address"
        },
        {
          "internalType": "address",
          "name": "recipient",
          "type": "address"
        },
        {
          "internalType": "uint256",
          "name": "amount",
          "type": "uint256"
        }
      ],
      "name": "transferFrom",
      "outputs": [
        {
          "internalType": "bool",
          "name": "",
          "type": "bool"
        }
      ],
      "stateMutability": "nonpayable",
      "type": "function"
    }
  ],
  "transactionHash": "0x2da9113bebec7f4fc60f02ed1653dbd49a5fd8ef3b4fb991a71f0721e5eede26",
  "args": [],
  "numDeployments": 1,
  "solcInputHash": "34b66a3a359dd69d4434b1133c2dd4ae",
  "bytecode": "0x608060405234801561001057600080fd5b5061226e806100206000396000f3fe608060405234801561001057600080fd5b50600436106100ea5760003560e01c806342966c681161008c578063a457c2d711610066578063a457c2d71461025f578063a9059cbb1461028f578063dd62ed3e146102bf578063f57b0182146102ef576100ea565b806342966c68146101f557806370a082311461021157806395d89b4114610241576100ea565b806323b872dd116100c857806323b872dd1461015b578063313ce5671461018b57806339509351146101a957806340c10f19146101d9576100ea565b806306fdde03146100ef578063095ea7b31461010d57806318160ddd1461013d575b600080fd5b6100f761030b565b604051610104919061151a565b60405180910390f35b610127600480360381019061012291906115e4565b6103a6565b604051610134919061163f565b60405180910390f35b6101456103bd565b6040516101529190611669565b60405180910390f35b61017560048036038101906101709190611684565b6103cc565b604051610182919061163f565b60405180910390f35b6101936104be565b6040516101a091906116f3565b60405180910390f35b6101c360048036038101906101be91906115e4565b6104de565b6040516101d0919061163f565b60405180910390f35b6101f360048036038101906101ee91906115e4565b61060d565b005b61020f600480360381019061020a919061170e565b6106b4565b005b61022b6004803603810190610226919061173b565b61075a565b6040516102389190611669565b60405180910390f35b61024961076c565b604051610256919061151a565b60405180910390f35b610279600480360381019061027491906115e4565b610807565b604051610286919061163f565b60405180910390f35b6102a960048036038101906102a491906115e4565b610934565b6040516102b6919061163f565b60405180910390f35b6102d960048036038101906102d49190611768565b61094b565b6040516102e69190611669565b60405180910390f35b61030960048036038101906103049190611909565b6109db565b005b6060610315610a94565b6000018054610323906119c3565b80601f016020809104026020016040519081016040528092919081815260200182805461034f906119c3565b801561039c5780601f106103715761010080835404028352916020019161039c565b820191906000526020600020905b81548152906001019060200180831161037f57829003601f168201915b5050505050905090565b60006103b3338484610ac1565b6001905092915050565b60006103c7610c95565b905090565b6000806103d7610ca8565b60010160008673ffffffffffffffffffffffffffffffffffffffff1673ffffffffffffffffffffffffffffffffffffffff16815260200190815260200160002060003373ffffffffffffffffffffffffffffffffffffffff1673ffffffffffffffffffffffffffffffffffffffff1681526020019081526020016000205490508281101561049a576040517f08c379a000000000000000000000000000000000000000000000000000000000815260040161049190611a67565b60405180910390fd5b6104a78533858403610ac1565b6104b2858585610cd5565b60019150509392505050565b60006104c8610a94565b60020160009054906101000a900460ff16905090565b6000806104e9610ca8565b60010160003373ffffffffffffffffffffffffffffffffffffffff1673ffffffffffffffffffffffffffffffffffffffff168152602001908152602001600020905060008160008673ffffffffffffffffffffffffffffffffffffffff1673ffffffffffffffffffffffffffffffffffffffff1681526020019081526020016000205490508084820110156105b3576040517f08c379a00000000000000000000000000000000000000000000000000000000081526004016105aa90611af9565b60405180910390fd5b61060133868684018560008a73ffffffffffffffffffffffffffffffffffffffff1673ffffffffffffffffffffffffffffffffffffffff168152602001908152602001600020819055610ac1565b60019250505092915050565b610615610f61565b60000160009054906101000a900473ffffffffffffffffffffffffffffffffffffffff1673ffffffffffffffffffffffffffffffffffffffff163373ffffffffffffffffffffffffffffffffffffffff16146106a6576040517f08c379a000000000000000000000000000000000000000000000000000000000815260040161069d90611b65565b60405180910390fd5b6106b08282610f8e565b5050565b6106bc610f61565b60000160009054906101000a900473ffffffffffffffffffffffffffffffffffffffff1673ffffffffffffffffffffffffffffffffffffffff163373ffffffffffffffffffffffffffffffffffffffff161461074d576040517f08c379a000000000000000000000000000000000000000000000000000000000815260040161074490611b65565b60405180910390fd5b61075733826110f4565b50565b6000610765826112d4565b9050919050565b6060610776610a94565b6001018054610784906119c3565b80601f01602080910402602001604051908101604052809291908181526020018280546107b0906119c3565b80156107fd5780601f106107d2576101008083540402835291602001916107fd565b820191906000526020600020905b8154815290600101906020018083116107e057829003601f168201915b5050505050905090565b600080610812610ca8565b60010160003373ffffffffffffffffffffffffffffffffffffffff1673ffffffffffffffffffffffffffffffffffffffff168152602001908152602001600020905060008160008673ffffffffffffffffffffffffffffffffffffffff1673ffffffffffffffffffffffffffffffffffffffff168152602001908152602001600020549050808411156108da576040517f08c379a00000000000000000000000000000000000000000000000000000000081526004016108d190611bf7565b60405180910390fd5b61092833868684038560008a73ffffffffffffffffffffffffffffffffffffffff1673ffffffffffffffffffffffffffffffffffffffff168152602001908152602001600020819055610ac1565b60019250505092915050565b6000610941338484610cd5565b6001905092915050565b6000610955610ca8565b60010160008473ffffffffffffffffffffffffffffffffffffffff1673ffffffffffffffffffffffffffffffffffffffff16815260200190815260200160002060008373ffffffffffffffffffffffffffffffffffffffff1673ffffffffffffffffffffffffffffffffffffffff16815260200190815260200160002054905092915050565b6109e3611326565b60000160019054906101000a900460ff16610a33576040517f08c379a0000000000000000000000000000000000000000000000000000000008152600401610a2a90611c89565b60405180910390fd5b6000610a3d610a94565b905083816000019080519060200190610a579291906113de565b5082816001019080519060200190610a709291906113de565b50818160020160006101000a81548160ff021916908360ff16021790555050505050565b6000807f2967a798b92539a1b9eefe4d8eb931f96b68d27665e276f1bee2d5db7f74304790508091505090565b600073ffffffffffffffffffffffffffffffffffffffff168373ffffffffffffffffffffffffffffffffffffffff161415610b31576040517f08c379a0000000000000000000000000000000000000000000000000000000008152600401610b2890611d1b565b60405180910390fd5b600073ffffffffffffffffffffffffffffffffffffffff168273ffffffffffffffffffffffffffffffffffffffff161415610ba1576040517f08c379a0000000000000000000000000000000000000000000000000000000008152600401610b9890611dad565b60405180910390fd5b80610baa610ca8565b60010160008573ffffffffffffffffffffffffffffffffffffffff1673ffffffffffffffffffffffffffffffffffffffff16815260200190815260200160002060008473ffffffffffffffffffffffffffffffffffffffff1673ffffffffffffffffffffffffffffffffffffffff168152602001908152602001600020819055508173ffffffffffffffffffffffffffffffffffffffff168373ffffffffffffffffffffffffffffffffffffffff167f8c5be1e5ebec7d5bd14f71427d1e84f3dd0314c0f7b2291e5b200ac8c7c3b92583604051610c889190611669565b60405180910390a3505050565b6000610c9f610ca8565b60020154905090565b6000807fc991b2e918acaba8e5721668ed0b1982684e5a8692a621bcd2d7ef326bb015b490508091505090565b600073ffffffffffffffffffffffffffffffffffffffff168373ffffffffffffffffffffffffffffffffffffffff161415610d45576040517f08c379a0000000000000000000000000000000000000000000000000000000008152600401610d3c90611e3f565b60405180910390fd5b600073ffffffffffffffffffffffffffffffffffffffff168273ffffffffffffffffffffffffffffffffffffffff161415610db5576040517f08c379a0000000000000000000000000000000000000000000000000000000008152600401610dac90611ed1565b60405180910390fd5b610dc0838383611353565b6000610dca610ca8565b905060008160000160008673ffffffffffffffffffffffffffffffffffffffff1673ffffffffffffffffffffffffffffffffffffffff16815260200190815260200160002054905082811015610e55576040517f08c379a0000000000000000000000000000000000000000000000000000000008152600401610e4c90611f63565b60405180910390fd5b8281038260000160008773ffffffffffffffffffffffffffffffffffffffff1673ffffffffffffffffffffffffffffffffffffffff16815260200190815260200160002081905550828260000160008673ffffffffffffffffffffffffffffffffffffffff1673ffffffffffffffffffffffffffffffffffffffff1681526020019081526020016000206000828254610eee9190611fb2565b925050819055508373ffffffffffffffffffffffffffffffffffffffff168573ffffffffffffffffffffffffffffffffffffffff167fddf252ad1be2c89b69c2b068fc378daa952ba7f163c4a11628f55a4df523b3ef85604051610f529190611669565b60405180910390a35050505050565b6000807f8a22373512790c48b83a1fe2efdd2888d4a917bcdc24d0adf63e60f67168046090508091505090565b600073ffffffffffffffffffffffffffffffffffffffff168273ffffffffffffffffffffffffffffffffffffffff161415610ffe576040517f08c379a0000000000000000000000000000000000000000000000000000000008152600401610ff590612054565b60405180910390fd5b61100a60008383611353565b6000611014610ca8565b90508181600201600082825461102a9190611fb2565b92505081905550818160000160008573ffffffffffffffffffffffffffffffffffffffff1673ffffffffffffffffffffffffffffffffffffffff16815260200190815260200160002060008282546110829190611fb2565b925050819055508273ffffffffffffffffffffffffffffffffffffffff16600073ffffffffffffffffffffffffffffffffffffffff167fddf252ad1be2c89b69c2b068fc378daa952ba7f163c4a11628f55a4df523b3ef846040516110e79190611669565b60405180910390a3505050565b600073ffffffffffffffffffffffffffffffffffffffff168273ffffffffffffffffffffffffffffffffffffffff161415611164576040517f08c379a000000000000000000000000000000000000000000000000000000000815260040161115b906120e6565b60405180910390fd5b61117082600083611353565b600061117a610ca8565b905060008160000160008573ffffffffffffffffffffffffffffffffffffffff1673ffffffffffffffffffffffffffffffffffffffff16815260200190815260200160002054905082811015611205576040517f08c379a00000000000000000000000000000000000000000000000000000000081526004016111fc90612178565b60405180910390fd5b8281038260000160008673ffffffffffffffffffffffffffffffffffffffff1673ffffffffffffffffffffffffffffffffffffffff16815260200190815260200160002081905550828260020160008282546112619190612198565b92505081905550600073ffffffffffffffffffffffffffffffffffffffff168473ffffffffffffffffffffffffffffffffffffffff167fddf252ad1be2c89b69c2b068fc378daa952ba7f163c4a11628f55a4df523b3ef856040516112c69190611669565b60405180910390a350505050565b60006112de610ca8565b60000160008373ffffffffffffffffffffffffffffffffffffffff1673ffffffffffffffffffffffffffffffffffffffff168152602001908152602001600020549050919050565b6000807f2ae1e818fc317b4c150084d41bf7468a28b0861c8b85a3e58e4bb4d5dbbc6aa190508091505090565b61135b6113b1565b60000160009054906101000a900460ff16156113ac576040517f08c379a00000000000000000000000000000000000000000000000000000000081526004016113a390612218565b60405180910390fd5b505050565b6000807f68721c0bbf2c02a4d65000340d1370666be06a630022208d4baa9bd7a4b6fea890508091505090565b8280546113ea906119c3565b90600052602060002090601f01602090048101928261140c5760008555611453565b82601f1061142557805160ff1916838001178555611453565b82800160010185558215611453579182015b82811115611452578251825591602001919060010190611437565b5b5090506114609190611464565b5090565b5b8082111561147d576000816000905550600101611465565b5090565b600081519050919050565b600082825260208201905092915050565b60005b838110156114bb5780820151818401526020810190506114a0565b838111156114ca576000848401525b50505050565b6000601f19601f8301169050919050565b60006114ec82611481565b6114f6818561148c565b935061150681856020860161149d565b61150f816114d0565b840191505092915050565b6000602082019050818103600083015261153481846114e1565b905092915050565b6000604051905090565b600080fd5b600080fd5b600073ffffffffffffffffffffffffffffffffffffffff82169050919050565b600061157b82611550565b9050919050565b61158b81611570565b811461159657600080fd5b50565b6000813590506115a881611582565b92915050565b6000819050919050565b6115c1816115ae565b81146115cc57600080fd5b50565b6000813590506115de816115b8565b92915050565b600080604083850312156115fb576115fa611546565b5b600061160985828601611599565b925050602061161a858286016115cf565b9150509250929050565b60008115159050919050565b61163981611624565b82525050565b60006020820190506116546000830184611630565b92915050565b611663816115ae565b82525050565b600060208201905061167e600083018461165a565b92915050565b60008060006060848603121561169d5761169c611546565b5b60006116ab86828701611599565b93505060206116bc86828701611599565b92505060406116cd868287016115cf565b9150509250925092565b600060ff82169050919050565b6116ed816116d7565b82525050565b600060208201905061170860008301846116e4565b92915050565b60006020828403121561172457611723611546565b5b6000611732848285016115cf565b91505092915050565b60006020828403121561175157611750611546565b5b600061175f84828501611599565b91505092915050565b6000806040838503121561177f5761177e611546565b5b600061178d85828601611599565b925050602061179e85828601611599565b9150509250929050565b600080fd5b600080fd5b7f4e487b7100000000000000000000000000000000000000000000000000000000600052604160045260246000fd5b6117ea826114d0565b810181811067ffffffffffffffff82111715611809576118086117b2565b5b80604052505050565b600061181c61153c565b905061182882826117e1565b919050565b600067ffffffffffffffff821115611848576118476117b2565b5b611851826114d0565b9050602081019050919050565b82818337600083830152505050565b600061188061187b8461182d565b611812565b90508281526020810184848401111561189c5761189b6117ad565b5b6118a784828561185e565b509392505050565b600082601f8301126118c4576118c36117a8565b5b81356118d484826020860161186d565b91505092915050565b6118e6816116d7565b81146118f157600080fd5b50565b600081359050611903816118dd565b92915050565b60008060006060848603121561192257611921611546565b5b600084013567ffffffffffffffff8111156119405761193f61154b565b5b61194c868287016118af565b935050602084013567ffffffffffffffff81111561196d5761196c61154b565b5b611979868287016118af565b925050604061198a868287016118f4565b9150509250925092565b7f4e487b7100000000000000000000000000000000000000000000000000000000600052602260045260246000fd5b600060028204905060018216806119db57607f821691505b602082108114156119ef576119ee611994565b5b50919050565b7f45524332303a207472616e7366657220616d6f756e742065786365656473206160008201527f6c6c6f77616e6365000000000000000000000000000000000000000000000000602082015250565b6000611a5160288361148c565b9150611a5c826119f5565b604082019050919050565b60006020820190508181036000830152611a8081611a44565b9050919050565b7f4552433230457874656e6465643a2065786365737369766520616c6c6f77616e60008201527f6365000000000000000000000000000000000000000000000000000000000000602082015250565b6000611ae360228361148c565b9150611aee82611a87565b604082019050919050565b60006020820190508181036000830152611b1281611ad6565b9050919050565b7f4f776e61626c653a2073656e646572206d757374206265206f776e6572000000600082015250565b6000611b4f601d8361148c565b9150611b5a82611b19565b602082019050919050565b60006020820190508181036000830152611b7e81611b42565b9050919050565b7f4552433230457874656e6465643a20696e73756666696369656e7420616c6c6f60008201527f77616e6365000000000000000000000000000000000000000000000000000000602082015250565b6000611be160258361148c565b9150611bec82611b85565b604082019050919050565b60006020820190508181036000830152611c1081611bd4565b9050919050565b7f496e697469616c697a61626c653a20636f6e7472616374206973206e6f74206960008201527f6e697469616c697a696e67000000000000000000000000000000000000000000602082015250565b6000611c73602b8361148c565b9150611c7e82611c17565b604082019050919050565b60006020820190508181036000830152611ca281611c66565b9050919050565b7f45524332303a20617070726f76652066726f6d20746865207a65726f2061646460008201527f7265737300000000000000000000000000000000000000000000000000000000602082015250565b6000611d0560248361148c565b9150611d1082611ca9565b604082019050919050565b60006020820190508181036000830152611d3481611cf8565b9050919050565b7f45524332303a20617070726f766520746f20746865207a65726f20616464726560008201527f7373000000000000000000000000000000000000000000000000000000000000602082015250565b6000611d9760228361148c565b9150611da282611d3b565b604082019050919050565b60006020820190508181036000830152611dc681611d8a565b9050919050565b7f45524332303a207472616e736665722066726f6d20746865207a65726f20616460008201527f6472657373000000000000000000000000000000000000000000000000000000602082015250565b6000611e2960258361148c565b9150611e3482611dcd565b604082019050919050565b60006020820190508181036000830152611e5881611e1c565b9050919050565b7f45524332303a207472616e7366657220746f20746865207a65726f206164647260008201527f6573730000000000000000000000000000000000000000000000000000000000602082015250565b6000611ebb60238361148c565b9150611ec682611e5f565b604082019050919050565b60006020820190508181036000830152611eea81611eae565b9050919050565b7f45524332303a207472616e7366657220616d6f756e742065786365656473206260008201527f616c616e63650000000000000000000000000000000000000000000000000000602082015250565b6000611f4d60268361148c565b9150611f5882611ef1565b604082019050919050565b60006020820190508181036000830152611f7c81611f40565b9050919050565b7f4e487b7100000000000000000000000000000000000000000000000000000000600052601160045260246000fd5b6000611fbd826115ae565b9150611fc8836115ae565b9250827fffffffffffffffffffffffffffffffffffffffffffffffffffffffffffffffff03821115611ffd57611ffc611f83565b5b828201905092915050565b7f45524332303a206d696e7420746f20746865207a65726f206164647265737300600082015250565b600061203e601f8361148c565b915061204982612008565b602082019050919050565b6000602082019050818103600083015261206d81612031565b9050919050565b7f45524332303a206275726e2066726f6d20746865207a65726f2061646472657360008201527f7300000000000000000000000000000000000000000000000000000000000000602082015250565b60006120d060218361148c565b91506120db82612074565b604082019050919050565b600060208201905081810360008301526120ff816120c3565b9050919050565b7f45524332303a206275726e20616d6f756e7420657863656564732062616c616e60008201527f6365000000000000000000000000000000000000000000000000000000000000602082015250565b600061216260228361148c565b915061216d82612106565b604082019050919050565b6000602082019050818103600083015261219181612155565b9050919050565b60006121a3826115ae565b91506121ae836115ae565b9250828210156121c1576121c0611f83565b5b828203905092915050565b7f5061757361626c653a2070617573656400000000000000000000000000000000600082015250565b600061220260108361148c565b915061220d826121cc565b602082019050919050565b60006020820190508181036000830152612231816121f5565b905091905056fea26469706673582212204dd17e4244af56e3c2ecd2e1edd6dd36a17aa400b8b4457f42917aa74a9e75d364736f6c634300080b0033",
  "devdoc": {
    "kind": "dev",
    "methods": {
      "allowance(address,address)": {
        "params": {
          "holder": "approver of allowance",
          "spender": "recipient of allowance"
        },
        "returns": {
          "_0": "token allowance"
        }
      },
      "approve(address,uint256)": {
        "details": "prefer ERC20Extended functions to avoid transaction-ordering vulnerability (see https://github.com/ethereum/EIPs/issues/20#issuecomment-263524729)",
        "params": {
          "amount": "quantity of tokens approved for spending",
          "spender": "recipient of allowance"
        },
        "returns": {
          "_0": "success status (always true; otherwise function should revert)"
        }
      },
      "balanceOf(address)": {
        "params": {
          "account": "address to query"
        },
        "returns": {
          "_0": "token balance"
        }
      },
      "decimals()": {
        "returns": {
          "_0": "token decimals"
        }
      },
      "decreaseAllowance(address,uint256)": {
        "params": {
          "amount": "quantity by which to decrease allowance",
          "spender": "address whose allowance to decrease"
        },
        "returns": {
          "_0": "success status (always true; otherwise function will revert)"
        }
      },
      "increaseAllowance(address,uint256)": {
        "params": {
          "amount": "quantity by which to increase allowance",
          "spender": "address whose allowance to increase"
        },
        "returns": {
          "_0": "success status (always true; otherwise function will revert)"
        }
      },
      "name()": {
        "returns": {
          "_0": "token name"
        }
      },
      "symbol()": {
        "returns": {
          "_0": "token symbol"
        }
      },
      "totalSupply()": {
        "returns": {
          "_0": "token supply"
        }
      },
      "transfer(address,uint256)": {
        "params": {
          "amount": "quantity of tokens to transfer",
          "recipient": "beneficiary of token transfer"
        },
        "returns": {
          "_0": "success status (always true; otherwise function should revert)"
        }
      },
      "transferFrom(address,address,uint256)": {
        "params": {
          "amount": "quantity of tokens to transfer",
          "holder": "holder of tokens prior to transfer",
          "recipient": "beneficiary of token transfer"
        },
        "returns": {
          "_0": "success status (always true; otherwise function should revert)"
        }
      }
    },
    "version": 1
  },
  "userdoc": {
    "kind": "user",
    "methods": {
      "allowance(address,address)": {
        "notice": "query the allowance granted from given holder to given spender"
      },
      "approve(address,uint256)": {
        "notice": "grant approval to spender to spend tokens"
      },
      "balanceOf(address)": {
        "notice": "query the token balance of given account"
      },
      "decimals()": {
        "notice": "return token decimals, generally used only for display purposes"
      },
      "decreaseAllowance(address,uint256)": {
        "notice": "decrease spend amount granted to spender"
      },
      "increaseAllowance(address,uint256)": {
        "notice": "increase spend amount granted to spender"
      },
      "name()": {
        "notice": "return token name"
      },
      "symbol()": {
        "notice": "return token symbol"
      },
      "totalSupply()": {
        "notice": "query the total minted token supply"
      },
      "transfer(address,uint256)": {
        "notice": "transfer tokens to given recipient"
      },
      "transferFrom(address,address,uint256)": {
        "notice": "transfer tokens to given recipient on behalf of given holder"
      }
    },
    "version": 1
  },
  "storageLayout": {
    "storage": [],
    "types": null
  }
}