{
  "address": "0xd6b1A05020f0aB14Cb16fe9dcDfAf7a2aCa09e10",
  "abi": [
    {
      "anonymous": false,
      "inputs": [
        {
          "indexed": true,
          "internalType": "address",
          "name": "account",
          "type": "address"
        },
        {
          "indexed": false,
          "internalType": "uint256",
          "name": "income",
          "type": "uint256"
        }
      ],
      "name": "Alchemy",
      "type": "event"
    },
    {
      "anonymous": false,
      "inputs": [
        {
          "indexed": true,
          "internalType": "address",
          "name": "account",
          "type": "address"
        },
        {
          "indexed": true,
          "internalType": "address",
          "name": "operator",
          "type": "address"
        },
        {
          "indexed": false,
          "internalType": "bool",
          "name": "approved",
          "type": "bool"
        }
      ],
      "name": "ApprovalForAll",
      "type": "event"
    },
    {
      "anonymous": false,
      "inputs": [
        {
          "indexed": true,
          "internalType": "uint256",
          "name": "",
          "type": "uint256"
        },
        {
          "indexed": false,
          "internalType": "address",
          "name": "",
          "type": "address"
        },
        {
          "indexed": false,
          "internalType": "uint256",
          "name": "",
          "type": "uint256"
        },
        {
          "indexed": false,
          "internalType": "uint256",
          "name": "",
          "type": "uint256"
        }
      ],
      "name": "Finalize",
      "type": "event"
    },
    {
      "anonymous": false,
      "inputs": [
        {
          "indexed": true,
          "internalType": "address",
          "name": "operator",
          "type": "address"
        },
        {
          "indexed": true,
          "internalType": "address",
          "name": "from",
          "type": "address"
        },
        {
          "indexed": true,
          "internalType": "address",
          "name": "to",
          "type": "address"
        },
        {
          "indexed": false,
          "internalType": "uint256[]",
          "name": "ids",
          "type": "uint256[]"
        },
        {
          "indexed": false,
          "internalType": "uint256[]",
          "name": "values",
          "type": "uint256[]"
        }
      ],
      "name": "TransferBatch",
      "type": "event"
    },
    {
      "anonymous": false,
      "inputs": [
        {
          "indexed": true,
          "internalType": "address",
          "name": "operator",
          "type": "address"
        },
        {
          "indexed": true,
          "internalType": "address",
          "name": "from",
          "type": "address"
        },
        {
          "indexed": true,
          "internalType": "address",
          "name": "to",
          "type": "address"
        },
        {
          "indexed": false,
          "internalType": "uint256",
          "name": "id",
          "type": "uint256"
        },
        {
          "indexed": false,
          "internalType": "uint256",
          "name": "value",
          "type": "uint256"
        }
      ],
      "name": "TransferSingle",
      "type": "event"
    },
    {
      "inputs": [
        {
          "internalType": "uint256[]",
          "name": "ids",
          "type": "uint256[]"
        }
      ],
      "name": "alchemize",
      "outputs": [
        {
          "internalType": "uint256",
          "name": "income",
          "type": "uint256"
        }
      ],
      "stateMutability": "nonpayable",
      "type": "function"
    },
    {
      "inputs": [
        {
          "internalType": "address",
          "name": "source",
          "type": "address"
        },
        {
          "internalType": "uint256",
          "name": "income",
          "type": "uint256"
        }
      ],
      "name": "finalize",
      "outputs": [],
      "stateMutability": "nonpayable",
      "type": "function"
    },
    {
      "inputs": [],
      "name": "getMining",
      "outputs": [
        {
          "internalType": "uint256",
          "name": "",
          "type": "uint256"
        }
      ],
      "stateMutability": "view",
      "type": "function"
    },
    {
      "inputs": [
        {
          "internalType": "uint256",
          "name": "id",
          "type": "uint256"
        }
      ],
      "name": "getTokenInfo",
      "outputs": [
        {
          "components": [
            {
              "internalType": "uint256",
              "name": "supply",
              "type": "uint256"
            },
            {
              "internalType": "uint256",
              "name": "income",
              "type": "uint256"
            }
          ],
          "internalType": "struct Token",
          "name": "",
          "type": "tuple"
        }
      ],
      "stateMutability": "view",
      "type": "function"
    },
    {
      "inputs": [
        {
          "internalType": "uint256[]",
          "name": "ids",
          "type": "uint256[]"
        }
      ],
      "name": "shrink",
      "outputs": [],
      "stateMutability": "nonpayable",
      "type": "function"
    },
    {
      "inputs": [],
      "name": "treasureSource",
      "outputs": [
        {
          "internalType": "address",
          "name": "",
          "type": "address"
        }
      ],
      "stateMutability": "view",
      "type": "function"
    }
  ],
  "transactionHash": "0x951af48aff80bd68dfc37bb1ce3773a0ce8e9fa590fcf68a418f82267483c2ef",
  "args": [],
  "numDeployments": 1,
  "solcInputHash": "91f67aea1dc348227e3f6da62b6e39f7",
  "bytecode": "0x608060405234801561001057600080fd5b50611ad2806100206000396000f3fe608060405234801561001057600080fd5b50600436106100625760003560e01c80630553e156146100675780630b9d0b791461008357806336b765fe146100b357806376e6dca2146100cf5780638550e6d1146100ed5780638c7a63ae1461010b575b600080fd5b610081600480360381019061007c91906110f4565b61013b565b005b61009d60048036038101906100989190611130565b6102dc565b6040516100aa919061166f565b60405180910390f35b6100cd60048036038101906100c89190611130565b6107e0565b005b6100d7610bd2565b6040516100e4919061166f565b60405180910390f35b6100f5610bde565b6040516101029190611467565b60405180910390f35b6101256004803603810190610120919061119e565b610c0a565b6040516101329190611654565b60405180910390f35b610143610c4e565b60000160009054906101000a900473ffffffffffffffffffffffffffffffffffffffff1673ffffffffffffffffffffffffffffffffffffffff163373ffffffffffffffffffffffffffffffffffffffff16146101d4576040517f08c379a00000000000000000000000000000000000000000000000000000000081526004016101cb906115d4565b60405180910390fd5b600080600101549050816000600201600083815260200190815260200160002060010181905550600080600201600083815260200190815260200160002060000154905060008382610226919061174b565b90506000811115610283576102828530836000800160009054906101000a900473ffffffffffffffffffffffffffffffffffffffff1673ffffffffffffffffffffffffffffffffffffffff16610c7b909392919063ffffffff16565b5b60018361029091906116f5565b600060010181905550827f6b386025bc0236c42d249e5de208a8f0f9383049cf5796dfa0a878fd9d73d11a8686856040516102cd939291906114e2565b60405180910390a25050505050565b60006102e6610d04565b60000160009054906101000a900460ff1615610337576040517f08c379a000000000000000000000000000000000000000000000000000000000815260040161032e90611594565b60405180910390fd5b6000610341610d31565b905060008060010154905060008585905067ffffffffffffffff811115610391577f4e487b7100000000000000000000000000000000000000000000000000000000600052604160045260246000fd5b6040519080825280602002602001820160405280156103bf5781602001602082028036833780820191505090505b50905060005b868690508110156106b8578287878381811061040a577f4e487b7100000000000000000000000000000000000000000000000000000000600052603260045260246000fd5b9050602002013510610451576040517f08c379a000000000000000000000000000000000000000000000000000000000815260040161044890611634565b60405180910390fd5b6000846000016000898985818110610492577f4e487b7100000000000000000000000000000000000000000000000000000000600052603260045260246000fd5b90506020020135815260200190815260200160002060003373ffffffffffffffffffffffffffffffffffffffff1673ffffffffffffffffffffffffffffffffffffffff16815260200190815260200160002054905080600060020160008a8a86818110610528577f4e487b7100000000000000000000000000000000000000000000000000000000600052603260045260246000fd5b905060200201358152602001908152602001600020600001600082825461054f91906117a5565b9250508190555060008560000160008a8a86818110610597577f4e487b7100000000000000000000000000000000000000000000000000000000600052603260045260246000fd5b90506020020135815260200190815260200160002060003373ffffffffffffffffffffffffffffffffffffffff1673ffffffffffffffffffffffffffffffffffffffff168152602001908152602001600020819055506000600201600089898581811061062d577f4e487b7100000000000000000000000000000000000000000000000000000000600052603260045260246000fd5b9050602002013581526020019081526020016000206001015481610651919061174b565b8661065c91906116f5565b955080838381518110610698577f4e487b7100000000000000000000000000000000000000000000000000000000600052603260045260246000fd5b6020026020010181815250505080806106b090611863565b9150506103c5565b5061070833856000800160009054906101000a900473ffffffffffffffffffffffffffffffffffffffff1673ffffffffffffffffffffffffffffffffffffffff16610d5e9092919063ffffffff16565b600073ffffffffffffffffffffffffffffffffffffffff163373ffffffffffffffffffffffffffffffffffffffff163373ffffffffffffffffffffffffffffffffffffffff167f4a39dc06d4c0dbc64b70af90fd698a233a518aa5d07e595d983b8c0526c8f7fb89898660405161078193929190611519565b60405180910390a43373ffffffffffffffffffffffffffffffffffffffff167fe9df6fe73a4a0b4ca42668b18744091a48a640da4eccde958e65747c9b85606b856040516107cf919061166f565b60405180910390a250505092915050565b6107e8610d04565b60000160009054906101000a900460ff1615610839576040517f08c379a000000000000000000000000000000000000000000000000000000000815260040161083090611594565b60405180910390fd5b6000610843610d31565b905060008383905067ffffffffffffffff81111561088a577f4e487b7100000000000000000000000000000000000000000000000000000000600052604160045260246000fd5b6040519080825280602002602001820160405280156108b85781602001602082028036833780820191505090505b50905060008060010154905060005b85859050811015610b49578186868381811061090c577f4e487b7100000000000000000000000000000000000000000000000000000000600052603260045260246000fd5b9050602002013511610953576040517f08c379a000000000000000000000000000000000000000000000000000000000815260040161094a906115b4565b60405180910390fd5b6000846000016000888885818110610994577f4e487b7100000000000000000000000000000000000000000000000000000000600052603260045260246000fd5b90506020020135815260200190815260200160002060003373ffffffffffffffffffffffffffffffffffffffff1673ffffffffffffffffffffffffffffffffffffffff1681526020019081526020016000205490508060006002016000898986818110610a2a577f4e487b7100000000000000000000000000000000000000000000000000000000600052603260045260246000fd5b9050602002013581526020019081526020016000206000016000828254610a5191906117a5565b9250508190555080848381518110610a92577f4e487b7100000000000000000000000000000000000000000000000000000000600052603260045260246000fd5b6020026020010181815250506000856000016000898986818110610adf577f4e487b7100000000000000000000000000000000000000000000000000000000600052603260045260246000fd5b90506020020135815260200190815260200160002060003373ffffffffffffffffffffffffffffffffffffffff1673ffffffffffffffffffffffffffffffffffffffff16815260200190815260200160002081905550508080610b4190611863565b9150506108c7565b50600073ffffffffffffffffffffffffffffffffffffffff163373ffffffffffffffffffffffffffffffffffffffff163373ffffffffffffffffffffffffffffffffffffffff167f4a39dc06d4c0dbc64b70af90fd698a233a518aa5d07e595d983b8c0526c8f7fb888887604051610bc393929190611519565b60405180910390a45050505050565b60008060010154905090565b60008060000160009054906101000a900473ffffffffffffffffffffffffffffffffffffffff16905090565b610c12611051565b60006002016000838152602001908152602001600020604051806040016040529081600082015481526020016001820154815250509050919050565b6000807f8a22373512790c48b83a1fe2efdd2888d4a917bcdc24d0adf63e60f67168046090508091505090565b610cfe846323b872dd60e01b858585604051602401610c9c93929190611482565b604051602081830303815290604052907bffffffffffffffffffffffffffffffffffffffffffffffffffffffff19166020820180517bffffffffffffffffffffffffffffffffffffffffffffffffffffffff8381831617835250505050610de4565b50505050565b6000807f68721c0bbf2c02a4d65000340d1370666be06a630022208d4baa9bd7a4b6fea890508091505090565b6000807f1799cf914cb0cb442ca7c7ac709ee40d0cb89e87351dc08d517fbda27d50c68b90508091505090565b610ddf8363a9059cbb60e01b8484604051602401610d7d9291906114b9565b604051602081830303815290604052907bffffffffffffffffffffffffffffffffffffffffffffffffffffffff19166020820180517bffffffffffffffffffffffffffffffffffffffffffffffffffffffff8381831617835250505050610de4565b505050565b6000610e46826040518060400160405280602081526020017f5361666545524332303a206c6f772d6c6576656c2063616c6c206661696c65648152508573ffffffffffffffffffffffffffffffffffffffff16610eab9092919063ffffffff16565b9050600081511115610ea65780806020019051810190610e669190611175565b610ea5576040517f08c379a0000000000000000000000000000000000000000000000000000000008152600401610e9c90611614565b60405180910390fd5b5b505050565b6060610eba8484600085610ec3565b90509392505050565b606082471015610f08576040517f08c379a0000000000000000000000000000000000000000000000000000000008152600401610eff90611574565b60405180910390fd5b610f1185610fd7565b610f50576040517f08c379a0000000000000000000000000000000000000000000000000000000008152600401610f47906115f4565b60405180910390fd5b6000808673ffffffffffffffffffffffffffffffffffffffff168587604051610f799190611450565b60006040518083038185875af1925050503d8060008114610fb6576040519150601f19603f3d011682016040523d82523d6000602084013e610fbb565b606091505b5091509150610fcb828286610fea565b92505050949350505050565b600080823b905060008111915050919050565b60608315610ffa5782905061104a565b60008351111561100d5782518084602001fd5b816040517f08c379a00000000000000000000000000000000000000000000000000000000081526004016110419190611552565b60405180910390fd5b9392505050565b604051806040016040528060008152602001600081525090565b60008135905061107a81611a57565b92915050565b60008083601f84011261109257600080fd5b8235905067ffffffffffffffff8111156110ab57600080fd5b6020830191508360208202830111156110c357600080fd5b9250929050565b6000815190506110d981611a6e565b92915050565b6000813590506110ee81611a85565b92915050565b6000806040838503121561110757600080fd5b60006111158582860161106b565b9250506020611126858286016110df565b9150509250929050565b6000806020838503121561114357600080fd5b600083013567ffffffffffffffff81111561115d57600080fd5b61116985828601611080565b92509250509250929050565b60006020828403121561118757600080fd5b6000611195848285016110ca565b91505092915050565b6000602082840312156111b057600080fd5b60006111be848285016110df565b91505092915050565b60006111d38383611432565b60208301905092915050565b6111e8816117d9565b82525050565b60006111fa83856116c8565b93507f07ffffffffffffffffffffffffffffffffffffffffffffffffffffffffffffff83111561122957600080fd5b60208302925061123a838584611821565b82840190509392505050565b60006112518261169a565b61125b81856116c8565b93506112668361168a565b8060005b8381101561129757815161127e88826111c7565b9750611289836116bb565b92505060018101905061126a565b5085935050505092915050565b60006112af826116a5565b6112b981856116d9565b93506112c9818560208601611830565b80840191505092915050565b60006112e0826116b0565b6112ea81856116e4565b93506112fa818560208601611830565b611303816118db565b840191505092915050565b600061131b6026836116e4565b9150611326826118ec565b604082019050919050565b600061133e6010836116e4565b91506113498261193b565b602082019050919050565b60006113616020836116e4565b915061136c82611964565b602082019050919050565b6000611384601d836116e4565b915061138f8261198d565b602082019050919050565b60006113a7601d836116e4565b91506113b2826119b6565b602082019050919050565b60006113ca602a836116e4565b91506113d5826119df565b604082019050919050565b60006113ed601e836116e4565b91506113f882611a2e565b602082019050919050565b6040820160008201516114196000850182611432565b50602082015161142c6020850182611432565b50505050565b61143b81611817565b82525050565b61144a81611817565b82525050565b600061145c82846112a4565b915081905092915050565b600060208201905061147c60008301846111df565b92915050565b600060608201905061149760008301866111df565b6114a460208301856111df565b6114b16040830184611441565b949350505050565b60006040820190506114ce60008301856111df565b6114db6020830184611441565b9392505050565b60006060820190506114f760008301866111df565b6115046020830185611441565b6115116040830184611441565b949350505050565b600060408201905081810360008301526115348185876111ee565b905081810360208301526115488184611246565b9050949350505050565b6000602082019050818103600083015261156c81846112d5565b905092915050565b6000602082019050818103600083015261158d8161130e565b9050919050565b600060208201905081810360008301526115ad81611331565b9050919050565b600060208201905081810360008301526115cd81611354565b9050919050565b600060208201905081810360008301526115ed81611377565b9050919050565b6000602082019050818103600083015261160d8161139a565b9050919050565b6000602082019050818103600083015261162d816113bd565b9050919050565b6000602082019050818103600083015261164d816113e0565b9050919050565b60006040820190506116696000830184611403565b92915050565b60006020820190506116846000830184611441565b92915050565b6000819050602082019050919050565b600081519050919050565b600081519050919050565b600081519050919050565b6000602082019050919050565b600082825260208201905092915050565b600081905092915050565b600082825260208201905092915050565b600061170082611817565b915061170b83611817565b9250827fffffffffffffffffffffffffffffffffffffffffffffffffffffffffffffffff038211156117405761173f6118ac565b5b828201905092915050565b600061175682611817565b915061176183611817565b9250817fffffffffffffffffffffffffffffffffffffffffffffffffffffffffffffffff048311821515161561179a576117996118ac565b5b828202905092915050565b60006117b082611817565b91506117bb83611817565b9250828210156117ce576117cd6118ac565b5b828203905092915050565b60006117e4826117f7565b9050919050565b60008115159050919050565b600073ffffffffffffffffffffffffffffffffffffffff82169050919050565b6000819050919050565b82818337600083830152505050565b60005b8381101561184e578082015181840152602081019050611833565b8381111561185d576000848401525b50505050565b600061186e82611817565b91507fffffffffffffffffffffffffffffffffffffffffffffffffffffffffffffffff8214156118a1576118a06118ac565b5b600182019050919050565b7f4e487b7100000000000000000000000000000000000000000000000000000000600052601160045260246000fd5b6000601f19601f8301169050919050565b7f416464726573733a20696e73756666696369656e742062616c616e636520666f60008201527f722063616c6c0000000000000000000000000000000000000000000000000000602082015250565b7f5061757361626c653a2070617573656400000000000000000000000000000000600082015250565b7f44654d696e654e46543a206d696e6564206f72206d696e696e6720746f6b656e600082015250565b7f4f776e61626c653a2073656e646572206d757374206265206f776e6572000000600082015250565b7f416464726573733a2063616c6c20746f206e6f6e2d636f6e7472616374000000600082015250565b7f5361666545524332303a204552433230206f7065726174696f6e20646964206e60008201527f6f74207375636365656400000000000000000000000000000000000000000000602082015250565b7f44654d696e654e46543a20746f6b656e206e6f74206d696e6564207965740000600082015250565b611a60816117d9565b8114611a6b57600080fd5b50565b611a77816117eb565b8114611a8257600080fd5b50565b611a8e81611817565b8114611a9957600080fd5b5056fea264697066735822122000391909fd3adf934ad7eb29d05b0602c6ecdf2546b66ca6dcb1ea37e8d331b264736f6c63430008040033",
  "devdoc": {
    "kind": "dev",
    "methods": {
      "alchemize(uint256[])": {
        "details": "burn tokens in batch and cashout income",
        "params": {
          "ids": "List of token ids to alchemize"
        },
        "returns": {
          "income": "total income"
        }
      },
      "shrink(uint256[])": {
        "details": "shrink mining pool by burning token not mined",
        "params": {
          "ids": "List of token ids to burn"
        }
      }
    },
    "version": 1
  },
  "userdoc": {
    "kind": "user",
    "methods": {},
    "version": 1
  },
  "storageLayout": {
    "storage": [
      {
        "astId": 10520,
        "contract": "contracts/nft/facets/MiningPoolFacet.sol:MiningPoolFacet",
        "label": "s",
        "offset": 0,
        "slot": "0",
        "type": "t_struct(AppStorage)10983_storage"
      }
    ],
    "types": {
      "t_address": {
        "encoding": "inplace",
        "label": "address",
        "numberOfBytes": "20"
      },
      "t_contract(IERC20)209": {
        "encoding": "inplace",
        "label": "contract IERC20",
        "numberOfBytes": "20"
      },
      "t_mapping(t_uint256,t_struct(Token)10964_storage)": {
        "encoding": "mapping",
        "key": "t_uint256",
        "label": "mapping(uint256 => struct Token)",
        "numberOfBytes": "32",
        "value": "t_struct(Token)10964_storage"
      },
      "t_struct(AppStorage)10983_storage": {
        "encoding": "inplace",
        "label": "struct AppStorage",
        "members": [
          {
            "astId": 10972,
            "contract": "contracts/nft/facets/MiningPoolFacet.sol:MiningPoolFacet",
            "label": "income",
            "offset": 0,
            "slot": "0",
            "type": "t_contract(IERC20)209"
          },
          {
            "astId": 10974,
            "contract": "contracts/nft/facets/MiningPoolFacet.sol:MiningPoolFacet",
            "label": "mining",
            "offset": 0,
            "slot": "1",
            "type": "t_uint256"
          },
          {
            "astId": 10979,
            "contract": "contracts/nft/facets/MiningPoolFacet.sol:MiningPoolFacet",
            "label": "tokens",
            "offset": 0,
            "slot": "2",
            "type": "t_mapping(t_uint256,t_struct(Token)10964_storage)"
          },
          {
            "astId": 10982,
            "contract": "contracts/nft/facets/MiningPoolFacet.sol:MiningPoolFacet",
            "label": "royalty",
            "offset": 0,
            "slot": "3",
            "type": "t_struct(RoyaltyInfo)10969_storage"
          }
        ],
        "numberOfBytes": "128"
      },
      "t_struct(RoyaltyInfo)10969_storage": {
        "encoding": "inplace",
        "label": "struct RoyaltyInfo",
        "members": [
          {
            "astId": 10966,
            "contract": "contracts/nft/facets/MiningPoolFacet.sol:MiningPoolFacet",
            "label": "recipient",
            "offset": 0,
            "slot": "0",
            "type": "t_address"
          },
          {
            "astId": 10968,
            "contract": "contracts/nft/facets/MiningPoolFacet.sol:MiningPoolFacet",
            "label": "bps",
            "offset": 20,
            "slot": "0",
            "type": "t_uint16"
          }
        ],
        "numberOfBytes": "32"
      },
      "t_struct(Token)10964_storage": {
        "encoding": "inplace",
        "label": "struct Token",
        "members": [
          {
            "astId": 10961,
            "contract": "contracts/nft/facets/MiningPoolFacet.sol:MiningPoolFacet",
            "label": "supply",
            "offset": 0,
            "slot": "0",
            "type": "t_uint256"
          },
          {
            "astId": 10963,
            "contract": "contracts/nft/facets/MiningPoolFacet.sol:MiningPoolFacet",
            "label": "income",
            "offset": 0,
            "slot": "1",
            "type": "t_uint256"
          }
        ],
        "numberOfBytes": "64"
      },
      "t_uint16": {
        "encoding": "inplace",
        "label": "uint16",
        "numberOfBytes": "2"
      },
      "t_uint256": {
        "encoding": "inplace",
        "label": "uint256",
        "numberOfBytes": "32"
      }
    }
  }
}