{
  "address": "0x0cf5EcD6091af4AAaf7a3D300C927b8f3b9C2332",
  "abi": [
    {
      "anonymous": false,
      "inputs": [
        {
          "indexed": true,
          "internalType": "address",
          "name": "",
          "type": "address"
        },
        {
          "indexed": false,
          "internalType": "uint256[]",
          "name": "",
          "type": "uint256[]"
        },
        {
          "indexed": false,
          "internalType": "uint256[]",
          "name": "",
          "type": "uint256[]"
        }
      ],
      "name": "Redeem",
      "type": "event"
    },
    {
      "inputs": [],
      "name": "adjustDeposit",
      "outputs": [],
      "stateMutability": "nonpayable",
      "type": "function"
    },
    {
      "inputs": [
        {
          "internalType": "address",
          "name": "account",
          "type": "address"
        },
        {
          "internalType": "uint256[]",
          "name": "ids",
          "type": "uint256[]"
        }
      ],
      "name": "balanceOfBatch",
      "outputs": [
        {
          "internalType": "uint256[]",
          "name": "",
          "type": "uint256[]"
        }
      ],
      "stateMutability": "view",
      "type": "function"
    },
    {
      "inputs": [
        {
          "internalType": "address",
          "name": "account",
          "type": "address"
        }
      ],
      "name": "getAccountInfo",
      "outputs": [
        {
          "components": [
            {
              "internalType": "uint256",
              "name": "start",
              "type": "uint256"
            },
            {
              "internalType": "uint256",
              "name": "end",
              "type": "uint256"
            },
            {
              "internalType": "uint256",
              "name": "maxBalance",
              "type": "uint256"
            }
          ],
          "internalType": "struct Account",
          "name": "",
          "type": "tuple"
        }
      ],
      "stateMutability": "view",
      "type": "function"
    },
    {
      "inputs": [
        {
          "internalType": "address",
          "name": "",
          "type": "address"
        },
        {
          "internalType": "address",
          "name": "from",
          "type": "address"
        },
        {
          "internalType": "uint256[]",
          "name": "ids",
          "type": "uint256[]"
        },
        {
          "internalType": "uint256[]",
          "name": "amounts",
          "type": "uint256[]"
        },
        {
          "internalType": "bytes",
          "name": "data",
          "type": "bytes"
        }
      ],
      "name": "onERC1155BatchReceived",
      "outputs": [
        {
          "internalType": "bytes4",
          "name": "",
          "type": "bytes4"
        }
      ],
      "stateMutability": "nonpayable",
      "type": "function"
    },
    {
      "inputs": [
        {
          "internalType": "address",
          "name": "",
          "type": "address"
        },
        {
          "internalType": "address",
          "name": "",
          "type": "address"
        },
        {
          "internalType": "uint256",
          "name": "",
          "type": "uint256"
        },
        {
          "internalType": "uint256",
          "name": "",
          "type": "uint256"
        },
        {
          "internalType": "bytes",
          "name": "",
          "type": "bytes"
        }
      ],
      "name": "onERC1155Received",
      "outputs": [
        {
          "internalType": "bytes4",
          "name": "",
          "type": "bytes4"
        }
      ],
      "stateMutability": "pure",
      "type": "function"
    },
    {
      "inputs": [],
      "name": "payoff",
      "outputs": [],
      "stateMutability": "nonpayable",
      "type": "function"
    },
    {
      "inputs": [
        {
          "internalType": "uint256[]",
          "name": "ids",
          "type": "uint256[]"
        },
        {
          "internalType": "uint256[]",
          "name": "amounts",
          "type": "uint256[]"
        }
      ],
      "name": "redeem",
      "outputs": [],
      "stateMutability": "nonpayable",
      "type": "function"
    },
    {
      "inputs": [
        {
          "internalType": "bytes4",
          "name": "interfaceId",
          "type": "bytes4"
        }
      ],
      "name": "supportsInterface",
      "outputs": [
        {
          "internalType": "bool",
          "name": "",
          "type": "bool"
        }
      ],
      "stateMutability": "view",
      "type": "function"
    }
  ],
  "transactionHash": "0x2ef48488b79d7b6e79dc5a88c2bd66786eb0f05ec5a7c4b2427273692acf6cf1",
  "args": [],
  "numDeployments": 1,
  "solcInputHash": "b1a391ad26a855b7eca9d1bfba37e4c2",
  "bytecode": "0x608060405234801561001057600080fd5b50612cde806100206000396000f3fe608060405234801561001057600080fd5b50600436106100885760003560e01c8063afd690861161005b578063afd6908614610113578063bc197c8114610143578063c7b7f88a14610173578063f23a6e611461017d57610088565b806301ffc9a71461008d5780632ca51e22146100bd5780637b510fe8146100d957806395fcd83614610109575b600080fd5b6100a760048036038101906100a2919061201d565b6101ad565b6040516100b491906124ca565b60405180910390f35b6100d760048036038101906100d29190611f7f565b6101d0565b005b6100f360048036038101906100ee9190611d77565b6106eb565b6040516101009190612662565b60405180910390f35b610111610765565b005b61012d60048036038101906101289190611f27565b610a34565b60405161013a91906124a8565b60405180910390f35b61015d60048036038101906101589190611dc9565b610bb1565b60405161016a91906124e5565b60405180910390f35b61017b610f60565b005b61019760048036038101906101929190611e95565b6112a5565b6040516101a491906124e5565b60405180910390f35b60006101c9826101bb6112b7565b6112e490919063ffffffff16565b9050919050565b6101d861134f565b60000160009054906101000a900460ff1615610229576040517f08c379a0000000000000000000000000000000000000000000000000000000008152600401610220906125a2565b60405180910390fd5b818190508484905014610271576040517f08c379a0000000000000000000000000000000000000000000000000000000008152600401610268906125e2565b60405180910390fd5b600080600001549050600080600601549050600080600090505b8787905081101561057c57828888838181106102d0577f4e487b7100000000000000000000000000000000000000000000000000000000600052603260045260246000fd5b905060200201351015610318576040517f08c379a000000000000000000000000000000000000000000000000000000000815260040161030f90612522565b60405180910390fd5b858582818110610351577f4e487b7100000000000000000000000000000000000000000000000000000000600052603260045260246000fd5b90506020020135846103639190612780565b8261036e91906126f9565b915060008060090160008a8a858181106103b1577f4e487b7100000000000000000000000000000000000000000000000000000000600052603260045260246000fd5b90506020020135815260200190815260200160002060003373ffffffffffffffffffffffffffffffffffffffff1673ffffffffffffffffffffffffffffffffffffffff16815260200190815260200160002054905086868381811061043f577f4e487b7100000000000000000000000000000000000000000000000000000000600052603260045260246000fd5b905060200201358111610487576040517f08c379a000000000000000000000000000000000000000000000000000000000815260040161047e90612542565b60405180910390fd5b8686838181106104c0577f4e487b7100000000000000000000000000000000000000000000000000000000600052603260045260246000fd5b90506020020135816104d291906127da565b600060090160008b8b86818110610512577f4e487b7100000000000000000000000000000000000000000000000000000000600052603260045260246000fd5b90506020020135815260200190815260200160002060003373ffffffffffffffffffffffffffffffffffffffff1673ffffffffffffffffffffffffffffffffffffffff16815260200190815260200160002081905550508080610574906128d6565b91505061028b565b506105f433600060040160009054906101000a900473ffffffffffffffffffffffffffffffffffffffff1683600060020160009054906101000a900473ffffffffffffffffffffffffffffffffffffffff1673ffffffffffffffffffffffffffffffffffffffff1661137c909392919063ffffffff16565b3373ffffffffffffffffffffffffffffffffffffffff167fd63285f33fab7fc260b1b9e7ce1abbf3fc8906df5a271e6ebd3062bdca7bb29e88888888604051610640949392919061246d565b60405180910390a2600060030160009054906101000a900473ffffffffffffffffffffffffffffffffffffffff1673ffffffffffffffffffffffffffffffffffffffff16632eb2c2d630338a8a8a8a6040518763ffffffff1660e01b81526004016106b0969594939291906123a3565b600060405180830381600087803b1580156106ca57600080fd5b505af11580156106de573d6000803e3d6000fd5b5050505050505050505050565b6106f3611c59565b600060080160008373ffffffffffffffffffffffffffffffffffffffff1673ffffffffffffffffffffffffffffffffffffffff16815260200190815260200160002060405180606001604052908160008201548152602001600182015481526020016002820154815250509050919050565b61076d61134f565b60000160009054906101000a900460ff16156107be576040517f08c379a00000000000000000000000000000000000000000000000000000000081526004016107b5906125a2565b60405180910390fd5b60008060006107cc33611405565b90506000816000015190505b60006006015481101561094b57600080600901600083815260200190815260200160002060003373ffffffffffffffffffffffffffffffffffffffff1673ffffffffffffffffffffffffffffffffffffffff168152602001908152602001600020549050600081111561093757600080600701600084815260200190815260200160002060405180606001604052908160008201548152602001600182015481526020016002820154815250509050806000015182826020015161089c9190612780565b6108a6919061274f565b866108b191906126f9565b95506108d08282604001516108c69190612780565b82600001516114b8565b856108db91906126f9565b9450600080600901600085815260200190815260200160002060003373ffffffffffffffffffffffffffffffffffffffff1673ffffffffffffffffffffffffffffffffffffffff16815260200190815260200160002081905550505b508080610943906128d6565b9150506107d8565b506109c3600060040160009054906101000a900473ffffffffffffffffffffffffffffffffffffffff163384600060020160009054906101000a900473ffffffffffffffffffffffffffffffffffffffff1673ffffffffffffffffffffffffffffffffffffffff1661137c909392919063ffffffff16565b81600060050160008282546109d891906126f9565b92505081905550610a2f3384600060010160009054906101000a900473ffffffffffffffffffffffffffffffffffffffff1673ffffffffffffffffffffffffffffffffffffffff166114f09092919063ffffffff16565b505050565b606060008383905067ffffffffffffffff811115610a7b577f4e487b7100000000000000000000000000000000000000000000000000000000600052604160045260246000fd5b604051908082528060200260200182016040528015610aa95781602001602082028036833780820191505090505b50905060005b84849050811015610ba55760006009016000868684818110610afa577f4e487b7100000000000000000000000000000000000000000000000000000000600052603260045260246000fd5b90506020020135815260200190815260200160002060008773ffffffffffffffffffffffffffffffffffffffff1673ffffffffffffffffffffffffffffffffffffffff16815260200190815260200160002054828281518110610b86577f4e487b7100000000000000000000000000000000000000000000000000000000600052603260045260246000fd5b6020026020010181815250508080610b9d906128d6565b915050610aaf565b50809150509392505050565b60008060030160009054906101000a900473ffffffffffffffffffffffffffffffffffffffff1673ffffffffffffffffffffffffffffffffffffffff163373ffffffffffffffffffffffffffffffffffffffff16148015610c3e5750600073ffffffffffffffffffffffffffffffffffffffff168873ffffffffffffffffffffffffffffffffffffffff16145b610c7d576040517f08c379a0000000000000000000000000000000000000000000000000000000008152600401610c7490612562565b60405180910390fd5b60008383810190610c8e9190611da0565b90506000610c9b82611405565b9050600060405180606001604052807fffffffffffffffffffffffffffffffffffffffffffffffffffffffffffffffff8152602001600081526020016000815250905060005b8a8a9050811015610f3b576000898983818110610d27577f4e487b7100000000000000000000000000000000000000000000000000000000600052603260045260246000fd5b90506020020135600060090160008e8e86818110610d6e577f4e487b7100000000000000000000000000000000000000000000000000000000600052603260045260246000fd5b90506020020135815260200190815260200160002060008773ffffffffffffffffffffffffffffffffffffffff1673ffffffffffffffffffffffffffffffffffffffff16815260200190815260200160002054610dcb91906126f9565b905080600060090160008e8e86818110610e0e577f4e487b7100000000000000000000000000000000000000000000000000000000600052603260045260246000fd5b90506020020135815260200190815260200160002060008773ffffffffffffffffffffffffffffffffffffffff1673ffffffffffffffffffffffffffffffffffffffff16815260200190815260200160002081905550610e72818460400151611576565b836040018181525050610ec88c8c84818110610eb7577f4e487b7100000000000000000000000000000000000000000000000000000000600052603260045260246000fd5b90506020020135846000015161158f565b836000018181525050610f1e8c8c84818110610f0d577f4e487b7100000000000000000000000000000000000000000000000000000000600052603260045260246000fd5b905060200201358460200151611576565b836020018181525050508080610f33906128d6565b915050610ce1565b50610f478383836115a8565b63bc197c8160e01b935050505098975050505050505050565b610f6861134f565b60000160009054906101000a900460ff1615610fb9576040517f08c379a0000000000000000000000000000000000000000000000000000000008152600401610fb0906125a2565b60405180910390fd5b6000610fc433611405565b9050600060060154816000015110611011576040517f08c379a000000000000000000000000000000000000000000000000000000000815260040161100890612602565b60405180910390fd5b6000816040015111611058576040517f08c379a000000000000000000000000000000000000000000000000000000000815260040161104f906125c2565b60405180910390fd5b600060405180606001604052808360000151815260200183602001518152602001600081525090505b80602001518160000151111580156110ef575060008060090160008360000151815260200190815260200160002060003373ffffffffffffffffffffffffffffffffffffffff1673ffffffffffffffffffffffffffffffffffffffff16815260200190815260200160002054145b156111135760018160000181815161110791906126f9565b91508181525050611081565b5b8060000151816020015110158015611182575060008060090160008360200151815260200190815260200160002060003373ffffffffffffffffffffffffffffffffffffffff1673ffffffffffffffffffffffffffffffffffffffff16815260200190815260200160002054145b156111a65760018160200181815161119a91906127da565b91508181525050611114565b806020015181600001511115611202576111fd338360405180606001604052807fffffffffffffffffffffffffffffffffffffffffffffffffffffffffffffffff81526020016000815260200160008152506117dd565b6112a1565b6000816000015190505b816020015181116112945761127882604001516000600901600084815260200190815260200160002060003373ffffffffffffffffffffffffffffffffffffffff1673ffffffffffffffffffffffffffffffffffffffff16815260200190815260200160002054611576565b826040018181525050808061128c906128d6565b91505061120c565b506112a03383836117dd565b5b5050565b60008060e01b90509695505050505050565b6000807f326d0c59a7612f6a9919e2a8ee333c80ba689d8ba2634de89c85cbb04832e70590508091505090565b6000826000016000837bffffffffffffffffffffffffffffffffffffffffffffffffffffffff19167bffffffffffffffffffffffffffffffffffffffffffffffffffffffff1916815260200190815260200160002060009054906101000a900460ff16905092915050565b6000807f68721c0bbf2c02a4d65000340d1370666be06a630022208d4baa9bd7a4b6fea890508091505090565b6113ff846323b872dd60e01b85858560405160240161139d9392919061240d565b604051602081830303815290604052907bffffffffffffffffffffffffffffffffffffffffffffffffffffffff19166020820180517bffffffffffffffffffffffffffffffffffffffffffffffffffffffff83818316178352505050506119c1565b50505050565b61140d611c59565b600060080160008373ffffffffffffffffffffffffffffffffffffffff1673ffffffffffffffffffffffffffffffffffffffff1681526020019081526020016000206040518060600160405290816000820154815260200160018201548152602001600282015481525050905080600001517fffffffffffffffffffffffffffffffffffffffffffffffffffffffffffffffff6114aa91906127da565b816000018181525050919050565b60008182600184866114ca91906126f9565b6114d491906127da565b6114de919061274f565b6114e89190612780565b905092915050565b6115718363a9059cbb60e01b848460405160240161150f929190612444565b604051602081830303815290604052907bffffffffffffffffffffffffffffffffffffffffffffffffffffffff19166020820180517bffffffffffffffffffffffffffffffffffffffffffffffffffffffff83818316178352505050506119c1565b505050565b60008183116115855781611587565b825b905092915050565b600081831061159e57816115a0565b825b905092915050565b8160000151816000015110156116405780600001517fffffffffffffffffffffffffffffffffffffffffffffffffffffffffffffffff6115e891906127da565b600060080160008573ffffffffffffffffffffffffffffffffffffffff1673ffffffffffffffffffffffffffffffffffffffff1681526020019081526020016000206000018190555080600001518260000181815250505b8160200151816020015111156116ad578060000151600060080160008573ffffffffffffffffffffffffffffffffffffffff1673ffffffffffffffffffffffffffffffffffffffff1681526020019081526020016000206000018190555080602001518260200181815250505b8160400151816040015111156117d8578060400151600060080160008573ffffffffffffffffffffffffffffffffffffffff1673ffffffffffffffffffffffffffffffffffffffff1681526020019081526020016000206002018190555080604001518260400181815250506000611723611a88565b8360400151836040015161173791906127da565b6117419190612780565b90506117ba33600060040160009054906101000a900473ffffffffffffffffffffffffffffffffffffffff1683600060020160009054906101000a900473ffffffffffffffffffffffffffffffffffffffff1673ffffffffffffffffffffffffffffffffffffffff1661137c909392919063ffffffff16565b80600060050160008282546117cf91906126f9565b92505081905550505b505050565b8160000151816000015111156118675780600001517fffffffffffffffffffffffffffffffffffffffffffffffffffffffffffffffff61181d91906127da565b600060080160008573ffffffffffffffffffffffffffffffffffffffff1673ffffffffffffffffffffffffffffffffffffffff168152602001908152602001600020600001819055505b8160200151816020015110156118c6578060200151600060080160008573ffffffffffffffffffffffffffffffffffffffff1673ffffffffffffffffffffffffffffffffffffffff168152602001908152602001600020600101819055505b8160400151816040015110156119bc578060400151600060080160008573ffffffffffffffffffffffffffffffffffffffff1673ffffffffffffffffffffffffffffffffffffffff16815260200190815260200160002060020181905550600061192e611a88565b8260400151846040015161194291906127da565b61194c9190612780565b905061199e8482600060020160009054906101000a900473ffffffffffffffffffffffffffffffffffffffff1673ffffffffffffffffffffffffffffffffffffffff166114f09092919063ffffffff16565b80600060050160008282546119b391906127da565b92505081905550505b505050565b6000611a23826040518060400160405280602081526020017f5361666545524332303a206c6f772d6c6576656c2063616c6c206661696c65648152508573ffffffffffffffffffffffffffffffffffffffff16611ab39092919063ffffffff16565b9050600081511115611a835780806020019051810190611a439190611ff4565b611a82576040517f08c379a0000000000000000000000000000000000000000000000000000000008152600401611a7990612642565b60405180910390fd5b5b505050565b60008060040160159054906101000a900460ff1660ff166000800154611aae9190612780565b905090565b6060611ac28484600085611acb565b90509392505050565b606082471015611b10576040517f08c379a0000000000000000000000000000000000000000000000000000000008152600401611b0790612582565b60405180910390fd5b611b1985611bdf565b611b58576040517f08c379a0000000000000000000000000000000000000000000000000000000008152600401611b4f90612622565b60405180910390fd5b6000808673ffffffffffffffffffffffffffffffffffffffff168587604051611b81919061238c565b60006040518083038185875af1925050503d8060008114611bbe576040519150601f19603f3d011682016040523d82523d6000602084013e611bc3565b606091505b5091509150611bd3828286611bf2565b92505050949350505050565b600080823b905060008111915050919050565b60608315611c0257829050611c52565b600083511115611c155782518084602001fd5b816040517f08c379a0000000000000000000000000000000000000000000000000000000008152600401611c499190612500565b60405180910390fd5b9392505050565b60405180606001604052806000815260200160008152602001600081525090565b600081359050611c8981612c35565b92915050565b600081359050611c9e81612c4c565b92915050565b60008083601f840112611cb657600080fd5b8235905067ffffffffffffffff811115611ccf57600080fd5b602083019150836020820283011115611ce757600080fd5b9250929050565b600081519050611cfd81612c63565b92915050565b600081359050611d1281612c7a565b92915050565b60008083601f840112611d2a57600080fd5b8235905067ffffffffffffffff811115611d4357600080fd5b602083019150836001820283011115611d5b57600080fd5b9250929050565b600081359050611d7181612c91565b92915050565b600060208284031215611d8957600080fd5b6000611d9784828501611c7a565b91505092915050565b600060208284031215611db257600080fd5b6000611dc084828501611c8f565b91505092915050565b60008060008060008060008060a0898b031215611de557600080fd5b6000611df38b828c01611c7a565b9850506020611e048b828c01611c7a565b975050604089013567ffffffffffffffff811115611e2157600080fd5b611e2d8b828c01611ca4565b9650965050606089013567ffffffffffffffff811115611e4c57600080fd5b611e588b828c01611ca4565b9450945050608089013567ffffffffffffffff811115611e7757600080fd5b611e838b828c01611d18565b92509250509295985092959890939650565b60008060008060008060a08789031215611eae57600080fd5b6000611ebc89828a01611c7a565b9650506020611ecd89828a01611c7a565b9550506040611ede89828a01611d62565b9450506060611eef89828a01611d62565b935050608087013567ffffffffffffffff811115611f0c57600080fd5b611f1889828a01611d18565b92509250509295509295509295565b600080600060408486031215611f3c57600080fd5b6000611f4a86828701611c7a565b935050602084013567ffffffffffffffff811115611f6757600080fd5b611f7386828701611ca4565b92509250509250925092565b60008060008060408587031215611f9557600080fd5b600085013567ffffffffffffffff811115611faf57600080fd5b611fbb87828801611ca4565b9450945050602085013567ffffffffffffffff811115611fda57600080fd5b611fe687828801611ca4565b925092505092959194509250565b60006020828403121561200657600080fd5b600061201484828501611cee565b91505092915050565b60006020828403121561202f57600080fd5b600061203d84828501611d03565b91505092915050565b6000612052838361236e565b60208301905092915050565b6120678161280e565b82525050565b600061207983856126bb565b93507f07ffffffffffffffffffffffffffffffffffffffffffffffffffffffffffffff8311156120a857600080fd5b6020830292506120b9838584612894565b82840190509392505050565b60006120d08261268d565b6120da81856126bb565b93506120e58361267d565b8060005b838110156121165781516120fd8882612046565b9750612108836126ae565b9250506001810190506120e9565b5085935050505092915050565b61212c81612832565b82525050565b61213b8161283e565b82525050565b600061214c82612698565b61215681856126dd565b93506121668185602086016128a3565b80840191505092915050565b600061217d826126a3565b61218781856126e8565b93506121978185602086016128a3565b6121a08161297d565b840191505092915050565b60006121b86021836126e8565b91506121c38261298e565b604082019050919050565b60006121db6022836126e8565b91506121e6826129dd565b604082019050919050565b60006121fe6036836126e8565b915061220982612a2c565b604082019050919050565b60006122216026836126e8565b915061222c82612a7b565b604082019050919050565b60006122446010836126e8565b915061224f82612aca565b602082019050919050565b6000612267601e836126e8565b915061227282612af3565b602082019050919050565b600061228a6022836126e8565b915061229582612b1c565b604082019050919050565b60006122ad6026836126e8565b91506122b882612b6b565b604082019050919050565b60006122d06000836126cc565b91506122db82612bba565b600082019050919050565b60006122f3601d836126e8565b91506122fe82612bbd565b602082019050919050565b6000612316602a836126e8565b915061232182612be6565b604082019050919050565b606082016000820151612342600085018261236e565b506020820151612355602085018261236e565b506040820151612368604085018261236e565b50505050565b6123778161288a565b82525050565b6123868161288a565b82525050565b60006123988284612141565b915081905092915050565b600060a0820190506123b8600083018961205e565b6123c5602083018861205e565b81810360408301526123d881868861206d565b905081810360608301526123ed81848661206d565b90508181036080830152612400816122c3565b9050979650505050505050565b6000606082019050612422600083018661205e565b61242f602083018561205e565b61243c604083018461237d565b949350505050565b6000604082019050612459600083018561205e565b612466602083018461237d565b9392505050565b6000604082019050818103600083015261248881868861206d565b9050818103602083015261249d81848661206d565b905095945050505050565b600060208201905081810360008301526124c281846120c5565b905092915050565b60006020820190506124df6000830184612123565b92915050565b60006020820190506124fa6000830184612132565b92915050565b6000602082019050818103600083015261251a8184612172565b905092915050565b6000602082019050818103600083015261253b816121ab565b9050919050565b6000602082019050818103600083015261255b816121ce565b9050919050565b6000602082019050818103600083015261257b816121f1565b9050919050565b6000602082019050818103600083015261259b81612214565b9050919050565b600060208201905081810360008301526125bb81612237565b9050919050565b600060208201905081810360008301526125db8161225a565b9050919050565b600060208201905081810360008301526125fb8161227d565b9050919050565b6000602082019050818103600083015261261b816122a0565b9050919050565b6000602082019050818103600083015261263b816122e6565b9050919050565b6000602082019050818103600083015261265b81612309565b9050919050565b6000606082019050612677600083018461232c565b92915050565b6000819050602082019050919050565b600081519050919050565b600081519050919050565b600081519050919050565b6000602082019050919050565b600082825260208201905092915050565b600082825260208201905092915050565b600081905092915050565b600082825260208201905092915050565b60006127048261288a565b915061270f8361288a565b9250827fffffffffffffffffffffffffffffffffffffffffffffffffffffffffffffffff038211156127445761274361291f565b5b828201905092915050565b600061275a8261288a565b91506127658361288a565b9250826127755761277461294e565b5b828204905092915050565b600061278b8261288a565b91506127968361288a565b9250817fffffffffffffffffffffffffffffffffffffffffffffffffffffffffffffffff04831182151516156127cf576127ce61291f565b5b828202905092915050565b60006127e58261288a565b91506127f08361288a565b9250828210156128035761280261291f565b5b828203905092915050565b60006128198261286a565b9050919050565b600061282b8261286a565b9050919050565b60008115159050919050565b60007fffffffff0000000000000000000000000000000000000000000000000000000082169050919050565b600073ffffffffffffffffffffffffffffffffffffffff82169050919050565b6000819050919050565b82818337600083830152505050565b60005b838110156128c15780820151818401526020810190506128a6565b838111156128d0576000848401525b50505050565b60006128e18261288a565b91507fffffffffffffffffffffffffffffffffffffffffffffffffffffffffffffffff8214156129145761291361291f565b5b600182019050919050565b7f4e487b7100000000000000000000000000000000000000000000000000000000600052601160045260246000fd5b7f4e487b7100000000000000000000000000000000000000000000000000000000600052601260045260246000fd5b6000601f19601f8301169050919050565b7f44654d696e654167656e743a20746f6b656e206e6f742072656465656d61626c60008201527f6500000000000000000000000000000000000000000000000000000000000000602082015250565b7f44654d696e654167656e743a206e6f2073756666696369656e742062616c616e60008201527f6365000000000000000000000000000000000000000000000000000000000000602082015250565b7f44654d696e654167656e743a206f6e6c79206d696e74656420746f6b656e732060008201527f66726f6d2044654d696e654e465420616c6c6f77656400000000000000000000602082015250565b7f416464726573733a20696e73756666696369656e742062616c616e636520666f60008201527f722063616c6c0000000000000000000000000000000000000000000000000000602082015250565b7f5061757361626c653a2070617573656400000000000000000000000000000000600082015250565b7f44654d696e654167656e743a206e6f206e65656420746f2061646a7573740000600082015250565b7f44654d696e654167656e743a206172726179206c656e677468206d69736d617460008201527f6368000000000000000000000000000000000000000000000000000000000000602082015250565b7f44654d696e654167656e743a20636c6561722062696c6c656420746f6b656e7360008201527f2066697273740000000000000000000000000000000000000000000000000000602082015250565b50565b7f416464726573733a2063616c6c20746f206e6f6e2d636f6e7472616374000000600082015250565b7f5361666545524332303a204552433230206f7065726174696f6e20646964206e60008201527f6f74207375636365656400000000000000000000000000000000000000000000602082015250565b612c3e8161280e565b8114612c4957600080fd5b50565b612c5581612820565b8114612c6057600080fd5b50565b612c6c81612832565b8114612c7757600080fd5b50565b612c838161283e565b8114612c8e57600080fd5b50565b612c9a8161288a565b8114612ca557600080fd5b5056fea2646970667358221220924104649f00bb05c68fbf8f9ffbca04206129cc5d69e034914299936bb063f364736f6c63430008040033",
  "devdoc": {
    "author": "Shu Dong",
    "details": "the contract also implements IERC1155Receiver to receive and lock demine nft",
    "kind": "dev",
    "methods": {
      "getAccountInfo(address)": {
        "params": {
          "account": "Address of account to query"
        }
      },
      "redeem(uint256[],uint256[])": {
        "params": {
          "amounts": "Amount of each demine nft token",
          "ids": "DeMine nft token ids to redeem"
        }
      },
      "supportsInterface(bytes4)": {
        "params": {
          "interfaceId": "interface id"
        },
        "returns": {
          "_0": "bool whether interface is supported"
        }
      }
    },
    "title": "MortgageFacet",
    "version": 1
  },
  "userdoc": {
    "kind": "user",
    "methods": {
      "adjustDeposit()": {
        "notice": "adjust deposit for msg sender and update account info         Ensure you have a valid start and end set for msg.sender         to prevent infinite loop"
      },
      "getAccountInfo(address)": {
        "notice": "get account info"
      },
      "payoff()": {
        "notice": "payoff debt from billing. Ensure you have a valid start and         end set for msg.sender to prevent infinite loop"
      },
      "redeem(uint256[],uint256[])": {
        "notice": "Pay token cost and liquidize tokens"
      },
      "supportsInterface(bytes4)": {
        "notice": "query whether contract has registered support for given interface"
      }
    },
    "notice": "Facet contract holding functions for miners to manage mortgage.",
    "version": 1
  },
  "storageLayout": {
    "storage": [
      {
        "astId": 7844,
        "contract": "contracts/agent/facets/MortgageFacet.sol:MortgageFacet",
        "label": "s",
        "offset": 0,
        "slot": "0",
        "type": "t_struct(AppStorage)9682_storage"
      }
    ],
    "types": {
      "t_address": {
        "encoding": "inplace",
        "label": "address",
        "numberOfBytes": "20"
      },
      "t_bool": {
        "encoding": "inplace",
        "label": "bool",
        "numberOfBytes": "1"
      },
      "t_contract(IERC20)209": {
        "encoding": "inplace",
        "label": "contract IERC20",
        "numberOfBytes": "20"
      },
      "t_mapping(t_address,t_mapping(t_address,t_mapping(t_uint256,t_uint256)))": {
        "encoding": "mapping",
        "key": "t_address",
        "label": "mapping(address => mapping(address => mapping(uint256 => uint256)))",
        "numberOfBytes": "32",
        "value": "t_mapping(t_address,t_mapping(t_uint256,t_uint256))"
      },
      "t_mapping(t_address,t_mapping(t_uint256,t_uint256))": {
        "encoding": "mapping",
        "key": "t_address",
        "label": "mapping(address => mapping(uint256 => uint256))",
        "numberOfBytes": "32",
        "value": "t_mapping(t_uint256,t_uint256)"
      },
      "t_mapping(t_address,t_struct(Account)9630_storage)": {
        "encoding": "mapping",
        "key": "t_address",
        "label": "mapping(address => struct Account)",
        "numberOfBytes": "32",
        "value": "t_struct(Account)9630_storage"
      },
      "t_mapping(t_address,t_uint256)": {
        "encoding": "mapping",
        "key": "t_address",
        "label": "mapping(address => uint256)",
        "numberOfBytes": "32",
        "value": "t_uint256"
      },
      "t_mapping(t_uint256,t_mapping(t_address,t_uint256))": {
        "encoding": "mapping",
        "key": "t_uint256",
        "label": "mapping(uint256 => mapping(address => uint256))",
        "numberOfBytes": "32",
        "value": "t_mapping(t_address,t_uint256)"
      },
      "t_mapping(t_uint256,t_struct(Statement)9637_storage)": {
        "encoding": "mapping",
        "key": "t_uint256",
        "label": "mapping(uint256 => struct Statement)",
        "numberOfBytes": "32",
        "value": "t_struct(Statement)9637_storage"
      },
      "t_mapping(t_uint256,t_uint256)": {
        "encoding": "mapping",
        "key": "t_uint256",
        "label": "mapping(uint256 => uint256)",
        "numberOfBytes": "32",
        "value": "t_uint256"
      },
      "t_struct(Account)9630_storage": {
        "encoding": "inplace",
        "label": "struct Account",
        "members": [
          {
            "astId": 9625,
            "contract": "contracts/agent/facets/MortgageFacet.sol:MortgageFacet",
            "label": "start",
            "offset": 0,
            "slot": "0",
            "type": "t_uint256"
          },
          {
            "astId": 9627,
            "contract": "contracts/agent/facets/MortgageFacet.sol:MortgageFacet",
            "label": "end",
            "offset": 0,
            "slot": "1",
            "type": "t_uint256"
          },
          {
            "astId": 9629,
            "contract": "contracts/agent/facets/MortgageFacet.sol:MortgageFacet",
            "label": "maxBalance",
            "offset": 0,
            "slot": "2",
            "type": "t_uint256"
          }
        ],
        "numberOfBytes": "96"
      },
      "t_struct(AppStorage)9682_storage": {
        "encoding": "inplace",
        "label": "struct AppStorage",
        "members": [
          {
            "astId": 9639,
            "contract": "contracts/agent/facets/MortgageFacet.sol:MortgageFacet",
            "label": "tokenCost",
            "offset": 0,
            "slot": "0",
            "type": "t_uint256"
          },
          {
            "astId": 9642,
            "contract": "contracts/agent/facets/MortgageFacet.sol:MortgageFacet",
            "label": "income",
            "offset": 0,
            "slot": "1",
            "type": "t_contract(IERC20)209"
          },
          {
            "astId": 9645,
            "contract": "contracts/agent/facets/MortgageFacet.sol:MortgageFacet",
            "label": "payment",
            "offset": 0,
            "slot": "2",
            "type": "t_contract(IERC20)209"
          },
          {
            "astId": 9647,
            "contract": "contracts/agent/facets/MortgageFacet.sol:MortgageFacet",
            "label": "nft",
            "offset": 0,
            "slot": "3",
            "type": "t_address"
          },
          {
            "astId": 9649,
            "contract": "contracts/agent/facets/MortgageFacet.sol:MortgageFacet",
            "label": "payee",
            "offset": 0,
            "slot": "4",
            "type": "t_address"
          },
          {
            "astId": 9651,
            "contract": "contracts/agent/facets/MortgageFacet.sol:MortgageFacet",
            "label": "initialized",
            "offset": 20,
            "slot": "4",
            "type": "t_bool"
          },
          {
            "astId": 9653,
            "contract": "contracts/agent/facets/MortgageFacet.sol:MortgageFacet",
            "label": "depositMultiplier",
            "offset": 21,
            "slot": "4",
            "type": "t_uint8"
          },
          {
            "astId": 9655,
            "contract": "contracts/agent/facets/MortgageFacet.sol:MortgageFacet",
            "label": "deposit",
            "offset": 0,
            "slot": "5",
            "type": "t_uint256"
          },
          {
            "astId": 9657,
            "contract": "contracts/agent/facets/MortgageFacet.sol:MortgageFacet",
            "label": "billing",
            "offset": 0,
            "slot": "6",
            "type": "t_uint256"
          },
          {
            "astId": 9662,
            "contract": "contracts/agent/facets/MortgageFacet.sol:MortgageFacet",
            "label": "statements",
            "offset": 0,
            "slot": "7",
            "type": "t_mapping(t_uint256,t_struct(Statement)9637_storage)"
          },
          {
            "astId": 9667,
            "contract": "contracts/agent/facets/MortgageFacet.sol:MortgageFacet",
            "label": "accounts",
            "offset": 0,
            "slot": "8",
            "type": "t_mapping(t_address,t_struct(Account)9630_storage)"
          },
          {
            "astId": 9673,
            "contract": "contracts/agent/facets/MortgageFacet.sol:MortgageFacet",
            "label": "balances",
            "offset": 0,
            "slot": "9",
            "type": "t_mapping(t_uint256,t_mapping(t_address,t_uint256))"
          },
          {
            "astId": 9681,
            "contract": "contracts/agent/facets/MortgageFacet.sol:MortgageFacet",
            "label": "allowances",
            "offset": 0,
            "slot": "10",
            "type": "t_mapping(t_address,t_mapping(t_address,t_mapping(t_uint256,t_uint256)))"
          }
        ],
        "numberOfBytes": "352"
      },
      "t_struct(Statement)9637_storage": {
        "encoding": "inplace",
        "label": "struct Statement",
        "members": [
          {
            "astId": 9632,
            "contract": "contracts/agent/facets/MortgageFacet.sol:MortgageFacet",
            "label": "balance",
            "offset": 0,
            "slot": "0",
            "type": "t_uint256"
          },
          {
            "astId": 9634,
            "contract": "contracts/agent/facets/MortgageFacet.sol:MortgageFacet",
            "label": "income",
            "offset": 0,
            "slot": "1",
            "type": "t_uint256"
          },
          {
            "astId": 9636,
            "contract": "contracts/agent/facets/MortgageFacet.sol:MortgageFacet",
            "label": "debt",
            "offset": 0,
            "slot": "2",
            "type": "t_uint256"
          }
        ],
        "numberOfBytes": "96"
      },
      "t_uint256": {
        "encoding": "inplace",
        "label": "uint256",
        "numberOfBytes": "32"
      },
      "t_uint8": {
        "encoding": "inplace",
        "label": "uint8",
        "numberOfBytes": "1"
      }
    }
  }
}