{
  "address": "0x9012b3cA31549FbCe624A0Df448eBDb1Ac13c690",
  "abi": [
    {
      "anonymous": false,
      "inputs": [
        {
          "indexed": true,
          "internalType": "address",
          "name": "",
          "type": "address"
        },
        {
          "indexed": true,
          "internalType": "address",
          "name": "",
          "type": "address"
        },
        {
          "indexed": false,
          "internalType": "uint256[]",
          "name": "",
          "type": "uint256[]"
        },
        {
          "indexed": false,
          "internalType": "uint256[]",
          "name": "",
          "type": "uint256[]"
        }
      ],
      "name": "Claim",
      "type": "event"
    },
    {
      "anonymous": false,
      "inputs": [
        {
          "indexed": true,
          "internalType": "address",
          "name": "",
          "type": "address"
        },
        {
          "indexed": true,
          "internalType": "address",
          "name": "",
          "type": "address"
        },
        {
          "indexed": false,
          "internalType": "uint256[]",
          "name": "",
          "type": "uint256[]"
        },
        {
          "indexed": false,
          "internalType": "uint256[]",
          "name": "",
          "type": "uint256[]"
        }
      ],
      "name": "DecreaseAllowance",
      "type": "event"
    },
    {
      "anonymous": false,
      "inputs": [
        {
          "indexed": true,
          "internalType": "address",
          "name": "",
          "type": "address"
        },
        {
          "indexed": true,
          "internalType": "address",
          "name": "",
          "type": "address"
        },
        {
          "indexed": false,
          "internalType": "uint256[]",
          "name": "",
          "type": "uint256[]"
        },
        {
          "indexed": false,
          "internalType": "uint256[]",
          "name": "",
          "type": "uint256[]"
        }
      ],
      "name": "IncreaseAllowance",
      "type": "event"
    },
    {
      "anonymous": false,
      "inputs": [
        {
          "indexed": true,
          "internalType": "address",
          "name": "",
          "type": "address"
        },
        {
          "indexed": false,
          "internalType": "uint256",
          "name": "",
          "type": "uint256"
        },
        {
          "indexed": false,
          "internalType": "uint128",
          "name": "",
          "type": "uint128"
        },
        {
          "indexed": false,
          "internalType": "uint128",
          "name": "",
          "type": "uint128"
        },
        {
          "indexed": false,
          "internalType": "uint256",
          "name": "",
          "type": "uint256"
        },
        {
          "indexed": false,
          "internalType": "uint256",
          "name": "",
          "type": "uint256"
        }
      ],
      "name": "SetLinerPricing",
      "type": "event"
    },
    {
      "anonymous": false,
      "inputs": [
        {
          "indexed": true,
          "internalType": "address",
          "name": "",
          "type": "address"
        },
        {
          "indexed": false,
          "internalType": "uint256",
          "name": "",
          "type": "uint256"
        }
      ],
      "name": "SetStaticBase",
      "type": "event"
    },
    {
      "anonymous": false,
      "inputs": [
        {
          "indexed": true,
          "internalType": "address",
          "name": "",
          "type": "address"
        },
        {
          "indexed": false,
          "internalType": "uint256[]",
          "name": "",
          "type": "uint256[]"
        },
        {
          "indexed": false,
          "internalType": "uint256[]",
          "name": "",
          "type": "uint256[]"
        }
      ],
      "name": "SetStaticOverride",
      "type": "event"
    },
    {
      "inputs": [
        {
          "internalType": "address",
          "name": "from",
          "type": "address"
        },
        {
          "internalType": "uint256[]",
          "name": "ids",
          "type": "uint256[]"
        },
        {
          "internalType": "uint256[]",
          "name": "maxAmounts",
          "type": "uint256[]"
        }
      ],
      "name": "claim",
      "outputs": [
        {
          "internalType": "uint256[]",
          "name": "",
          "type": "uint256[]"
        }
      ],
      "stateMutability": "nonpayable",
      "type": "function"
    },
    {
      "inputs": [
        {
          "internalType": "address",
          "name": "target",
          "type": "address"
        },
        {
          "internalType": "uint256[]",
          "name": "ids",
          "type": "uint256[]"
        },
        {
          "internalType": "uint256[]",
          "name": "amounts",
          "type": "uint256[]"
        }
      ],
      "name": "decreaseAllowance",
      "outputs": [],
      "stateMutability": "nonpayable",
      "type": "function"
    },
    {
      "inputs": [
        {
          "internalType": "address",
          "name": "from",
          "type": "address"
        },
        {
          "internalType": "address",
          "name": "target",
          "type": "address"
        },
        {
          "internalType": "uint256[]",
          "name": "ids",
          "type": "uint256[]"
        }
      ],
      "name": "getAllowances",
      "outputs": [
        {
          "internalType": "uint256[]",
          "name": "",
          "type": "uint256[]"
        }
      ],
      "stateMutability": "view",
      "type": "function"
    },
    {
      "inputs": [
        {
          "internalType": "address",
          "name": "from",
          "type": "address"
        },
        {
          "internalType": "uint256[]",
          "name": "ids",
          "type": "uint256[]"
        }
      ],
      "name": "getListedPrices",
      "outputs": [
        {
          "internalType": "uint256[]",
          "name": "",
          "type": "uint256[]"
        }
      ],
      "stateMutability": "view",
      "type": "function"
    },
    {
      "inputs": [
        {
          "internalType": "address",
          "name": "target",
          "type": "address"
        },
        {
          "internalType": "uint256[]",
          "name": "ids",
          "type": "uint256[]"
        },
        {
          "internalType": "uint256[]",
          "name": "amounts",
          "type": "uint256[]"
        }
      ],
      "name": "increaseAllowance",
      "outputs": [],
      "stateMutability": "nonpayable",
      "type": "function"
    },
    {
      "inputs": [
        {
          "components": [
            {
              "internalType": "uint256",
              "name": "anchor",
              "type": "uint256"
            },
            {
              "internalType": "uint128",
              "name": "slope",
              "type": "uint128"
            },
            {
              "internalType": "uint128",
              "name": "slopeBase",
              "type": "uint128"
            },
            {
              "internalType": "uint256",
              "name": "maxPrice",
              "type": "uint256"
            },
            {
              "internalType": "uint256",
              "name": "minPrice",
              "type": "uint256"
            }
          ],
          "internalType": "struct PricingStorage.LinearDecay",
          "name": "ld",
          "type": "tuple"
        }
      ],
      "name": "setLinearDecay",
      "outputs": [],
      "stateMutability": "nonpayable",
      "type": "function"
    },
    {
      "inputs": [
        {
          "internalType": "enum PricingStorage.PricingStrategy",
          "name": "strategy",
          "type": "uint8"
        },
        {
          "internalType": "bytes",
          "name": "args",
          "type": "bytes"
        }
      ],
      "name": "setPricingStrategy",
      "outputs": [],
      "stateMutability": "nonpayable",
      "type": "function"
    },
    {
      "inputs": [
        {
          "internalType": "uint256",
          "name": "price",
          "type": "uint256"
        }
      ],
      "name": "setStaticBase",
      "outputs": [],
      "stateMutability": "nonpayable",
      "type": "function"
    },
    {
      "inputs": [
        {
          "internalType": "uint256[]",
          "name": "ids",
          "type": "uint256[]"
        },
        {
          "internalType": "uint256[]",
          "name": "prices",
          "type": "uint256[]"
        }
      ],
      "name": "setStaticOverride",
      "outputs": [],
      "stateMutability": "nonpayable",
      "type": "function"
    }
  ],
  "transactionHash": "0x1210ae94e6d307944d8ad22b2f9da699f8af8ced4bfc416d48db04dbd8bf4519",
  "args": [],
  "numDeployments": 1,
  "solcInputHash": "b1a391ad26a855b7eca9d1bfba37e4c2",
  "bytecode": "0x608060405234801561001057600080fd5b50613868806100206000396000f3fe608060405234801561001057600080fd5b50600436106100935760003560e01c80633e59eb72116100665780633e59eb721461011c5780635976c8071461013857806363d0544214610154578063cfb6f9a414610184578063efa1340d146101b457610093565b80630f378a5f146100985780631552edfd146100b45780632c011391146100e45780632c7fa28714610100575b600080fd5b6100b260048036038101906100ad9190612a0c565b6101d0565b005b6100ce60048036038101906100c991906127d6565b610325565b6040516100db9190612f25565b60405180910390f35b6100fe60048036038101906100f99190612923565b6104e0565b005b61011a60048036038101906101159190612a5e565b610552565b005b6101366004803603810190610131919061289a565b6105f0565b005b610152600480360381019061014d91906129b8565b610999565b005b61016e6004803603810190610169919061289a565b610b47565b60405161017b9190612f25565b60405180910390f35b61019e60048036038101906101999190612842565b611102565b6040516101ab9190612f25565b60405180910390f35b6101ce60048036038101906101c9919061289a565b6112af565b005b806101d9611509565b60030160003373ffffffffffffffffffffffffffffffffffffffff1673ffffffffffffffffffffffffffffffffffffffff1681526020019081526020016000206000820151816000015560208201518160010160006101000a8154816fffffffffffffffffffffffffffffffff02191690836fffffffffffffffffffffffffffffffff16021790555060408201518160010160106101000a8154816fffffffffffffffffffffffffffffffff02191690836fffffffffffffffffffffffffffffffff16021790555060608201518160020155608082015181600301559050503373ffffffffffffffffffffffffffffffffffffffff167f551f77dfaeee6d225618e01a7b9ed5359e09944ece64d1e4ed664a40b378ba6f8260000151836020015184604001518560600151866080015160405161031a9594939291906130fb565b60405180910390a250565b606060008383905067ffffffffffffffff81111561036c577f4e487b7100000000000000000000000000000000000000000000000000000000600052604160045260246000fd5b60405190808252806020026020018201604052801561039a5781602001602082028036833780820191505090505b50905060005b848490508110156104d3576000600a0160008873ffffffffffffffffffffffffffffffffffffffff1673ffffffffffffffffffffffffffffffffffffffff16815260200190815260200160002060008773ffffffffffffffffffffffffffffffffffffffff1673ffffffffffffffffffffffffffffffffffffffff1681526020019081526020016000206000868684818110610465577f4e487b7100000000000000000000000000000000000000000000000000000000600052603260045260246000fd5b905060200201358152602001908152602001600020548282815181106104b4577f4e487b7100000000000000000000000000000000000000000000000000000000600052603260045260246000fd5b60200260200101818152505080806104cb90613438565b9150506103a0565b5080915050949350505050565b6104fe3383836104ee611509565b611536909392919063ffffffff16565b3373ffffffffffffffffffffffffffffffffffffffff167faefee6839295f40c847c2cceb3f120376bdba95164d6ba8b958e0f78afade4bc8383604051610546929190612f47565b60405180910390a25050565b8061055b611509565b60010160003373ffffffffffffffffffffffffffffffffffffffff1673ffffffffffffffffffffffffffffffffffffffff168152602001908152602001600020819055503373ffffffffffffffffffffffffffffffffffffffff167f67244f241fb7aaec8d028abe03a0c4a82ebd5ad1dbc825bedad1451a5fe64fc0826040516105e591906130e0565b60405180910390a250565b6105f8611677565b60000160009054906101000a900460ff1615610649576040517f08c379a000000000000000000000000000000000000000000000000000000000815260040161064090613000565b60405180910390fd5b818190508484905014610691576040517f08c379a000000000000000000000000000000000000000000000000000000000815260040161068890612fa0565b60405180910390fd5b60005b8484905081101561092657600080600a0160003373ffffffffffffffffffffffffffffffffffffffff1673ffffffffffffffffffffffffffffffffffffffff16815260200190815260200160002060008873ffffffffffffffffffffffffffffffffffffffff1673ffffffffffffffffffffffffffffffffffffffff168152602001908152602001600020600087878581811061075a577f4e487b7100000000000000000000000000000000000000000000000000000000600052603260045260246000fd5b9050602002013581526020019081526020016000205490508383838181106107ab577f4e487b7100000000000000000000000000000000000000000000000000000000600052603260045260246000fd5b905060200201358110156107f4576040517f08c379a00000000000000000000000000000000000000000000000000000000081526004016107eb90613040565b60405180910390fd5b83838381811061082d577f4e487b7100000000000000000000000000000000000000000000000000000000600052603260045260246000fd5b905060200201358161083f919061332d565b6000600a0160003373ffffffffffffffffffffffffffffffffffffffff1673ffffffffffffffffffffffffffffffffffffffff16815260200190815260200160002060008973ffffffffffffffffffffffffffffffffffffffff1673ffffffffffffffffffffffffffffffffffffffff16815260200190815260200160002060008888868181106108f9577f4e487b7100000000000000000000000000000000000000000000000000000000600052603260045260246000fd5b9050602002013581526020019081526020016000208190555050808061091e90613438565b915050610694565b508473ffffffffffffffffffffffffffffffffffffffff163373ffffffffffffffffffffffffffffffffffffffff167f213705d16531465312faa6493ee8847b2c97a7dd96562a9b61caa53f6b4fbaad8686868660405161098a9493929190612eb1565b60405180910390a35050505050565b60006109a3611509565b9050828160000160003373ffffffffffffffffffffffffffffffffffffffff1673ffffffffffffffffffffffffffffffffffffffff16815260200190815260200160002060006101000a81548160ff02191690836001811115610a2f577f4e487b7100000000000000000000000000000000000000000000000000000000600052602160045260246000fd5b021790555060006001811115610a6e577f4e487b7100000000000000000000000000000000000000000000000000000000600052602160045260246000fd5b836001811115610aa7577f4e487b7100000000000000000000000000000000000000000000000000000000600052602160045260246000fd5b1415610abd57610ab88133846116a4565b610b42565b600180811115610af6577f4e487b7100000000000000000000000000000000000000000000000000000000600052602160045260246000fd5b836001811115610b2f577f4e487b7100000000000000000000000000000000000000000000000000000000600052602160045260246000fd5b1415610b4157610b4081338461171d565b5b5b505050565b6060610b51611677565b60000160009054906101000a900460ff1615610ba2576040517f08c379a0000000000000000000000000000000000000000000000000000000008152600401610b9990613000565b60405180910390fd5b828290508585905014610bea576040517f08c379a0000000000000000000000000000000000000000000000000000000008152600401610be190613080565b60405180910390fd5b6000604051806080016040528060006006015481526020016000800154815260200160008152602001600081525090506000610c24611509565b9050612426610c808260000160008b73ffffffffffffffffffffffffffffffffffffffff1673ffffffffffffffffffffffffffffffffffffffff16815260200190815260200160002060009054906101000a900460ff1661181c565b905060008888905067ffffffffffffffff811115610cc7577f4e487b7100000000000000000000000000000000000000000000000000000000600052604160045260246000fd5b604051908082528060200260200182016040528015610cf55781602001602082028036833780820191505090505b50905060005b89899050811015610f105784600001518a8a83818110610d44577f4e487b7100000000000000000000000000000000000000000000000000000000600052603260045260246000fd5b9050602002013511610d8b576040517f08c379a0000000000000000000000000000000000000000000000000000000008152600401610d82906130a0565b60405180910390fd5b6000610e168c8c8c85818110610dca577f4e487b7100000000000000000000000000000000000000000000000000000000600052603260045260246000fd5b905060200201358b8b86818110610e0a577f4e487b7100000000000000000000000000000000000000000000000000000000600052603260045260246000fd5b90506020020135611926565b905080838381518110610e52577f4e487b7100000000000000000000000000000000000000000000000000000000600052603260045260246000fd5b602002602001018181525050808660200151610e6e91906132d3565b86604001818151610e7f919061324c565b9150818152505080610eda868e8e8e87818110610ec5577f4e487b7100000000000000000000000000000000000000000000000000000000600052603260045260246000fd5b905060200201358a602001518963ffffffff16565b610ee491906132d3565b86606001818151610ef5919061324c565b91508181525050508080610f0890613438565b915050610cfb565b50610f8c33600060040160009054906101000a900473ffffffffffffffffffffffffffffffffffffffff168660400151600060020160009054906101000a900473ffffffffffffffffffffffffffffffffffffffff1673ffffffffffffffffffffffffffffffffffffffff16611a06909392919063ffffffff16565b610ff1338b86604001518760600151610fa5919061332d565b600060020160009054906101000a900473ffffffffffffffffffffffffffffffffffffffff1673ffffffffffffffffffffffffffffffffffffffff16611a06909392919063ffffffff16565b600060030160009054906101000a900473ffffffffffffffffffffffffffffffffffffffff1673ffffffffffffffffffffffffffffffffffffffff16632eb2c2d630338c8c866040518663ffffffff1660e01b8152600401611057959493929190612e12565b600060405180830381600087803b15801561107157600080fd5b505af1158015611085573d6000803e3d6000fd5b505050508973ffffffffffffffffffffffffffffffffffffffff163373ffffffffffffffffffffffffffffffffffffffff167f3d60ffa1a4f9e57b74ca7b57316ecec9137fdfd796da007630e621f0f40e53868b8b856040516110ea93929190612eec565b60405180910390a38094505050505095945050505050565b6060600061110e611509565b905061242661116a8260000160008873ffffffffffffffffffffffffffffffffffffffff1673ffffffffffffffffffffffffffffffffffffffff16815260200190815260200160002060009054906101000a900460ff1661181c565b905060008060000154905060008686905067ffffffffffffffff8111156111ba577f4e487b7100000000000000000000000000000000000000000000000000000000600052604160045260246000fd5b6040519080825280602002602001820160405280156111e85781602001602082028036833780820191505090505b50905060005b878790508110156112a057611248858a8a8a85818110611237577f4e487b7100000000000000000000000000000000000000000000000000000000600052603260045260246000fd5b90506020020135868863ffffffff16565b828281518110611281577f4e487b7100000000000000000000000000000000000000000000000000000000600052603260045260246000fd5b602002602001018181525050808061129890613438565b9150506111ee565b50809450505050509392505050565b6112b7611677565b60000160009054906101000a900460ff1615611308576040517f08c379a00000000000000000000000000000000000000000000000000000000081526004016112ff90613000565b60405180910390fd5b818190508484905014611350576040517f08c379a000000000000000000000000000000000000000000000000000000000815260040161134790612fc0565b60405180910390fd5b60005b8484905081101561149657828282818110611397577f4e487b7100000000000000000000000000000000000000000000000000000000600052603260045260246000fd5b905060200201356000600a0160008873ffffffffffffffffffffffffffffffffffffffff1673ffffffffffffffffffffffffffffffffffffffff16815260200190815260200160002060008873ffffffffffffffffffffffffffffffffffffffff1673ffffffffffffffffffffffffffffffffffffffff1681526020019081526020016000206000878785818110611458577f4e487b7100000000000000000000000000000000000000000000000000000000600052603260045260246000fd5b905060200201358152602001908152602001600020600082825461147c919061324c565b92505081905550808061148e90613438565b915050611353565b508473ffffffffffffffffffffffffffffffffffffffff163373ffffffffffffffffffffffffffffffffffffffff167f153fcf8d2790b83e3dbb8086c99edb562a3bbab12e921df38e259877e2c33791868686866040516114fa9493929190612eb1565b60405180910390a35050505050565b6000807f5d3f59c2eaf224b29c0c25cc723acb29da1d5926d3a96ba776ac45ed67db2fd890508091505090565b805182511461157a576040517f08c379a000000000000000000000000000000000000000000000000000000000815260040161157190613020565b60405180910390fd5b60005b8251811015611670578181815181106115bf577f4e487b7100000000000000000000000000000000000000000000000000000000600052603260045260246000fd5b60200260200101518560020160008673ffffffffffffffffffffffffffffffffffffffff1673ffffffffffffffffffffffffffffffffffffffff1681526020019081526020016000206000858481518110611643577f4e487b7100000000000000000000000000000000000000000000000000000000600052603260045260246000fd5b6020026020010151815260200190815260200160002081905550808061166890613438565b91505061157d565b5050505050565b6000807f68721c0bbf2c02a4d65000340d1370666be06a630022208d4baa9bd7a4b6fea890508091505090565b6000806000838060200190518101906116bd9190612a87565b925092509250828660010160008773ffffffffffffffffffffffffffffffffffffffff1673ffffffffffffffffffffffffffffffffffffffff1681526020019081526020016000208190555061171586868484611536565b505050505050565b6000818060200190518101906117339190612a35565b9050808460030160008573ffffffffffffffffffffffffffffffffffffffff1673ffffffffffffffffffffffffffffffffffffffff1681526020019081526020016000206000820151816000015560208201518160010160006101000a8154816fffffffffffffffffffffffffffffffff02191690836fffffffffffffffffffffffffffffffff16021790555060408201518160010160106101000a8154816fffffffffffffffffffffffffffffffff02191690836fffffffffffffffffffffffffffffffff160217905550606082015181600201556080820151816003015590505050505050565b61242660006001811115611859577f4e487b7100000000000000000000000000000000000000000000000000000000600052602160045260246000fd5b826001811115611892577f4e487b7100000000000000000000000000000000000000000000000000000000600052602160045260246000fd5b14156118a257611a8f9050611921565b6001808111156118db577f4e487b7100000000000000000000000000000000000000000000000000000000600052602160045260246000fd5b826001811115611914577f4e487b7100000000000000000000000000000000000000000000000000000000600052602160045260246000fd5b141561192057611b4c90505b5b919050565b6000806000600901600085815260200190815260200160002060008673ffffffffffffffffffffffffffffffffffffffff1673ffffffffffffffffffffffffffffffffffffffff1681526020019081526020016000205490506119898184611ce9565b9250611996858585611d02565b925082816119a4919061332d565b6000600901600086815260200190815260200160002060008773ffffffffffffffffffffffffffffffffffffffff1673ffffffffffffffffffffffffffffffffffffffff16815260200190815260200160002081905550829150509392505050565b611a89846323b872dd60e01b858585604051602401611a2793929190612e7a565b604051602081830303815290604052907bffffffffffffffffffffffffffffffffffffffffffffffffffffffff19166020820180517bffffffffffffffffffffffffffffffffffffffffffffffffffffffff8381831617835250505050612174565b50505050565b6000808560020160008673ffffffffffffffffffffffffffffffffffffffff1673ffffffffffffffffffffffffffffffffffffffff1681526020019081526020016000206000858152602001908152602001600020549050611b4160008211611b39578660010160008773ffffffffffffffffffffffffffffffffffffffff1673ffffffffffffffffffffffffffffffffffffffff16815260200190815260200160002054611b3b565b815b8461223b565b915050949350505050565b6000808560030160008673ffffffffffffffffffffffffffffffffffffffff1673ffffffffffffffffffffffffffffffffffffffff1681526020019081526020016000206040518060a0016040529081600082015481526020016001820160009054906101000a90046fffffffffffffffffffffffffffffffff166fffffffffffffffffffffffffffffffff166fffffffffffffffffffffffffffffffff1681526020016001820160109054906101000a90046fffffffffffffffffffffffffffffffff166fffffffffffffffffffffffffffffffff166fffffffffffffffffffffffffffffffff1681526020016002820154815260200160038201548152505090508060000151841015611c68578060600151915050611ce1565b600081604001516fffffffffffffffffffffffffffffffff1682602001516fffffffffffffffffffffffffffffffff16836000015187611ca8919061332d565b611cb291906132d3565b611cbc91906132a2565b8260600151611ccb919061332d565b9050611cdc81836080015186612254565b925050505b949350505050565b6000818310611cf85781611cfa565b825b905092915050565b6000806000600a0160008673ffffffffffffffffffffffffffffffffffffffff1673ffffffffffffffffffffffffffffffffffffffff16815260200190815260200160002060003373ffffffffffffffffffffffffffffffffffffffff1673ffffffffffffffffffffffffffffffffffffffff1681526020019081526020016000206000858152602001908152602001600020549050600080600a0160008773ffffffffffffffffffffffffffffffffffffffff1673ffffffffffffffffffffffffffffffffffffffff16815260200190815260200160002060008073ffffffffffffffffffffffffffffffffffffffff1673ffffffffffffffffffffffffffffffffffffffff168152602001908152602001600020600086815260200190815260200160002054905060008183611e3a919061324c565b9050828511611ef557846000600a0160008973ffffffffffffffffffffffffffffffffffffffff1673ffffffffffffffffffffffffffffffffffffffff16815260200190815260200160002060003373ffffffffffffffffffffffffffffffffffffffff1673ffffffffffffffffffffffffffffffffffffffff16815260200190815260200160002060008881526020019081526020016000206000828254611ee3919061332d565b9250508190555084935050505061216d565b80851161203c57600080600a0160008973ffffffffffffffffffffffffffffffffffffffff1673ffffffffffffffffffffffffffffffffffffffff16815260200190815260200160002060003373ffffffffffffffffffffffffffffffffffffffff1673ffffffffffffffffffffffffffffffffffffffff1681526020019081526020016000206000888152602001908152602001600020819055508285611f9d919061332d565b6000600a0160008973ffffffffffffffffffffffffffffffffffffffff1673ffffffffffffffffffffffffffffffffffffffff16815260200190815260200160002060008073ffffffffffffffffffffffffffffffffffffffff1673ffffffffffffffffffffffffffffffffffffffff16815260200190815260200160002060008881526020019081526020016000208190555084935050505061216d565b600080600a0160008973ffffffffffffffffffffffffffffffffffffffff1673ffffffffffffffffffffffffffffffffffffffff16815260200190815260200160002060003373ffffffffffffffffffffffffffffffffffffffff1673ffffffffffffffffffffffffffffffffffffffff168152602001908152602001600020600088815260200190815260200160002081905550600080600a0160008973ffffffffffffffffffffffffffffffffffffffff1673ffffffffffffffffffffffffffffffffffffffff16815260200190815260200160002060008073ffffffffffffffffffffffffffffffffffffffff1673ffffffffffffffffffffffffffffffffffffffff1681526020019081526020016000206000888152602001908152602001600020819055508093505050505b9392505050565b60006121d6826040518060400160405280602081526020017f5361666545524332303a206c6f772d6c6576656c2063616c6c206661696c65648152508573ffffffffffffffffffffffffffffffffffffffff166122809092919063ffffffff16565b905060008151111561223657808060200190518101906121f6919061298f565b612235576040517f08c379a000000000000000000000000000000000000000000000000000000000815260040161222c906130c0565b60405180910390fd5b5b505050565b600081831161224a578161224c565b825b905092915050565b600082841161226c57612267838361223b565b612277565b612276848361223b565b5b90509392505050565b606061228f8484600085612298565b90509392505050565b6060824710156122dd576040517f08c379a00000000000000000000000000000000000000000000000000000000081526004016122d490612fe0565b60405180910390fd5b6122e6856123ac565b612325576040517f08c379a000000000000000000000000000000000000000000000000000000000815260040161231c90613060565b60405180910390fd5b6000808673ffffffffffffffffffffffffffffffffffffffff16858760405161234e9190612dfb565b60006040518083038185875af1925050503d806000811461238b576040519150601f19603f3d011682016040523d82523d6000602084013e612390565b606091505b50915091506123a08282866123bf565b92505050949350505050565b600080823b905060008111915050919050565b606083156123cf5782905061241f565b6000835111156123e25782518084602001fd5b816040517f08c379a00000000000000000000000000000000000000000000000000000000081526004016124169190612f7e565b60405180910390fd5b9392505050565b7f4e487b7100000000000000000000000000000000000000000000000000000000600052605160045260246000fd5b600061246861246384613173565b61314e565b9050808382526020820190508285602086028201111561248757600080fd5b60005b858110156124b7578161249d88826127ac565b84526020840193506020830192505060018101905061248a565b5050509392505050565b60006124d46124cf84613173565b61314e565b905080838252602082019050828560208602820111156124f357600080fd5b60005b85811015612523578161250988826127c1565b8452602084019350602083019250506001810190506124f6565b5050509392505050565b600061254061253b8461319f565b61314e565b90508281526020810184848401111561255857600080fd5b6125638482856133c5565b509392505050565b60008135905061257a816137c6565b92915050565b60008083601f84011261259257600080fd5b8235905067ffffffffffffffff8111156125ab57600080fd5b6020830191508360208202830111156125c357600080fd5b9250929050565b600082601f8301126125db57600080fd5b81356125eb848260208601612455565b91505092915050565b600082601f83011261260557600080fd5b81516126158482602086016124c1565b91505092915050565b60008151905061262d816137dd565b92915050565b600082601f83011261264457600080fd5b813561265484826020860161252d565b91505092915050565b60008135905061266c816137f4565b92915050565b600060a0828403121561268457600080fd5b61268e60a061314e565b9050600061269e848285016127ac565b60008301525060206126b284828501612782565b60208301525060406126c684828501612782565b60408301525060606126da848285016127ac565b60608301525060806126ee848285016127ac565b60808301525092915050565b600060a0828403121561270c57600080fd5b61271660a061314e565b90506000612726848285016127c1565b600083015250602061273a84828501612797565b602083015250604061274e84828501612797565b6040830152506060612762848285016127c1565b6060830152506080612776848285016127c1565b60808301525092915050565b60008135905061279181613804565b92915050565b6000815190506127a681613804565b92915050565b6000813590506127bb8161381b565b92915050565b6000815190506127d08161381b565b92915050565b600080600080606085870312156127ec57600080fd5b60006127fa8782880161256b565b945050602061280b8782880161256b565b935050604085013567ffffffffffffffff81111561282857600080fd5b61283487828801612580565b925092505092959194509250565b60008060006040848603121561285757600080fd5b60006128658682870161256b565b935050602084013567ffffffffffffffff81111561288257600080fd5b61288e86828701612580565b92509250509250925092565b6000806000806000606086880312156128b257600080fd5b60006128c08882890161256b565b955050602086013567ffffffffffffffff8111156128dd57600080fd5b6128e988828901612580565b9450945050604086013567ffffffffffffffff81111561290857600080fd5b61291488828901612580565b92509250509295509295909350565b6000806040838503121561293657600080fd5b600083013567ffffffffffffffff81111561295057600080fd5b61295c858286016125ca565b925050602083013567ffffffffffffffff81111561297957600080fd5b612985858286016125ca565b9150509250929050565b6000602082840312156129a157600080fd5b60006129af8482850161261e565b91505092915050565b600080604083850312156129cb57600080fd5b60006129d98582860161265d565b925050602083013567ffffffffffffffff8111156129f657600080fd5b612a0285828601612633565b9150509250929050565b600060a08284031215612a1e57600080fd5b6000612a2c84828501612672565b91505092915050565b600060a08284031215612a4757600080fd5b6000612a55848285016126fa565b91505092915050565b600060208284031215612a7057600080fd5b6000612a7e848285016127ac565b91505092915050565b600080600060608486031215612a9c57600080fd5b6000612aaa868287016127c1565b935050602084015167ffffffffffffffff811115612ac757600080fd5b612ad3868287016125f4565b925050604084015167ffffffffffffffff811115612af057600080fd5b612afc868287016125f4565b9150509250925092565b6000612b128383612ddd565b60208301905092915050565b612b2781613361565b82525050565b6000612b39838561320e565b93507f07ffffffffffffffffffffffffffffffffffffffffffffffffffffffffffffff831115612b6857600080fd5b602083029250612b798385846133c5565b82840190509392505050565b6000612b90826131e0565b612b9a818561320e565b9350612ba5836131d0565b8060005b83811015612bd6578151612bbd8882612b06565b9750612bc883613201565b925050600181019050612ba9565b5085935050505092915050565b6000612bee826131eb565b612bf88185613230565b9350612c088185602086016133d4565b80840191505092915050565b6000612c1f826131f6565b612c29818561323b565b9350612c398185602086016133d4565b612c428161350e565b840191505092915050565b6000612c5a60288361323b565b9150612c658261351f565b604082019050919050565b6000612c7d60258361323b565b9150612c888261356e565b604082019050919050565b6000612ca060268361323b565b9150612cab826135bd565b604082019050919050565b6000612cc360108361323b565b9150612cce8261360c565b602082019050919050565b6000612ce660358361323b565b9150612cf182613635565b604082019050919050565b6000612d0960268361323b565b9150612d1482613684565b604082019050919050565b6000612d2c60008361321f565b9150612d37826136d3565b600082019050919050565b6000612d4f601d8361323b565b9150612d5a826136d6565b602082019050919050565b6000612d7260228361323b565b9150612d7d826136ff565b604082019050919050565b6000612d95601a8361323b565b9150612da08261374e565b602082019050919050565b6000612db8602a8361323b565b9150612dc382613777565b604082019050919050565b612dd78161337f565b82525050565b612de6816133bb565b82525050565b612df5816133bb565b82525050565b6000612e078284612be3565b915081905092915050565b600060a082019050612e276000830188612b1e565b612e346020830187612b1e565b8181036040830152612e47818587612b2d565b90508181036060830152612e5b8184612b85565b90508181036080830152612e6e81612d1f565b90509695505050505050565b6000606082019050612e8f6000830186612b1e565b612e9c6020830185612b1e565b612ea96040830184612dec565b949350505050565b60006040820190508181036000830152612ecc818688612b2d565b90508181036020830152612ee1818486612b2d565b905095945050505050565b60006040820190508181036000830152612f07818587612b2d565b90508181036020830152612f1b8184612b85565b9050949350505050565b60006020820190508181036000830152612f3f8184612b85565b905092915050565b60006040820190508181036000830152612f618185612b85565b90508181036020830152612f758184612b85565b90509392505050565b60006020820190508181036000830152612f988184612c14565b905092915050565b60006020820190508181036000830152612fb981612c4d565b9050919050565b60006020820190508181036000830152612fd981612c70565b9050919050565b60006020820190508181036000830152612ff981612c93565b9050919050565b6000602082019050818103600083015261301981612cb6565b9050919050565b6000602082019050818103600083015261303981612cd9565b9050919050565b6000602082019050818103600083015261305981612cfc565b9050919050565b6000602082019050818103600083015261307981612d42565b9050919050565b6000602082019050818103600083015261309981612d65565b9050919050565b600060208201905081810360008301526130b981612d88565b9050919050565b600060208201905081810360008301526130d981612dab565b9050919050565b60006020820190506130f56000830184612dec565b92915050565b600060a0820190506131106000830188612dec565b61311d6020830187612dce565b61312a6040830186612dce565b6131376060830185612dec565b6131446080830184612dec565b9695505050505050565b6000613158613169565b90506131648282613407565b919050565b6000604051905090565b600067ffffffffffffffff82111561318e5761318d6134df565b5b602082029050602081019050919050565b600067ffffffffffffffff8211156131ba576131b96134df565b5b6131c38261350e565b9050602081019050919050565b6000819050602082019050919050565b600081519050919050565b600081519050919050565b600081519050919050565b6000602082019050919050565b600082825260208201905092915050565b600082825260208201905092915050565b600081905092915050565b600082825260208201905092915050565b6000613257826133bb565b9150613262836133bb565b9250827fffffffffffffffffffffffffffffffffffffffffffffffffffffffffffffffff0382111561329757613296613481565b5b828201905092915050565b60006132ad826133bb565b91506132b8836133bb565b9250826132c8576132c76134b0565b5b828204905092915050565b60006132de826133bb565b91506132e9836133bb565b9250817fffffffffffffffffffffffffffffffffffffffffffffffffffffffffffffffff048311821515161561332257613321613481565b5b828202905092915050565b6000613338826133bb565b9150613343836133bb565b92508282101561335657613355613481565b5b828203905092915050565b600061336c8261339b565b9050919050565b60008115159050919050565b60006fffffffffffffffffffffffffffffffff82169050919050565b600073ffffffffffffffffffffffffffffffffffffffff82169050919050565b6000819050919050565b82818337600083830152505050565b60005b838110156133f25780820151818401526020810190506133d7565b83811115613401576000848401525b50505050565b6134108261350e565b810181811067ffffffffffffffff8211171561342f5761342e6134df565b5b80604052505050565b6000613443826133bb565b91507fffffffffffffffffffffffffffffffffffffffffffffffffffffffffffffffff82141561347657613475613481565b5b600182019050919050565b7f4e487b7100000000000000000000000000000000000000000000000000000000600052601160045260246000fd5b7f4e487b7100000000000000000000000000000000000000000000000000000000600052601260045260246000fd5b7f4e487b7100000000000000000000000000000000000000000000000000000000600052604160045260246000fd5b6000601f19601f8301169050919050565b7f44654d696e654e46544d657461646174613a206172726179206c656e6774682060008201527f6d69736d61746368000000000000000000000000000000000000000000000000602082015250565b7f506f6f6c4f776e657246616365743a206172726179206c656e677468206d697360008201527f6d61746368000000000000000000000000000000000000000000000000000000602082015250565b7f416464726573733a20696e73756666696369656e742062616c616e636520666f60008201527f722063616c6c0000000000000000000000000000000000000000000000000000602082015250565b7f5061757361626c653a2070617573656400000000000000000000000000000000600082015250565b7f4c696250726963696e675374617469633a20626173652070726963652069732060008201527f6c6f776572207468616e20746f6b656e20636f73740000000000000000000000602082015250565b7f44654d696e654167656e743a20616c6c6f77616e63652077696c6c2062656c6f60008201527f77207a65726f0000000000000000000000000000000000000000000000000000602082015250565b50565b7f416464726573733a2063616c6c20746f206e6f6e2d636f6e7472616374000000600082015250565b7f546f6b656e4c6f636b65723a206172726179206c656e677468206d69736d617460008201527f6368000000000000000000000000000000000000000000000000000000000000602082015250565b7f44654d696e654167656e743a2062696c6c696e6720746f6b656e000000000000600082015250565b7f5361666545524332303a204552433230206f7065726174696f6e20646964206e60008201527f6f74207375636365656400000000000000000000000000000000000000000000602082015250565b6137cf81613361565b81146137da57600080fd5b50565b6137e681613373565b81146137f157600080fd5b50565b6002811061380157600080fd5b50565b61380d8161337f565b811461381857600080fd5b50565b613824816133bb565b811461382f57600080fd5b5056fea26469706673582212200ef7a604c69715fbc97c048005e3ad897fdd06db64b50f2f66bc374176ab29a064736f6c63430008040033",
  "devdoc": {
    "author": "Shu Dong",
    "kind": "dev",
    "methods": {
      "claim(address,uint256[],uint256[])": {
        "params": {
          "from": "Address of demine nft issuer",
          "ids": "DeMine nft token ids to buy",
          "maxAmounts": "The max amount to buy per token, the amount of        final bought token could be less than this per allowance        and balance state"
        }
      },
      "decreaseAllowance(address,uint256[],uint256[])": {
        "params": {
          "amounts": "Amount to decrease per token",
          "ids": "DeMine nft token ids to decrease allowance",
          "target": "Address of target user"
        }
      },
      "getAllowances(address,address,uint256[])": {
        "params": {
          "from": "Address of demine nft issuer",
          "ids": "DeMine nft token ids to check",
          "target": "Address of target address"
        }
      },
      "getListedPrices(address,uint256[])": {
        "params": {
          "from": "Address of demine nft issuer",
          "ids": "DeMine nft token ids to check"
        },
        "returns": {
          "_0": "list of prices for each token"
        }
      },
      "increaseAllowance(address,uint256[],uint256[])": {
        "params": {
          "amounts": "Amount to increase per token",
          "ids": "DeMine nft token ids to increase allowance",
          "target": "Address of target user"
        }
      },
      "setPricingStrategy(uint8,bytes)": {
        "params": {
          "args": "Arguments of pricing strategy set",
          "strategy": "pricing strategy to set, currently STATIC and LINEAR_DECAY are supported"
        }
      }
    },
    "title": "PrimaryMarketFacet",
    "version": 1
  },
  "userdoc": {
    "kind": "user",
    "methods": {
      "claim(address,uint256[],uint256[])": {
        "notice": "claim tokens listed for msg.sender from DeMineAgent"
      },
      "decreaseAllowance(address,uint256[],uint256[])": {
        "notice": "decrease allowance of target for msg.sender"
      },
      "getAllowances(address,address,uint256[])": {
        "notice": "get allowance information"
      },
      "getListedPrices(address,uint256[])": {
        "notice": "get listed prices of demine nft"
      },
      "increaseAllowance(address,uint256[],uint256[])": {
        "notice": "increase allowance of target for msg.sender"
      },
      "setPricingStrategy(uint8,bytes)": {
        "notice": "set pricing strategy for msg.sender"
      }
    },
    "notice": "Facet contract holding functions for primary market sale",
    "version": 1
  },
  "storageLayout": {
    "storage": [
      {
        "astId": 8784,
        "contract": "contracts/agent/facets/PrimaryMarketFacet.sol:PrimaryMarketFacet",
        "label": "s",
        "offset": 0,
        "slot": "0",
        "type": "t_struct(AppStorage)9682_storage"
      }
    ],
    "types": {
      "t_address": {
        "encoding": "inplace",
        "label": "address",
        "numberOfBytes": "20"
      },
      "t_bool": {
        "encoding": "inplace",
        "label": "bool",
        "numberOfBytes": "1"
      },
      "t_contract(IERC20)209": {
        "encoding": "inplace",
        "label": "contract IERC20",
        "numberOfBytes": "20"
      },
      "t_mapping(t_address,t_mapping(t_address,t_mapping(t_uint256,t_uint256)))": {
        "encoding": "mapping",
        "key": "t_address",
        "label": "mapping(address => mapping(address => mapping(uint256 => uint256)))",
        "numberOfBytes": "32",
        "value": "t_mapping(t_address,t_mapping(t_uint256,t_uint256))"
      },
      "t_mapping(t_address,t_mapping(t_uint256,t_uint256))": {
        "encoding": "mapping",
        "key": "t_address",
        "label": "mapping(address => mapping(uint256 => uint256))",
        "numberOfBytes": "32",
        "value": "t_mapping(t_uint256,t_uint256)"
      },
      "t_mapping(t_address,t_struct(Account)9630_storage)": {
        "encoding": "mapping",
        "key": "t_address",
        "label": "mapping(address => struct Account)",
        "numberOfBytes": "32",
        "value": "t_struct(Account)9630_storage"
      },
      "t_mapping(t_address,t_uint256)": {
        "encoding": "mapping",
        "key": "t_address",
        "label": "mapping(address => uint256)",
        "numberOfBytes": "32",
        "value": "t_uint256"
      },
      "t_mapping(t_uint256,t_mapping(t_address,t_uint256))": {
        "encoding": "mapping",
        "key": "t_uint256",
        "label": "mapping(uint256 => mapping(address => uint256))",
        "numberOfBytes": "32",
        "value": "t_mapping(t_address,t_uint256)"
      },
      "t_mapping(t_uint256,t_struct(Statement)9637_storage)": {
        "encoding": "mapping",
        "key": "t_uint256",
        "label": "mapping(uint256 => struct Statement)",
        "numberOfBytes": "32",
        "value": "t_struct(Statement)9637_storage"
      },
      "t_mapping(t_uint256,t_uint256)": {
        "encoding": "mapping",
        "key": "t_uint256",
        "label": "mapping(uint256 => uint256)",
        "numberOfBytes": "32",
        "value": "t_uint256"
      },
      "t_struct(Account)9630_storage": {
        "encoding": "inplace",
        "label": "struct Account",
        "members": [
          {
            "astId": 9625,
            "contract": "contracts/agent/facets/PrimaryMarketFacet.sol:PrimaryMarketFacet",
            "label": "start",
            "offset": 0,
            "slot": "0",
            "type": "t_uint256"
          },
          {
            "astId": 9627,
            "contract": "contracts/agent/facets/PrimaryMarketFacet.sol:PrimaryMarketFacet",
            "label": "end",
            "offset": 0,
            "slot": "1",
            "type": "t_uint256"
          },
          {
            "astId": 9629,
            "contract": "contracts/agent/facets/PrimaryMarketFacet.sol:PrimaryMarketFacet",
            "label": "maxBalance",
            "offset": 0,
            "slot": "2",
            "type": "t_uint256"
          }
        ],
        "numberOfBytes": "96"
      },
      "t_struct(AppStorage)9682_storage": {
        "encoding": "inplace",
        "label": "struct AppStorage",
        "members": [
          {
            "astId": 9639,
            "contract": "contracts/agent/facets/PrimaryMarketFacet.sol:PrimaryMarketFacet",
            "label": "tokenCost",
            "offset": 0,
            "slot": "0",
            "type": "t_uint256"
          },
          {
            "astId": 9642,
            "contract": "contracts/agent/facets/PrimaryMarketFacet.sol:PrimaryMarketFacet",
            "label": "income",
            "offset": 0,
            "slot": "1",
            "type": "t_contract(IERC20)209"
          },
          {
            "astId": 9645,
            "contract": "contracts/agent/facets/PrimaryMarketFacet.sol:PrimaryMarketFacet",
            "label": "payment",
            "offset": 0,
            "slot": "2",
            "type": "t_contract(IERC20)209"
          },
          {
            "astId": 9647,
            "contract": "contracts/agent/facets/PrimaryMarketFacet.sol:PrimaryMarketFacet",
            "label": "nft",
            "offset": 0,
            "slot": "3",
            "type": "t_address"
          },
          {
            "astId": 9649,
            "contract": "contracts/agent/facets/PrimaryMarketFacet.sol:PrimaryMarketFacet",
            "label": "payee",
            "offset": 0,
            "slot": "4",
            "type": "t_address"
          },
          {
            "astId": 9651,
            "contract": "contracts/agent/facets/PrimaryMarketFacet.sol:PrimaryMarketFacet",
            "label": "initialized",
            "offset": 20,
            "slot": "4",
            "type": "t_bool"
          },
          {
            "astId": 9653,
            "contract": "contracts/agent/facets/PrimaryMarketFacet.sol:PrimaryMarketFacet",
            "label": "depositMultiplier",
            "offset": 21,
            "slot": "4",
            "type": "t_uint8"
          },
          {
            "astId": 9655,
            "contract": "contracts/agent/facets/PrimaryMarketFacet.sol:PrimaryMarketFacet",
            "label": "deposit",
            "offset": 0,
            "slot": "5",
            "type": "t_uint256"
          },
          {
            "astId": 9657,
            "contract": "contracts/agent/facets/PrimaryMarketFacet.sol:PrimaryMarketFacet",
            "label": "billing",
            "offset": 0,
            "slot": "6",
            "type": "t_uint256"
          },
          {
            "astId": 9662,
            "contract": "contracts/agent/facets/PrimaryMarketFacet.sol:PrimaryMarketFacet",
            "label": "statements",
            "offset": 0,
            "slot": "7",
            "type": "t_mapping(t_uint256,t_struct(Statement)9637_storage)"
          },
          {
            "astId": 9667,
            "contract": "contracts/agent/facets/PrimaryMarketFacet.sol:PrimaryMarketFacet",
            "label": "accounts",
            "offset": 0,
            "slot": "8",
            "type": "t_mapping(t_address,t_struct(Account)9630_storage)"
          },
          {
            "astId": 9673,
            "contract": "contracts/agent/facets/PrimaryMarketFacet.sol:PrimaryMarketFacet",
            "label": "balances",
            "offset": 0,
            "slot": "9",
            "type": "t_mapping(t_uint256,t_mapping(t_address,t_uint256))"
          },
          {
            "astId": 9681,
            "contract": "contracts/agent/facets/PrimaryMarketFacet.sol:PrimaryMarketFacet",
            "label": "allowances",
            "offset": 0,
            "slot": "10",
            "type": "t_mapping(t_address,t_mapping(t_address,t_mapping(t_uint256,t_uint256)))"
          }
        ],
        "numberOfBytes": "352"
      },
      "t_struct(Statement)9637_storage": {
        "encoding": "inplace",
        "label": "struct Statement",
        "members": [
          {
            "astId": 9632,
            "contract": "contracts/agent/facets/PrimaryMarketFacet.sol:PrimaryMarketFacet",
            "label": "balance",
            "offset": 0,
            "slot": "0",
            "type": "t_uint256"
          },
          {
            "astId": 9634,
            "contract": "contracts/agent/facets/PrimaryMarketFacet.sol:PrimaryMarketFacet",
            "label": "income",
            "offset": 0,
            "slot": "1",
            "type": "t_uint256"
          },
          {
            "astId": 9636,
            "contract": "contracts/agent/facets/PrimaryMarketFacet.sol:PrimaryMarketFacet",
            "label": "debt",
            "offset": 0,
            "slot": "2",
            "type": "t_uint256"
          }
        ],
        "numberOfBytes": "96"
      },
      "t_uint256": {
        "encoding": "inplace",
        "label": "uint256",
        "numberOfBytes": "32"
      },
      "t_uint8": {
        "encoding": "inplace",
        "label": "uint8",
        "numberOfBytes": "1"
      }
    }
  }
}