{
  "address": "0x390C604fd04591bb1242a8dEbFd98bDE60b60806",
  "abi": [
    {
      "inputs": [
        {
          "internalType": "address",
          "name": "custodian",
          "type": "address"
        }
      ],
      "stateMutability": "nonpayable",
      "type": "constructor"
    },
    {
      "anonymous": false,
      "inputs": [
        {
          "indexed": true,
          "internalType": "address",
          "name": "account",
          "type": "address"
        },
        {
          "indexed": true,
          "internalType": "address",
          "name": "operator",
          "type": "address"
        },
        {
          "indexed": false,
          "internalType": "bool",
          "name": "approved",
          "type": "bool"
        }
      ],
      "name": "ApprovalForAll",
      "type": "event"
    },
    {
      "anonymous": false,
      "inputs": [
        {
          "indexed": true,
          "internalType": "address",
          "name": "operator",
          "type": "address"
        },
        {
          "indexed": true,
          "internalType": "address",
          "name": "from",
          "type": "address"
        },
        {
          "indexed": true,
          "internalType": "address",
          "name": "to",
          "type": "address"
        },
        {
          "indexed": false,
          "internalType": "uint256[]",
          "name": "ids",
          "type": "uint256[]"
        },
        {
          "indexed": false,
          "internalType": "uint256[]",
          "name": "values",
          "type": "uint256[]"
        }
      ],
      "name": "TransferBatch",
      "type": "event"
    },
    {
      "anonymous": false,
      "inputs": [
        {
          "indexed": true,
          "internalType": "address",
          "name": "operator",
          "type": "address"
        },
        {
          "indexed": true,
          "internalType": "address",
          "name": "from",
          "type": "address"
        },
        {
          "indexed": true,
          "internalType": "address",
          "name": "to",
          "type": "address"
        },
        {
          "indexed": false,
          "internalType": "uint256",
          "name": "id",
          "type": "uint256"
        },
        {
          "indexed": false,
          "internalType": "uint256",
          "name": "value",
          "type": "uint256"
        }
      ],
      "name": "TransferSingle",
      "type": "event"
    },
    {
      "anonymous": false,
      "inputs": [
        {
          "indexed": false,
          "internalType": "string",
          "name": "value",
          "type": "string"
        },
        {
          "indexed": true,
          "internalType": "uint256",
          "name": "tokenId",
          "type": "uint256"
        }
      ],
      "name": "URI",
      "type": "event"
    },
    {
      "inputs": [
        {
          "internalType": "address",
          "name": "account",
          "type": "address"
        },
        {
          "internalType": "uint256",
          "name": "id",
          "type": "uint256"
        }
      ],
      "name": "balanceOf",
      "outputs": [
        {
          "internalType": "uint256",
          "name": "",
          "type": "uint256"
        }
      ],
      "stateMutability": "view",
      "type": "function"
    },
    {
      "inputs": [
        {
          "internalType": "address[]",
          "name": "accounts",
          "type": "address[]"
        },
        {
          "internalType": "uint256[]",
          "name": "ids",
          "type": "uint256[]"
        }
      ],
      "name": "balanceOfBatch",
      "outputs": [
        {
          "internalType": "uint256[]",
          "name": "",
          "type": "uint256[]"
        }
      ],
      "stateMutability": "view",
      "type": "function"
    },
    {
      "inputs": [],
      "name": "custodian",
      "outputs": [
        {
          "internalType": "address",
          "name": "",
          "type": "address"
        }
      ],
      "stateMutability": "view",
      "type": "function"
    },
    {
      "inputs": [
        {
          "internalType": "uint256",
          "name": "tokenId",
          "type": "uint256"
        }
      ],
      "name": "earning",
      "outputs": [
        {
          "internalType": "uint256",
          "name": "",
          "type": "uint256"
        }
      ],
      "stateMutability": "view",
      "type": "function"
    },
    {
      "inputs": [
        {
          "internalType": "uint256[]",
          "name": "ids",
          "type": "uint256[]"
        }
      ],
      "name": "earningBatch",
      "outputs": [
        {
          "internalType": "uint256[]",
          "name": "",
          "type": "uint256[]"
        }
      ],
      "stateMutability": "view",
      "type": "function"
    },
    {
      "inputs": [],
      "name": "earningToken",
      "outputs": [
        {
          "internalType": "address",
          "name": "",
          "type": "address"
        }
      ],
      "stateMutability": "view",
      "type": "function"
    },
    {
      "inputs": [
        {
          "internalType": "uint128",
          "name": "endOfDay",
          "type": "uint128"
        },
        {
          "internalType": "uint256",
          "name": "earningPerTPerDay",
          "type": "uint256"
        },
        {
          "internalType": "address",
          "name": "custodian",
          "type": "address"
        },
        {
          "internalType": "uint256",
          "name": "totalEarning",
          "type": "uint256"
        }
      ],
      "name": "finalize",
      "outputs": [],
      "stateMutability": "nonpayable",
      "type": "function"
    },
    {
      "inputs": [],
      "name": "finalized",
      "outputs": [
        {
          "internalType": "uint128",
          "name": "",
          "type": "uint128"
        }
      ],
      "stateMutability": "view",
      "type": "function"
    },
    {
      "inputs": [
        {
          "internalType": "address",
          "name": "_earningToken",
          "type": "address"
        }
      ],
      "name": "init",
      "outputs": [],
      "stateMutability": "nonpayable",
      "type": "function"
    },
    {
      "inputs": [
        {
          "internalType": "address",
          "name": "account",
          "type": "address"
        },
        {
          "internalType": "address",
          "name": "operator",
          "type": "address"
        }
      ],
      "name": "isApprovedForAll",
      "outputs": [
        {
          "internalType": "bool",
          "name": "",
          "type": "bool"
        }
      ],
      "stateMutability": "view",
      "type": "function"
    },
    {
      "inputs": [
        {
          "internalType": "uint256[]",
          "name": "ids",
          "type": "uint256[]"
        },
        {
          "internalType": "uint256[]",
          "name": "amounts",
          "type": "uint256[]"
        },
        {
          "internalType": "bytes",
          "name": "data",
          "type": "bytes"
        }
      ],
      "name": "mint",
      "outputs": [],
      "stateMutability": "nonpayable",
      "type": "function"
    },
    {
      "inputs": [
        {
          "internalType": "uint256",
          "name": "",
          "type": "uint256"
        },
        {
          "internalType": "uint256",
          "name": "value",
          "type": "uint256"
        }
      ],
      "name": "royaltyInfo",
      "outputs": [
        {
          "internalType": "address",
          "name": "",
          "type": "address"
        },
        {
          "internalType": "uint256",
          "name": "",
          "type": "uint256"
        }
      ],
      "stateMutability": "view",
      "type": "function"
    },
    {
      "inputs": [
        {
          "internalType": "address",
          "name": "from",
          "type": "address"
        },
        {
          "internalType": "address",
          "name": "to",
          "type": "address"
        },
        {
          "internalType": "uint256[]",
          "name": "ids",
          "type": "uint256[]"
        },
        {
          "internalType": "uint256[]",
          "name": "amounts",
          "type": "uint256[]"
        },
        {
          "internalType": "bytes",
          "name": "data",
          "type": "bytes"
        }
      ],
      "name": "safeBatchTransferFrom",
      "outputs": [],
      "stateMutability": "nonpayable",
      "type": "function"
    },
    {
      "inputs": [
        {
          "internalType": "address",
          "name": "from",
          "type": "address"
        },
        {
          "internalType": "address",
          "name": "to",
          "type": "address"
        },
        {
          "internalType": "uint256",
          "name": "id",
          "type": "uint256"
        },
        {
          "internalType": "uint256",
          "name": "amount",
          "type": "uint256"
        },
        {
          "internalType": "bytes",
          "name": "data",
          "type": "bytes"
        }
      ],
      "name": "safeTransferFrom",
      "outputs": [],
      "stateMutability": "nonpayable",
      "type": "function"
    },
    {
      "inputs": [
        {
          "internalType": "address",
          "name": "operator",
          "type": "address"
        },
        {
          "internalType": "bool",
          "name": "status",
          "type": "bool"
        }
      ],
      "name": "setApprovalForAll",
      "outputs": [],
      "stateMutability": "nonpayable",
      "type": "function"
    },
    {
      "inputs": [
        {
          "internalType": "address",
          "name": "recipient",
          "type": "address"
        },
        {
          "internalType": "uint16",
          "name": "bps",
          "type": "uint16"
        }
      ],
      "name": "setRoyaltyInfo",
      "outputs": [],
      "stateMutability": "nonpayable",
      "type": "function"
    },
    {
      "inputs": [
        {
          "internalType": "string",
          "name": "baseURI",
          "type": "string"
        }
      ],
      "name": "setURI",
      "outputs": [],
      "stateMutability": "nonpayable",
      "type": "function"
    },
    {
      "inputs": [
        {
          "internalType": "uint256",
          "name": "id",
          "type": "uint256"
        }
      ],
      "name": "supplyOf",
      "outputs": [
        {
          "internalType": "uint256",
          "name": "",
          "type": "uint256"
        }
      ],
      "stateMutability": "view",
      "type": "function"
    },
    {
      "inputs": [
        {
          "internalType": "uint256[]",
          "name": "ids",
          "type": "uint256[]"
        }
      ],
      "name": "supplyOfBatch",
      "outputs": [
        {
          "internalType": "uint256[]",
          "name": "",
          "type": "uint256[]"
        }
      ],
      "stateMutability": "view",
      "type": "function"
    },
    {
      "inputs": [
        {
          "internalType": "bytes4",
          "name": "interfaceId",
          "type": "bytes4"
        }
      ],
      "name": "supportsInterface",
      "outputs": [
        {
          "internalType": "bool",
          "name": "",
          "type": "bool"
        }
      ],
      "stateMutability": "view",
      "type": "function"
    },
    {
      "inputs": [
        {
          "internalType": "uint256",
          "name": "tokenId",
          "type": "uint256"
        }
      ],
      "name": "uri",
      "outputs": [
        {
          "internalType": "string",
          "name": "",
          "type": "string"
        }
      ],
      "stateMutability": "view",
      "type": "function"
    }
  ],
  "transactionHash": "0x11b0b06feb3cb57e5f3719092042135b0e962a92f21dae90d7c42799583f5828",
  "args": [
    "0xB9942aFE15a45900FEc923bB991Bb88dE9BDA306"
  ],
  "numDeployments": 1,
  "solcInputHash": "d7640e663130558e75b76120b39f8093",
  "bytecode": "0x60a06040523480156200001157600080fd5b5060405162004f7838038062004f788339818101604052810190620000379190620000e9565b808073ffffffffffffffffffffffffffffffffffffffff1660808173ffffffffffffffffffffffffffffffffffffffff1681525050600160006002018190555050506200011b565b600080fd5b600073ffffffffffffffffffffffffffffffffffffffff82169050919050565b6000620000b18262000084565b9050919050565b620000c381620000a4565b8114620000cf57600080fd5b50565b600081519050620000e381620000b8565b92915050565b6000602082840312156200010257620001016200007f565b5b60006200011284828501620000d2565b91505092915050565b608051614e2c6200014c60003960008181610aa30152818161119d0152818161295c01526129b20152614e2c6000f3fe608060405234801561001057600080fd5b50600436106101365760003560e01c80634e1273f4116100b85780638ff45d931161007c5780638ff45d9314610384578063a22cb465146103a0578063b3f05b97146103bc578063e985e9c5146103da578063f242432a1461040a578063fd0dac901461042657610136565b80634e1273f4146102ce5780635840799f146102fe57806372504a241461031a5780637fe205c7146103365780638806792f1461035457610136565b806319ab453c116100ff57806319ab453c146102175780632a55205a146102335780632ac3fad9146102645780632eb2c2d614610294578063375b74c3146102b057610136565b8062fdd58e1461013b57806301ffc9a71461016b57806302fe53051461019b5780630d071e63146101b75780630e89341c146101e7575b600080fd5b61015560048036038101906101509190612ffc565b610456565b604051610162919061304b565b60405180910390f35b610185600480360381019061018091906130be565b61046a565b6040516101929190613106565b60405180910390f35b6101b560048036038101906101b09190613267565b61048d565b005b6101d160048036038101906101cc9190613310565b610532565b6040516101de919061341b565b60405180910390f35b61020160048036038101906101fc919061343d565b6105ff565b60405161020e91906134f2565b60405180910390f35b610231600480360381019061022c9190613514565b6107c0565b005b61024d60048036038101906102489190613541565b61092b565b60405161025b929190613590565b60405180910390f35b61027e6004803603810190610279919061343d565b6109e9565b60405161028b919061304b565b60405180910390f35b6102ae60048036038101906102a9919061371d565b610a0b565b005b6102b8610a9f565b6040516102c591906137ec565b60405180910390f35b6102e860048036038101906102e391906138ca565b610ac7565b6040516102f5919061341b565b60405180910390f35b6103186004803603810190610313919061398a565b610cbc565b005b610334600480360381019061032f9190613a2b565b610f77565b005b61033e6110b4565b60405161034b91906137ec565b60405180910390f35b61036e6004803603810190610369919061343d565b6110e0565b60405161037b919061304b565b60405180910390f35b61039e60048036038101906103999190613a6b565b6110ff565b005b6103ba60048036038101906103b59190613b48565b61124d565b005b6103c46113c2565b6040516103d19190613b97565b60405180910390f35b6103f460048036038101906103ef9190613bb2565b6113ea565b6040516104019190613106565b60405180910390f35b610424600480360381019061041f9190613bf2565b611487565b005b610440600480360381019061043b9190613310565b61151b565b60405161044d919061341b565b60405180910390f35b60006104628383611604565b905092915050565b6000610486826104786116d7565b61170490919063ffffffff16565b9050919050565b61049561176f565b60000160009054906101000a900473ffffffffffffffffffffffffffffffffffffffff1673ffffffffffffffffffffffffffffffffffffffff163373ffffffffffffffffffffffffffffffffffffffff1614610526576040517f08c379a000000000000000000000000000000000000000000000000000000000815260040161051d90613cd5565b60405180910390fd5b61052f8161179c565b50565b606060008383905067ffffffffffffffff8111156105535761055261313c565b5b6040519080825280602002602001820160405280156105815781602001602082028036833780820191505090505b50905060005b848490508110156105f457600060060160008686848181106105ac576105ab613cf5565b5b905060200201358152602001908152602001600020548282815181106105d5576105d4613cf5565b5b60200260200101818152505080806105ec90613d53565b915050610587565b508091505092915050565b6060600061060b6117bf565b90506000816001016000858152602001908152602001600020805461062f90613dcb565b80601f016020809104026020016040519081016040528092919081815260200182805461065b90613dcb565b80156106a85780601f1061067d576101008083540402835291602001916106a8565b820191906000526020600020905b81548152906001019060200180831161068b57829003601f168201915b5050505050905060008260000180546106c090613dcb565b80601f01602080910402602001604051908101604052809291908181526020018280546106ec90613dcb565b80156107395780601f1061070e57610100808354040283529160200191610739565b820191906000526020600020905b81548152906001019060200180831161071c57829003601f168201915b50505050509050600081511415610755578193505050506107bb565b60008251111561078b578082604051602001610772929190613e39565b60405160208183030381529060405293505050506107bb565b80610795866117ec565b6040516020016107a6929190613e39565b60405160208183030381529060405293505050505b919050565b6107c861194d565b60000160019054906101000a900460ff16610818576040517f08c379a000000000000000000000000000000000000000000000000000000000815260040161080f90613ecf565b60405180910390fd5b80600060010160006101000a81548173ffffffffffffffffffffffffffffffffffffffff021916908373ffffffffffffffffffffffffffffffffffffffff160217905550604051806040016040528061086f61176f565b60000160009054906101000a900473ffffffffffffffffffffffffffffffffffffffff1673ffffffffffffffffffffffffffffffffffffffff168152602001606461ffff168152506000800160008201518160000160006101000a81548173ffffffffffffffffffffffffffffffffffffffff021916908373ffffffffffffffffffffffffffffffffffffffff16021790555060208201518160000160146101000a81548161ffff021916908361ffff16021790555090505050565b6000806000806000016040518060400160405290816000820160009054906101000a900473ffffffffffffffffffffffffffffffffffffffff1673ffffffffffffffffffffffffffffffffffffffff1673ffffffffffffffffffffffffffffffffffffffff1681526020016000820160149054906101000a900461ffff1661ffff1661ffff168152505090508060000151612710826020015161ffff16866109d39190613eef565b6109dd9190613f78565b92509250509250929050565b600080608083901c90506000839050610a02828261197a565b92505050919050565b3373ffffffffffffffffffffffffffffffffffffffff168573ffffffffffffffffffffffffffffffffffffffff161480610a4b5750610a4a85336113ea565b5b610a8a576040517f08c379a0000000000000000000000000000000000000000000000000000000008152600401610a819061401b565b60405180910390fd5b610a98338686868686611b11565b5050505050565b60007f0000000000000000000000000000000000000000000000000000000000000000905090565b60608151835114610b0d576040517f08c379a0000000000000000000000000000000000000000000000000000000008152600401610b04906140ad565b60405180910390fd5b6000610b17611b35565b60000190506000845167ffffffffffffffff811115610b3957610b3861313c565b5b604051908082528060200260200182016040528015610b675781602001602082028036833780820191505090505b50905060005b8551811015610cb057600073ffffffffffffffffffffffffffffffffffffffff16868281518110610ba157610ba0613cf5565b5b602002602001015173ffffffffffffffffffffffffffffffffffffffff161415610c00576040517f08c379a0000000000000000000000000000000000000000000000000000000008152600401610bf79061413f565b60405180910390fd5b826000868381518110610c1657610c15613cf5565b5b602002602001015181526020019081526020016000206000878381518110610c4157610c40613cf5565b5b602002602001015173ffffffffffffffffffffffffffffffffffffffff1673ffffffffffffffffffffffffffffffffffffffff16815260200190815260200160002054828281518110610c9757610c96613cf5565b5b6020026020010181815250508080600101915050610b6d565b50809250505092915050565b610cc461176f565b60000160009054906101000a900473ffffffffffffffffffffffffffffffffffffffff1673ffffffffffffffffffffffffffffffffffffffff163373ffffffffffffffffffffffffffffffffffffffff1614610d55576040517f08c379a0000000000000000000000000000000000000000000000000000000008152600401610d4c90613cd5565b60405180910390fd5b600060030160009054906101000a90046fffffffffffffffffffffffffffffffff166fffffffffffffffffffffffffffffffff16846fffffffffffffffffffffffffffffffff16118015610dc9575060006201518085610db5919061415f565b6fffffffffffffffffffffffffffffffff16145b610e08576040517f08c379a0000000000000000000000000000000000000000000000000000000008152600401610dff906141dc565b60405180910390fd5b83600060030160006101000a8154816fffffffffffffffffffffffffffffffff02191690836fffffffffffffffffffffffffffffffff1602179055508260006004016000866fffffffffffffffffffffffffffffffff166fffffffffffffffffffffffffffffffff1681526020019081526020016000208190555060005b6007816fffffffffffffffffffffffffffffffff161015610f1e5783600060050160006201518084610eb891906141fc565b88610ec39190614246565b6fffffffffffffffffffffffffffffffff166fffffffffffffffffffffffffffffffff1681526020019081526020016000206000828254610f04919061428c565b925050819055508080610f16906142e2565b915050610e86565b50610f71823083600060010160009054906101000a900473ffffffffffffffffffffffffffffffffffffffff1673ffffffffffffffffffffffffffffffffffffffff16611b62909392919063ffffffff16565b50505050565b610f7f61176f565b60000160009054906101000a900473ffffffffffffffffffffffffffffffffffffffff1673ffffffffffffffffffffffffffffffffffffffff163373ffffffffffffffffffffffffffffffffffffffff1614611010576040517f08c379a000000000000000000000000000000000000000000000000000000000815260040161100790613cd5565b60405180910390fd5b60405180604001604052808373ffffffffffffffffffffffffffffffffffffffff1681526020018261ffff168152506000800160008201518160000160006101000a81548173ffffffffffffffffffffffffffffffffffffffff021916908373ffffffffffffffffffffffffffffffffffffffff16021790555060208201518160000160146101000a81548161ffff021916908361ffff1602179055509050505050565b60008060010160009054906101000a900473ffffffffffffffffffffffffffffffffffffffff16905090565b6000806006016000838152602001908152602001600020549050919050565b61110761176f565b60000160009054906101000a900473ffffffffffffffffffffffffffffffffffffffff1673ffffffffffffffffffffffffffffffffffffffff163373ffffffffffffffffffffffffffffffffffffffff1614611198576040517f08c379a000000000000000000000000000000000000000000000000000000000815260040161118f90613cd5565b60405180910390fd5b6112467f0000000000000000000000000000000000000000000000000000000000000000868680806020026020016040519081016040528093929190818152602001838360200280828437600081840152601f19601f82011690508083019250505050505050858580806020026020016040519081016040528093929190818152602001838360200280828437600081840152601f19601f8201169050808301925050505050505084611beb565b5050505050565b8173ffffffffffffffffffffffffffffffffffffffff163373ffffffffffffffffffffffffffffffffffffffff1614156112bc576040517f08c379a00000000000000000000000000000000000000000000000000000000081526004016112b39061438d565b60405180910390fd5b806112c5611b35565b60010160003373ffffffffffffffffffffffffffffffffffffffff1673ffffffffffffffffffffffffffffffffffffffff16815260200190815260200160002060008473ffffffffffffffffffffffffffffffffffffffff1673ffffffffffffffffffffffffffffffffffffffff16815260200190815260200160002060006101000a81548160ff0219169083151502179055508173ffffffffffffffffffffffffffffffffffffffff163373ffffffffffffffffffffffffffffffffffffffff167f17307eab39ab6107e8899845ad3d59bd9653f200f220920489ca2b5937696c31836040516113b69190613106565b60405180910390a35050565b60008060030160009054906101000a90046fffffffffffffffffffffffffffffffff16905090565b60006113f4611b35565b60010160008473ffffffffffffffffffffffffffffffffffffffff1673ffffffffffffffffffffffffffffffffffffffff16815260200190815260200160002060008373ffffffffffffffffffffffffffffffffffffffff1673ffffffffffffffffffffffffffffffffffffffff16815260200190815260200160002060009054906101000a900460ff16905092915050565b3373ffffffffffffffffffffffffffffffffffffffff168573ffffffffffffffffffffffffffffffffffffffff1614806114c757506114c685336113ea565b5b611506576040517f08c379a00000000000000000000000000000000000000000000000000000000081526004016114fd9061401b565b60405180910390fd5b611514338686868686611c0c565b5050505050565b606060008383905067ffffffffffffffff81111561153c5761153b61313c565b5b60405190808252806020026020018201604052801561156a5781602001602082028036833780820191505090505b50905060005b848490508110156115f9576000608086868481811061159257611591613cf5565b5b90506020020135901c905060008686848181106115b2576115b1613cf5565b5b9050602002013590506115c5828261197a565b8484815181106115d8576115d7613cf5565b5b602002602001018181525050505080806115f190613d53565b915050611570565b508091505092915050565b60008073ffffffffffffffffffffffffffffffffffffffff168373ffffffffffffffffffffffffffffffffffffffff161415611675576040517f08c379a000000000000000000000000000000000000000000000000000000000815260040161166c9061441f565b60405180910390fd5b61167d611b35565b600001600083815260200190815260200160002060008473ffffffffffffffffffffffffffffffffffffffff1673ffffffffffffffffffffffffffffffffffffffff16815260200190815260200160002054905092915050565b6000807f326d0c59a7612f6a9919e2a8ee333c80ba689d8ba2634de89c85cbb04832e70590508091505090565b6000826000016000837bffffffffffffffffffffffffffffffffffffffffffffffffffffffff19167bffffffffffffffffffffffffffffffffffffffffffffffffffffffff1916815260200190815260200160002060009054906101000a900460ff16905092915050565b6000807f8a22373512790c48b83a1fe2efdd2888d4a917bcdc24d0adf63e60f67168046090508091505090565b806117a56117bf565b60000190805190602001906117bb929190612eb1565b5050565b6000807f4281b61aefbe70b3d3f684b428efca5f33077bc240e76f2808f9177c307617f490508091505090565b60606000821415611834576040518060400160405280600181526020017f30000000000000000000000000000000000000000000000000000000000000008152509050611948565b600082905060005b6000821461186657808061184f90613d53565b915050600a8261185f9190613f78565b915061183c565b60008167ffffffffffffffff8111156118825761188161313c565b5b6040519080825280601f01601f1916602001820160405280156118b45781602001600182028036833780820191505090505b5090505b60008514611941576001826118cd919061443f565b9150600a856118dc9190614473565b60306118e8919061428c565b60f81b8183815181106118fe576118fd613cf5565b5b60200101907effffffffffffffffffffffffffffffffffffffffffffffffffffffffffffff1916908160001a905350600a8561193a9190613f78565b94506118b8565b8093505050505b919050565b6000807f2ae1e818fc317b4c150084d41bf7468a28b0861c8b85a3e58e4bb4d5dbbc6aa190508091505090565b600062015180838361198c91906144a4565b6fffffffffffffffffffffffffffffffff1614156119e65760006004016000836fffffffffffffffffffffffffffffffff166fffffffffffffffffffffffffffffffff168152602001908152602001600020549050611b0b565b62093a8083836119f691906144a4565b6fffffffffffffffffffffffffffffffff161415611a505760006005016000836fffffffffffffffffffffffffffffffff166fffffffffffffffffffffffffffffffff168152602001908152602001600020549050611b0a565b621275008383611a6091906144a4565b6fffffffffffffffffffffffffffffffff161415611b09576000600501600062093a8084611a8e91906144a4565b6fffffffffffffffffffffffffffffffff166fffffffffffffffffffffffffffffffff1681526020019081526020016000205460006005016000846fffffffffffffffffffffffffffffffff166fffffffffffffffffffffffffffffffff16815260200190815260200160002054611b06919061428c565b90505b5b5b92915050565b611b1f868686868686611c30565b611b2d868686868686611f3c565b505050505050565b6000807f1799cf914cb0cb442ca7c7ac709ee40d0cb89e87351dc08d517fbda27d50c68b90508091505090565b611be5846323b872dd60e01b858585604051602401611b83939291906144d8565b604051602081830303815290604052907bffffffffffffffffffffffffffffffffffffffffffffffffffffffff19166020820180517bffffffffffffffffffffffffffffffffffffffffffffffffffffffff8381831617835250505050612114565b50505050565b611bf7848484846121db565b611c0633600086868686611f3c565b50505050565b611c1a8686868686866123ed565b611c28868686868686612665565b505050505050565b600073ffffffffffffffffffffffffffffffffffffffff168473ffffffffffffffffffffffffffffffffffffffff161415611ca0576040517f08c379a0000000000000000000000000000000000000000000000000000000008152600401611c9790614581565b60405180910390fd5b8151835114611ce4576040517f08c379a0000000000000000000000000000000000000000000000000000000008152600401611cdb90614613565b60405180910390fd5b611cf286868686868661283d565b6000611cfc611b35565b600001905060005b8451811015611eb4576000858281518110611d2257611d21613cf5565b5b602002602001015190506000858381518110611d4157611d40613cf5565b5b60200260200101519050600084600084815260200190815260200160002060008b73ffffffffffffffffffffffffffffffffffffffff1673ffffffffffffffffffffffffffffffffffffffff16815260200190815260200160002054905081811015611de2576040517f08c379a0000000000000000000000000000000000000000000000000000000008152600401611dd9906146a5565b60405180910390fd5b81810385600085815260200190815260200160002060008c73ffffffffffffffffffffffffffffffffffffffff1673ffffffffffffffffffffffffffffffffffffffff16815260200190815260200160002081905550508084600084815260200190815260200160002060008a73ffffffffffffffffffffffffffffffffffffffff1673ffffffffffffffffffffffffffffffffffffffff1681526020019081526020016000206000828254611e98919061428c565b9250508190555050508080611eac90613d53565b915050611d04565b508473ffffffffffffffffffffffffffffffffffffffff168673ffffffffffffffffffffffffffffffffffffffff168873ffffffffffffffffffffffffffffffffffffffff167f4a39dc06d4c0dbc64b70af90fd698a233a518aa5d07e595d983b8c0526c8f7fb8787604051611f2b9291906146c5565b60405180910390a450505050505050565b611f5b8473ffffffffffffffffffffffffffffffffffffffff16612bc3565b1561210c578373ffffffffffffffffffffffffffffffffffffffff1663bc197c8187878686866040518663ffffffff1660e01b8152600401611fa1959493929190614751565b6020604051808303816000875af1925050508015611fdd57506040513d601f19601f82011682018060405250810190611fda91906147ce565b60015b61208357611fe9614808565b806308c379a014156120465750611ffe61482a565b806120095750612048565b806040517f08c379a000000000000000000000000000000000000000000000000000000000815260040161203d91906134f2565b60405180910390fd5b505b6040517f08c379a000000000000000000000000000000000000000000000000000000000815260040161207a90614932565b60405180910390fd5b63bc197c8160e01b7bffffffffffffffffffffffffffffffffffffffffffffffffffffffff1916817bffffffffffffffffffffffffffffffffffffffffffffffffffffffff19161461210a576040517f08c379a0000000000000000000000000000000000000000000000000000000008152600401612101906149c4565b60405180910390fd5b505b505050505050565b6000612176826040518060400160405280602081526020017f5361666545524332303a206c6f772d6c6576656c2063616c6c206661696c65648152508573ffffffffffffffffffffffffffffffffffffffff16612bd69092919063ffffffff16565b90506000815111156121d6578080602001905181019061219691906149f9565b6121d5576040517f08c379a00000000000000000000000000000000000000000000000000000000081526004016121cc90614a98565b60405180910390fd5b5b505050565b600073ffffffffffffffffffffffffffffffffffffffff168473ffffffffffffffffffffffffffffffffffffffff16141561224b576040517f08c379a000000000000000000000000000000000000000000000000000000000815260040161224290614b2a565b60405180910390fd5b815183511461228f576040517f08c379a000000000000000000000000000000000000000000000000000000000815260040161228690614613565b60405180910390fd5b61229e3360008686868661283d565b60006122a8611b35565b600001905060005b8451811015612366578381815181106122cc576122cb613cf5565b5b60200260200101518260008784815181106122ea576122e9613cf5565b5b6020026020010151815260200190815260200160002060008873ffffffffffffffffffffffffffffffffffffffff1673ffffffffffffffffffffffffffffffffffffffff168152602001908152602001600020600082825461234c919061428c565b92505081905550808061235e90613d53565b9150506122b0565b508473ffffffffffffffffffffffffffffffffffffffff16600073ffffffffffffffffffffffffffffffffffffffff163373ffffffffffffffffffffffffffffffffffffffff167f4a39dc06d4c0dbc64b70af90fd698a233a518aa5d07e595d983b8c0526c8f7fb87876040516123de9291906146c5565b60405180910390a45050505050565b600073ffffffffffffffffffffffffffffffffffffffff168473ffffffffffffffffffffffffffffffffffffffff16141561245d576040517f08c379a000000000000000000000000000000000000000000000000000000000815260040161245490614581565b60405180910390fd5b61247b86868661246c87612bee565b61247587612bee565b8661283d565b6000612485611b35565b6000019050600081600086815260200190815260200160002060008873ffffffffffffffffffffffffffffffffffffffff1673ffffffffffffffffffffffffffffffffffffffff16815260200190815260200160002054905083811015612521576040517f08c379a0000000000000000000000000000000000000000000000000000000008152600401612518906146a5565b60405180910390fd5b83810382600087815260200190815260200160002060008973ffffffffffffffffffffffffffffffffffffffff1673ffffffffffffffffffffffffffffffffffffffff16815260200190815260200160002081905550508281600086815260200190815260200160002060008773ffffffffffffffffffffffffffffffffffffffff1673ffffffffffffffffffffffffffffffffffffffff16815260200190815260200160002060008282546125d7919061428c565b925050819055508473ffffffffffffffffffffffffffffffffffffffff168673ffffffffffffffffffffffffffffffffffffffff168873ffffffffffffffffffffffffffffffffffffffff167fc3d58168c5ae7397731d063d5bbf3d657854427343f4c083240f7aacaa2d0f628787604051612654929190614b4a565b60405180910390a450505050505050565b6126848473ffffffffffffffffffffffffffffffffffffffff16612bc3565b15612835578373ffffffffffffffffffffffffffffffffffffffff1663f23a6e6187878686866040518663ffffffff1660e01b81526004016126ca959493929190614b73565b6020604051808303816000875af192505050801561270657506040513d601f19601f8201168201806040525081019061270391906147ce565b60015b6127ac57612712614808565b806308c379a0141561276f575061272761482a565b806127325750612771565b806040517f08c379a000000000000000000000000000000000000000000000000000000000815260040161276691906134f2565b60405180910390fd5b505b6040517f08c379a00000000000000000000000000000000000000000000000000000000081526004016127a390614932565b60405180910390fd5b63f23a6e6160e01b7bffffffffffffffffffffffffffffffffffffffffffffffffffffffff1916817bffffffffffffffffffffffffffffffffffffffffffffffffffffffff191614612833576040517f08c379a000000000000000000000000000000000000000000000000000000000815260040161282a906149c4565b60405180910390fd5b505b505050505050565b60026000600201541415612886576040517f08c379a000000000000000000000000000000000000000000000000000000000815260040161287d90614c19565b60405180910390fd5b600260006002018190555061289f868686868686612c68565b600073ffffffffffffffffffffffffffffffffffffffff168573ffffffffffffffffffffffffffffffffffffffff16141561295a5760005b8351811015612954578281815181106128f3576128f2613cf5565b5b60200260200101516000600601600086848151811061291557612914613cf5565b5b60200260200101518152602001908152602001600020600082825461293a919061428c565b92505081905550808061294c90613d53565b9150506128d7565b50612bb0565b7f000000000000000000000000000000000000000000000000000000000000000073ffffffffffffffffffffffffffffffffffffffff168473ffffffffffffffffffffffffffffffffffffffff16148015612a0157507f000000000000000000000000000000000000000000000000000000000000000073ffffffffffffffffffffffffffffffffffffffff168573ffffffffffffffffffffffffffffffffffffffff1614155b15612baf57612a0e612c70565b60000160009054906101000a900460ff1615612a5f576040517f08c379a0000000000000000000000000000000000000000000000000000000008152600401612a5690614c85565b60405180910390fd5b600080600060030160009054906101000a90046fffffffffffffffffffffffffffffffff166fffffffffffffffffffffffffffffffff16905060005b8551811015612b51576000868281518110612ab957612ab8613cf5565b5b6020026020010151905082816fffffffffffffffffffffffffffffffff1611612b3d5760006080888481518110612af357612af2613cf5565b5b6020026020010151901c9050612b09818361197a565b878481518110612b1c57612b1b613cf5565b5b6020026020010151612b2e9190613eef565b85612b39919061428c565b9450505b508080612b4990613d53565b915050612a9b565b506000821115612bac57612bab8783600060010160009054906101000a900473ffffffffffffffffffffffffffffffffffffffff1673ffffffffffffffffffffffffffffffffffffffff16612c9d9092919063ffffffff16565b5b50505b5b6001600060020181905550505050505050565b600080823b905060008111915050919050565b6060612be58484600085612d23565b90509392505050565b60606000600167ffffffffffffffff811115612c0d57612c0c61313c565b5b604051908082528060200260200182016040528015612c3b5781602001602082028036833780820191505090505b5090508281600081518110612c5357612c52613cf5565b5b60200260200101818152505080915050919050565b505050505050565b6000807f68721c0bbf2c02a4d65000340d1370666be06a630022208d4baa9bd7a4b6fea890508091505090565b612d1e8363a9059cbb60e01b8484604051602401612cbc929190613590565b604051602081830303815290604052907bffffffffffffffffffffffffffffffffffffffffffffffffffffffff19166020820180517bffffffffffffffffffffffffffffffffffffffffffffffffffffffff8381831617835250505050612114565b505050565b606082471015612d68576040517f08c379a0000000000000000000000000000000000000000000000000000000008152600401612d5f90614d17565b60405180910390fd5b612d7185612e37565b612db0576040517f08c379a0000000000000000000000000000000000000000000000000000000008152600401612da790614d83565b60405180910390fd5b6000808673ffffffffffffffffffffffffffffffffffffffff168587604051612dd99190614ddf565b60006040518083038185875af1925050503d8060008114612e16576040519150601f19603f3d011682016040523d82523d6000602084013e612e1b565b606091505b5091509150612e2b828286612e4a565b92505050949350505050565b600080823b905060008111915050919050565b60608315612e5a57829050612eaa565b600083511115612e6d5782518084602001fd5b816040517f08c379a0000000000000000000000000000000000000000000000000000000008152600401612ea191906134f2565b60405180910390fd5b9392505050565b828054612ebd90613dcb565b90600052602060002090601f016020900481019282612edf5760008555612f26565b82601f10612ef857805160ff1916838001178555612f26565b82800160010185558215612f26579182015b82811115612f25578251825591602001919060010190612f0a565b5b509050612f339190612f37565b5090565b5b80821115612f50576000816000905550600101612f38565b5090565b6000604051905090565b600080fd5b600080fd5b600073ffffffffffffffffffffffffffffffffffffffff82169050919050565b6000612f9382612f68565b9050919050565b612fa381612f88565b8114612fae57600080fd5b50565b600081359050612fc081612f9a565b92915050565b6000819050919050565b612fd981612fc6565b8114612fe457600080fd5b50565b600081359050612ff681612fd0565b92915050565b6000806040838503121561301357613012612f5e565b5b600061302185828601612fb1565b925050602061303285828601612fe7565b9150509250929050565b61304581612fc6565b82525050565b6000602082019050613060600083018461303c565b92915050565b60007fffffffff0000000000000000000000000000000000000000000000000000000082169050919050565b61309b81613066565b81146130a657600080fd5b50565b6000813590506130b881613092565b92915050565b6000602082840312156130d4576130d3612f5e565b5b60006130e2848285016130a9565b91505092915050565b60008115159050919050565b613100816130eb565b82525050565b600060208201905061311b60008301846130f7565b92915050565b600080fd5b600080fd5b6000601f19601f8301169050919050565b7f4e487b7100000000000000000000000000000000000000000000000000000000600052604160045260246000fd5b6131748261312b565b810181811067ffffffffffffffff821117156131935761319261313c565b5b80604052505050565b60006131a6612f54565b90506131b2828261316b565b919050565b600067ffffffffffffffff8211156131d2576131d161313c565b5b6131db8261312b565b9050602081019050919050565b82818337600083830152505050565b600061320a613205846131b7565b61319c565b90508281526020810184848401111561322657613225613126565b5b6132318482856131e8565b509392505050565b600082601f83011261324e5761324d613121565b5b813561325e8482602086016131f7565b91505092915050565b60006020828403121561327d5761327c612f5e565b5b600082013567ffffffffffffffff81111561329b5761329a612f63565b5b6132a784828501613239565b91505092915050565b600080fd5b600080fd5b60008083601f8401126132d0576132cf613121565b5b8235905067ffffffffffffffff8111156132ed576132ec6132b0565b5b602083019150836020820283011115613309576133086132b5565b5b9250929050565b6000806020838503121561332757613326612f5e565b5b600083013567ffffffffffffffff81111561334557613344612f63565b5b613351858286016132ba565b92509250509250929050565b600081519050919050565b600082825260208201905092915050565b6000819050602082019050919050565b61339281612fc6565b82525050565b60006133a48383613389565b60208301905092915050565b6000602082019050919050565b60006133c88261335d565b6133d28185613368565b93506133dd83613379565b8060005b8381101561340e5781516133f58882613398565b9750613400836133b0565b9250506001810190506133e1565b5085935050505092915050565b6000602082019050818103600083015261343581846133bd565b905092915050565b60006020828403121561345357613452612f5e565b5b600061346184828501612fe7565b91505092915050565b600081519050919050565b600082825260208201905092915050565b60005b838110156134a4578082015181840152602081019050613489565b838111156134b3576000848401525b50505050565b60006134c48261346a565b6134ce8185613475565b93506134de818560208601613486565b6134e78161312b565b840191505092915050565b6000602082019050818103600083015261350c81846134b9565b905092915050565b60006020828403121561352a57613529612f5e565b5b600061353884828501612fb1565b91505092915050565b6000806040838503121561355857613557612f5e565b5b600061356685828601612fe7565b925050602061357785828601612fe7565b9150509250929050565b61358a81612f88565b82525050565b60006040820190506135a56000830185613581565b6135b2602083018461303c565b9392505050565b600067ffffffffffffffff8211156135d4576135d361313c565b5b602082029050602081019050919050565b60006135f86135f3846135b9565b61319c565b9050808382526020820190506020840283018581111561361b5761361a6132b5565b5b835b8181101561364457806136308882612fe7565b84526020840193505060208101905061361d565b5050509392505050565b600082601f83011261366357613662613121565b5b81356136738482602086016135e5565b91505092915050565b600067ffffffffffffffff8211156136975761369661313c565b5b6136a08261312b565b9050602081019050919050565b60006136c06136bb8461367c565b61319c565b9050828152602081018484840111156136dc576136db613126565b5b6136e78482856131e8565b509392505050565b600082601f83011261370457613703613121565b5b81356137148482602086016136ad565b91505092915050565b600080600080600060a0868803121561373957613738612f5e565b5b600061374788828901612fb1565b955050602061375888828901612fb1565b945050604086013567ffffffffffffffff81111561377957613778612f63565b5b6137858882890161364e565b935050606086013567ffffffffffffffff8111156137a6576137a5612f63565b5b6137b28882890161364e565b925050608086013567ffffffffffffffff8111156137d3576137d2612f63565b5b6137df888289016136ef565b9150509295509295909350565b60006020820190506138016000830184613581565b92915050565b600067ffffffffffffffff8211156138225761382161313c565b5b602082029050602081019050919050565b600061384661384184613807565b61319c565b90508083825260208201905060208402830185811115613869576138686132b5565b5b835b81811015613892578061387e8882612fb1565b84526020840193505060208101905061386b565b5050509392505050565b600082601f8301126138b1576138b0613121565b5b81356138c1848260208601613833565b91505092915050565b600080604083850312156138e1576138e0612f5e565b5b600083013567ffffffffffffffff8111156138ff576138fe612f63565b5b61390b8582860161389c565b925050602083013567ffffffffffffffff81111561392c5761392b612f63565b5b6139388582860161364e565b9150509250929050565b60006fffffffffffffffffffffffffffffffff82169050919050565b61396781613942565b811461397257600080fd5b50565b6000813590506139848161395e565b92915050565b600080600080608085870312156139a4576139a3612f5e565b5b60006139b287828801613975565b94505060206139c387828801612fe7565b93505060406139d487828801612fb1565b92505060606139e587828801612fe7565b91505092959194509250565b600061ffff82169050919050565b613a08816139f1565b8114613a1357600080fd5b50565b600081359050613a25816139ff565b92915050565b60008060408385031215613a4257613a41612f5e565b5b6000613a5085828601612fb1565b9250506020613a6185828601613a16565b9150509250929050565b600080600080600060608688031215613a8757613a86612f5e565b5b600086013567ffffffffffffffff811115613aa557613aa4612f63565b5b613ab1888289016132ba565b9550955050602086013567ffffffffffffffff811115613ad457613ad3612f63565b5b613ae0888289016132ba565b9350935050604086013567ffffffffffffffff811115613b0357613b02612f63565b5b613b0f888289016136ef565b9150509295509295909350565b613b25816130eb565b8114613b3057600080fd5b50565b600081359050613b4281613b1c565b92915050565b60008060408385031215613b5f57613b5e612f5e565b5b6000613b6d85828601612fb1565b9250506020613b7e85828601613b33565b9150509250929050565b613b9181613942565b82525050565b6000602082019050613bac6000830184613b88565b92915050565b60008060408385031215613bc957613bc8612f5e565b5b6000613bd785828601612fb1565b9250506020613be885828601612fb1565b9150509250929050565b600080600080600060a08688031215613c0e57613c0d612f5e565b5b6000613c1c88828901612fb1565b9550506020613c2d88828901612fb1565b9450506040613c3e88828901612fe7565b9350506060613c4f88828901612fe7565b925050608086013567ffffffffffffffff811115613c7057613c6f612f63565b5b613c7c888289016136ef565b9150509295509295909350565b7f4f776e61626c653a2073656e646572206d757374206265206f776e6572000000600082015250565b6000613cbf601d83613475565b9150613cca82613c89565b602082019050919050565b60006020820190508181036000830152613cee81613cb2565b9050919050565b7f4e487b7100000000000000000000000000000000000000000000000000000000600052603260045260246000fd5b7f4e487b7100000000000000000000000000000000000000000000000000000000600052601160045260246000fd5b6000613d5e82612fc6565b91507fffffffffffffffffffffffffffffffffffffffffffffffffffffffffffffffff821415613d9157613d90613d24565b5b600182019050919050565b7f4e487b7100000000000000000000000000000000000000000000000000000000600052602260045260246000fd5b60006002820490506001821680613de357607f821691505b60208210811415613df757613df6613d9c565b5b50919050565b600081905092915050565b6000613e138261346a565b613e1d8185613dfd565b9350613e2d818560208601613486565b80840191505092915050565b6000613e458285613e08565b9150613e518284613e08565b91508190509392505050565b7f496e697469616c697a61626c653a20636f6e7472616374206973206e6f74206960008201527f6e697469616c697a696e67000000000000000000000000000000000000000000602082015250565b6000613eb9602b83613475565b9150613ec482613e5d565b604082019050919050565b60006020820190508181036000830152613ee881613eac565b9050919050565b6000613efa82612fc6565b9150613f0583612fc6565b9250817fffffffffffffffffffffffffffffffffffffffffffffffffffffffffffffffff0483118215151615613f3e57613f3d613d24565b5b828202905092915050565b7f4e487b7100000000000000000000000000000000000000000000000000000000600052601260045260246000fd5b6000613f8382612fc6565b9150613f8e83612fc6565b925082613f9e57613f9d613f49565b5b828204905092915050565b7f455243313135353a2063616c6c6572206973206e6f74206f776e6572206e6f7260008201527f20617070726f7665640000000000000000000000000000000000000000000000602082015250565b6000614005602983613475565b915061401082613fa9565b604082019050919050565b6000602082019050818103600083015261403481613ff8565b9050919050565b7f455243313135353a206163636f756e747320616e6420696473206c656e67746860008201527f206d69736d617463680000000000000000000000000000000000000000000000602082015250565b6000614097602983613475565b91506140a28261403b565b604082019050919050565b600060208201905081810360008301526140c68161408a565b9050919050565b7f455243313135353a2062617463682062616c616e636520717565727920666f7260008201527f20746865207a65726f2061646472657373000000000000000000000000000000602082015250565b6000614129603183613475565b9150614134826140cd565b604082019050919050565b600060208201905081810360008301526141588161411c565b9050919050565b600061416a82613942565b915061417583613942565b92508261418557614184613f49565b5b828206905092915050565b7f4e46543a20696e76616c69642074696d657374616d7000000000000000000000600082015250565b60006141c6601683613475565b91506141d182614190565b602082019050919050565b600060208201905081810360008301526141f5816141b9565b9050919050565b600061420782613942565b915061421283613942565b9250816fffffffffffffffffffffffffffffffff048311821515161561423b5761423a613d24565b5b828202905092915050565b600061425182613942565b915061425c83613942565b9250826fffffffffffffffffffffffffffffffff0382111561428157614280613d24565b5b828201905092915050565b600061429782612fc6565b91506142a283612fc6565b9250827fffffffffffffffffffffffffffffffffffffffffffffffffffffffffffffffff038211156142d7576142d6613d24565b5b828201905092915050565b60006142ed82613942565b91506fffffffffffffffffffffffffffffffff8214156143105761430f613d24565b5b600182019050919050565b7f455243313135353a2073657474696e6720617070726f76616c2073746174757360008201527f20666f722073656c660000000000000000000000000000000000000000000000602082015250565b6000614377602983613475565b91506143828261431b565b604082019050919050565b600060208201905081810360008301526143a68161436a565b9050919050565b7f455243313135353a2062616c616e636520717565727920666f7220746865207a60008201527f65726f2061646472657373000000000000000000000000000000000000000000602082015250565b6000614409602b83613475565b9150614414826143ad565b604082019050919050565b60006020820190508181036000830152614438816143fc565b9050919050565b600061444a82612fc6565b915061445583612fc6565b92508282101561446857614467613d24565b5b828203905092915050565b600061447e82612fc6565b915061448983612fc6565b92508261449957614498613f49565b5b828206905092915050565b60006144af82613942565b91506144ba83613942565b9250828210156144cd576144cc613d24565b5b828203905092915050565b60006060820190506144ed6000830186613581565b6144fa6020830185613581565b614507604083018461303c565b949350505050565b7f455243313135353a207472616e7366657220746f20746865207a65726f20616460008201527f6472657373000000000000000000000000000000000000000000000000000000602082015250565b600061456b602583613475565b91506145768261450f565b604082019050919050565b6000602082019050818103600083015261459a8161455e565b9050919050565b7f455243313135353a2069647320616e6420616d6f756e7473206c656e6774682060008201527f6d69736d61746368000000000000000000000000000000000000000000000000602082015250565b60006145fd602883613475565b9150614608826145a1565b604082019050919050565b6000602082019050818103600083015261462c816145f0565b9050919050565b7f455243313135353a20696e73756666696369656e742062616c616e636573206660008201527f6f72207472616e73666572000000000000000000000000000000000000000000602082015250565b600061468f602b83613475565b915061469a82614633565b604082019050919050565b600060208201905081810360008301526146be81614682565b9050919050565b600060408201905081810360008301526146df81856133bd565b905081810360208301526146f381846133bd565b90509392505050565b600081519050919050565b600082825260208201905092915050565b6000614723826146fc565b61472d8185614707565b935061473d818560208601613486565b6147468161312b565b840191505092915050565b600060a0820190506147666000830188613581565b6147736020830187613581565b818103604083015261478581866133bd565b9050818103606083015261479981856133bd565b905081810360808301526147ad8184614718565b90509695505050505050565b6000815190506147c881613092565b92915050565b6000602082840312156147e4576147e3612f5e565b5b60006147f2848285016147b9565b91505092915050565b60008160e01c9050919050565b600060033d11156148275760046000803e6148246000516147fb565b90505b90565b600060443d101561483a576148bd565b614842612f54565b60043d036004823e80513d602482011167ffffffffffffffff8211171561486a5750506148bd565b808201805167ffffffffffffffff81111561488857505050506148bd565b80602083010160043d0385018111156148a55750505050506148bd565b6148b48260200185018661316b565b82955050505050505b90565b7f455243313135353a207472616e7366657220746f206e6f6e204552433131353560008201527f526563656976657220696d706c656d656e746572000000000000000000000000602082015250565b600061491c603483613475565b9150614927826148c0565b604082019050919050565b6000602082019050818103600083015261494b8161490f565b9050919050565b7f455243313135353a204552433131353552656365697665722072656a6563746560008201527f6420746f6b656e73000000000000000000000000000000000000000000000000602082015250565b60006149ae602883613475565b91506149b982614952565b604082019050919050565b600060208201905081810360008301526149dd816149a1565b9050919050565b6000815190506149f381613b1c565b92915050565b600060208284031215614a0f57614a0e612f5e565b5b6000614a1d848285016149e4565b91505092915050565b7f5361666545524332303a204552433230206f7065726174696f6e20646964206e60008201527f6f74207375636365656400000000000000000000000000000000000000000000602082015250565b6000614a82602a83613475565b9150614a8d82614a26565b604082019050919050565b60006020820190508181036000830152614ab181614a75565b9050919050565b7f455243313135353a206d696e7420746f20746865207a65726f2061646472657360008201527f7300000000000000000000000000000000000000000000000000000000000000602082015250565b6000614b14602183613475565b9150614b1f82614ab8565b604082019050919050565b60006020820190508181036000830152614b4381614b07565b9050919050565b6000604082019050614b5f600083018561303c565b614b6c602083018461303c565b9392505050565b600060a082019050614b886000830188613581565b614b956020830187613581565b614ba2604083018661303c565b614baf606083018561303c565b8181036080830152614bc18184614718565b90509695505050505050565b7f5265656e7472616e637947756172643a207265656e7472616e742063616c6c00600082015250565b6000614c03601f83613475565b9150614c0e82614bcd565b602082019050919050565b60006020820190508181036000830152614c3281614bf6565b9050919050565b7f5061757361626c653a2070617573656400000000000000000000000000000000600082015250565b6000614c6f601083613475565b9150614c7a82614c39565b602082019050919050565b60006020820190508181036000830152614c9e81614c62565b9050919050565b7f416464726573733a20696e73756666696369656e742062616c616e636520666f60008201527f722063616c6c0000000000000000000000000000000000000000000000000000602082015250565b6000614d01602683613475565b9150614d0c82614ca5565b604082019050919050565b60006020820190508181036000830152614d3081614cf4565b9050919050565b7f416464726573733a2063616c6c20746f206e6f6e2d636f6e7472616374000000600082015250565b6000614d6d601d83613475565b9150614d7882614d37565b602082019050919050565b60006020820190508181036000830152614d9c81614d60565b9050919050565b600081905092915050565b6000614db9826146fc565b614dc38185614da3565b9350614dd3818560208601613486565b80840191505092915050565b6000614deb8284614dae565b91508190509291505056fea264697066735822122051eda994917d28f7f79362d40908bbfb769bce0fe2356dedba3b322b3f261aa564736f6c634300080b0033",
  "devdoc": {
    "kind": "dev",
    "methods": {
      "balanceOf(address,uint256)": {
        "params": {
          "account": "address to query",
          "id": "token to query"
        },
        "returns": {
          "_0": "token balance"
        }
      },
      "balanceOfBatch(address[],uint256[])": {
        "params": {
          "accounts": "addresss to query",
          "ids": "tokens to query"
        },
        "returns": {
          "_0": "token balances"
        }
      },
      "isApprovedForAll(address,address)": {
        "params": {
          "account": "address to query for approval granted",
          "operator": "address to query for approval received"
        },
        "returns": {
          "_0": "whether operator is approved to spend tokens held by account"
        }
      },
      "safeBatchTransferFrom(address,address,uint256[],uint256[],bytes)": {
        "params": {
          "amounts": "list of quantities of tokens to transfer",
          "data": "data payload",
          "from": "sender of tokens",
          "ids": "list of token IDs",
          "to": "receiver of tokens"
        }
      },
      "safeTransferFrom(address,address,uint256,uint256,bytes)": {
        "params": {
          "amount": "quantity of tokens to transfer",
          "data": "data payload",
          "from": "sender of tokens",
          "id": "token ID",
          "to": "receiver of tokens"
        }
      },
      "setApprovalForAll(address,bool)": {
        "params": {
          "operator": "address whose approval status to update",
          "status": "whether operator should be considered approved"
        }
      },
      "supportsInterface(bytes4)": {
        "params": {
          "interfaceId": "interface id"
        },
        "returns": {
          "_0": "bool whether interface is supported"
        }
      }
    },
    "version": 1
  },
  "userdoc": {
    "kind": "user",
    "methods": {
      "balanceOf(address,uint256)": {
        "notice": "query the balance of given token held by given address"
      },
      "balanceOfBatch(address[],uint256[])": {
        "notice": "query the balances of given tokens held by given addresses"
      },
      "isApprovedForAll(address,address)": {
        "notice": "query approval status of given operator with respect to given address"
      },
      "safeBatchTransferFrom(address,address,uint256[],uint256[],bytes)": {
        "notice": "transfer batch of tokens between given addresses, checking for ERC1155Receiver implementation if applicable"
      },
      "safeTransferFrom(address,address,uint256,uint256,bytes)": {
        "notice": "transfer tokens between given addresses, checking for ERC1155Receiver implementation if applicable"
      },
      "setApprovalForAll(address,bool)": {
        "notice": "grant approval to or revoke approval from given operator to spend held tokens"
      },
      "supportsInterface(bytes4)": {
        "notice": "query whether contract has registered support for given interface"
      },
      "uri(uint256)": {
        "notice": "inheritdoc IERC1155Metadata"
      }
    },
    "version": 1
  },
  "storageLayout": {
    "storage": [
      {
        "astId": 2737,
        "contract": "contracts/nft/facets/ERC1155Facet.sol:ERC1155Facet",
        "label": "s",
        "offset": 0,
        "slot": "0",
        "type": "t_struct(AppStorage)3460_storage"
      }
    ],
    "types": {
      "t_address": {
        "encoding": "inplace",
        "label": "address",
        "numberOfBytes": "20"
      },
      "t_mapping(t_uint128,t_uint256)": {
        "encoding": "mapping",
        "key": "t_uint128",
        "label": "mapping(uint128 => uint256)",
        "numberOfBytes": "32",
        "value": "t_uint256"
      },
      "t_mapping(t_uint256,t_uint256)": {
        "encoding": "mapping",
        "key": "t_uint256",
        "label": "mapping(uint256 => uint256)",
        "numberOfBytes": "32",
        "value": "t_uint256"
      },
      "t_struct(AppStorage)3460_storage": {
        "encoding": "inplace",
        "label": "struct AppStorage",
        "members": [
          {
            "astId": 3441,
            "contract": "contracts/nft/facets/ERC1155Facet.sol:ERC1155Facet",
            "label": "royalty",
            "offset": 0,
            "slot": "0",
            "type": "t_struct(RoyaltyInfo)3438_storage"
          },
          {
            "astId": 3443,
            "contract": "contracts/nft/facets/ERC1155Facet.sol:ERC1155Facet",
            "label": "earningToken",
            "offset": 0,
            "slot": "1",
            "type": "t_address"
          },
          {
            "astId": 3445,
            "contract": "contracts/nft/facets/ERC1155Facet.sol:ERC1155Facet",
            "label": "status",
            "offset": 0,
            "slot": "2",
            "type": "t_uint256"
          },
          {
            "astId": 3447,
            "contract": "contracts/nft/facets/ERC1155Facet.sol:ERC1155Facet",
            "label": "finalized",
            "offset": 0,
            "slot": "3",
            "type": "t_uint128"
          },
          {
            "astId": 3451,
            "contract": "contracts/nft/facets/ERC1155Facet.sol:ERC1155Facet",
            "label": "daily",
            "offset": 0,
            "slot": "4",
            "type": "t_mapping(t_uint128,t_uint256)"
          },
          {
            "astId": 3455,
            "contract": "contracts/nft/facets/ERC1155Facet.sol:ERC1155Facet",
            "label": "weekly",
            "offset": 0,
            "slot": "5",
            "type": "t_mapping(t_uint128,t_uint256)"
          },
          {
            "astId": 3459,
            "contract": "contracts/nft/facets/ERC1155Facet.sol:ERC1155Facet",
            "label": "supply",
            "offset": 0,
            "slot": "6",
            "type": "t_mapping(t_uint256,t_uint256)"
          }
        ],
        "numberOfBytes": "224"
      },
      "t_struct(RoyaltyInfo)3438_storage": {
        "encoding": "inplace",
        "label": "struct RoyaltyInfo",
        "members": [
          {
            "astId": 3435,
            "contract": "contracts/nft/facets/ERC1155Facet.sol:ERC1155Facet",
            "label": "recipient",
            "offset": 0,
            "slot": "0",
            "type": "t_address"
          },
          {
            "astId": 3437,
            "contract": "contracts/nft/facets/ERC1155Facet.sol:ERC1155Facet",
            "label": "bps",
            "offset": 20,
            "slot": "0",
            "type": "t_uint16"
          }
        ],
        "numberOfBytes": "32"
      },
      "t_uint128": {
        "encoding": "inplace",
        "label": "uint128",
        "numberOfBytes": "16"
      },
      "t_uint16": {
        "encoding": "inplace",
        "label": "uint16",
        "numberOfBytes": "2"
      },
      "t_uint256": {
        "encoding": "inplace",
        "label": "uint256",
        "numberOfBytes": "32"
      }
    }
  }
}