{
  "address": "0xe54916C70f75a1A0C4749e4d830999daeF13f7FD",
  "abi": [
    {
      "anonymous": false,
      "inputs": [
        {
          "indexed": true,
          "internalType": "address",
          "name": "",
          "type": "address"
        },
        {
          "indexed": false,
          "internalType": "uint256[]",
          "name": "",
          "type": "uint256[]"
        },
        {
          "indexed": false,
          "internalType": "uint256[]",
          "name": "",
          "type": "uint256[]"
        }
      ],
      "name": "Redeem",
      "type": "event"
    },
    {
      "inputs": [],
      "name": "adjustDeposit",
      "outputs": [],
      "stateMutability": "nonpayable",
      "type": "function"
    },
    {
      "inputs": [
        {
          "internalType": "address",
          "name": "account",
          "type": "address"
        },
        {
          "internalType": "uint256[]",
          "name": "ids",
          "type": "uint256[]"
        }
      ],
      "name": "balanceOfBatch",
      "outputs": [
        {
          "internalType": "uint256[]",
          "name": "",
          "type": "uint256[]"
        }
      ],
      "stateMutability": "view",
      "type": "function"
    },
    {
      "inputs": [
        {
          "internalType": "address",
          "name": "account",
          "type": "address"
        }
      ],
      "name": "getAccountInfo",
      "outputs": [
        {
          "components": [
            {
              "internalType": "uint256",
              "name": "start",
              "type": "uint256"
            },
            {
              "internalType": "uint256",
              "name": "end",
              "type": "uint256"
            },
            {
              "internalType": "uint256",
              "name": "maxBalance",
              "type": "uint256"
            }
          ],
          "internalType": "struct Account",
          "name": "",
          "type": "tuple"
        }
      ],
      "stateMutability": "view",
      "type": "function"
    },
    {
      "inputs": [
        {
          "internalType": "address",
          "name": "nft",
          "type": "address"
        },
        {
          "internalType": "address",
          "name": "payment",
          "type": "address"
        },
        {
          "internalType": "address",
          "name": "payee",
          "type": "address"
        },
        {
          "internalType": "uint256",
          "name": "tokenCost",
          "type": "uint256"
        }
      ],
      "name": "init",
      "outputs": [],
      "stateMutability": "nonpayable",
      "type": "function"
    },
    {
      "inputs": [
        {
          "internalType": "address",
          "name": "",
          "type": "address"
        },
        {
          "internalType": "address",
          "name": "from",
          "type": "address"
        },
        {
          "internalType": "uint256[]",
          "name": "ids",
          "type": "uint256[]"
        },
        {
          "internalType": "uint256[]",
          "name": "amounts",
          "type": "uint256[]"
        },
        {
          "internalType": "bytes",
          "name": "data",
          "type": "bytes"
        }
      ],
      "name": "onERC1155BatchReceived",
      "outputs": [
        {
          "internalType": "bytes4",
          "name": "",
          "type": "bytes4"
        }
      ],
      "stateMutability": "nonpayable",
      "type": "function"
    },
    {
      "inputs": [
        {
          "internalType": "address",
          "name": "",
          "type": "address"
        },
        {
          "internalType": "address",
          "name": "",
          "type": "address"
        },
        {
          "internalType": "uint256",
          "name": "",
          "type": "uint256"
        },
        {
          "internalType": "uint256",
          "name": "",
          "type": "uint256"
        },
        {
          "internalType": "bytes",
          "name": "",
          "type": "bytes"
        }
      ],
      "name": "onERC1155Received",
      "outputs": [
        {
          "internalType": "bytes4",
          "name": "",
          "type": "bytes4"
        }
      ],
      "stateMutability": "pure",
      "type": "function"
    },
    {
      "inputs": [
        {
          "internalType": "uint256",
          "name": "end",
          "type": "uint256"
        }
      ],
      "name": "payoff",
      "outputs": [],
      "stateMutability": "nonpayable",
      "type": "function"
    },
    {
      "inputs": [
        {
          "internalType": "uint256[]",
          "name": "ids",
          "type": "uint256[]"
        },
        {
          "internalType": "uint256[]",
          "name": "amounts",
          "type": "uint256[]"
        }
      ],
      "name": "redeem",
      "outputs": [],
      "stateMutability": "nonpayable",
      "type": "function"
    },
    {
      "inputs": [
        {
          "internalType": "bytes4",
          "name": "interfaceId",
          "type": "bytes4"
        }
      ],
      "name": "supportsInterface",
      "outputs": [
        {
          "internalType": "bool",
          "name": "",
          "type": "bool"
        }
      ],
      "stateMutability": "view",
      "type": "function"
    }
  ],
  "transactionHash": "0x2a074b4c6939c7d21f4db408ed08e8eb3e5ae5b995718db56751541383f32e85",
  "args": [],
  "numDeployments": 1,
  "solcInputHash": "025e39e0d63240003af6e7ed5db9df38",
  "bytecode": "0x608060405234801561001057600080fd5b5061305c806100206000396000f3fe608060405234801561001057600080fd5b50600436106100935760003560e01c80637fa084a2116100665780637fa084a214610130578063afd690861461014c578063bc197c811461017c578063c7b7f88a146101ac578063f23a6e61146101b657610093565b806301ffc9a7146100985780632ca51e22146100c857806346639dba146100e45780637b510fe814610100575b600080fd5b6100b260048036038101906100ad9190611db2565b6101e6565b6040516100bf9190611dfa565b60405180910390f35b6100e260048036038101906100dd9190611e7a565b610209565b005b6100fe60048036038101906100f99190611f8f565b610640565b005b61011a60048036038101906101159190611ff6565b61082b565b6040516101279190612074565b60405180910390f35b61014a6004803603810190610145919061208f565b6108a5565b005b610166600480360381019061016191906120bc565b610c0c565b60405161017391906121cb565b60405180910390f35b61019660048036038101906101919190612243565b610d17565b6040516101a3919061232e565b60405180910390f35b6101b4611008565b005b6101d060048036038101906101cb9190612349565b61134e565b6040516101dd919061232e565b60405180910390f35b6000610202826101f4611360565b61138d90919063ffffffff16565b9050919050565b6102116113f8565b60000160009054906101000a900460ff1615610262576040517f08c379a000000000000000000000000000000000000000000000000000000000815260040161025990612440565b60405180910390fd5b8181905084849050146102aa576040517f08c379a00000000000000000000000000000000000000000000000000000000081526004016102a1906124d2565b60405180910390fd5b600080600001549050600080600601549050600080600090505b878790508110156104d157828888838181106102e3576102e26124f2565b5b90506020020135101561032b576040517f08c379a000000000000000000000000000000000000000000000000000000000815260040161032290612593565b60405180910390fd5b85858281811061033e5761033d6124f2565b5b905060200201358461035091906125e2565b8261035b919061263c565b915060008060090160008a8a85818110610378576103776124f2565b5b90506020020135815260200190815260200160002060003373ffffffffffffffffffffffffffffffffffffffff1673ffffffffffffffffffffffffffffffffffffffff1681526020019081526020016000205490508686838181106103e0576103df6124f2565b5b905060200201358111610428576040517f08c379a000000000000000000000000000000000000000000000000000000000815260040161041f90612704565b60405180910390fd5b86868381811061043b5761043a6124f2565b5b905060200201358161044d9190612724565b600060090160008b8b86818110610467576104666124f2565b5b90506020020135815260200190815260200160002060003373ffffffffffffffffffffffffffffffffffffffff1673ffffffffffffffffffffffffffffffffffffffff168152602001908152602001600020819055505080806104c990612758565b9150506102c4565b5061054933600060040160009054906101000a900473ffffffffffffffffffffffffffffffffffffffff1683600060020160009054906101000a900473ffffffffffffffffffffffffffffffffffffffff1673ffffffffffffffffffffffffffffffffffffffff16611425909392919063ffffffff16565b3373ffffffffffffffffffffffffffffffffffffffff167fd63285f33fab7fc260b1b9e7ce1abbf3fc8906df5a271e6ebd3062bdca7bb29e888888886040516105959493929190612811565b60405180910390a2600060030160009054906101000a900473ffffffffffffffffffffffffffffffffffffffff1673ffffffffffffffffffffffffffffffffffffffff16632eb2c2d630338a8a8a8a6040518763ffffffff1660e01b815260040161060596959493929190612892565b600060405180830381600087803b15801561061f57600080fd5b505af1158015610633573d6000803e3d6000fd5b5050505050505050505050565b6106486114ae565b60000160019054906101000a900460ff16610698576040517f08c379a000000000000000000000000000000000000000000000000000000000815260040161068f9061296e565b60405180910390fd5b600084905080600060030160006101000a81548173ffffffffffffffffffffffffffffffffffffffff021916908373ffffffffffffffffffffffffffffffffffffffff1602179055508073ffffffffffffffffffffffffffffffffffffffff16637fe205c76040518163ffffffff1660e01b8152600401602060405180830381865afa15801561072c573d6000803e3d6000fd5b505050506040513d601f19601f8201168201806040525081019061075091906129a3565b600060010160006101000a81548173ffffffffffffffffffffffffffffffffffffffff021916908373ffffffffffffffffffffffffffffffffffffffff16021790555083600060020160006101000a81548173ffffffffffffffffffffffffffffffffffffffff021916908373ffffffffffffffffffffffffffffffffffffffff16021790555082600060040160006101000a81548173ffffffffffffffffffffffffffffffffffffffff021916908373ffffffffffffffffffffffffffffffffffffffff1602179055508160008001819055505050505050565b610833611d2f565b600060080160008373ffffffffffffffffffffffffffffffffffffffff1673ffffffffffffffffffffffffffffffffffffffff16815260200190815260200160002060405180606001604052908160008201548152602001600182015481526020016002820154815250509050919050565b6108ad6113f8565b60000160009054906101000a900460ff16156108fe576040517f08c379a00000000000000000000000000000000000000000000000000000000081526004016108f590612440565b60405180910390fd5b600080600061090c336114db565b90506000600601548410610955576040517f08c379a000000000000000000000000000000000000000000000000000000000815260040161094c90612a42565b60405180910390fd5b6000816000015190505b848111610acc57600080600901600083815260200190815260200160002060003373ffffffffffffffffffffffffffffffffffffffff1673ffffffffffffffffffffffffffffffffffffffff1681526020019081526020016000205490506000811115610ab8576000806007016000848152602001908152602001600020604051806060016040529081600082015481526020016001820154815260200160028201548152505090508060000151828260200151610a1d91906125e2565b610a279190612a91565b86610a32919061263c565b9550610a51828260400151610a4791906125e2565b826000015161158e565b85610a5c919061263c565b9450600080600901600085815260200190815260200160002060003373ffffffffffffffffffffffffffffffffffffffff1673ffffffffffffffffffffffffffffffffffffffff16815260200190815260200160002081905550505b508080610ac490612758565b91505061095f565b50600184610ada919061263c565b600060080160003373ffffffffffffffffffffffffffffffffffffffff1673ffffffffffffffffffffffffffffffffffffffff16815260200190815260200160002060000181905550610b9a600060040160009054906101000a900473ffffffffffffffffffffffffffffffffffffffff163384600060020160009054906101000a900473ffffffffffffffffffffffffffffffffffffffff1673ffffffffffffffffffffffffffffffffffffffff16611425909392919063ffffffff16565b8160006005016000828254610baf919061263c565b92505081905550610c063384600060010160009054906101000a900473ffffffffffffffffffffffffffffffffffffffff1673ffffffffffffffffffffffffffffffffffffffff166115c69092919063ffffffff16565b50505050565b606060008383905067ffffffffffffffff811115610c2d57610c2c612ac2565b5b604051908082528060200260200182016040528015610c5b5781602001602082028036833780820191505090505b50905060005b84849050811015610d0b5760006009016000868684818110610c8657610c856124f2565b5b90506020020135815260200190815260200160002060008773ffffffffffffffffffffffffffffffffffffffff1673ffffffffffffffffffffffffffffffffffffffff16815260200190815260200160002054828281518110610cec57610ceb6124f2565b5b6020026020010181815250508080610d0390612758565b915050610c61565b50809150509392505050565b60008060030160009054906101000a900473ffffffffffffffffffffffffffffffffffffffff1673ffffffffffffffffffffffffffffffffffffffff163373ffffffffffffffffffffffffffffffffffffffff16148015610da45750600073ffffffffffffffffffffffffffffffffffffffff168873ffffffffffffffffffffffffffffffffffffffff16145b610de3576040517f08c379a0000000000000000000000000000000000000000000000000000000008152600401610dda90612b63565b60405180910390fd5b60008383810190610df49190612bc1565b90506000610e01826114db565b9050600060405180606001604052807fffffffffffffffffffffffffffffffffffffffffffffffffffffffffffffffff8152602001600081526020016000815250905060005b8a8a9050811015610fe3576000898983818110610e6757610e666124f2565b5b90506020020135600060090160008e8e86818110610e8857610e876124f2565b5b90506020020135815260200190815260200160002060008773ffffffffffffffffffffffffffffffffffffffff1673ffffffffffffffffffffffffffffffffffffffff16815260200190815260200160002054610ee5919061263c565b905080600060090160008e8e86818110610f0257610f016124f2565b5b90506020020135815260200190815260200160002060008773ffffffffffffffffffffffffffffffffffffffff1673ffffffffffffffffffffffffffffffffffffffff16815260200190815260200160002081905550610f6681846040015161164c565b836040018181525050610f968c8c84818110610f8557610f846124f2565b5b905060200201358460000151611665565b836000018181525050610fc68c8c84818110610fb557610fb46124f2565b5b90506020020135846020015161164c565b836020018181525050508080610fdb90612758565b915050610e47565b50610fef83838361167e565b63bc197c8160e01b935050505098975050505050505050565b6110106113f8565b60000160009054906101000a900460ff1615611061576040517f08c379a000000000000000000000000000000000000000000000000000000000815260040161105890612440565b60405180910390fd5b600061106c336114db565b9050600060060154816000015110156110ba576040517f08c379a00000000000000000000000000000000000000000000000000000000081526004016110b190612c3a565b60405180910390fd5b6000816040015111611101576040517f08c379a00000000000000000000000000000000000000000000000000000000081526004016110f890612ca6565b60405180910390fd5b600060405180606001604052808360000151815260200183602001518152602001600081525090505b60008060090160008360000151815260200190815260200160002060003373ffffffffffffffffffffffffffffffffffffffff1673ffffffffffffffffffffffffffffffffffffffff1681526020019081526020016000205414801561119857508060200151816000015111155b156111bc576001816000018181516111b0919061263c565b9150818152505061112a565b5b60008060090160008360200151815260200190815260200160002060003373ffffffffffffffffffffffffffffffffffffffff1673ffffffffffffffffffffffffffffffffffffffff1681526020019081526020016000205414801561122b57508060000151816020015110155b1561124f576001816020018181516112439190612724565b915081815250506111bd565b8060200151816000015111156112ab576112a6338360405180606001604052807fffffffffffffffffffffffffffffffffffffffffffffffffffffffffffffffff81526020016000815260200160008152506118b3565b61134a565b6000816000015190505b8160200151811161133d5761132182604001516000600901600084815260200190815260200160002060003373ffffffffffffffffffffffffffffffffffffffff1673ffffffffffffffffffffffffffffffffffffffff1681526020019081526020016000205461164c565b826040018181525050808061133590612758565b9150506112b5565b506113493383836118b3565b5b5050565b60008060e01b90509695505050505050565b6000807f326d0c59a7612f6a9919e2a8ee333c80ba689d8ba2634de89c85cbb04832e70590508091505090565b6000826000016000837bffffffffffffffffffffffffffffffffffffffffffffffffffffffff19167bffffffffffffffffffffffffffffffffffffffffffffffffffffffff1916815260200190815260200160002060009054906101000a900460ff16905092915050565b6000807f68721c0bbf2c02a4d65000340d1370666be06a630022208d4baa9bd7a4b6fea890508091505090565b6114a8846323b872dd60e01b85858560405160240161144693929190612cd5565b604051602081830303815290604052907bffffffffffffffffffffffffffffffffffffffffffffffffffffffff19166020820180517bffffffffffffffffffffffffffffffffffffffffffffffffffffffff8381831617835250505050611a97565b50505050565b6000807f2ae1e818fc317b4c150084d41bf7468a28b0861c8b85a3e58e4bb4d5dbbc6aa190508091505090565b6114e3611d2f565b600060080160008373ffffffffffffffffffffffffffffffffffffffff1673ffffffffffffffffffffffffffffffffffffffff1681526020019081526020016000206040518060600160405290816000820154815260200160018201548152602001600282015481525050905080600001517fffffffffffffffffffffffffffffffffffffffffffffffffffffffffffffffff6115809190612724565b816000018181525050919050565b60008182600184866115a0919061263c565b6115aa9190612724565b6115b49190612a91565b6115be91906125e2565b905092915050565b6116478363a9059cbb60e01b84846040516024016115e5929190612d0c565b604051602081830303815290604052907bffffffffffffffffffffffffffffffffffffffffffffffffffffffff19166020820180517bffffffffffffffffffffffffffffffffffffffffffffffffffffffff8381831617835250505050611a97565b505050565b600081831161165b578161165d565b825b905092915050565b60008183106116745781611676565b825b905092915050565b8160000151816000015110156117165780600001517fffffffffffffffffffffffffffffffffffffffffffffffffffffffffffffffff6116be9190612724565b600060080160008573ffffffffffffffffffffffffffffffffffffffff1673ffffffffffffffffffffffffffffffffffffffff1681526020019081526020016000206000018190555080600001518260000181815250505b816020015181602001511115611783578060000151600060080160008573ffffffffffffffffffffffffffffffffffffffff1673ffffffffffffffffffffffffffffffffffffffff1681526020019081526020016000206000018190555080602001518260200181815250505b8160400151816040015111156118ae578060400151600060080160008573ffffffffffffffffffffffffffffffffffffffff1673ffffffffffffffffffffffffffffffffffffffff16815260200190815260200160002060020181905550806040015182604001818152505060006117f9611b5e565b8360400151836040015161180d9190612724565b61181791906125e2565b905061189033600060040160009054906101000a900473ffffffffffffffffffffffffffffffffffffffff1683600060020160009054906101000a900473ffffffffffffffffffffffffffffffffffffffff1673ffffffffffffffffffffffffffffffffffffffff16611425909392919063ffffffff16565b80600060050160008282546118a5919061263c565b92505081905550505b505050565b81600001518160000151111561193d5780600001517fffffffffffffffffffffffffffffffffffffffffffffffffffffffffffffffff6118f39190612724565b600060080160008573ffffffffffffffffffffffffffffffffffffffff1673ffffffffffffffffffffffffffffffffffffffff168152602001908152602001600020600001819055505b81602001518160200151101561199c578060200151600060080160008573ffffffffffffffffffffffffffffffffffffffff1673ffffffffffffffffffffffffffffffffffffffff168152602001908152602001600020600101819055505b816040015181604001511015611a92578060400151600060080160008573ffffffffffffffffffffffffffffffffffffffff1673ffffffffffffffffffffffffffffffffffffffff168152602001908152602001600020600201819055506000611a04611b5e565b82604001518460400151611a189190612724565b611a2291906125e2565b9050611a748482600060020160009054906101000a900473ffffffffffffffffffffffffffffffffffffffff1673ffffffffffffffffffffffffffffffffffffffff166115c69092919063ffffffff16565b8060006005016000828254611a899190612724565b92505081905550505b505050565b6000611af9826040518060400160405280602081526020017f5361666545524332303a206c6f772d6c6576656c2063616c6c206661696c65648152508573ffffffffffffffffffffffffffffffffffffffff16611b899092919063ffffffff16565b9050600081511115611b595780806020019051810190611b199190612d61565b611b58576040517f08c379a0000000000000000000000000000000000000000000000000000000008152600401611b4f90612e00565b60405180910390fd5b5b505050565b60008060040160159054906101000a900460ff1660ff166000800154611b8491906125e2565b905090565b6060611b988484600085611ba1565b90509392505050565b606082471015611be6576040517f08c379a0000000000000000000000000000000000000000000000000000000008152600401611bdd90612e92565b60405180910390fd5b611bef85611cb5565b611c2e576040517f08c379a0000000000000000000000000000000000000000000000000000000008152600401611c2590612efe565b60405180910390fd5b6000808673ffffffffffffffffffffffffffffffffffffffff168587604051611c579190612f98565b60006040518083038185875af1925050503d8060008114611c94576040519150601f19603f3d011682016040523d82523d6000602084013e611c99565b606091505b5091509150611ca9828286611cc8565b92505050949350505050565b600080823b905060008111915050919050565b60608315611cd857829050611d28565b600083511115611ceb5782518084602001fd5b816040517f08c379a0000000000000000000000000000000000000000000000000000000008152600401611d1f9190613004565b60405180910390fd5b9392505050565b60405180606001604052806000815260200160008152602001600081525090565b600080fd5b600080fd5b60007fffffffff0000000000000000000000000000000000000000000000000000000082169050919050565b611d8f81611d5a565b8114611d9a57600080fd5b50565b600081359050611dac81611d86565b92915050565b600060208284031215611dc857611dc7611d50565b5b6000611dd684828501611d9d565b91505092915050565b60008115159050919050565b611df481611ddf565b82525050565b6000602082019050611e0f6000830184611deb565b92915050565b600080fd5b600080fd5b600080fd5b60008083601f840112611e3a57611e39611e15565b5b8235905067ffffffffffffffff811115611e5757611e56611e1a565b5b602083019150836020820283011115611e7357611e72611e1f565b5b9250929050565b60008060008060408587031215611e9457611e93611d50565b5b600085013567ffffffffffffffff811115611eb257611eb1611d55565b5b611ebe87828801611e24565b9450945050602085013567ffffffffffffffff811115611ee157611ee0611d55565b5b611eed87828801611e24565b925092505092959194509250565b600073ffffffffffffffffffffffffffffffffffffffff82169050919050565b6000611f2682611efb565b9050919050565b611f3681611f1b565b8114611f4157600080fd5b50565b600081359050611f5381611f2d565b92915050565b6000819050919050565b611f6c81611f59565b8114611f7757600080fd5b50565b600081359050611f8981611f63565b92915050565b60008060008060808587031215611fa957611fa8611d50565b5b6000611fb787828801611f44565b9450506020611fc887828801611f44565b9350506040611fd987828801611f44565b9250506060611fea87828801611f7a565b91505092959194509250565b60006020828403121561200c5761200b611d50565b5b600061201a84828501611f44565b91505092915050565b61202c81611f59565b82525050565b6060820160008201516120486000850182612023565b50602082015161205b6020850182612023565b50604082015161206e6040850182612023565b50505050565b60006060820190506120896000830184612032565b92915050565b6000602082840312156120a5576120a4611d50565b5b60006120b384828501611f7a565b91505092915050565b6000806000604084860312156120d5576120d4611d50565b5b60006120e386828701611f44565b935050602084013567ffffffffffffffff81111561210457612103611d55565b5b61211086828701611e24565b92509250509250925092565b600081519050919050565b600082825260208201905092915050565b6000819050602082019050919050565b60006121548383612023565b60208301905092915050565b6000602082019050919050565b60006121788261211c565b6121828185612127565b935061218d83612138565b8060005b838110156121be5781516121a58882612148565b97506121b083612160565b925050600181019050612191565b5085935050505092915050565b600060208201905081810360008301526121e5818461216d565b905092915050565b60008083601f84011261220357612202611e15565b5b8235905067ffffffffffffffff8111156122205761221f611e1a565b5b60208301915083600182028301111561223c5761223b611e1f565b5b9250929050565b60008060008060008060008060a0898b03121561226357612262611d50565b5b60006122718b828c01611f44565b98505060206122828b828c01611f44565b975050604089013567ffffffffffffffff8111156122a3576122a2611d55565b5b6122af8b828c01611e24565b9650965050606089013567ffffffffffffffff8111156122d2576122d1611d55565b5b6122de8b828c01611e24565b9450945050608089013567ffffffffffffffff81111561230157612300611d55565b5b61230d8b828c016121ed565b92509250509295985092959890939650565b61232881611d5a565b82525050565b6000602082019050612343600083018461231f565b92915050565b60008060008060008060a0878903121561236657612365611d50565b5b600061237489828a01611f44565b965050602061238589828a01611f44565b955050604061239689828a01611f7a565b94505060606123a789828a01611f7a565b935050608087013567ffffffffffffffff8111156123c8576123c7611d55565b5b6123d489828a016121ed565b92509250509295509295509295565b600082825260208201905092915050565b7f5061757361626c653a2070617573656400000000000000000000000000000000600082015250565b600061242a6010836123e3565b9150612435826123f4565b602082019050919050565b600060208201905081810360008301526124598161241d565b9050919050565b7f44654d696e654167656e743a206172726179206c656e677468206d69736d617460008201527f6368000000000000000000000000000000000000000000000000000000000000602082015250565b60006124bc6022836123e3565b91506124c782612460565b604082019050919050565b600060208201905081810360008301526124eb816124af565b9050919050565b7f4e487b7100000000000000000000000000000000000000000000000000000000600052603260045260246000fd5b7f44654d696e654167656e743a20746f6b656e206e6f742072656465656d61626c60008201527f6500000000000000000000000000000000000000000000000000000000000000602082015250565b600061257d6021836123e3565b915061258882612521565b604082019050919050565b600060208201905081810360008301526125ac81612570565b9050919050565b7f4e487b7100000000000000000000000000000000000000000000000000000000600052601160045260246000fd5b60006125ed82611f59565b91506125f883611f59565b9250817fffffffffffffffffffffffffffffffffffffffffffffffffffffffffffffffff0483118215151615612631576126306125b3565b5b828202905092915050565b600061264782611f59565b915061265283611f59565b9250827fffffffffffffffffffffffffffffffffffffffffffffffffffffffffffffffff03821115612687576126866125b3565b5b828201905092915050565b7f44654d696e654167656e743a206e6f2073756666696369656e742062616c616e60008201527f6365000000000000000000000000000000000000000000000000000000000000602082015250565b60006126ee6022836123e3565b91506126f982612692565b604082019050919050565b6000602082019050818103600083015261271d816126e1565b9050919050565b600061272f82611f59565b915061273a83611f59565b92508282101561274d5761274c6125b3565b5b828203905092915050565b600061276382611f59565b91507fffffffffffffffffffffffffffffffffffffffffffffffffffffffffffffffff821415612796576127956125b3565b5b600182019050919050565b600080fd5b82818337600083830152505050565b60006127c18385612127565b93507f07ffffffffffffffffffffffffffffffffffffffffffffffffffffffffffffff8311156127f4576127f36127a1565b5b6020830292506128058385846127a6565b82840190509392505050565b6000604082019050818103600083015261282c8186886127b5565b905081810360208301526128418184866127b5565b905095945050505050565b61285581611f1b565b82525050565b600082825260208201905092915050565b50565b600061287c60008361285b565b91506128878261286c565b600082019050919050565b600060a0820190506128a7600083018961284c565b6128b4602083018861284c565b81810360408301526128c78186886127b5565b905081810360608301526128dc8184866127b5565b905081810360808301526128ef8161286f565b9050979650505050505050565b7f496e697469616c697a61626c653a20636f6e7472616374206973206e6f74206960008201527f6e697469616c697a696e67000000000000000000000000000000000000000000602082015250565b6000612958602b836123e3565b9150612963826128fc565b604082019050919050565b600060208201905081810360008301526129878161294b565b9050919050565b60008151905061299d81611f2d565b92915050565b6000602082840312156129b9576129b8611d50565b5b60006129c78482850161298e565b91505092915050565b7f44654d696e654167656e743a20656e64206c6172676572207468616e2062696c60008201527f6c696e6700000000000000000000000000000000000000000000000000000000602082015250565b6000612a2c6024836123e3565b9150612a37826129d0565b604082019050919050565b60006020820190508181036000830152612a5b81612a1f565b9050919050565b7f4e487b7100000000000000000000000000000000000000000000000000000000600052601260045260246000fd5b6000612a9c82611f59565b9150612aa783611f59565b925082612ab757612ab6612a62565b5b828204905092915050565b7f4e487b7100000000000000000000000000000000000000000000000000000000600052604160045260246000fd5b7f44654d696e654167656e743a206f6e6c79206d696e74656420746f6b656e732060008201527f66726f6d2044654d696e654e465420616c6c6f77656400000000000000000000602082015250565b6000612b4d6036836123e3565b9150612b5882612af1565b604082019050919050565b60006020820190508181036000830152612b7c81612b40565b9050919050565b6000612b8e82611efb565b9050919050565b612b9e81612b83565b8114612ba957600080fd5b50565b600081359050612bbb81612b95565b92915050565b600060208284031215612bd757612bd6611d50565b5b6000612be584828501612bac565b91505092915050565b7f44654d696e654167656e743a207061796f666620646562742066697273740000600082015250565b6000612c24601e836123e3565b9150612c2f82612bee565b602082019050919050565b60006020820190508181036000830152612c5381612c17565b9050919050565b7f44654d696e654167656e743a206e6f206e65656420746f2061646a7573740000600082015250565b6000612c90601e836123e3565b9150612c9b82612c5a565b602082019050919050565b60006020820190508181036000830152612cbf81612c83565b9050919050565b612ccf81611f59565b82525050565b6000606082019050612cea600083018661284c565b612cf7602083018561284c565b612d046040830184612cc6565b949350505050565b6000604082019050612d21600083018561284c565b612d2e6020830184612cc6565b9392505050565b612d3e81611ddf565b8114612d4957600080fd5b50565b600081519050612d5b81612d35565b92915050565b600060208284031215612d7757612d76611d50565b5b6000612d8584828501612d4c565b91505092915050565b7f5361666545524332303a204552433230206f7065726174696f6e20646964206e60008201527f6f74207375636365656400000000000000000000000000000000000000000000602082015250565b6000612dea602a836123e3565b9150612df582612d8e565b604082019050919050565b60006020820190508181036000830152612e1981612ddd565b9050919050565b7f416464726573733a20696e73756666696369656e742062616c616e636520666f60008201527f722063616c6c0000000000000000000000000000000000000000000000000000602082015250565b6000612e7c6026836123e3565b9150612e8782612e20565b604082019050919050565b60006020820190508181036000830152612eab81612e6f565b9050919050565b7f416464726573733a2063616c6c20746f206e6f6e2d636f6e7472616374000000600082015250565b6000612ee8601d836123e3565b9150612ef382612eb2565b602082019050919050565b60006020820190508181036000830152612f1781612edb565b9050919050565b600081519050919050565b600081905092915050565b60005b83811015612f52578082015181840152602081019050612f37565b83811115612f61576000848401525b50505050565b6000612f7282612f1e565b612f7c8185612f29565b9350612f8c818560208601612f34565b80840191505092915050565b6000612fa48284612f67565b915081905092915050565b600081519050919050565b6000601f19601f8301169050919050565b6000612fd682612faf565b612fe081856123e3565b9350612ff0818560208601612f34565b612ff981612fba565b840191505092915050565b6000602082019050818103600083015261301e8184612fcb565b90509291505056fea2646970667358221220cd5673b9004bccf366c1f65137726240e66e247019d19eb46ff393d5cc34d4f964736f6c634300080b0033",
  "devdoc": {
    "author": "Shu Dong",
    "details": "the contract also implements IERC1155Receiver to receive and lock demine nft",
    "kind": "dev",
    "methods": {
      "getAccountInfo(address)": {
        "params": {
          "account": "Address of account to query"
        }
      },
      "redeem(uint256[],uint256[])": {
        "params": {
          "amounts": "Amount of each demine nft token",
          "ids": "DeMine nft token ids to redeem"
        }
      },
      "supportsInterface(bytes4)": {
        "params": {
          "interfaceId": "interface id"
        },
        "returns": {
          "_0": "bool whether interface is supported"
        }
      }
    },
    "title": "MortgageFacet",
    "version": 1
  },
  "userdoc": {
    "kind": "user",
    "methods": {
      "adjustDeposit()": {
        "notice": "adjust deposit for msg sender and update account info         Ensure you have a valid start and end set for msg.sender         to prevent infinite loop"
      },
      "getAccountInfo(address)": {
        "notice": "get account info"
      },
      "payoff(uint256)": {
        "notice": "payoff debt from start to end. Ensure you have a         valid start set to prevent infinite loop"
      },
      "redeem(uint256[],uint256[])": {
        "notice": "Pay token cost and liquidize tokens"
      },
      "supportsInterface(bytes4)": {
        "notice": "query whether contract has registered support for given interface"
      }
    },
    "notice": "Facet contract holding functions for miners to manage mortgage.",
    "version": 1
  },
  "storageLayout": {
    "storage": [
      {
        "astId": 7751,
        "contract": "contracts/agent/facets/MortgageFacet.sol:MortgageFacet",
        "label": "s",
        "offset": 0,
        "slot": "0",
        "type": "t_struct(AppStorage)9671_storage"
      }
    ],
    "types": {
      "t_address": {
        "encoding": "inplace",
        "label": "address",
        "numberOfBytes": "20"
      },
      "t_bool": {
        "encoding": "inplace",
        "label": "bool",
        "numberOfBytes": "1"
      },
      "t_contract(IERC1155Rewardable)10912": {
        "encoding": "inplace",
        "label": "contract IERC1155Rewardable",
        "numberOfBytes": "20"
      },
      "t_contract(IERC20)483": {
        "encoding": "inplace",
        "label": "contract IERC20",
        "numberOfBytes": "20"
      },
      "t_mapping(t_address,t_mapping(t_address,t_mapping(t_uint256,t_uint256)))": {
        "encoding": "mapping",
        "key": "t_address",
        "label": "mapping(address => mapping(address => mapping(uint256 => uint256)))",
        "numberOfBytes": "32",
        "value": "t_mapping(t_address,t_mapping(t_uint256,t_uint256))"
      },
      "t_mapping(t_address,t_mapping(t_uint256,t_uint256))": {
        "encoding": "mapping",
        "key": "t_address",
        "label": "mapping(address => mapping(uint256 => uint256))",
        "numberOfBytes": "32",
        "value": "t_mapping(t_uint256,t_uint256)"
      },
      "t_mapping(t_address,t_struct(Account)9618_storage)": {
        "encoding": "mapping",
        "key": "t_address",
        "label": "mapping(address => struct Account)",
        "numberOfBytes": "32",
        "value": "t_struct(Account)9618_storage"
      },
      "t_mapping(t_address,t_uint256)": {
        "encoding": "mapping",
        "key": "t_address",
        "label": "mapping(address => uint256)",
        "numberOfBytes": "32",
        "value": "t_uint256"
      },
      "t_mapping(t_uint256,t_mapping(t_address,t_uint256))": {
        "encoding": "mapping",
        "key": "t_uint256",
        "label": "mapping(uint256 => mapping(address => uint256))",
        "numberOfBytes": "32",
        "value": "t_mapping(t_address,t_uint256)"
      },
      "t_mapping(t_uint256,t_struct(Statement)9625_storage)": {
        "encoding": "mapping",
        "key": "t_uint256",
        "label": "mapping(uint256 => struct Statement)",
        "numberOfBytes": "32",
        "value": "t_struct(Statement)9625_storage"
      },
      "t_mapping(t_uint256,t_uint256)": {
        "encoding": "mapping",
        "key": "t_uint256",
        "label": "mapping(uint256 => uint256)",
        "numberOfBytes": "32",
        "value": "t_uint256"
      },
      "t_struct(Account)9618_storage": {
        "encoding": "inplace",
        "label": "struct Account",
        "members": [
          {
            "astId": 9613,
            "contract": "contracts/agent/facets/MortgageFacet.sol:MortgageFacet",
            "label": "start",
            "offset": 0,
            "slot": "0",
            "type": "t_uint256"
          },
          {
            "astId": 9615,
            "contract": "contracts/agent/facets/MortgageFacet.sol:MortgageFacet",
            "label": "end",
            "offset": 0,
            "slot": "1",
            "type": "t_uint256"
          },
          {
            "astId": 9617,
            "contract": "contracts/agent/facets/MortgageFacet.sol:MortgageFacet",
            "label": "maxBalance",
            "offset": 0,
            "slot": "2",
            "type": "t_uint256"
          }
        ],
        "numberOfBytes": "96"
      },
      "t_struct(AppStorage)9671_storage": {
        "encoding": "inplace",
        "label": "struct AppStorage",
        "members": [
          {
            "astId": 9627,
            "contract": "contracts/agent/facets/MortgageFacet.sol:MortgageFacet",
            "label": "tokenCost",
            "offset": 0,
            "slot": "0",
            "type": "t_uint256"
          },
          {
            "astId": 9630,
            "contract": "contracts/agent/facets/MortgageFacet.sol:MortgageFacet",
            "label": "income",
            "offset": 0,
            "slot": "1",
            "type": "t_contract(IERC20)483"
          },
          {
            "astId": 9633,
            "contract": "contracts/agent/facets/MortgageFacet.sol:MortgageFacet",
            "label": "payment",
            "offset": 0,
            "slot": "2",
            "type": "t_contract(IERC20)483"
          },
          {
            "astId": 9636,
            "contract": "contracts/agent/facets/MortgageFacet.sol:MortgageFacet",
            "label": "nft",
            "offset": 0,
            "slot": "3",
            "type": "t_contract(IERC1155Rewardable)10912"
          },
          {
            "astId": 9638,
            "contract": "contracts/agent/facets/MortgageFacet.sol:MortgageFacet",
            "label": "payee",
            "offset": 0,
            "slot": "4",
            "type": "t_address"
          },
          {
            "astId": 9640,
            "contract": "contracts/agent/facets/MortgageFacet.sol:MortgageFacet",
            "label": "initialized",
            "offset": 20,
            "slot": "4",
            "type": "t_bool"
          },
          {
            "astId": 9642,
            "contract": "contracts/agent/facets/MortgageFacet.sol:MortgageFacet",
            "label": "depositMultiplier",
            "offset": 21,
            "slot": "4",
            "type": "t_uint8"
          },
          {
            "astId": 9644,
            "contract": "contracts/agent/facets/MortgageFacet.sol:MortgageFacet",
            "label": "deposit",
            "offset": 0,
            "slot": "5",
            "type": "t_uint256"
          },
          {
            "astId": 9646,
            "contract": "contracts/agent/facets/MortgageFacet.sol:MortgageFacet",
            "label": "billing",
            "offset": 0,
            "slot": "6",
            "type": "t_uint256"
          },
          {
            "astId": 9651,
            "contract": "contracts/agent/facets/MortgageFacet.sol:MortgageFacet",
            "label": "statements",
            "offset": 0,
            "slot": "7",
            "type": "t_mapping(t_uint256,t_struct(Statement)9625_storage)"
          },
          {
            "astId": 9656,
            "contract": "contracts/agent/facets/MortgageFacet.sol:MortgageFacet",
            "label": "accounts",
            "offset": 0,
            "slot": "8",
            "type": "t_mapping(t_address,t_struct(Account)9618_storage)"
          },
          {
            "astId": 9662,
            "contract": "contracts/agent/facets/MortgageFacet.sol:MortgageFacet",
            "label": "balances",
            "offset": 0,
            "slot": "9",
            "type": "t_mapping(t_uint256,t_mapping(t_address,t_uint256))"
          },
          {
            "astId": 9670,
            "contract": "contracts/agent/facets/MortgageFacet.sol:MortgageFacet",
            "label": "allowances",
            "offset": 0,
            "slot": "10",
            "type": "t_mapping(t_address,t_mapping(t_address,t_mapping(t_uint256,t_uint256)))"
          }
        ],
        "numberOfBytes": "352"
      },
      "t_struct(Statement)9625_storage": {
        "encoding": "inplace",
        "label": "struct Statement",
        "members": [
          {
            "astId": 9620,
            "contract": "contracts/agent/facets/MortgageFacet.sol:MortgageFacet",
            "label": "balance",
            "offset": 0,
            "slot": "0",
            "type": "t_uint256"
          },
          {
            "astId": 9622,
            "contract": "contracts/agent/facets/MortgageFacet.sol:MortgageFacet",
            "label": "income",
            "offset": 0,
            "slot": "1",
            "type": "t_uint256"
          },
          {
            "astId": 9624,
            "contract": "contracts/agent/facets/MortgageFacet.sol:MortgageFacet",
            "label": "debt",
            "offset": 0,
            "slot": "2",
            "type": "t_uint256"
          }
        ],
        "numberOfBytes": "96"
      },
      "t_uint256": {
        "encoding": "inplace",
        "label": "uint256",
        "numberOfBytes": "32"
      },
      "t_uint8": {
        "encoding": "inplace",
        "label": "uint8",
        "numberOfBytes": "1"
      }
    }
  }
}