{
  "address": "0x43e190dc64E33815c22AE76CF8898e9b371492CE",
  "abi": [
    {
      "anonymous": false,
      "inputs": [
        {
          "indexed": true,
          "internalType": "uint256",
          "name": "",
          "type": "uint256"
        },
        {
          "indexed": false,
          "internalType": "uint256",
          "name": "expireAt",
          "type": "uint256"
        }
      ],
      "name": "BillingSale",
      "type": "event"
    },
    {
      "anonymous": false,
      "inputs": [
        {
          "indexed": true,
          "internalType": "uint256",
          "name": "billing",
          "type": "uint256"
        }
      ],
      "name": "CloseBilling",
      "type": "event"
    },
    {
      "anonymous": false,
      "inputs": [
        {
          "indexed": true,
          "internalType": "uint256",
          "name": "",
          "type": "uint256"
        },
        {
          "indexed": true,
          "internalType": "uint256",
          "name": "",
          "type": "uint256"
        }
      ],
      "name": "LockPrice",
      "type": "event"
    },
    {
      "anonymous": false,
      "inputs": [
        {
          "indexed": true,
          "internalType": "address",
          "name": "billing",
          "type": "address"
        },
        {
          "indexed": false,
          "internalType": "uint256",
          "name": "sold",
          "type": "uint256"
        },
        {
          "indexed": false,
          "internalType": "uint256",
          "name": "paid",
          "type": "uint256"
        }
      ],
      "name": "RewardTokenSold",
      "type": "event"
    },
    {
      "anonymous": false,
      "inputs": [
        {
          "indexed": true,
          "internalType": "address",
          "name": "recipient",
          "type": "address"
        },
        {
          "indexed": false,
          "internalType": "uint256",
          "name": "amount",
          "type": "uint256"
        }
      ],
      "name": "Withdraw",
      "type": "event"
    },
    {
      "inputs": [
        {
          "internalType": "uint256",
          "name": "maxToPay",
          "type": "uint256"
        }
      ],
      "name": "buyWithLockedPrice",
      "outputs": [],
      "stateMutability": "nonpayable",
      "type": "function"
    },
    {
      "inputs": [
        {
          "internalType": "address",
          "name": "recipient",
          "type": "address"
        },
        {
          "internalType": "uint256",
          "name": "start",
          "type": "uint256"
        },
        {
          "internalType": "uint256",
          "name": "end",
          "type": "uint256"
        }
      ],
      "name": "collectResidue",
      "outputs": [],
      "stateMutability": "nonpayable",
      "type": "function"
    },
    {
      "inputs": [
        {
          "internalType": "uint256",
          "name": "token",
          "type": "uint256"
        }
      ],
      "name": "getStatement",
      "outputs": [
        {
          "components": [
            {
              "internalType": "uint256",
              "name": "balance",
              "type": "uint256"
            },
            {
              "internalType": "uint256",
              "name": "income",
              "type": "uint256"
            },
            {
              "internalType": "uint256",
              "name": "debt",
              "type": "uint256"
            }
          ],
          "internalType": "struct Statement",
          "name": "",
          "type": "tuple"
        }
      ],
      "stateMutability": "view",
      "type": "function"
    },
    {
      "inputs": [],
      "name": "lockPrice",
      "outputs": [
        {
          "internalType": "uint256",
          "name": "unitSize",
          "type": "uint256"
        },
        {
          "internalType": "uint256",
          "name": "unitPrice",
          "type": "uint256"
        }
      ],
      "stateMutability": "nonpayable",
      "type": "function"
    },
    {
      "inputs": [],
      "name": "manualCloseBilling",
      "outputs": [],
      "stateMutability": "nonpayable",
      "type": "function"
    },
    {
      "inputs": [],
      "name": "tryBilling",
      "outputs": [],
      "stateMutability": "nonpayable",
      "type": "function"
    },
    {
      "inputs": [
        {
          "internalType": "address",
          "name": "recipient",
          "type": "address"
        },
        {
          "internalType": "uint256",
          "name": "amount",
          "type": "uint256"
        }
      ],
      "name": "withdraw",
      "outputs": [],
      "stateMutability": "nonpayable",
      "type": "function"
    }
  ],
  "transactionHash": "0x31ba9f37387f46e5c96fdc111232130bc93c8b2ec07f79a07fa09a1982c606f1",
  "args": [],
  "numDeployments": 1,
  "solcInputHash": "d4094bf7bc15c68cbad2d342107209c1",
  "bytecode": "0x608060405234801561001057600080fd5b50612ee8806100206000396000f3fe608060405234801561001057600080fd5b506004361061007d5760003560e01c8063a620ec071161005b578063a620ec07146100ed578063d28cecdd146100f7578063f3fef3a314610101578063faaa877e1461011d5761007d565b806350003e69146100825780637c842810146100a15780639258d470146100bd575b600080fd5b61008a610139565b604051610098929190612785565b60405180910390f35b6100bb60048036038101906100b691906120cc565b6103b9565b005b6100d760048036038101906100d291906120cc565b6107ab565b6040516100e4919061274f565b60405180910390f35b6100f56107f9565b005b6100ff610f3e565b005b61011b60048036038101906101169190612018565b61110b565b005b61013760048036038101906101329190612054565b611246565b005b6000806000610146611413565b9050600180811115610181577f4e487b7100000000000000000000000000000000000000000000000000000000600052602160045260246000fd5b8160010160149054906101000a900460ff1660018111156101cb577f4e487b7100000000000000000000000000000000000000000000000000000000600052602160045260246000fd5b1461020b576040517f08c379a000000000000000000000000000000000000000000000000000000000815260040161020290612613565b60405180910390fd5b60008060070160008060060154815260200190815260200160002060405180606001604052908160008201548152602001600182015481526020016002820154815250509050600061025c83611440565b9050600061028e600060010160009054906101000a900473ffffffffffffffffffffffffffffffffffffffff16611631565b90506000818460200151846102a391906129e9565b6102ad9190612847565b9050836040015181116102d1576102cc846040015185602001516116c9565b6102dc565b6102db83836116c9565b5b8097508198505050604051806060016040528088815260200187815260200186600101601a9054906101000a900461ffff1661ffff164261031d91906127f1565b8152508560040160003373ffffffffffffffffffffffffffffffffffffffff1673ffffffffffffffffffffffffffffffffffffffff16815260200190815260200160002060008201518160000155602082015181600101556040820151816002015590505085877fdb9383e44e66cc8811d91a1ec82db8af408c60044293a6a08cff49c88dfd258960405160405180910390a350505050509091565b60006103c3611413565b90506001808111156103fe577f4e487b7100000000000000000000000000000000000000000000000000000000600052602160045260246000fd5b8160010160149054906101000a900460ff166001811115610448577f4e487b7100000000000000000000000000000000000000000000000000000000600052602160045260246000fd5b14610488576040517f08c379a000000000000000000000000000000000000000000000000000000000815260040161047f90612613565b60405180910390fd5b60008160040160003373ffffffffffffffffffffffffffffffffffffffff1673ffffffffffffffffffffffffffffffffffffffff168152602001908152602001600020604051806060016040529081600082015481526020016001820154815260200160028201548152505090508060400151421061053c576040517f08c379a000000000000000000000000000000000000000000000000000000000815260040161053390612673565b60405180910390fd5b60008060060154905060008060070160008381526020019081526020016000206040518060600160405290816000820154815260200160018201548152602001600282015481525050905060006105c784602001518761059c9190612847565b6105ae8460400151876020015161171a565b866000015185602001516105c29190612847565b611752565b905060008460200151826105db91906129e9565b905060008560000151836105ef91906129e9565b90508084602001516106019190612a43565b6000600701600087815260200190815260200160002060010181905550836040015182101561065c5781846040015161063a9190612a43565b600060070160008781526020019081526020016000206002018190555061068a565b6000806007016000878152602001908152602001600020600201819055506106898760006006015461177e565b5b61070133600060040160009054906101000a900473ffffffffffffffffffffffffffffffffffffffff1684600060020160009054906101000a900473ffffffffffffffffffffffffffffffffffffffff1673ffffffffffffffffffffffffffffffffffffffff16611818909392919063ffffffff16565b6107513382600060010160009054906101000a900473ffffffffffffffffffffffffffffffffffffffff1673ffffffffffffffffffffffffffffffffffffffff166118a19092919063ffffffff16565b3373ffffffffffffffffffffffffffffffffffffffff167f47f1fea3b5815b5f572137784f8bc49ca165c79598976847d9f917ad8911db388284604051610799929190612785565b60405180910390a25050505050505050565b6107b3611f26565b6000600701600083815260200190815260200160002060405180606001604052908160008201548152602001600182015481526020016002820154815250509050919050565b610801611927565b60000160009054906101000a900473ffffffffffffffffffffffffffffffffffffffff1673ffffffffffffffffffffffffffffffffffffffff163373ffffffffffffffffffffffffffffffffffffffff1614610892576040517f08c379a000000000000000000000000000000000000000000000000000000000815260040161088990612653565b60405180910390fd5b600061089c611413565b9050600060018111156108d8577f4e487b7100000000000000000000000000000000000000000000000000000000600052602160045260246000fd5b8160010160149054906101000a900460ff166001811115610922577f4e487b7100000000000000000000000000000000000000000000000000000000600052602160045260246000fd5b14610962576040517f08c379a0000000000000000000000000000000000000000000000000000000008152600401610959906126d3565b60405180910390fd5b60008060060154905060008060030160009054906101000a900473ffffffffffffffffffffffffffffffffffffffff16905060008173ffffffffffffffffffffffffffffffffffffffff1662fdd58e30856040518363ffffffff1660e01b81526004016109d09291906125a8565b60206040518083038186803b1580156109e857600080fd5b505afa1580156109fc573d6000803e3d6000fd5b505050506040513d601f19601f82011682018060405250810190610a2091906120f5565b90506000816000800154610a3491906129e9565b90506000811415610a5357610a49858561177e565b5050505050610f3c565b60008373ffffffffffffffffffffffffffffffffffffffff16633759425d6040518163ffffffff1660e01b815260040160206040518083038186803b158015610a9b57600080fd5b505afa158015610aaf573d6000803e3d6000fd5b505050506040513d601f19601f82011682018060405250810190610ad39190611fef565b905060008060010160009054906101000a900473ffffffffffffffffffffffffffffffffffffffff1673ffffffffffffffffffffffffffffffffffffffff166370a08231306040518263ffffffff1660e01b8152600401610b3491906124fe565b60206040518083038186803b158015610b4c57600080fd5b505afa158015610b60573d6000803e3d6000fd5b505050506040513d601f19601f82011682018060405250810190610b8491906120f5565b90508473ffffffffffffffffffffffffffffffffffffffff1663f242432a308489886040518563ffffffff1660e01b8152600401610bc59493929190612550565b600060405180830381600087803b158015610bdf57600080fd5b505af1158015610bf3573d6000803e3d6000fd5b50505050600081600060010160009054906101000a900473ffffffffffffffffffffffffffffffffffffffff1673ffffffffffffffffffffffffffffffffffffffff166370a08231306040518263ffffffff1660e01b8152600401610c5891906124fe565b60206040518083038186803b158015610c7057600080fd5b505afa158015610c84573d6000803e3d6000fd5b505050506040513d601f19601f82011682018060405250810190610ca891906120f5565b610cb29190612a43565b90506000811415610d4557846000600701600089815260200190815260200160002060000181905550836000600701600089815260200190815260200160002060020181905550600060070160008881526020019081526020016000206002015460006005016000828254610d279190612a43565b92505081905550610d38888861177e565b5050505050505050610f3c565b600080610dc38a60010160009054906101000a900473ffffffffffffffffffffffffffffffffffffffff16600060010160009054906101000a900473ffffffffffffffffffffffffffffffffffffffff16600060020160009054906101000a900473ffffffffffffffffffffffffffffffffffffffff16868a611954565b915091508115610e235786600060070160008b8152602001908152602001600020600001819055508083610df79190612a43565b600060070160008b815260200190815260200160002060010181905550610e1e8a8a61177e565b610f31565b604051806060016040528088815260200184815260200187815250600060070160008b815260200190815260200160002060008201518160000155602082015181600101556040820151816002015590505060008a60010160189054906101000a900461ffff1661ffff1642610e9991906127f1565b9050808b6003018190555060018b60010160146101000a81548160ff02191690836001811115610ef2577f4e487b7100000000000000000000000000000000000000000000000000000000600052602160045260246000fd5b0217905550897f31aa8189dff134dd0576f04235144fccd57510d46d9bade2f5289251219ab82982604051610f27919061276a565b60405180910390a2505b505050505050505050505b565b610f46611927565b60000160009054906101000a900473ffffffffffffffffffffffffffffffffffffffff1673ffffffffffffffffffffffffffffffffffffffff163373ffffffffffffffffffffffffffffffffffffffff1614610fd7576040517f08c379a0000000000000000000000000000000000000000000000000000000008152600401610fce90612653565b60405180910390fd5b6000610fe1611413565b905060008160010160149054906101000a900460ff169050600180811115611032577f4e487b7100000000000000000000000000000000000000000000000000000000600052602160045260246000fd5b81600181111561106b577f4e487b7100000000000000000000000000000000000000000000000000000000600052602160045260246000fd5b14801561107b5750816003015442115b6110ba576040517f08c379a00000000000000000000000000000000000000000000000000000000081526004016110b1906126f3565b60405180910390fd5b600080600601549050600060070160008060060154815260200190815260200160002060020154600060050160008282546110f59190612a43565b92505081905550611106838261177e565b505050565b611113611927565b60000160009054906101000a900473ffffffffffffffffffffffffffffffffffffffff1673ffffffffffffffffffffffffffffffffffffffff163373ffffffffffffffffffffffffffffffffffffffff16146111a4576040517f08c379a000000000000000000000000000000000000000000000000000000000815260040161119b90612653565b60405180910390fd5b6111f48282600060020160009054906101000a900473ffffffffffffffffffffffffffffffffffffffff1673ffffffffffffffffffffffffffffffffffffffff166118a19092919063ffffffff16565b8173ffffffffffffffffffffffffffffffffffffffff167f884edad9ce6fa2440d8a54cc123490eb96d2768479d49ff9c7366125a94243648260405161123a919061276a565b60405180910390a25050565b61124e611927565b60000160009054906101000a900473ffffffffffffffffffffffffffffffffffffffff1673ffffffffffffffffffffffffffffffffffffffff163373ffffffffffffffffffffffffffffffffffffffff16146112df576040517f08c379a00000000000000000000000000000000000000000000000000000000081526004016112d690612653565b60405180910390fd5b6000600601548110611326576040517f08c379a000000000000000000000000000000000000000000000000000000000815260040161131d90612713565b60405180910390fd5b6000808390505b8281116113ba576000806007016000806006015481526020019081526020016000206001015490506000806007016000806006015481526020019081526020016000206001015490508081836113839190612847565b61138d91906129e9565b826113989190612a43565b846113a391906127f1565b9350505080806113b290612b2e565b91505061132d565b5061140d308583600060010160009054906101000a900473ffffffffffffffffffffffffffffffffffffffff1673ffffffffffffffffffffffffffffffffffffffff16611818909392919063ffffffff16565b50505050565b6000807f1ae9d8d83f6f65ae1abd9acc0aca63e8c998a929dbd5efa644fcec5a336894a690508091505090565b6000808260000160009054906101000a900473ffffffffffffffffffffffffffffffffffffffff1673ffffffffffffffffffffffffffffffffffffffff1663feaf968c6040518163ffffffff1660e01b815260040160a06040518083038186803b1580156114ad57600080fd5b505afa1580156114c1573d6000803e3d6000fd5b505050506040513d601f19601f820116820180604052508101906114e5919061211e565b505050915050600081136114fd57600091505061162c565b60008360000160009054906101000a900473ffffffffffffffffffffffffffffffffffffffff1673ffffffffffffffffffffffffffffffffffffffff1663313ce5676040518163ffffffff1660e01b815260040160206040518083038186803b15801561156957600080fd5b505afa15801561157d573d6000803e3d6000fd5b505050506040513d601f19601f820116820180604052508101906115a19190612195565b600a6115ad91906128cb565b90506000816115e0600060020160009054906101000a900473ffffffffffffffffffffffffffffffffffffffff16611631565b846115eb91906129e9565b6115f59190612847565b90506127108560010160169054906101000a900461ffff1661ffff168261161c91906129e9565b6116269190612847565b93505050505b919050565b6000808273ffffffffffffffffffffffffffffffffffffffff1663313ce5676040518163ffffffff1660e01b815260040160206040518083038186803b15801561167a57600080fd5b505afa15801561168e573d6000803e3d6000fd5b505050506040513d601f19601f820116820180604052508101906116b29190612195565b905080600a6116c191906128cb565b915050919050565b600080828411156116e95760016116e0858561171a565b91509150611713565b60006116f5848661171a565b90508061170d8683876117089190612847565b61171a565b92509250505b9250929050565b600081826001848661172c91906127f1565b6117369190612a43565b6117409190612847565b61174a91906129e9565b905092915050565b600082841061176a576117658383611b4b565b611775565b6117748483611b4b565b5b90509392505050565b60018161178b91906127f1565b60006006018190555060008260010160146101000a81548160ff021916908360018111156117e2577f4e487b7100000000000000000000000000000000000000000000000000000000600052602160045260246000fd5b0217905550807f3b60a8eedd1361983e95cb96ee4a32b37bf8480d8fa8d11a909f9deee6e2e5c660405160405180910390a25050565b61189b846323b872dd60e01b85858560405160240161183993929190612519565b604051602081830303815290604052907bffffffffffffffffffffffffffffffffffffffffffffffffffffffff19166020820180517bffffffffffffffffffffffffffffffffffffffffffffffffffffffff8381831617835250505050611b64565b50505050565b6119228363a9059cbb60e01b84846040516024016118c09291906125a8565b604051602081830303815290604052907bffffffffffffffffffffffffffffffffffffffffffffffffffffffff19166020820180517bffffffffffffffffffffffffffffffffffffffffffffffffffffffff8381831617835250505050611b64565b505050565b6000807f8a22373512790c48b83a1fe2efdd2888d4a917bcdc24d0adf63e60f67168046090508091505090565b600080611962868886611c2b565b60006040518061010001604052808873ffffffffffffffffffffffffffffffffffffffff1681526020018773ffffffffffffffffffffffffffffffffffffffff168152602001610bb862ffffff1681526020013073ffffffffffffffffffffffffffffffffffffffff168152602001428152602001858152602001868152602001600073ffffffffffffffffffffffffffffffffffffffff1681525090506000808973ffffffffffffffffffffffffffffffffffffffff1683604051602401611a2b9190612733565b6040516020818303038152906040527f3ed209e4000000000000000000000000000000000000000000000000000000007bffffffffffffffffffffffffffffffffffffffffffffffffffffffff19166020820180517bffffffffffffffffffffffffffffffffffffffffffffffffffffffff8381831617835250505050604051611ab591906124e7565b6000604051808303816000865af19150503d8060008114611af2576040519150601f19603f3d011682016040523d82523d6000602084013e611af7565b606091505b5091509150611b08898b6000611c2b565b8115611b3657600081806020019051810190611b2491906120f5565b90506001819550955050505050611b41565b600080945094505050505b9550959350505050565b6000818310611b5a5781611b5c565b825b905092915050565b6000611bc6826040518060400160405280602081526020017f5361666545524332303a206c6f772d6c6576656c2063616c6c206661696c65648152508573ffffffffffffffffffffffffffffffffffffffff16611d809092919063ffffffff16565b9050600081511115611c265780806020019051810190611be691906120a3565b611c25576040517f08c379a0000000000000000000000000000000000000000000000000000000008152600401611c1c906126b3565b60405180910390fd5b5b505050565b6000808473ffffffffffffffffffffffffffffffffffffffff1663095ea7b360e01b8585604051602401611c609291906125a8565b604051602081830303815290604052907bffffffffffffffffffffffffffffffffffffffffffffffffffffffff19166020820180517bffffffffffffffffffffffffffffffffffffffffffffffffffffffff8381831617835250505050604051611cca91906124e7565b6000604051808303816000865af19150503d8060008114611d07576040519150601f19603f3d011682016040523d82523d6000602084013e611d0c565b606091505b5091509150818015611d3a5750600081511480611d39575080806020019051810190611d3891906120a3565b5b5b611d79576040517f08c379a0000000000000000000000000000000000000000000000000000000008152600401611d70906125f3565b60405180910390fd5b5050505050565b6060611d8f8484600085611d98565b90509392505050565b606082471015611ddd576040517f08c379a0000000000000000000000000000000000000000000000000000000008152600401611dd490612633565b60405180910390fd5b611de685611eac565b611e25576040517f08c379a0000000000000000000000000000000000000000000000000000000008152600401611e1c90612693565b60405180910390fd5b6000808673ffffffffffffffffffffffffffffffffffffffff168587604051611e4e91906124e7565b60006040518083038185875af1925050503d8060008114611e8b576040519150601f19603f3d011682016040523d82523d6000602084013e611e90565b606091505b5091509150611ea0828286611ebf565b92505050949350505050565b600080823b905060008111915050919050565b60608315611ecf57829050611f1f565b600083511115611ee25782518084602001fd5b816040517f08c379a0000000000000000000000000000000000000000000000000000000008152600401611f1691906125d1565b60405180910390fd5b9392505050565b60405180606001604052806000815260200160008152602001600081525090565b600081359050611f5681612e28565b92915050565b600081519050611f6b81612e28565b92915050565b600081519050611f8081612e3f565b92915050565b600081519050611f9581612e56565b92915050565b600081359050611faa81612e6d565b92915050565b600081519050611fbf81612e6d565b92915050565b600081519050611fd481612e9b565b92915050565b600081519050611fe981612e84565b92915050565b60006020828403121561200157600080fd5b600061200f84828501611f5c565b91505092915050565b6000806040838503121561202b57600080fd5b600061203985828601611f47565b925050602061204a85828601611f9b565b9150509250929050565b60008060006060848603121561206957600080fd5b600061207786828701611f47565b935050602061208886828701611f9b565b925050604061209986828701611f9b565b9150509250925092565b6000602082840312156120b557600080fd5b60006120c384828501611f71565b91505092915050565b6000602082840312156120de57600080fd5b60006120ec84828501611f9b565b91505092915050565b60006020828403121561210757600080fd5b600061211584828501611fb0565b91505092915050565b600080600080600060a0868803121561213657600080fd5b600061214488828901611fc5565b955050602061215588828901611f86565b945050604061216688828901611fb0565b935050606061217788828901611fb0565b925050608061218888828901611fc5565b9150509295509295909350565b6000602082840312156121a757600080fd5b60006121b584828501611fda565b91505092915050565b6121c781612a77565b82525050565b6121d681612a77565b82525050565b60006121e7826127ae565b6121f181856127d5565b9350612201818560208601612afb565b80840191505092915050565b6000612218826127b9565b61222281856127e0565b9350612232818560208601612afb565b61223b81612bd5565b840191505092915050565b60006122536002836127e0565b915061225e82612bf3565b602082019050919050565b6000612276601d836127e0565b915061228182612c1c565b602082019050919050565b60006122996026836127e0565b91506122a482612c45565b604082019050919050565b60006122bc601d836127e0565b91506122c782612c94565b602082019050919050565b60006122df601a836127e0565b91506122ea82612cbd565b602082019050919050565b60006123026000836127c4565b915061230d82612ce6565b600082019050919050565b6000612325601d836127e0565b915061233082612ce9565b602082019050919050565b6000612348602a836127e0565b915061235382612d12565b604082019050919050565b600061236b6020836127e0565b915061237682612d61565b602082019050919050565b600061238e6023836127e0565b915061239982612d8a565b604082019050919050565b60006123b16021836127e0565b91506123bc82612dd9565b604082019050919050565b610100820160008201516123de60008501826121be565b5060208201516123f160208501826121be565b50604082015161240460408501826124ba565b50606082015161241760608501826121be565b50608082015161242a60808501826124c9565b5060a082015161243d60a08501826124c9565b5060c082015161245060c08501826124c9565b5060e082015161246360e08501826124ab565b50505050565b60608201600082015161247f60008501826124c9565b50602082015161249260208501826124c9565b5060408201516124a560408501826124c9565b50505050565b6124b481612a9f565b82525050565b6124c381612abf565b82525050565b6124d281612ace565b82525050565b6124e181612ace565b82525050565b60006124f382846121dc565b915081905092915050565b600060208201905061251360008301846121cd565b92915050565b600060608201905061252e60008301866121cd565b61253b60208301856121cd565b61254860408301846124d8565b949350505050565b600060a08201905061256560008301876121cd565b61257260208301866121cd565b61257f60408301856124d8565b61258c60608301846124d8565b818103608083015261259d816122f5565b905095945050505050565b60006040820190506125bd60008301856121cd565b6125ca60208301846124d8565b9392505050565b600060208201905081810360008301526125eb818461220d565b905092915050565b6000602082019050818103600083015261260c81612246565b9050919050565b6000602082019050818103600083015261262c81612269565b9050919050565b6000602082019050818103600083015261264c8161228c565b9050919050565b6000602082019050818103600083015261266c816122af565b9050919050565b6000602082019050818103600083015261268c816122d2565b9050919050565b600060208201905081810360008301526126ac81612318565b9050919050565b600060208201905081810360008301526126cc8161233b565b9050919050565b600060208201905081810360008301526126ec8161235e565b9050919050565b6000602082019050818103600083015261270c81612381565b9050919050565b6000602082019050818103600083015261272c816123a4565b9050919050565b60006101008201905061274960008301846123c7565b92915050565b60006060820190506127646000830184612469565b92915050565b600060208201905061277f60008301846124d8565b92915050565b600060408201905061279a60008301856124d8565b6127a760208301846124d8565b9392505050565b600081519050919050565b600081519050919050565b600082825260208201905092915050565b600081905092915050565b600082825260208201905092915050565b60006127fc82612ace565b915061280783612ace565b9250827fffffffffffffffffffffffffffffffffffffffffffffffffffffffffffffffff0382111561283c5761283b612b77565b5b828201905092915050565b600061285282612ace565b915061285d83612ace565b92508261286d5761286c612ba6565b5b828204905092915050565b6000808291508390505b60018511156128c25780860481111561289e5761289d612b77565b5b60018516156128ad5780820291505b80810290506128bb85612be6565b9450612882565b94509492505050565b60006128d682612ace565b91506128e183612ad8565b925061290e7fffffffffffffffffffffffffffffffffffffffffffffffffffffffffffffffff8484612916565b905092915050565b60008261292657600190506129e2565b8161293457600090506129e2565b816001811461294a576002811461295457612983565b60019150506129e2565b60ff84111561296657612965612b77565b5b8360020a91508482111561297d5761297c612b77565b5b506129e2565b5060208310610133831016604e8410600b84101617156129b85782820a9050838111156129b3576129b2612b77565b5b6129e2565b6129c58484846001612878565b925090508184048111156129dc576129db612b77565b5b81810290505b9392505050565b60006129f482612ace565b91506129ff83612ace565b9250817fffffffffffffffffffffffffffffffffffffffffffffffffffffffffffffffff0483118215151615612a3857612a37612b77565b5b828202905092915050565b6000612a4e82612ace565b9150612a5983612ace565b925082821015612a6c57612a6b612b77565b5b828203905092915050565b6000612a8282612a9f565b9050919050565b60008115159050919050565b6000819050919050565b600073ffffffffffffffffffffffffffffffffffffffff82169050919050565b600062ffffff82169050919050565b6000819050919050565b600060ff82169050919050565b600069ffffffffffffffffffff82169050919050565b60005b83811015612b19578082015181840152602081019050612afe565b83811115612b28576000848401525b50505050565b6000612b3982612ace565b91507fffffffffffffffffffffffffffffffffffffffffffffffffffffffffffffffff821415612b6c57612b6b612b77565b5b600182019050919050565b7f4e487b7100000000000000000000000000000000000000000000000000000000600052601160045260246000fd5b7f4e487b7100000000000000000000000000000000000000000000000000000000600052601260045260246000fd5b6000601f19601f8301169050919050565b60008160011c9050919050565b7f5341000000000000000000000000000000000000000000000000000000000000600082015250565b7f44654d696e654167656e743a206e6f2073616c65206f6e2d676f696e67000000600082015250565b7f416464726573733a20696e73756666696369656e742062616c616e636520666f60008201527f722063616c6c0000000000000000000000000000000000000000000000000000602082015250565b7f4f776e61626c653a2073656e646572206d757374206265206f776e6572000000600082015250565b7f44654d696e654167656e743a2070726963652065787069726564000000000000600082015250565b50565b7f416464726573733a2063616c6c20746f206e6f6e2d636f6e7472616374000000600082015250565b7f5361666545524332303a204552433230206f7065726174696f6e20646964206e60008201527f6f74207375636365656400000000000000000000000000000000000000000000602082015250565b7f44654d696e654167656e743a2062696c6c696e6720696e2070726f6772657373600082015250565b7f44654d696e654167656e743a206e6f20616374696f6e2072657175697265642060008201527f7965740000000000000000000000000000000000000000000000000000000000602082015250565b7f44654d696e654167656e743a20746f6b656e206e6f742062696c6c656420796560008201527f7400000000000000000000000000000000000000000000000000000000000000602082015250565b612e3181612a77565b8114612e3c57600080fd5b50565b612e4881612a89565b8114612e5357600080fd5b50565b612e5f81612a95565b8114612e6a57600080fd5b50565b612e7681612ace565b8114612e8157600080fd5b50565b612e8d81612ad8565b8114612e9857600080fd5b50565b612ea481612ae5565b8114612eaf57600080fd5b5056fea2646970667358221220940480358c4428fea5cafd944a8b93007c5733afbbb3eb820116adb0c01ae46364736f6c63430008040033",
  "devdoc": {
    "author": "Shu Dong",
    "kind": "dev",
    "methods": {
      "buyWithLockedPrice(uint256)": {
        "params": {
          "maxToPay": "The max amount of cost to pay"
        }
      },
      "withdraw(address,uint256)": {
        "params": {
          "amount": "Amount to withdraw",
          "recipient": "Address of account to accept payment"
        }
      }
    },
    "title": "BillingFacet",
    "version": 1
  },
  "userdoc": {
    "kind": "user",
    "methods": {
      "buyWithLockedPrice(uint256)": {
        "notice": "buy income token with locked price"
      },
      "collectResidue(address,uint256,uint256)": {
        "notice": "Collect income leftover, no waste"
      },
      "lockPrice()": {
        "notice": "lock price to buy income token in income token sale"
      },
      "tryBilling()": {
        "notice": "It will try to sell income token at Uniswap to pay bill and start income token sale if it fails"
      },
      "withdraw(address,uint256)": {
        "notice": "withdraw payment from contract"
      }
    },
    "notice": "billing related functions",
    "version": 1
  },
  "storageLayout": {
    "storage": [
      {
        "astId": 5907,
        "contract": "contracts/agent/facets/BillingFacet.sol:BillingFacet",
        "label": "s",
        "offset": 0,
        "slot": "0",
        "type": "t_struct(AppStorage)8753_storage"
      }
    ],
    "types": {
      "t_address": {
        "encoding": "inplace",
        "label": "address",
        "numberOfBytes": "20"
      },
      "t_bool": {
        "encoding": "inplace",
        "label": "bool",
        "numberOfBytes": "1"
      },
      "t_contract(IERC1155Rewardable)9901": {
        "encoding": "inplace",
        "label": "contract IERC1155Rewardable",
        "numberOfBytes": "20"
      },
      "t_contract(IERC20)209": {
        "encoding": "inplace",
        "label": "contract IERC20",
        "numberOfBytes": "20"
      },
      "t_mapping(t_address,t_mapping(t_address,t_mapping(t_uint256,t_uint256)))": {
        "encoding": "mapping",
        "key": "t_address",
        "label": "mapping(address => mapping(address => mapping(uint256 => uint256)))",
        "numberOfBytes": "32",
        "value": "t_mapping(t_address,t_mapping(t_uint256,t_uint256))"
      },
      "t_mapping(t_address,t_mapping(t_uint256,t_uint256))": {
        "encoding": "mapping",
        "key": "t_address",
        "label": "mapping(address => mapping(uint256 => uint256))",
        "numberOfBytes": "32",
        "value": "t_mapping(t_uint256,t_uint256)"
      },
      "t_mapping(t_address,t_struct(Account)8700_storage)": {
        "encoding": "mapping",
        "key": "t_address",
        "label": "mapping(address => struct Account)",
        "numberOfBytes": "32",
        "value": "t_struct(Account)8700_storage"
      },
      "t_mapping(t_address,t_uint256)": {
        "encoding": "mapping",
        "key": "t_address",
        "label": "mapping(address => uint256)",
        "numberOfBytes": "32",
        "value": "t_uint256"
      },
      "t_mapping(t_uint256,t_mapping(t_address,t_uint256))": {
        "encoding": "mapping",
        "key": "t_uint256",
        "label": "mapping(uint256 => mapping(address => uint256))",
        "numberOfBytes": "32",
        "value": "t_mapping(t_address,t_uint256)"
      },
      "t_mapping(t_uint256,t_struct(Statement)8707_storage)": {
        "encoding": "mapping",
        "key": "t_uint256",
        "label": "mapping(uint256 => struct Statement)",
        "numberOfBytes": "32",
        "value": "t_struct(Statement)8707_storage"
      },
      "t_mapping(t_uint256,t_uint256)": {
        "encoding": "mapping",
        "key": "t_uint256",
        "label": "mapping(uint256 => uint256)",
        "numberOfBytes": "32",
        "value": "t_uint256"
      },
      "t_struct(Account)8700_storage": {
        "encoding": "inplace",
        "label": "struct Account",
        "members": [
          {
            "astId": 8695,
            "contract": "contracts/agent/facets/BillingFacet.sol:BillingFacet",
            "label": "start",
            "offset": 0,
            "slot": "0",
            "type": "t_uint256"
          },
          {
            "astId": 8697,
            "contract": "contracts/agent/facets/BillingFacet.sol:BillingFacet",
            "label": "end",
            "offset": 0,
            "slot": "1",
            "type": "t_uint256"
          },
          {
            "astId": 8699,
            "contract": "contracts/agent/facets/BillingFacet.sol:BillingFacet",
            "label": "maxBalance",
            "offset": 0,
            "slot": "2",
            "type": "t_uint256"
          }
        ],
        "numberOfBytes": "96"
      },
      "t_struct(AppStorage)8753_storage": {
        "encoding": "inplace",
        "label": "struct AppStorage",
        "members": [
          {
            "astId": 8709,
            "contract": "contracts/agent/facets/BillingFacet.sol:BillingFacet",
            "label": "tokenCost",
            "offset": 0,
            "slot": "0",
            "type": "t_uint256"
          },
          {
            "astId": 8712,
            "contract": "contracts/agent/facets/BillingFacet.sol:BillingFacet",
            "label": "income",
            "offset": 0,
            "slot": "1",
            "type": "t_contract(IERC20)209"
          },
          {
            "astId": 8715,
            "contract": "contracts/agent/facets/BillingFacet.sol:BillingFacet",
            "label": "payment",
            "offset": 0,
            "slot": "2",
            "type": "t_contract(IERC20)209"
          },
          {
            "astId": 8718,
            "contract": "contracts/agent/facets/BillingFacet.sol:BillingFacet",
            "label": "nft",
            "offset": 0,
            "slot": "3",
            "type": "t_contract(IERC1155Rewardable)9901"
          },
          {
            "astId": 8720,
            "contract": "contracts/agent/facets/BillingFacet.sol:BillingFacet",
            "label": "payee",
            "offset": 0,
            "slot": "4",
            "type": "t_address"
          },
          {
            "astId": 8722,
            "contract": "contracts/agent/facets/BillingFacet.sol:BillingFacet",
            "label": "initialized",
            "offset": 20,
            "slot": "4",
            "type": "t_bool"
          },
          {
            "astId": 8724,
            "contract": "contracts/agent/facets/BillingFacet.sol:BillingFacet",
            "label": "depositMultiplier",
            "offset": 21,
            "slot": "4",
            "type": "t_uint8"
          },
          {
            "astId": 8726,
            "contract": "contracts/agent/facets/BillingFacet.sol:BillingFacet",
            "label": "deposit",
            "offset": 0,
            "slot": "5",
            "type": "t_uint256"
          },
          {
            "astId": 8728,
            "contract": "contracts/agent/facets/BillingFacet.sol:BillingFacet",
            "label": "billing",
            "offset": 0,
            "slot": "6",
            "type": "t_uint256"
          },
          {
            "astId": 8733,
            "contract": "contracts/agent/facets/BillingFacet.sol:BillingFacet",
            "label": "statements",
            "offset": 0,
            "slot": "7",
            "type": "t_mapping(t_uint256,t_struct(Statement)8707_storage)"
          },
          {
            "astId": 8738,
            "contract": "contracts/agent/facets/BillingFacet.sol:BillingFacet",
            "label": "accounts",
            "offset": 0,
            "slot": "8",
            "type": "t_mapping(t_address,t_struct(Account)8700_storage)"
          },
          {
            "astId": 8744,
            "contract": "contracts/agent/facets/BillingFacet.sol:BillingFacet",
            "label": "balances",
            "offset": 0,
            "slot": "9",
            "type": "t_mapping(t_uint256,t_mapping(t_address,t_uint256))"
          },
          {
            "astId": 8752,
            "contract": "contracts/agent/facets/BillingFacet.sol:BillingFacet",
            "label": "allowances",
            "offset": 0,
            "slot": "10",
            "type": "t_mapping(t_address,t_mapping(t_address,t_mapping(t_uint256,t_uint256)))"
          }
        ],
        "numberOfBytes": "352"
      },
      "t_struct(Statement)8707_storage": {
        "encoding": "inplace",
        "label": "struct Statement",
        "members": [
          {
            "astId": 8702,
            "contract": "contracts/agent/facets/BillingFacet.sol:BillingFacet",
            "label": "balance",
            "offset": 0,
            "slot": "0",
            "type": "t_uint256"
          },
          {
            "astId": 8704,
            "contract": "contracts/agent/facets/BillingFacet.sol:BillingFacet",
            "label": "income",
            "offset": 0,
            "slot": "1",
            "type": "t_uint256"
          },
          {
            "astId": 8706,
            "contract": "contracts/agent/facets/BillingFacet.sol:BillingFacet",
            "label": "debt",
            "offset": 0,
            "slot": "2",
            "type": "t_uint256"
          }
        ],
        "numberOfBytes": "96"
      },
      "t_uint256": {
        "encoding": "inplace",
        "label": "uint256",
        "numberOfBytes": "32"
      },
      "t_uint8": {
        "encoding": "inplace",
        "label": "uint8",
        "numberOfBytes": "1"
      }
    }
  }
}