{
  "address": "0x802Ca0D70a4f81a7D16EA6f34B4b34A0C7d8e4D9",
  "abi": [
    {
      "inputs": [
        {
          "internalType": "uint256",
          "name": "value",
          "type": "uint256"
        }
      ],
      "name": "discountInfo",
      "outputs": [
        {
          "internalType": "uint256",
          "name": "",
          "type": "uint256"
        }
      ],
      "stateMutability": "view",
      "type": "function"
    },
    {
      "inputs": [
        {
          "internalType": "uint256",
          "name": "tokenId",
          "type": "uint256"
        },
        {
          "internalType": "uint256",
          "name": "debtToPay",
          "type": "uint256"
        }
      ],
      "name": "purchaseEarningTokenToPayDebt",
      "outputs": [],
      "stateMutability": "nonpayable",
      "type": "function"
    },
    {
      "inputs": [
        {
          "internalType": "address",
          "name": "chainlink",
          "type": "address"
        },
        {
          "internalType": "address",
          "name": "swapRouter",
          "type": "address"
        },
        {
          "internalType": "uint8",
          "name": "swapRouterVersion",
          "type": "uint8"
        },
        {
          "internalType": "uint16",
          "name": "discount10000Based",
          "type": "uint16"
        }
      ],
      "name": "setBillingMetadata",
      "outputs": [],
      "stateMutability": "nonpayable",
      "type": "function"
    },
    {
      "inputs": [
        {
          "internalType": "uint16",
          "name": "discount",
          "type": "uint16"
        }
      ],
      "name": "setDiscountInfo",
      "outputs": [],
      "stateMutability": "nonpayable",
      "type": "function"
    },
    {
      "inputs": [
        {
          "internalType": "uint256",
          "name": "tokenId",
          "type": "uint256"
        }
      ],
      "name": "tryBilling",
      "outputs": [],
      "stateMutability": "nonpayable",
      "type": "function"
    }
  ],
  "transactionHash": "0x1298373ba85a9a791d4712f281a2afc6d290782639f072435b34276801f3c8ab",
  "args": [],
  "numDeployments": 2,
  "solcInputHash": "7eb2b0fc510e8a394e64a23d0ea364e7",
  "bytecode": "0x608060405234801561001057600080fd5b506127a5806100206000396000f3fe608060405234801561001057600080fd5b50600436106100575760003560e01c8063034705311461005c5780632dfd341214610078578063527e29311461009457806361db524e146100b0578063f7c85adb146100e0575b600080fd5b61007660048036038101906100719190611813565b6100fc565b005b610092600480360381019061008d9190611853565b610441565b005b6100ae60048036038101906100a991906118ba565b61099a565b005b6100ca60048036038101906100c59190611853565b610a6c565b6040516100d791906118f6565b60405180910390f35b6100fa60048036038101906100f591906119a8565b610aa5565b005b610104610c5e565b60000160009054906101000a900460ff1615610155576040517f08c379a000000000000000000000000000000000000000000000000000000000815260040161014c90611a6c565b60405180910390fd5b600080600601600084815260200190815260200160002060405180606001604052908160008201548152602001600182015481526020016002820154815250509050600081602001511180156101af575060008160400151115b6101ee576040517f08c379a00000000000000000000000000000000000000000000000000000000081526004016101e590611ad8565b60405180910390fd5b806040015182111561020257806040015191505b60008060010160009054906101000a900473ffffffffffffffffffffffffffffffffffffffff1673ffffffffffffffffffffffffffffffffffffffff16637fe205c76040518163ffffffff1660e01b8152600401602060405180830381865afa158015610273573d6000803e3d6000fd5b505050506040513d601f19601f820116820180604052508101906102979190611b0d565b905060008060020160009054906101000a900473ffffffffffffffffffffffffffffffffffffffff16905060006102f5600060070160009054906101000a900473ffffffffffffffffffffffffffffffffffffffff16848488610c8b565b9050836020015181111561037057808460200151866103149190611b69565b61031e9190611bf2565b945060008060060160008881526020019081526020016000206001018190555084846040015161034e9190611c23565b60006006016000888152602001908152602001600020600201819055506103bc565b8084602001516103809190611c23565b60006006016000888152602001908152602001600020600101819055506000806006016000888152602001908152602001600020600201819055505b61040e33600060030160009054906101000a900473ffffffffffffffffffffffffffffffffffffffff16878573ffffffffffffffffffffffffffffffffffffffff16610f2e909392919063ffffffff16565b61043933828573ffffffffffffffffffffffffffffffffffffffff16610fb79092919063ffffffff16565b505050505050565b61044961103d565b60000160009054906101000a900473ffffffffffffffffffffffffffffffffffffffff1673ffffffffffffffffffffffffffffffffffffffff163373ffffffffffffffffffffffffffffffffffffffff16146104da576040517f08c379a00000000000000000000000000000000000000000000000000000000081526004016104d190611ca3565b60405180910390fd5b60008060010160009054906101000a900473ffffffffffffffffffffffffffffffffffffffff16905060008173ffffffffffffffffffffffffffffffffffffffff1662fdd58e30856040518363ffffffff1660e01b815260040161053f929190611cd2565b602060405180830381865afa15801561055c573d6000803e3d6000fd5b505050506040513d601f19601f820116820180604052508101906105809190611d10565b90506000811415610592575050610997565b60008160008001546105a49190611b69565b905060008060010160009054906101000a900473ffffffffffffffffffffffffffffffffffffffff1673ffffffffffffffffffffffffffffffffffffffff16637fe205c76040518163ffffffff1660e01b8152600401602060405180830381865afa158015610617573d6000803e3d6000fd5b505050506040513d601f19601f8201168201806040525081019061063b9190611b0d565b905060008173ffffffffffffffffffffffffffffffffffffffff166370a08231306040518263ffffffff1660e01b81526004016106789190611d3d565b602060405180830381865afa158015610695573d6000803e3d6000fd5b505050506040513d601f19601f820116820180604052508101906106b99190611d10565b90508473ffffffffffffffffffffffffffffffffffffffff1663f242432a308773ffffffffffffffffffffffffffffffffffffffff1663375b74c36040518163ffffffff1660e01b8152600401602060405180830381865afa158015610723573d6000803e3d6000fd5b505050506040513d601f19601f820116820180604052508101906107479190611b0d565b89886040518563ffffffff1660e01b81526004016107689493929190611d8f565b600060405180830381600087803b15801561078257600080fd5b505af1158015610796573d6000803e3d6000fd5b505050506000818373ffffffffffffffffffffffffffffffffffffffff166370a08231306040518263ffffffff1660e01b81526004016107d69190611d3d565b602060405180830381865afa1580156107f3573d6000803e3d6000fd5b505050506040513d601f19601f820116820180604052508101906108179190611d10565b6108219190611c23565b9050600081141561087357846000600601600089815260200190815260200160002060000181905550836000600601600089815260200190815260200160002060020181905550505050505050610997565b6000806108cd600060080160009054906101000a900473ffffffffffffffffffffffffffffffffffffffff1686600060020160009054906101000a900473ffffffffffffffffffffffffffffffffffffffff16868a61106a565b91509150858114156109255786600060060160008b81526020019081526020016000206000018190555081836109039190611c23565b600060060160008b81526020019081526020016000206001018190555061098e565b604051806060016040528088815260200183856109429190611c23565b815260200182886109539190611c23565b815250600060060160008b81526020019081526020016000206000820151816000015560208201518160010155604082015181600201559050505b50505050505050505b50565b6109a261103d565b60000160009054906101000a900473ffffffffffffffffffffffffffffffffffffffff1673ffffffffffffffffffffffffffffffffffffffff163373ffffffffffffffffffffffffffffffffffffffff1614610a33576040517f08c379a0000000000000000000000000000000000000000000000000000000008152600401610a2a90611ca3565b60405180910390fd5b6127108161ffff1611610a465780610a4a565b6127105b600060080160156101000a81548161ffff021916908361ffff16021790555050565b6000612710600060080160159054906101000a900461ffff1661ffff1683610a949190611b69565b610a9e9190611bf2565b9050919050565b610aad61103d565b60000160009054906101000a900473ffffffffffffffffffffffffffffffffffffffff1673ffffffffffffffffffffffffffffffffffffffff163373ffffffffffffffffffffffffffffffffffffffff1614610b3e576040517f08c379a0000000000000000000000000000000000000000000000000000000008152600401610b3590611ca3565b60405180910390fd5b83600060070160006101000a81548173ffffffffffffffffffffffffffffffffffffffff021916908373ffffffffffffffffffffffffffffffffffffffff16021790555082600060080160006101000a81548173ffffffffffffffffffffffffffffffffffffffff021916908373ffffffffffffffffffffffffffffffffffffffff16021790555060028260ff161480610bdb575060038260ff16145b610c1a576040517f08c379a0000000000000000000000000000000000000000000000000000000008152600401610c1190611e59565b60405180910390fd5b81600060080160146101000a81548160ff021916908360ff16021790555080600060080160156101000a81548161ffff021916908361ffff16021790555050505050565b6000807f68721c0bbf2c02a4d65000340d1370666be06a630022208d4baa9bd7a4b6fea890508091505090565b6000808573ffffffffffffffffffffffffffffffffffffffff1663feaf968c6040518163ffffffff1660e01b815260040160a060405180830381865afa158015610cd9573d6000803e3d6000fd5b505050506040513d601f19601f82011682018060405250810190610cfd9190611ef1565b50505091505060008113610d15576000915050610f26565b6000610d2082610a6c565b905060008673ffffffffffffffffffffffffffffffffffffffff1663313ce5676040518163ffffffff1660e01b8152600401602060405180830381865afa158015610d6f573d6000803e3d6000fd5b505050506040513d601f19601f82011682018060405250810190610d939190611f81565b905060008673ffffffffffffffffffffffffffffffffffffffff1663313ce5676040518163ffffffff1660e01b8152600401602060405180830381865afa158015610de2573d6000803e3d6000fd5b505050506040513d601f19601f82011682018060405250810190610e069190611f81565b905060008973ffffffffffffffffffffffffffffffffffffffff1663313ce5676040518163ffffffff1660e01b8152600401602060405180830381865afa158015610e55573d6000803e3d6000fd5b505050506040513d601f19601f82011682018060405250810190610e799190611f81565b90508160ff168184610e8b9190611fae565b60ff161115610edf576000828285610ea39190611fae565b610ead9190611fe5565b600a610eb9919061214c565b9050848189610ec89190611b69565b610ed29190611bf2565b9650505050505050610f26565b6000818484610eee9190611fe5565b610ef89190611fe5565b600a610f04919061214c565b90508085610f129190611b69565b88610f1d9190611bf2565b96505050505050505b949350505050565b610fb1846323b872dd60e01b858585604051602401610f4f93929190612197565b604051602081830303815290604052907bffffffffffffffffffffffffffffffffffffffffffffffffffffffff19166020820180517bffffffffffffffffffffffffffffffffffffffffffffffffffffffff8381831617835250505050611416565b50505050565b6110388363a9059cbb60e01b8484604051602401610fd6929190611cd2565b604051602081830303815290604052907bffffffffffffffffffffffffffffffffffffffffffffffffffffffff19166020820180517bffffffffffffffffffffffffffffffffffffffffffffffffffffffff8381831617835250505050611416565b505050565b6000807f8a22373512790c48b83a1fe2efdd2888d4a917bcdc24d0adf63e60f67168046090508091505090565b6000806110788688866114dd565b60008060080160149054906101000a900460ff16905060028160ff161415611234576000808973ffffffffffffffffffffffffffffffffffffffff16868860405180604001604052808d73ffffffffffffffffffffffffffffffffffffffff1673ffffffffffffffffffffffffffffffffffffffff1681526020018c73ffffffffffffffffffffffffffffffffffffffff1673ffffffffffffffffffffffffffffffffffffffff168152503042604051602401611139959493929190612279565b6040516020818303038152906040527f2209866b000000000000000000000000000000000000000000000000000000007bffffffffffffffffffffffffffffffffffffffffffffffffffffffff19166020820180517bffffffffffffffffffffffffffffffffffffffffffffffffffffffff83818316178352505050506040516111c39190612346565b6000604051808303816000865af19150503d8060008114611200576040519150601f19603f3d011682016040523d82523d6000602084013e611205565b606091505b5091509150811561122d5780806020019051810190611224919061235d565b80955081965050505b50506113ff565b60038160ff1614156113fe5760006040518061010001604052808973ffffffffffffffffffffffffffffffffffffffff1681526020018873ffffffffffffffffffffffffffffffffffffffff168152602001610bb862ffffff1681526020013073ffffffffffffffffffffffffffffffffffffffff168152602001428152602001868152602001878152602001600073ffffffffffffffffffffffffffffffffffffffff1681525090506000808a73ffffffffffffffffffffffffffffffffffffffff1683604051602401611309919061247b565b6040516020818303038152906040527f3ed209e4000000000000000000000000000000000000000000000000000000007bffffffffffffffffffffffffffffffffffffffffffffffffffffffff19166020820180517bffffffffffffffffffffffffffffffffffffffffffffffffffffffff83818316178352505050506040516113939190612346565b6000604051808303816000865af19150503d80600081146113d0576040519150601f19603f3d011682016040523d82523d6000602084013e6113d5565b606091505b509150915081156113fa57808060200190518101906113f49190611d10565b95508694505b5050505b5b61140b878960006114dd565b509550959350505050565b6000611478826040518060400160405280602081526020017f5361666545524332303a206c6f772d6c6576656c2063616c6c206661696c65648152508573ffffffffffffffffffffffffffffffffffffffff166116329092919063ffffffff16565b90506000815111156114d8578080602001905181019061149891906124cf565b6114d7576040517f08c379a00000000000000000000000000000000000000000000000000000000081526004016114ce9061256e565b60405180910390fd5b5b505050565b6000808473ffffffffffffffffffffffffffffffffffffffff1663095ea7b360e01b8585604051602401611512929190611cd2565b604051602081830303815290604052907bffffffffffffffffffffffffffffffffffffffffffffffffffffffff19166020820180517bffffffffffffffffffffffffffffffffffffffffffffffffffffffff838183161783525050505060405161157c9190612346565b6000604051808303816000865af19150503d80600081146115b9576040519150601f19603f3d011682016040523d82523d6000602084013e6115be565b606091505b50915091508180156115ec57506000815114806115eb5750808060200190518101906115ea91906124cf565b5b5b61162b576040517f08c379a0000000000000000000000000000000000000000000000000000000008152600401611622906125da565b60405180910390fd5b5050505050565b6060611641848460008561164a565b90509392505050565b60608247101561168f576040517f08c379a00000000000000000000000000000000000000000000000000000000081526004016116869061266c565b60405180910390fd5b6116988561175e565b6116d7576040517f08c379a00000000000000000000000000000000000000000000000000000000081526004016116ce906126d8565b60405180910390fd5b6000808673ffffffffffffffffffffffffffffffffffffffff1685876040516117009190612346565b60006040518083038185875af1925050503d806000811461173d576040519150601f19603f3d011682016040523d82523d6000602084013e611742565b606091505b5091509150611752828286611771565b92505050949350505050565b600080823b905060008111915050919050565b60608315611781578290506117d1565b6000835111156117945782518084602001fd5b816040517f08c379a00000000000000000000000000000000000000000000000000000000081526004016117c8919061274d565b60405180910390fd5b9392505050565b600080fd5b6000819050919050565b6117f0816117dd565b81146117fb57600080fd5b50565b60008135905061180d816117e7565b92915050565b6000806040838503121561182a576118296117d8565b5b6000611838858286016117fe565b9250506020611849858286016117fe565b9150509250929050565b600060208284031215611869576118686117d8565b5b6000611877848285016117fe565b91505092915050565b600061ffff82169050919050565b61189781611880565b81146118a257600080fd5b50565b6000813590506118b48161188e565b92915050565b6000602082840312156118d0576118cf6117d8565b5b60006118de848285016118a5565b91505092915050565b6118f0816117dd565b82525050565b600060208201905061190b60008301846118e7565b92915050565b600073ffffffffffffffffffffffffffffffffffffffff82169050919050565b600061193c82611911565b9050919050565b61194c81611931565b811461195757600080fd5b50565b60008135905061196981611943565b92915050565b600060ff82169050919050565b6119858161196f565b811461199057600080fd5b50565b6000813590506119a28161197c565b92915050565b600080600080608085870312156119c2576119c16117d8565b5b60006119d08782880161195a565b94505060206119e18782880161195a565b93505060406119f287828801611993565b9250506060611a03878288016118a5565b91505092959194509250565b600082825260208201905092915050565b7f5061757361626c653a2070617573656400000000000000000000000000000000600082015250565b6000611a56601083611a0f565b9150611a6182611a20565b602082019050919050565b60006020820190508181036000830152611a8581611a49565b9050919050565b7f4d696e696e67334167656e743a206e6f2064656274206f72206561726e696e67600082015250565b6000611ac2602083611a0f565b9150611acd82611a8c565b602082019050919050565b60006020820190508181036000830152611af181611ab5565b9050919050565b600081519050611b0781611943565b92915050565b600060208284031215611b2357611b226117d8565b5b6000611b3184828501611af8565b91505092915050565b7f4e487b7100000000000000000000000000000000000000000000000000000000600052601160045260246000fd5b6000611b74826117dd565b9150611b7f836117dd565b9250817fffffffffffffffffffffffffffffffffffffffffffffffffffffffffffffffff0483118215151615611bb857611bb7611b3a565b5b828202905092915050565b7f4e487b7100000000000000000000000000000000000000000000000000000000600052601260045260246000fd5b6000611bfd826117dd565b9150611c08836117dd565b925082611c1857611c17611bc3565b5b828204905092915050565b6000611c2e826117dd565b9150611c39836117dd565b925082821015611c4c57611c4b611b3a565b5b828203905092915050565b7f4f776e61626c653a2073656e646572206d757374206265206f776e6572000000600082015250565b6000611c8d601d83611a0f565b9150611c9882611c57565b602082019050919050565b60006020820190508181036000830152611cbc81611c80565b9050919050565b611ccc81611931565b82525050565b6000604082019050611ce76000830185611cc3565b611cf460208301846118e7565b9392505050565b600081519050611d0a816117e7565b92915050565b600060208284031215611d2657611d256117d8565b5b6000611d3484828501611cfb565b91505092915050565b6000602082019050611d526000830184611cc3565b92915050565b600082825260208201905092915050565b50565b6000611d79600083611d58565b9150611d8482611d69565b600082019050919050565b600060a082019050611da46000830187611cc3565b611db16020830186611cc3565b611dbe60408301856118e7565b611dcb60608301846118e7565b8181036080830152611ddc81611d6c565b905095945050505050565b7f4d696e696e67334167656e743a207377617020726f757465722076657273696f60008201527f6e206e6f7420737570706f727465640000000000000000000000000000000000602082015250565b6000611e43602f83611a0f565b9150611e4e82611de7565b604082019050919050565b60006020820190508181036000830152611e7281611e36565b9050919050565b600069ffffffffffffffffffff82169050919050565b611e9881611e79565b8114611ea357600080fd5b50565b600081519050611eb581611e8f565b92915050565b6000819050919050565b611ece81611ebb565b8114611ed957600080fd5b50565b600081519050611eeb81611ec5565b92915050565b600080600080600060a08688031215611f0d57611f0c6117d8565b5b6000611f1b88828901611ea6565b9550506020611f2c88828901611edc565b9450506040611f3d88828901611cfb565b9350506060611f4e88828901611cfb565b9250506080611f5f88828901611ea6565b9150509295509295909350565b600081519050611f7b8161197c565b92915050565b600060208284031215611f9757611f966117d8565b5b6000611fa584828501611f6c565b91505092915050565b6000611fb98261196f565b9150611fc48361196f565b92508260ff03821115611fda57611fd9611b3a565b5b828201905092915050565b6000611ff08261196f565b9150611ffb8361196f565b92508282101561200e5761200d611b3a565b5b828203905092915050565b60008160011c9050919050565b6000808291508390505b60018511156120705780860481111561204c5761204b611b3a565b5b600185161561205b5780820291505b808102905061206985612019565b9450612030565b94509492505050565b6000826120895760019050612145565b816120975760009050612145565b81600181146120ad57600281146120b7576120e6565b6001915050612145565b60ff8411156120c9576120c8611b3a565b5b8360020a9150848211156120e0576120df611b3a565b5b50612145565b5060208310610133831016604e8410600b841016171561211b5782820a90508381111561211657612115611b3a565b5b612145565b6121288484846001612026565b9250905081840481111561213f5761213e611b3a565b5b81810290505b9392505050565b6000612157826117dd565b91506121628361196f565b925061218f7fffffffffffffffffffffffffffffffffffffffffffffffffffffffffffffffff8484612079565b905092915050565b60006060820190506121ac6000830186611cc3565b6121b96020830185611cc3565b6121c660408301846118e7565b949350505050565b600060029050919050565b600081905092915050565b6000819050919050565b6121f781611931565b82525050565b600061220983836121ee565b60208301905092915050565b6000602082019050919050565b61222b816121ce565b61223581846121d9565b9250612240826121e4565b8060005b8381101561227157815161225887826121fd565b965061226383612215565b925050600181019050612244565b505050505050565b600060c08201905061228e60008301886118e7565b61229b60208301876118e7565b6122a86040830186612222565b6122b56080830185611cc3565b6122c260a08301846118e7565b9695505050505050565b600081519050919050565b600081905092915050565b60005b838110156123005780820151818401526020810190506122e5565b8381111561230f576000848401525b50505050565b6000612320826122cc565b61232a81856122d7565b935061233a8185602086016122e2565b80840191505092915050565b60006123528284612315565b915081905092915050565b60008060408385031215612374576123736117d8565b5b600061238285828601611cfb565b925050602061239385828601611cfb565b9150509250929050565b600062ffffff82169050919050565b6123b58161239d565b82525050565b6123c4816117dd565b82525050565b6123d381611911565b82525050565b610100820160008201516123f060008501826121ee565b50602082015161240360208501826121ee565b50604082015161241660408501826123ac565b50606082015161242960608501826121ee565b50608082015161243c60808501826123bb565b5060a082015161244f60a08501826123bb565b5060c082015161246260c08501826123bb565b5060e082015161247560e08501826123ca565b50505050565b60006101008201905061249160008301846123d9565b92915050565b60008115159050919050565b6124ac81612497565b81146124b757600080fd5b50565b6000815190506124c9816124a3565b92915050565b6000602082840312156124e5576124e46117d8565b5b60006124f3848285016124ba565b91505092915050565b7f5361666545524332303a204552433230206f7065726174696f6e20646964206e60008201527f6f74207375636365656400000000000000000000000000000000000000000000602082015250565b6000612558602a83611a0f565b9150612563826124fc565b604082019050919050565b600060208201905081810360008301526125878161254b565b9050919050565b7f5341000000000000000000000000000000000000000000000000000000000000600082015250565b60006125c4600283611a0f565b91506125cf8261258e565b602082019050919050565b600060208201905081810360008301526125f3816125b7565b9050919050565b7f416464726573733a20696e73756666696369656e742062616c616e636520666f60008201527f722063616c6c0000000000000000000000000000000000000000000000000000602082015250565b6000612656602683611a0f565b9150612661826125fa565b604082019050919050565b6000602082019050818103600083015261268581612649565b9050919050565b7f416464726573733a2063616c6c20746f206e6f6e2d636f6e7472616374000000600082015250565b60006126c2601d83611a0f565b91506126cd8261268c565b602082019050919050565b600060208201905081810360008301526126f1816126b5565b9050919050565b600081519050919050565b6000601f19601f8301169050919050565b600061271f826126f8565b6127298185611a0f565b93506127398185602086016122e2565b61274281612703565b840191505092915050565b600060208201905081810360008301526127678184612714565b90509291505056fea264697066735822122062308ee9572cc73afd7da5530fcf41058c850d1a176f18f28d51ba6f0cde0a0b64736f6c634300080b0033",
  "devdoc": {
    "author": "Shu Dong",
    "kind": "dev",
    "methods": {
      "purchaseEarningTokenToPayDebt(uint256,uint256)": {
        "params": {
          "debtToPay": "Amount of debt to pay",
          "tokenId": "token id to get statement"
        }
      }
    },
    "title": "BillingFacet",
    "version": 1
  },
  "userdoc": {
    "kind": "user",
    "methods": {
      "purchaseEarningTokenToPayDebt(uint256,uint256)": {
        "notice": "purchase on sale earning token to pay debt for token owner"
      },
      "tryBilling(uint256)": {
        "notice": "It will try to sell earning token at Uniswap to pay bill and start earning token sale if it fails"
      }
    },
    "notice": "billing related functions",
    "version": 1
  },
  "storageLayout": {
    "storage": [
      {
        "astId": 3735,
        "contract": "contracts/agent/facets/BillingFacet.sol:BillingFacet",
        "label": "s",
        "offset": 0,
        "slot": "0",
        "type": "t_struct(AppStorage)3732_storage"
      }
    ],
    "types": {
      "t_address": {
        "encoding": "inplace",
        "label": "address",
        "numberOfBytes": "20"
      },
      "t_contract(IERC1155Rewardable)3971": {
        "encoding": "inplace",
        "label": "contract IERC1155Rewardable",
        "numberOfBytes": "20"
      },
      "t_mapping(t_address,t_mapping(t_uint8,t_address))": {
        "encoding": "mapping",
        "key": "t_address",
        "label": "mapping(address => mapping(uint8 => address))",
        "numberOfBytes": "32",
        "value": "t_mapping(t_uint8,t_address)"
      },
      "t_mapping(t_address,t_uint256)": {
        "encoding": "mapping",
        "key": "t_address",
        "label": "mapping(address => uint256)",
        "numberOfBytes": "32",
        "value": "t_uint256"
      },
      "t_mapping(t_address,t_uint8)": {
        "encoding": "mapping",
        "key": "t_address",
        "label": "mapping(address => uint8)",
        "numberOfBytes": "32",
        "value": "t_uint8"
      },
      "t_mapping(t_uint256,t_mapping(t_address,t_uint256))": {
        "encoding": "mapping",
        "key": "t_uint256",
        "label": "mapping(uint256 => mapping(address => uint256))",
        "numberOfBytes": "32",
        "value": "t_mapping(t_address,t_uint256)"
      },
      "t_mapping(t_uint256,t_struct(BillingStatement)3689_storage)": {
        "encoding": "mapping",
        "key": "t_uint256",
        "label": "mapping(uint256 => struct BillingStatement)",
        "numberOfBytes": "32",
        "value": "t_struct(BillingStatement)3689_storage"
      },
      "t_mapping(t_uint8,t_address)": {
        "encoding": "mapping",
        "key": "t_uint8",
        "label": "mapping(uint8 => address)",
        "numberOfBytes": "32",
        "value": "t_address"
      },
      "t_struct(AppStorage)3732_storage": {
        "encoding": "inplace",
        "label": "struct AppStorage",
        "members": [
          {
            "astId": 3691,
            "contract": "contracts/agent/facets/BillingFacet.sol:BillingFacet",
            "label": "tokenCost",
            "offset": 0,
            "slot": "0",
            "type": "t_uint256"
          },
          {
            "astId": 3694,
            "contract": "contracts/agent/facets/BillingFacet.sol:BillingFacet",
            "label": "nft",
            "offset": 0,
            "slot": "1",
            "type": "t_contract(IERC1155Rewardable)3971"
          },
          {
            "astId": 3696,
            "contract": "contracts/agent/facets/BillingFacet.sol:BillingFacet",
            "label": "paymentToken",
            "offset": 0,
            "slot": "2",
            "type": "t_address"
          },
          {
            "astId": 3698,
            "contract": "contracts/agent/facets/BillingFacet.sol:BillingFacet",
            "label": "custodian",
            "offset": 0,
            "slot": "3",
            "type": "t_address"
          },
          {
            "astId": 3700,
            "contract": "contracts/agent/facets/BillingFacet.sol:BillingFacet",
            "label": "royaltyBps",
            "offset": 20,
            "slot": "3",
            "type": "t_uint16"
          },
          {
            "astId": 3702,
            "contract": "contracts/agent/facets/BillingFacet.sol:BillingFacet",
            "label": "royaltyCap",
            "offset": 0,
            "slot": "4",
            "type": "t_uint256"
          },
          {
            "astId": 3708,
            "contract": "contracts/agent/facets/BillingFacet.sol:BillingFacet",
            "label": "balances",
            "offset": 0,
            "slot": "5",
            "type": "t_mapping(t_uint256,t_mapping(t_address,t_uint256))"
          },
          {
            "astId": 3713,
            "contract": "contracts/agent/facets/BillingFacet.sol:BillingFacet",
            "label": "statements",
            "offset": 0,
            "slot": "6",
            "type": "t_mapping(t_uint256,t_struct(BillingStatement)3689_storage)"
          },
          {
            "astId": 3715,
            "contract": "contracts/agent/facets/BillingFacet.sol:BillingFacet",
            "label": "chainlink",
            "offset": 0,
            "slot": "7",
            "type": "t_address"
          },
          {
            "astId": 3717,
            "contract": "contracts/agent/facets/BillingFacet.sol:BillingFacet",
            "label": "swapRouter",
            "offset": 0,
            "slot": "8",
            "type": "t_address"
          },
          {
            "astId": 3719,
            "contract": "contracts/agent/facets/BillingFacet.sol:BillingFacet",
            "label": "swapRouterVersion",
            "offset": 20,
            "slot": "8",
            "type": "t_uint8"
          },
          {
            "astId": 3721,
            "contract": "contracts/agent/facets/BillingFacet.sol:BillingFacet",
            "label": "earningTokenSaleDiscount10000Based",
            "offset": 21,
            "slot": "8",
            "type": "t_uint16"
          },
          {
            "astId": 3725,
            "contract": "contracts/agent/facets/BillingFacet.sol:BillingFacet",
            "label": "strategyRegistry",
            "offset": 0,
            "slot": "9",
            "type": "t_mapping(t_address,t_uint8)"
          },
          {
            "astId": 3731,
            "contract": "contracts/agent/facets/BillingFacet.sol:BillingFacet",
            "label": "strategies",
            "offset": 0,
            "slot": "10",
            "type": "t_mapping(t_address,t_mapping(t_uint8,t_address))"
          }
        ],
        "numberOfBytes": "352"
      },
      "t_struct(BillingStatement)3689_storage": {
        "encoding": "inplace",
        "label": "struct BillingStatement",
        "members": [
          {
            "astId": 3684,
            "contract": "contracts/agent/facets/BillingFacet.sol:BillingFacet",
            "label": "balance",
            "offset": 0,
            "slot": "0",
            "type": "t_uint256"
          },
          {
            "astId": 3686,
            "contract": "contracts/agent/facets/BillingFacet.sol:BillingFacet",
            "label": "surplus",
            "offset": 0,
            "slot": "1",
            "type": "t_uint256"
          },
          {
            "astId": 3688,
            "contract": "contracts/agent/facets/BillingFacet.sol:BillingFacet",
            "label": "debt",
            "offset": 0,
            "slot": "2",
            "type": "t_uint256"
          }
        ],
        "numberOfBytes": "96"
      },
      "t_uint16": {
        "encoding": "inplace",
        "label": "uint16",
        "numberOfBytes": "2"
      },
      "t_uint256": {
        "encoding": "inplace",
        "label": "uint256",
        "numberOfBytes": "32"
      },
      "t_uint8": {
        "encoding": "inplace",
        "label": "uint8",
        "numberOfBytes": "1"
      }
    }
  }
}