{
  "address": "0xB9942aFE15a45900FEc923bB991Bb88dE9BDA306",
  "abi": [
    {
      "anonymous": false,
      "inputs": [
        {
          "indexed": true,
          "internalType": "address",
          "name": "from",
          "type": "address"
        },
        {
          "indexed": true,
          "internalType": "address",
          "name": "cloned",
          "type": "address"
        }
      ],
      "name": "Clone",
      "type": "event"
    },
    {
      "anonymous": false,
      "inputs": [
        {
          "components": [
            {
              "internalType": "address",
              "name": "target",
              "type": "address"
            },
            {
              "internalType": "enum IDiamondCuttable.FacetCutAction",
              "name": "action",
              "type": "uint8"
            },
            {
              "internalType": "bytes4[]",
              "name": "selectors",
              "type": "bytes4[]"
            }
          ],
          "indexed": false,
          "internalType": "struct IDiamondCuttable.FacetCut[]",
          "name": "facetCuts",
          "type": "tuple[]"
        },
        {
          "indexed": false,
          "internalType": "address",
          "name": "target",
          "type": "address"
        },
        {
          "indexed": false,
          "internalType": "bytes",
          "name": "data",
          "type": "bytes"
        }
      ],
      "name": "DiamondCut",
      "type": "event"
    },
    {
      "anonymous": false,
      "inputs": [
        {
          "indexed": true,
          "internalType": "address",
          "name": "previousOwner",
          "type": "address"
        },
        {
          "indexed": true,
          "internalType": "address",
          "name": "newOwner",
          "type": "address"
        }
      ],
      "name": "OwnershipTransferred",
      "type": "event"
    },
    {
      "anonymous": false,
      "inputs": [
        {
          "indexed": false,
          "internalType": "address",
          "name": "account",
          "type": "address"
        }
      ],
      "name": "Paused",
      "type": "event"
    },
    {
      "anonymous": false,
      "inputs": [
        {
          "indexed": false,
          "internalType": "address",
          "name": "account",
          "type": "address"
        }
      ],
      "name": "Unpaused",
      "type": "event"
    },
    {
      "stateMutability": "payable",
      "type": "fallback"
    },
    {
      "inputs": [],
      "name": "acceptOwnership",
      "outputs": [],
      "stateMutability": "nonpayable",
      "type": "function"
    },
    {
      "inputs": [
        {
          "components": [
            {
              "internalType": "address",
              "name": "owner",
              "type": "address"
            },
            {
              "internalType": "bytes4[]",
              "name": "selectors",
              "type": "bytes4[]"
            },
            {
              "internalType": "bytes32[]",
              "name": "facetsSlotPosition",
              "type": "bytes32[]"
            },
            {
              "internalType": "bytes32[]",
              "name": "selectorSlots",
              "type": "bytes32[]"
            },
            {
              "internalType": "address",
              "name": "fallbackAddress",
              "type": "address"
            },
            {
              "internalType": "bytes",
              "name": "fallbackInitArgs",
              "type": "bytes"
            },
            {
              "internalType": "bytes4[]",
              "name": "interfaces",
              "type": "bytes4[]"
            }
          ],
          "internalType": "struct Diamond.InitArgs",
          "name": "args",
          "type": "tuple"
        }
      ],
      "name": "create",
      "outputs": [],
      "stateMutability": "nonpayable",
      "type": "function"
    },
    {
      "inputs": [
        {
          "components": [
            {
              "internalType": "address",
              "name": "target",
              "type": "address"
            },
            {
              "internalType": "enum IDiamondCuttable.FacetCutAction",
              "name": "action",
              "type": "uint8"
            },
            {
              "internalType": "bytes4[]",
              "name": "selectors",
              "type": "bytes4[]"
            }
          ],
          "internalType": "struct IDiamondCuttable.FacetCut[]",
          "name": "facetCuts",
          "type": "tuple[]"
        },
        {
          "internalType": "address",
          "name": "target",
          "type": "address"
        },
        {
          "internalType": "bytes",
          "name": "data",
          "type": "bytes"
        }
      ],
      "name": "diamondCut",
      "outputs": [],
      "stateMutability": "nonpayable",
      "type": "function"
    },
    {
      "inputs": [
        {
          "internalType": "bytes4",
          "name": "selector",
          "type": "bytes4"
        }
      ],
      "name": "facetAddress",
      "outputs": [
        {
          "internalType": "address",
          "name": "facet",
          "type": "address"
        }
      ],
      "stateMutability": "view",
      "type": "function"
    },
    {
      "inputs": [],
      "name": "facetAddresses",
      "outputs": [
        {
          "internalType": "address[]",
          "name": "addresses",
          "type": "address[]"
        }
      ],
      "stateMutability": "view",
      "type": "function"
    },
    {
      "inputs": [
        {
          "internalType": "address",
          "name": "facet",
          "type": "address"
        }
      ],
      "name": "facetFunctionSelectors",
      "outputs": [
        {
          "internalType": "bytes4[]",
          "name": "selectors",
          "type": "bytes4[]"
        }
      ],
      "stateMutability": "view",
      "type": "function"
    },
    {
      "inputs": [],
      "name": "facets",
      "outputs": [
        {
          "components": [
            {
              "internalType": "address",
              "name": "target",
              "type": "address"
            },
            {
              "internalType": "bytes4[]",
              "name": "selectors",
              "type": "bytes4[]"
            }
          ],
          "internalType": "struct IDiamondLoupe.Facet[]",
          "name": "diamondFacets",
          "type": "tuple[]"
        }
      ],
      "stateMutability": "view",
      "type": "function"
    },
    {
      "inputs": [],
      "name": "getFallbackAddress",
      "outputs": [
        {
          "internalType": "address",
          "name": "",
          "type": "address"
        }
      ],
      "stateMutability": "view",
      "type": "function"
    },
    {
      "inputs": [
        {
          "components": [
            {
              "internalType": "address",
              "name": "owner",
              "type": "address"
            },
            {
              "internalType": "bytes4[]",
              "name": "selectors",
              "type": "bytes4[]"
            },
            {
              "internalType": "bytes32[]",
              "name": "facetsSlotPosition",
              "type": "bytes32[]"
            },
            {
              "internalType": "bytes32[]",
              "name": "selectorSlots",
              "type": "bytes32[]"
            },
            {
              "internalType": "address",
              "name": "fallbackAddress",
              "type": "address"
            },
            {
              "internalType": "bytes",
              "name": "fallbackInitArgs",
              "type": "bytes"
            },
            {
              "internalType": "bytes4[]",
              "name": "interfaces",
              "type": "bytes4[]"
            }
          ],
          "internalType": "struct Diamond.InitArgs",
          "name": "args",
          "type": "tuple"
        }
      ],
      "name": "init",
      "outputs": [],
      "stateMutability": "nonpayable",
      "type": "function"
    },
    {
      "inputs": [],
      "name": "nomineeOwner",
      "outputs": [
        {
          "internalType": "address",
          "name": "",
          "type": "address"
        }
      ],
      "stateMutability": "view",
      "type": "function"
    },
    {
      "inputs": [],
      "name": "owner",
      "outputs": [
        {
          "internalType": "address",
          "name": "",
          "type": "address"
        }
      ],
      "stateMutability": "view",
      "type": "function"
    },
    {
      "inputs": [],
      "name": "pause",
      "outputs": [],
      "stateMutability": "nonpayable",
      "type": "function"
    },
    {
      "inputs": [],
      "name": "paused",
      "outputs": [
        {
          "internalType": "bool",
          "name": "",
          "type": "bool"
        }
      ],
      "stateMutability": "view",
      "type": "function"
    },
    {
      "inputs": [
        {
          "internalType": "address",
          "name": "fallbackAddress",
          "type": "address"
        }
      ],
      "name": "setFallbackAddress",
      "outputs": [],
      "stateMutability": "nonpayable",
      "type": "function"
    },
    {
      "inputs": [
        {
          "internalType": "bytes4",
          "name": "interfaceId",
          "type": "bytes4"
        },
        {
          "internalType": "bool",
          "name": "supported",
          "type": "bool"
        }
      ],
      "name": "setSupportedInterface",
      "outputs": [],
      "stateMutability": "nonpayable",
      "type": "function"
    },
    {
      "inputs": [
        {
          "internalType": "bytes4",
          "name": "interfaceId",
          "type": "bytes4"
        }
      ],
      "name": "supportsInterface",
      "outputs": [
        {
          "internalType": "bool",
          "name": "",
          "type": "bool"
        }
      ],
      "stateMutability": "view",
      "type": "function"
    },
    {
      "inputs": [
        {
          "internalType": "address",
          "name": "account",
          "type": "address"
        }
      ],
      "name": "transferOwnership",
      "outputs": [],
      "stateMutability": "nonpayable",
      "type": "function"
    },
    {
      "inputs": [],
      "name": "unpause",
      "outputs": [],
      "stateMutability": "nonpayable",
      "type": "function"
    },
    {
      "stateMutability": "payable",
      "type": "receive"
    }
  ],
  "transactionHash": "0xc0fe7b161abca1a68cba83c849a7bc8a881ba465d2eb5b0d897ab2d408767f39",
  "args": [],
  "numDeployments": 1,
  "solcInputHash": "4f615b431856557cc0a7c0f3f1daaa2b",
  "bytecode": "0x608060405234801561001057600080fd5b5061535e806100206000396000f3fe60806040526004361061010d5760003560e01c80637f73528b11610095578063914237651161006457806391423765146103a3578063adfca15e146103cc578063cdffacc614610409578063f2fde38b14610446578063f964a53b1461046f57610114565b80637f73528b1461030d5780638456cb59146103365780638ab5150a1461034d5780638da5cb5b1461037857610114565b80634ebfaca5116100dc5780634ebfaca51461024c57806352ef6b2c146102755780635c975abb146102a057806379ba5097146102cb5780637a0ed627146102e257610114565b806301ffc9a7146101a45780631f931c1c146101e15780632c4080591461020a5780633f4ba83a1461023557610114565b3661011457005b600061011e610498565b905061013f8173ffffffffffffffffffffffffffffffffffffffff16610617565b61017e576040517f08c379a0000000000000000000000000000000000000000000000000000000008152600401610175906147f5565b60405180910390fd5b3660008037600080366000845af43d6000803e806000811461019f573d6000f35b3d6000fd5b3480156101b057600080fd5b506101cb60048036038101906101c69190613c23565b61062a565b6040516101d891906145b4565b60405180910390f35b3480156101ed57600080fd5b5061020860048036038101906102039190613b9a565b61085a565b005b34801561021657600080fd5b5061021f610968565b60405161022c91906144ee565b60405180910390f35b34801561024157600080fd5b5061024a61099b565b005b34801561025857600080fd5b50610273600480360381019061026e9190613c88565b610a91565b005b34801561028157600080fd5b5061028a611029565b6040516102979190614509565b60405180910390f35b3480156102ac57600080fd5b506102b5611303565b6040516102c291906145b4565b60405180910390f35b3480156102d757600080fd5b506102e0611323565b005b3480156102ee57600080fd5b506102f7611477565b6040516103049190614592565b60405180910390f35b34801561031957600080fd5b50610334600480360381019061032f9190613c4c565b611c3f565b005b34801561034257600080fd5b5061034b611c65565b005b34801561035957600080fd5b50610362611d5b565b60405161036f91906144ee565b60405180910390f35b34801561038457600080fd5b5061038d611d8e565b60405161039a91906144ee565b60405180910390f35b3480156103af57600080fd5b506103ca60048036038101906103c59190613b71565b611dc1565b005b3480156103d857600080fd5b506103f360048036038101906103ee9190613b71565b611e0e565b604051610400919061452b565b60405180910390f35b34801561041557600080fd5b50610430600480360381019061042b9190613c23565b61207e565b60405161043d91906144ee565b60405180910390f35b34801561045257600080fd5b5061046d60048036038101906104689190613b71565b6120e5565b005b34801561047b57600080fd5b5061049660048036038101906104919190613cc9565b61219b565b005b60008060007f177481ac65e4292921c69f62d1cc7f57541261e5d61c8175cf4e36a01c9bfc939050809150600082600001600080357fffffffff00000000000000000000000000000000000000000000000000000000167bffffffffffffffffffffffffffffffffffffffffffffffffffffffff19167bffffffffffffffffffffffffffffffffffffffffffffffffffffffff191681526020019081526020016000205460601c9050600073ffffffffffffffffffffffffffffffffffffffff168173ffffffffffffffffffffffffffffffffffffffff16141561060e578260030160009054906101000a900473ffffffffffffffffffffffffffffffffffffffff169050600073ffffffffffffffffffffffffffffffffffffffff168173ffffffffffffffffffffffffffffffffffffffff16141561060d576040517f08c379a000000000000000000000000000000000000000000000000000000000815260040161060490614715565b60405180910390fd5b5b80935050505090565b600080823b905060008111915050919050565b600080610635612271565b90507fe78a39d8000000000000000000000000000000000000000000000000000000007bffffffffffffffffffffffffffffffffffffffffffffffffffffffff1916837bffffffffffffffffffffffffffffffffffffffffffffffffffffffff1916148061070057507f7f5828d0000000000000000000000000000000000000000000000000000000007bffffffffffffffffffffffffffffffffffffffffffffffffffffffff1916837bffffffffffffffffffffffffffffffffffffffffffffffffffffffff1916145b8061076857507f01ffc9a7000000000000000000000000000000000000000000000000000000007bffffffffffffffffffffffffffffffffffffffffffffffffffffffff1916837bffffffffffffffffffffffffffffffffffffffffffffffffffffffff1916145b806107d057507f1f931c1c000000000000000000000000000000000000000000000000000000007bffffffffffffffffffffffffffffffffffffffffffffffffffffffff1916837bffffffffffffffffffffffffffffffffffffffffffffffffffffffff1916145b8061083857507f48e2b093000000000000000000000000000000000000000000000000000000007bffffffffffffffffffffffffffffffffffffffffffffffffffffffff1916837bffffffffffffffffffffffffffffffffffffffffffffffffffffffff1916145b806108525750610851838261229e90919063ffffffff16565b5b915050919050565b610862612309565b60000160009054906101000a900473ffffffffffffffffffffffffffffffffffffffff1673ffffffffffffffffffffffffffffffffffffffff163373ffffffffffffffffffffffffffffffffffffffff16146108f3576040517f08c379a00000000000000000000000000000000000000000000000000000000081526004016108ea90614755565b60405180910390fd5b6109618585906109039190614c56565b8484848080601f016020809104026020016040519081016040528093929190818152602001838380828437600081840152601f19601f82011690508083019250505050505050610951612336565b612363909392919063ffffffff16565b5050505050565b6000610972612336565b60030160009054906101000a900473ffffffffffffffffffffffffffffffffffffffff16905090565b6109a3612309565b60000160009054906101000a900473ffffffffffffffffffffffffffffffffffffffff1673ffffffffffffffffffffffffffffffffffffffff163373ffffffffffffffffffffffffffffffffffffffff1614610a34576040517f08c379a0000000000000000000000000000000000000000000000000000000008152600401610a2b90614755565b60405180910390fd5b6000610a3e6126c7565b60000160006101000a81548160ff0219169083151502179055507f5db9ee0a495bf2e6ff9c91a7834c1ba4fdd244a5e8aa4e537bd38aeae4b073aa33604051610a8791906144ee565b60405180910390a1565b6000610a9b6126f4565b90508060000160019054906101000a900460ff16610acb578060000160009054906101000a900460ff1615610ad4565b610ad3612721565b5b610b13576040517f08c379a0000000000000000000000000000000000000000000000000000000008152600401610b0a906146f5565b60405180910390fd5b60008160000160019054906101000a900460ff161590508015610b6b5760018260000160016101000a81548160ff02191690831515021790555060018260000160006101000a81548160ff0219169083151502179055505b610b97836000016020810190610b819190613b71565b610b89612309565b61273290919063ffffffff16565b6000610ba1612336565b9050836080016020810190610bb69190613b71565b8160030160006101000a81548173ffffffffffffffffffffffffffffffffffffffff021916908373ffffffffffffffffffffffffffffffffffffffff160217905550600080856080016020810190610c0e9190613b71565b73ffffffffffffffffffffffffffffffffffffffff16868060a00190610c349190614905565b604051602401610c459291906145cf565b6040516020818303038152906040527f6a148876000000000000000000000000000000000000000000000000000000007bffffffffffffffffffffffffffffffffffffffffffffffffffffffff19166020820180517bffffffffffffffffffffffffffffffffffffffffffffffffffffffff8381831617835250505050604051610ccf91906144d7565b600060405180830381855af49150503d8060008114610d0a576040519150601f19603f3d011682016040523d82523d6000602084013e610d0f565b606091505b5091509150818190610d57576040517f08c379a0000000000000000000000000000000000000000000000000000000008152600401610d4e91906145f3565b60405180910390fd5b50858060200190610d6891906148ae565b90508360010160006101000a81548161ffff021916908361ffff16021790555060005b868060200190610d9b91906148ae565b9050811015610eb757868060400190610db49190614857565b82818110610deb577f4e487b7100000000000000000000000000000000000000000000000000000000600052603260045260246000fd5b90506020020135846000016000898060200190610e0891906148ae565b85818110610e3f577f4e487b7100000000000000000000000000000000000000000000000000000000600052603260045260246000fd5b9050602002016020810190610e549190613c23565b7bffffffffffffffffffffffffffffffffffffffffffffffffffffffff19167bffffffffffffffffffffffffffffffffffffffffffffffffffffffff19168152602001908152602001600020819055508080610eaf90614cf0565b915050610d8b565b5060005b868060600190610ecb9190614857565b9050811015610f4e57868060600190610ee49190614857565b82818110610f1b577f4e487b7100000000000000000000000000000000000000000000000000000000600052603260045260246000fd5b90506020020135846002016000838152602001908152602001600020819055508080610f4690614cf0565b915050610ebb565b506000610f59612271565b905060005b878060c00190610f6e91906148ae565b9050811015610ffb57610fe8888060c00190610f8a91906148ae565b83818110610fc1577f4e487b7100000000000000000000000000000000000000000000000000000000600052603260045260246000fd5b9050602002016020810190610fd69190613c23565b6001846127799092919063ffffffff16565b8080610ff390614cf0565b915050610f5e565b505050505080156110245760008260000160016101000a81548160ff0219169083151502179055505b505050565b60606000611035612336565b90508060010160009054906101000a900461ffff1661ffff1667ffffffffffffffff81111561108d577f4e487b7100000000000000000000000000000000000000000000000000000000600052604160045260246000fd5b6040519080825280602002602001820160405280156110bb5781602001602082028036833780820191505090505b50915060008060005b8360010160009054906101000a900461ffff1661ffff168210156112f957600084600201600083815260200190815260200160002054905060005b60088110156112e457838061111390614cf0565b9450508560010160009054906101000a900461ffff1661ffff16841115611139576112e4565b6000600582901b83901b90506000876000016000837bffffffffffffffffffffffffffffffffffffffffffffffffffffffff19167bffffffffffffffffffffffffffffffffffffffffffffffffffffffff191681526020019081526020016000205460601c90506000805b8881101561123c578a81815181106111e5577f4e487b7100000000000000000000000000000000000000000000000000000000600052603260045260246000fd5b602002602001015173ffffffffffffffffffffffffffffffffffffffff168373ffffffffffffffffffffffffffffffffffffffff161415611229576001915061123c565b808061123490614cf0565b9150506111a4565b50801561124b575050506112d1565b818a8981518110611285577f4e487b7100000000000000000000000000000000000000000000000000000000600052603260045260246000fd5b602002602001019073ffffffffffffffffffffffffffffffffffffffff16908173ffffffffffffffffffffffffffffffffffffffff168152505087806112ca90614cf0565b9850505050505b80806112dc90614cf0565b9150506110ff565b505080806112f190614cf0565b9150506110c4565b5081845250505090565b600061130d6126c7565b60000160009054906101000a900460ff16905090565b61132b612852565b60000160009054906101000a900473ffffffffffffffffffffffffffffffffffffffff1673ffffffffffffffffffffffffffffffffffffffff163373ffffffffffffffffffffffffffffffffffffffff16146113bc576040517f08c379a00000000000000000000000000000000000000000000000000000000081526004016113b390614735565b60405180910390fd5b60006113c6612309565b90503373ffffffffffffffffffffffffffffffffffffffff168160000160009054906101000a900473ffffffffffffffffffffffffffffffffffffffff1673ffffffffffffffffffffffffffffffffffffffff167f8be0079c531659141344cd1fd0a4f28419497f9722a3daafe3b4186f6b6457e060405160405180910390a3611459338261273290919063ffffffff16565b6114746000611466612852565b61287f90919063ffffffff16565b50565b60606000611483612336565b90508060010160009054906101000a900461ffff1661ffff1667ffffffffffffffff8111156114db577f4e487b7100000000000000000000000000000000000000000000000000000000600052604160045260246000fd5b60405190808252806020026020018201604052801561151457816020015b61150161366f565b8152602001906001900390816114f95790505b50915060008160010160009054906101000a900461ffff1661ffff1667ffffffffffffffff81111561156f577f4e487b7100000000000000000000000000000000000000000000000000000000600052604160045260246000fd5b60405190808252806020026020018201604052801561159d5781602001602082028036833780820191505090505b50905060008060005b8460010160009054906101000a900461ffff1661ffff16821015611b7f57600085600201600083815260200190815260200160002054905060005b6008811015611b6a5783806115f590614cf0565b9450508660010160009054906101000a900461ffff1661ffff1684111561161b57611b6a565b6000600582901b83901b90506000886000016000837bffffffffffffffffffffffffffffffffffffffffffffffffffffffff19167bffffffffffffffffffffffffffffffffffffffffffffffffffffffff191681526020019081526020016000205460601c90506000805b888110156118d7578273ffffffffffffffffffffffffffffffffffffffff168c82815181106116de577f4e487b7100000000000000000000000000000000000000000000000000000000600052603260045260246000fd5b60200260200101516000015173ffffffffffffffffffffffffffffffffffffffff1614156118c457838c8281518110611740577f4e487b7100000000000000000000000000000000000000000000000000000000600052603260045260246000fd5b6020026020010151602001518b8381518110611785577f4e487b7100000000000000000000000000000000000000000000000000000000600052603260045260246000fd5b602002602001015160ff16815181106117c7577f4e487b7100000000000000000000000000000000000000000000000000000000600052603260045260246000fd5b60200260200101907bffffffffffffffffffffffffffffffffffffffffffffffffffffffff191690817bffffffffffffffffffffffffffffffffffffffffffffffffffffffff19168152505060ff8a828151811061184e577f4e487b7100000000000000000000000000000000000000000000000000000000600052603260045260246000fd5b602002602001015160ff161061186357600080fd5b89818151811061189c577f4e487b7100000000000000000000000000000000000000000000000000000000600052603260045260246000fd5b6020026020010180518091906118b190614d39565b60ff1660ff1681525050600191506118d7565b80806118cf90614cf0565b915050611686565b5080156118e657505050611b57565b818b8981518110611920577f4e487b7100000000000000000000000000000000000000000000000000000000600052603260045260246000fd5b60200260200101516000019073ffffffffffffffffffffffffffffffffffffffff16908173ffffffffffffffffffffffffffffffffffffffff16815250508960010160009054906101000a900461ffff1661ffff1667ffffffffffffffff8111156119b4577f4e487b7100000000000000000000000000000000000000000000000000000000600052604160045260246000fd5b6040519080825280602002602001820160405280156119e25781602001602082028036833780820191505090505b508b8981518110611a1c577f4e487b7100000000000000000000000000000000000000000000000000000000600052603260045260246000fd5b602002602001015160200181905250828b8981518110611a65577f4e487b7100000000000000000000000000000000000000000000000000000000600052603260045260246000fd5b602002602001015160200151600081518110611aaa577f4e487b7100000000000000000000000000000000000000000000000000000000600052603260045260246000fd5b60200260200101907bffffffffffffffffffffffffffffffffffffffffffffffffffffffff191690817bffffffffffffffffffffffffffffffffffffffffffffffffffffffff1916815250506001898981518110611b31577f4e487b7100000000000000000000000000000000000000000000000000000000600052603260045260246000fd5b602002602001019060ff16908160ff16815250508780611b5090614cf0565b9850505050505b8080611b6290614cf0565b9150506115e1565b50508080611b7790614cf0565b9150506115a6565b5060005b82811015611c34576000848281518110611bc6577f4e487b7100000000000000000000000000000000000000000000000000000000600052603260045260246000fd5b602002602001015160ff1690506000878381518110611c0e577f4e487b7100000000000000000000000000000000000000000000000000000000600052603260045260246000fd5b602002602001015160200151905081815250508080611c2c90614cf0565b915050611b83565b508185525050505090565b6000611c49612271565b9050611c608383836127799092919063ffffffff16565b505050565b611c6d612309565b60000160009054906101000a900473ffffffffffffffffffffffffffffffffffffffff1673ffffffffffffffffffffffffffffffffffffffff163373ffffffffffffffffffffffffffffffffffffffff1614611cfe576040517f08c379a0000000000000000000000000000000000000000000000000000000008152600401611cf590614755565b60405180910390fd5b6001611d086126c7565b60000160006101000a81548160ff0219169083151502179055507f62e78cea01bee320cd4e420270b5ea74000d11b0c9f74754ebdbfc544b05a25833604051611d5191906144ee565b60405180910390a1565b6000611d65612852565b60000160009054906101000a900473ffffffffffffffffffffffffffffffffffffffff16905090565b6000611d98612309565b60000160009054906101000a900473ffffffffffffffffffffffffffffffffffffffff16905090565b80611dca612336565b60030160006101000a81548173ffffffffffffffffffffffffffffffffffffffff021916908373ffffffffffffffffffffffffffffffffffffffff16021790555050565b60606000611e1a612336565b90508060010160009054906101000a900461ffff1661ffff1667ffffffffffffffff811115611e72577f4e487b7100000000000000000000000000000000000000000000000000000000600052604160045260246000fd5b604051908082528060200260200182016040528015611ea05781602001602082028036833780820191505090505b50915060008060005b8360010160009054906101000a900461ffff1661ffff1682101561207257600084600201600083815260200190815260200160002054905060005b600881101561205d578380611ef890614cf0565b9450508560010160009054906101000a900461ffff1661ffff16841115611f1e5761205d565b6000600582901b83901b9050866000016000827bffffffffffffffffffffffffffffffffffffffffffffffffffffffff19167bffffffffffffffffffffffffffffffffffffffffffffffffffffffff191681526020019081526020016000205460601c73ffffffffffffffffffffffffffffffffffffffff168973ffffffffffffffffffffffffffffffffffffffff1614156120495780888781518110611fee577f4e487b7100000000000000000000000000000000000000000000000000000000600052603260045260246000fd5b60200260200101907bffffffffffffffffffffffffffffffffffffffffffffffffffffffff191690817bffffffffffffffffffffffffffffffffffffffffffffffffffffffff191681525050858061204590614cf0565b9650505b50808061205590614cf0565b915050611ee4565b5050808061206a90614cf0565b915050611ea9565b50818452505050919050565b6000612088612336565b6000016000837bffffffffffffffffffffffffffffffffffffffffffffffffffffffff19167bffffffffffffffffffffffffffffffffffffffffffffffffffffffff191681526020019081526020016000205460601c9050919050565b6120ed612309565b60000160009054906101000a900473ffffffffffffffffffffffffffffffffffffffff1673ffffffffffffffffffffffffffffffffffffffff163373ffffffffffffffffffffffffffffffffffffffff161461217e576040517f08c379a000000000000000000000000000000000000000000000000000000000815260040161217590614755565b60405180910390fd5b6121988161218a612852565b61287f90919063ffffffff16565b50565b60006121a6306128c6565b90508073ffffffffffffffffffffffffffffffffffffffff16634ebfaca5836040518263ffffffff1660e01b81526004016121e19190614835565b600060405180830381600087803b1580156121fb57600080fd5b505af115801561220f573d6000803e3d6000fd5b505050508073ffffffffffffffffffffffffffffffffffffffff163073ffffffffffffffffffffffffffffffffffffffff167fb557324045551eafb0789d69d5679a7017a31840124b2220df4b81dea45ec08360405160405180910390a35050565b6000807f326d0c59a7612f6a9919e2a8ee333c80ba689d8ba2634de89c85cbb04832e70590508091505090565b6000826000016000837bffffffffffffffffffffffffffffffffffffffffffffffffffffffff19167bffffffffffffffffffffffffffffffffffffffffffffffffffffffff1916815260200190815260200160002060009054906101000a900460ff16905092915050565b6000807f8a22373512790c48b83a1fe2efdd2888d4a917bcdc24d0adf63e60f67168046090508091505090565b6000807f177481ac65e4292921c69f62d1cc7f57541261e5d61c8175cf4e36a01c9bfc9390508091505090565b60008460010160009054906101000a900461ffff1661ffff16905060008190506000806007831611156123ad57866002016000600384901c81526020019081526020016000205490505b60005b86518110156126265760008782815181106123f4577f4e487b7100000000000000000000000000000000000000000000000000000000600052603260045260246000fd5b6020026020010151905060008160200151905060008260400151511161244f576040517f08c379a000000000000000000000000000000000000000000000000000000000815260040161244690614655565b60405180910390fd5b60006002811115612489577f4e487b7100000000000000000000000000000000000000000000000000000000600052602160045260246000fd5b8160028111156124c2577f4e487b7100000000000000000000000000000000000000000000000000000000600052602160045260246000fd5b14156124ec576124df8585848d61299b909392919063ffffffff16565b8095508196505050612617565b60016002811115612526577f4e487b7100000000000000000000000000000000000000000000000000000000600052602160045260246000fd5b81600281111561255f577f4e487b7100000000000000000000000000000000000000000000000000000000600052602160045260246000fd5b141561257d57612578828b612c8290919063ffffffff16565b612616565b6002808111156125b6577f4e487b7100000000000000000000000000000000000000000000000000000000600052602160045260246000fd5b8160028111156125ef577f4e487b7100000000000000000000000000000000000000000000000000000000600052602160045260246000fd5b14156126155761260c8585848d612f85909392919063ffffffff16565b80955081965050505b5b5b505080806001019150506123b0565b5082821461264e57818760010160006101000a81548161ffff021916908361ffff1602179055505b60006007831611156126795780876002016000600385901c8152602001908152602001600020819055505b7f8faa70878671ccd212d20771b795c50af8fd3ff6cf27f4bde57e5d4de0aeb6738686866040516126ac9392919061454d565b60405180910390a16126be85856134b0565b50505050505050565b6000807f68721c0bbf2c02a4d65000340d1370666be06a630022208d4baa9bd7a4b6fea890508091505090565b6000807f2ae1e818fc317b4c150084d41bf7468a28b0861c8b85a3e58e4bb4d5dbbc6aa190508091505090565b600061272c30610617565b15905090565b808260000160006101000a81548173ffffffffffffffffffffffffffffffffffffffff021916908373ffffffffffffffffffffffffffffffffffffffff1602179055505050565b63ffffffff60e01b827bffffffffffffffffffffffffffffffffffffffffffffffffffffffff191614156127e2576040517f08c379a00000000000000000000000000000000000000000000000000000000081526004016127d990614635565b60405180910390fd5b80836000016000847bffffffffffffffffffffffffffffffffffffffffffffffffffffffff19167bffffffffffffffffffffffffffffffffffffffffffffffffffffffff1916815260200190815260200160002060006101000a81548160ff021916908315150217905550505050565b6000807f24aa1f7b31fd188a8d3ecfb06bc55c806040e59b03bd4396283442fce661789090508091505090565b808260000160006101000a81548173ffffffffffffffffffffffffffffffffffffffff021916908373ffffffffffffffffffffffffffffffffffffffff1602179055505050565b60006040517f3d602d80600a3d3981f3363d3d373d3d3d363d7300000000000000000000000081528260601b60148201527f5af43d82803e903d91602b57fd5bf3000000000000000000000000000000000060288201526037816000f0915050600073ffffffffffffffffffffffffffffffffffffffff168173ffffffffffffffffffffffffffffffffffffffff161415612996576040517f08c379a000000000000000000000000000000000000000000000000000000000815260040161298d906146b5565b60405180910390fd5b919050565b6000803073ffffffffffffffffffffffffffffffffffffffff16836000015173ffffffffffffffffffffffffffffffffffffffff1614806129fb57506129fa836000015173ffffffffffffffffffffffffffffffffffffffff16610617565b5b612a3a576040517f08c379a0000000000000000000000000000000000000000000000000000000008152600401612a31906146d5565b60405180910390fd5b60005b836040015151811015612c7257600084604001518281518110612a89577f4e487b7100000000000000000000000000000000000000000000000000000000600052603260045260246000fd5b602002602001015190506000886000016000837bffffffffffffffffffffffffffffffffffffffffffffffffffffffff19167bffffffffffffffffffffffffffffffffffffffffffffffffffffffff19168152602001908152602001600020549050600073ffffffffffffffffffffffffffffffffffffffff168160601c73ffffffffffffffffffffffffffffffffffffffff1614612b5d576040517f08c379a0000000000000000000000000000000000000000000000000000000008152600401612b5490614815565b60405180910390fd5b8760001b866000015160601b6bffffffffffffffffffffffff191617896000016000847bffffffffffffffffffffffffffffffffffffffffffffffffffffffff19167bffffffffffffffffffffffffffffffffffffffffffffffffffffffff19168152602001908152602001600020819055506000600560078a16901b905080837bffffffffffffffffffffffffffffffffffffffffffffffffffffffff1916901c817fffffffff0000000000000000000000000000000000000000000000000000000060001b901c19891617975060e0811415612c5a57878a600201600060038c901c8152602001908152602001600020819055506000801b97505b88806001019950505050508080600101915050612a3d565b5084849150915094509492505050565b612ca5816000015173ffffffffffffffffffffffffffffffffffffffff16610617565b612ce4576040517f08c379a0000000000000000000000000000000000000000000000000000000008152600401612cdb906147d5565b60405180910390fd5b60005b816040015151811015612f8057600082604001518281518110612d33577f4e487b7100000000000000000000000000000000000000000000000000000000600052603260045260246000fd5b602002602001015190506000846000016000837bffffffffffffffffffffffffffffffffffffffffffffffffffffffff19167bffffffffffffffffffffffffffffffffffffffffffffffffffffffff1916815260200190815260200160002054905060008160601c9050600073ffffffffffffffffffffffffffffffffffffffff168173ffffffffffffffffffffffffffffffffffffffff161415612e0d576040517f08c379a0000000000000000000000000000000000000000000000000000000008152600401612e0490614615565b60405180910390fd5b3073ffffffffffffffffffffffffffffffffffffffff168173ffffffffffffffffffffffffffffffffffffffff161415612e7c576040517f08c379a0000000000000000000000000000000000000000000000000000000008152600401612e7390614775565b60405180910390fd5b846000015173ffffffffffffffffffffffffffffffffffffffff168173ffffffffffffffffffffffffffffffffffffffff161415612eef576040517f08c379a0000000000000000000000000000000000000000000000000000000008152600401612ee690614675565b60405180910390fd5b846000015160601b6bffffffffffffffffffffffff19166bffffffffffffffffffffffff60001b831617866000016000857bffffffffffffffffffffffffffffffffffffffffffffffffffffffff19167bffffffffffffffffffffffffffffffffffffffffffffffffffffffff19168152602001908152602001600020819055505050508080600101915050612ce7565b505050565b600080600073ffffffffffffffffffffffffffffffffffffffff16836000015173ffffffffffffffffffffffffffffffffffffffff1614612ffb576040517f08c379a0000000000000000000000000000000000000000000000000000000008152600401612ff290614695565b60405180910390fd5b6000600386901c9050600060078716905060005b8560400151518110156134955760008660400151828151811061305b577f4e487b7100000000000000000000000000000000000000000000000000000000600052603260045260246000fd5b6020026020010151905060008a6000016000837bffffffffffffffffffffffffffffffffffffffffffffffffffffffff19167bffffffffffffffffffffffffffffffffffffffffffffffffffffffff19168152602001908152602001600020549050600073ffffffffffffffffffffffffffffffffffffffff168160601c73ffffffffffffffffffffffffffffffffffffffff161415613130576040517f08c379a000000000000000000000000000000000000000000000000000000000815260040161312790614615565b60405180910390fd5b3073ffffffffffffffffffffffffffffffffffffffff168160601c73ffffffffffffffffffffffffffffffffffffffff1614156131a2576040517f08c379a000000000000000000000000000000000000000000000000000000000815260040161319990614775565b60405180910390fd5b6000801b8914156131d7578480600190039550508a6002016000868152602001908152602001600020549850600793506131e1565b8380600190039450505b6000806000600587901b8c901b9250847bffffffffffffffffffffffffffffffffffffffffffffffffffffffff1916837bffffffffffffffffffffffffffffffffffffffffffffffffffffffff191614613303578d6000016000847bffffffffffffffffffffffffffffffffffffffffffffffffffffffff19167bffffffffffffffffffffffffffffffffffffffffffffffffffffffff19168152602001908152602001600020546bffffffffffffffffffffffff19166bffffffffffffffffffffffff60001b8516178e6000016000857bffffffffffffffffffffffffffffffffffffffffffffffffffffffff19167bffffffffffffffffffffffffffffffffffffffffffffffffffffffff19168152602001908152602001600020819055505b8d6000016000867bffffffffffffffffffffffffffffffffffffffffffffffffffffffff19167bffffffffffffffffffffffffffffffffffffffffffffffffffffffff191681526020019081526020016000206000905560008460001c61ffff169050600381901c9250600560078216901b9150508782146134095760008e600201600084815260200190815260200160002054905081847bffffffffffffffffffffffffffffffffffffffffffffffffffffffff1916901c827fffffffff0000000000000000000000000000000000000000000000000000000060001b901c198216179050808f6002016000858152602001908152602001600020819055505061345a565b80837bffffffffffffffffffffffffffffffffffffffffffffffffffffffff1916901c817fffffffff0000000000000000000000000000000000000000000000000000000060001b901c198d16179b505b6000871415613483578d6002016000898152602001908152602001600020600090556000801b9b505b5050505050808060010191505061300f565b5080600383901b179650868693509350505094509492505050565b60008151141515600073ffffffffffffffffffffffffffffffffffffffff168373ffffffffffffffffffffffffffffffffffffffff1614151514613529576040517f08c379a0000000000000000000000000000000000000000000000000000000008152600401613520906147b5565b60405180910390fd5b600073ffffffffffffffffffffffffffffffffffffffff168273ffffffffffffffffffffffffffffffffffffffff161461366b573073ffffffffffffffffffffffffffffffffffffffff168273ffffffffffffffffffffffffffffffffffffffff16146135ef576135af8273ffffffffffffffffffffffffffffffffffffffff16610617565b6135ee576040517f08c379a00000000000000000000000000000000000000000000000000000000081526004016135e590614795565b60405180910390fd5b5b60008273ffffffffffffffffffffffffffffffffffffffff168260405161361691906144d7565b600060405180830381855af49150503d8060008114613651576040519150601f19603f3d011682016040523d82523d6000602084013e613656565b606091505b5050905080613669573d6000803e3d6000fd5b505b5050565b6040518060400160405280600073ffffffffffffffffffffffffffffffffffffffff168152602001606081525090565b60006136b26136ad84614981565b61495c565b905080838252602082019050828560208602820111156136d157600080fd5b60005b8581101561370157816136e78882613903565b8452602084019350602083019250506001810190506136d4565b5050509392505050565b600061371e613719846149ad565b61495c565b9050808382526020820190508285602086028201111561373d57600080fd5b60005b8581101561376d57816137538882613918565b845260208401935060208301925050600181019050613740565b5050509392505050565b600061378a613785846149d9565b61495c565b905080838252602082019050828560208602820111156137a957600080fd5b60005b858110156137f357813567ffffffffffffffff8111156137cb57600080fd5b8086016137d889826139b6565b855260208501945060208401935050506001810190506137ac565b5050509392505050565b600061381061380b84614a05565b61495c565b90508281526020810184848401111561382857600080fd5b613833848285614c7d565b509392505050565b60008135905061384a816152bc565b92915050565b600082601f83011261386157600080fd5b813561387184826020860161369f565b91505092915050565b600082601f83011261388b57600080fd5b813561389b84826020860161370b565b91505092915050565b60008083601f8401126138b657600080fd5b8235905067ffffffffffffffff8111156138cf57600080fd5b6020830191508360208202830111156138e757600080fd5b9250929050565b6000813590506138fd816152d3565b92915050565b600081359050613912816152ea565b92915050565b60008135905061392781615301565b92915050565b60008083601f84011261393f57600080fd5b8235905067ffffffffffffffff81111561395857600080fd5b60208301915083600182028301111561397057600080fd5b9250929050565b600082601f83011261398857600080fd5b81356139988482602086016137fd565b91505092915050565b6000813590506139b081615318565b92915050565b6000606082840312156139c857600080fd5b6139d2606061495c565b905060006139e28482850161383b565b60008301525060206139f6848285016139a1565b602083015250604082013567ffffffffffffffff811115613a1657600080fd5b613a228482850161387a565b60408301525092915050565b600060e08284031215613a4057600080fd5b81905092915050565b600060e08284031215613a5b57600080fd5b613a6560e061495c565b90506000613a758482850161383b565b600083015250602082013567ffffffffffffffff811115613a9557600080fd5b613aa18482850161387a565b602083015250604082013567ffffffffffffffff811115613ac157600080fd5b613acd84828501613850565b604083015250606082013567ffffffffffffffff811115613aed57600080fd5b613af984828501613850565b6060830152506080613b0d8482850161383b565b60808301525060a082013567ffffffffffffffff811115613b2d57600080fd5b613b3984828501613977565b60a08301525060c082013567ffffffffffffffff811115613b5957600080fd5b613b658482850161387a565b60c08301525092915050565b600060208284031215613b8357600080fd5b6000613b918482850161383b565b91505092915050565b600080600080600060608688031215613bb257600080fd5b600086013567ffffffffffffffff811115613bcc57600080fd5b613bd8888289016138a4565b95509550506020613beb8882890161383b565b935050604086013567ffffffffffffffff811115613c0857600080fd5b613c148882890161392d565b92509250509295509295909350565b600060208284031215613c3557600080fd5b6000613c4384828501613918565b91505092915050565b60008060408385031215613c5f57600080fd5b6000613c6d85828601613918565b9250506020613c7e858286016138ee565b9150509250929050565b600060208284031215613c9a57600080fd5b600082013567ffffffffffffffff811115613cb457600080fd5b613cc084828501613a2e565b91505092915050565b600060208284031215613cdb57600080fd5b600082013567ffffffffffffffff811115613cf557600080fd5b613d0184828501613a49565b91505092915050565b6000613d168383613d7a565b60208301905092915050565b6000613d2e8383614009565b60208301905092915050565b6000613d468383614018565b60208301905092915050565b6000613d5e8383614392565b905092915050565b6000613d7283836143e2565b905092915050565b613d8381614bb8565b82525050565b613d9281614bb8565b82525050565b6000613da382614a86565b613dad8185614b14565b9350613db883614a36565b8060005b83811015613de9578151613dd08882613d0a565b9750613ddb83614ad3565b925050600181019050613dbc565b5085935050505092915050565b6000613e0182614a91565b613e0b8185614b25565b9350613e1683614a46565b8060005b83811015613e47578151613e2e8882613d22565b9750613e3983614ae0565b925050600181019050613e1a565b5085935050505092915050565b6000613e5f82614a9c565b613e698185614b36565b9350613e7483614a56565b8060005b83811015613ea5578151613e8c8882613d3a565b9750613e9783614aed565b925050600181019050613e78565b5085935050505092915050565b6000613ebd82614a9c565b613ec78185614b47565b9350613ed283614a56565b8060005b83811015613f03578151613eea8882613d3a565b9750613ef583614aed565b925050600181019050613ed6565b5085935050505092915050565b6000613f1b82614aa7565b613f258185614b58565b935083602082028501613f3785614a66565b8060005b85811015613f735784840389528151613f548582613d52565b9450613f5f83614afa565b925060208a01995050600181019050613f3b565b50829750879550505050505092915050565b6000613f9082614ab2565b613f9a8185614b69565b935083602082028501613fac85614a76565b8060005b85811015613fe85784840389528151613fc98582613d66565b9450613fd483614b07565b925060208a01995050600181019050613fb0565b50829750879550505050505092915050565b61400381614bca565b82525050565b61401281614bd6565b82525050565b61402181614be0565b82525050565b60006140338385614b8b565b9350614040838584614c7d565b61404983614df0565b840190509392505050565b600061405f82614abd565b6140698185614b7a565b9350614079818560208601614c8c565b61408281614df0565b840191505092915050565b600061409882614abd565b6140a28185614b8b565b93506140b2818560208601614c8c565b6140bb81614df0565b840191505092915050565b60006140d182614abd565b6140db8185614b9c565b93506140eb818560208601614c8c565b80840191505092915050565b61410081614c6b565b82525050565b600061411182614ac8565b61411b8185614ba7565b935061412b818560208601614c8c565b61413481614df0565b840191505092915050565b600061414c601f83614ba7565b915061415782614e01565b602082019050919050565b600061416f601c83614ba7565b915061417a82614e2a565b602082019050919050565b6000614192602383614ba7565b915061419d82614e53565b604082019050919050565b60006141b5602883614ba7565b91506141c082614ea2565b604082019050919050565b60006141d8602f83614ba7565b91506141e382614ef1565b604082019050919050565b60006141fb601683614ba7565b915061420682614f40565b602082019050919050565b600061421e602383614ba7565b915061422982614f69565b604082019050919050565b6000614241602e83614ba7565b915061424c82614fb8565b604082019050919050565b6000614264603283614ba7565b915061426f82615007565b604082019050919050565b6000614287602983614ba7565b915061429282615056565b604082019050919050565b60006142aa601d83614ba7565b91506142b5826150a5565b602082019050919050565b60006142cd602283614ba7565b91506142d8826150ce565b604082019050919050565b60006142f0602e83614ba7565b91506142fb8261511d565b604082019050919050565b6000614313602e83614ba7565b915061431e8261516c565b604082019050919050565b6000614336602783614ba7565b9150614341826151bb565b604082019050919050565b6000614359602683614ba7565b91506143648261520a565b604082019050919050565b600061437c602383614ba7565b915061438782615259565b604082019050919050565b60006060830160008301516143aa6000860182613d7a565b5060208301516143bd60208601826140f7565b50604083015184820360408601526143d58282613e54565b9150508091505092915050565b60006040830160008301516143fa6000860182613d7a565b50602083015184820360208601526144128282613e54565b9150508091505092915050565b600060e0830160008301516144376000860182613d7a565b506020830151848203602086015261444f8282613e54565b915050604083015184820360408601526144698282613df6565b915050606083015184820360608601526144838282613df6565b91505060808301516144986080860182613d7a565b5060a083015184820360a08601526144b08282614054565b91505060c083015184820360c08601526144ca8282613e54565b9150508091505092915050565b60006144e382846140c6565b915081905092915050565b60006020820190506145036000830184613d89565b92915050565b600060208201905081810360008301526145238184613d98565b905092915050565b600060208201905081810360008301526145458184613eb2565b905092915050565b600060608201905081810360008301526145678186613f10565b90506145766020830185613d89565b8181036040830152614588818461408d565b9050949350505050565b600060208201905081810360008301526145ac8184613f85565b905092915050565b60006020820190506145c96000830184613ffa565b92915050565b600060208201905081810360008301526145ea818486614027565b90509392505050565b6000602082019050818103600083015261460d8184614106565b905092915050565b6000602082019050818103600083015261462e8161413f565b9050919050565b6000602082019050818103600083015261464e81614162565b9050919050565b6000602082019050818103600083015261466e81614185565b9050919050565b6000602082019050818103600083015261468e816141a8565b9050919050565b600060208201905081810360008301526146ae816141cb565b9050919050565b600060208201905081810360008301526146ce816141ee565b9050919050565b600060208201905081810360008301526146ee81614211565b9050919050565b6000602082019050818103600083015261470e81614234565b9050919050565b6000602082019050818103600083015261472e81614257565b9050919050565b6000602082019050818103600083015261474e8161427a565b9050919050565b6000602082019050818103600083015261476e8161429d565b9050919050565b6000602082019050818103600083015261478e816142c0565b9050919050565b600060208201905081810360008301526147ae816142e3565b9050919050565b600060208201905081810360008301526147ce81614306565b9050919050565b600060208201905081810360008301526147ee81614329565b9050919050565b6000602082019050818103600083015261480e8161434c565b9050919050565b6000602082019050818103600083015261482e8161436f565b9050919050565b6000602082019050818103600083015261484f818461441f565b905092915050565b6000808335600160200384360303811261487057600080fd5b80840192508235915067ffffffffffffffff82111561488e57600080fd5b6020830192506020820236038313156148a657600080fd5b509250929050565b600080833560016020038436030381126148c757600080fd5b80840192508235915067ffffffffffffffff8211156148e557600080fd5b6020830192506020820236038313156148fd57600080fd5b509250929050565b6000808335600160200384360303811261491e57600080fd5b80840192508235915067ffffffffffffffff82111561493c57600080fd5b60208301925060018202360383131561495457600080fd5b509250929050565b6000614966614977565b90506149728282614cbf565b919050565b6000604051905090565b600067ffffffffffffffff82111561499c5761499b614dc1565b5b602082029050602081019050919050565b600067ffffffffffffffff8211156149c8576149c7614dc1565b5b602082029050602081019050919050565b600067ffffffffffffffff8211156149f4576149f3614dc1565b5b602082029050602081019050919050565b600067ffffffffffffffff821115614a2057614a1f614dc1565b5b614a2982614df0565b9050602081019050919050565b6000819050602082019050919050565b6000819050602082019050919050565b6000819050602082019050919050565b6000819050602082019050919050565b6000819050602082019050919050565b600081519050919050565b600081519050919050565b600081519050919050565b600081519050919050565b600081519050919050565b600081519050919050565b600081519050919050565b6000602082019050919050565b6000602082019050919050565b6000602082019050919050565b6000602082019050919050565b6000602082019050919050565b600082825260208201905092915050565b600082825260208201905092915050565b600082825260208201905092915050565b600082825260208201905092915050565b600082825260208201905092915050565b600082825260208201905092915050565b600082825260208201905092915050565b600082825260208201905092915050565b600081905092915050565b600082825260208201905092915050565b6000614bc382614c1f565b9050919050565b60008115159050919050565b6000819050919050565b60007fffffffff0000000000000000000000000000000000000000000000000000000082169050919050565b6000819050614c1a826152a8565b919050565b600073ffffffffffffffffffffffffffffffffffffffff82169050919050565b6000819050919050565b600060ff82169050919050565b6000614c63368484613777565b905092915050565b6000614c7682614c0c565b9050919050565b82818337600083830152505050565b60005b83811015614caa578082015181840152602081019050614c8f565b83811115614cb9576000848401525b50505050565b614cc882614df0565b810181811067ffffffffffffffff82111715614ce757614ce6614dc1565b5b80604052505050565b6000614cfb82614c3f565b91507fffffffffffffffffffffffffffffffffffffffffffffffffffffffffffffffff821415614d2e57614d2d614d63565b5b600182019050919050565b6000614d4482614c49565b915060ff821415614d5857614d57614d63565b5b600182019050919050565b7f4e487b7100000000000000000000000000000000000000000000000000000000600052601160045260246000fd5b7f4e487b7100000000000000000000000000000000000000000000000000000000600052602160045260246000fd5b7f4e487b7100000000000000000000000000000000000000000000000000000000600052604160045260246000fd5b6000601f19601f8301169050919050565b7f4469616d6f6e64426173653a2073656c6563746f72206e6f7420666f756e6400600082015250565b7f4552433136353a20696e76616c696420696e7465726661636520696400000000600082015250565b7f4469616d6f6e64426173653a206e6f2073656c6563746f72732073706563696660008201527f6965640000000000000000000000000000000000000000000000000000000000602082015250565b7f4469616d6f6e64426173653a205245504c41434520746172676574206973206960008201527f64656e746963616c000000000000000000000000000000000000000000000000602082015250565b7f4469616d6f6e64426173653a2052454d4f564520746172676574206d7573742060008201527f6265207a65726f20616464726573730000000000000000000000000000000000602082015250565b7f455243313136373a20637265617465206661696c656400000000000000000000600082015250565b7f4469616d6f6e64426173653a204144442074617267657420686173206e6f206360008201527f6f64650000000000000000000000000000000000000000000000000000000000602082015250565b7f496e697469616c697a61626c653a20636f6e747261637420697320616c72656160008201527f647920696e697469616c697a6564000000000000000000000000000000000000602082015250565b7f4469616d6f6e64426173653a206e6f20666163657420666f756e6420666f722060008201527f66756e6374696f6e207369676e61747572650000000000000000000000000000602082015250565b7f536166654f776e61626c653a2073656e646572206d757374206265206e6f6d6960008201527f6e6565206f776e65720000000000000000000000000000000000000000000000602082015250565b7f4f776e61626c653a2073656e646572206d757374206265206f776e6572000000600082015250565b7f4469616d6f6e64426173653a2073656c6563746f7220697320696d6d7574616260008201527f6c65000000000000000000000000000000000000000000000000000000000000602082015250565b7f4469616d6f6e64426173653a20696e697469616c697a6174696f6e207461726760008201527f657420686173206e6f20636f6465000000000000000000000000000000000000602082015250565b7f4469616d6f6e64426173653a20696e76616c696420696e697469616c697a617460008201527f696f6e20706172616d6574657273000000000000000000000000000000000000602082015250565b7f4469616d6f6e64426173653a205245504c41434520746172676574206861732060008201527f6e6f20636f646500000000000000000000000000000000000000000000000000602082015250565b7f50726f78793a20696d706c656d656e746174696f6e206d75737420626520636f60008201527f6e74726163740000000000000000000000000000000000000000000000000000602082015250565b7f4469616d6f6e64426173653a2073656c6563746f7220616c726561647920616460008201527f6465640000000000000000000000000000000000000000000000000000000000602082015250565b600381106152b9576152b8614d92565b5b50565b6152c581614bb8565b81146152d057600080fd5b50565b6152dc81614bca565b81146152e757600080fd5b50565b6152f381614bd6565b81146152fe57600080fd5b50565b61530a81614be0565b811461531557600080fd5b50565b6003811061532557600080fd5b5056fea264697066735822122079438e6e1b343b826897406ed1aec33c4fc16ae0b5cdda2016638595339fab7b64736f6c63430008040033",
  "devdoc": {
    "kind": "dev",
    "methods": {
      "diamondCut((address,uint8,bytes4[])[],address,bytes)": {
        "params": {
          "data": "optional initialization call data",
          "facetCuts": "array of structured Diamond facet update data",
          "target": "optional recipient of initialization delegatecall"
        }
      },
      "facetAddress(bytes4)": {
        "params": {
          "selector": "function selector to query"
        },
        "returns": {
          "facet": "facet address (zero address if not found)"
        }
      },
      "facetAddresses()": {
        "returns": {
          "addresses": "array of facet addresses"
        }
      },
      "facetFunctionSelectors(address)": {
        "params": {
          "facet": "address of facet to query"
        },
        "returns": {
          "selectors": "array of function selectors"
        }
      },
      "facets()": {
        "returns": {
          "diamondFacets": "array of structured facet data"
        }
      },
      "owner()": {
        "returns": {
          "_0": "conract owner"
        }
      },
      "pause()": {
        "details": "pause the contract"
      },
      "paused()": {
        "details": "Should return if the contract is paused"
      },
      "supportsInterface(bytes4)": {
        "params": {
          "interfaceId": "interface id"
        },
        "returns": {
          "_0": "bool whether interface is supported"
        }
      },
      "transferOwnership(address)": {
        "details": "ownership transfer must be accepted by beneficiary before transfer is complete",
        "params": {
          "account": "address of new owner"
        }
      },
      "unpause()": {
        "details": "unpause the contract"
      }
    },
    "version": 1
  },
  "userdoc": {
    "kind": "user",
    "methods": {
      "acceptOwnership()": {
        "notice": "accept transfer of contract ownership"
      },
      "diamondCut((address,uint8,bytes4[])[],address,bytes)": {
        "notice": "update functions callable on Diamond proxy"
      },
      "facetAddress(bytes4)": {
        "notice": "get the address of the facet associated with given selector"
      },
      "facetAddresses()": {
        "notice": "get addresses of all facets used by diamond"
      },
      "facetFunctionSelectors(address)": {
        "notice": "get all selectors for given facet address"
      },
      "facets()": {
        "notice": "get all facets and their selectors"
      },
      "owner()": {
        "notice": "get the ERC173 contract owner"
      },
      "supportsInterface(bytes4)": {
        "notice": "query whether contract has registered support for given interface"
      },
      "transferOwnership(address)": {
        "notice": "transfer contract ownership to new account"
      }
    },
    "version": 1
  },
  "storageLayout": {
    "storage": [],
    "types": null
  }
}