{
  "address": "0x8ADBE11fF16d449783bB460485490F1b658E527d",
  "abi": [
    {
      "anonymous": false,
      "inputs": [
        {
          "indexed": true,
          "internalType": "address",
          "name": "from",
          "type": "address"
        },
        {
          "indexed": true,
          "internalType": "address",
          "name": "cloned",
          "type": "address"
        }
      ],
      "name": "Clone",
      "type": "event"
    },
    {
      "anonymous": false,
      "inputs": [
        {
          "components": [
            {
              "internalType": "address",
              "name": "target",
              "type": "address"
            },
            {
              "internalType": "enum IDiamondCuttable.FacetCutAction",
              "name": "action",
              "type": "uint8"
            },
            {
              "internalType": "bytes4[]",
              "name": "selectors",
              "type": "bytes4[]"
            }
          ],
          "indexed": false,
          "internalType": "struct IDiamondCuttable.FacetCut[]",
          "name": "facetCuts",
          "type": "tuple[]"
        },
        {
          "indexed": false,
          "internalType": "address",
          "name": "target",
          "type": "address"
        },
        {
          "indexed": false,
          "internalType": "bytes",
          "name": "data",
          "type": "bytes"
        }
      ],
      "name": "DiamondCut",
      "type": "event"
    },
    {
      "anonymous": false,
      "inputs": [
        {
          "indexed": true,
          "internalType": "address",
          "name": "previousOwner",
          "type": "address"
        },
        {
          "indexed": true,
          "internalType": "address",
          "name": "newOwner",
          "type": "address"
        }
      ],
      "name": "OwnershipTransferred",
      "type": "event"
    },
    {
      "anonymous": false,
      "inputs": [
        {
          "indexed": false,
          "internalType": "address",
          "name": "account",
          "type": "address"
        }
      ],
      "name": "Paused",
      "type": "event"
    },
    {
      "anonymous": false,
      "inputs": [
        {
          "indexed": false,
          "internalType": "address",
          "name": "account",
          "type": "address"
        }
      ],
      "name": "Unpaused",
      "type": "event"
    },
    {
      "stateMutability": "payable",
      "type": "fallback"
    },
    {
      "inputs": [],
      "name": "acceptOwnership",
      "outputs": [],
      "stateMutability": "nonpayable",
      "type": "function"
    },
    {
      "inputs": [
        {
          "components": [
            {
              "internalType": "address",
              "name": "owner",
              "type": "address"
            },
            {
              "internalType": "address",
              "name": "fallbackAddress",
              "type": "address"
            },
            {
              "internalType": "bytes",
              "name": "fallbackInitArgs",
              "type": "bytes"
            },
            {
              "internalType": "bytes4[]",
              "name": "interfaces",
              "type": "bytes4[]"
            }
          ],
          "internalType": "struct Diamond.InitArgs",
          "name": "args",
          "type": "tuple"
        }
      ],
      "name": "create",
      "outputs": [],
      "stateMutability": "nonpayable",
      "type": "function"
    },
    {
      "inputs": [
        {
          "components": [
            {
              "internalType": "address",
              "name": "target",
              "type": "address"
            },
            {
              "internalType": "enum IDiamondCuttable.FacetCutAction",
              "name": "action",
              "type": "uint8"
            },
            {
              "internalType": "bytes4[]",
              "name": "selectors",
              "type": "bytes4[]"
            }
          ],
          "internalType": "struct IDiamondCuttable.FacetCut[]",
          "name": "facetCuts",
          "type": "tuple[]"
        },
        {
          "internalType": "address",
          "name": "target",
          "type": "address"
        },
        {
          "internalType": "bytes",
          "name": "data",
          "type": "bytes"
        }
      ],
      "name": "diamondCut",
      "outputs": [],
      "stateMutability": "nonpayable",
      "type": "function"
    },
    {
      "inputs": [
        {
          "internalType": "bytes4",
          "name": "selector",
          "type": "bytes4"
        }
      ],
      "name": "facetAddress",
      "outputs": [
        {
          "internalType": "address",
          "name": "facet",
          "type": "address"
        }
      ],
      "stateMutability": "view",
      "type": "function"
    },
    {
      "inputs": [],
      "name": "facetAddresses",
      "outputs": [
        {
          "internalType": "address[]",
          "name": "addresses",
          "type": "address[]"
        }
      ],
      "stateMutability": "view",
      "type": "function"
    },
    {
      "inputs": [
        {
          "internalType": "address",
          "name": "facet",
          "type": "address"
        }
      ],
      "name": "facetFunctionSelectors",
      "outputs": [
        {
          "internalType": "bytes4[]",
          "name": "selectors",
          "type": "bytes4[]"
        }
      ],
      "stateMutability": "view",
      "type": "function"
    },
    {
      "inputs": [],
      "name": "facets",
      "outputs": [
        {
          "components": [
            {
              "internalType": "address",
              "name": "target",
              "type": "address"
            },
            {
              "internalType": "bytes4[]",
              "name": "selectors",
              "type": "bytes4[]"
            }
          ],
          "internalType": "struct IDiamondLoupe.Facet[]",
          "name": "diamondFacets",
          "type": "tuple[]"
        }
      ],
      "stateMutability": "view",
      "type": "function"
    },
    {
      "inputs": [],
      "name": "getFallbackAddress",
      "outputs": [
        {
          "internalType": "address",
          "name": "",
          "type": "address"
        }
      ],
      "stateMutability": "view",
      "type": "function"
    },
    {
      "inputs": [
        {
          "components": [
            {
              "internalType": "address",
              "name": "owner",
              "type": "address"
            },
            {
              "internalType": "address",
              "name": "fallbackAddress",
              "type": "address"
            },
            {
              "internalType": "bytes",
              "name": "fallbackInitArgs",
              "type": "bytes"
            },
            {
              "internalType": "bytes4[]",
              "name": "interfaces",
              "type": "bytes4[]"
            }
          ],
          "internalType": "struct Diamond.InitArgs",
          "name": "args",
          "type": "tuple"
        }
      ],
      "name": "init",
      "outputs": [],
      "stateMutability": "nonpayable",
      "type": "function"
    },
    {
      "inputs": [],
      "name": "nomineeOwner",
      "outputs": [
        {
          "internalType": "address",
          "name": "",
          "type": "address"
        }
      ],
      "stateMutability": "view",
      "type": "function"
    },
    {
      "inputs": [],
      "name": "owner",
      "outputs": [
        {
          "internalType": "address",
          "name": "",
          "type": "address"
        }
      ],
      "stateMutability": "view",
      "type": "function"
    },
    {
      "inputs": [],
      "name": "pause",
      "outputs": [],
      "stateMutability": "nonpayable",
      "type": "function"
    },
    {
      "inputs": [],
      "name": "paused",
      "outputs": [
        {
          "internalType": "bool",
          "name": "",
          "type": "bool"
        }
      ],
      "stateMutability": "view",
      "type": "function"
    },
    {
      "inputs": [
        {
          "internalType": "bytes4",
          "name": "interfaceId",
          "type": "bytes4"
        },
        {
          "internalType": "bool",
          "name": "supported",
          "type": "bool"
        }
      ],
      "name": "setSupportedInterface",
      "outputs": [],
      "stateMutability": "nonpayable",
      "type": "function"
    },
    {
      "inputs": [
        {
          "internalType": "bytes4",
          "name": "interfaceId",
          "type": "bytes4"
        }
      ],
      "name": "supportsInterface",
      "outputs": [
        {
          "internalType": "bool",
          "name": "",
          "type": "bool"
        }
      ],
      "stateMutability": "view",
      "type": "function"
    },
    {
      "inputs": [
        {
          "internalType": "address",
          "name": "account",
          "type": "address"
        }
      ],
      "name": "transferOwnership",
      "outputs": [],
      "stateMutability": "nonpayable",
      "type": "function"
    },
    {
      "inputs": [],
      "name": "unpause",
      "outputs": [],
      "stateMutability": "nonpayable",
      "type": "function"
    },
    {
      "stateMutability": "payable",
      "type": "receive"
    }
  ],
  "transactionHash": "0x1ebec3b7da806e3e2d017c2b02ffe7633ace2de2c6001fd012f821f097164a7f",
  "args": [],
  "numDeployments": 2,
  "solcInputHash": "c003a3b6878b019a81b524b9a54d0274",
  "bytecode": "0x608060405234801561001057600080fd5b50614ea0806100206000396000f3fe6080604052600436106101025760003560e01c80637a0ed627116100955780638da5cb5b116100645780638da5cb5b1461036d57806391c433bc14610398578063adfca15e146103c1578063cdffacc6146103fe578063f2fde38b1461043b57610109565b80637a0ed627146102d75780637f73528b146103025780638456cb591461032b5780638ab5150a1461034257610109565b80633f4ba83a116100d15780633f4ba83a1461025357806352ef6b2c1461026a5780635c975abb1461029557806379ba5097146102c057610109565b806301ffc9a71461019957806312f343d6146101d65780631f931c1c146101ff5780632c4080591461022857610109565b3661010957005b6000610113610464565b90506101348173ffffffffffffffffffffffffffffffffffffffff166105e3565b610173576040517f08c379a000000000000000000000000000000000000000000000000000000000815260040161016a90614414565b60405180910390fd5b3660008037600080366000845af43d6000803e8060008114610194573d6000f35b3d6000fd5b3480156101a557600080fd5b506101c060048036038101906101bb9190613915565b6105f6565b6040516101cd91906141d3565b60405180910390f35b3480156101e257600080fd5b506101fd60048036038101906101f891906139bb565b610826565b005b34801561020b57600080fd5b506102266004803603810190610221919061388c565b6108fc565b005b34801561023457600080fd5b5061023d610a0a565b60405161024a919061410d565b60405180910390f35b34801561025f57600080fd5b50610268610a3d565b005b34801561027657600080fd5b5061027f610b33565b60405161028c9190614128565b60405180910390f35b3480156102a157600080fd5b506102aa610e0d565b6040516102b791906141d3565b60405180910390f35b3480156102cc57600080fd5b506102d5610e2d565b005b3480156102e357600080fd5b506102ec610f81565b6040516102f991906141b1565b60405180910390f35b34801561030e57600080fd5b506103296004803603810190610324919061393e565b611749565b005b34801561033757600080fd5b50610340611808565b005b34801561034e57600080fd5b506103576118fe565b604051610364919061410d565b60405180910390f35b34801561037957600080fd5b50610382611931565b60405161038f919061410d565b60405180910390f35b3480156103a457600080fd5b506103bf60048036038101906103ba919061397a565b611964565b005b3480156103cd57600080fd5b506103e860048036038101906103e39190613863565b611d05565b6040516103f5919061414a565b60405180910390f35b34801561040a57600080fd5b5061042560048036038101906104209190613915565b611f75565b604051610432919061410d565b60405180910390f35b34801561044757600080fd5b50610462600480360381019061045d9190613863565b611fdc565b005b60008060007f177481ac65e4292921c69f62d1cc7f57541261e5d61c8175cf4e36a01c9bfc939050809150600082600001600080357fffffffff00000000000000000000000000000000000000000000000000000000167bffffffffffffffffffffffffffffffffffffffffffffffffffffffff19167bffffffffffffffffffffffffffffffffffffffffffffffffffffffff191681526020019081526020016000205460601c9050600073ffffffffffffffffffffffffffffffffffffffff168173ffffffffffffffffffffffffffffffffffffffff1614156105da578260030160009054906101000a900473ffffffffffffffffffffffffffffffffffffffff169050600073ffffffffffffffffffffffffffffffffffffffff168173ffffffffffffffffffffffffffffffffffffffff1614156105d9576040517f08c379a00000000000000000000000000000000000000000000000000000000081526004016105d090614334565b60405180910390fd5b5b80935050505090565b600080823b905060008111915050919050565b600080610601612092565b90507fe78a39d8000000000000000000000000000000000000000000000000000000007bffffffffffffffffffffffffffffffffffffffffffffffffffffffff1916837bffffffffffffffffffffffffffffffffffffffffffffffffffffffff191614806106cc57507f7f5828d0000000000000000000000000000000000000000000000000000000007bffffffffffffffffffffffffffffffffffffffffffffffffffffffff1916837bffffffffffffffffffffffffffffffffffffffffffffffffffffffff1916145b8061073457507f01ffc9a7000000000000000000000000000000000000000000000000000000007bffffffffffffffffffffffffffffffffffffffffffffffffffffffff1916837bffffffffffffffffffffffffffffffffffffffffffffffffffffffff1916145b8061079c57507f1f931c1c000000000000000000000000000000000000000000000000000000007bffffffffffffffffffffffffffffffffffffffffffffffffffffffff1916837bffffffffffffffffffffffffffffffffffffffffffffffffffffffff1916145b8061080457507f48e2b093000000000000000000000000000000000000000000000000000000007bffffffffffffffffffffffffffffffffffffffffffffffffffffffff1916837bffffffffffffffffffffffffffffffffffffffffffffffffffffffff1916145b8061081e575061081d83826120bf90919063ffffffff16565b5b915050919050565b60006108313061212a565b90508073ffffffffffffffffffffffffffffffffffffffff166391c433bc836040518263ffffffff1660e01b815260040161086c9190614454565b600060405180830381600087803b15801561088657600080fd5b505af115801561089a573d6000803e3d6000fd5b505050508073ffffffffffffffffffffffffffffffffffffffff163073ffffffffffffffffffffffffffffffffffffffff167fb557324045551eafb0789d69d5679a7017a31840124b2220df4b81dea45ec08360405160405180910390a35050565b6109046121ff565b60000160009054906101000a900473ffffffffffffffffffffffffffffffffffffffff1673ffffffffffffffffffffffffffffffffffffffff163373ffffffffffffffffffffffffffffffffffffffff1614610995576040517f08c379a000000000000000000000000000000000000000000000000000000000815260040161098c90614374565b60405180910390fd5b610a038585906109a591906147af565b8484848080601f016020809104026020016040519081016040528093929190818152602001838380828437600081840152601f19601f820116905080830192505050505050506109f361222c565b612259909392919063ffffffff16565b5050505050565b6000610a1461222c565b60030160009054906101000a900473ffffffffffffffffffffffffffffffffffffffff16905090565b610a456121ff565b60000160009054906101000a900473ffffffffffffffffffffffffffffffffffffffff1673ffffffffffffffffffffffffffffffffffffffff163373ffffffffffffffffffffffffffffffffffffffff1614610ad6576040517f08c379a0000000000000000000000000000000000000000000000000000000008152600401610acd90614374565b60405180910390fd5b6000610ae06125bd565b60000160006101000a81548160ff0219169083151502179055507f5db9ee0a495bf2e6ff9c91a7834c1ba4fdd244a5e8aa4e537bd38aeae4b073aa33604051610b29919061410d565b60405180910390a1565b60606000610b3f61222c565b90508060010160009054906101000a900461ffff1661ffff1667ffffffffffffffff811115610b97577f4e487b7100000000000000000000000000000000000000000000000000000000600052604160045260246000fd5b604051908082528060200260200182016040528015610bc55781602001602082028036833780820191505090505b50915060008060005b8360010160009054906101000a900461ffff1661ffff16821015610e0357600084600201600083815260200190815260200160002054905060005b6008811015610dee578380610c1d90614849565b9450508560010160009054906101000a900461ffff1661ffff16841115610c4357610dee565b6000600582901b83901b90506000876000016000837bffffffffffffffffffffffffffffffffffffffffffffffffffffffff19167bffffffffffffffffffffffffffffffffffffffffffffffffffffffff191681526020019081526020016000205460601c90506000805b88811015610d46578a8181518110610cef577f4e487b7100000000000000000000000000000000000000000000000000000000600052603260045260246000fd5b602002602001015173ffffffffffffffffffffffffffffffffffffffff168373ffffffffffffffffffffffffffffffffffffffff161415610d335760019150610d46565b8080610d3e90614849565b915050610cae565b508015610d5557505050610ddb565b818a8981518110610d8f577f4e487b7100000000000000000000000000000000000000000000000000000000600052603260045260246000fd5b602002602001019073ffffffffffffffffffffffffffffffffffffffff16908173ffffffffffffffffffffffffffffffffffffffff16815250508780610dd490614849565b9850505050505b8080610de690614849565b915050610c09565b50508080610dfb90614849565b915050610bce565b5081845250505090565b6000610e176125bd565b60000160009054906101000a900460ff16905090565b610e356125ea565b60000160009054906101000a900473ffffffffffffffffffffffffffffffffffffffff1673ffffffffffffffffffffffffffffffffffffffff163373ffffffffffffffffffffffffffffffffffffffff1614610ec6576040517f08c379a0000000000000000000000000000000000000000000000000000000008152600401610ebd90614354565b60405180910390fd5b6000610ed06121ff565b90503373ffffffffffffffffffffffffffffffffffffffff168160000160009054906101000a900473ffffffffffffffffffffffffffffffffffffffff1673ffffffffffffffffffffffffffffffffffffffff167f8be0079c531659141344cd1fd0a4f28419497f9722a3daafe3b4186f6b6457e060405160405180910390a3610f63338261261790919063ffffffff16565b610f7e6000610f706125ea565b61265e90919063ffffffff16565b50565b60606000610f8d61222c565b90508060010160009054906101000a900461ffff1661ffff1667ffffffffffffffff811115610fe5577f4e487b7100000000000000000000000000000000000000000000000000000000600052604160045260246000fd5b60405190808252806020026020018201604052801561101e57816020015b61100b613490565b8152602001906001900390816110035790505b50915060008160010160009054906101000a900461ffff1661ffff1667ffffffffffffffff811115611079577f4e487b7100000000000000000000000000000000000000000000000000000000600052604160045260246000fd5b6040519080825280602002602001820160405280156110a75781602001602082028036833780820191505090505b50905060008060005b8460010160009054906101000a900461ffff1661ffff1682101561168957600085600201600083815260200190815260200160002054905060005b60088110156116745783806110ff90614849565b9450508660010160009054906101000a900461ffff1661ffff1684111561112557611674565b6000600582901b83901b90506000886000016000837bffffffffffffffffffffffffffffffffffffffffffffffffffffffff19167bffffffffffffffffffffffffffffffffffffffffffffffffffffffff191681526020019081526020016000205460601c90506000805b888110156113e1578273ffffffffffffffffffffffffffffffffffffffff168c82815181106111e8577f4e487b7100000000000000000000000000000000000000000000000000000000600052603260045260246000fd5b60200260200101516000015173ffffffffffffffffffffffffffffffffffffffff1614156113ce57838c828151811061124a577f4e487b7100000000000000000000000000000000000000000000000000000000600052603260045260246000fd5b6020026020010151602001518b838151811061128f577f4e487b7100000000000000000000000000000000000000000000000000000000600052603260045260246000fd5b602002602001015160ff16815181106112d1577f4e487b7100000000000000000000000000000000000000000000000000000000600052603260045260246000fd5b60200260200101907bffffffffffffffffffffffffffffffffffffffffffffffffffffffff191690817bffffffffffffffffffffffffffffffffffffffffffffffffffffffff19168152505060ff8a8281518110611358577f4e487b7100000000000000000000000000000000000000000000000000000000600052603260045260246000fd5b602002602001015160ff161061136d57600080fd5b8981815181106113a6577f4e487b7100000000000000000000000000000000000000000000000000000000600052603260045260246000fd5b6020026020010180518091906113bb90614892565b60ff1660ff1681525050600191506113e1565b80806113d990614849565b915050611190565b5080156113f057505050611661565b818b898151811061142a577f4e487b7100000000000000000000000000000000000000000000000000000000600052603260045260246000fd5b60200260200101516000019073ffffffffffffffffffffffffffffffffffffffff16908173ffffffffffffffffffffffffffffffffffffffff16815250508960010160009054906101000a900461ffff1661ffff1667ffffffffffffffff8111156114be577f4e487b7100000000000000000000000000000000000000000000000000000000600052604160045260246000fd5b6040519080825280602002602001820160405280156114ec5781602001602082028036833780820191505090505b508b8981518110611526577f4e487b7100000000000000000000000000000000000000000000000000000000600052603260045260246000fd5b602002602001015160200181905250828b898151811061156f577f4e487b7100000000000000000000000000000000000000000000000000000000600052603260045260246000fd5b6020026020010151602001516000815181106115b4577f4e487b7100000000000000000000000000000000000000000000000000000000600052603260045260246000fd5b60200260200101907bffffffffffffffffffffffffffffffffffffffffffffffffffffffff191690817bffffffffffffffffffffffffffffffffffffffffffffffffffffffff191681525050600189898151811061163b577f4e487b7100000000000000000000000000000000000000000000000000000000600052603260045260246000fd5b602002602001019060ff16908160ff1681525050878061165a90614849565b9850505050505b808061166c90614849565b9150506110eb565b5050808061168190614849565b9150506110b0565b5060005b8281101561173e5760008482815181106116d0577f4e487b7100000000000000000000000000000000000000000000000000000000600052603260045260246000fd5b602002602001015160ff1690506000878381518110611718577f4e487b7100000000000000000000000000000000000000000000000000000000600052603260045260246000fd5b60200260200101516020015190508181525050808061173690614849565b91505061168d565b508185525050505090565b6117516121ff565b60000160009054906101000a900473ffffffffffffffffffffffffffffffffffffffff1673ffffffffffffffffffffffffffffffffffffffff163373ffffffffffffffffffffffffffffffffffffffff16146117e2576040517f08c379a00000000000000000000000000000000000000000000000000000000081526004016117d990614374565b60405180910390fd5b60006117ec612092565b90506118038383836126a59092919063ffffffff16565b505050565b6118106121ff565b60000160009054906101000a900473ffffffffffffffffffffffffffffffffffffffff1673ffffffffffffffffffffffffffffffffffffffff163373ffffffffffffffffffffffffffffffffffffffff16146118a1576040517f08c379a000000000000000000000000000000000000000000000000000000000815260040161189890614374565b60405180910390fd5b60016118ab6125bd565b60000160006101000a81548160ff0219169083151502179055507f62e78cea01bee320cd4e420270b5ea74000d11b0c9f74754ebdbfc544b05a258336040516118f4919061410d565b60405180910390a1565b60006119086125ea565b60000160009054906101000a900473ffffffffffffffffffffffffffffffffffffffff16905090565b600061193b6121ff565b60000160009054906101000a900473ffffffffffffffffffffffffffffffffffffffff16905090565b600061196e61277e565b90508060000160019054906101000a900460ff1661199e578060000160009054906101000a900460ff16156119a7565b6119a66127ab565b5b6119e6576040517f08c379a00000000000000000000000000000000000000000000000000000000081526004016119dd90614314565b60405180910390fd5b60008160000160019054906101000a900460ff161590508015611a3e5760018260000160016101000a81548160ff02191690831515021790555060018260000160006101000a81548160ff0219169083151502179055505b611a6a836000016020810190611a549190613863565b611a5c6121ff565b61261790919063ffffffff16565b6000611a7461222c565b9050836020016020810190611a899190613863565b8160030160006101000a81548173ffffffffffffffffffffffffffffffffffffffff021916908373ffffffffffffffffffffffffffffffffffffffff160217905550600080856020016020810190611ae19190613863565b73ffffffffffffffffffffffffffffffffffffffff16868060400190611b0791906144cd565b604051602401611b189291906141ee565b6040516020818303038152906040527f6a148876000000000000000000000000000000000000000000000000000000007bffffffffffffffffffffffffffffffffffffffffffffffffffffffff19166020820180517bffffffffffffffffffffffffffffffffffffffffffffffffffffffff8381831617835250505050604051611ba291906140f6565b600060405180830381855af49150503d8060008114611bdd576040519150601f19603f3d011682016040523d82523d6000602084013e611be2565b606091505b5091509150818190611c2a576040517f08c379a0000000000000000000000000000000000000000000000000000000008152600401611c219190614212565b60405180910390fd5b506000611c35612092565b905060005b878060600190611c4a9190614476565b9050811015611cd757611cc4888060600190611c669190614476565b83818110611c9d577f4e487b7100000000000000000000000000000000000000000000000000000000600052603260045260246000fd5b9050602002016020810190611cb29190613915565b6001846126a59092919063ffffffff16565b8080611ccf90614849565b915050611c3a565b50505050508015611d005760008260000160016101000a81548160ff0219169083151502179055505b505050565b60606000611d1161222c565b90508060010160009054906101000a900461ffff1661ffff1667ffffffffffffffff811115611d69577f4e487b7100000000000000000000000000000000000000000000000000000000600052604160045260246000fd5b604051908082528060200260200182016040528015611d975781602001602082028036833780820191505090505b50915060008060005b8360010160009054906101000a900461ffff1661ffff16821015611f6957600084600201600083815260200190815260200160002054905060005b6008811015611f54578380611def90614849565b9450508560010160009054906101000a900461ffff1661ffff16841115611e1557611f54565b6000600582901b83901b9050866000016000827bffffffffffffffffffffffffffffffffffffffffffffffffffffffff19167bffffffffffffffffffffffffffffffffffffffffffffffffffffffff191681526020019081526020016000205460601c73ffffffffffffffffffffffffffffffffffffffff168973ffffffffffffffffffffffffffffffffffffffff161415611f405780888781518110611ee5577f4e487b7100000000000000000000000000000000000000000000000000000000600052603260045260246000fd5b60200260200101907bffffffffffffffffffffffffffffffffffffffffffffffffffffffff191690817bffffffffffffffffffffffffffffffffffffffffffffffffffffffff1916815250508580611f3c90614849565b9650505b508080611f4c90614849565b915050611ddb565b50508080611f6190614849565b915050611da0565b50818452505050919050565b6000611f7f61222c565b6000016000837bffffffffffffffffffffffffffffffffffffffffffffffffffffffff19167bffffffffffffffffffffffffffffffffffffffffffffffffffffffff191681526020019081526020016000205460601c9050919050565b611fe46121ff565b60000160009054906101000a900473ffffffffffffffffffffffffffffffffffffffff1673ffffffffffffffffffffffffffffffffffffffff163373ffffffffffffffffffffffffffffffffffffffff1614612075576040517f08c379a000000000000000000000000000000000000000000000000000000000815260040161206c90614374565b60405180910390fd5b61208f816120816125ea565b61265e90919063ffffffff16565b50565b6000807f326d0c59a7612f6a9919e2a8ee333c80ba689d8ba2634de89c85cbb04832e70590508091505090565b6000826000016000837bffffffffffffffffffffffffffffffffffffffffffffffffffffffff19167bffffffffffffffffffffffffffffffffffffffffffffffffffffffff1916815260200190815260200160002060009054906101000a900460ff16905092915050565b60006040517f3d602d80600a3d3981f3363d3d373d3d3d363d7300000000000000000000000081528260601b60148201527f5af43d82803e903d91602b57fd5bf3000000000000000000000000000000000060288201526037816000f0915050600073ffffffffffffffffffffffffffffffffffffffff168173ffffffffffffffffffffffffffffffffffffffff1614156121fa576040517f08c379a00000000000000000000000000000000000000000000000000000000081526004016121f1906142d4565b60405180910390fd5b919050565b6000807f8a22373512790c48b83a1fe2efdd2888d4a917bcdc24d0adf63e60f67168046090508091505090565b6000807f177481ac65e4292921c69f62d1cc7f57541261e5d61c8175cf4e36a01c9bfc9390508091505090565b60008460010160009054906101000a900461ffff1661ffff16905060008190506000806007831611156122a357866002016000600384901c81526020019081526020016000205490505b60005b865181101561251c5760008782815181106122ea577f4e487b7100000000000000000000000000000000000000000000000000000000600052603260045260246000fd5b60200260200101519050600081602001519050600082604001515111612345576040517f08c379a000000000000000000000000000000000000000000000000000000000815260040161233c90614274565b60405180910390fd5b6000600281111561237f577f4e487b7100000000000000000000000000000000000000000000000000000000600052602160045260246000fd5b8160028111156123b8577f4e487b7100000000000000000000000000000000000000000000000000000000600052602160045260246000fd5b14156123e2576123d58585848d6127bc909392919063ffffffff16565b809550819650505061250d565b6001600281111561241c577f4e487b7100000000000000000000000000000000000000000000000000000000600052602160045260246000fd5b816002811115612455577f4e487b7100000000000000000000000000000000000000000000000000000000600052602160045260246000fd5b14156124735761246e828b612aa390919063ffffffff16565b61250c565b6002808111156124ac577f4e487b7100000000000000000000000000000000000000000000000000000000600052602160045260246000fd5b8160028111156124e5577f4e487b7100000000000000000000000000000000000000000000000000000000600052602160045260246000fd5b141561250b576125028585848d612da6909392919063ffffffff16565b80955081965050505b5b5b505080806001019150506122a6565b5082821461254457818760010160006101000a81548161ffff021916908361ffff1602179055505b600060078316111561256f5780876002016000600385901c8152602001908152602001600020819055505b7f8faa70878671ccd212d20771b795c50af8fd3ff6cf27f4bde57e5d4de0aeb6738686866040516125a29392919061416c565b60405180910390a16125b485856132d1565b50505050505050565b6000807f68721c0bbf2c02a4d65000340d1370666be06a630022208d4baa9bd7a4b6fea890508091505090565b6000807f24aa1f7b31fd188a8d3ecfb06bc55c806040e59b03bd4396283442fce661789090508091505090565b808260000160006101000a81548173ffffffffffffffffffffffffffffffffffffffff021916908373ffffffffffffffffffffffffffffffffffffffff1602179055505050565b808260000160006101000a81548173ffffffffffffffffffffffffffffffffffffffff021916908373ffffffffffffffffffffffffffffffffffffffff1602179055505050565b63ffffffff60e01b827bffffffffffffffffffffffffffffffffffffffffffffffffffffffff1916141561270e576040517f08c379a000000000000000000000000000000000000000000000000000000000815260040161270590614254565b60405180910390fd5b80836000016000847bffffffffffffffffffffffffffffffffffffffffffffffffffffffff19167bffffffffffffffffffffffffffffffffffffffffffffffffffffffff1916815260200190815260200160002060006101000a81548160ff021916908315150217905550505050565b6000807f2ae1e818fc317b4c150084d41bf7468a28b0861c8b85a3e58e4bb4d5dbbc6aa190508091505090565b60006127b6306105e3565b15905090565b6000803073ffffffffffffffffffffffffffffffffffffffff16836000015173ffffffffffffffffffffffffffffffffffffffff16148061281c575061281b836000015173ffffffffffffffffffffffffffffffffffffffff166105e3565b5b61285b576040517f08c379a0000000000000000000000000000000000000000000000000000000008152600401612852906142f4565b60405180910390fd5b60005b836040015151811015612a93576000846040015182815181106128aa577f4e487b7100000000000000000000000000000000000000000000000000000000600052603260045260246000fd5b602002602001015190506000886000016000837bffffffffffffffffffffffffffffffffffffffffffffffffffffffff19167bffffffffffffffffffffffffffffffffffffffffffffffffffffffff19168152602001908152602001600020549050600073ffffffffffffffffffffffffffffffffffffffff168160601c73ffffffffffffffffffffffffffffffffffffffff161461297e576040517f08c379a000000000000000000000000000000000000000000000000000000000815260040161297590614434565b60405180910390fd5b8760001b866000015160601b6bffffffffffffffffffffffff191617896000016000847bffffffffffffffffffffffffffffffffffffffffffffffffffffffff19167bffffffffffffffffffffffffffffffffffffffffffffffffffffffff19168152602001908152602001600020819055506000600560078a16901b905080837bffffffffffffffffffffffffffffffffffffffffffffffffffffffff1916901c817fffffffff0000000000000000000000000000000000000000000000000000000060001b901c19891617975060e0811415612a7b57878a600201600060038c901c8152602001908152602001600020819055506000801b97505b8880600101995050505050808060010191505061285e565b5084849150915094509492505050565b612ac6816000015173ffffffffffffffffffffffffffffffffffffffff166105e3565b612b05576040517f08c379a0000000000000000000000000000000000000000000000000000000008152600401612afc906143f4565b60405180910390fd5b60005b816040015151811015612da157600082604001518281518110612b54577f4e487b7100000000000000000000000000000000000000000000000000000000600052603260045260246000fd5b602002602001015190506000846000016000837bffffffffffffffffffffffffffffffffffffffffffffffffffffffff19167bffffffffffffffffffffffffffffffffffffffffffffffffffffffff1916815260200190815260200160002054905060008160601c9050600073ffffffffffffffffffffffffffffffffffffffff168173ffffffffffffffffffffffffffffffffffffffff161415612c2e576040517f08c379a0000000000000000000000000000000000000000000000000000000008152600401612c2590614234565b60405180910390fd5b3073ffffffffffffffffffffffffffffffffffffffff168173ffffffffffffffffffffffffffffffffffffffff161415612c9d576040517f08c379a0000000000000000000000000000000000000000000000000000000008152600401612c9490614394565b60405180910390fd5b846000015173ffffffffffffffffffffffffffffffffffffffff168173ffffffffffffffffffffffffffffffffffffffff161415612d10576040517f08c379a0000000000000000000000000000000000000000000000000000000008152600401612d0790614294565b60405180910390fd5b846000015160601b6bffffffffffffffffffffffff19166bffffffffffffffffffffffff60001b831617866000016000857bffffffffffffffffffffffffffffffffffffffffffffffffffffffff19167bffffffffffffffffffffffffffffffffffffffffffffffffffffffff19168152602001908152602001600020819055505050508080600101915050612b08565b505050565b600080600073ffffffffffffffffffffffffffffffffffffffff16836000015173ffffffffffffffffffffffffffffffffffffffff1614612e1c576040517f08c379a0000000000000000000000000000000000000000000000000000000008152600401612e13906142b4565b60405180910390fd5b6000600386901c9050600060078716905060005b8560400151518110156132b657600086604001518281518110612e7c577f4e487b7100000000000000000000000000000000000000000000000000000000600052603260045260246000fd5b6020026020010151905060008a6000016000837bffffffffffffffffffffffffffffffffffffffffffffffffffffffff19167bffffffffffffffffffffffffffffffffffffffffffffffffffffffff19168152602001908152602001600020549050600073ffffffffffffffffffffffffffffffffffffffff168160601c73ffffffffffffffffffffffffffffffffffffffff161415612f51576040517f08c379a0000000000000000000000000000000000000000000000000000000008152600401612f4890614234565b60405180910390fd5b3073ffffffffffffffffffffffffffffffffffffffff168160601c73ffffffffffffffffffffffffffffffffffffffff161415612fc3576040517f08c379a0000000000000000000000000000000000000000000000000000000008152600401612fba90614394565b60405180910390fd5b6000801b891415612ff8578480600190039550508a600201600086815260200190815260200160002054985060079350613002565b8380600190039450505b6000806000600587901b8c901b9250847bffffffffffffffffffffffffffffffffffffffffffffffffffffffff1916837bffffffffffffffffffffffffffffffffffffffffffffffffffffffff191614613124578d6000016000847bffffffffffffffffffffffffffffffffffffffffffffffffffffffff19167bffffffffffffffffffffffffffffffffffffffffffffffffffffffff19168152602001908152602001600020546bffffffffffffffffffffffff19166bffffffffffffffffffffffff60001b8516178e6000016000857bffffffffffffffffffffffffffffffffffffffffffffffffffffffff19167bffffffffffffffffffffffffffffffffffffffffffffffffffffffff19168152602001908152602001600020819055505b8d6000016000867bffffffffffffffffffffffffffffffffffffffffffffffffffffffff19167bffffffffffffffffffffffffffffffffffffffffffffffffffffffff191681526020019081526020016000206000905560008460001c61ffff169050600381901c9250600560078216901b91505087821461322a5760008e600201600084815260200190815260200160002054905081847bffffffffffffffffffffffffffffffffffffffffffffffffffffffff1916901c827fffffffff0000000000000000000000000000000000000000000000000000000060001b901c198216179050808f6002016000858152602001908152602001600020819055505061327b565b80837bffffffffffffffffffffffffffffffffffffffffffffffffffffffff1916901c817fffffffff0000000000000000000000000000000000000000000000000000000060001b901c198d16179b505b60008714156132a4578d6002016000898152602001908152602001600020600090556000801b9b505b50505050508080600101915050612e30565b5080600383901b179650868693509350505094509492505050565b60008151141515600073ffffffffffffffffffffffffffffffffffffffff168373ffffffffffffffffffffffffffffffffffffffff161415151461334a576040517f08c379a0000000000000000000000000000000000000000000000000000000008152600401613341906143d4565b60405180910390fd5b600073ffffffffffffffffffffffffffffffffffffffff168273ffffffffffffffffffffffffffffffffffffffff161461348c573073ffffffffffffffffffffffffffffffffffffffff168273ffffffffffffffffffffffffffffffffffffffff1614613410576133d08273ffffffffffffffffffffffffffffffffffffffff166105e3565b61340f576040517f08c379a0000000000000000000000000000000000000000000000000000000008152600401613406906143b4565b60405180910390fd5b5b60008273ffffffffffffffffffffffffffffffffffffffff168260405161343791906140f6565b600060405180830381855af49150503d8060008114613472576040519150601f19603f3d011682016040523d82523d6000602084013e613477565b606091505b505090508061348a573d6000803e3d6000fd5b505b5050565b6040518060400160405280600073ffffffffffffffffffffffffffffffffffffffff168152602001606081525090565b60006134d36134ce84614549565b614524565b905080838252602082019050828560208602820111156134f257600080fd5b60005b858110156135225781613508888261368e565b8452602084019350602083019250506001810190506134f5565b5050509392505050565b600061353f61353a84614575565b614524565b9050808382526020820190508285602086028201111561355e57600080fd5b60005b858110156135a857813567ffffffffffffffff81111561358057600080fd5b80860161358d898261372c565b85526020850194506020840193505050600181019050613561565b5050509392505050565b60006135c56135c0846145a1565b614524565b9050828152602081018484840111156135dd57600080fd5b6135e88482856147d6565b509392505050565b6000813590506135ff81614e15565b92915050565b600082601f83011261361657600080fd5b81356136268482602086016134c0565b91505092915050565b60008083601f84011261364157600080fd5b8235905067ffffffffffffffff81111561365a57600080fd5b60208301915083602082028301111561367257600080fd5b9250929050565b60008135905061368881614e2c565b92915050565b60008135905061369d81614e43565b92915050565b60008083601f8401126136b557600080fd5b8235905067ffffffffffffffff8111156136ce57600080fd5b6020830191508360018202830111156136e657600080fd5b9250929050565b600082601f8301126136fe57600080fd5b813561370e8482602086016135b2565b91505092915050565b60008135905061372681614e5a565b92915050565b60006060828403121561373e57600080fd5b6137486060614524565b90506000613758848285016135f0565b600083015250602061376c84828501613717565b602083015250604082013567ffffffffffffffff81111561378c57600080fd5b61379884828501613605565b60408301525092915050565b6000608082840312156137b657600080fd5b81905092915050565b6000608082840312156137d157600080fd5b6137db6080614524565b905060006137eb848285016135f0565b60008301525060206137ff848285016135f0565b602083015250604082013567ffffffffffffffff81111561381f57600080fd5b61382b848285016136ed565b604083015250606082013567ffffffffffffffff81111561384b57600080fd5b61385784828501613605565b60608301525092915050565b60006020828403121561387557600080fd5b6000613883848285016135f0565b91505092915050565b6000806000806000606086880312156138a457600080fd5b600086013567ffffffffffffffff8111156138be57600080fd5b6138ca8882890161362f565b955095505060206138dd888289016135f0565b935050604086013567ffffffffffffffff8111156138fa57600080fd5b613906888289016136a3565b92509250509295509295909350565b60006020828403121561392757600080fd5b60006139358482850161368e565b91505092915050565b6000806040838503121561395157600080fd5b600061395f8582860161368e565b925050602061397085828601613679565b9150509250929050565b60006020828403121561398c57600080fd5b600082013567ffffffffffffffff8111156139a657600080fd5b6139b2848285016137a4565b91505092915050565b6000602082840312156139cd57600080fd5b600082013567ffffffffffffffff8111156139e757600080fd5b6139f3848285016137bf565b91505092915050565b6000613a088383613a54565b60208301905092915050565b6000613a208383613c85565b60208301905092915050565b6000613a388383613fff565b905092915050565b6000613a4c838361404f565b905092915050565b613a5d8161471b565b82525050565b613a6c8161471b565b82525050565b6000613a7d82614612565b613a878185614688565b9350613a92836145d2565b8060005b83811015613ac3578151613aaa88826139fc565b9750613ab583614654565b925050600181019050613a96565b5085935050505092915050565b6000613adb8261461d565b613ae58185614699565b9350613af0836145e2565b8060005b83811015613b21578151613b088882613a14565b9750613b1383614661565b925050600181019050613af4565b5085935050505092915050565b6000613b398261461d565b613b4381856146aa565b9350613b4e836145e2565b8060005b83811015613b7f578151613b668882613a14565b9750613b7183614661565b925050600181019050613b52565b5085935050505092915050565b6000613b9782614628565b613ba181856146bb565b935083602082028501613bb3856145f2565b8060005b85811015613bef5784840389528151613bd08582613a2c565b9450613bdb8361466e565b925060208a01995050600181019050613bb7565b50829750879550505050505092915050565b6000613c0c82614633565b613c1681856146cc565b935083602082028501613c2885614602565b8060005b85811015613c645784840389528151613c458582613a40565b9450613c508361467b565b925060208a01995050600181019050613c2c565b50829750879550505050505092915050565b613c7f8161472d565b82525050565b613c8e81614739565b82525050565b6000613ca083856146ee565b9350613cad8385846147d6565b613cb683614949565b840190509392505050565b6000613ccc8261463e565b613cd681856146dd565b9350613ce68185602086016147e5565b613cef81614949565b840191505092915050565b6000613d058261463e565b613d0f81856146ee565b9350613d1f8185602086016147e5565b613d2881614949565b840191505092915050565b6000613d3e8261463e565b613d4881856146ff565b9350613d588185602086016147e5565b80840191505092915050565b613d6d816147c4565b82525050565b6000613d7e82614649565b613d88818561470a565b9350613d988185602086016147e5565b613da181614949565b840191505092915050565b6000613db9601f8361470a565b9150613dc48261495a565b602082019050919050565b6000613ddc601c8361470a565b9150613de782614983565b602082019050919050565b6000613dff60238361470a565b9150613e0a826149ac565b604082019050919050565b6000613e2260288361470a565b9150613e2d826149fb565b604082019050919050565b6000613e45602f8361470a565b9150613e5082614a4a565b604082019050919050565b6000613e6860168361470a565b9150613e7382614a99565b602082019050919050565b6000613e8b60238361470a565b9150613e9682614ac2565b604082019050919050565b6000613eae602e8361470a565b9150613eb982614b11565b604082019050919050565b6000613ed160328361470a565b9150613edc82614b60565b604082019050919050565b6000613ef460298361470a565b9150613eff82614baf565b604082019050919050565b6000613f17601d8361470a565b9150613f2282614bfe565b602082019050919050565b6000613f3a60228361470a565b9150613f4582614c27565b604082019050919050565b6000613f5d602e8361470a565b9150613f6882614c76565b604082019050919050565b6000613f80602e8361470a565b9150613f8b82614cc5565b604082019050919050565b6000613fa360278361470a565b9150613fae82614d14565b604082019050919050565b6000613fc660268361470a565b9150613fd182614d63565b604082019050919050565b6000613fe960238361470a565b9150613ff482614db2565b604082019050919050565b60006060830160008301516140176000860182613a54565b50602083015161402a6020860182613d64565b50604083015184820360408601526140428282613ad0565b9150508091505092915050565b60006040830160008301516140676000860182613a54565b506020830151848203602086015261407f8282613ad0565b9150508091505092915050565b60006080830160008301516140a46000860182613a54565b5060208301516140b76020860182613a54565b50604083015184820360408601526140cf8282613cc1565b915050606083015184820360608601526140e98282613ad0565b9150508091505092915050565b60006141028284613d33565b915081905092915050565b60006020820190506141226000830184613a63565b92915050565b600060208201905081810360008301526141428184613a72565b905092915050565b600060208201905081810360008301526141648184613b2e565b905092915050565b600060608201905081810360008301526141868186613b8c565b90506141956020830185613a63565b81810360408301526141a78184613cfa565b9050949350505050565b600060208201905081810360008301526141cb8184613c01565b905092915050565b60006020820190506141e86000830184613c76565b92915050565b60006020820190508181036000830152614209818486613c94565b90509392505050565b6000602082019050818103600083015261422c8184613d73565b905092915050565b6000602082019050818103600083015261424d81613dac565b9050919050565b6000602082019050818103600083015261426d81613dcf565b9050919050565b6000602082019050818103600083015261428d81613df2565b9050919050565b600060208201905081810360008301526142ad81613e15565b9050919050565b600060208201905081810360008301526142cd81613e38565b9050919050565b600060208201905081810360008301526142ed81613e5b565b9050919050565b6000602082019050818103600083015261430d81613e7e565b9050919050565b6000602082019050818103600083015261432d81613ea1565b9050919050565b6000602082019050818103600083015261434d81613ec4565b9050919050565b6000602082019050818103600083015261436d81613ee7565b9050919050565b6000602082019050818103600083015261438d81613f0a565b9050919050565b600060208201905081810360008301526143ad81613f2d565b9050919050565b600060208201905081810360008301526143cd81613f50565b9050919050565b600060208201905081810360008301526143ed81613f73565b9050919050565b6000602082019050818103600083015261440d81613f96565b9050919050565b6000602082019050818103600083015261442d81613fb9565b9050919050565b6000602082019050818103600083015261444d81613fdc565b9050919050565b6000602082019050818103600083015261446e818461408c565b905092915050565b6000808335600160200384360303811261448f57600080fd5b80840192508235915067ffffffffffffffff8211156144ad57600080fd5b6020830192506020820236038313156144c557600080fd5b509250929050565b600080833560016020038436030381126144e657600080fd5b80840192508235915067ffffffffffffffff82111561450457600080fd5b60208301925060018202360383131561451c57600080fd5b509250929050565b600061452e61453f565b905061453a8282614818565b919050565b6000604051905090565b600067ffffffffffffffff8211156145645761456361491a565b5b602082029050602081019050919050565b600067ffffffffffffffff8211156145905761458f61491a565b5b602082029050602081019050919050565b600067ffffffffffffffff8211156145bc576145bb61491a565b5b6145c582614949565b9050602081019050919050565b6000819050602082019050919050565b6000819050602082019050919050565b6000819050602082019050919050565b6000819050602082019050919050565b600081519050919050565b600081519050919050565b600081519050919050565b600081519050919050565b600081519050919050565b600081519050919050565b6000602082019050919050565b6000602082019050919050565b6000602082019050919050565b6000602082019050919050565b600082825260208201905092915050565b600082825260208201905092915050565b600082825260208201905092915050565b600082825260208201905092915050565b600082825260208201905092915050565b600082825260208201905092915050565b600082825260208201905092915050565b600081905092915050565b600082825260208201905092915050565b600061472682614778565b9050919050565b60008115159050919050565b60007fffffffff0000000000000000000000000000000000000000000000000000000082169050919050565b600081905061477382614e01565b919050565b600073ffffffffffffffffffffffffffffffffffffffff82169050919050565b6000819050919050565b600060ff82169050919050565b60006147bc36848461352c565b905092915050565b60006147cf82614765565b9050919050565b82818337600083830152505050565b60005b838110156148035780820151818401526020810190506147e8565b83811115614812576000848401525b50505050565b61482182614949565b810181811067ffffffffffffffff821117156148405761483f61491a565b5b80604052505050565b600061485482614798565b91507fffffffffffffffffffffffffffffffffffffffffffffffffffffffffffffffff821415614887576148866148bc565b5b600182019050919050565b600061489d826147a2565b915060ff8214156148b1576148b06148bc565b5b600182019050919050565b7f4e487b7100000000000000000000000000000000000000000000000000000000600052601160045260246000fd5b7f4e487b7100000000000000000000000000000000000000000000000000000000600052602160045260246000fd5b7f4e487b7100000000000000000000000000000000000000000000000000000000600052604160045260246000fd5b6000601f19601f8301169050919050565b7f4469616d6f6e64426173653a2073656c6563746f72206e6f7420666f756e6400600082015250565b7f4552433136353a20696e76616c696420696e7465726661636520696400000000600082015250565b7f4469616d6f6e64426173653a206e6f2073656c6563746f72732073706563696660008201527f6965640000000000000000000000000000000000000000000000000000000000602082015250565b7f4469616d6f6e64426173653a205245504c41434520746172676574206973206960008201527f64656e746963616c000000000000000000000000000000000000000000000000602082015250565b7f4469616d6f6e64426173653a2052454d4f564520746172676574206d7573742060008201527f6265207a65726f20616464726573730000000000000000000000000000000000602082015250565b7f455243313136373a20637265617465206661696c656400000000000000000000600082015250565b7f4469616d6f6e64426173653a204144442074617267657420686173206e6f206360008201527f6f64650000000000000000000000000000000000000000000000000000000000602082015250565b7f496e697469616c697a61626c653a20636f6e747261637420697320616c72656160008201527f647920696e697469616c697a6564000000000000000000000000000000000000602082015250565b7f4469616d6f6e64426173653a206e6f20666163657420666f756e6420666f722060008201527f66756e6374696f6e207369676e61747572650000000000000000000000000000602082015250565b7f536166654f776e61626c653a2073656e646572206d757374206265206e6f6d6960008201527f6e6565206f776e65720000000000000000000000000000000000000000000000602082015250565b7f4f776e61626c653a2073656e646572206d757374206265206f776e6572000000600082015250565b7f4469616d6f6e64426173653a2073656c6563746f7220697320696d6d7574616260008201527f6c65000000000000000000000000000000000000000000000000000000000000602082015250565b7f4469616d6f6e64426173653a20696e697469616c697a6174696f6e207461726760008201527f657420686173206e6f20636f6465000000000000000000000000000000000000602082015250565b7f4469616d6f6e64426173653a20696e76616c696420696e697469616c697a617460008201527f696f6e20706172616d6574657273000000000000000000000000000000000000602082015250565b7f4469616d6f6e64426173653a205245504c41434520746172676574206861732060008201527f6e6f20636f646500000000000000000000000000000000000000000000000000602082015250565b7f50726f78793a20696d706c656d656e746174696f6e206d75737420626520636f60008201527f6e74726163740000000000000000000000000000000000000000000000000000602082015250565b7f4469616d6f6e64426173653a2073656c6563746f7220616c726561647920616460008201527f6465640000000000000000000000000000000000000000000000000000000000602082015250565b60038110614e1257614e116148eb565b5b50565b614e1e8161471b565b8114614e2957600080fd5b50565b614e358161472d565b8114614e4057600080fd5b50565b614e4c81614739565b8114614e5757600080fd5b50565b60038110614e6757600080fd5b5056fea2646970667358221220fa3323533b46ce57936e130d2109ddbf07c40b176b5455a290bc348ae25209e864736f6c63430008040033",
  "devdoc": {
    "kind": "dev",
    "methods": {
      "diamondCut((address,uint8,bytes4[])[],address,bytes)": {
        "params": {
          "data": "optional initialization call data",
          "facetCuts": "array of structured Diamond facet update data",
          "target": "optional recipient of initialization delegatecall"
        }
      },
      "facetAddress(bytes4)": {
        "params": {
          "selector": "function selector to query"
        },
        "returns": {
          "facet": "facet address (zero address if not found)"
        }
      },
      "facetAddresses()": {
        "returns": {
          "addresses": "array of facet addresses"
        }
      },
      "facetFunctionSelectors(address)": {
        "params": {
          "facet": "address of facet to query"
        },
        "returns": {
          "selectors": "array of function selectors"
        }
      },
      "facets()": {
        "returns": {
          "diamondFacets": "array of structured facet data"
        }
      },
      "owner()": {
        "returns": {
          "_0": "conract owner"
        }
      },
      "pause()": {
        "details": "pause the contract"
      },
      "paused()": {
        "details": "Should return if the contract is paused"
      },
      "supportsInterface(bytes4)": {
        "params": {
          "interfaceId": "interface id"
        },
        "returns": {
          "_0": "bool whether interface is supported"
        }
      },
      "transferOwnership(address)": {
        "details": "ownership transfer must be accepted by beneficiary before transfer is complete",
        "params": {
          "account": "address of new owner"
        }
      },
      "unpause()": {
        "details": "unpause the contract"
      }
    },
    "version": 1
  },
  "userdoc": {
    "kind": "user",
    "methods": {
      "acceptOwnership()": {
        "notice": "accept transfer of contract ownership"
      },
      "diamondCut((address,uint8,bytes4[])[],address,bytes)": {
        "notice": "update functions callable on Diamond proxy"
      },
      "facetAddress(bytes4)": {
        "notice": "get the address of the facet associated with given selector"
      },
      "facetAddresses()": {
        "notice": "get addresses of all facets used by diamond"
      },
      "facetFunctionSelectors(address)": {
        "notice": "get all selectors for given facet address"
      },
      "facets()": {
        "notice": "get all facets and their selectors"
      },
      "owner()": {
        "notice": "get the ERC173 contract owner"
      },
      "supportsInterface(bytes4)": {
        "notice": "query whether contract has registered support for given interface"
      },
      "transferOwnership(address)": {
        "notice": "transfer contract ownership to new account"
      }
    },
    "version": 1
  },
  "storageLayout": {
    "storage": [],
    "types": null
  }
}