{
  "address": "0x18f753FFdd150b5b6E6f9605B200Eb870A40315e",
  "abi": [
    {
      "inputs": [
        {
          "internalType": "address",
          "name": "custodian",
          "type": "address"
        }
      ],
      "stateMutability": "nonpayable",
      "type": "constructor"
    },
    {
      "anonymous": false,
      "inputs": [
        {
          "indexed": true,
          "internalType": "address",
          "name": "account",
          "type": "address"
        },
        {
          "indexed": false,
          "internalType": "uint256",
          "name": "totalEarning",
          "type": "uint256"
        }
      ],
      "name": "Alchemy",
      "type": "event"
    },
    {
      "anonymous": false,
      "inputs": [
        {
          "indexed": true,
          "internalType": "address",
          "name": "account",
          "type": "address"
        },
        {
          "indexed": true,
          "internalType": "address",
          "name": "operator",
          "type": "address"
        },
        {
          "indexed": false,
          "internalType": "bool",
          "name": "approved",
          "type": "bool"
        }
      ],
      "name": "ApprovalForAll",
      "type": "event"
    },
    {
      "anonymous": false,
      "inputs": [
        {
          "indexed": true,
          "internalType": "uint128",
          "name": "",
          "type": "uint128"
        },
        {
          "indexed": false,
          "internalType": "uint256",
          "name": "",
          "type": "uint256"
        }
      ],
      "name": "Finalize",
      "type": "event"
    },
    {
      "anonymous": false,
      "inputs": [
        {
          "indexed": false,
          "internalType": "uint16",
          "name": "",
          "type": "uint16"
        }
      ],
      "name": "TokenRoyaltyBpsSet",
      "type": "event"
    },
    {
      "anonymous": false,
      "inputs": [
        {
          "indexed": true,
          "internalType": "address",
          "name": "operator",
          "type": "address"
        },
        {
          "indexed": true,
          "internalType": "address",
          "name": "from",
          "type": "address"
        },
        {
          "indexed": true,
          "internalType": "address",
          "name": "to",
          "type": "address"
        },
        {
          "indexed": false,
          "internalType": "uint256[]",
          "name": "ids",
          "type": "uint256[]"
        },
        {
          "indexed": false,
          "internalType": "uint256[]",
          "name": "values",
          "type": "uint256[]"
        }
      ],
      "name": "TransferBatch",
      "type": "event"
    },
    {
      "anonymous": false,
      "inputs": [
        {
          "indexed": true,
          "internalType": "address",
          "name": "operator",
          "type": "address"
        },
        {
          "indexed": true,
          "internalType": "address",
          "name": "from",
          "type": "address"
        },
        {
          "indexed": true,
          "internalType": "address",
          "name": "to",
          "type": "address"
        },
        {
          "indexed": false,
          "internalType": "uint256",
          "name": "id",
          "type": "uint256"
        },
        {
          "indexed": false,
          "internalType": "uint256",
          "name": "value",
          "type": "uint256"
        }
      ],
      "name": "TransferSingle",
      "type": "event"
    },
    {
      "anonymous": false,
      "inputs": [
        {
          "indexed": false,
          "internalType": "string",
          "name": "value",
          "type": "string"
        },
        {
          "indexed": true,
          "internalType": "uint256",
          "name": "tokenId",
          "type": "uint256"
        }
      ],
      "name": "URI",
      "type": "event"
    },
    {
      "inputs": [
        {
          "internalType": "bytes",
          "name": "args",
          "type": "bytes"
        }
      ],
      "name": "__DiamondFallback_init",
      "outputs": [],
      "stateMutability": "nonpayable",
      "type": "function"
    },
    {
      "inputs": [],
      "name": "alchemist",
      "outputs": [
        {
          "internalType": "address",
          "name": "",
          "type": "address"
        }
      ],
      "stateMutability": "pure",
      "type": "function"
    },
    {
      "inputs": [
        {
          "internalType": "address",
          "name": "account",
          "type": "address"
        },
        {
          "internalType": "uint256",
          "name": "id",
          "type": "uint256"
        }
      ],
      "name": "balanceOf",
      "outputs": [
        {
          "internalType": "uint256",
          "name": "",
          "type": "uint256"
        }
      ],
      "stateMutability": "view",
      "type": "function"
    },
    {
      "inputs": [
        {
          "internalType": "address[]",
          "name": "accounts",
          "type": "address[]"
        },
        {
          "internalType": "uint256[]",
          "name": "ids",
          "type": "uint256[]"
        }
      ],
      "name": "balanceOfBatch",
      "outputs": [
        {
          "internalType": "uint256[]",
          "name": "",
          "type": "uint256[]"
        }
      ],
      "stateMutability": "view",
      "type": "function"
    },
    {
      "inputs": [],
      "name": "custodian",
      "outputs": [
        {
          "internalType": "address",
          "name": "",
          "type": "address"
        }
      ],
      "stateMutability": "view",
      "type": "function"
    },
    {
      "inputs": [
        {
          "internalType": "uint256",
          "name": "tokenId",
          "type": "uint256"
        }
      ],
      "name": "earning",
      "outputs": [
        {
          "internalType": "uint256",
          "name": "",
          "type": "uint256"
        }
      ],
      "stateMutability": "view",
      "type": "function"
    },
    {
      "inputs": [],
      "name": "earningToken",
      "outputs": [
        {
          "internalType": "address",
          "name": "",
          "type": "address"
        }
      ],
      "stateMutability": "view",
      "type": "function"
    },
    {
      "inputs": [
        {
          "internalType": "uint128",
          "name": "endOfDay",
          "type": "uint128"
        },
        {
          "internalType": "uint256",
          "name": "earningPerTPerDay",
          "type": "uint256"
        },
        {
          "internalType": "uint256",
          "name": "effectiveHashratePerDay",
          "type": "uint256"
        }
      ],
      "name": "finalize",
      "outputs": [],
      "stateMutability": "nonpayable",
      "type": "function"
    },
    {
      "inputs": [],
      "name": "finalized",
      "outputs": [
        {
          "internalType": "uint128",
          "name": "",
          "type": "uint128"
        }
      ],
      "stateMutability": "view",
      "type": "function"
    },
    {
      "inputs": [
        {
          "internalType": "address",
          "name": "account",
          "type": "address"
        },
        {
          "internalType": "address",
          "name": "operator",
          "type": "address"
        }
      ],
      "name": "isApprovedForAll",
      "outputs": [
        {
          "internalType": "bool",
          "name": "",
          "type": "bool"
        }
      ],
      "stateMutability": "view",
      "type": "function"
    },
    {
      "inputs": [
        {
          "internalType": "uint256[]",
          "name": "ids",
          "type": "uint256[]"
        },
        {
          "internalType": "uint256[]",
          "name": "amounts",
          "type": "uint256[]"
        },
        {
          "internalType": "bytes",
          "name": "data",
          "type": "bytes"
        }
      ],
      "name": "mint",
      "outputs": [],
      "stateMutability": "nonpayable",
      "type": "function"
    },
    {
      "inputs": [
        {
          "internalType": "uint256",
          "name": "",
          "type": "uint256"
        },
        {
          "internalType": "uint256",
          "name": "value",
          "type": "uint256"
        }
      ],
      "name": "royaltyInfo",
      "outputs": [
        {
          "internalType": "address",
          "name": "",
          "type": "address"
        },
        {
          "internalType": "uint256",
          "name": "",
          "type": "uint256"
        }
      ],
      "stateMutability": "view",
      "type": "function"
    },
    {
      "inputs": [
        {
          "internalType": "address",
          "name": "from",
          "type": "address"
        },
        {
          "internalType": "address",
          "name": "to",
          "type": "address"
        },
        {
          "internalType": "uint256[]",
          "name": "ids",
          "type": "uint256[]"
        },
        {
          "internalType": "uint256[]",
          "name": "amounts",
          "type": "uint256[]"
        },
        {
          "internalType": "bytes",
          "name": "data",
          "type": "bytes"
        }
      ],
      "name": "safeBatchTransferFrom",
      "outputs": [],
      "stateMutability": "nonpayable",
      "type": "function"
    },
    {
      "inputs": [
        {
          "internalType": "address",
          "name": "from",
          "type": "address"
        },
        {
          "internalType": "address",
          "name": "to",
          "type": "address"
        },
        {
          "internalType": "uint256",
          "name": "id",
          "type": "uint256"
        },
        {
          "internalType": "uint256",
          "name": "amount",
          "type": "uint256"
        },
        {
          "internalType": "bytes",
          "name": "data",
          "type": "bytes"
        }
      ],
      "name": "safeTransferFrom",
      "outputs": [],
      "stateMutability": "nonpayable",
      "type": "function"
    },
    {
      "inputs": [
        {
          "internalType": "address",
          "name": "operator",
          "type": "address"
        },
        {
          "internalType": "bool",
          "name": "status",
          "type": "bool"
        }
      ],
      "name": "setApprovalForAll",
      "outputs": [],
      "stateMutability": "nonpayable",
      "type": "function"
    },
    {
      "inputs": [
        {
          "internalType": "address",
          "name": "recipient",
          "type": "address"
        },
        {
          "internalType": "uint16",
          "name": "bps",
          "type": "uint16"
        }
      ],
      "name": "setRoyaltyInfo",
      "outputs": [],
      "stateMutability": "nonpayable",
      "type": "function"
    },
    {
      "inputs": [
        {
          "internalType": "string",
          "name": "baseURI",
          "type": "string"
        }
      ],
      "name": "setURI",
      "outputs": [],
      "stateMutability": "nonpayable",
      "type": "function"
    },
    {
      "inputs": [
        {
          "internalType": "uint256",
          "name": "id",
          "type": "uint256"
        }
      ],
      "name": "supplyOf",
      "outputs": [
        {
          "internalType": "uint256",
          "name": "",
          "type": "uint256"
        }
      ],
      "stateMutability": "view",
      "type": "function"
    },
    {
      "inputs": [
        {
          "internalType": "uint256[]",
          "name": "ids",
          "type": "uint256[]"
        }
      ],
      "name": "supplyOfBatch",
      "outputs": [
        {
          "internalType": "uint256[]",
          "name": "",
          "type": "uint256[]"
        }
      ],
      "stateMutability": "view",
      "type": "function"
    },
    {
      "inputs": [
        {
          "internalType": "bytes4",
          "name": "interfaceId",
          "type": "bytes4"
        }
      ],
      "name": "supportsInterface",
      "outputs": [
        {
          "internalType": "bool",
          "name": "",
          "type": "bool"
        }
      ],
      "stateMutability": "view",
      "type": "function"
    },
    {
      "inputs": [
        {
          "internalType": "uint256",
          "name": "tokenId",
          "type": "uint256"
        }
      ],
      "name": "uri",
      "outputs": [
        {
          "internalType": "string",
          "name": "",
          "type": "string"
        }
      ],
      "stateMutability": "view",
      "type": "function"
    }
  ],
  "transactionHash": "0xc69b41847dde3f49e400040bdf1e53a826342e1e0931ecfb09ecd0cb28633b2c",
  "args": [
    "0xD7317C2CbB1d189bD0B328bE4982810346292697"
  ],
  "numDeployments": 3,
  "solcInputHash": "2987341766f7f30195cfbafb26e22009",
  "bytecode": "0x60a06040523480156200001157600080fd5b50604051620055093803806200550983398181016040528101906200003791906200008e565b808073ffffffffffffffffffffffffffffffffffffffff1660808173ffffffffffffffffffffffffffffffffffffffff1660601b81525050505062000108565b6000815190506200008881620000ee565b92915050565b600060208284031215620000a157600080fd5b6000620000b18482850162000077565b91505092915050565b6000620000c782620000ce565b9050919050565b600073ffffffffffffffffffffffffffffffffffffffff82169050919050565b620000f981620000ba565b81146200010557600080fd5b50565b60805160601c6153bf6200014a6000396000818161099601528181610f480152818161126001528181611c0801528181612b2c0152612e4c01526153bf6000f3fe608060405234801561001057600080fd5b50600436106101365760003560e01c80636a148876116100b85780638ff45d931161007c5780638ff45d93146103865780639f2914ec146103a2578063a22cb465146103be578063b3f05b97146103da578063e985e9c5146103f8578063f242432a1461042857610136565b80636a148876146102e257806372504a24146102fe5780637fe205c71461031a5780638806792f146103385780638de925f61461036857610136565b80632a55205a116100ff5780632a55205a146102175780632ac3fad9146102485780632eb2c2d614610278578063375b74c3146102945780634e1273f4146102b257610136565b8062fdd58e1461013b57806301ffc9a71461016b57806302fe53051461019b5780630d071e63146101b75780630e89341c146101e7575b600080fd5b610155600480360381019061015091906138cb565b610444565b60405161016291906145b4565b60405180910390f35b61018560048036038101906101809190613a82565b610458565b6040516101929190614281565b60405180910390f35b6101b560048036038101906101b09190613b15565b61047b565b005b6101d160048036038101906101cc9190613973565b610520565b6040516101de9190614228565b60405180910390f35b61020160048036038101906101fc9190613ba5565b61065f565b60405161020e919061429c565b60405180910390f35b610231600480360381019061022c9190613bce565b610820565b60405161023f9291906141ff565b60405180910390f35b610262600480360381019061025d9190613ba5565b6108de565b60405161026f91906145b4565b60405180910390f35b610292600480360381019061028d9190613705565b610900565b005b61029c610994565b6040516102a991906140eb565b60405180910390f35b6102cc60048036038101906102c79190613907565b6109b8565b6040516102d99190614228565b60405180910390f35b6102fc60048036038101906102f79190613ad4565b610c6b565b005b6103186004803603810190610313919061388f565b610ccf565b005b610322610e43565b60405161032f91906140eb565b60405180910390f35b610352600480360381019061034d9190613ba5565b610e6f565b60405161035f91906145b4565b60405180910390f35b610370610e8e565b60405161037d91906140eb565b60405180910390f35b6103a0600480360381019061039b91906139b8565b610eaa565b005b6103bc60048036038101906103b79190613b56565b610ff8565b005b6103d860048036038101906103d39190613853565b611327565b005b6103e261149c565b6040516103ef919061457e565b60405180910390f35b610412600480360381019061040d91906136c9565b6114c4565b60405161041f9190614281565b60405180910390f35b610442600480360381019061043d91906137c4565b611561565b005b600061045083836115f5565b905092915050565b6000610474826104666116c8565b6116f590919063ffffffff16565b9050919050565b610483611760565b60000160009054906101000a900473ffffffffffffffffffffffffffffffffffffffff1673ffffffffffffffffffffffffffffffffffffffff163373ffffffffffffffffffffffffffffffffffffffff1614610514576040517f08c379a000000000000000000000000000000000000000000000000000000000815260040161050b9061441e565b60405180910390fd5b61051d8161178d565b50565b606060008383905067ffffffffffffffff811115610567577f4e487b7100000000000000000000000000000000000000000000000000000000600052604160045260246000fd5b6040519080825280602002602001820160405280156105955781602001602082028036833780820191505090505b50905060005b8484905081101561065457600060050160008686848181106105e6577f4e487b7100000000000000000000000000000000000000000000000000000000600052603260045260246000fd5b90506020020135815260200190815260200160002054828281518110610635577f4e487b7100000000000000000000000000000000000000000000000000000000600052603260045260246000fd5b602002602001018181525050808061064c90614ac5565b91505061059b565b508091505092915050565b6060600061066b6117b0565b90506000816001016000858152602001908152602001600020805461068f90614a29565b80601f01602080910402602001604051908101604052809291908181526020018280546106bb90614a29565b80156107085780601f106106dd57610100808354040283529160200191610708565b820191906000526020600020905b8154815290600101906020018083116106eb57829003601f168201915b50505050509050600082600001805461072090614a29565b80601f016020809104026020016040519081016040528092919081815260200182805461074c90614a29565b80156107995780601f1061076e57610100808354040283529160200191610799565b820191906000526020600020905b81548152906001019060200180831161077c57829003601f168201915b505050505090506000815114156107b55781935050505061081b565b6000825111156107eb5780826040516020016107d29291906140c7565b604051602081830303815290604052935050505061081b565b806107f5866117dd565b6040516020016108069291906140c7565b60405160208183030381529060405293505050505b919050565b6000806000806000016040518060400160405290816000820160009054906101000a900473ffffffffffffffffffffffffffffffffffffffff1673ffffffffffffffffffffffffffffffffffffffff1673ffffffffffffffffffffffffffffffffffffffff1681526020016000820160149054906101000a900461ffff1661ffff1661ffff168152505090508060000151612710826020015161ffff16866108c89190614875565b6108d291906147fa565b92509250509250929050565b600080608083901c905060008390506108f7828261198a565b92505050919050565b3373ffffffffffffffffffffffffffffffffffffffff168573ffffffffffffffffffffffffffffffffffffffff161480610940575061093f85336114c4565b5b61097f576040517f08c379a00000000000000000000000000000000000000000000000000000000081526004016109769061435e565b60405180910390fd5b61098d338686868686611b21565b5050505050565b7f000000000000000000000000000000000000000000000000000000000000000081565b606081518351146109fe576040517f08c379a00000000000000000000000000000000000000000000000000000000081526004016109f59061451e565b60405180910390fd5b6000610a08611b45565b60000190506000845167ffffffffffffffff811115610a50577f4e487b7100000000000000000000000000000000000000000000000000000000600052604160045260246000fd5b604051908082528060200260200182016040528015610a7e5781602001602082028036833780820191505090505b50905060005b8551811015610c5f57600073ffffffffffffffffffffffffffffffffffffffff16868281518110610ade577f4e487b7100000000000000000000000000000000000000000000000000000000600052603260045260246000fd5b602002602001015173ffffffffffffffffffffffffffffffffffffffff161415610b3d576040517f08c379a0000000000000000000000000000000000000000000000000000000008152600401610b349061431e565b60405180910390fd5b826000868381518110610b79577f4e487b7100000000000000000000000000000000000000000000000000000000600052603260045260246000fd5b602002602001015181526020019081526020016000206000878381518110610bca577f4e487b7100000000000000000000000000000000000000000000000000000000600052603260045260246000fd5b602002602001015173ffffffffffffffffffffffffffffffffffffffff1673ffffffffffffffffffffffffffffffffffffffff16815260200190815260200160002054828281518110610c46577f4e487b7100000000000000000000000000000000000000000000000000000000600052603260045260246000fd5b6020026020010181815250508080600101915050610a84565b50809250505092915050565b610c73611b72565b60000160019054906101000a900460ff16610cc3576040517f08c379a0000000000000000000000000000000000000000000000000000000008152600401610cba906144be565b60405180910390fd5b610ccc81611b9f565b50565b610cd7611760565b60000160009054906101000a900473ffffffffffffffffffffffffffffffffffffffff1673ffffffffffffffffffffffffffffffffffffffff163373ffffffffffffffffffffffffffffffffffffffff1614610d68576040517f08c379a0000000000000000000000000000000000000000000000000000000008152600401610d5f9061441e565b60405180910390fd5b60405180604001604052808373ffffffffffffffffffffffffffffffffffffffff1681526020018261ffff168152506000800160008201518160000160006101000a81548173ffffffffffffffffffffffffffffffffffffffff021916908373ffffffffffffffffffffffffffffffffffffffff16021790555060208201518160000160146101000a81548161ffff021916908361ffff1602179055509050507f577133166751d165db2e7f4c7b9f50ef67bf80781894fc7f4d53df1067a39df181604051610e379190614599565b60405180910390a15050565b60008060010160009054906101000a900473ffffffffffffffffffffffffffffffffffffffff16905090565b6000806005016000838152602001908152602001600020549050919050565b6000731a811678eeedf16a1d0df4b12e290f78a61a28f9905090565b610eb2611760565b60000160009054906101000a900473ffffffffffffffffffffffffffffffffffffffff1673ffffffffffffffffffffffffffffffffffffffff163373ffffffffffffffffffffffffffffffffffffffff1614610f43576040517f08c379a0000000000000000000000000000000000000000000000000000000008152600401610f3a9061441e565b60405180910390fd5b610ff17f0000000000000000000000000000000000000000000000000000000000000000868680806020026020016040519081016040528093929190818152602001838360200280828437600081840152601f19601f82011690508083019250505050505050858580806020026020016040519081016040528093929190818152602001838360200280828437600081840152601f19601f8201169050808301925050505050505084611cc0565b5050505050565b611000611760565b60000160009054906101000a900473ffffffffffffffffffffffffffffffffffffffff1673ffffffffffffffffffffffffffffffffffffffff163373ffffffffffffffffffffffffffffffffffffffff1614611091576040517f08c379a00000000000000000000000000000000000000000000000000000000081526004016110889061441e565b60405180910390fd5b600060020160009054906101000a90046fffffffffffffffffffffffffffffffff166fffffffffffffffffffffffffffffffff16836fffffffffffffffffffffffffffffffff161180156111055750600062015180846110f19190614b0e565b6fffffffffffffffffffffffffffffffff16145b611144576040517f08c379a000000000000000000000000000000000000000000000000000000000815260040161113b9061437e565b60405180910390fd5b82600060020160006101000a8154816fffffffffffffffffffffffffffffffff02191690836fffffffffffffffffffffffffffffffff1602179055508160006003016000856fffffffffffffffffffffffffffffffff166fffffffffffffffffffffffffffffffff1681526020019081526020016000208190555060005b6007816fffffffffffffffffffffffffffffffff16101561125a57826000600401600062015180846111f4919061482b565b876111ff919061475e565b6fffffffffffffffffffffffffffffffff166fffffffffffffffffffffffffffffffff168152602001908152602001600020600082825461124091906147a4565b92505081905550808061125290614a8c565b9150506111c2565b506112d87f000000000000000000000000000000000000000000000000000000000000000030848461128c9190614875565b600060010160009054906101000a900473ffffffffffffffffffffffffffffffffffffffff1673ffffffffffffffffffffffffffffffffffffffff16611ce1909392919063ffffffff16565b826fffffffffffffffffffffffffffffffff167ff9007d0dcd21bf7a26f5ec3bd5cf96e721c6e0faf320db4629dcd0895dcbeefb8360405161131a91906145b4565b60405180910390a2505050565b8173ffffffffffffffffffffffffffffffffffffffff163373ffffffffffffffffffffffffffffffffffffffff161415611396576040517f08c379a000000000000000000000000000000000000000000000000000000000815260040161138d906144de565b60405180910390fd5b8061139f611b45565b60010160003373ffffffffffffffffffffffffffffffffffffffff1673ffffffffffffffffffffffffffffffffffffffff16815260200190815260200160002060008473ffffffffffffffffffffffffffffffffffffffff1673ffffffffffffffffffffffffffffffffffffffff16815260200190815260200160002060006101000a81548160ff0219169083151502179055508173ffffffffffffffffffffffffffffffffffffffff163373ffffffffffffffffffffffffffffffffffffffff167f17307eab39ab6107e8899845ad3d59bd9653f200f220920489ca2b5937696c31836040516114909190614281565b60405180910390a35050565b60008060020160009054906101000a90046fffffffffffffffffffffffffffffffff16905090565b60006114ce611b45565b60010160008473ffffffffffffffffffffffffffffffffffffffff1673ffffffffffffffffffffffffffffffffffffffff16815260200190815260200160002060008373ffffffffffffffffffffffffffffffffffffffff1673ffffffffffffffffffffffffffffffffffffffff16815260200190815260200160002060009054906101000a900460ff16905092915050565b3373ffffffffffffffffffffffffffffffffffffffff168573ffffffffffffffffffffffffffffffffffffffff1614806115a157506115a085336114c4565b5b6115e0576040517f08c379a00000000000000000000000000000000000000000000000000000000081526004016115d79061435e565b60405180910390fd5b6115ee338686868686611d6a565b5050505050565b60008073ffffffffffffffffffffffffffffffffffffffff168373ffffffffffffffffffffffffffffffffffffffff161415611666576040517f08c379a000000000000000000000000000000000000000000000000000000000815260040161165d906142fe565b60405180910390fd5b61166e611b45565b600001600083815260200190815260200160002060008473ffffffffffffffffffffffffffffffffffffffff1673ffffffffffffffffffffffffffffffffffffffff16815260200190815260200160002054905092915050565b6000807f326d0c59a7612f6a9919e2a8ee333c80ba689d8ba2634de89c85cbb04832e70590508091505090565b6000826000016000837bffffffffffffffffffffffffffffffffffffffffffffffffffffffff19167bffffffffffffffffffffffffffffffffffffffffffffffffffffffff1916815260200190815260200160002060009054906101000a900460ff16905092915050565b6000807f8a22373512790c48b83a1fe2efdd2888d4a917bcdc24d0adf63e60f67168046090508091505090565b806117966117b0565b60000190805190602001906117ac9291906132fa565b5050565b6000807f4281b61aefbe70b3d3f684b428efca5f33077bc240e76f2808f9177c307617f490508091505090565b60606000821415611825576040518060400160405280600181526020017f30000000000000000000000000000000000000000000000000000000000000008152509050611985565b600082905060005b6000821461185757808061184090614ac5565b915050600a8261185091906147fa565b915061182d565b60008167ffffffffffffffff811115611899577f4e487b7100000000000000000000000000000000000000000000000000000000600052604160045260246000fd5b6040519080825280601f01601f1916602001820160405280156118cb5781602001600182028036833780820191505090505b5090505b6000851461197e576001826118e49190614903565b9150600a856118f39190614b3f565b60306118ff91906147a4565b60f81b81838151811061193b577f4e487b7100000000000000000000000000000000000000000000000000000000600052603260045260246000fd5b60200101907effffffffffffffffffffffffffffffffffffffffffffffffffffffffffffff1916908160001a905350600a8561197791906147fa565b94506118cf565b8093505050505b919050565b600062015180838361199c91906148cf565b6fffffffffffffffffffffffffffffffff1614156119f65760006003016000836fffffffffffffffffffffffffffffffff166fffffffffffffffffffffffffffffffff168152602001908152602001600020549050611b1b565b62093a808383611a0691906148cf565b6fffffffffffffffffffffffffffffffff161415611a605760006004016000836fffffffffffffffffffffffffffffffff166fffffffffffffffffffffffffffffffff168152602001908152602001600020549050611b1a565b621275008383611a7091906148cf565b6fffffffffffffffffffffffffffffffff161415611b19576000600401600062093a8084611a9e91906148cf565b6fffffffffffffffffffffffffffffffff166fffffffffffffffffffffffffffffffff1681526020019081526020016000205460006004016000846fffffffffffffffffffffffffffffffff166fffffffffffffffffffffffffffffffff16815260200190815260200160002054611b1691906147a4565b90505b5b5b92915050565b611b2f868686868686611d8e565b611b3d8686868686866120e6565b505050505050565b6000807f1799cf914cb0cb442ca7c7ac709ee40d0cb89e87351dc08d517fbda27d50c68b90508091505090565b6000807f2ae1e818fc317b4c150084d41bf7468a28b0861c8b85a3e58e4bb4d5dbbc6aa190508091505090565b600081806020019051810190611bb591906136a0565b905080600060010160006101000a81548173ffffffffffffffffffffffffffffffffffffffff021916908373ffffffffffffffffffffffffffffffffffffffff16021790555060405180604001604052807f000000000000000000000000000000000000000000000000000000000000000073ffffffffffffffffffffffffffffffffffffffff168152602001606461ffff168152506000800160008201518160000160006101000a81548173ffffffffffffffffffffffffffffffffffffffff021916908373ffffffffffffffffffffffffffffffffffffffff16021790555060208201518160000160146101000a81548161ffff021916908361ffff1602179055509050505050565b611ccc848484846122cd565b611cdb336000868686866120e6565b50505050565b611d64846323b872dd60e01b858585604051602401611d029392919061416e565b604051602081830303815290604052907bffffffffffffffffffffffffffffffffffffffffffffffffffffffff19166020820180517bffffffffffffffffffffffffffffffffffffffffffffffffffffffff838183161783525050505061252b565b50505050565b611d788686868686866125f2565b611d8686868686868661286a565b505050505050565b600073ffffffffffffffffffffffffffffffffffffffff168473ffffffffffffffffffffffffffffffffffffffff161415611dfe576040517f08c379a0000000000000000000000000000000000000000000000000000000008152600401611df5906143fe565b60405180910390fd5b8151835114611e42576040517f08c379a0000000000000000000000000000000000000000000000000000000008152600401611e399061453e565b60405180910390fd5b611e50868686868686612a51565b6000611e5a611b45565b600001905060005b845181101561205e576000858281518110611ea6577f4e487b7100000000000000000000000000000000000000000000000000000000600052603260045260246000fd5b602002602001015190506000858381518110611eeb577f4e487b7100000000000000000000000000000000000000000000000000000000600052603260045260246000fd5b60200260200101519050600084600084815260200190815260200160002060008b73ffffffffffffffffffffffffffffffffffffffff1673ffffffffffffffffffffffffffffffffffffffff16815260200190815260200160002054905081811015611f8c576040517f08c379a0000000000000000000000000000000000000000000000000000000008152600401611f839061433e565b60405180910390fd5b81810385600085815260200190815260200160002060008c73ffffffffffffffffffffffffffffffffffffffff1673ffffffffffffffffffffffffffffffffffffffff16815260200190815260200160002081905550508084600084815260200190815260200160002060008a73ffffffffffffffffffffffffffffffffffffffff1673ffffffffffffffffffffffffffffffffffffffff168152602001908152602001600020600082825461204291906147a4565b925050819055505050808061205690614ac5565b915050611e62565b508473ffffffffffffffffffffffffffffffffffffffff168673ffffffffffffffffffffffffffffffffffffffff168873ffffffffffffffffffffffffffffffffffffffff167f4a39dc06d4c0dbc64b70af90fd698a233a518aa5d07e595d983b8c0526c8f7fb87876040516120d592919061424a565b60405180910390a450505050505050565b6121058473ffffffffffffffffffffffffffffffffffffffff16612fae565b156122c5578373ffffffffffffffffffffffffffffffffffffffff1663bc197c8187878686866040518663ffffffff1660e01b815260040161214b959493929190614106565b602060405180830381600087803b15801561216557600080fd5b505af192505050801561219657506040513d601f19601f820116820180604052508101906121939190613aab565b60015b61223c576121a2614c2c565b806308c379a014156121ff57506121b7615252565b806121c25750612201565b806040517f08c379a00000000000000000000000000000000000000000000000000000000081526004016121f6919061429c565b60405180910390fd5b505b6040517f08c379a0000000000000000000000000000000000000000000000000000000008152600401612233906142be565b60405180910390fd5b63bc197c8160e01b7bffffffffffffffffffffffffffffffffffffffffffffffffffffffff1916817bffffffffffffffffffffffffffffffffffffffffffffffffffffffff1916146122c3576040517f08c379a00000000000000000000000000000000000000000000000000000000081526004016122ba906142de565b60405180910390fd5b505b505050505050565b600073ffffffffffffffffffffffffffffffffffffffff168473ffffffffffffffffffffffffffffffffffffffff16141561233d576040517f08c379a00000000000000000000000000000000000000000000000000000000081526004016123349061455e565b60405180910390fd5b8151835114612381576040517f08c379a00000000000000000000000000000000000000000000000000000000081526004016123789061453e565b60405180910390fd5b61239033600086868686612a51565b600061239a611b45565b600001905060005b84518110156124a4578381815181106123e4577f4e487b7100000000000000000000000000000000000000000000000000000000600052603260045260246000fd5b6020026020010151826000878481518110612428577f4e487b7100000000000000000000000000000000000000000000000000000000600052603260045260246000fd5b6020026020010151815260200190815260200160002060008873ffffffffffffffffffffffffffffffffffffffff1673ffffffffffffffffffffffffffffffffffffffff168152602001908152602001600020600082825461248a91906147a4565b92505081905550808061249c90614ac5565b9150506123a2565b508473ffffffffffffffffffffffffffffffffffffffff16600073ffffffffffffffffffffffffffffffffffffffff163373ffffffffffffffffffffffffffffffffffffffff167f4a39dc06d4c0dbc64b70af90fd698a233a518aa5d07e595d983b8c0526c8f7fb878760405161251c92919061424a565b60405180910390a45050505050565b600061258d826040518060400160405280602081526020017f5361666545524332303a206c6f772d6c6576656c2063616c6c206661696c65648152508573ffffffffffffffffffffffffffffffffffffffff16612fc19092919063ffffffff16565b90506000815111156125ed57808060200190518101906125ad9190613a59565b6125ec576040517f08c379a00000000000000000000000000000000000000000000000000000000081526004016125e3906144fe565b60405180910390fd5b5b505050565b600073ffffffffffffffffffffffffffffffffffffffff168473ffffffffffffffffffffffffffffffffffffffff161415612662576040517f08c379a0000000000000000000000000000000000000000000000000000000008152600401612659906143fe565b60405180910390fd5b61268086868661267187612fd9565b61267a87612fd9565b86612a51565b600061268a611b45565b6000019050600081600086815260200190815260200160002060008873ffffffffffffffffffffffffffffffffffffffff1673ffffffffffffffffffffffffffffffffffffffff16815260200190815260200160002054905083811015612726576040517f08c379a000000000000000000000000000000000000000000000000000000000815260040161271d9061433e565b60405180910390fd5b83810382600087815260200190815260200160002060008973ffffffffffffffffffffffffffffffffffffffff1673ffffffffffffffffffffffffffffffffffffffff16815260200190815260200160002081905550508281600086815260200190815260200160002060008773ffffffffffffffffffffffffffffffffffffffff1673ffffffffffffffffffffffffffffffffffffffff16815260200190815260200160002060008282546127dc91906147a4565b925050819055508473ffffffffffffffffffffffffffffffffffffffff168673ffffffffffffffffffffffffffffffffffffffff168873ffffffffffffffffffffffffffffffffffffffff167fc3d58168c5ae7397731d063d5bbf3d657854427343f4c083240f7aacaa2d0f6287876040516128599291906145cf565b60405180910390a450505050505050565b6128898473ffffffffffffffffffffffffffffffffffffffff16612fae565b15612a49578373ffffffffffffffffffffffffffffffffffffffff1663f23a6e6187878686866040518663ffffffff1660e01b81526004016128cf9594939291906141a5565b602060405180830381600087803b1580156128e957600080fd5b505af192505050801561291a57506040513d601f19601f820116820180604052508101906129179190613aab565b60015b6129c057612926614c2c565b806308c379a01415612983575061293b615252565b806129465750612985565b806040517f08c379a000000000000000000000000000000000000000000000000000000000815260040161297a919061429c565b60405180910390fd5b505b6040517f08c379a00000000000000000000000000000000000000000000000000000000081526004016129b7906142be565b60405180910390fd5b63f23a6e6160e01b7bffffffffffffffffffffffffffffffffffffffffffffffffffffffff1916817bffffffffffffffffffffffffffffffffffffffffffffffffffffffff191614612a47576040517f08c379a0000000000000000000000000000000000000000000000000000000008152600401612a3e906142de565b60405180910390fd5b505b505050505050565b612a5f86868686868661309f565b731a811678eeedf16a1d0df4b12e290f78a61a28f973ffffffffffffffffffffffffffffffffffffffff168573ffffffffffffffffffffffffffffffffffffffff161415612ae2576040517f08c379a0000000000000000000000000000000000000000000000000000000008152600401612ad99061443e565b60405180910390fd5b731a811678eeedf16a1d0df4b12e290f78a61a28f973ffffffffffffffffffffffffffffffffffffffff168473ffffffffffffffffffffffffffffffffffffffff161415612e15577f000000000000000000000000000000000000000000000000000000000000000073ffffffffffffffffffffffffffffffffffffffff168573ffffffffffffffffffffffffffffffffffffffff161415612bb9576040517f08c379a0000000000000000000000000000000000000000000000000000000008152600401612bb09061447e565b60405180910390fd5b612bc16130a7565b60000160009054906101000a900460ff1615612c12576040517f08c379a0000000000000000000000000000000000000000000000000000000008152600401612c09906143de565b60405180910390fd5b600080600060020160009054906101000a90046fffffffffffffffffffffffffffffffff166fffffffffffffffffffffffffffffffff16905060005b8551811015612d7357600080612ca3888481518110612c96577f4e487b7100000000000000000000000000000000000000000000000000000000600052603260045260246000fd5b60200260200101516130d4565b9150915083816fffffffffffffffffffffffffffffffff161115612cfc576040517f08c379a0000000000000000000000000000000000000000000000000000000008152600401612cf39061445e565b60405180910390fd5b612d06828261198a565b878481518110612d3f577f4e487b7100000000000000000000000000000000000000000000000000000000600052603260045260246000fd5b6020026020010151612d519190614875565b85612d5c91906147a4565b945050508080612d6b90614ac5565b915050612c4e565b50612dc48783600060010160009054906101000a900473ffffffffffffffffffffffffffffffffffffffff1673ffffffffffffffffffffffffffffffffffffffff166130e69092919063ffffffff16565b8673ffffffffffffffffffffffffffffffffffffffff167fe9df6fe73a4a0b4ca42668b18744091a48a640da4eccde958e65747c9b85606b83604051612e0a91906145b4565b60405180910390a250505b600073ffffffffffffffffffffffffffffffffffffffff168573ffffffffffffffffffffffffffffffffffffffff161415612fa6577f000000000000000000000000000000000000000000000000000000000000000073ffffffffffffffffffffffffffffffffffffffff168473ffffffffffffffffffffffffffffffffffffffff1614612ed8576040517f08c379a0000000000000000000000000000000000000000000000000000000008152600401612ecf9061439e565b60405180910390fd5b60005b8351811015612fa457828181518110612f1d577f4e487b7100000000000000000000000000000000000000000000000000000000600052603260045260246000fd5b602002602001015160006005016000868481518110612f65577f4e487b7100000000000000000000000000000000000000000000000000000000600052603260045260246000fd5b602002602001015181526020019081526020016000206000828254612f8a91906147a4565b925050819055508080612f9c90614ac5565b915050612edb565b505b505050505050565b600080823b905060008111915050919050565b6060612fd0848460008561316c565b90509392505050565b60606000600167ffffffffffffffff81111561301e577f4e487b7100000000000000000000000000000000000000000000000000000000600052604160045260246000fd5b60405190808252806020026020018201604052801561304c5781602001602082028036833780820191505090505b509050828160008151811061308a577f4e487b7100000000000000000000000000000000000000000000000000000000600052603260045260246000fd5b60200260200101818152505080915050919050565b505050505050565b6000807f68721c0bbf2c02a4d65000340d1370666be06a630022208d4baa9bd7a4b6fea890508091505090565b600080608083901c8391509150915091565b6131678363a9059cbb60e01b84846040516024016131059291906141ff565b604051602081830303815290604052907bffffffffffffffffffffffffffffffffffffffffffffffffffffffff19166020820180517bffffffffffffffffffffffffffffffffffffffffffffffffffffffff838183161783525050505061252b565b505050565b6060824710156131b1576040517f08c379a00000000000000000000000000000000000000000000000000000000081526004016131a8906143be565b60405180910390fd5b6131ba85613280565b6131f9576040517f08c379a00000000000000000000000000000000000000000000000000000000081526004016131f09061449e565b60405180910390fd5b6000808673ffffffffffffffffffffffffffffffffffffffff16858760405161322291906140b0565b60006040518083038185875af1925050503d806000811461325f576040519150601f19603f3d011682016040523d82523d6000602084013e613264565b606091505b5091509150613274828286613293565b92505050949350505050565b600080823b905060008111915050919050565b606083156132a3578290506132f3565b6000835111156132b65782518084602001fd5b816040517f08c379a00000000000000000000000000000000000000000000000000000000081526004016132ea919061429c565b60405180910390fd5b9392505050565b82805461330690614a29565b90600052602060002090601f016020900481019282613328576000855561336f565b82601f1061334157805160ff191683800117855561336f565b8280016001018555821561336f579182015b8281111561336e578251825591602001919060010190613353565b5b50905061337c9190613380565b5090565b5b80821115613399576000816000905550600101613381565b5090565b60006133b06133ab8461461d565b6145f8565b905080838252602082019050828560208602820111156133cf57600080fd5b60005b858110156133ff57816133e588826134f1565b8452602084019350602083019250506001810190506133d2565b5050509392505050565b600061341c61341784614649565b6145f8565b9050808382526020820190508285602086028201111561343b57600080fd5b60005b8581101561346b5781613451888261368b565b84526020840193506020830192505060018101905061343e565b5050509392505050565b600061348861348384614675565b6145f8565b9050828152602081018484840111156134a057600080fd5b6134ab8482856149e7565b509392505050565b60006134c66134c1846146a6565b6145f8565b9050828152602081018484840111156134de57600080fd5b6134e98482856149e7565b509392505050565b600081359050613500816152e8565b92915050565b600081519050613515816152ff565b92915050565b600082601f83011261352c57600080fd5b813561353c84826020860161339d565b91505092915050565b60008083601f84011261355757600080fd5b8235905067ffffffffffffffff81111561357057600080fd5b60208301915083602082028301111561358857600080fd5b9250929050565b600082601f8301126135a057600080fd5b81356135b0848260208601613409565b91505092915050565b6000813590506135c881615316565b92915050565b6000815190506135dd81615316565b92915050565b6000813590506135f28161532d565b92915050565b6000815190506136078161532d565b92915050565b600082601f83011261361e57600080fd5b813561362e848260208601613475565b91505092915050565b600082601f83011261364857600080fd5b81356136588482602086016134b3565b91505092915050565b60008135905061367081615344565b92915050565b6000813590506136858161535b565b92915050565b60008135905061369a81615372565b92915050565b6000602082840312156136b257600080fd5b60006136c084828501613506565b91505092915050565b600080604083850312156136dc57600080fd5b60006136ea858286016134f1565b92505060206136fb858286016134f1565b9150509250929050565b600080600080600060a0868803121561371d57600080fd5b600061372b888289016134f1565b955050602061373c888289016134f1565b945050604086013567ffffffffffffffff81111561375957600080fd5b6137658882890161358f565b935050606086013567ffffffffffffffff81111561378257600080fd5b61378e8882890161358f565b925050608086013567ffffffffffffffff8111156137ab57600080fd5b6137b78882890161360d565b9150509295509295909350565b600080600080600060a086880312156137dc57600080fd5b60006137ea888289016134f1565b95505060206137fb888289016134f1565b945050604061380c8882890161368b565b935050606061381d8882890161368b565b925050608086013567ffffffffffffffff81111561383a57600080fd5b6138468882890161360d565b9150509295509295909350565b6000806040838503121561386657600080fd5b6000613874858286016134f1565b9250506020613885858286016135b9565b9150509250929050565b600080604083850312156138a257600080fd5b60006138b0858286016134f1565b92505060206138c185828601613676565b9150509250929050565b600080604083850312156138de57600080fd5b60006138ec858286016134f1565b92505060206138fd8582860161368b565b9150509250929050565b6000806040838503121561391a57600080fd5b600083013567ffffffffffffffff81111561393457600080fd5b6139408582860161351b565b925050602083013567ffffffffffffffff81111561395d57600080fd5b6139698582860161358f565b9150509250929050565b6000806020838503121561398657600080fd5b600083013567ffffffffffffffff8111156139a057600080fd5b6139ac85828601613545565b92509250509250929050565b6000806000806000606086880312156139d057600080fd5b600086013567ffffffffffffffff8111156139ea57600080fd5b6139f688828901613545565b9550955050602086013567ffffffffffffffff811115613a1557600080fd5b613a2188828901613545565b9350935050604086013567ffffffffffffffff811115613a4057600080fd5b613a4c8882890161360d565b9150509295509295909350565b600060208284031215613a6b57600080fd5b6000613a79848285016135ce565b91505092915050565b600060208284031215613a9457600080fd5b6000613aa2848285016135e3565b91505092915050565b600060208284031215613abd57600080fd5b6000613acb848285016135f8565b91505092915050565b600060208284031215613ae657600080fd5b600082013567ffffffffffffffff811115613b0057600080fd5b613b0c8482850161360d565b91505092915050565b600060208284031215613b2757600080fd5b600082013567ffffffffffffffff811115613b4157600080fd5b613b4d84828501613637565b91505092915050565b600080600060608486031215613b6b57600080fd5b6000613b7986828701613661565b9350506020613b8a8682870161368b565b9250506040613b9b8682870161368b565b9150509250925092565b600060208284031215613bb757600080fd5b6000613bc58482850161368b565b91505092915050565b60008060408385031215613be157600080fd5b6000613bef8582860161368b565b9250506020613c008582860161368b565b9150509250929050565b6000613c168383614092565b60208301905092915050565b613c2b81614937565b82525050565b6000613c3c826146e7565b613c468185614715565b9350613c51836146d7565b8060005b83811015613c82578151613c698882613c0a565b9750613c7483614708565b925050600181019050613c55565b5085935050505092915050565b613c988161495b565b82525050565b6000613ca9826146f2565b613cb38185614726565b9350613cc38185602086016149f6565b613ccc81614c4e565b840191505092915050565b6000613ce2826146f2565b613cec8185614737565b9350613cfc8185602086016149f6565b80840191505092915050565b6000613d13826146fd565b613d1d8185614742565b9350613d2d8185602086016149f6565b613d3681614c4e565b840191505092915050565b6000613d4c826146fd565b613d568185614753565b9350613d668185602086016149f6565b80840191505092915050565b6000613d7f603483614742565b9150613d8a82614c6c565b604082019050919050565b6000613da2602883614742565b9150613dad82614cbb565b604082019050919050565b6000613dc5602b83614742565b9150613dd082614d0a565b604082019050919050565b6000613de8603183614742565b9150613df382614d59565b604082019050919050565b6000613e0b602b83614742565b9150613e1682614da8565b604082019050919050565b6000613e2e602983614742565b9150613e3982614df7565b604082019050919050565b6000613e51601c83614742565b9150613e5c82614e46565b602082019050919050565b6000613e74602983614742565b9150613e7f82614e6f565b604082019050919050565b6000613e97602683614742565b9150613ea282614ebe565b604082019050919050565b6000613eba601083614742565b9150613ec582614f0d565b602082019050919050565b6000613edd602583614742565b9150613ee882614f36565b604082019050919050565b6000613f00601d83614742565b9150613f0b82614f85565b602082019050919050565b6000613f23601983614742565b9150613f2e82614fae565b602082019050919050565b6000613f46602283614742565b9150613f5182614fd7565b604082019050919050565b6000613f69601983614742565b9150613f7482615026565b602082019050919050565b6000613f8c601d83614742565b9150613f978261504f565b602082019050919050565b6000613faf602b83614742565b9150613fba82615078565b604082019050919050565b6000613fd2602983614742565b9150613fdd826150c7565b604082019050919050565b6000613ff5602a83614742565b915061400082615116565b604082019050919050565b6000614018602983614742565b915061402382615165565b604082019050919050565b600061403b602883614742565b9150614046826151b4565b604082019050919050565b600061405e602183614742565b915061406982615203565b604082019050919050565b61407d81614993565b82525050565b61408c816149af565b82525050565b61409b816149dd565b82525050565b6140aa816149dd565b82525050565b60006140bc8284613cd7565b915081905092915050565b60006140d38285613d41565b91506140df8284613d41565b91508190509392505050565b60006020820190506141006000830184613c22565b92915050565b600060a08201905061411b6000830188613c22565b6141286020830187613c22565b818103604083015261413a8186613c31565b9050818103606083015261414e8185613c31565b905081810360808301526141628184613c9e565b90509695505050505050565b60006060820190506141836000830186613c22565b6141906020830185613c22565b61419d60408301846140a1565b949350505050565b600060a0820190506141ba6000830188613c22565b6141c76020830187613c22565b6141d460408301866140a1565b6141e160608301856140a1565b81810360808301526141f38184613c9e565b90509695505050505050565b60006040820190506142146000830185613c22565b61422160208301846140a1565b9392505050565b600060208201905081810360008301526142428184613c31565b905092915050565b600060408201905081810360008301526142648185613c31565b905081810360208301526142788184613c31565b90509392505050565b60006020820190506142966000830184613c8f565b92915050565b600060208201905081810360008301526142b68184613d08565b905092915050565b600060208201905081810360008301526142d781613d72565b9050919050565b600060208201905081810360008301526142f781613d95565b9050919050565b6000602082019050818103600083015261431781613db8565b9050919050565b6000602082019050818103600083015261433781613ddb565b9050919050565b6000602082019050818103600083015261435781613dfe565b9050919050565b6000602082019050818103600083015261437781613e21565b9050919050565b6000602082019050818103600083015261439781613e44565b9050919050565b600060208201905081810360008301526143b781613e67565b9050919050565b600060208201905081810360008301526143d781613e8a565b9050919050565b600060208201905081810360008301526143f781613ead565b9050919050565b6000602082019050818103600083015261441781613ed0565b9050919050565b6000602082019050818103600083015261443781613ef3565b9050919050565b6000602082019050818103600083015261445781613f16565b9050919050565b6000602082019050818103600083015261447781613f39565b9050919050565b6000602082019050818103600083015261449781613f5c565b9050919050565b600060208201905081810360008301526144b781613f7f565b9050919050565b600060208201905081810360008301526144d781613fa2565b9050919050565b600060208201905081810360008301526144f781613fc5565b9050919050565b6000602082019050818103600083015261451781613fe8565b9050919050565b600060208201905081810360008301526145378161400b565b9050919050565b600060208201905081810360008301526145578161402e565b9050919050565b6000602082019050818103600083015261457781614051565b9050919050565b60006020820190506145936000830184614074565b92915050565b60006020820190506145ae6000830184614083565b92915050565b60006020820190506145c960008301846140a1565b92915050565b60006040820190506145e460008301856140a1565b6145f160208301846140a1565b9392505050565b6000614602614613565b905061460e8282614a5b565b919050565b6000604051905090565b600067ffffffffffffffff82111561463857614637614bfd565b5b602082029050602081019050919050565b600067ffffffffffffffff82111561466457614663614bfd565b5b602082029050602081019050919050565b600067ffffffffffffffff8211156146905761468f614bfd565b5b61469982614c4e565b9050602081019050919050565b600067ffffffffffffffff8211156146c1576146c0614bfd565b5b6146ca82614c4e565b9050602081019050919050565b6000819050602082019050919050565b600081519050919050565b600081519050919050565b600081519050919050565b6000602082019050919050565b600082825260208201905092915050565b600082825260208201905092915050565b600081905092915050565b600082825260208201905092915050565b600081905092915050565b600061476982614993565b915061477483614993565b9250826fffffffffffffffffffffffffffffffff0382111561479957614798614b70565b5b828201905092915050565b60006147af826149dd565b91506147ba836149dd565b9250827fffffffffffffffffffffffffffffffffffffffffffffffffffffffffffffffff038211156147ef576147ee614b70565b5b828201905092915050565b6000614805826149dd565b9150614810836149dd565b9250826148205761481f614b9f565b5b828204905092915050565b600061483682614993565b915061484183614993565b9250816fffffffffffffffffffffffffffffffff048311821515161561486a57614869614b70565b5b828202905092915050565b6000614880826149dd565b915061488b836149dd565b9250817fffffffffffffffffffffffffffffffffffffffffffffffffffffffffffffffff04831182151516156148c4576148c3614b70565b5b828202905092915050565b60006148da82614993565b91506148e583614993565b9250828210156148f8576148f7614b70565b5b828203905092915050565b600061490e826149dd565b9150614919836149dd565b92508282101561492c5761492b614b70565b5b828203905092915050565b6000614942826149bd565b9050919050565b6000614954826149bd565b9050919050565b60008115159050919050565b60007fffffffff0000000000000000000000000000000000000000000000000000000082169050919050565b60006fffffffffffffffffffffffffffffffff82169050919050565b600061ffff82169050919050565b600073ffffffffffffffffffffffffffffffffffffffff82169050919050565b6000819050919050565b82818337600083830152505050565b60005b83811015614a145780820151818401526020810190506149f9565b83811115614a23576000848401525b50505050565b60006002820490506001821680614a4157607f821691505b60208210811415614a5557614a54614bce565b5b50919050565b614a6482614c4e565b810181811067ffffffffffffffff82111715614a8357614a82614bfd565b5b80604052505050565b6000614a9782614993565b91506fffffffffffffffffffffffffffffffff821415614aba57614ab9614b70565b5b600182019050919050565b6000614ad0826149dd565b91507fffffffffffffffffffffffffffffffffffffffffffffffffffffffffffffffff821415614b0357614b02614b70565b5b600182019050919050565b6000614b1982614993565b9150614b2483614993565b925082614b3457614b33614b9f565b5b828206905092915050565b6000614b4a826149dd565b9150614b55836149dd565b925082614b6557614b64614b9f565b5b828206905092915050565b7f4e487b7100000000000000000000000000000000000000000000000000000000600052601160045260246000fd5b7f4e487b7100000000000000000000000000000000000000000000000000000000600052601260045260246000fd5b7f4e487b7100000000000000000000000000000000000000000000000000000000600052602260045260246000fd5b7f4e487b7100000000000000000000000000000000000000000000000000000000600052604160045260246000fd5b600060033d1115614c4b5760046000803e614c48600051614c5f565b90505b90565b6000601f19601f8301169050919050565b60008160e01c9050919050565b7f455243313135353a207472616e7366657220746f206e6f6e204552433131353560008201527f526563656976657220696d706c656d656e746572000000000000000000000000602082015250565b7f455243313135353a204552433131353552656365697665722072656a6563746560008201527f6420746f6b656e73000000000000000000000000000000000000000000000000602082015250565b7f455243313135353a2062616c616e636520717565727920666f7220746865207a60008201527f65726f2061646472657373000000000000000000000000000000000000000000602082015250565b7f455243313135353a2062617463682062616c616e636520717565727920666f7260008201527f20746865207a65726f2061646472657373000000000000000000000000000000602082015250565b7f455243313135353a20696e73756666696369656e742062616c616e636573206660008201527f6f72207472616e73666572000000000000000000000000000000000000000000602082015250565b7f455243313135353a2063616c6c6572206973206e6f74206f776e6572206e6f7260008201527f20617070726f7665640000000000000000000000000000000000000000000000602082015250565b7f44654d696e654e46543a20696e76616c69642074696d657374616d7000000000600082015250565b7f44654d696e654e46543a20796f752063616e206f6e6c79206d696e7420746f2060008201527f637573746f6469616e0000000000000000000000000000000000000000000000602082015250565b7f416464726573733a20696e73756666696369656e742062616c616e636520666f60008201527f722063616c6c0000000000000000000000000000000000000000000000000000602082015250565b7f5061757361626c653a2070617573656400000000000000000000000000000000600082015250565b7f455243313135353a207472616e7366657220746f20746865207a65726f20616460008201527f6472657373000000000000000000000000000000000000000000000000000000602082015250565b7f4f776e61626c653a2073656e646572206d757374206265206f776e6572000000600082015250565b7f44654d696e654e46543a2066726f6d20616c6368656d69737400000000000000600082015250565b7f44654d696e654e46543a20746f6b656e206e6f742066696e616c697a6564207960008201527f6574000000000000000000000000000000000000000000000000000000000000602082015250565b7f44654d696e654e46543a2066726f6d20637573746f6469616e00000000000000600082015250565b7f416464726573733a2063616c6c20746f206e6f6e2d636f6e7472616374000000600082015250565b7f496e697469616c697a61626c653a20636f6e7472616374206973206e6f74206960008201527f6e697469616c697a696e67000000000000000000000000000000000000000000602082015250565b7f455243313135353a2073657474696e6720617070726f76616c2073746174757360008201527f20666f722073656c660000000000000000000000000000000000000000000000602082015250565b7f5361666545524332303a204552433230206f7065726174696f6e20646964206e60008201527f6f74207375636365656400000000000000000000000000000000000000000000602082015250565b7f455243313135353a206163636f756e747320616e6420696473206c656e67746860008201527f206d69736d617463680000000000000000000000000000000000000000000000602082015250565b7f455243313135353a2069647320616e6420616d6f756e7473206c656e6774682060008201527f6d69736d61746368000000000000000000000000000000000000000000000000602082015250565b7f455243313135353a206d696e7420746f20746865207a65726f2061646472657360008201527f7300000000000000000000000000000000000000000000000000000000000000602082015250565b600060443d1015615262576152e5565b61526a614613565b60043d036004823e80513d602482011167ffffffffffffffff821117156152925750506152e5565b808201805167ffffffffffffffff8111156152b057505050506152e5565b80602083010160043d0385018111156152cd5750505050506152e5565b6152dc82602001850186614a5b565b82955050505050505b90565b6152f181614937565b81146152fc57600080fd5b50565b61530881614949565b811461531357600080fd5b50565b61531f8161495b565b811461532a57600080fd5b50565b61533681614967565b811461534157600080fd5b50565b61534d81614993565b811461535857600080fd5b50565b615364816149af565b811461536f57600080fd5b50565b61537b816149dd565b811461538657600080fd5b5056fea2646970667358221220f5d59346e80181a47efe6ee2281ac68fee0e8a757a60436e54b832dfd890f18b64736f6c63430008040033",
  "devdoc": {
    "kind": "dev",
    "methods": {
      "balanceOf(address,uint256)": {
        "params": {
          "account": "address to query",
          "id": "token to query"
        },
        "returns": {
          "_0": "token balance"
        }
      },
      "balanceOfBatch(address[],uint256[])": {
        "params": {
          "accounts": "addresss to query",
          "ids": "tokens to query"
        },
        "returns": {
          "_0": "token balances"
        }
      },
      "isApprovedForAll(address,address)": {
        "params": {
          "account": "address to query for approval granted",
          "operator": "address to query for approval received"
        },
        "returns": {
          "_0": "whether operator is approved to spend tokens held by account"
        }
      },
      "safeBatchTransferFrom(address,address,uint256[],uint256[],bytes)": {
        "params": {
          "amounts": "list of quantities of tokens to transfer",
          "data": "data payload",
          "from": "sender of tokens",
          "ids": "list of token IDs",
          "to": "receiver of tokens"
        }
      },
      "safeTransferFrom(address,address,uint256,uint256,bytes)": {
        "params": {
          "amount": "quantity of tokens to transfer",
          "data": "data payload",
          "from": "sender of tokens",
          "id": "token ID",
          "to": "receiver of tokens"
        }
      },
      "setApprovalForAll(address,bool)": {
        "params": {
          "operator": "address whose approval status to update",
          "status": "whether operator should be considered approved"
        }
      },
      "supportsInterface(bytes4)": {
        "params": {
          "interfaceId": "interface id"
        },
        "returns": {
          "_0": "bool whether interface is supported"
        }
      }
    },
    "version": 1
  },
  "userdoc": {
    "kind": "user",
    "methods": {
      "balanceOf(address,uint256)": {
        "notice": "query the balance of given token held by given address"
      },
      "balanceOfBatch(address[],uint256[])": {
        "notice": "query the balances of given tokens held by given addresses"
      },
      "isApprovedForAll(address,address)": {
        "notice": "query approval status of given operator with respect to given address"
      },
      "safeBatchTransferFrom(address,address,uint256[],uint256[],bytes)": {
        "notice": "transfer batch of tokens between given addresses, checking for ERC1155Receiver implementation if applicable"
      },
      "safeTransferFrom(address,address,uint256,uint256,bytes)": {
        "notice": "transfer tokens between given addresses, checking for ERC1155Receiver implementation if applicable"
      },
      "setApprovalForAll(address,bool)": {
        "notice": "grant approval to or revoke approval from given operator to spend held tokens"
      },
      "supportsInterface(bytes4)": {
        "notice": "query whether contract has registered support for given interface"
      },
      "uri(uint256)": {
        "notice": "inheritdoc IERC1155Metadata"
      }
    },
    "version": 1
  },
  "storageLayout": {
    "storage": [
      {
        "astId": 2737,
        "contract": "contracts/nft/facets/ERC1155Facet.sol:ERC1155Facet",
        "label": "s",
        "offset": 0,
        "slot": "0",
        "type": "t_struct(AppStorage)3421_storage"
      }
    ],
    "types": {
      "t_address": {
        "encoding": "inplace",
        "label": "address",
        "numberOfBytes": "20"
      },
      "t_mapping(t_uint128,t_uint256)": {
        "encoding": "mapping",
        "key": "t_uint128",
        "label": "mapping(uint128 => uint256)",
        "numberOfBytes": "32",
        "value": "t_uint256"
      },
      "t_mapping(t_uint256,t_uint256)": {
        "encoding": "mapping",
        "key": "t_uint256",
        "label": "mapping(uint256 => uint256)",
        "numberOfBytes": "32",
        "value": "t_uint256"
      },
      "t_struct(AppStorage)3421_storage": {
        "encoding": "inplace",
        "label": "struct AppStorage",
        "members": [
          {
            "astId": 3404,
            "contract": "contracts/nft/facets/ERC1155Facet.sol:ERC1155Facet",
            "label": "royalty",
            "offset": 0,
            "slot": "0",
            "type": "t_struct(RoyaltyInfo)3401_storage"
          },
          {
            "astId": 3406,
            "contract": "contracts/nft/facets/ERC1155Facet.sol:ERC1155Facet",
            "label": "earningToken",
            "offset": 0,
            "slot": "1",
            "type": "t_address"
          },
          {
            "astId": 3408,
            "contract": "contracts/nft/facets/ERC1155Facet.sol:ERC1155Facet",
            "label": "finalized",
            "offset": 0,
            "slot": "2",
            "type": "t_uint128"
          },
          {
            "astId": 3412,
            "contract": "contracts/nft/facets/ERC1155Facet.sol:ERC1155Facet",
            "label": "daily",
            "offset": 0,
            "slot": "3",
            "type": "t_mapping(t_uint128,t_uint256)"
          },
          {
            "astId": 3416,
            "contract": "contracts/nft/facets/ERC1155Facet.sol:ERC1155Facet",
            "label": "weekly",
            "offset": 0,
            "slot": "4",
            "type": "t_mapping(t_uint128,t_uint256)"
          },
          {
            "astId": 3420,
            "contract": "contracts/nft/facets/ERC1155Facet.sol:ERC1155Facet",
            "label": "supply",
            "offset": 0,
            "slot": "5",
            "type": "t_mapping(t_uint256,t_uint256)"
          }
        ],
        "numberOfBytes": "192"
      },
      "t_struct(RoyaltyInfo)3401_storage": {
        "encoding": "inplace",
        "label": "struct RoyaltyInfo",
        "members": [
          {
            "astId": 3398,
            "contract": "contracts/nft/facets/ERC1155Facet.sol:ERC1155Facet",
            "label": "recipient",
            "offset": 0,
            "slot": "0",
            "type": "t_address"
          },
          {
            "astId": 3400,
            "contract": "contracts/nft/facets/ERC1155Facet.sol:ERC1155Facet",
            "label": "bps",
            "offset": 20,
            "slot": "0",
            "type": "t_uint16"
          }
        ],
        "numberOfBytes": "32"
      },
      "t_uint128": {
        "encoding": "inplace",
        "label": "uint128",
        "numberOfBytes": "16"
      },
      "t_uint16": {
        "encoding": "inplace",
        "label": "uint16",
        "numberOfBytes": "2"
      },
      "t_uint256": {
        "encoding": "inplace",
        "label": "uint256",
        "numberOfBytes": "32"
      }
    }
  }
}