{
  "address": "0xb6B0497d627f7a817EbF5FE0a982733522752479",
  "abi": [
    {
      "inputs": [
        {
          "internalType": "address",
          "name": "owner",
          "type": "address"
        }
      ],
      "stateMutability": "nonpayable",
      "type": "constructor"
    },
    {
      "anonymous": false,
      "inputs": [
        {
          "indexed": true,
          "internalType": "address",
          "name": "previousOwner",
          "type": "address"
        },
        {
          "indexed": true,
          "internalType": "address",
          "name": "newOwner",
          "type": "address"
        }
      ],
      "name": "OwnershipTransferred",
      "type": "event"
    },
    {
      "inputs": [
        {
          "internalType": "address",
          "name": "nft",
          "type": "address"
        },
        {
          "internalType": "address",
          "name": "admin",
          "type": "address"
        },
        {
          "internalType": "bool",
          "name": "approved",
          "type": "bool"
        }
      ],
      "name": "custody",
      "outputs": [],
      "stateMutability": "nonpayable",
      "type": "function"
    },
    {
      "inputs": [
        {
          "internalType": "address",
          "name": "",
          "type": "address"
        },
        {
          "internalType": "address",
          "name": "",
          "type": "address"
        },
        {
          "internalType": "uint256[]",
          "name": "",
          "type": "uint256[]"
        },
        {
          "internalType": "uint256[]",
          "name": "",
          "type": "uint256[]"
        },
        {
          "internalType": "bytes",
          "name": "",
          "type": "bytes"
        }
      ],
      "name": "onERC1155BatchReceived",
      "outputs": [
        {
          "internalType": "bytes4",
          "name": "",
          "type": "bytes4"
        }
      ],
      "stateMutability": "pure",
      "type": "function"
    },
    {
      "inputs": [
        {
          "internalType": "address",
          "name": "",
          "type": "address"
        },
        {
          "internalType": "address",
          "name": "",
          "type": "address"
        },
        {
          "internalType": "uint256",
          "name": "",
          "type": "uint256"
        },
        {
          "internalType": "uint256",
          "name": "",
          "type": "uint256"
        },
        {
          "internalType": "bytes",
          "name": "",
          "type": "bytes"
        }
      ],
      "name": "onERC1155Received",
      "outputs": [
        {
          "internalType": "bytes4",
          "name": "",
          "type": "bytes4"
        }
      ],
      "stateMutability": "pure",
      "type": "function"
    },
    {
      "inputs": [],
      "name": "owner",
      "outputs": [
        {
          "internalType": "address",
          "name": "",
          "type": "address"
        }
      ],
      "stateMutability": "view",
      "type": "function"
    },
    {
      "inputs": [],
      "name": "renounceOwnership",
      "outputs": [],
      "stateMutability": "nonpayable",
      "type": "function"
    },
    {
      "inputs": [
        {
          "internalType": "bytes4",
          "name": "interfaceId",
          "type": "bytes4"
        }
      ],
      "name": "supportsInterface",
      "outputs": [
        {
          "internalType": "bool",
          "name": "",
          "type": "bool"
        }
      ],
      "stateMutability": "view",
      "type": "function"
    },
    {
      "inputs": [
        {
          "internalType": "address",
          "name": "newOwner",
          "type": "address"
        }
      ],
      "name": "transferOwnership",
      "outputs": [],
      "stateMutability": "nonpayable",
      "type": "function"
    }
  ],
  "transactionHash": "0xe5805044ec064bfb41e498c5329774b0a2168fcc08d3ae906ac08ebcbfaeea97",
  "args": [
    "0xa4b368e3a9D49Ff15b58f70Fb976724A98B6D149"
  ],
  "numDeployments": 1,
  "solcInputHash": "0f7a7f4bf165a134feffeea35d354e78",
  "bytecode": "0x60806040523480156200001157600080fd5b5060405162000d4c38038062000d4c8339818101604052810190620000379190620001a5565b620000576200004b6200006f60201b60201c565b6200007760201b60201c565b62000068816200007760201b60201c565b50620001d7565b600033905090565b60008060009054906101000a900473ffffffffffffffffffffffffffffffffffffffff169050816000806101000a81548173ffffffffffffffffffffffffffffffffffffffff021916908373ffffffffffffffffffffffffffffffffffffffff1602179055508173ffffffffffffffffffffffffffffffffffffffff168173ffffffffffffffffffffffffffffffffffffffff167f8be0079c531659141344cd1fd0a4f28419497f9722a3daafe3b4186f6b6457e060405160405180910390a35050565b600080fd5b600073ffffffffffffffffffffffffffffffffffffffff82169050919050565b60006200016d8262000140565b9050919050565b6200017f8162000160565b81146200018b57600080fd5b50565b6000815190506200019f8162000174565b92915050565b600060208284031215620001be57620001bd6200013b565b5b6000620001ce848285016200018e565b91505092915050565b610b6580620001e76000396000f3fe608060405234801561001057600080fd5b506004361061007d5760003560e01c80638da5cb5b1161005b5780638da5cb5b146100d8578063bc197c81146100f6578063f23a6e6114610126578063f2fde38b146101565761007d565b806301ffc9a714610082578063715018a6146100b2578063732ef983146100bc575b600080fd5b61009c600480360381019061009791906105cf565b610172565b6040516100a99190610617565b60405180910390f35b6100ba6101dc565b005b6100d660048036038101906100d191906106bc565b610264565b005b6100e0610352565b6040516100ed919061071e565b60405180910390f35b610110600480360381019061010b91906107f4565b61037b565b60405161011d91906108df565b60405180910390f35b610140600480360381019061013b9190610930565b610393565b60405161014d91906108df565b60405180910390f35b610170600480360381019061016b91906109ca565b6103a9565b005b60007f4e2312e0000000000000000000000000000000000000000000000000000000007bffffffffffffffffffffffffffffffffffffffffffffffffffffffff1916827bffffffffffffffffffffffffffffffffffffffffffffffffffffffff1916149050919050565b6101e46104a1565b73ffffffffffffffffffffffffffffffffffffffff16610202610352565b73ffffffffffffffffffffffffffffffffffffffff1614610258576040517f08c379a000000000000000000000000000000000000000000000000000000000815260040161024f90610a54565b60405180910390fd5b61026260006104a9565b565b61026c6104a1565b73ffffffffffffffffffffffffffffffffffffffff1661028a610352565b73ffffffffffffffffffffffffffffffffffffffff16146102e0576040517f08c379a00000000000000000000000000000000000000000000000000000000081526004016102d790610a54565b60405180910390fd5b8273ffffffffffffffffffffffffffffffffffffffff1663a22cb46583836040518363ffffffff1660e01b815260040161031b929190610a74565b600060405180830381600087803b15801561033557600080fd5b505af1158015610349573d6000803e3d6000fd5b50505050505050565b60008060009054906101000a900473ffffffffffffffffffffffffffffffffffffffff16905090565b600063bc197c8160e01b905098975050505050505050565b600063f23a6e6160e01b90509695505050505050565b6103b16104a1565b73ffffffffffffffffffffffffffffffffffffffff166103cf610352565b73ffffffffffffffffffffffffffffffffffffffff1614610425576040517f08c379a000000000000000000000000000000000000000000000000000000000815260040161041c90610a54565b60405180910390fd5b600073ffffffffffffffffffffffffffffffffffffffff168173ffffffffffffffffffffffffffffffffffffffff161415610495576040517f08c379a000000000000000000000000000000000000000000000000000000000815260040161048c90610b0f565b60405180910390fd5b61049e816104a9565b50565b600033905090565b60008060009054906101000a900473ffffffffffffffffffffffffffffffffffffffff169050816000806101000a81548173ffffffffffffffffffffffffffffffffffffffff021916908373ffffffffffffffffffffffffffffffffffffffff1602179055508173ffffffffffffffffffffffffffffffffffffffff168173ffffffffffffffffffffffffffffffffffffffff167f8be0079c531659141344cd1fd0a4f28419497f9722a3daafe3b4186f6b6457e060405160405180910390a35050565b600080fd5b600080fd5b60007fffffffff0000000000000000000000000000000000000000000000000000000082169050919050565b6105ac81610577565b81146105b757600080fd5b50565b6000813590506105c9816105a3565b92915050565b6000602082840312156105e5576105e461056d565b5b60006105f3848285016105ba565b91505092915050565b60008115159050919050565b610611816105fc565b82525050565b600060208201905061062c6000830184610608565b92915050565b600073ffffffffffffffffffffffffffffffffffffffff82169050919050565b600061065d82610632565b9050919050565b61066d81610652565b811461067857600080fd5b50565b60008135905061068a81610664565b92915050565b610699816105fc565b81146106a457600080fd5b50565b6000813590506106b681610690565b92915050565b6000806000606084860312156106d5576106d461056d565b5b60006106e38682870161067b565b93505060206106f48682870161067b565b9250506040610705868287016106a7565b9150509250925092565b61071881610652565b82525050565b6000602082019050610733600083018461070f565b92915050565b600080fd5b600080fd5b600080fd5b60008083601f84011261075e5761075d610739565b5b8235905067ffffffffffffffff81111561077b5761077a61073e565b5b60208301915083602082028301111561079757610796610743565b5b9250929050565b60008083601f8401126107b4576107b3610739565b5b8235905067ffffffffffffffff8111156107d1576107d061073e565b5b6020830191508360018202830111156107ed576107ec610743565b5b9250929050565b60008060008060008060008060a0898b0312156108145761081361056d565b5b60006108228b828c0161067b565b98505060206108338b828c0161067b565b975050604089013567ffffffffffffffff81111561085457610853610572565b5b6108608b828c01610748565b9650965050606089013567ffffffffffffffff81111561088357610882610572565b5b61088f8b828c01610748565b9450945050608089013567ffffffffffffffff8111156108b2576108b1610572565b5b6108be8b828c0161079e565b92509250509295985092959890939650565b6108d981610577565b82525050565b60006020820190506108f460008301846108d0565b92915050565b6000819050919050565b61090d816108fa565b811461091857600080fd5b50565b60008135905061092a81610904565b92915050565b60008060008060008060a0878903121561094d5761094c61056d565b5b600061095b89828a0161067b565b965050602061096c89828a0161067b565b955050604061097d89828a0161091b565b945050606061098e89828a0161091b565b935050608087013567ffffffffffffffff8111156109af576109ae610572565b5b6109bb89828a0161079e565b92509250509295509295509295565b6000602082840312156109e0576109df61056d565b5b60006109ee8482850161067b565b91505092915050565b600082825260208201905092915050565b7f4f776e61626c653a2063616c6c6572206973206e6f7420746865206f776e6572600082015250565b6000610a3e6020836109f7565b9150610a4982610a08565b602082019050919050565b60006020820190508181036000830152610a6d81610a31565b9050919050565b6000604082019050610a89600083018561070f565b610a966020830184610608565b9392505050565b7f4f776e61626c653a206e6577206f776e657220697320746865207a65726f206160008201527f6464726573730000000000000000000000000000000000000000000000000000602082015250565b6000610af96026836109f7565b9150610b0482610a9d565b604082019050919050565b60006020820190508181036000830152610b2881610aec565b905091905056fea264697066735822122058c27575a69a5c6e0d0b8076421a1eb76918cc008116ab571c66403569524da264736f6c634300080b0033",
  "devdoc": {
    "kind": "dev",
    "methods": {
      "owner()": {
        "details": "Returns the address of the current owner."
      },
      "renounceOwnership()": {
        "details": "Leaves the contract without owner. It will not be possible to call `onlyOwner` functions anymore. Can only be called by the current owner. NOTE: Renouncing ownership will leave the contract without an owner, thereby removing any functionality that is only available to the owner."
      },
      "supportsInterface(bytes4)": {
        "details": "Returns true if this contract implements the interface defined by `interfaceId`. See the corresponding https://eips.ethereum.org/EIPS/eip-165#how-interfaces-are-identified[EIP section] to learn more about how these ids are created. This function call must use less than 30 000 gas."
      },
      "transferOwnership(address)": {
        "details": "Transfers ownership of the contract to a new account (`newOwner`). Can only be called by the current owner."
      }
    },
    "version": 1
  },
  "userdoc": {
    "kind": "user",
    "methods": {},
    "version": 1
  },
  "storageLayout": {
    "storage": [
      {
        "astId": 7,
        "contract": "contracts/nft/ERC1155Custodian.sol:ERC1155Custodian",
        "label": "_owner",
        "offset": 0,
        "slot": "0",
        "type": "t_address"
      }
    ],
    "types": {
      "t_address": {
        "encoding": "inplace",
        "label": "address",
        "numberOfBytes": "20"
      }
    }
  }
}