{
  "address": "0xe54916C70f75a1A0C4749e4d830999daeF13f7FD",
  "abi": [
    {
      "anonymous": false,
      "inputs": [
        {
          "indexed": true,
          "internalType": "address",
          "name": "account",
          "type": "address"
        },
        {
          "indexed": false,
          "internalType": "uint256",
          "name": "reward",
          "type": "uint256"
        }
      ],
      "name": "Alchemy",
      "type": "event"
    },
    {
      "anonymous": false,
      "inputs": [
        {
          "indexed": true,
          "internalType": "address",
          "name": "account",
          "type": "address"
        },
        {
          "indexed": true,
          "internalType": "address",
          "name": "operator",
          "type": "address"
        },
        {
          "indexed": false,
          "internalType": "bool",
          "name": "approved",
          "type": "bool"
        }
      ],
      "name": "ApprovalForAll",
      "type": "event"
    },
    {
      "anonymous": false,
      "inputs": [
        {
          "indexed": true,
          "internalType": "uint256",
          "name": "",
          "type": "uint256"
        },
        {
          "indexed": false,
          "internalType": "uint256",
          "name": "",
          "type": "uint256"
        }
      ],
      "name": "Finalize",
      "type": "event"
    },
    {
      "anonymous": false,
      "inputs": [
        {
          "indexed": false,
          "internalType": "uint16",
          "name": "",
          "type": "uint16"
        }
      ],
      "name": "TokenRoyaltyBpsSet",
      "type": "event"
    },
    {
      "anonymous": false,
      "inputs": [
        {
          "indexed": true,
          "internalType": "address",
          "name": "operator",
          "type": "address"
        },
        {
          "indexed": true,
          "internalType": "address",
          "name": "from",
          "type": "address"
        },
        {
          "indexed": true,
          "internalType": "address",
          "name": "to",
          "type": "address"
        },
        {
          "indexed": false,
          "internalType": "uint256[]",
          "name": "ids",
          "type": "uint256[]"
        },
        {
          "indexed": false,
          "internalType": "uint256[]",
          "name": "values",
          "type": "uint256[]"
        }
      ],
      "name": "TransferBatch",
      "type": "event"
    },
    {
      "anonymous": false,
      "inputs": [
        {
          "indexed": true,
          "internalType": "address",
          "name": "operator",
          "type": "address"
        },
        {
          "indexed": true,
          "internalType": "address",
          "name": "from",
          "type": "address"
        },
        {
          "indexed": true,
          "internalType": "address",
          "name": "to",
          "type": "address"
        },
        {
          "indexed": false,
          "internalType": "uint256",
          "name": "id",
          "type": "uint256"
        },
        {
          "indexed": false,
          "internalType": "uint256",
          "name": "value",
          "type": "uint256"
        }
      ],
      "name": "TransferSingle",
      "type": "event"
    },
    {
      "anonymous": false,
      "inputs": [
        {
          "indexed": false,
          "internalType": "string",
          "name": "value",
          "type": "string"
        },
        {
          "indexed": true,
          "internalType": "uint256",
          "name": "tokenId",
          "type": "uint256"
        }
      ],
      "name": "URI",
      "type": "event"
    },
    {
      "inputs": [
        {
          "internalType": "bytes",
          "name": "args",
          "type": "bytes"
        }
      ],
      "name": "__DiamondFallback_init",
      "outputs": [],
      "stateMutability": "nonpayable",
      "type": "function"
    },
    {
      "inputs": [
        {
          "internalType": "address",
          "name": "account",
          "type": "address"
        },
        {
          "internalType": "uint256",
          "name": "id",
          "type": "uint256"
        }
      ],
      "name": "balanceOf",
      "outputs": [
        {
          "internalType": "uint256",
          "name": "",
          "type": "uint256"
        }
      ],
      "stateMutability": "view",
      "type": "function"
    },
    {
      "inputs": [
        {
          "internalType": "address[]",
          "name": "accounts",
          "type": "address[]"
        },
        {
          "internalType": "uint256[]",
          "name": "ids",
          "type": "uint256[]"
        }
      ],
      "name": "balanceOfBatch",
      "outputs": [
        {
          "internalType": "uint256[]",
          "name": "",
          "type": "uint256[]"
        }
      ],
      "stateMutability": "view",
      "type": "function"
    },
    {
      "inputs": [
        {
          "internalType": "uint256[]",
          "name": "ids",
          "type": "uint256[]"
        },
        {
          "internalType": "uint256[]",
          "name": "amounts",
          "type": "uint256[]"
        }
      ],
      "name": "burnBatch",
      "outputs": [],
      "stateMutability": "nonpayable",
      "type": "function"
    },
    {
      "inputs": [
        {
          "internalType": "uint256",
          "name": "reward",
          "type": "uint256"
        }
      ],
      "name": "finalize",
      "outputs": [],
      "stateMutability": "nonpayable",
      "type": "function"
    },
    {
      "inputs": [],
      "name": "getAlchemist",
      "outputs": [
        {
          "internalType": "address",
          "name": "",
          "type": "address"
        }
      ],
      "stateMutability": "pure",
      "type": "function"
    },
    {
      "inputs": [],
      "name": "getMiningToken",
      "outputs": [
        {
          "internalType": "uint256",
          "name": "",
          "type": "uint256"
        }
      ],
      "stateMutability": "view",
      "type": "function"
    },
    {
      "inputs": [],
      "name": "getRewardToken",
      "outputs": [
        {
          "internalType": "address",
          "name": "",
          "type": "address"
        }
      ],
      "stateMutability": "view",
      "type": "function"
    },
    {
      "inputs": [
        {
          "internalType": "uint256[]",
          "name": "ids",
          "type": "uint256[]"
        }
      ],
      "name": "getTokenInfo",
      "outputs": [
        {
          "components": [
            {
              "internalType": "uint256",
              "name": "supply",
              "type": "uint256"
            },
            {
              "internalType": "uint256",
              "name": "reward",
              "type": "uint256"
            }
          ],
          "internalType": "struct Token[]",
          "name": "",
          "type": "tuple[]"
        }
      ],
      "stateMutability": "view",
      "type": "function"
    },
    {
      "inputs": [
        {
          "internalType": "address",
          "name": "account",
          "type": "address"
        },
        {
          "internalType": "address",
          "name": "operator",
          "type": "address"
        }
      ],
      "name": "isApprovedForAll",
      "outputs": [
        {
          "internalType": "bool",
          "name": "",
          "type": "bool"
        }
      ],
      "stateMutability": "view",
      "type": "function"
    },
    {
      "inputs": [
        {
          "internalType": "address",
          "name": "account",
          "type": "address"
        },
        {
          "internalType": "uint256[]",
          "name": "ids",
          "type": "uint256[]"
        },
        {
          "internalType": "uint256[]",
          "name": "amounts",
          "type": "uint256[]"
        },
        {
          "internalType": "bytes",
          "name": "data",
          "type": "bytes"
        }
      ],
      "name": "mintBatch",
      "outputs": [],
      "stateMutability": "nonpayable",
      "type": "function"
    },
    {
      "inputs": [
        {
          "internalType": "uint256",
          "name": "",
          "type": "uint256"
        },
        {
          "internalType": "uint256",
          "name": "value",
          "type": "uint256"
        }
      ],
      "name": "royaltyInfo",
      "outputs": [
        {
          "internalType": "address",
          "name": "",
          "type": "address"
        },
        {
          "internalType": "uint256",
          "name": "",
          "type": "uint256"
        }
      ],
      "stateMutability": "view",
      "type": "function"
    },
    {
      "inputs": [
        {
          "internalType": "address",
          "name": "from",
          "type": "address"
        },
        {
          "internalType": "address",
          "name": "to",
          "type": "address"
        },
        {
          "internalType": "uint256[]",
          "name": "ids",
          "type": "uint256[]"
        },
        {
          "internalType": "uint256[]",
          "name": "amounts",
          "type": "uint256[]"
        },
        {
          "internalType": "bytes",
          "name": "data",
          "type": "bytes"
        }
      ],
      "name": "safeBatchTransferFrom",
      "outputs": [],
      "stateMutability": "nonpayable",
      "type": "function"
    },
    {
      "inputs": [
        {
          "internalType": "address",
          "name": "from",
          "type": "address"
        },
        {
          "internalType": "address",
          "name": "to",
          "type": "address"
        },
        {
          "internalType": "uint256",
          "name": "id",
          "type": "uint256"
        },
        {
          "internalType": "uint256",
          "name": "amount",
          "type": "uint256"
        },
        {
          "internalType": "bytes",
          "name": "data",
          "type": "bytes"
        }
      ],
      "name": "safeTransferFrom",
      "outputs": [],
      "stateMutability": "nonpayable",
      "type": "function"
    },
    {
      "inputs": [
        {
          "internalType": "address",
          "name": "operator",
          "type": "address"
        },
        {
          "internalType": "bool",
          "name": "status",
          "type": "bool"
        }
      ],
      "name": "setApprovalForAll",
      "outputs": [],
      "stateMutability": "nonpayable",
      "type": "function"
    },
    {
      "inputs": [
        {
          "internalType": "address",
          "name": "recipient",
          "type": "address"
        },
        {
          "internalType": "uint16",
          "name": "bps",
          "type": "uint16"
        }
      ],
      "name": "setRoyaltyInfo",
      "outputs": [],
      "stateMutability": "nonpayable",
      "type": "function"
    },
    {
      "inputs": [
        {
          "internalType": "string",
          "name": "baseURI",
          "type": "string"
        }
      ],
      "name": "setURI",
      "outputs": [],
      "stateMutability": "nonpayable",
      "type": "function"
    },
    {
      "inputs": [
        {
          "internalType": "bytes4",
          "name": "interfaceId",
          "type": "bytes4"
        }
      ],
      "name": "supportsInterface",
      "outputs": [
        {
          "internalType": "bool",
          "name": "",
          "type": "bool"
        }
      ],
      "stateMutability": "view",
      "type": "function"
    },
    {
      "inputs": [
        {
          "internalType": "uint256",
          "name": "tokenId",
          "type": "uint256"
        }
      ],
      "name": "uri",
      "outputs": [
        {
          "internalType": "string",
          "name": "",
          "type": "string"
        }
      ],
      "stateMutability": "view",
      "type": "function"
    }
  ],
  "transactionHash": "0x50a482f017249896c28560f338562c186a04e2ac37aff2426730a25d53512142",
  "args": [],
  "numDeployments": 1,
  "solcInputHash": "a6a9f05dc9ec7ebe7cf20fca6f73f448",
  "bytecode": "0x608060405234801561001057600080fd5b5061546c806100206000396000f3fe608060405234801561001057600080fd5b50600436106101205760003560e01c80634e1273f4116100ad5780638b18166f116100715780638b18166f14610316578063a22cb46514610334578063b346cbfc14610350578063e985e9c514610380578063f242432a146103b057610120565b80634e1273f41461027457806369940d79146102a45780636a148876146102c257806372504a24146102de57806383ca4b6f146102fa57610120565b80630e89341c116100f45780630e89341c146101bd5780631f7fdffa146101ed5780632a55205a146102095780632eb2c2d61461023a5780633759425d1461025657610120565b8062fdd58e1461012557806301ffc9a71461015557806302fe53051461018557806305261aea146101a1575b600080fd5b61013f600480360381019061013a9190613ab5565b6103cc565b60405161014c9190614789565b60405180910390f35b61016f600480360381019061016a9190613c40565b6103e0565b60405161017c9190614471565b60405180910390f35b61019f600480360381019061019a9190613cd3565b610403565b005b6101bb60048036038101906101b69190613d14565b6104a8565b005b6101d760048036038101906101d29190613d14565b6105ba565b6040516101e4919061448c565b60405180910390f35b6102076004803603810190610202919061398a565b61077b565b005b610223600480360381019061021e9190613d3d565b6108aa565b6040516102319291906143cd565b60405180910390f35b610254600480360381019061024f919061383c565b610968565b005b61025e6109fc565b60405161026b91906142f0565b60405180910390f35b61028e60048036038101906102899190613af1565b610a0b565b60405161029b9190614418565b60405180910390f35b6102ac610cbe565b6040516102b991906142f0565b60405180910390f35b6102dc60048036038101906102d79190613c92565b610cea565b005b6102f860048036038101906102f39190613a79565b610d4e565b005b610314600480360381019061030f9190613ba2565b610ec3565b005b61031e610fef565b60405161032b9190614789565b60405180910390f35b61034e60048036038101906103499190613a3d565b610ffb565b005b61036a60048036038101906103659190613b5d565b611170565b60405161037791906143f6565b60405180910390f35b61039a60048036038101906103959190613800565b6112d7565b6040516103a79190614471565b60405180910390f35b6103ca60048036038101906103c591906138fb565b611374565b005b60006103d88383611408565b905092915050565b60006103fc826103ee6114db565b61150890919063ffffffff16565b9050919050565b61040b611573565b60000160009054906101000a900473ffffffffffffffffffffffffffffffffffffffff1673ffffffffffffffffffffffffffffffffffffffff163373ffffffffffffffffffffffffffffffffffffffff161461049c576040517f08c379a00000000000000000000000000000000000000000000000000000000081526004016104939061464e565b60405180910390fd5b6104a5816115a0565b50565b6104b0611573565b60000160009054906101000a900473ffffffffffffffffffffffffffffffffffffffff1673ffffffffffffffffffffffffffffffffffffffff163373ffffffffffffffffffffffffffffffffffffffff1614610541576040517f08c379a00000000000000000000000000000000000000000000000000000000081526004016105389061464e565b60405180910390fd5b600080600101549050816000600301600083815260200190815260200160002060010181905550600181610575919061496c565b600060010181905550807f9d3cb3e4bff976f636db6ed472093505eb1b5bafc234ea8276ae83b3ea0a8b74836040516105ae9190614789565b60405180910390a25050565b606060006105c66115c3565b9050600081600101600085815260200190815260200160002080546105ea90614b57565b80601f016020809104026020016040519081016040528092919081815260200182805461061690614b57565b80156106635780601f1061063857610100808354040283529160200191610663565b820191906000526020600020905b81548152906001019060200180831161064657829003601f168201915b50505050509050600082600001805461067b90614b57565b80601f01602080910402602001604051908101604052809291908181526020018280546106a790614b57565b80156106f45780601f106106c9576101008083540402835291602001916106f4565b820191906000526020600020905b8154815290600101906020018083116106d757829003601f168201915b5050505050905060008151141561071057819350505050610776565b60008251111561074657808260405160200161072d9291906142cc565b6040516020818303038152906040529350505050610776565b80610750866115f0565b6040516020016107619291906142cc565b60405160208183030381529060405293505050505b919050565b610783611573565b60000160009054906101000a900473ffffffffffffffffffffffffffffffffffffffff1673ffffffffffffffffffffffffffffffffffffffff163373ffffffffffffffffffffffffffffffffffffffff1614610814576040517f08c379a000000000000000000000000000000000000000000000000000000000815260040161080b9061464e565b60405180910390fd5b6108a286868680806020026020016040519081016040528093929190818152602001838360200280828437600081840152601f19601f82011690508083019250505050505050858580806020026020016040519081016040528093929190818152602001838360200280828437600081840152601f19601f820116905080830192505050505050508461179d565b505050505050565b6000806000806002016040518060400160405290816000820160009054906101000a900473ffffffffffffffffffffffffffffffffffffffff1673ffffffffffffffffffffffffffffffffffffffff1673ffffffffffffffffffffffffffffffffffffffff1681526020016000820160149054906101000a900461ffff1661ffff1661ffff168152505090508060000151612710826020015161ffff168661095291906149f3565b61095c91906149c2565b92509250509250929050565b3373ffffffffffffffffffffffffffffffffffffffff168573ffffffffffffffffffffffffffffffffffffffff1614806109a857506109a785336112d7565b5b6109e7576040517f08c379a00000000000000000000000000000000000000000000000000000000081526004016109de9061456e565b60405180910390fd5b6109f53386868686866117be565b5050505050565b6000610a066117e2565b905090565b60608151835114610a51576040517f08c379a0000000000000000000000000000000000000000000000000000000008152600401610a489061470e565b60405180910390fd5b6000610a5b6117fe565b60000190506000845167ffffffffffffffff811115610aa3577f4e487b7100000000000000000000000000000000000000000000000000000000600052604160045260246000fd5b604051908082528060200260200182016040528015610ad15781602001602082028036833780820191505090505b50905060005b8551811015610cb257600073ffffffffffffffffffffffffffffffffffffffff16868281518110610b31577f4e487b7100000000000000000000000000000000000000000000000000000000600052603260045260246000fd5b602002602001015173ffffffffffffffffffffffffffffffffffffffff161415610b90576040517f08c379a0000000000000000000000000000000000000000000000000000000008152600401610b879061450e565b60405180910390fd5b826000868381518110610bcc577f4e487b7100000000000000000000000000000000000000000000000000000000600052603260045260246000fd5b602002602001015181526020019081526020016000206000878381518110610c1d577f4e487b7100000000000000000000000000000000000000000000000000000000600052603260045260246000fd5b602002602001015173ffffffffffffffffffffffffffffffffffffffff1673ffffffffffffffffffffffffffffffffffffffff16815260200190815260200160002054828281518110610c99577f4e487b7100000000000000000000000000000000000000000000000000000000600052603260045260246000fd5b6020026020010181815250508080600101915050610ad7565b50809250505092915050565b60008060000160009054906101000a900473ffffffffffffffffffffffffffffffffffffffff16905090565b610cf261182b565b60000160019054906101000a900460ff16610d42576040517f08c379a0000000000000000000000000000000000000000000000000000000008152600401610d39906146ae565b60405180910390fd5b610d4b81611858565b50565b610d56611573565b60000160009054906101000a900473ffffffffffffffffffffffffffffffffffffffff1673ffffffffffffffffffffffffffffffffffffffff163373ffffffffffffffffffffffffffffffffffffffff1614610de7576040517f08c379a0000000000000000000000000000000000000000000000000000000008152600401610dde9061464e565b60405180910390fd5b60405180604001604052808373ffffffffffffffffffffffffffffffffffffffff1681526020018261ffff16815250600060020160008201518160000160006101000a81548173ffffffffffffffffffffffffffffffffffffffff021916908373ffffffffffffffffffffffffffffffffffffffff16021790555060208201518160000160146101000a81548161ffff021916908361ffff1602179055509050507f577133166751d165db2e7f4c7b9f50ef67bf80781894fc7f4d53df1067a39df181604051610eb7919061476e565b60405180910390a15050565b610ecb611573565b60000160009054906101000a900473ffffffffffffffffffffffffffffffffffffffff1673ffffffffffffffffffffffffffffffffffffffff163373ffffffffffffffffffffffffffffffffffffffff1614610f5c576040517f08c379a0000000000000000000000000000000000000000000000000000000008152600401610f539061464e565b60405180910390fd5b610fe933858580806020026020016040519081016040528093929190818152602001838360200280828437600081840152601f19601f82011690508083019250505050505050848480806020026020016040519081016040528093929190818152602001838360200280828437600081840152601f19601f820116905080830192505050505050506119c6565b50505050565b60008060010154905090565b8173ffffffffffffffffffffffffffffffffffffffff163373ffffffffffffffffffffffffffffffffffffffff16141561106a576040517f08c379a0000000000000000000000000000000000000000000000000000000008152600401611061906146ce565b60405180910390fd5b806110736117fe565b60010160003373ffffffffffffffffffffffffffffffffffffffff1673ffffffffffffffffffffffffffffffffffffffff16815260200190815260200160002060008473ffffffffffffffffffffffffffffffffffffffff1673ffffffffffffffffffffffffffffffffffffffff16815260200190815260200160002060006101000a81548160ff0219169083151502179055508173ffffffffffffffffffffffffffffffffffffffff163373ffffffffffffffffffffffffffffffffffffffff167f17307eab39ab6107e8899845ad3d59bd9653f200f220920489ca2b5937696c31836040516111649190614471565b60405180910390a35050565b606060008383905067ffffffffffffffff8111156111b7577f4e487b7100000000000000000000000000000000000000000000000000000000600052604160045260246000fd5b6040519080825280602002602001820160405280156111f057816020015b6111dd61335d565b8152602001906001900390816111d55790505b50905060005b848490508110156112cc5760006003016000868684818110611241577f4e487b7100000000000000000000000000000000000000000000000000000000600052603260045260246000fd5b905060200201358152602001908152602001600020604051806040016040529081600082015481526020016001820154815250508282815181106112ae577f4e487b7100000000000000000000000000000000000000000000000000000000600052603260045260246000fd5b602002602001018190525080806112c490614bba565b9150506111f6565b508091505092915050565b60006112e16117fe565b60010160008473ffffffffffffffffffffffffffffffffffffffff1673ffffffffffffffffffffffffffffffffffffffff16815260200190815260200160002060008373ffffffffffffffffffffffffffffffffffffffff1673ffffffffffffffffffffffffffffffffffffffff16815260200190815260200160002060009054906101000a900460ff16905092915050565b3373ffffffffffffffffffffffffffffffffffffffff168573ffffffffffffffffffffffffffffffffffffffff1614806113b457506113b385336112d7565b5b6113f3576040517f08c379a00000000000000000000000000000000000000000000000000000000081526004016113ea9061456e565b60405180910390fd5b611401338686868686611cfb565b5050505050565b60008073ffffffffffffffffffffffffffffffffffffffff168373ffffffffffffffffffffffffffffffffffffffff161415611479576040517f08c379a0000000000000000000000000000000000000000000000000000000008152600401611470906144ee565b60405180910390fd5b6114816117fe565b600001600083815260200190815260200160002060008473ffffffffffffffffffffffffffffffffffffffff1673ffffffffffffffffffffffffffffffffffffffff16815260200190815260200160002054905092915050565b6000807f326d0c59a7612f6a9919e2a8ee333c80ba689d8ba2634de89c85cbb04832e70590508091505090565b6000826000016000837bffffffffffffffffffffffffffffffffffffffffffffffffffffffff19167bffffffffffffffffffffffffffffffffffffffffffffffffffffffff1916815260200190815260200160002060009054906101000a900460ff16905092915050565b6000807f8a22373512790c48b83a1fe2efdd2888d4a917bcdc24d0adf63e60f67168046090508091505090565b806115a96115c3565b60000190805190602001906115bf929190613377565b5050565b6000807f4281b61aefbe70b3d3f684b428efca5f33077bc240e76f2808f9177c307617f490508091505090565b60606000821415611638576040518060400160405280600181526020017f30000000000000000000000000000000000000000000000000000000000000008152509050611798565b600082905060005b6000821461166a57808061165390614bba565b915050600a8261166391906149c2565b9150611640565b60008167ffffffffffffffff8111156116ac577f4e487b7100000000000000000000000000000000000000000000000000000000600052604160045260246000fd5b6040519080825280601f01601f1916602001820160405280156116de5781602001600182028036833780820191505090505b5090505b60008514611791576001826116f79190614a4d565b9150600a856117069190614c03565b6030611712919061496c565b60f81b81838151811061174e577f4e487b7100000000000000000000000000000000000000000000000000000000600052603260045260246000fd5b60200101907effffffffffffffffffffffffffffffffffffffffffffffffffffffffffffff1916908160001a905350600a8561178a91906149c2565b94506116e2565b8093505050505b919050565b6117a984848484611d1f565b6117b833600086868686611f7d565b50505050565b6117cc868686868686612164565b6117da868686868686611f7d565b505050505050565b6000731a811678eeedf16a1d0df4b12e290f78a61a28f9905090565b6000807f1799cf914cb0cb442ca7c7ac709ee40d0cb89e87351dc08d517fbda27d50c68b90508091505090565b6000807f2ae1e818fc317b4c150084d41bf7468a28b0861c8b85a3e58e4bb4d5dbbc6aa190508091505090565b61186061182b565b60000160019054906101000a900460ff166118b0576040517f08c379a00000000000000000000000000000000000000000000000000000000081526004016118a7906146ae565b60405180910390fd5b600080600080848060200190518101906118ca9190613785565b935093509350935060405180604001604052808573ffffffffffffffffffffffffffffffffffffffff1681526020018461ffff16815250600060020160008201518160000160006101000a81548173ffffffffffffffffffffffffffffffffffffffff021916908373ffffffffffffffffffffffffffffffffffffffff16021790555060208201518160000160146101000a81548161ffff021916908361ffff160217905550905050816000800160006101000a81548173ffffffffffffffffffffffffffffffffffffffff021916908373ffffffffffffffffffffffffffffffffffffffff1602179055506119bf816115a0565b5050505050565b600073ffffffffffffffffffffffffffffffffffffffff168373ffffffffffffffffffffffffffffffffffffffff161415611a36576040517f08c379a0000000000000000000000000000000000000000000000000000000008152600401611a2d9061460e565b60405180910390fd5b8051825114611a7a576040517f08c379a0000000000000000000000000000000000000000000000000000000008152600401611a719061472e565b60405180910390fd5b611a98338460008585604051806020016040528060008152506124bc565b6000611aa26117fe565b600001905060005b8351811015611c75576000848281518110611aee577f4e487b7100000000000000000000000000000000000000000000000000000000600052603260045260246000fd5b60200260200101519050838281518110611b31577f4e487b7100000000000000000000000000000000000000000000000000000000600052603260045260246000fd5b602002602001015183600083815260200190815260200160002060008873ffffffffffffffffffffffffffffffffffffffff1673ffffffffffffffffffffffffffffffffffffffff168152602001908152602001600020541015611bca576040517f08c379a0000000000000000000000000000000000000000000000000000000008152600401611bc19061452e565b60405180910390fd5b838281518110611c03577f4e487b7100000000000000000000000000000000000000000000000000000000600052603260045260246000fd5b602002602001015183600083815260200190815260200160002060008873ffffffffffffffffffffffffffffffffffffffff1673ffffffffffffffffffffffffffffffffffffffff16815260200190815260200160002060008282540392505081905550508080600101915050611aaa565b50600073ffffffffffffffffffffffffffffffffffffffff168473ffffffffffffffffffffffffffffffffffffffff163373ffffffffffffffffffffffffffffffffffffffff167f4a39dc06d4c0dbc64b70af90fd698a233a518aa5d07e595d983b8c0526c8f7fb8686604051611ced92919061443a565b60405180910390a450505050565b611d09868686868686612afd565b611d17868686868686612d75565b505050505050565b600073ffffffffffffffffffffffffffffffffffffffff168473ffffffffffffffffffffffffffffffffffffffff161415611d8f576040517f08c379a0000000000000000000000000000000000000000000000000000000008152600401611d869061474e565b60405180910390fd5b8151835114611dd3576040517f08c379a0000000000000000000000000000000000000000000000000000000008152600401611dca9061472e565b60405180910390fd5b611de2336000868686866124bc565b6000611dec6117fe565b600001905060005b8451811015611ef657838181518110611e36577f4e487b7100000000000000000000000000000000000000000000000000000000600052603260045260246000fd5b6020026020010151826000878481518110611e7a577f4e487b7100000000000000000000000000000000000000000000000000000000600052603260045260246000fd5b6020026020010151815260200190815260200160002060008873ffffffffffffffffffffffffffffffffffffffff1673ffffffffffffffffffffffffffffffffffffffff1681526020019081526020016000206000828254611edc919061496c565b925050819055508080611eee90614bba565b915050611df4565b508473ffffffffffffffffffffffffffffffffffffffff16600073ffffffffffffffffffffffffffffffffffffffff163373ffffffffffffffffffffffffffffffffffffffff167f4a39dc06d4c0dbc64b70af90fd698a233a518aa5d07e595d983b8c0526c8f7fb8787604051611f6e92919061443a565b60405180910390a45050505050565b611f9c8473ffffffffffffffffffffffffffffffffffffffff16612f5c565b1561215c578373ffffffffffffffffffffffffffffffffffffffff1663bc197c8187878686866040518663ffffffff1660e01b8152600401611fe295949392919061430b565b602060405180830381600087803b158015611ffc57600080fd5b505af192505050801561202d57506040513d601f19601f8201168201806040525081019061202a9190613c69565b60015b6120d357612039614cf0565b806308c379a01415612096575061204e615316565b806120595750612098565b806040517f08c379a000000000000000000000000000000000000000000000000000000000815260040161208d919061448c565b60405180910390fd5b505b6040517f08c379a00000000000000000000000000000000000000000000000000000000081526004016120ca906144ae565b60405180910390fd5b63bc197c8160e01b7bffffffffffffffffffffffffffffffffffffffffffffffffffffffff1916817bffffffffffffffffffffffffffffffffffffffffffffffffffffffff19161461215a576040517f08c379a0000000000000000000000000000000000000000000000000000000008152600401612151906144ce565b60405180910390fd5b505b505050505050565b600073ffffffffffffffffffffffffffffffffffffffff168473ffffffffffffffffffffffffffffffffffffffff1614156121d4576040517f08c379a00000000000000000000000000000000000000000000000000000000081526004016121cb906145ee565b60405180910390fd5b8151835114612218576040517f08c379a000000000000000000000000000000000000000000000000000000000815260040161220f9061472e565b60405180910390fd5b6122268686868686866124bc565b60006122306117fe565b600001905060005b845181101561243457600085828151811061227c577f4e487b7100000000000000000000000000000000000000000000000000000000600052603260045260246000fd5b6020026020010151905060008583815181106122c1577f4e487b7100000000000000000000000000000000000000000000000000000000600052603260045260246000fd5b60200260200101519050600084600084815260200190815260200160002060008b73ffffffffffffffffffffffffffffffffffffffff1673ffffffffffffffffffffffffffffffffffffffff16815260200190815260200160002054905081811015612362576040517f08c379a00000000000000000000000000000000000000000000000000000000081526004016123599061454e565b60405180910390fd5b81810385600085815260200190815260200160002060008c73ffffffffffffffffffffffffffffffffffffffff1673ffffffffffffffffffffffffffffffffffffffff16815260200190815260200160002081905550508084600084815260200190815260200160002060008a73ffffffffffffffffffffffffffffffffffffffff1673ffffffffffffffffffffffffffffffffffffffff1681526020019081526020016000206000828254612418919061496c565b925050819055505050808061242c90614bba565b915050612238565b508473ffffffffffffffffffffffffffffffffffffffff168673ffffffffffffffffffffffffffffffffffffffff168873ffffffffffffffffffffffffffffffffffffffff167f4a39dc06d4c0dbc64b70af90fd698a233a518aa5d07e595d983b8c0526c8f7fb87876040516124ab92919061443a565b60405180910390a450505050505050565b6124ca868686868686612f6f565b60006124d46117e2565b90508073ffffffffffffffffffffffffffffffffffffffff168673ffffffffffffffffffffffffffffffffffffffff161415612545576040517f08c379a000000000000000000000000000000000000000000000000000000000815260040161253c9061466e565b60405180910390fd5b8073ffffffffffffffffffffffffffffffffffffffff168573ffffffffffffffffffffffffffffffffffffffff1614156127d057612581612f77565b60000160009054906101000a900460ff16156125d2576040517f08c379a00000000000000000000000000000000000000000000000000000000081526004016125c9906145ce565b60405180910390fd5b6000806001015490506000805b865181101561272f5782878281518110612622577f4e487b7100000000000000000000000000000000000000000000000000000000600052603260045260246000fd5b60200260200101511061266a576040517f08c379a00000000000000000000000000000000000000000000000000000000081526004016126619061462e565b60405180910390fd5b600060030160008883815181106126aa577f4e487b7100000000000000000000000000000000000000000000000000000000600052603260045260246000fd5b60200260200101518152602001908152602001600020600101548682815181106126fd577f4e487b7100000000000000000000000000000000000000000000000000000000600052603260045260246000fd5b602002602001015161270f91906149f3565b8261271a919061496c565b9150808061272790614bba565b9150506125df565b5061277f88826000800160009054906101000a900473ffffffffffffffffffffffffffffffffffffffff1673ffffffffffffffffffffffffffffffffffffffff16612fa49092919063ffffffff16565b8773ffffffffffffffffffffffffffffffffffffffff167fe9df6fe73a4a0b4ca42668b18744091a48a640da4eccde958e65747c9b85606b826040516127c59190614789565b60405180910390a250505b600073ffffffffffffffffffffffffffffffffffffffff168573ffffffffffffffffffffffffffffffffffffffff1614156129625760008060010154905060005b855181101561295f5781868281518110612854577f4e487b7100000000000000000000000000000000000000000000000000000000600052603260045260246000fd5b60200260200101511161289c576040517f08c379a0000000000000000000000000000000000000000000000000000000008152600401612893906145ae565b60405180910390fd5b8481815181106128d5577f4e487b7100000000000000000000000000000000000000000000000000000000600052603260045260246000fd5b60200260200101516000600301600088848151811061291d577f4e487b7100000000000000000000000000000000000000000000000000000000600052603260045260246000fd5b6020026020010151815260200190815260200160002060000160008282546129459190614a4d565b92505081905550808061295790614bba565b915050612811565b50505b600073ffffffffffffffffffffffffffffffffffffffff168673ffffffffffffffffffffffffffffffffffffffff161415612af45760008060010154905060005b8551811015612af157818682815181106129e6577f4e487b7100000000000000000000000000000000000000000000000000000000600052603260045260246000fd5b602002602001015111612a2e576040517f08c379a0000000000000000000000000000000000000000000000000000000008152600401612a25906145ae565b60405180910390fd5b848181518110612a67577f4e487b7100000000000000000000000000000000000000000000000000000000600052603260045260246000fd5b602002602001015160006003016000888481518110612aaf577f4e487b7100000000000000000000000000000000000000000000000000000000600052603260045260246000fd5b602002602001015181526020019081526020016000206000016000828254612ad7919061496c565b925050819055508080612ae990614bba565b9150506129a3565b50505b50505050505050565b600073ffffffffffffffffffffffffffffffffffffffff168473ffffffffffffffffffffffffffffffffffffffff161415612b6d576040517f08c379a0000000000000000000000000000000000000000000000000000000008152600401612b64906145ee565b60405180910390fd5b612b8b868686612b7c8761302a565b612b858761302a565b866124bc565b6000612b956117fe565b6000019050600081600086815260200190815260200160002060008873ffffffffffffffffffffffffffffffffffffffff1673ffffffffffffffffffffffffffffffffffffffff16815260200190815260200160002054905083811015612c31576040517f08c379a0000000000000000000000000000000000000000000000000000000008152600401612c289061454e565b60405180910390fd5b83810382600087815260200190815260200160002060008973ffffffffffffffffffffffffffffffffffffffff1673ffffffffffffffffffffffffffffffffffffffff16815260200190815260200160002081905550508281600086815260200190815260200160002060008773ffffffffffffffffffffffffffffffffffffffff1673ffffffffffffffffffffffffffffffffffffffff1681526020019081526020016000206000828254612ce7919061496c565b925050819055508473ffffffffffffffffffffffffffffffffffffffff168673ffffffffffffffffffffffffffffffffffffffff168873ffffffffffffffffffffffffffffffffffffffff167fc3d58168c5ae7397731d063d5bbf3d657854427343f4c083240f7aacaa2d0f628787604051612d649291906147a4565b60405180910390a450505050505050565b612d948473ffffffffffffffffffffffffffffffffffffffff16612f5c565b15612f54578373ffffffffffffffffffffffffffffffffffffffff1663f23a6e6187878686866040518663ffffffff1660e01b8152600401612dda959493929190614373565b602060405180830381600087803b158015612df457600080fd5b505af1925050508015612e2557506040513d601f19601f82011682018060405250810190612e229190613c69565b60015b612ecb57612e31614cf0565b806308c379a01415612e8e5750612e46615316565b80612e515750612e90565b806040517f08c379a0000000000000000000000000000000000000000000000000000000008152600401612e85919061448c565b60405180910390fd5b505b6040517f08c379a0000000000000000000000000000000000000000000000000000000008152600401612ec2906144ae565b60405180910390fd5b63f23a6e6160e01b7bffffffffffffffffffffffffffffffffffffffffffffffffffffffff1916817bffffffffffffffffffffffffffffffffffffffffffffffffffffffff191614612f52576040517f08c379a0000000000000000000000000000000000000000000000000000000008152600401612f49906144ce565b60405180910390fd5b505b505050505050565b600080823b905060008111915050919050565b505050505050565b6000807f68721c0bbf2c02a4d65000340d1370666be06a630022208d4baa9bd7a4b6fea890508091505090565b6130258363a9059cbb60e01b8484604051602401612fc39291906143cd565b604051602081830303815290604052907bffffffffffffffffffffffffffffffffffffffffffffffffffffffff19166020820180517bffffffffffffffffffffffffffffffffffffffffffffffffffffffff83818316178352505050506130f0565b505050565b60606000600167ffffffffffffffff81111561306f577f4e487b7100000000000000000000000000000000000000000000000000000000600052604160045260246000fd5b60405190808252806020026020018201604052801561309d5781602001602082028036833780820191505090505b50905082816000815181106130db577f4e487b7100000000000000000000000000000000000000000000000000000000600052603260045260246000fd5b60200260200101818152505080915050919050565b6000613152826040518060400160405280602081526020017f5361666545524332303a206c6f772d6c6576656c2063616c6c206661696c65648152508573ffffffffffffffffffffffffffffffffffffffff166131b79092919063ffffffff16565b90506000815111156131b257808060200190518101906131729190613c17565b6131b1576040517f08c379a00000000000000000000000000000000000000000000000000000000081526004016131a8906146ee565b60405180910390fd5b5b505050565b60606131c684846000856131cf565b90509392505050565b606082471015613214576040517f08c379a000000000000000000000000000000000000000000000000000000000815260040161320b9061458e565b60405180910390fd5b61321d856132e3565b61325c576040517f08c379a00000000000000000000000000000000000000000000000000000000081526004016132539061468e565b60405180910390fd5b6000808673ffffffffffffffffffffffffffffffffffffffff16858760405161328591906142b5565b60006040518083038185875af1925050503d80600081146132c2576040519150601f19603f3d011682016040523d82523d6000602084013e6132c7565b606091505b50915091506132d78282866132f6565b92505050949350505050565b600080823b905060008111915050919050565b6060831561330657829050613356565b6000835111156133195782518084602001fd5b816040517f08c379a000000000000000000000000000000000000000000000000000000000815260040161334d919061448c565b60405180910390fd5b9392505050565b604051806040016040528060008152602001600081525090565b82805461338390614b57565b90600052602060002090601f0160209004810192826133a557600085556133ec565b82601f106133be57805160ff19168380011785556133ec565b828001600101855582156133ec579182015b828111156133eb5782518255916020019190600101906133d0565b5b5090506133f991906133fd565b5090565b5b808211156134165760008160009055506001016133fe565b5090565b600061342d613428846147f2565b6147cd565b9050808382526020820190508285602086028201111561344c57600080fd5b60005b8581101561347c578161346288826135ac565b84526020840193506020830192505060018101905061344f565b5050509392505050565b60006134996134948461481e565b6147cd565b905080838252602082019050828560208602820111156134b857600080fd5b60005b858110156134e857816134ce8882613770565b8452602084019350602083019250506001810190506134bb565b5050509392505050565b60006135056135008461484a565b6147cd565b90508281526020810184848401111561351d57600080fd5b613528848285614b15565b509392505050565b600061354361353e8461487b565b6147cd565b90508281526020810184848401111561355b57600080fd5b613566848285614b15565b509392505050565b600061358161357c8461487b565b6147cd565b90508281526020810184848401111561359957600080fd5b6135a4848285614b24565b509392505050565b6000813590506135bb816153ac565b92915050565b6000815190506135d0816153c3565b92915050565b600082601f8301126135e757600080fd5b81356135f784826020860161341a565b91505092915050565b60008083601f84011261361257600080fd5b8235905067ffffffffffffffff81111561362b57600080fd5b60208301915083602082028301111561364357600080fd5b9250929050565b600082601f83011261365b57600080fd5b813561366b848260208601613486565b91505092915050565b600081359050613683816153da565b92915050565b600081519050613698816153da565b92915050565b6000813590506136ad816153f1565b92915050565b6000815190506136c2816153f1565b92915050565b600082601f8301126136d957600080fd5b81356136e98482602086016134f2565b91505092915050565b600082601f83011261370357600080fd5b8135613713848260208601613530565b91505092915050565b600082601f83011261372d57600080fd5b815161373d84826020860161356e565b91505092915050565b60008135905061375581615408565b92915050565b60008151905061376a81615408565b92915050565b60008135905061377f8161541f565b92915050565b6000806000806080858703121561379b57600080fd5b60006137a9878288016135c1565b94505060206137ba8782880161375b565b93505060406137cb878288016135c1565b925050606085015167ffffffffffffffff8111156137e857600080fd5b6137f48782880161371c565b91505092959194509250565b6000806040838503121561381357600080fd5b6000613821858286016135ac565b9250506020613832858286016135ac565b9150509250929050565b600080600080600060a0868803121561385457600080fd5b6000613862888289016135ac565b9550506020613873888289016135ac565b945050604086013567ffffffffffffffff81111561389057600080fd5b61389c8882890161364a565b935050606086013567ffffffffffffffff8111156138b957600080fd5b6138c58882890161364a565b925050608086013567ffffffffffffffff8111156138e257600080fd5b6138ee888289016136c8565b9150509295509295909350565b600080600080600060a0868803121561391357600080fd5b6000613921888289016135ac565b9550506020613932888289016135ac565b945050604061394388828901613770565b935050606061395488828901613770565b925050608086013567ffffffffffffffff81111561397157600080fd5b61397d888289016136c8565b9150509295509295909350565b600080600080600080608087890312156139a357600080fd5b60006139b189828a016135ac565b965050602087013567ffffffffffffffff8111156139ce57600080fd5b6139da89828a01613600565b9550955050604087013567ffffffffffffffff8111156139f957600080fd5b613a0589828a01613600565b9350935050606087013567ffffffffffffffff811115613a2457600080fd5b613a3089828a016136c8565b9150509295509295509295565b60008060408385031215613a5057600080fd5b6000613a5e858286016135ac565b9250506020613a6f85828601613674565b9150509250929050565b60008060408385031215613a8c57600080fd5b6000613a9a858286016135ac565b9250506020613aab85828601613746565b9150509250929050565b60008060408385031215613ac857600080fd5b6000613ad6858286016135ac565b9250506020613ae785828601613770565b9150509250929050565b60008060408385031215613b0457600080fd5b600083013567ffffffffffffffff811115613b1e57600080fd5b613b2a858286016135d6565b925050602083013567ffffffffffffffff811115613b4757600080fd5b613b538582860161364a565b9150509250929050565b60008060208385031215613b7057600080fd5b600083013567ffffffffffffffff811115613b8a57600080fd5b613b9685828601613600565b92509250509250929050565b60008060008060408587031215613bb857600080fd5b600085013567ffffffffffffffff811115613bd257600080fd5b613bde87828801613600565b9450945050602085013567ffffffffffffffff811115613bfd57600080fd5b613c0987828801613600565b925092505092959194509250565b600060208284031215613c2957600080fd5b6000613c3784828501613689565b91505092915050565b600060208284031215613c5257600080fd5b6000613c608482850161369e565b91505092915050565b600060208284031215613c7b57600080fd5b6000613c89848285016136b3565b91505092915050565b600060208284031215613ca457600080fd5b600082013567ffffffffffffffff811115613cbe57600080fd5b613cca848285016136c8565b91505092915050565b600060208284031215613ce557600080fd5b600082013567ffffffffffffffff811115613cff57600080fd5b613d0b848285016136f2565b91505092915050565b600060208284031215613d2657600080fd5b6000613d3484828501613770565b91505092915050565b60008060408385031215613d5057600080fd5b6000613d5e85828601613770565b9250506020613d6f85828601613770565b9150509250929050565b6000613d858383614259565b60408301905092915050565b6000613d9d8383614297565b60208301905092915050565b613db281614a81565b82525050565b6000613dc3826148cc565b613dcd8185614912565b9350613dd8836148ac565b8060005b83811015613e09578151613df08882613d79565b9750613dfb836148f8565b925050600181019050613ddc565b5085935050505092915050565b6000613e21826148d7565b613e2b8185614923565b9350613e36836148bc565b8060005b83811015613e67578151613e4e8882613d91565b9750613e5983614905565b925050600181019050613e3a565b5085935050505092915050565b613e7d81614aa5565b82525050565b6000613e8e826148e2565b613e988185614934565b9350613ea8818560208601614b24565b613eb181614d12565b840191505092915050565b6000613ec7826148e2565b613ed18185614945565b9350613ee1818560208601614b24565b80840191505092915050565b6000613ef8826148ed565b613f028185614950565b9350613f12818560208601614b24565b613f1b81614d12565b840191505092915050565b6000613f31826148ed565b613f3b8185614961565b9350613f4b818560208601614b24565b80840191505092915050565b6000613f64603483614950565b9150613f6f82614d30565b604082019050919050565b6000613f87602883614950565b9150613f9282614d7f565b604082019050919050565b6000613faa602b83614950565b9150613fb582614dce565b604082019050919050565b6000613fcd603183614950565b9150613fd882614e1d565b604082019050919050565b6000613ff0602483614950565b9150613ffb82614e6c565b604082019050919050565b6000614013602b83614950565b915061401e82614ebb565b604082019050919050565b6000614036602983614950565b915061404182614f0a565b604082019050919050565b6000614059602683614950565b915061406482614f59565b604082019050919050565b600061407c602083614950565b915061408782614fa8565b602082019050919050565b600061409f601083614950565b91506140aa82614fd1565b602082019050919050565b60006140c2602583614950565b91506140cd82614ffa565b604082019050919050565b60006140e5602383614950565b91506140f082615049565b604082019050919050565b6000614108601a83614950565b915061411382615098565b602082019050919050565b600061412b601d83614950565b9150614136826150c1565b602082019050919050565b600061414e601983614950565b9150614159826150ea565b602082019050919050565b6000614171601d83614950565b915061417c82615113565b602082019050919050565b6000614194602b83614950565b915061419f8261513c565b604082019050919050565b60006141b7602983614950565b91506141c28261518b565b604082019050919050565b60006141da602a83614950565b91506141e5826151da565b604082019050919050565b60006141fd602983614950565b915061420882615229565b604082019050919050565b6000614220602883614950565b915061422b82615278565b604082019050919050565b6000614243602183614950565b915061424e826152c7565b604082019050919050565b60408201600082015161426f6000850182614297565b5060208201516142826020850182614297565b50505050565b61429181614add565b82525050565b6142a081614b0b565b82525050565b6142af81614b0b565b82525050565b60006142c18284613ebc565b915081905092915050565b60006142d88285613f26565b91506142e48284613f26565b91508190509392505050565b60006020820190506143056000830184613da9565b92915050565b600060a0820190506143206000830188613da9565b61432d6020830187613da9565b818103604083015261433f8186613e16565b905081810360608301526143538185613e16565b905081810360808301526143678184613e83565b90509695505050505050565b600060a0820190506143886000830188613da9565b6143956020830187613da9565b6143a260408301866142a6565b6143af60608301856142a6565b81810360808301526143c18184613e83565b90509695505050505050565b60006040820190506143e26000830185613da9565b6143ef60208301846142a6565b9392505050565b600060208201905081810360008301526144108184613db8565b905092915050565b600060208201905081810360008301526144328184613e16565b905092915050565b600060408201905081810360008301526144548185613e16565b905081810360208301526144688184613e16565b90509392505050565b60006020820190506144866000830184613e74565b92915050565b600060208201905081810360008301526144a68184613eed565b905092915050565b600060208201905081810360008301526144c781613f57565b9050919050565b600060208201905081810360008301526144e781613f7a565b9050919050565b6000602082019050818103600083015261450781613f9d565b9050919050565b6000602082019050818103600083015261452781613fc0565b9050919050565b6000602082019050818103600083015261454781613fe3565b9050919050565b6000602082019050818103600083015261456781614006565b9050919050565b6000602082019050818103600083015261458781614029565b9050919050565b600060208201905081810360008301526145a78161404c565b9050919050565b600060208201905081810360008301526145c78161406f565b9050919050565b600060208201905081810360008301526145e781614092565b9050919050565b60006020820190508181036000830152614607816140b5565b9050919050565b60006020820190508181036000830152614627816140d8565b9050919050565b60006020820190508181036000830152614647816140fb565b9050919050565b600060208201905081810360008301526146678161411e565b9050919050565b6000602082019050818103600083015261468781614141565b9050919050565b600060208201905081810360008301526146a781614164565b9050919050565b600060208201905081810360008301526146c781614187565b9050919050565b600060208201905081810360008301526146e7816141aa565b9050919050565b60006020820190508181036000830152614707816141cd565b9050919050565b60006020820190508181036000830152614727816141f0565b9050919050565b6000602082019050818103600083015261474781614213565b9050919050565b6000602082019050818103600083015261476781614236565b9050919050565b60006020820190506147836000830184614288565b92915050565b600060208201905061479e60008301846142a6565b92915050565b60006040820190506147b960008301856142a6565b6147c660208301846142a6565b9392505050565b60006147d76147e8565b90506147e38282614b89565b919050565b6000604051905090565b600067ffffffffffffffff82111561480d5761480c614cc1565b5b602082029050602081019050919050565b600067ffffffffffffffff82111561483957614838614cc1565b5b602082029050602081019050919050565b600067ffffffffffffffff82111561486557614864614cc1565b5b61486e82614d12565b9050602081019050919050565b600067ffffffffffffffff82111561489657614895614cc1565b5b61489f82614d12565b9050602081019050919050565b6000819050602082019050919050565b6000819050602082019050919050565b600081519050919050565b600081519050919050565b600081519050919050565b600081519050919050565b6000602082019050919050565b6000602082019050919050565b600082825260208201905092915050565b600082825260208201905092915050565b600082825260208201905092915050565b600081905092915050565b600082825260208201905092915050565b600081905092915050565b600061497782614b0b565b915061498283614b0b565b9250827fffffffffffffffffffffffffffffffffffffffffffffffffffffffffffffffff038211156149b7576149b6614c34565b5b828201905092915050565b60006149cd82614b0b565b91506149d883614b0b565b9250826149e8576149e7614c63565b5b828204905092915050565b60006149fe82614b0b565b9150614a0983614b0b565b9250817fffffffffffffffffffffffffffffffffffffffffffffffffffffffffffffffff0483118215151615614a4257614a41614c34565b5b828202905092915050565b6000614a5882614b0b565b9150614a6383614b0b565b925082821015614a7657614a75614c34565b5b828203905092915050565b6000614a8c82614aeb565b9050919050565b6000614a9e82614aeb565b9050919050565b60008115159050919050565b60007fffffffff0000000000000000000000000000000000000000000000000000000082169050919050565b600061ffff82169050919050565b600073ffffffffffffffffffffffffffffffffffffffff82169050919050565b6000819050919050565b82818337600083830152505050565b60005b83811015614b42578082015181840152602081019050614b27565b83811115614b51576000848401525b50505050565b60006002820490506001821680614b6f57607f821691505b60208210811415614b8357614b82614c92565b5b50919050565b614b9282614d12565b810181811067ffffffffffffffff82111715614bb157614bb0614cc1565b5b80604052505050565b6000614bc582614b0b565b91507fffffffffffffffffffffffffffffffffffffffffffffffffffffffffffffffff821415614bf857614bf7614c34565b5b600182019050919050565b6000614c0e82614b0b565b9150614c1983614b0b565b925082614c2957614c28614c63565b5b828206905092915050565b7f4e487b7100000000000000000000000000000000000000000000000000000000600052601160045260246000fd5b7f4e487b7100000000000000000000000000000000000000000000000000000000600052601260045260246000fd5b7f4e487b7100000000000000000000000000000000000000000000000000000000600052602260045260246000fd5b7f4e487b7100000000000000000000000000000000000000000000000000000000600052604160045260246000fd5b600060033d1115614d0f5760046000803e614d0c600051614d23565b90505b90565b6000601f19601f8301169050919050565b60008160e01c9050919050565b7f455243313135353a207472616e7366657220746f206e6f6e204552433131353560008201527f526563656976657220696d706c656d656e746572000000000000000000000000602082015250565b7f455243313135353a204552433131353552656365697665722072656a6563746560008201527f6420746f6b656e73000000000000000000000000000000000000000000000000602082015250565b7f455243313135353a2062616c616e636520717565727920666f7220746865207a60008201527f65726f2061646472657373000000000000000000000000000000000000000000602082015250565b7f455243313135353a2062617463682062616c616e636520717565727920666f7260008201527f20746865207a65726f2061646472657373000000000000000000000000000000602082015250565b7f455243313135353a206275726e20616d6f756e7420657863656564732062616c60008201527f616e636500000000000000000000000000000000000000000000000000000000602082015250565b7f455243313135353a20696e73756666696369656e742062616c616e636573206660008201527f6f72207472616e73666572000000000000000000000000000000000000000000602082015250565b7f455243313135353a2063616c6c6572206973206e6f74206f776e6572206e6f7260008201527f20617070726f7665640000000000000000000000000000000000000000000000602082015250565b7f416464726573733a20696e73756666696369656e742062616c616e636520666f60008201527f722063616c6c0000000000000000000000000000000000000000000000000000602082015250565b7f44654d696e654e46543a20746f6b656e206d696e6564206f72206d696e696e67600082015250565b7f5061757361626c653a2070617573656400000000000000000000000000000000600082015250565b7f455243313135353a207472616e7366657220746f20746865207a65726f20616460008201527f6472657373000000000000000000000000000000000000000000000000000000602082015250565b7f455243313135353a206275726e2066726f6d20746865207a65726f206164647260008201527f6573730000000000000000000000000000000000000000000000000000000000602082015250565b7f44654d696e654e46543a20746f6b656e206e6f74206d696e6564000000000000600082015250565b7f4f776e61626c653a2073656e646572206d757374206265206f776e6572000000600082015250565b7f44654d696e654e46543a2066726f6d20616c6368656d69737400000000000000600082015250565b7f416464726573733a2063616c6c20746f206e6f6e2d636f6e7472616374000000600082015250565b7f496e697469616c697a61626c653a20636f6e7472616374206973206e6f74206960008201527f6e697469616c697a696e67000000000000000000000000000000000000000000602082015250565b7f455243313135353a2073657474696e6720617070726f76616c2073746174757360008201527f20666f722073656c660000000000000000000000000000000000000000000000602082015250565b7f5361666545524332303a204552433230206f7065726174696f6e20646964206e60008201527f6f74207375636365656400000000000000000000000000000000000000000000602082015250565b7f455243313135353a206163636f756e747320616e6420696473206c656e67746860008201527f206d69736d617463680000000000000000000000000000000000000000000000602082015250565b7f455243313135353a2069647320616e6420616d6f756e7473206c656e6774682060008201527f6d69736d61746368000000000000000000000000000000000000000000000000602082015250565b7f455243313135353a206d696e7420746f20746865207a65726f2061646472657360008201527f7300000000000000000000000000000000000000000000000000000000000000602082015250565b600060443d1015615326576153a9565b61532e6147e8565b60043d036004823e80513d602482011167ffffffffffffffff821117156153565750506153a9565b808201805167ffffffffffffffff81111561537457505050506153a9565b80602083010160043d0385018111156153915750505050506153a9565b6153a082602001850186614b89565b82955050505050505b90565b6153b581614a81565b81146153c057600080fd5b50565b6153cc81614a93565b81146153d757600080fd5b50565b6153e381614aa5565b81146153ee57600080fd5b50565b6153fa81614ab1565b811461540557600080fd5b50565b61541181614add565b811461541c57600080fd5b50565b61542881614b0b565b811461543357600080fd5b5056fea2646970667358221220bef86983dde6630f4405765cb27cd2f99039607f27e018b5a1c74b2cf282fe2e64736f6c63430008040033",
  "devdoc": {
    "kind": "dev",
    "methods": {
      "balanceOf(address,uint256)": {
        "params": {
          "account": "address to query",
          "id": "token to query"
        },
        "returns": {
          "_0": "token balance"
        }
      },
      "balanceOfBatch(address[],uint256[])": {
        "params": {
          "accounts": "addresss to query",
          "ids": "tokens to query"
        },
        "returns": {
          "_0": "token balances"
        }
      },
      "isApprovedForAll(address,address)": {
        "params": {
          "account": "address to query for approval granted",
          "operator": "address to query for approval received"
        },
        "returns": {
          "_0": "whether operator is approved to spend tokens held by account"
        }
      },
      "safeBatchTransferFrom(address,address,uint256[],uint256[],bytes)": {
        "params": {
          "amounts": "list of quantities of tokens to transfer",
          "data": "data payload",
          "from": "sender of tokens",
          "ids": "list of token IDs",
          "to": "receiver of tokens"
        }
      },
      "safeTransferFrom(address,address,uint256,uint256,bytes)": {
        "params": {
          "amount": "quantity of tokens to transfer",
          "data": "data payload",
          "from": "sender of tokens",
          "id": "token ID",
          "to": "receiver of tokens"
        }
      },
      "setApprovalForAll(address,bool)": {
        "params": {
          "operator": "address whose approval status to update",
          "status": "whether operator should be considered approved"
        }
      },
      "supportsInterface(bytes4)": {
        "params": {
          "interfaceId": "interface id"
        },
        "returns": {
          "_0": "bool whether interface is supported"
        }
      }
    },
    "version": 1
  },
  "userdoc": {
    "kind": "user",
    "methods": {
      "balanceOf(address,uint256)": {
        "notice": "query the balance of given token held by given address"
      },
      "balanceOfBatch(address[],uint256[])": {
        "notice": "query the balances of given tokens held by given addresses"
      },
      "isApprovedForAll(address,address)": {
        "notice": "query approval status of given operator with respect to given address"
      },
      "safeBatchTransferFrom(address,address,uint256[],uint256[],bytes)": {
        "notice": "transfer batch of tokens between given addresses, checking for ERC1155Receiver implementation if applicable"
      },
      "safeTransferFrom(address,address,uint256,uint256,bytes)": {
        "notice": "transfer tokens between given addresses, checking for ERC1155Receiver implementation if applicable"
      },
      "setApprovalForAll(address,bool)": {
        "notice": "grant approval to or revoke approval from given operator to spend held tokens"
      },
      "supportsInterface(bytes4)": {
        "notice": "query whether contract has registered support for given interface"
      },
      "uri(uint256)": {
        "notice": "inheritdoc IERC1155Metadata"
      }
    },
    "version": 1
  },
  "storageLayout": {
    "storage": [
      {
        "astId": 2742,
        "contract": "contracts/nft/facets/ERC1155Facet.sol:ERC1155Facet",
        "label": "s",
        "offset": 0,
        "slot": "0",
        "type": "t_struct(AppStorage)3319_storage"
      }
    ],
    "types": {
      "t_address": {
        "encoding": "inplace",
        "label": "address",
        "numberOfBytes": "20"
      },
      "t_contract(IERC20)80": {
        "encoding": "inplace",
        "label": "contract IERC20",
        "numberOfBytes": "20"
      },
      "t_mapping(t_uint256,t_struct(Token)3300_storage)": {
        "encoding": "mapping",
        "key": "t_uint256",
        "label": "mapping(uint256 => struct Token)",
        "numberOfBytes": "32",
        "value": "t_struct(Token)3300_storage"
      },
      "t_struct(AppStorage)3319_storage": {
        "encoding": "inplace",
        "label": "struct AppStorage",
        "members": [
          {
            "astId": 3308,
            "contract": "contracts/nft/facets/ERC1155Facet.sol:ERC1155Facet",
            "label": "reward",
            "offset": 0,
            "slot": "0",
            "type": "t_contract(IERC20)80"
          },
          {
            "astId": 3310,
            "contract": "contracts/nft/facets/ERC1155Facet.sol:ERC1155Facet",
            "label": "mining",
            "offset": 0,
            "slot": "1",
            "type": "t_uint256"
          },
          {
            "astId": 3313,
            "contract": "contracts/nft/facets/ERC1155Facet.sol:ERC1155Facet",
            "label": "royalty",
            "offset": 0,
            "slot": "2",
            "type": "t_struct(RoyaltyInfo)3305_storage"
          },
          {
            "astId": 3318,
            "contract": "contracts/nft/facets/ERC1155Facet.sol:ERC1155Facet",
            "label": "tokens",
            "offset": 0,
            "slot": "3",
            "type": "t_mapping(t_uint256,t_struct(Token)3300_storage)"
          }
        ],
        "numberOfBytes": "128"
      },
      "t_struct(RoyaltyInfo)3305_storage": {
        "encoding": "inplace",
        "label": "struct RoyaltyInfo",
        "members": [
          {
            "astId": 3302,
            "contract": "contracts/nft/facets/ERC1155Facet.sol:ERC1155Facet",
            "label": "recipient",
            "offset": 0,
            "slot": "0",
            "type": "t_address"
          },
          {
            "astId": 3304,
            "contract": "contracts/nft/facets/ERC1155Facet.sol:ERC1155Facet",
            "label": "bps",
            "offset": 20,
            "slot": "0",
            "type": "t_uint16"
          }
        ],
        "numberOfBytes": "32"
      },
      "t_struct(Token)3300_storage": {
        "encoding": "inplace",
        "label": "struct Token",
        "members": [
          {
            "astId": 3297,
            "contract": "contracts/nft/facets/ERC1155Facet.sol:ERC1155Facet",
            "label": "supply",
            "offset": 0,
            "slot": "0",
            "type": "t_uint256"
          },
          {
            "astId": 3299,
            "contract": "contracts/nft/facets/ERC1155Facet.sol:ERC1155Facet",
            "label": "reward",
            "offset": 0,
            "slot": "1",
            "type": "t_uint256"
          }
        ],
        "numberOfBytes": "64"
      },
      "t_uint16": {
        "encoding": "inplace",
        "label": "uint16",
        "numberOfBytes": "2"
      },
      "t_uint256": {
        "encoding": "inplace",
        "label": "uint256",
        "numberOfBytes": "32"
      }
    }
  }
}