{
  "address": "0x30C80DE145F1Aa3239311d25D9AB851EBd7aC55E",
  "abi": [
    {
      "inputs": [
        {
          "internalType": "address",
          "name": "_beacon",
          "type": "address"
        }
      ],
      "stateMutability": "nonpayable",
      "type": "constructor"
    },
    {
      "anonymous": false,
      "inputs": [
        {
          "indexed": true,
          "internalType": "address",
          "name": "source",
          "type": "address"
        },
        {
          "indexed": true,
          "internalType": "address",
          "name": "cloned",
          "type": "address"
        }
      ],
      "name": "Clone",
      "type": "event"
    },
    {
      "stateMutability": "payable",
      "type": "fallback"
    },
    {
      "inputs": [],
      "name": "beacon",
      "outputs": [
        {
          "internalType": "address",
          "name": "",
          "type": "address"
        }
      ],
      "stateMutability": "view",
      "type": "function"
    },
    {
      "inputs": [
        {
          "internalType": "bytes",
          "name": "data",
          "type": "bytes"
        },
        {
          "internalType": "address",
          "name": "owner",
          "type": "address"
        }
      ],
      "name": "clone",
      "outputs": [
        {
          "internalType": "address",
          "name": "",
          "type": "address"
        }
      ],
      "stateMutability": "nonpayable",
      "type": "function"
    },
    {
      "stateMutability": "payable",
      "type": "receive"
    }
  ],
  "transactionHash": "0xc182267433a3e69da636767afccf60d0bea8766772de975353626bcca78aa32c",
  "args": [
    "0x57aEAca4F0C557CAc42191D3FBE741926bbb8B1a"
  ],
  "numDeployments": 4,
  "solcInputHash": "c25e4ccac5c152070edde3094c2ebcec",
  "bytecode": "0x60a060405234801561001057600080fd5b50604051610959380380610959833981810160405281019061003291906100cf565b8073ffffffffffffffffffffffffffffffffffffffff1660808173ffffffffffffffffffffffffffffffffffffffff1681525050506100fc565b600080fd5b600073ffffffffffffffffffffffffffffffffffffffff82169050919050565b600061009c82610071565b9050919050565b6100ac81610091565b81146100b757600080fd5b50565b6000815190506100c9816100a3565b92915050565b6000602082840312156100e5576100e461006c565b5b60006100f3848285016100ba565b91505092915050565b60805161083b61011e6000396000818161025c0152610284015261083b6000f3fe60806040526004361061002d5760003560e01c8063032d0c781461004657806359659e90146100835761003c565b3661003c5761003a6100ae565b005b6100446100ae565b005b34801561005257600080fd5b5061006d600480360381019061006891906105c9565b6100c8565b60405161007a9190610634565b60405180910390f35b34801561008f57600080fd5b5061009861025a565b6040516100a59190610634565b60405180910390f35b6100b661027e565b6100c66100c1610280565b610316565b565b6000806100d43061033c565b90508073ffffffffffffffffffffffffffffffffffffffff163073ffffffffffffffffffffffffffffffffffffffff167fb557324045551eafb0789d69d5679a7017a31840124b2220df4b81dea45ec08360405160405180910390a36000808273ffffffffffffffffffffffffffffffffffffffff168660405161015891906106c9565b6000604051808303816000865af19150503d8060008114610195576040519150601f19603f3d011682016040523d82523d6000602084013e61019a565b606091505b50915091508181906101e2576040517f08c379a00000000000000000000000000000000000000000000000000000000081526004016101d99190610735565b60405180910390fd5b508273ffffffffffffffffffffffffffffffffffffffff1663f2fde38b866040518263ffffffff1660e01b815260040161021c9190610634565b600060405180830381600087803b15801561023657600080fd5b505af115801561024a573d6000803e3d6000fd5b5050505082935050505092915050565b7f000000000000000000000000000000000000000000000000000000000000000081565b565b60007f000000000000000000000000000000000000000000000000000000000000000073ffffffffffffffffffffffffffffffffffffffff16635c60da1b6040518163ffffffff1660e01b8152600401602060405180830381865afa1580156102ed573d6000803e3d6000fd5b505050506040513d601f19601f82011682018060405250810190610311919061076c565b905090565b3660008037600080366000845af43d6000803e8060008114610337573d6000f35b3d6000fd5b60006040517f3d602d80600a3d3981f3363d3d373d3d3d363d7300000000000000000000000081528260601b60148201527f5af43d82803e903d91602b57fd5bf3000000000000000000000000000000000060288201526037816000f0915050600073ffffffffffffffffffffffffffffffffffffffff168173ffffffffffffffffffffffffffffffffffffffff16141561040c576040517f08c379a0000000000000000000000000000000000000000000000000000000008152600401610403906107e5565b60405180910390fd5b919050565b6000604051905090565b600080fd5b600080fd5b600080fd5b600080fd5b6000601f19601f8301169050919050565b7f4e487b7100000000000000000000000000000000000000000000000000000000600052604160045260246000fd5b6104788261042f565b810181811067ffffffffffffffff8211171561049757610496610440565b5b80604052505050565b60006104aa610411565b90506104b6828261046f565b919050565b600067ffffffffffffffff8211156104d6576104d5610440565b5b6104df8261042f565b9050602081019050919050565b82818337600083830152505050565b600061050e610509846104bb565b6104a0565b90508281526020810184848401111561052a5761052961042a565b5b6105358482856104ec565b509392505050565b600082601f83011261055257610551610425565b5b81356105628482602086016104fb565b91505092915050565b600073ffffffffffffffffffffffffffffffffffffffff82169050919050565b60006105968261056b565b9050919050565b6105a68161058b565b81146105b157600080fd5b50565b6000813590506105c38161059d565b92915050565b600080604083850312156105e0576105df61041b565b5b600083013567ffffffffffffffff8111156105fe576105fd610420565b5b61060a8582860161053d565b925050602061061b858286016105b4565b9150509250929050565b61062e8161058b565b82525050565b60006020820190506106496000830184610625565b92915050565b600081519050919050565b600081905092915050565b60005b83811015610683578082015181840152602081019050610668565b83811115610692576000848401525b50505050565b60006106a38261064f565b6106ad818561065a565b93506106bd818560208601610665565b80840191505092915050565b60006106d58284610698565b915081905092915050565b600081519050919050565b600082825260208201905092915050565b6000610707826106e0565b61071181856106eb565b9350610721818560208601610665565b61072a8161042f565b840191505092915050565b6000602082019050818103600083015261074f81846106fc565b905092915050565b6000815190506107668161059d565b92915050565b6000602082840312156107825761078161041b565b5b600061079084828501610757565b91505092915050565b7f455243313136373a20637265617465206661696c656400000000000000000000600082015250565b60006107cf6016836106eb565b91506107da82610799565b602082019050919050565b600060208201905081810360008301526107fe816107c2565b905091905056fea26469706673582212204e3ecab8d9b26f0f079b3b54a35c7d47968bcff7305fe32f1ae7721e101d5f9964736f6c634300080b0033",
  "devdoc": {
    "kind": "dev",
    "methods": {},
    "version": 1
  },
  "userdoc": {
    "kind": "user",
    "methods": {},
    "version": 1
  },
  "storageLayout": {
    "storage": [],
    "types": null
  }
}