{
  "address": "0x5218cd8428be4cfec01Ab3B16d9ff4E4b8E70E5E",
  "abi": [
    {
      "anonymous": false,
      "inputs": [
        {
          "indexed": true,
          "internalType": "address",
          "name": "owner",
          "type": "address"
        },
        {
          "indexed": true,
          "internalType": "address",
          "name": "spender",
          "type": "address"
        },
        {
          "indexed": false,
          "internalType": "uint256",
          "name": "value",
          "type": "uint256"
        }
      ],
      "name": "Approval",
      "type": "event"
    },
    {
      "anonymous": false,
      "inputs": [
        {
          "indexed": true,
          "internalType": "address",
          "name": "previousOwner",
          "type": "address"
        },
        {
          "indexed": true,
          "internalType": "address",
          "name": "newOwner",
          "type": "address"
        }
      ],
      "name": "OwnershipTransferred",
      "type": "event"
    },
    {
      "anonymous": false,
      "inputs": [
        {
          "indexed": false,
          "internalType": "address",
          "name": "account",
          "type": "address"
        }
      ],
      "name": "Paused",
      "type": "event"
    },
    {
      "anonymous": false,
      "inputs": [
        {
          "indexed": true,
          "internalType": "address",
          "name": "from",
          "type": "address"
        },
        {
          "indexed": true,
          "internalType": "address",
          "name": "to",
          "type": "address"
        },
        {
          "indexed": false,
          "internalType": "uint256",
          "name": "value",
          "type": "uint256"
        }
      ],
      "name": "Transfer",
      "type": "event"
    },
    {
      "anonymous": false,
      "inputs": [
        {
          "indexed": false,
          "internalType": "address",
          "name": "account",
          "type": "address"
        }
      ],
      "name": "Unpaused",
      "type": "event"
    },
    {
      "inputs": [
        {
          "internalType": "address",
          "name": "owner",
          "type": "address"
        },
        {
          "internalType": "address",
          "name": "spender",
          "type": "address"
        }
      ],
      "name": "allowance",
      "outputs": [
        {
          "internalType": "uint256",
          "name": "",
          "type": "uint256"
        }
      ],
      "stateMutability": "view",
      "type": "function"
    },
    {
      "inputs": [
        {
          "internalType": "address",
          "name": "spender",
          "type": "address"
        },
        {
          "internalType": "uint256",
          "name": "amount",
          "type": "uint256"
        }
      ],
      "name": "approve",
      "outputs": [
        {
          "internalType": "bool",
          "name": "",
          "type": "bool"
        }
      ],
      "stateMutability": "nonpayable",
      "type": "function"
    },
    {
      "inputs": [
        {
          "internalType": "address",
          "name": "account",
          "type": "address"
        }
      ],
      "name": "balanceOf",
      "outputs": [
        {
          "internalType": "uint256",
          "name": "",
          "type": "uint256"
        }
      ],
      "stateMutability": "view",
      "type": "function"
    },
    {
      "inputs": [
        {
          "internalType": "address",
          "name": "account",
          "type": "address"
        },
        {
          "internalType": "uint256",
          "name": "snapshotId",
          "type": "uint256"
        }
      ],
      "name": "balanceOfAt",
      "outputs": [
        {
          "internalType": "uint256",
          "name": "",
          "type": "uint256"
        }
      ],
      "stateMutability": "view",
      "type": "function"
    },
    {
      "inputs": [
        {
          "internalType": "uint256",
          "name": "amount",
          "type": "uint256"
        }
      ],
      "name": "burn",
      "outputs": [],
      "stateMutability": "nonpayable",
      "type": "function"
    },
    {
      "inputs": [],
      "name": "decimals",
      "outputs": [
        {
          "internalType": "uint8",
          "name": "",
          "type": "uint8"
        }
      ],
      "stateMutability": "view",
      "type": "function"
    },
    {
      "inputs": [
        {
          "internalType": "address",
          "name": "spender",
          "type": "address"
        },
        {
          "internalType": "uint256",
          "name": "subtractedValue",
          "type": "uint256"
        }
      ],
      "name": "decreaseAllowance",
      "outputs": [
        {
          "internalType": "bool",
          "name": "",
          "type": "bool"
        }
      ],
      "stateMutability": "nonpayable",
      "type": "function"
    },
    {
      "inputs": [
        {
          "internalType": "uint256",
          "name": "from",
          "type": "uint256"
        },
        {
          "internalType": "uint256",
          "name": "to",
          "type": "uint256"
        }
      ],
      "name": "earningSumPerToken",
      "outputs": [
        {
          "internalType": "uint256",
          "name": "",
          "type": "uint256"
        }
      ],
      "stateMutability": "view",
      "type": "function"
    },
    {
      "inputs": [],
      "name": "earningToken",
      "outputs": [
        {
          "internalType": "address",
          "name": "",
          "type": "address"
        }
      ],
      "stateMutability": "view",
      "type": "function"
    },
    {
      "inputs": [
        {
          "internalType": "uint256",
          "name": "earningPerToken",
          "type": "uint256"
        }
      ],
      "name": "finalize",
      "outputs": [],
      "stateMutability": "nonpayable",
      "type": "function"
    },
    {
      "inputs": [
        {
          "internalType": "address",
          "name": "spender",
          "type": "address"
        },
        {
          "internalType": "uint256",
          "name": "addedValue",
          "type": "uint256"
        }
      ],
      "name": "increaseAllowance",
      "outputs": [
        {
          "internalType": "bool",
          "name": "",
          "type": "bool"
        }
      ],
      "stateMutability": "nonpayable",
      "type": "function"
    },
    {
      "inputs": [
        {
          "internalType": "string",
          "name": "name",
          "type": "string"
        },
        {
          "internalType": "string",
          "name": "symbol",
          "type": "string"
        },
        {
          "internalType": "address",
          "name": "earningTokenToSet",
          "type": "address"
        },
        {
          "internalType": "uint256",
          "name": "startSnapshotId",
          "type": "uint256"
        }
      ],
      "name": "initialize",
      "outputs": [],
      "stateMutability": "nonpayable",
      "type": "function"
    },
    {
      "inputs": [],
      "name": "lastFinalizedAt",
      "outputs": [
        {
          "internalType": "uint256",
          "name": "",
          "type": "uint256"
        }
      ],
      "stateMutability": "view",
      "type": "function"
    },
    {
      "inputs": [
        {
          "internalType": "address",
          "name": "account",
          "type": "address"
        }
      ],
      "name": "lastWithdrawAt",
      "outputs": [
        {
          "internalType": "uint256",
          "name": "",
          "type": "uint256"
        }
      ],
      "stateMutability": "view",
      "type": "function"
    },
    {
      "inputs": [
        {
          "internalType": "address",
          "name": "to",
          "type": "address"
        },
        {
          "internalType": "uint256",
          "name": "amount",
          "type": "uint256"
        }
      ],
      "name": "mint",
      "outputs": [],
      "stateMutability": "nonpayable",
      "type": "function"
    },
    {
      "inputs": [],
      "name": "name",
      "outputs": [
        {
          "internalType": "string",
          "name": "",
          "type": "string"
        }
      ],
      "stateMutability": "view",
      "type": "function"
    },
    {
      "inputs": [],
      "name": "owner",
      "outputs": [
        {
          "internalType": "address",
          "name": "",
          "type": "address"
        }
      ],
      "stateMutability": "view",
      "type": "function"
    },
    {
      "inputs": [],
      "name": "paused",
      "outputs": [
        {
          "internalType": "bool",
          "name": "",
          "type": "bool"
        }
      ],
      "stateMutability": "view",
      "type": "function"
    },
    {
      "inputs": [],
      "name": "renounceOwnership",
      "outputs": [],
      "stateMutability": "nonpayable",
      "type": "function"
    },
    {
      "inputs": [],
      "name": "symbol",
      "outputs": [
        {
          "internalType": "string",
          "name": "",
          "type": "string"
        }
      ],
      "stateMutability": "view",
      "type": "function"
    },
    {
      "inputs": [],
      "name": "totalSupply",
      "outputs": [
        {
          "internalType": "uint256",
          "name": "",
          "type": "uint256"
        }
      ],
      "stateMutability": "view",
      "type": "function"
    },
    {
      "inputs": [
        {
          "internalType": "uint256",
          "name": "snapshotId",
          "type": "uint256"
        }
      ],
      "name": "totalSupplyAt",
      "outputs": [
        {
          "internalType": "uint256",
          "name": "",
          "type": "uint256"
        }
      ],
      "stateMutability": "view",
      "type": "function"
    },
    {
      "inputs": [
        {
          "internalType": "address",
          "name": "recipient",
          "type": "address"
        },
        {
          "internalType": "uint256",
          "name": "amount",
          "type": "uint256"
        }
      ],
      "name": "transfer",
      "outputs": [
        {
          "internalType": "bool",
          "name": "",
          "type": "bool"
        }
      ],
      "stateMutability": "nonpayable",
      "type": "function"
    },
    {
      "inputs": [
        {
          "internalType": "address",
          "name": "sender",
          "type": "address"
        },
        {
          "internalType": "address",
          "name": "recipient",
          "type": "address"
        },
        {
          "internalType": "uint256",
          "name": "amount",
          "type": "uint256"
        }
      ],
      "name": "transferFrom",
      "outputs": [
        {
          "internalType": "bool",
          "name": "",
          "type": "bool"
        }
      ],
      "stateMutability": "nonpayable",
      "type": "function"
    },
    {
      "inputs": [
        {
          "internalType": "address",
          "name": "newOwner",
          "type": "address"
        }
      ],
      "name": "transferOwnership",
      "outputs": [],
      "stateMutability": "nonpayable",
      "type": "function"
    },
    {
      "inputs": [
        {
          "internalType": "uint256",
          "name": "snapshotId",
          "type": "uint256"
        }
      ],
      "name": "withdraw",
      "outputs": [],
      "stateMutability": "nonpayable",
      "type": "function"
    }
  ],
  "transactionHash": "0xefe9bb90d5a1e21aeb36c858c902f476aeea5efc69be2bcff27be711c9204478",
  "args": [],
  "numDeployments": 1,
  "solcInputHash": "33c211820d7b865c6b2349986684f86a",
  "bytecode": "0x608060405234801561001057600080fd5b50613ee7806100206000396000f3fe608060405234801561001057600080fd5b506004361061018e5760003560e01c806364ebfee5116100de578063981b24d011610097578063dd62ed3e11610071578063dd62ed3e146104bf578063e263f59d146104ef578063f2fde38b1461050d578063f542033f146105295761018e565b8063981b24d01461042f578063a457c2d71461045f578063a9059cbb1461048f5761018e565b806364ebfee51461036b57806370a082311461039b578063715018a6146103cb5780637fe205c7146103d55780638da5cb5b146103f357806395d89b41146104115761018e565b8063313ce5671161014b57806342966c681161012557806342966c68146102d15780634ee2cd7e146102ed5780635c975abb1461031d578063649bf8681461033b5761018e565b8063313ce56714610267578063395093511461028557806340c10f19146102b55761018e565b806305261aea1461019357806306fdde03146101af578063095ea7b3146101cd57806318160ddd146101fd57806323b872dd1461021b5780632e1a7d4d1461024b575b600080fd5b6101ad60048036038101906101a89190612938565b610545565b005b6101b76107c2565b6040516101c491906129fe565b60405180910390f35b6101e760048036038101906101e29190612a7e565b610854565b6040516101f49190612ad9565b60405180910390f35b610205610872565b6040516102129190612b03565b60405180910390f35b61023560048036038101906102309190612b1e565b61087c565b6040516102429190612ad9565b60405180910390f35b61026560048036038101906102609190612938565b610974565b005b61026f610cbd565b60405161027c9190612b8d565b60405180910390f35b61029f600480360381019061029a9190612a7e565b610cc6565b6040516102ac9190612ad9565b60405180910390f35b6102cf60048036038101906102ca9190612a7e565b610d72565b005b6102eb60048036038101906102e69190612938565b610dfc565b005b61030760048036038101906103029190612a7e565b610e85565b6040516103149190612b03565b60405180910390f35b610325610ef5565b6040516103329190612ad9565b60405180910390f35b61035560048036038101906103509190612ba8565b610f0c565b6040516103629190612b03565b60405180910390f35b61038560048036038101906103809190612bd5565b610f58565b6040516103929190612b03565b60405180910390f35b6103b560048036038101906103b09190612ba8565b610f94565b6040516103c29190612b03565b60405180910390f35b6103d3610fdd565b005b6103dd611065565b6040516103ea9190612c24565b60405180910390f35b6103fb61108f565b6040516104089190612c24565b60405180910390f35b6104196110b9565b60405161042691906129fe565b60405180910390f35b61044960048036038101906104449190612938565b61114b565b6040516104569190612b03565b60405180910390f35b61047960048036038101906104749190612a7e565b61117c565b6040516104869190612ad9565b60405180910390f35b6104a960048036038101906104a49190612a7e565b611267565b6040516104b69190612ad9565b60405180910390f35b6104d960048036038101906104d49190612c3f565b611285565b6040516104e69190612b03565b60405180910390f35b6104f761130c565b6040516105049190612b03565b60405180910390f35b61052760048036038101906105229190612ba8565b611316565b005b610543600480360381019061053e9190612db4565b61140e565b005b61054d611558565b73ffffffffffffffffffffffffffffffffffffffff1661056b61108f565b73ffffffffffffffffffffffffffffffffffffffff16146105c1576040517f08c379a00000000000000000000000000000000000000000000000000000000081526004016105b890612e9f565b60405180910390fd5b60006201518060ca546105d49190612eee565b905060006105e0611560565b905080821115610625576040517f08c379a000000000000000000000000000000000000000000000000000000000815260040161061c90612f90565b60405180910390fd5b8260cc600062015180856106399190612fb0565b8152602001908152602001600020546106529190612eee565b60cc6000848152602001908152602001600020819055508160ca8190555060008060ce60000180549050905060008114806106b957508360ce60000160018361069b9190612fb0565b815481106106ac576106ab612fe4565b5b9060005260206000200154105b156106cd576106c6610872565b915061075a565b60006001826106dc9190612fb0565b90505b60008111801561071c57508460ce6000016001836106fd9190612fb0565b8154811061070e5761070d612fe4565b5b906000526020600020015410155b1561073457808061072c90613013565b9150506106df565b60ce600101818154811061074b5761074a612fe4565b5b90600052602060002001549250505b6107bb61076561108f565b308488610772919061303d565b60c960009054906101000a900473ffffffffffffffffffffffffffffffffffffffff1673ffffffffffffffffffffffffffffffffffffffff16611581909392919063ffffffff16565b5050505050565b6060603680546107d1906130c6565b80601f01602080910402602001604051908101604052809291908181526020018280546107fd906130c6565b801561084a5780601f1061081f5761010080835404028352916020019161084a565b820191906000526020600020905b81548152906001019060200180831161082d57829003601f168201915b5050505050905090565b6000610868610861611558565b848461160a565b6001905092915050565b6000603554905090565b60006108898484846117d5565b6000603460008673ffffffffffffffffffffffffffffffffffffffff1673ffffffffffffffffffffffffffffffffffffffff16815260200190815260200160002060006108d4611558565b73ffffffffffffffffffffffffffffffffffffffff1673ffffffffffffffffffffffffffffffffffffffff16815260200190815260200160002054905082811015610954576040517f08c379a000000000000000000000000000000000000000000000000000000000815260040161094b9061316a565b60405180910390fd5b61096885610960611558565b85840361160a565b60019150509392505050565b61097c610ef5565b156109bc576040517f08c379a00000000000000000000000000000000000000000000000000000000081526004016109b3906131d6565b60405180910390fd5b600062015180826109cd9190613225565b14610a0d576040517f08c379a0000000000000000000000000000000000000000000000000000000008152600401610a04906132a2565b60405180910390fd5b60ca54811115610a52576040517f08c379a0000000000000000000000000000000000000000000000000000000008152600401610a499061330e565b60405180910390fd5b600060cb60003373ffffffffffffffffffffffffffffffffffffffff1673ffffffffffffffffffffffffffffffffffffffff1681526020019081526020016000209050600081600001549050808311610ae0576040517f08c379a0000000000000000000000000000000000000000000000000000000008152600401610ad79061337a565b60405180910390fd5b600060cd60003373ffffffffffffffffffffffffffffffffffffffff1673ffffffffffffffffffffffffffffffffffffffff168152602001908152602001600020905060008160000180549050905060008111610b72576040517f08c379a0000000000000000000000000000000000000000000000000000000008152600401610b69906133e6565b60405180910390fd5b600080856001015490505b82811015610c2c576000846000018281548110610b9d57610b9c612fe4565b5b9060005260206000200154905087811015610bef57610bdd856001018381548110610bcb57610bca612fe4565b5b90600052602060002001548783611a59565b83610be89190612eee565b9250610c15565b610c02610bfb33610f94565b878a611a59565b83610c0d9190612eee565b925050610c2c565b809550508080610c2490613406565b915050610b7d565b82811415610c5557610c47610c4033610f94565b8689611a59565b82610c529190612eee565b91505b868660000181905550808660010181905550610cb4338360c960009054906101000a900473ffffffffffffffffffffffffffffffffffffffff1673ffffffffffffffffffffffffffffffffffffffff16611a889092919063ffffffff16565b50505050505050565b60006012905090565b6000610d68610cd3611558565b848460346000610ce1611558565b73ffffffffffffffffffffffffffffffffffffffff1673ffffffffffffffffffffffffffffffffffffffff16815260200190815260200160002060008873ffffffffffffffffffffffffffffffffffffffff1673ffffffffffffffffffffffffffffffffffffffff16815260200190815260200160002054610d639190612eee565b61160a565b6001905092915050565b610d7a611558565b73ffffffffffffffffffffffffffffffffffffffff16610d9861108f565b73ffffffffffffffffffffffffffffffffffffffff1614610dee576040517f08c379a0000000000000000000000000000000000000000000000000000000008152600401610de590612e9f565b60405180910390fd5b610df88282611b0e565b5050565b610e04611558565b73ffffffffffffffffffffffffffffffffffffffff16610e2261108f565b73ffffffffffffffffffffffffffffffffffffffff1614610e78576040517f08c379a0000000000000000000000000000000000000000000000000000000008152600401610e6f90612e9f565b60405180910390fd5b610e823382611c6f565b50565b6000806000610ed28460cd60008873ffffffffffffffffffffffffffffffffffffffff1673ffffffffffffffffffffffffffffffffffffffff168152602001908152602001600020611e48565b9150915081610ee957610ee485610f94565b610eeb565b805b9250505092915050565b6000609760009054906101000a900460ff16905090565b600060cb60008373ffffffffffffffffffffffffffffffffffffffff1673ffffffffffffffffffffffffffffffffffffffff168152602001908152602001600020600001549050919050565b600060cc60008481526020019081526020016000205460cc600084815260200190815260200160002054610f8c9190612fb0565b905092915050565b6000603360008373ffffffffffffffffffffffffffffffffffffffff1673ffffffffffffffffffffffffffffffffffffffff168152602001908152602001600020549050919050565b610fe5611558565b73ffffffffffffffffffffffffffffffffffffffff1661100361108f565b73ffffffffffffffffffffffffffffffffffffffff1614611059576040517f08c379a000000000000000000000000000000000000000000000000000000000815260040161105090612e9f565b60405180910390fd5b6110636000611f3e565b565b600060c960009054906101000a900473ffffffffffffffffffffffffffffffffffffffff16905090565b6000606560009054906101000a900473ffffffffffffffffffffffffffffffffffffffff16905090565b6060603780546110c8906130c6565b80601f01602080910402602001604051908101604052809291908181526020018280546110f4906130c6565b80156111415780601f1061111657610100808354040283529160200191611141565b820191906000526020600020905b81548152906001019060200180831161112457829003601f168201915b5050505050905090565b600080600061115b8460ce611e48565b91509150816111715761116c610872565b611173565b805b92505050919050565b6000806034600061118b611558565b73ffffffffffffffffffffffffffffffffffffffff1673ffffffffffffffffffffffffffffffffffffffff16815260200190815260200160002060008573ffffffffffffffffffffffffffffffffffffffff1673ffffffffffffffffffffffffffffffffffffffff16815260200190815260200160002054905082811015611248576040517f08c379a000000000000000000000000000000000000000000000000000000000815260040161123f906134c1565b60405180910390fd5b61125c611253611558565b8585840361160a565b600191505092915050565b600061127b611274611558565b84846117d5565b6001905092915050565b6000603460008473ffffffffffffffffffffffffffffffffffffffff1673ffffffffffffffffffffffffffffffffffffffff16815260200190815260200160002060008373ffffffffffffffffffffffffffffffffffffffff1673ffffffffffffffffffffffffffffffffffffffff16815260200190815260200160002054905092915050565b600060ca54905090565b61131e611558565b73ffffffffffffffffffffffffffffffffffffffff1661133c61108f565b73ffffffffffffffffffffffffffffffffffffffff1614611392576040517f08c379a000000000000000000000000000000000000000000000000000000000815260040161138990612e9f565b60405180910390fd5b600073ffffffffffffffffffffffffffffffffffffffff168173ffffffffffffffffffffffffffffffffffffffff161415611402576040517f08c379a00000000000000000000000000000000000000000000000000000000081526004016113f990613553565b60405180910390fd5b61140b81611f3e565b50565b600060019054906101000a900460ff166114365760008054906101000a900460ff161561143f565b61143e612004565b5b61147e576040517f08c379a0000000000000000000000000000000000000000000000000000000008152600401611475906135e5565b60405180910390fd5b60008060019054906101000a900460ff1615905080156114ce576001600060016101000a81548160ff02191690831515021790555060016000806101000a81548160ff0219169083151502179055505b6114d6612015565b6114de612076565b6114e885856120d7565b8260c960006101000a81548173ffffffffffffffffffffffffffffffffffffffff021916908373ffffffffffffffffffffffffffffffffffffffff1602179055508160ca8190555080156115515760008060016101000a81548160ff0219169083151502179055505b5050505050565b600033905090565b600062015180426115719190613225565b4261157c9190612fb0565b905090565b611604846323b872dd60e01b8585856040516024016115a293929190613605565b604051602081830303815290604052907bffffffffffffffffffffffffffffffffffffffffffffffffffffffff19166020820180517bffffffffffffffffffffffffffffffffffffffffffffffffffffffff838183161783525050505061213c565b50505050565b600073ffffffffffffffffffffffffffffffffffffffff168373ffffffffffffffffffffffffffffffffffffffff16141561167a576040517f08c379a0000000000000000000000000000000000000000000000000000000008152600401611671906136ae565b60405180910390fd5b600073ffffffffffffffffffffffffffffffffffffffff168273ffffffffffffffffffffffffffffffffffffffff1614156116ea576040517f08c379a00000000000000000000000000000000000000000000000000000000081526004016116e190613740565b60405180910390fd5b80603460008573ffffffffffffffffffffffffffffffffffffffff1673ffffffffffffffffffffffffffffffffffffffff16815260200190815260200160002060008473ffffffffffffffffffffffffffffffffffffffff1673ffffffffffffffffffffffffffffffffffffffff168152602001908152602001600020819055508173ffffffffffffffffffffffffffffffffffffffff168373ffffffffffffffffffffffffffffffffffffffff167f8c5be1e5ebec7d5bd14f71427d1e84f3dd0314c0f7b2291e5b200ac8c7c3b925836040516117c89190612b03565b60405180910390a3505050565b600073ffffffffffffffffffffffffffffffffffffffff168373ffffffffffffffffffffffffffffffffffffffff161415611845576040517f08c379a000000000000000000000000000000000000000000000000000000000815260040161183c906137d2565b60405180910390fd5b600073ffffffffffffffffffffffffffffffffffffffff168273ffffffffffffffffffffffffffffffffffffffff1614156118b5576040517f08c379a00000000000000000000000000000000000000000000000000000000081526004016118ac90613864565b60405180910390fd5b6118c0838383612203565b6000603360008573ffffffffffffffffffffffffffffffffffffffff1673ffffffffffffffffffffffffffffffffffffffff16815260200190815260200160002054905081811015611947576040517f08c379a000000000000000000000000000000000000000000000000000000000815260040161193e906138f6565b60405180910390fd5b818103603360008673ffffffffffffffffffffffffffffffffffffffff1673ffffffffffffffffffffffffffffffffffffffff1681526020019081526020016000208190555081603360008573ffffffffffffffffffffffffffffffffffffffff1673ffffffffffffffffffffffffffffffffffffffff16815260200190815260200160002060008282546119dc9190612eee565b925050819055508273ffffffffffffffffffffffffffffffffffffffff168473ffffffffffffffffffffffffffffffffffffffff167fddf252ad1be2c89b69c2b068fc378daa952ba7f163c4a11628f55a4df523b3ef84604051611a409190612b03565b60405180910390a3611a538484846122bd565b50505050565b6000808414611a7c57611a6c8383610f58565b84611a77919061303d565b611a7f565b60005b90509392505050565b611b098363a9059cbb60e01b8484604051602401611aa7929190613916565b604051602081830303815290604052907bffffffffffffffffffffffffffffffffffffffffffffffffffffffff19166020820180517bffffffffffffffffffffffffffffffffffffffffffffffffffffffff838183161783525050505061213c565b505050565b600073ffffffffffffffffffffffffffffffffffffffff168273ffffffffffffffffffffffffffffffffffffffff161415611b7e576040517f08c379a0000000000000000000000000000000000000000000000000000000008152600401611b759061398b565b60405180910390fd5b611b8a60008383612203565b8060356000828254611b9c9190612eee565b9250508190555080603360008473ffffffffffffffffffffffffffffffffffffffff1673ffffffffffffffffffffffffffffffffffffffff1681526020019081526020016000206000828254611bf29190612eee565b925050819055508173ffffffffffffffffffffffffffffffffffffffff16600073ffffffffffffffffffffffffffffffffffffffff167fddf252ad1be2c89b69c2b068fc378daa952ba7f163c4a11628f55a4df523b3ef83604051611c579190612b03565b60405180910390a3611c6b600083836122bd565b5050565b600073ffffffffffffffffffffffffffffffffffffffff168273ffffffffffffffffffffffffffffffffffffffff161415611cdf576040517f08c379a0000000000000000000000000000000000000000000000000000000008152600401611cd690613a1d565b60405180910390fd5b611ceb82600083612203565b6000603360008473ffffffffffffffffffffffffffffffffffffffff1673ffffffffffffffffffffffffffffffffffffffff16815260200190815260200160002054905081811015611d72576040517f08c379a0000000000000000000000000000000000000000000000000000000008152600401611d6990613aaf565b60405180910390fd5b818103603360008573ffffffffffffffffffffffffffffffffffffffff1673ffffffffffffffffffffffffffffffffffffffff168152602001908152602001600020819055508160356000828254611dca9190612fb0565b92505081905550600073ffffffffffffffffffffffffffffffffffffffff168373ffffffffffffffffffffffffffffffffffffffff167fddf252ad1be2c89b69c2b068fc378daa952ba7f163c4a11628f55a4df523b3ef84604051611e2f9190612b03565b60405180910390a3611e43836000846122bd565b505050565b60008060008411611e8e576040517f08c379a0000000000000000000000000000000000000000000000000000000008152600401611e8590613b1b565b60405180910390fd5b611e96611560565b841115611ed8576040517f08c379a0000000000000000000000000000000000000000000000000000000008152600401611ecf90613b87565b60405180910390fd5b6000611ef085856000016122c290919063ffffffff16565b90508360000180549050811415611f0e576000809250925050611f37565b6001846001018281548110611f2657611f25612fe4565b5b906000526020600020015492509250505b9250929050565b6000606560009054906101000a900473ffffffffffffffffffffffffffffffffffffffff16905081606560006101000a81548173ffffffffffffffffffffffffffffffffffffffff021916908373ffffffffffffffffffffffffffffffffffffffff1602179055508173ffffffffffffffffffffffffffffffffffffffff168173ffffffffffffffffffffffffffffffffffffffff167f8be0079c531659141344cd1fd0a4f28419497f9722a3daafe3b4186f6b6457e060405160405180910390a35050565b600061200f3061239c565b15905090565b600060019054906101000a900460ff16612064576040517f08c379a000000000000000000000000000000000000000000000000000000000815260040161205b90613c19565b60405180910390fd5b61206c6123af565b612074612400565b565b600060019054906101000a900460ff166120c5576040517f08c379a00000000000000000000000000000000000000000000000000000000081526004016120bc90613c19565b60405180910390fd5b6120cd6123af565b6120d5612461565b565b600060019054906101000a900460ff16612126576040517f08c379a000000000000000000000000000000000000000000000000000000000815260040161211d90613c19565b60405180910390fd5b61212e6123af565b61213882826124cd565b5050565b600061219e826040518060400160405280602081526020017f5361666545524332303a206c6f772d6c6576656c2063616c6c206661696c65648152508573ffffffffffffffffffffffffffffffffffffffff1661254e9092919063ffffffff16565b90506000815111156121fe57808060200190518101906121be9190613c65565b6121fd576040517f08c379a00000000000000000000000000000000000000000000000000000000081526004016121f490613d04565b60405180910390fd5b5b505050565b61220e838383612566565b600073ffffffffffffffffffffffffffffffffffffffff168373ffffffffffffffffffffffffffffffffffffffff1614156122595761224c8261256b565b6122546125be565b6122b8565b600073ffffffffffffffffffffffffffffffffffffffff168273ffffffffffffffffffffffffffffffffffffffff1614156122a4576122978361256b565b61229f6125be565b6122b7565b6122ad8361256b565b6122b68261256b565b5b5b505050565b505050565b600080838054905014156122d95760009050612396565b600080848054905090505b8082101561233d5760006122f883836125d2565b90508486828154811061230e5761230d612fe4565b5b9060005260206000200154111561232757809150612337565b6001816123349190612eee565b92505b506122e4565b600082118015612375575083856001846123579190612fb0565b8154811061236857612367612fe4565b5b9060005260206000200154145b15612390576001826123879190612fb0565b92505050612396565b81925050505b92915050565b600080823b905060008111915050919050565b600060019054906101000a900460ff166123fe576040517f08c379a00000000000000000000000000000000000000000000000000000000081526004016123f590613c19565b60405180910390fd5b565b600060019054906101000a900460ff1661244f576040517f08c379a000000000000000000000000000000000000000000000000000000000815260040161244690613c19565b60405180910390fd5b61245f61245a611558565b611f3e565b565b600060019054906101000a900460ff166124b0576040517f08c379a00000000000000000000000000000000000000000000000000000000081526004016124a790613c19565b60405180910390fd5b6000609760006101000a81548160ff021916908315150217905550565b600060019054906101000a900460ff1661251c576040517f08c379a000000000000000000000000000000000000000000000000000000000815260040161251390613c19565b60405180910390fd5b816036908051906020019061253292919061284b565b50806037908051906020019061254992919061284b565b505050565b606061255d84846000856125f8565b90509392505050565b505050565b6125bb60cd60008373ffffffffffffffffffffffffffffffffffffffff1673ffffffffffffffffffffffffffffffffffffffff1681526020019081526020016000206125b683610f94565b61270c565b50565b6125d060ce6125cb610872565b61270c565b565b600060028284186125e39190613d24565b8284166125f09190612eee565b905092915050565b60608247101561263d576040517f08c379a000000000000000000000000000000000000000000000000000000000815260040161263490613dc7565b60405180910390fd5b61264685612787565b612685576040517f08c379a000000000000000000000000000000000000000000000000000000000815260040161267c90613e33565b60405180910390fd5b6000808673ffffffffffffffffffffffffffffffffffffffff1685876040516126ae9190613e9a565b60006040518083038185875af1925050503d80600081146126eb576040519150601f19603f3d011682016040523d82523d6000602084013e6126f0565b606091505b509150915061270082828661279a565b92505050949350505050565b6000612716611560565b90508061272584600001612801565b10156127825782600001819080600181540180825580915050600190039060005260206000200160009091909190915055826001018290806001815401808255809150506001900390600052602060002001600090919091909150555b505050565b600080823b905060008111915050919050565b606083156127aa578290506127fa565b6000835111156127bd5782518084602001fd5b816040517f08c379a00000000000000000000000000000000000000000000000000000000081526004016127f191906129fe565b60405180910390fd5b9392505050565b6000808280549050146128415781600183805490506128209190612fb0565b8154811061283157612830612fe4565b5b9060005260206000200154612844565b60005b9050919050565b828054612857906130c6565b90600052602060002090601f01602090048101928261287957600085556128c0565b82601f1061289257805160ff19168380011785556128c0565b828001600101855582156128c0579182015b828111156128bf5782518255916020019190600101906128a4565b5b5090506128cd91906128d1565b5090565b5b808211156128ea5760008160009055506001016128d2565b5090565b6000604051905090565b600080fd5b600080fd5b6000819050919050565b61291581612902565b811461292057600080fd5b50565b6000813590506129328161290c565b92915050565b60006020828403121561294e5761294d6128f8565b5b600061295c84828501612923565b91505092915050565b600081519050919050565b600082825260208201905092915050565b60005b8381101561299f578082015181840152602081019050612984565b838111156129ae576000848401525b50505050565b6000601f19601f8301169050919050565b60006129d082612965565b6129da8185612970565b93506129ea818560208601612981565b6129f3816129b4565b840191505092915050565b60006020820190508181036000830152612a1881846129c5565b905092915050565b600073ffffffffffffffffffffffffffffffffffffffff82169050919050565b6000612a4b82612a20565b9050919050565b612a5b81612a40565b8114612a6657600080fd5b50565b600081359050612a7881612a52565b92915050565b60008060408385031215612a9557612a946128f8565b5b6000612aa385828601612a69565b9250506020612ab485828601612923565b9150509250929050565b60008115159050919050565b612ad381612abe565b82525050565b6000602082019050612aee6000830184612aca565b92915050565b612afd81612902565b82525050565b6000602082019050612b186000830184612af4565b92915050565b600080600060608486031215612b3757612b366128f8565b5b6000612b4586828701612a69565b9350506020612b5686828701612a69565b9250506040612b6786828701612923565b9150509250925092565b600060ff82169050919050565b612b8781612b71565b82525050565b6000602082019050612ba26000830184612b7e565b92915050565b600060208284031215612bbe57612bbd6128f8565b5b6000612bcc84828501612a69565b91505092915050565b60008060408385031215612bec57612beb6128f8565b5b6000612bfa85828601612923565b9250506020612c0b85828601612923565b9150509250929050565b612c1e81612a40565b82525050565b6000602082019050612c396000830184612c15565b92915050565b60008060408385031215612c5657612c556128f8565b5b6000612c6485828601612a69565b9250506020612c7585828601612a69565b9150509250929050565b600080fd5b600080fd5b7f4e487b7100000000000000000000000000000000000000000000000000000000600052604160045260246000fd5b612cc1826129b4565b810181811067ffffffffffffffff82111715612ce057612cdf612c89565b5b80604052505050565b6000612cf36128ee565b9050612cff8282612cb8565b919050565b600067ffffffffffffffff821115612d1f57612d1e612c89565b5b612d28826129b4565b9050602081019050919050565b82818337600083830152505050565b6000612d57612d5284612d04565b612ce9565b905082815260208101848484011115612d7357612d72612c84565b5b612d7e848285612d35565b509392505050565b600082601f830112612d9b57612d9a612c7f565b5b8135612dab848260208601612d44565b91505092915050565b60008060008060808587031215612dce57612dcd6128f8565b5b600085013567ffffffffffffffff811115612dec57612deb6128fd565b5b612df887828801612d86565b945050602085013567ffffffffffffffff811115612e1957612e186128fd565b5b612e2587828801612d86565b9350506040612e3687828801612a69565b9250506060612e4787828801612923565b91505092959194509250565b7f4f776e61626c653a2063616c6c6572206973206e6f7420746865206f776e6572600082015250565b6000612e89602083612970565b9150612e9482612e53565b602082019050919050565b60006020820190508181036000830152612eb881612e7c565b9050919050565b7f4e487b7100000000000000000000000000000000000000000000000000000000600052601160045260246000fd5b6000612ef982612902565b9150612f0483612902565b9250827fffffffffffffffffffffffffffffffffffffffffffffffffffffffffffffffff03821115612f3957612f38612ebf565b5b828201905092915050565b7f4d696e696e67333a2066757475726520736e617073686f742069640000000000600082015250565b6000612f7a601b83612970565b9150612f8582612f44565b602082019050919050565b60006020820190508181036000830152612fa981612f6d565b9050919050565b6000612fbb82612902565b9150612fc683612902565b925082821015612fd957612fd8612ebf565b5b828203905092915050565b7f4e487b7100000000000000000000000000000000000000000000000000000000600052603260045260246000fd5b600061301e82612902565b9150600082141561303257613031612ebf565b5b600182039050919050565b600061304882612902565b915061305383612902565b9250817fffffffffffffffffffffffffffffffffffffffffffffffffffffffffffffffff048311821515161561308c5761308b612ebf565b5b828202905092915050565b7f4e487b7100000000000000000000000000000000000000000000000000000000600052602260045260246000fd5b600060028204905060018216806130de57607f821691505b602082108114156130f2576130f1613097565b5b50919050565b7f45524332303a207472616e7366657220616d6f756e742065786365656473206160008201527f6c6c6f77616e6365000000000000000000000000000000000000000000000000602082015250565b6000613154602883612970565b915061315f826130f8565b604082019050919050565b6000602082019050818103600083015261318381613147565b9050919050565b7f5061757361626c653a2070617573656400000000000000000000000000000000600082015250565b60006131c0601083612970565b91506131cb8261318a565b602082019050919050565b600060208201905081810360008301526131ef816131b3565b9050919050565b7f4e487b7100000000000000000000000000000000000000000000000000000000600052601260045260246000fd5b600061323082612902565b915061323b83612902565b92508261324b5761324a6131f6565b5b828206905092915050565b7f4d696e696e67333a20696e76616c696420736e617073686f7420696400000000600082015250565b600061328c601c83612970565b915061329782613256565b602082019050919050565b600060208201905081810360008301526132bb8161327f565b9050919050565b7f4d696e696e67333a206e6f742066696e616c697a656420796574000000000000600082015250565b60006132f8601a83612970565b9150613303826132c2565b602082019050919050565b60006020820190508181036000830152613327816132eb565b9050919050565b7f4d696e696e67333a20616c726561647920776974686472617765640000000000600082015250565b6000613364601b83612970565b915061336f8261332e565b602082019050919050565b6000602082019050818103600083015261339381613357565b9050919050565b7f4d696e696e67333a206e6f2062616c616e636500000000000000000000000000600082015250565b60006133d0601383612970565b91506133db8261339a565b602082019050919050565b600060208201905081810360008301526133ff816133c3565b9050919050565b600061341182612902565b91507fffffffffffffffffffffffffffffffffffffffffffffffffffffffffffffffff82141561344457613443612ebf565b5b600182019050919050565b7f45524332303a2064656372656173656420616c6c6f77616e63652062656c6f7760008201527f207a65726f000000000000000000000000000000000000000000000000000000602082015250565b60006134ab602583612970565b91506134b68261344f565b604082019050919050565b600060208201905081810360008301526134da8161349e565b9050919050565b7f4f776e61626c653a206e6577206f776e657220697320746865207a65726f206160008201527f6464726573730000000000000000000000000000000000000000000000000000602082015250565b600061353d602683612970565b9150613548826134e1565b604082019050919050565b6000602082019050818103600083015261356c81613530565b9050919050565b7f496e697469616c697a61626c653a20636f6e747261637420697320616c72656160008201527f647920696e697469616c697a6564000000000000000000000000000000000000602082015250565b60006135cf602e83612970565b91506135da82613573565b604082019050919050565b600060208201905081810360008301526135fe816135c2565b9050919050565b600060608201905061361a6000830186612c15565b6136276020830185612c15565b6136346040830184612af4565b949350505050565b7f45524332303a20617070726f76652066726f6d20746865207a65726f2061646460008201527f7265737300000000000000000000000000000000000000000000000000000000602082015250565b6000613698602483612970565b91506136a38261363c565b604082019050919050565b600060208201905081810360008301526136c78161368b565b9050919050565b7f45524332303a20617070726f766520746f20746865207a65726f20616464726560008201527f7373000000000000000000000000000000000000000000000000000000000000602082015250565b600061372a602283612970565b9150613735826136ce565b604082019050919050565b600060208201905081810360008301526137598161371d565b9050919050565b7f45524332303a207472616e736665722066726f6d20746865207a65726f20616460008201527f6472657373000000000000000000000000000000000000000000000000000000602082015250565b60006137bc602583612970565b91506137c782613760565b604082019050919050565b600060208201905081810360008301526137eb816137af565b9050919050565b7f45524332303a207472616e7366657220746f20746865207a65726f206164647260008201527f6573730000000000000000000000000000000000000000000000000000000000602082015250565b600061384e602383612970565b9150613859826137f2565b604082019050919050565b6000602082019050818103600083015261387d81613841565b9050919050565b7f45524332303a207472616e7366657220616d6f756e742065786365656473206260008201527f616c616e63650000000000000000000000000000000000000000000000000000602082015250565b60006138e0602683612970565b91506138eb82613884565b604082019050919050565b6000602082019050818103600083015261390f816138d3565b9050919050565b600060408201905061392b6000830185612c15565b6139386020830184612af4565b9392505050565b7f45524332303a206d696e7420746f20746865207a65726f206164647265737300600082015250565b6000613975601f83612970565b91506139808261393f565b602082019050919050565b600060208201905081810360008301526139a481613968565b9050919050565b7f45524332303a206275726e2066726f6d20746865207a65726f2061646472657360008201527f7300000000000000000000000000000000000000000000000000000000000000602082015250565b6000613a07602183612970565b9150613a12826139ab565b604082019050919050565b60006020820190508181036000830152613a36816139fa565b9050919050565b7f45524332303a206275726e20616d6f756e7420657863656564732062616c616e60008201527f6365000000000000000000000000000000000000000000000000000000000000602082015250565b6000613a99602283612970565b9150613aa482613a3d565b604082019050919050565b60006020820190508181036000830152613ac881613a8c565b9050919050565b7f4552433230536e617073686f743a206964206973203000000000000000000000600082015250565b6000613b05601683612970565b9150613b1082613acf565b602082019050919050565b60006020820190508181036000830152613b3481613af8565b9050919050565b7f4552433230536e617073686f743a206e6f6e6578697374656e74206964000000600082015250565b6000613b71601d83612970565b9150613b7c82613b3b565b602082019050919050565b60006020820190508181036000830152613ba081613b64565b9050919050565b7f496e697469616c697a61626c653a20636f6e7472616374206973206e6f74206960008201527f6e697469616c697a696e67000000000000000000000000000000000000000000602082015250565b6000613c03602b83612970565b9150613c0e82613ba7565b604082019050919050565b60006020820190508181036000830152613c3281613bf6565b9050919050565b613c4281612abe565b8114613c4d57600080fd5b50565b600081519050613c5f81613c39565b92915050565b600060208284031215613c7b57613c7a6128f8565b5b6000613c8984828501613c50565b91505092915050565b7f5361666545524332303a204552433230206f7065726174696f6e20646964206e60008201527f6f74207375636365656400000000000000000000000000000000000000000000602082015250565b6000613cee602a83612970565b9150613cf982613c92565b604082019050919050565b60006020820190508181036000830152613d1d81613ce1565b9050919050565b6000613d2f82612902565b9150613d3a83612902565b925082613d4a57613d496131f6565b5b828204905092915050565b7f416464726573733a20696e73756666696369656e742062616c616e636520666f60008201527f722063616c6c0000000000000000000000000000000000000000000000000000602082015250565b6000613db1602683612970565b9150613dbc82613d55565b604082019050919050565b60006020820190508181036000830152613de081613da4565b9050919050565b7f416464726573733a2063616c6c20746f206e6f6e2d636f6e7472616374000000600082015250565b6000613e1d601d83612970565b9150613e2882613de7565b602082019050919050565b60006020820190508181036000830152613e4c81613e10565b9050919050565b600081519050919050565b600081905092915050565b6000613e7482613e53565b613e7e8185613e5e565b9350613e8e818560208601612981565b80840191505092915050565b6000613ea68284613e69565b91508190509291505056fea2646970667358221220d410c44848585b07d84038193b26b642f84c901be5c8d701590dacfd3344261264736f6c634300080b0033",
  "devdoc": {
    "kind": "dev",
    "methods": {
      "allowance(address,address)": {
        "details": "See {IERC20-allowance}."
      },
      "approve(address,uint256)": {
        "details": "See {IERC20-approve}. Requirements: - `spender` cannot be the zero address."
      },
      "balanceOf(address)": {
        "details": "See {IERC20-balanceOf}."
      },
      "decimals()": {
        "details": "Returns the number of decimals used to get its user representation. For example, if `decimals` equals `2`, a balance of `505` tokens should be displayed to a user as `5.05` (`505 / 10 ** 2`). Tokens usually opt for a value of 18, imitating the relationship between Ether and Wei. This is the value {ERC20} uses, unless this function is overridden; NOTE: This information is only used for _display_ purposes: it in no way affects any of the arithmetic of the contract, including {IERC20-balanceOf} and {IERC20-transfer}."
      },
      "decreaseAllowance(address,uint256)": {
        "details": "Atomically decreases the allowance granted to `spender` by the caller. This is an alternative to {approve} that can be used as a mitigation for problems described in {IERC20-approve}. Emits an {Approval} event indicating the updated allowance. Requirements: - `spender` cannot be the zero address. - `spender` must have allowance for the caller of at least `subtractedValue`."
      },
      "increaseAllowance(address,uint256)": {
        "details": "Atomically increases the allowance granted to `spender` by the caller. This is an alternative to {approve} that can be used as a mitigation for problems described in {IERC20-approve}. Emits an {Approval} event indicating the updated allowance. Requirements: - `spender` cannot be the zero address."
      },
      "name()": {
        "details": "Returns the name of the token."
      },
      "owner()": {
        "details": "Returns the address of the current owner."
      },
      "paused()": {
        "details": "Returns true if the contract is paused, and false otherwise."
      },
      "renounceOwnership()": {
        "details": "Leaves the contract without owner. It will not be possible to call `onlyOwner` functions anymore. Can only be called by the current owner. NOTE: Renouncing ownership will leave the contract without an owner, thereby removing any functionality that is only available to the owner."
      },
      "symbol()": {
        "details": "Returns the symbol of the token, usually a shorter version of the name."
      },
      "totalSupply()": {
        "details": "See {IERC20-totalSupply}."
      },
      "transfer(address,uint256)": {
        "details": "See {IERC20-transfer}. Requirements: - `recipient` cannot be the zero address. - the caller must have a balance of at least `amount`."
      },
      "transferFrom(address,address,uint256)": {
        "details": "See {IERC20-transferFrom}. Emits an {Approval} event indicating the updated allowance. This is not required by the EIP. See the note at the beginning of {ERC20}. Requirements: - `sender` and `recipient` cannot be the zero address. - `sender` must have a balance of at least `amount`. - the caller must have allowance for ``sender``'s tokens of at least `amount`."
      },
      "transferOwnership(address)": {
        "details": "Transfers ownership of the contract to a new account (`newOwner`). Can only be called by the current owner."
      }
    },
    "version": 1
  },
  "userdoc": {
    "kind": "user",
    "methods": {},
    "version": 1
  },
  "storageLayout": {
    "storage": [
      {
        "astId": 132,
        "contract": "contracts/mining3/Mining3.sol:Mining3",
        "label": "_initialized",
        "offset": 0,
        "slot": "0",
        "type": "t_bool"
      },
      {
        "astId": 135,
        "contract": "contracts/mining3/Mining3.sol:Mining3",
        "label": "_initializing",
        "offset": 1,
        "slot": "0",
        "type": "t_bool"
      },
      {
        "astId": 1276,
        "contract": "contracts/mining3/Mining3.sol:Mining3",
        "label": "__gap",
        "offset": 0,
        "slot": "1",
        "type": "t_array(t_uint256)50_storage"
      },
      {
        "astId": 331,
        "contract": "contracts/mining3/Mining3.sol:Mining3",
        "label": "_balances",
        "offset": 0,
        "slot": "51",
        "type": "t_mapping(t_address,t_uint256)"
      },
      {
        "astId": 337,
        "contract": "contracts/mining3/Mining3.sol:Mining3",
        "label": "_allowances",
        "offset": 0,
        "slot": "52",
        "type": "t_mapping(t_address,t_mapping(t_address,t_uint256))"
      },
      {
        "astId": 339,
        "contract": "contracts/mining3/Mining3.sol:Mining3",
        "label": "_totalSupply",
        "offset": 0,
        "slot": "53",
        "type": "t_uint256"
      },
      {
        "astId": 341,
        "contract": "contracts/mining3/Mining3.sol:Mining3",
        "label": "_name",
        "offset": 0,
        "slot": "54",
        "type": "t_string_storage"
      },
      {
        "astId": 343,
        "contract": "contracts/mining3/Mining3.sol:Mining3",
        "label": "_symbol",
        "offset": 0,
        "slot": "55",
        "type": "t_string_storage"
      },
      {
        "astId": 884,
        "contract": "contracts/mining3/Mining3.sol:Mining3",
        "label": "__gap",
        "offset": 0,
        "slot": "56",
        "type": "t_array(t_uint256)45_storage"
      },
      {
        "astId": 10,
        "contract": "contracts/mining3/Mining3.sol:Mining3",
        "label": "_owner",
        "offset": 0,
        "slot": "101",
        "type": "t_address"
      },
      {
        "astId": 124,
        "contract": "contracts/mining3/Mining3.sol:Mining3",
        "label": "__gap",
        "offset": 0,
        "slot": "102",
        "type": "t_array(t_uint256)49_storage"
      },
      {
        "astId": 220,
        "contract": "contracts/mining3/Mining3.sol:Mining3",
        "label": "_paused",
        "offset": 0,
        "slot": "151",
        "type": "t_bool"
      },
      {
        "astId": 311,
        "contract": "contracts/mining3/Mining3.sol:Mining3",
        "label": "__gap",
        "offset": 0,
        "slot": "152",
        "type": "t_array(t_uint256)49_storage"
      },
      {
        "astId": 2520,
        "contract": "contracts/mining3/Mining3.sol:Mining3",
        "label": "_earningToken",
        "offset": 0,
        "slot": "201",
        "type": "t_address"
      },
      {
        "astId": 2522,
        "contract": "contracts/mining3/Mining3.sol:Mining3",
        "label": "_finalized",
        "offset": 0,
        "slot": "202",
        "type": "t_uint256"
      },
      {
        "astId": 2527,
        "contract": "contracts/mining3/Mining3.sol:Mining3",
        "label": "_withdrawal",
        "offset": 0,
        "slot": "203",
        "type": "t_mapping(t_address,t_struct(Withdrawal)2518_storage)"
      },
      {
        "astId": 2531,
        "contract": "contracts/mining3/Mining3.sol:Mining3",
        "label": "_earningSum",
        "offset": 0,
        "slot": "204",
        "type": "t_mapping(t_uint256,t_uint256)"
      },
      {
        "astId": 2543,
        "contract": "contracts/mining3/Mining3.sol:Mining3",
        "label": "_accountBalanceSnapshots",
        "offset": 0,
        "slot": "205",
        "type": "t_mapping(t_address,t_struct(Snapshots)2538_storage)"
      },
      {
        "astId": 2546,
        "contract": "contracts/mining3/Mining3.sol:Mining3",
        "label": "_totalSupplySnapshots",
        "offset": 0,
        "slot": "206",
        "type": "t_struct(Snapshots)2538_storage"
      }
    ],
    "types": {
      "t_address": {
        "encoding": "inplace",
        "label": "address",
        "numberOfBytes": "20"
      },
      "t_array(t_uint256)45_storage": {
        "base": "t_uint256",
        "encoding": "inplace",
        "label": "uint256[45]",
        "numberOfBytes": "1440"
      },
      "t_array(t_uint256)49_storage": {
        "base": "t_uint256",
        "encoding": "inplace",
        "label": "uint256[49]",
        "numberOfBytes": "1568"
      },
      "t_array(t_uint256)50_storage": {
        "base": "t_uint256",
        "encoding": "inplace",
        "label": "uint256[50]",
        "numberOfBytes": "1600"
      },
      "t_array(t_uint256)dyn_storage": {
        "base": "t_uint256",
        "encoding": "dynamic_array",
        "label": "uint256[]",
        "numberOfBytes": "32"
      },
      "t_bool": {
        "encoding": "inplace",
        "label": "bool",
        "numberOfBytes": "1"
      },
      "t_mapping(t_address,t_mapping(t_address,t_uint256))": {
        "encoding": "mapping",
        "key": "t_address",
        "label": "mapping(address => mapping(address => uint256))",
        "numberOfBytes": "32",
        "value": "t_mapping(t_address,t_uint256)"
      },
      "t_mapping(t_address,t_struct(Snapshots)2538_storage)": {
        "encoding": "mapping",
        "key": "t_address",
        "label": "mapping(address => struct Mining3.Snapshots)",
        "numberOfBytes": "32",
        "value": "t_struct(Snapshots)2538_storage"
      },
      "t_mapping(t_address,t_struct(Withdrawal)2518_storage)": {
        "encoding": "mapping",
        "key": "t_address",
        "label": "mapping(address => struct Mining3.Withdrawal)",
        "numberOfBytes": "32",
        "value": "t_struct(Withdrawal)2518_storage"
      },
      "t_mapping(t_address,t_uint256)": {
        "encoding": "mapping",
        "key": "t_address",
        "label": "mapping(address => uint256)",
        "numberOfBytes": "32",
        "value": "t_uint256"
      },
      "t_mapping(t_uint256,t_uint256)": {
        "encoding": "mapping",
        "key": "t_uint256",
        "label": "mapping(uint256 => uint256)",
        "numberOfBytes": "32",
        "value": "t_uint256"
      },
      "t_string_storage": {
        "encoding": "bytes",
        "label": "string",
        "numberOfBytes": "32"
      },
      "t_struct(Snapshots)2538_storage": {
        "encoding": "inplace",
        "label": "struct Mining3.Snapshots",
        "members": [
          {
            "astId": 2534,
            "contract": "contracts/mining3/Mining3.sol:Mining3",
            "label": "ids",
            "offset": 0,
            "slot": "0",
            "type": "t_array(t_uint256)dyn_storage"
          },
          {
            "astId": 2537,
            "contract": "contracts/mining3/Mining3.sol:Mining3",
            "label": "values",
            "offset": 0,
            "slot": "1",
            "type": "t_array(t_uint256)dyn_storage"
          }
        ],
        "numberOfBytes": "64"
      },
      "t_struct(Withdrawal)2518_storage": {
        "encoding": "inplace",
        "label": "struct Mining3.Withdrawal",
        "members": [
          {
            "astId": 2515,
            "contract": "contracts/mining3/Mining3.sol:Mining3",
            "label": "snapshotId",
            "offset": 0,
            "slot": "0",
            "type": "t_uint256"
          },
          {
            "astId": 2517,
            "contract": "contracts/mining3/Mining3.sol:Mining3",
            "label": "index",
            "offset": 0,
            "slot": "1",
            "type": "t_uint256"
          }
        ],
        "numberOfBytes": "64"
      },
      "t_uint256": {
        "encoding": "inplace",
        "label": "uint256",
        "numberOfBytes": "32"
      }
    }
  }
}