{
  "address": "0x53dB91CFa8141bAD8E1C91466dDA87007FA09DA7",
  "abi": [
    {
      "anonymous": false,
      "inputs": [
        {
          "indexed": true,
          "internalType": "address",
          "name": "owner",
          "type": "address"
        },
        {
          "indexed": true,
          "internalType": "address",
          "name": "spender",
          "type": "address"
        },
        {
          "indexed": false,
          "internalType": "uint256",
          "name": "value",
          "type": "uint256"
        }
      ],
      "name": "Approval",
      "type": "event"
    },
    {
      "anonymous": false,
      "inputs": [
        {
          "indexed": true,
          "internalType": "address",
          "name": "previousOwner",
          "type": "address"
        },
        {
          "indexed": true,
          "internalType": "address",
          "name": "newOwner",
          "type": "address"
        }
      ],
      "name": "OwnershipTransferred",
      "type": "event"
    },
    {
      "anonymous": false,
      "inputs": [
        {
          "indexed": false,
          "internalType": "address",
          "name": "account",
          "type": "address"
        }
      ],
      "name": "Paused",
      "type": "event"
    },
    {
      "anonymous": false,
      "inputs": [
        {
          "indexed": true,
          "internalType": "address",
          "name": "from",
          "type": "address"
        },
        {
          "indexed": true,
          "internalType": "address",
          "name": "to",
          "type": "address"
        },
        {
          "indexed": false,
          "internalType": "uint256",
          "name": "value",
          "type": "uint256"
        }
      ],
      "name": "Transfer",
      "type": "event"
    },
    {
      "anonymous": false,
      "inputs": [
        {
          "indexed": false,
          "internalType": "address",
          "name": "account",
          "type": "address"
        }
      ],
      "name": "Unpaused",
      "type": "event"
    },
    {
      "inputs": [
        {
          "internalType": "address",
          "name": "owner",
          "type": "address"
        },
        {
          "internalType": "address",
          "name": "spender",
          "type": "address"
        }
      ],
      "name": "allowance",
      "outputs": [
        {
          "internalType": "uint256",
          "name": "",
          "type": "uint256"
        }
      ],
      "stateMutability": "view",
      "type": "function"
    },
    {
      "inputs": [
        {
          "internalType": "address",
          "name": "spender",
          "type": "address"
        },
        {
          "internalType": "uint256",
          "name": "amount",
          "type": "uint256"
        }
      ],
      "name": "approve",
      "outputs": [
        {
          "internalType": "bool",
          "name": "",
          "type": "bool"
        }
      ],
      "stateMutability": "nonpayable",
      "type": "function"
    },
    {
      "inputs": [
        {
          "internalType": "address",
          "name": "account",
          "type": "address"
        }
      ],
      "name": "balanceOf",
      "outputs": [
        {
          "internalType": "uint256",
          "name": "",
          "type": "uint256"
        }
      ],
      "stateMutability": "view",
      "type": "function"
    },
    {
      "inputs": [
        {
          "internalType": "address",
          "name": "account",
          "type": "address"
        },
        {
          "internalType": "uint256",
          "name": "snapshotId",
          "type": "uint256"
        }
      ],
      "name": "balanceOfAt",
      "outputs": [
        {
          "internalType": "uint256",
          "name": "",
          "type": "uint256"
        }
      ],
      "stateMutability": "view",
      "type": "function"
    },
    {
      "inputs": [
        {
          "internalType": "address",
          "name": "account",
          "type": "address"
        }
      ],
      "name": "balanceSnapshots",
      "outputs": [
        {
          "components": [
            {
              "internalType": "uint256[]",
              "name": "ids",
              "type": "uint256[]"
            },
            {
              "internalType": "uint256[]",
              "name": "values",
              "type": "uint256[]"
            }
          ],
          "internalType": "struct Mining3.Snapshots",
          "name": "snapshots",
          "type": "tuple"
        }
      ],
      "stateMutability": "view",
      "type": "function"
    },
    {
      "inputs": [
        {
          "internalType": "uint256[]",
          "name": "snapshotIds",
          "type": "uint256[]"
        }
      ],
      "name": "batchEarningSum",
      "outputs": [
        {
          "internalType": "uint256[]",
          "name": "",
          "type": "uint256[]"
        }
      ],
      "stateMutability": "view",
      "type": "function"
    },
    {
      "inputs": [
        {
          "internalType": "uint256",
          "name": "amount",
          "type": "uint256"
        }
      ],
      "name": "burn",
      "outputs": [],
      "stateMutability": "nonpayable",
      "type": "function"
    },
    {
      "inputs": [],
      "name": "decimals",
      "outputs": [
        {
          "internalType": "uint8",
          "name": "",
          "type": "uint8"
        }
      ],
      "stateMutability": "view",
      "type": "function"
    },
    {
      "inputs": [
        {
          "internalType": "address",
          "name": "spender",
          "type": "address"
        },
        {
          "internalType": "uint256",
          "name": "subtractedValue",
          "type": "uint256"
        }
      ],
      "name": "decreaseAllowance",
      "outputs": [
        {
          "internalType": "bool",
          "name": "",
          "type": "bool"
        }
      ],
      "stateMutability": "nonpayable",
      "type": "function"
    },
    {
      "inputs": [],
      "name": "earningToken",
      "outputs": [
        {
          "internalType": "address",
          "name": "",
          "type": "address"
        }
      ],
      "stateMutability": "view",
      "type": "function"
    },
    {
      "inputs": [
        {
          "internalType": "uint256",
          "name": "earningPerToken",
          "type": "uint256"
        }
      ],
      "name": "finalize",
      "outputs": [],
      "stateMutability": "nonpayable",
      "type": "function"
    },
    {
      "inputs": [
        {
          "internalType": "address",
          "name": "spender",
          "type": "address"
        },
        {
          "internalType": "uint256",
          "name": "addedValue",
          "type": "uint256"
        }
      ],
      "name": "increaseAllowance",
      "outputs": [
        {
          "internalType": "bool",
          "name": "",
          "type": "bool"
        }
      ],
      "stateMutability": "nonpayable",
      "type": "function"
    },
    {
      "inputs": [
        {
          "internalType": "string",
          "name": "name",
          "type": "string"
        },
        {
          "internalType": "string",
          "name": "symbol",
          "type": "string"
        },
        {
          "internalType": "address",
          "name": "earningTokenToSet",
          "type": "address"
        },
        {
          "internalType": "uint256",
          "name": "startSnapshotId",
          "type": "uint256"
        }
      ],
      "name": "initialize",
      "outputs": [],
      "stateMutability": "nonpayable",
      "type": "function"
    },
    {
      "inputs": [],
      "name": "lastFinalizedAt",
      "outputs": [
        {
          "internalType": "uint256",
          "name": "",
          "type": "uint256"
        }
      ],
      "stateMutability": "view",
      "type": "function"
    },
    {
      "inputs": [
        {
          "internalType": "address",
          "name": "account",
          "type": "address"
        }
      ],
      "name": "lastWithdrawAt",
      "outputs": [
        {
          "internalType": "uint256",
          "name": "",
          "type": "uint256"
        }
      ],
      "stateMutability": "view",
      "type": "function"
    },
    {
      "inputs": [
        {
          "internalType": "address",
          "name": "to",
          "type": "address"
        },
        {
          "internalType": "uint256",
          "name": "amount",
          "type": "uint256"
        }
      ],
      "name": "mint",
      "outputs": [],
      "stateMutability": "nonpayable",
      "type": "function"
    },
    {
      "inputs": [],
      "name": "name",
      "outputs": [
        {
          "internalType": "string",
          "name": "",
          "type": "string"
        }
      ],
      "stateMutability": "view",
      "type": "function"
    },
    {
      "inputs": [],
      "name": "owner",
      "outputs": [
        {
          "internalType": "address",
          "name": "",
          "type": "address"
        }
      ],
      "stateMutability": "view",
      "type": "function"
    },
    {
      "inputs": [],
      "name": "pause",
      "outputs": [],
      "stateMutability": "nonpayable",
      "type": "function"
    },
    {
      "inputs": [],
      "name": "paused",
      "outputs": [
        {
          "internalType": "bool",
          "name": "",
          "type": "bool"
        }
      ],
      "stateMutability": "view",
      "type": "function"
    },
    {
      "inputs": [],
      "name": "renounceOwnership",
      "outputs": [],
      "stateMutability": "nonpayable",
      "type": "function"
    },
    {
      "inputs": [],
      "name": "symbol",
      "outputs": [
        {
          "internalType": "string",
          "name": "",
          "type": "string"
        }
      ],
      "stateMutability": "view",
      "type": "function"
    },
    {
      "inputs": [],
      "name": "totalSupply",
      "outputs": [
        {
          "internalType": "uint256",
          "name": "",
          "type": "uint256"
        }
      ],
      "stateMutability": "view",
      "type": "function"
    },
    {
      "inputs": [
        {
          "internalType": "uint256",
          "name": "snapshotId",
          "type": "uint256"
        }
      ],
      "name": "totalSupplyAt",
      "outputs": [
        {
          "internalType": "uint256",
          "name": "",
          "type": "uint256"
        }
      ],
      "stateMutability": "view",
      "type": "function"
    },
    {
      "inputs": [
        {
          "internalType": "address",
          "name": "recipient",
          "type": "address"
        },
        {
          "internalType": "uint256",
          "name": "amount",
          "type": "uint256"
        }
      ],
      "name": "transfer",
      "outputs": [
        {
          "internalType": "bool",
          "name": "",
          "type": "bool"
        }
      ],
      "stateMutability": "nonpayable",
      "type": "function"
    },
    {
      "inputs": [
        {
          "internalType": "address",
          "name": "sender",
          "type": "address"
        },
        {
          "internalType": "address",
          "name": "recipient",
          "type": "address"
        },
        {
          "internalType": "uint256",
          "name": "amount",
          "type": "uint256"
        }
      ],
      "name": "transferFrom",
      "outputs": [
        {
          "internalType": "bool",
          "name": "",
          "type": "bool"
        }
      ],
      "stateMutability": "nonpayable",
      "type": "function"
    },
    {
      "inputs": [
        {
          "internalType": "address",
          "name": "newOwner",
          "type": "address"
        }
      ],
      "name": "transferOwnership",
      "outputs": [],
      "stateMutability": "nonpayable",
      "type": "function"
    },
    {
      "inputs": [],
      "name": "unpause",
      "outputs": [],
      "stateMutability": "nonpayable",
      "type": "function"
    },
    {
      "inputs": [],
      "name": "withdraw",
      "outputs": [],
      "stateMutability": "nonpayable",
      "type": "function"
    }
  ],
  "transactionHash": "0x1a7572c516123fa822564b9b3176d56e07b9aeea9eb88516c7f9ec08408b1496",
  "args": [],
  "numDeployments": 6,
  "solcInputHash": "c25e4ccac5c152070edde3094c2ebcec",
  "bytecode": "0x608060405234801561001057600080fd5b5061456a806100206000396000f3fe608060405234801561001057600080fd5b50600436106101cf5760003560e01c806366acfb6311610104578063981b24d0116100a2578063e263f59d11610071578063e263f59d14610532578063f2fde38b14610550578063f542033f1461056c578063fb66cbc514610588576101cf565b8063981b24d014610472578063a457c2d7146104a2578063a9059cbb146104d2578063dd62ed3e14610502576101cf565b80637fe205c7116100de5780637fe205c71461040e5780638456cb591461042c5780638da5cb5b1461043657806395d89b4114610454576101cf565b806366acfb63146103a457806370a08231146103d4578063715018a614610404576101cf565b80633ccfd60b1161017157806342966c681161014b57806342966c681461030a5780634ee2cd7e146103265780635c975abb14610356578063649bf86814610374576101cf565b80633ccfd60b146102da5780633f4ba83a146102e457806340c10f19146102ee576101cf565b806318160ddd116101ad57806318160ddd1461023e57806323b872dd1461025c578063313ce5671461028c57806339509351146102aa576101cf565b806305261aea146101d457806306fdde03146101f0578063095ea7b31461020e575b600080fd5b6101ee60048036038101906101e99190612d99565b6105b8565b005b6101f8610835565b6040516102059190612e5f565b60405180910390f35b61022860048036038101906102239190612edf565b6108c7565b6040516102359190612f3a565b60405180910390f35b6102466108e5565b6040516102539190612f64565b60405180910390f35b61027660048036038101906102719190612f7f565b6108ef565b6040516102839190612f3a565b60405180910390f35b6102946109e7565b6040516102a19190612fee565b60405180910390f35b6102c460048036038101906102bf9190612edf565b6109f0565b6040516102d19190612f3a565b60405180910390f35b6102e2610a9c565b005b6102ec610da9565b005b61030860048036038101906103039190612edf565b610e2f565b005b610324600480360381019061031f9190612d99565b610eb9565b005b610340600480360381019061033b9190612edf565b610f42565b60405161034d9190612f64565b60405180910390f35b61035e610fb2565b60405161036b9190612f3a565b60405180910390f35b61038e60048036038101906103899190613009565b610fc9565b60405161039b9190612f64565b60405180910390f35b6103be60048036038101906103b99190613009565b611015565b6040516103cb9190613138565b60405180910390f35b6103ee60048036038101906103e99190613009565b61111e565b6040516103fb9190612f64565b60405180910390f35b61040c611167565b005b6104166111ef565b6040516104239190613169565b60405180910390f35b610434611219565b005b61043e61129f565b60405161044b9190613169565b60405180910390f35b61045c6112c9565b6040516104699190612e5f565b60405180910390f35b61048c60048036038101906104879190612d99565b61135b565b6040516104999190612f64565b60405180910390f35b6104bc60048036038101906104b79190612edf565b61138c565b6040516104c99190612f3a565b60405180910390f35b6104ec60048036038101906104e79190612edf565b611477565b6040516104f99190612f3a565b60405180910390f35b61051c60048036038101906105179190613184565b611495565b6040516105299190612f64565b60405180910390f35b61053a61151c565b6040516105479190612f64565b60405180910390f35b61056a60048036038101906105659190613009565b611526565b005b610586600480360381019061058191906132f9565b61161e565b005b6105a2600480360381019061059d91906133f8565b611768565b6040516105af91906134b4565b60405180910390f35b6105c0611832565b73ffffffffffffffffffffffffffffffffffffffff166105de61129f565b73ffffffffffffffffffffffffffffffffffffffff1614610634576040517f08c379a000000000000000000000000000000000000000000000000000000000815260040161062b90613522565b60405180910390fd5b60006201518060ca546106479190613571565b9050600061065361183a565b905080821115610698576040517f08c379a000000000000000000000000000000000000000000000000000000000815260040161068f90613613565b60405180910390fd5b8260cc600062015180856106ac9190613633565b8152602001908152602001600020546106c59190613571565b60cc6000848152602001908152602001600020819055508160ca8190555060008060ce600001805490509050600081148061072c57508360ce60000160018361070e9190613633565b8154811061071f5761071e613667565b5b9060005260206000200154105b15610740576107396108e5565b91506107cd565b600060018261074f9190613633565b90505b60008111801561078f57508460ce6000016001836107709190613633565b8154811061078157610780613667565b5b906000526020600020015410155b156107a757808061079f90613696565b915050610752565b60ce60010181815481106107be576107bd613667565b5b90600052602060002001549250505b61082e6107d861129f565b3084886107e591906136c0565b60c960009054906101000a900473ffffffffffffffffffffffffffffffffffffffff1673ffffffffffffffffffffffffffffffffffffffff1661185b909392919063ffffffff16565b5050505050565b60606036805461084490613749565b80601f016020809104026020016040519081016040528092919081815260200182805461087090613749565b80156108bd5780601f10610892576101008083540402835291602001916108bd565b820191906000526020600020905b8154815290600101906020018083116108a057829003601f168201915b5050505050905090565b60006108db6108d4611832565b84846118e4565b6001905092915050565b6000603554905090565b60006108fc848484611aaf565b6000603460008673ffffffffffffffffffffffffffffffffffffffff1673ffffffffffffffffffffffffffffffffffffffff1681526020019081526020016000206000610947611832565b73ffffffffffffffffffffffffffffffffffffffff1673ffffffffffffffffffffffffffffffffffffffff168152602001908152602001600020549050828110156109c7576040517f08c379a00000000000000000000000000000000000000000000000000000000081526004016109be906137ed565b60405180910390fd5b6109db856109d3611832565b8584036118e4565b60019150509392505050565b60006012905090565b6000610a926109fd611832565b848460346000610a0b611832565b73ffffffffffffffffffffffffffffffffffffffff1673ffffffffffffffffffffffffffffffffffffffff16815260200190815260200160002060008873ffffffffffffffffffffffffffffffffffffffff1673ffffffffffffffffffffffffffffffffffffffff16815260200190815260200160002054610a8d9190613571565b6118e4565b6001905092915050565b610aa4610fb2565b15610ae4576040517f08c379a0000000000000000000000000000000000000000000000000000000008152600401610adb90613859565b60405180910390fd5b600060ca54905060006201518082610afc91906138a8565b14610b3c576040517f08c379a0000000000000000000000000000000000000000000000000000000008152600401610b3390613925565b60405180910390fd5b60ca54811115610b81576040517f08c379a0000000000000000000000000000000000000000000000000000000008152600401610b7890613991565b60405180910390fd5b600060cb60003373ffffffffffffffffffffffffffffffffffffffff1673ffffffffffffffffffffffffffffffffffffffff1681526020019081526020016000209050600081600001549050808311610c0f576040517f08c379a0000000000000000000000000000000000000000000000000000000008152600401610c06906139fd565b60405180910390fd5b600060cd60003373ffffffffffffffffffffffffffffffffffffffff1673ffffffffffffffffffffffffffffffffffffffff1681526020019081526020016000209050600081600001805490509050600080856001015490505b82811015610d18576000846000018281548110610c8957610c88613667565b5b9060005260206000200154905087811015610cdb57610cc9856001018381548110610cb757610cb6613667565b5b90600052602060002001548783611d33565b83610cd49190613571565b9250610d01565b610cee610ce73361111e565b878a611d33565b83610cf99190613571565b925050610d18565b809550508080610d1090613a1d565b915050610c69565b82811415610d4157610d33610d2c3361111e565b8689611d33565b82610d3e9190613571565b91505b868660000181905550808660010181905550610da0338360c960009054906101000a900473ffffffffffffffffffffffffffffffffffffffff1673ffffffffffffffffffffffffffffffffffffffff16611d8a9092919063ffffffff16565b50505050505050565b610db1611832565b73ffffffffffffffffffffffffffffffffffffffff16610dcf61129f565b73ffffffffffffffffffffffffffffffffffffffff1614610e25576040517f08c379a0000000000000000000000000000000000000000000000000000000008152600401610e1c90613522565b60405180910390fd5b610e2d611e10565b565b610e37611832565b73ffffffffffffffffffffffffffffffffffffffff16610e5561129f565b73ffffffffffffffffffffffffffffffffffffffff1614610eab576040517f08c379a0000000000000000000000000000000000000000000000000000000008152600401610ea290613522565b60405180910390fd5b610eb58282611eb2565b5050565b610ec1611832565b73ffffffffffffffffffffffffffffffffffffffff16610edf61129f565b73ffffffffffffffffffffffffffffffffffffffff1614610f35576040517f08c379a0000000000000000000000000000000000000000000000000000000008152600401610f2c90613522565b60405180910390fd5b610f3f3382612013565b50565b6000806000610f8f8460cd60008873ffffffffffffffffffffffffffffffffffffffff1673ffffffffffffffffffffffffffffffffffffffff1681526020019081526020016000206121ec565b9150915081610fa657610fa18561111e565b610fa8565b805b9250505092915050565b6000609760009054906101000a900460ff16905090565b600060cb60008373ffffffffffffffffffffffffffffffffffffffff1673ffffffffffffffffffffffffffffffffffffffff168152602001908152602001600020600001549050919050565b61101d612c92565b60cd60008373ffffffffffffffffffffffffffffffffffffffff1673ffffffffffffffffffffffffffffffffffffffff168152602001908152602001600020604051806040016040529081600082018054806020026020016040519081016040528092919081815260200182805480156110b657602002820191906000526020600020905b8154815260200190600101908083116110a2575b505050505081526020016001820180548060200260200160405190810160405280929190818152602001828054801561110e57602002820191906000526020600020905b8154815260200190600101908083116110fa575b5050505050815250509050919050565b6000603360008373ffffffffffffffffffffffffffffffffffffffff1673ffffffffffffffffffffffffffffffffffffffff168152602001908152602001600020549050919050565b61116f611832565b73ffffffffffffffffffffffffffffffffffffffff1661118d61129f565b73ffffffffffffffffffffffffffffffffffffffff16146111e3576040517f08c379a00000000000000000000000000000000000000000000000000000000081526004016111da90613522565b60405180910390fd5b6111ed60006122e2565b565b600060c960009054906101000a900473ffffffffffffffffffffffffffffffffffffffff16905090565b611221611832565b73ffffffffffffffffffffffffffffffffffffffff1661123f61129f565b73ffffffffffffffffffffffffffffffffffffffff1614611295576040517f08c379a000000000000000000000000000000000000000000000000000000000815260040161128c90613522565b60405180910390fd5b61129d6123a8565b565b6000606560009054906101000a900473ffffffffffffffffffffffffffffffffffffffff16905090565b6060603780546112d890613749565b80601f016020809104026020016040519081016040528092919081815260200182805461130490613749565b80156113515780601f1061132657610100808354040283529160200191611351565b820191906000526020600020905b81548152906001019060200180831161133457829003601f168201915b5050505050905090565b600080600061136b8460ce6121ec565b91509150816113815761137c6108e5565b611383565b805b92505050919050565b6000806034600061139b611832565b73ffffffffffffffffffffffffffffffffffffffff1673ffffffffffffffffffffffffffffffffffffffff16815260200190815260200160002060008573ffffffffffffffffffffffffffffffffffffffff1673ffffffffffffffffffffffffffffffffffffffff16815260200190815260200160002054905082811015611458576040517f08c379a000000000000000000000000000000000000000000000000000000000815260040161144f90613ad8565b60405180910390fd5b61146c611463611832565b858584036118e4565b600191505092915050565b600061148b611484611832565b8484611aaf565b6001905092915050565b6000603460008473ffffffffffffffffffffffffffffffffffffffff1673ffffffffffffffffffffffffffffffffffffffff16815260200190815260200160002060008373ffffffffffffffffffffffffffffffffffffffff1673ffffffffffffffffffffffffffffffffffffffff16815260200190815260200160002054905092915050565b600060ca54905090565b61152e611832565b73ffffffffffffffffffffffffffffffffffffffff1661154c61129f565b73ffffffffffffffffffffffffffffffffffffffff16146115a2576040517f08c379a000000000000000000000000000000000000000000000000000000000815260040161159990613522565b60405180910390fd5b600073ffffffffffffffffffffffffffffffffffffffff168173ffffffffffffffffffffffffffffffffffffffff161415611612576040517f08c379a000000000000000000000000000000000000000000000000000000000815260040161160990613b6a565b60405180910390fd5b61161b816122e2565b50565b600060019054906101000a900460ff166116465760008054906101000a900460ff161561164f565b61164e61244b565b5b61168e576040517f08c379a000000000000000000000000000000000000000000000000000000000815260040161168590613bfc565b60405180910390fd5b60008060019054906101000a900460ff1615905080156116de576001600060016101000a81548160ff02191690831515021790555060016000806101000a81548160ff0219169083151502179055505b6116e661245c565b6116ee6124bd565b6116f8858561251e565b8260c960006101000a81548173ffffffffffffffffffffffffffffffffffffffff021916908373ffffffffffffffffffffffffffffffffffffffff1602179055508160ca8190555080156117615760008060016101000a81548160ff0219169083151502179055505b5050505050565b606060008383905067ffffffffffffffff811115611789576117886131ce565b5b6040519080825280602002602001820160405280156117b75781602001602082028036833780820191505090505b50905060005b848490508110156118275760cc60008686848181106117df576117de613667565b5b9050602002013581526020019081526020016000205482828151811061180857611807613667565b5b602002602001018181525050808061181f90613a1d565b9150506117bd565b508091505092915050565b600033905090565b6000620151804261184b91906138a8565b426118569190613633565b905090565b6118de846323b872dd60e01b85858560405160240161187c93929190613c1c565b604051602081830303815290604052907bffffffffffffffffffffffffffffffffffffffffffffffffffffffff19166020820180517bffffffffffffffffffffffffffffffffffffffffffffffffffffffff8381831617835250505050612583565b50505050565b600073ffffffffffffffffffffffffffffffffffffffff168373ffffffffffffffffffffffffffffffffffffffff161415611954576040517f08c379a000000000000000000000000000000000000000000000000000000000815260040161194b90613cc5565b60405180910390fd5b600073ffffffffffffffffffffffffffffffffffffffff168273ffffffffffffffffffffffffffffffffffffffff1614156119c4576040517f08c379a00000000000000000000000000000000000000000000000000000000081526004016119bb90613d57565b60405180910390fd5b80603460008573ffffffffffffffffffffffffffffffffffffffff1673ffffffffffffffffffffffffffffffffffffffff16815260200190815260200160002060008473ffffffffffffffffffffffffffffffffffffffff1673ffffffffffffffffffffffffffffffffffffffff168152602001908152602001600020819055508173ffffffffffffffffffffffffffffffffffffffff168373ffffffffffffffffffffffffffffffffffffffff167f8c5be1e5ebec7d5bd14f71427d1e84f3dd0314c0f7b2291e5b200ac8c7c3b92583604051611aa29190612f64565b60405180910390a3505050565b600073ffffffffffffffffffffffffffffffffffffffff168373ffffffffffffffffffffffffffffffffffffffff161415611b1f576040517f08c379a0000000000000000000000000000000000000000000000000000000008152600401611b1690613de9565b60405180910390fd5b600073ffffffffffffffffffffffffffffffffffffffff168273ffffffffffffffffffffffffffffffffffffffff161415611b8f576040517f08c379a0000000000000000000000000000000000000000000000000000000008152600401611b8690613e7b565b60405180910390fd5b611b9a83838361264a565b6000603360008573ffffffffffffffffffffffffffffffffffffffff1673ffffffffffffffffffffffffffffffffffffffff16815260200190815260200160002054905081811015611c21576040517f08c379a0000000000000000000000000000000000000000000000000000000008152600401611c1890613f0d565b60405180910390fd5b818103603360008673ffffffffffffffffffffffffffffffffffffffff1673ffffffffffffffffffffffffffffffffffffffff1681526020019081526020016000208190555081603360008573ffffffffffffffffffffffffffffffffffffffff1673ffffffffffffffffffffffffffffffffffffffff1681526020019081526020016000206000828254611cb69190613571565b925050819055508273ffffffffffffffffffffffffffffffffffffffff168473ffffffffffffffffffffffffffffffffffffffff167fddf252ad1be2c89b69c2b068fc378daa952ba7f163c4a11628f55a4df523b3ef84604051611d1a9190612f64565b60405180910390a3611d2d848484612704565b50505050565b6000808414611d7e5760cc60008481526020019081526020016000205460cc600084815260200190815260200160002054611d6e9190613633565b84611d7991906136c0565b611d81565b60005b90509392505050565b611e0b8363a9059cbb60e01b8484604051602401611da9929190613f2d565b604051602081830303815290604052907bffffffffffffffffffffffffffffffffffffffffffffffffffffffff19166020820180517bffffffffffffffffffffffffffffffffffffffffffffffffffffffff8381831617835250505050612583565b505050565b611e18610fb2565b611e57576040517f08c379a0000000000000000000000000000000000000000000000000000000008152600401611e4e90613fa2565b60405180910390fd5b6000609760006101000a81548160ff0219169083151502179055507f5db9ee0a495bf2e6ff9c91a7834c1ba4fdd244a5e8aa4e537bd38aeae4b073aa611e9b611832565b604051611ea89190613169565b60405180910390a1565b600073ffffffffffffffffffffffffffffffffffffffff168273ffffffffffffffffffffffffffffffffffffffff161415611f22576040517f08c379a0000000000000000000000000000000000000000000000000000000008152600401611f199061400e565b60405180910390fd5b611f2e6000838361264a565b8060356000828254611f409190613571565b9250508190555080603360008473ffffffffffffffffffffffffffffffffffffffff1673ffffffffffffffffffffffffffffffffffffffff1681526020019081526020016000206000828254611f969190613571565b925050819055508173ffffffffffffffffffffffffffffffffffffffff16600073ffffffffffffffffffffffffffffffffffffffff167fddf252ad1be2c89b69c2b068fc378daa952ba7f163c4a11628f55a4df523b3ef83604051611ffb9190612f64565b60405180910390a361200f60008383612704565b5050565b600073ffffffffffffffffffffffffffffffffffffffff168273ffffffffffffffffffffffffffffffffffffffff161415612083576040517f08c379a000000000000000000000000000000000000000000000000000000000815260040161207a906140a0565b60405180910390fd5b61208f8260008361264a565b6000603360008473ffffffffffffffffffffffffffffffffffffffff1673ffffffffffffffffffffffffffffffffffffffff16815260200190815260200160002054905081811015612116576040517f08c379a000000000000000000000000000000000000000000000000000000000815260040161210d90614132565b60405180910390fd5b818103603360008573ffffffffffffffffffffffffffffffffffffffff1673ffffffffffffffffffffffffffffffffffffffff16815260200190815260200160002081905550816035600082825461216e9190613633565b92505081905550600073ffffffffffffffffffffffffffffffffffffffff168373ffffffffffffffffffffffffffffffffffffffff167fddf252ad1be2c89b69c2b068fc378daa952ba7f163c4a11628f55a4df523b3ef846040516121d39190612f64565b60405180910390a36121e783600084612704565b505050565b60008060008411612232576040517f08c379a00000000000000000000000000000000000000000000000000000000081526004016122299061419e565b60405180910390fd5b61223a61183a565b84111561227c576040517f08c379a00000000000000000000000000000000000000000000000000000000081526004016122739061420a565b60405180910390fd5b6000612294858560000161270990919063ffffffff16565b905083600001805490508114156122b25760008092509250506122db565b60018460010182815481106122ca576122c9613667565b5b906000526020600020015492509250505b9250929050565b6000606560009054906101000a900473ffffffffffffffffffffffffffffffffffffffff16905081606560006101000a81548173ffffffffffffffffffffffffffffffffffffffff021916908373ffffffffffffffffffffffffffffffffffffffff1602179055508173ffffffffffffffffffffffffffffffffffffffff168173ffffffffffffffffffffffffffffffffffffffff167f8be0079c531659141344cd1fd0a4f28419497f9722a3daafe3b4186f6b6457e060405160405180910390a35050565b6123b0610fb2565b156123f0576040517f08c379a00000000000000000000000000000000000000000000000000000000081526004016123e790613859565b60405180910390fd5b6001609760006101000a81548160ff0219169083151502179055507f62e78cea01bee320cd4e420270b5ea74000d11b0c9f74754ebdbfc544b05a258612434611832565b6040516124419190613169565b60405180910390a1565b6000612456306127e3565b15905090565b600060019054906101000a900460ff166124ab576040517f08c379a00000000000000000000000000000000000000000000000000000000081526004016124a29061429c565b60405180910390fd5b6124b36127f6565b6124bb612847565b565b600060019054906101000a900460ff1661250c576040517f08c379a00000000000000000000000000000000000000000000000000000000081526004016125039061429c565b60405180910390fd5b6125146127f6565b61251c6128a8565b565b600060019054906101000a900460ff1661256d576040517f08c379a00000000000000000000000000000000000000000000000000000000081526004016125649061429c565b60405180910390fd5b6125756127f6565b61257f8282612914565b5050565b60006125e5826040518060400160405280602081526020017f5361666545524332303a206c6f772d6c6576656c2063616c6c206661696c65648152508573ffffffffffffffffffffffffffffffffffffffff166129959092919063ffffffff16565b9050600081511115612645578080602001905181019061260591906142e8565b612644576040517f08c379a000000000000000000000000000000000000000000000000000000000815260040161263b90614387565b60405180910390fd5b5b505050565b6126558383836129ad565b600073ffffffffffffffffffffffffffffffffffffffff168373ffffffffffffffffffffffffffffffffffffffff1614156126a057612693826129b2565b61269b612a05565b6126ff565b600073ffffffffffffffffffffffffffffffffffffffff168273ffffffffffffffffffffffffffffffffffffffff1614156126eb576126de836129b2565b6126e6612a05565b6126fe565b6126f4836129b2565b6126fd826129b2565b5b5b505050565b505050565b6000808380549050141561272057600090506127dd565b600080848054905090505b8082101561278457600061273f8383612a19565b90508486828154811061275557612754613667565b5b9060005260206000200154111561276e5780915061277e565b60018161277b9190613571565b92505b5061272b565b6000821180156127bc5750838560018461279e9190613633565b815481106127af576127ae613667565b5b9060005260206000200154145b156127d7576001826127ce9190613633565b925050506127dd565b81925050505b92915050565b600080823b905060008111915050919050565b600060019054906101000a900460ff16612845576040517f08c379a000000000000000000000000000000000000000000000000000000000815260040161283c9061429c565b60405180910390fd5b565b600060019054906101000a900460ff16612896576040517f08c379a000000000000000000000000000000000000000000000000000000000815260040161288d9061429c565b60405180910390fd5b6128a66128a1611832565b6122e2565b565b600060019054906101000a900460ff166128f7576040517f08c379a00000000000000000000000000000000000000000000000000000000081526004016128ee9061429c565b60405180910390fd5b6000609760006101000a81548160ff021916908315150217905550565b600060019054906101000a900460ff16612963576040517f08c379a000000000000000000000000000000000000000000000000000000000815260040161295a9061429c565b60405180910390fd5b8160369080519060200190612979929190612cac565b508060379080519060200190612990929190612cac565b505050565b60606129a48484600085612a3f565b90509392505050565b505050565b612a0260cd60008373ffffffffffffffffffffffffffffffffffffffff1673ffffffffffffffffffffffffffffffffffffffff1681526020019081526020016000206129fd8361111e565b612b53565b50565b612a1760ce612a126108e5565b612b53565b565b60006002828418612a2a91906143a7565b828416612a379190613571565b905092915050565b606082471015612a84576040517f08c379a0000000000000000000000000000000000000000000000000000000008152600401612a7b9061444a565b60405180910390fd5b612a8d85612bce565b612acc576040517f08c379a0000000000000000000000000000000000000000000000000000000008152600401612ac3906144b6565b60405180910390fd5b6000808673ffffffffffffffffffffffffffffffffffffffff168587604051612af5919061451d565b60006040518083038185875af1925050503d8060008114612b32576040519150601f19603f3d011682016040523d82523d6000602084013e612b37565b606091505b5091509150612b47828286612be1565b92505050949350505050565b6000612b5d61183a565b905080612b6c84600001612c48565b1015612bc95782600001819080600181540180825580915050600190039060005260206000200160009091909190915055826001018290806001815401808255809150506001900390600052602060002001600090919091909150555b505050565b600080823b905060008111915050919050565b60608315612bf157829050612c41565b600083511115612c045782518084602001fd5b816040517f08c379a0000000000000000000000000000000000000000000000000000000008152600401612c389190612e5f565b60405180910390fd5b9392505050565b600080828054905014612c88578160018380549050612c679190613633565b81548110612c7857612c77613667565b5b9060005260206000200154612c8b565b60005b9050919050565b604051806040016040528060608152602001606081525090565b828054612cb890613749565b90600052602060002090601f016020900481019282612cda5760008555612d21565b82601f10612cf357805160ff1916838001178555612d21565b82800160010185558215612d21579182015b82811115612d20578251825591602001919060010190612d05565b5b509050612d2e9190612d32565b5090565b5b80821115612d4b576000816000905550600101612d33565b5090565b6000604051905090565b600080fd5b600080fd5b6000819050919050565b612d7681612d63565b8114612d8157600080fd5b50565b600081359050612d9381612d6d565b92915050565b600060208284031215612daf57612dae612d59565b5b6000612dbd84828501612d84565b91505092915050565b600081519050919050565b600082825260208201905092915050565b60005b83811015612e00578082015181840152602081019050612de5565b83811115612e0f576000848401525b50505050565b6000601f19601f8301169050919050565b6000612e3182612dc6565b612e3b8185612dd1565b9350612e4b818560208601612de2565b612e5481612e15565b840191505092915050565b60006020820190508181036000830152612e798184612e26565b905092915050565b600073ffffffffffffffffffffffffffffffffffffffff82169050919050565b6000612eac82612e81565b9050919050565b612ebc81612ea1565b8114612ec757600080fd5b50565b600081359050612ed981612eb3565b92915050565b60008060408385031215612ef657612ef5612d59565b5b6000612f0485828601612eca565b9250506020612f1585828601612d84565b9150509250929050565b60008115159050919050565b612f3481612f1f565b82525050565b6000602082019050612f4f6000830184612f2b565b92915050565b612f5e81612d63565b82525050565b6000602082019050612f796000830184612f55565b92915050565b600080600060608486031215612f9857612f97612d59565b5b6000612fa686828701612eca565b9350506020612fb786828701612eca565b9250506040612fc886828701612d84565b9150509250925092565b600060ff82169050919050565b612fe881612fd2565b82525050565b60006020820190506130036000830184612fdf565b92915050565b60006020828403121561301f5761301e612d59565b5b600061302d84828501612eca565b91505092915050565b600081519050919050565b600082825260208201905092915050565b6000819050602082019050919050565b61306b81612d63565b82525050565b600061307d8383613062565b60208301905092915050565b6000602082019050919050565b60006130a182613036565b6130ab8185613041565b93506130b683613052565b8060005b838110156130e75781516130ce8882613071565b97506130d983613089565b9250506001810190506130ba565b5085935050505092915050565b600060408301600083015184820360008601526131118282613096565b9150506020830151848203602086015261312b8282613096565b9150508091505092915050565b6000602082019050818103600083015261315281846130f4565b905092915050565b61316381612ea1565b82525050565b600060208201905061317e600083018461315a565b92915050565b6000806040838503121561319b5761319a612d59565b5b60006131a985828601612eca565b92505060206131ba85828601612eca565b9150509250929050565b600080fd5b600080fd5b7f4e487b7100000000000000000000000000000000000000000000000000000000600052604160045260246000fd5b61320682612e15565b810181811067ffffffffffffffff82111715613225576132246131ce565b5b80604052505050565b6000613238612d4f565b905061324482826131fd565b919050565b600067ffffffffffffffff821115613264576132636131ce565b5b61326d82612e15565b9050602081019050919050565b82818337600083830152505050565b600061329c61329784613249565b61322e565b9050828152602081018484840111156132b8576132b76131c9565b5b6132c384828561327a565b509392505050565b600082601f8301126132e0576132df6131c4565b5b81356132f0848260208601613289565b91505092915050565b6000806000806080858703121561331357613312612d59565b5b600085013567ffffffffffffffff81111561333157613330612d5e565b5b61333d878288016132cb565b945050602085013567ffffffffffffffff81111561335e5761335d612d5e565b5b61336a878288016132cb565b935050604061337b87828801612eca565b925050606061338c87828801612d84565b91505092959194509250565b600080fd5b600080fd5b60008083601f8401126133b8576133b76131c4565b5b8235905067ffffffffffffffff8111156133d5576133d4613398565b5b6020830191508360208202830111156133f1576133f061339d565b5b9250929050565b6000806020838503121561340f5761340e612d59565b5b600083013567ffffffffffffffff81111561342d5761342c612d5e565b5b613439858286016133a2565b92509250509250929050565b600082825260208201905092915050565b600061346182613036565b61346b8185613445565b935061347683613052565b8060005b838110156134a757815161348e8882613071565b975061349983613089565b92505060018101905061347a565b5085935050505092915050565b600060208201905081810360008301526134ce8184613456565b905092915050565b7f4f776e61626c653a2063616c6c6572206973206e6f7420746865206f776e6572600082015250565b600061350c602083612dd1565b9150613517826134d6565b602082019050919050565b6000602082019050818103600083015261353b816134ff565b9050919050565b7f4e487b7100000000000000000000000000000000000000000000000000000000600052601160045260246000fd5b600061357c82612d63565b915061358783612d63565b9250827fffffffffffffffffffffffffffffffffffffffffffffffffffffffffffffffff038211156135bc576135bb613542565b5b828201905092915050565b7f4d696e696e67333a20616c6c20736e617073686f74732066696e616c697a6564600082015250565b60006135fd602083612dd1565b9150613608826135c7565b602082019050919050565b6000602082019050818103600083015261362c816135f0565b9050919050565b600061363e82612d63565b915061364983612d63565b92508282101561365c5761365b613542565b5b828203905092915050565b7f4e487b7100000000000000000000000000000000000000000000000000000000600052603260045260246000fd5b60006136a182612d63565b915060008214156136b5576136b4613542565b5b600182039050919050565b60006136cb82612d63565b91506136d683612d63565b9250817fffffffffffffffffffffffffffffffffffffffffffffffffffffffffffffffff048311821515161561370f5761370e613542565b5b828202905092915050565b7f4e487b7100000000000000000000000000000000000000000000000000000000600052602260045260246000fd5b6000600282049050600182168061376157607f821691505b602082108114156137755761377461371a565b5b50919050565b7f45524332303a207472616e7366657220616d6f756e742065786365656473206160008201527f6c6c6f77616e6365000000000000000000000000000000000000000000000000602082015250565b60006137d7602883612dd1565b91506137e28261377b565b604082019050919050565b60006020820190508181036000830152613806816137ca565b9050919050565b7f5061757361626c653a2070617573656400000000000000000000000000000000600082015250565b6000613843601083612dd1565b915061384e8261380d565b602082019050919050565b6000602082019050818103600083015261387281613836565b9050919050565b7f4e487b7100000000000000000000000000000000000000000000000000000000600052601260045260246000fd5b60006138b382612d63565b91506138be83612d63565b9250826138ce576138cd613879565b5b828206905092915050565b7f4d696e696e67333a206d616c666f726d656420736e617073686f742069640000600082015250565b600061390f601e83612dd1565b915061391a826138d9565b602082019050919050565b6000602082019050818103600083015261393e81613902565b9050919050565b7f4d696e696e67333a206e6f742066696e616c697a656400000000000000000000600082015250565b600061397b601683612dd1565b915061398682613945565b602082019050919050565b600060208201905081810360008301526139aa8161396e565b9050919050565b7f4d696e696e67333a20616c726561647920776974686472617765640000000000600082015250565b60006139e7601b83612dd1565b91506139f2826139b1565b602082019050919050565b60006020820190508181036000830152613a16816139da565b9050919050565b6000613a2882612d63565b91507fffffffffffffffffffffffffffffffffffffffffffffffffffffffffffffffff821415613a5b57613a5a613542565b5b600182019050919050565b7f45524332303a2064656372656173656420616c6c6f77616e63652062656c6f7760008201527f207a65726f000000000000000000000000000000000000000000000000000000602082015250565b6000613ac2602583612dd1565b9150613acd82613a66565b604082019050919050565b60006020820190508181036000830152613af181613ab5565b9050919050565b7f4f776e61626c653a206e6577206f776e657220697320746865207a65726f206160008201527f6464726573730000000000000000000000000000000000000000000000000000602082015250565b6000613b54602683612dd1565b9150613b5f82613af8565b604082019050919050565b60006020820190508181036000830152613b8381613b47565b9050919050565b7f496e697469616c697a61626c653a20636f6e747261637420697320616c72656160008201527f647920696e697469616c697a6564000000000000000000000000000000000000602082015250565b6000613be6602e83612dd1565b9150613bf182613b8a565b604082019050919050565b60006020820190508181036000830152613c1581613bd9565b9050919050565b6000606082019050613c31600083018661315a565b613c3e602083018561315a565b613c4b6040830184612f55565b949350505050565b7f45524332303a20617070726f76652066726f6d20746865207a65726f2061646460008201527f7265737300000000000000000000000000000000000000000000000000000000602082015250565b6000613caf602483612dd1565b9150613cba82613c53565b604082019050919050565b60006020820190508181036000830152613cde81613ca2565b9050919050565b7f45524332303a20617070726f766520746f20746865207a65726f20616464726560008201527f7373000000000000000000000000000000000000000000000000000000000000602082015250565b6000613d41602283612dd1565b9150613d4c82613ce5565b604082019050919050565b60006020820190508181036000830152613d7081613d34565b9050919050565b7f45524332303a207472616e736665722066726f6d20746865207a65726f20616460008201527f6472657373000000000000000000000000000000000000000000000000000000602082015250565b6000613dd3602583612dd1565b9150613dde82613d77565b604082019050919050565b60006020820190508181036000830152613e0281613dc6565b9050919050565b7f45524332303a207472616e7366657220746f20746865207a65726f206164647260008201527f6573730000000000000000000000000000000000000000000000000000000000602082015250565b6000613e65602383612dd1565b9150613e7082613e09565b604082019050919050565b60006020820190508181036000830152613e9481613e58565b9050919050565b7f45524332303a207472616e7366657220616d6f756e742065786365656473206260008201527f616c616e63650000000000000000000000000000000000000000000000000000602082015250565b6000613ef7602683612dd1565b9150613f0282613e9b565b604082019050919050565b60006020820190508181036000830152613f2681613eea565b9050919050565b6000604082019050613f42600083018561315a565b613f4f6020830184612f55565b9392505050565b7f5061757361626c653a206e6f7420706175736564000000000000000000000000600082015250565b6000613f8c601483612dd1565b9150613f9782613f56565b602082019050919050565b60006020820190508181036000830152613fbb81613f7f565b9050919050565b7f45524332303a206d696e7420746f20746865207a65726f206164647265737300600082015250565b6000613ff8601f83612dd1565b915061400382613fc2565b602082019050919050565b6000602082019050818103600083015261402781613feb565b9050919050565b7f45524332303a206275726e2066726f6d20746865207a65726f2061646472657360008201527f7300000000000000000000000000000000000000000000000000000000000000602082015250565b600061408a602183612dd1565b91506140958261402e565b604082019050919050565b600060208201905081810360008301526140b98161407d565b9050919050565b7f45524332303a206275726e20616d6f756e7420657863656564732062616c616e60008201527f6365000000000000000000000000000000000000000000000000000000000000602082015250565b600061411c602283612dd1565b9150614127826140c0565b604082019050919050565b6000602082019050818103600083015261414b8161410f565b9050919050565b7f4552433230536e617073686f743a206964206973203000000000000000000000600082015250565b6000614188601683612dd1565b915061419382614152565b602082019050919050565b600060208201905081810360008301526141b78161417b565b9050919050565b7f4552433230536e617073686f743a206e6f6e6578697374656e74206964000000600082015250565b60006141f4601d83612dd1565b91506141ff826141be565b602082019050919050565b60006020820190508181036000830152614223816141e7565b9050919050565b7f496e697469616c697a61626c653a20636f6e7472616374206973206e6f74206960008201527f6e697469616c697a696e67000000000000000000000000000000000000000000602082015250565b6000614286602b83612dd1565b91506142918261422a565b604082019050919050565b600060208201905081810360008301526142b581614279565b9050919050565b6142c581612f1f565b81146142d057600080fd5b50565b6000815190506142e2816142bc565b92915050565b6000602082840312156142fe576142fd612d59565b5b600061430c848285016142d3565b91505092915050565b7f5361666545524332303a204552433230206f7065726174696f6e20646964206e60008201527f6f74207375636365656400000000000000000000000000000000000000000000602082015250565b6000614371602a83612dd1565b915061437c82614315565b604082019050919050565b600060208201905081810360008301526143a081614364565b9050919050565b60006143b282612d63565b91506143bd83612d63565b9250826143cd576143cc613879565b5b828204905092915050565b7f416464726573733a20696e73756666696369656e742062616c616e636520666f60008201527f722063616c6c0000000000000000000000000000000000000000000000000000602082015250565b6000614434602683612dd1565b915061443f826143d8565b604082019050919050565b6000602082019050818103600083015261446381614427565b9050919050565b7f416464726573733a2063616c6c20746f206e6f6e2d636f6e7472616374000000600082015250565b60006144a0601d83612dd1565b91506144ab8261446a565b602082019050919050565b600060208201905081810360008301526144cf81614493565b9050919050565b600081519050919050565b600081905092915050565b60006144f7826144d6565b61450181856144e1565b9350614511818560208601612de2565b80840191505092915050565b600061452982846144ec565b91508190509291505056fea2646970667358221220e881665eb794e997892a1b335854d23bc7189efa8172049542cf07c02f0bf2aa64736f6c634300080b0033",
  "devdoc": {
    "kind": "dev",
    "methods": {
      "allowance(address,address)": {
        "details": "See {IERC20-allowance}."
      },
      "approve(address,uint256)": {
        "details": "See {IERC20-approve}. Requirements: - `spender` cannot be the zero address."
      },
      "balanceOf(address)": {
        "details": "See {IERC20-balanceOf}."
      },
      "decimals()": {
        "details": "Returns the number of decimals used to get its user representation. For example, if `decimals` equals `2`, a balance of `505` tokens should be displayed to a user as `5.05` (`505 / 10 ** 2`). Tokens usually opt for a value of 18, imitating the relationship between Ether and Wei. This is the value {ERC20} uses, unless this function is overridden; NOTE: This information is only used for _display_ purposes: it in no way affects any of the arithmetic of the contract, including {IERC20-balanceOf} and {IERC20-transfer}."
      },
      "decreaseAllowance(address,uint256)": {
        "details": "Atomically decreases the allowance granted to `spender` by the caller. This is an alternative to {approve} that can be used as a mitigation for problems described in {IERC20-approve}. Emits an {Approval} event indicating the updated allowance. Requirements: - `spender` cannot be the zero address. - `spender` must have allowance for the caller of at least `subtractedValue`."
      },
      "increaseAllowance(address,uint256)": {
        "details": "Atomically increases the allowance granted to `spender` by the caller. This is an alternative to {approve} that can be used as a mitigation for problems described in {IERC20-approve}. Emits an {Approval} event indicating the updated allowance. Requirements: - `spender` cannot be the zero address."
      },
      "name()": {
        "details": "Returns the name of the token."
      },
      "owner()": {
        "details": "Returns the address of the current owner."
      },
      "paused()": {
        "details": "Returns true if the contract is paused, and false otherwise."
      },
      "renounceOwnership()": {
        "details": "Leaves the contract without owner. It will not be possible to call `onlyOwner` functions anymore. Can only be called by the current owner. NOTE: Renouncing ownership will leave the contract without an owner, thereby removing any functionality that is only available to the owner."
      },
      "symbol()": {
        "details": "Returns the symbol of the token, usually a shorter version of the name."
      },
      "totalSupply()": {
        "details": "See {IERC20-totalSupply}."
      },
      "transfer(address,uint256)": {
        "details": "See {IERC20-transfer}. Requirements: - `recipient` cannot be the zero address. - the caller must have a balance of at least `amount`."
      },
      "transferFrom(address,address,uint256)": {
        "details": "See {IERC20-transferFrom}. Emits an {Approval} event indicating the updated allowance. This is not required by the EIP. See the note at the beginning of {ERC20}. Requirements: - `sender` and `recipient` cannot be the zero address. - `sender` must have a balance of at least `amount`. - the caller must have allowance for ``sender``'s tokens of at least `amount`."
      },
      "transferOwnership(address)": {
        "details": "Transfers ownership of the contract to a new account (`newOwner`). Can only be called by the current owner."
      }
    },
    "version": 1
  },
  "userdoc": {
    "kind": "user",
    "methods": {},
    "version": 1
  },
  "storageLayout": {
    "storage": [
      {
        "astId": 132,
        "contract": "contracts/mining3/Mining3.sol:Mining3",
        "label": "_initialized",
        "offset": 0,
        "slot": "0",
        "type": "t_bool"
      },
      {
        "astId": 135,
        "contract": "contracts/mining3/Mining3.sol:Mining3",
        "label": "_initializing",
        "offset": 1,
        "slot": "0",
        "type": "t_bool"
      },
      {
        "astId": 1276,
        "contract": "contracts/mining3/Mining3.sol:Mining3",
        "label": "__gap",
        "offset": 0,
        "slot": "1",
        "type": "t_array(t_uint256)50_storage"
      },
      {
        "astId": 331,
        "contract": "contracts/mining3/Mining3.sol:Mining3",
        "label": "_balances",
        "offset": 0,
        "slot": "51",
        "type": "t_mapping(t_address,t_uint256)"
      },
      {
        "astId": 337,
        "contract": "contracts/mining3/Mining3.sol:Mining3",
        "label": "_allowances",
        "offset": 0,
        "slot": "52",
        "type": "t_mapping(t_address,t_mapping(t_address,t_uint256))"
      },
      {
        "astId": 339,
        "contract": "contracts/mining3/Mining3.sol:Mining3",
        "label": "_totalSupply",
        "offset": 0,
        "slot": "53",
        "type": "t_uint256"
      },
      {
        "astId": 341,
        "contract": "contracts/mining3/Mining3.sol:Mining3",
        "label": "_name",
        "offset": 0,
        "slot": "54",
        "type": "t_string_storage"
      },
      {
        "astId": 343,
        "contract": "contracts/mining3/Mining3.sol:Mining3",
        "label": "_symbol",
        "offset": 0,
        "slot": "55",
        "type": "t_string_storage"
      },
      {
        "astId": 884,
        "contract": "contracts/mining3/Mining3.sol:Mining3",
        "label": "__gap",
        "offset": 0,
        "slot": "56",
        "type": "t_array(t_uint256)45_storage"
      },
      {
        "astId": 10,
        "contract": "contracts/mining3/Mining3.sol:Mining3",
        "label": "_owner",
        "offset": 0,
        "slot": "101",
        "type": "t_address"
      },
      {
        "astId": 124,
        "contract": "contracts/mining3/Mining3.sol:Mining3",
        "label": "__gap",
        "offset": 0,
        "slot": "102",
        "type": "t_array(t_uint256)49_storage"
      },
      {
        "astId": 220,
        "contract": "contracts/mining3/Mining3.sol:Mining3",
        "label": "_paused",
        "offset": 0,
        "slot": "151",
        "type": "t_bool"
      },
      {
        "astId": 311,
        "contract": "contracts/mining3/Mining3.sol:Mining3",
        "label": "__gap",
        "offset": 0,
        "slot": "152",
        "type": "t_array(t_uint256)49_storage"
      },
      {
        "astId": 2429,
        "contract": "contracts/mining3/Mining3.sol:Mining3",
        "label": "_earningToken",
        "offset": 0,
        "slot": "201",
        "type": "t_address"
      },
      {
        "astId": 2431,
        "contract": "contracts/mining3/Mining3.sol:Mining3",
        "label": "_finalized",
        "offset": 0,
        "slot": "202",
        "type": "t_uint256"
      },
      {
        "astId": 2436,
        "contract": "contracts/mining3/Mining3.sol:Mining3",
        "label": "_withdrawal",
        "offset": 0,
        "slot": "203",
        "type": "t_mapping(t_address,t_struct(Withdrawal)2427_storage)"
      },
      {
        "astId": 2440,
        "contract": "contracts/mining3/Mining3.sol:Mining3",
        "label": "_earningSum",
        "offset": 0,
        "slot": "204",
        "type": "t_mapping(t_uint256,t_uint256)"
      },
      {
        "astId": 2452,
        "contract": "contracts/mining3/Mining3.sol:Mining3",
        "label": "_accountBalanceSnapshots",
        "offset": 0,
        "slot": "205",
        "type": "t_mapping(t_address,t_struct(Snapshots)2447_storage)"
      },
      {
        "astId": 2455,
        "contract": "contracts/mining3/Mining3.sol:Mining3",
        "label": "_totalSupplySnapshots",
        "offset": 0,
        "slot": "206",
        "type": "t_struct(Snapshots)2447_storage"
      }
    ],
    "types": {
      "t_address": {
        "encoding": "inplace",
        "label": "address",
        "numberOfBytes": "20"
      },
      "t_array(t_uint256)45_storage": {
        "base": "t_uint256",
        "encoding": "inplace",
        "label": "uint256[45]",
        "numberOfBytes": "1440"
      },
      "t_array(t_uint256)49_storage": {
        "base": "t_uint256",
        "encoding": "inplace",
        "label": "uint256[49]",
        "numberOfBytes": "1568"
      },
      "t_array(t_uint256)50_storage": {
        "base": "t_uint256",
        "encoding": "inplace",
        "label": "uint256[50]",
        "numberOfBytes": "1600"
      },
      "t_array(t_uint256)dyn_storage": {
        "base": "t_uint256",
        "encoding": "dynamic_array",
        "label": "uint256[]",
        "numberOfBytes": "32"
      },
      "t_bool": {
        "encoding": "inplace",
        "label": "bool",
        "numberOfBytes": "1"
      },
      "t_mapping(t_address,t_mapping(t_address,t_uint256))": {
        "encoding": "mapping",
        "key": "t_address",
        "label": "mapping(address => mapping(address => uint256))",
        "numberOfBytes": "32",
        "value": "t_mapping(t_address,t_uint256)"
      },
      "t_mapping(t_address,t_struct(Snapshots)2447_storage)": {
        "encoding": "mapping",
        "key": "t_address",
        "label": "mapping(address => struct Mining3.Snapshots)",
        "numberOfBytes": "32",
        "value": "t_struct(Snapshots)2447_storage"
      },
      "t_mapping(t_address,t_struct(Withdrawal)2427_storage)": {
        "encoding": "mapping",
        "key": "t_address",
        "label": "mapping(address => struct Mining3.Withdrawal)",
        "numberOfBytes": "32",
        "value": "t_struct(Withdrawal)2427_storage"
      },
      "t_mapping(t_address,t_uint256)": {
        "encoding": "mapping",
        "key": "t_address",
        "label": "mapping(address => uint256)",
        "numberOfBytes": "32",
        "value": "t_uint256"
      },
      "t_mapping(t_uint256,t_uint256)": {
        "encoding": "mapping",
        "key": "t_uint256",
        "label": "mapping(uint256 => uint256)",
        "numberOfBytes": "32",
        "value": "t_uint256"
      },
      "t_string_storage": {
        "encoding": "bytes",
        "label": "string",
        "numberOfBytes": "32"
      },
      "t_struct(Snapshots)2447_storage": {
        "encoding": "inplace",
        "label": "struct Mining3.Snapshots",
        "members": [
          {
            "astId": 2443,
            "contract": "contracts/mining3/Mining3.sol:Mining3",
            "label": "ids",
            "offset": 0,
            "slot": "0",
            "type": "t_array(t_uint256)dyn_storage"
          },
          {
            "astId": 2446,
            "contract": "contracts/mining3/Mining3.sol:Mining3",
            "label": "values",
            "offset": 0,
            "slot": "1",
            "type": "t_array(t_uint256)dyn_storage"
          }
        ],
        "numberOfBytes": "64"
      },
      "t_struct(Withdrawal)2427_storage": {
        "encoding": "inplace",
        "label": "struct Mining3.Withdrawal",
        "members": [
          {
            "astId": 2424,
            "contract": "contracts/mining3/Mining3.sol:Mining3",
            "label": "snapshotId",
            "offset": 0,
            "slot": "0",
            "type": "t_uint256"
          },
          {
            "astId": 2426,
            "contract": "contracts/mining3/Mining3.sol:Mining3",
            "label": "index",
            "offset": 0,
            "slot": "1",
            "type": "t_uint256"
          }
        ],
        "numberOfBytes": "64"
      },
      "t_uint256": {
        "encoding": "inplace",
        "label": "uint256",
        "numberOfBytes": "32"
      }
    }
  }
}