{
  "address": "0x910eda35202e75BC945DD138A172a292d757ED97",
  "abi": [
    {
      "anonymous": false,
      "inputs": [
        {
          "indexed": true,
          "internalType": "address",
          "name": "",
          "type": "address"
        },
        {
          "indexed": false,
          "internalType": "uint256[]",
          "name": "",
          "type": "uint256[]"
        },
        {
          "indexed": false,
          "internalType": "uint256[]",
          "name": "",
          "type": "uint256[]"
        }
      ],
      "name": "Redeem",
      "type": "event"
    },
    {
      "inputs": [
        {
          "internalType": "bytes",
          "name": "args",
          "type": "bytes"
        }
      ],
      "name": "__DiamondFallback_init",
      "outputs": [],
      "stateMutability": "nonpayable",
      "type": "function"
    },
    {
      "inputs": [],
      "name": "adjustDeposit",
      "outputs": [],
      "stateMutability": "nonpayable",
      "type": "function"
    },
    {
      "inputs": [
        {
          "internalType": "address",
          "name": "account",
          "type": "address"
        },
        {
          "internalType": "uint256[]",
          "name": "ids",
          "type": "uint256[]"
        }
      ],
      "name": "balanceOfBatch",
      "outputs": [
        {
          "internalType": "uint256[]",
          "name": "",
          "type": "uint256[]"
        }
      ],
      "stateMutability": "view",
      "type": "function"
    },
    {
      "inputs": [
        {
          "internalType": "address",
          "name": "account",
          "type": "address"
        }
      ],
      "name": "getAccountInfo",
      "outputs": [
        {
          "components": [
            {
              "internalType": "uint256",
              "name": "start",
              "type": "uint256"
            },
            {
              "internalType": "uint256",
              "name": "end",
              "type": "uint256"
            },
            {
              "internalType": "uint256",
              "name": "maxBalance",
              "type": "uint256"
            }
          ],
          "internalType": "struct Account",
          "name": "",
          "type": "tuple"
        }
      ],
      "stateMutability": "view",
      "type": "function"
    },
    {
      "inputs": [
        {
          "internalType": "address",
          "name": "",
          "type": "address"
        },
        {
          "internalType": "address",
          "name": "from",
          "type": "address"
        },
        {
          "internalType": "uint256[]",
          "name": "ids",
          "type": "uint256[]"
        },
        {
          "internalType": "uint256[]",
          "name": "amounts",
          "type": "uint256[]"
        },
        {
          "internalType": "bytes",
          "name": "data",
          "type": "bytes"
        }
      ],
      "name": "onERC1155BatchReceived",
      "outputs": [
        {
          "internalType": "bytes4",
          "name": "",
          "type": "bytes4"
        }
      ],
      "stateMutability": "nonpayable",
      "type": "function"
    },
    {
      "inputs": [
        {
          "internalType": "address",
          "name": "",
          "type": "address"
        },
        {
          "internalType": "address",
          "name": "",
          "type": "address"
        },
        {
          "internalType": "uint256",
          "name": "",
          "type": "uint256"
        },
        {
          "internalType": "uint256",
          "name": "",
          "type": "uint256"
        },
        {
          "internalType": "bytes",
          "name": "",
          "type": "bytes"
        }
      ],
      "name": "onERC1155Received",
      "outputs": [
        {
          "internalType": "bytes4",
          "name": "",
          "type": "bytes4"
        }
      ],
      "stateMutability": "pure",
      "type": "function"
    },
    {
      "inputs": [
        {
          "internalType": "uint256",
          "name": "end",
          "type": "uint256"
        }
      ],
      "name": "payoff",
      "outputs": [],
      "stateMutability": "nonpayable",
      "type": "function"
    },
    {
      "inputs": [
        {
          "internalType": "uint256[]",
          "name": "ids",
          "type": "uint256[]"
        },
        {
          "internalType": "uint256[]",
          "name": "amounts",
          "type": "uint256[]"
        }
      ],
      "name": "redeem",
      "outputs": [],
      "stateMutability": "nonpayable",
      "type": "function"
    },
    {
      "inputs": [
        {
          "internalType": "bytes4",
          "name": "interfaceId",
          "type": "bytes4"
        }
      ],
      "name": "supportsInterface",
      "outputs": [
        {
          "internalType": "bool",
          "name": "",
          "type": "bool"
        }
      ],
      "stateMutability": "view",
      "type": "function"
    }
  ],
  "transactionHash": "0x8b7330386284f4003b14fd18db17a4dbe983d412dc7968a3a6f86e75e6e2e9ba",
  "args": [],
  "numDeployments": 1,
  "solcInputHash": "d637bd8d1ce2a919cfd725418544daf7",
  "bytecode": "0x608060405234801561001057600080fd5b506133af806100206000396000f3fe608060405234801561001057600080fd5b50600436106100935760003560e01c80637fa084a2116100665780637fa084a214610130578063afd690861461014c578063bc197c811461017c578063c7b7f88a146101ac578063f23a6e61146101b657610093565b806301ffc9a7146100985780632ca51e22146100c85780636a148876146100e45780637b510fe814610100575b600080fd5b6100b260048036038101906100ad91906124d0565b6101e6565b6040516100bf9190612a2d565b60405180910390f35b6100e260048036038101906100dd9190612432565b610209565b005b6100fe60048036038101906100f991906124f9565b610724565b005b61011a6004803603810190610115919061219e565b610788565b6040516101279190612c05565b60405180910390f35b61014a6004803603810190610145919061253a565b610802565b005b610166600480360381019061016191906123da565b610b69565b6040516101739190612a0b565b60405180910390f35b6101966004803603810190610191919061227c565b610ce6565b6040516101a39190612a48565b60405180910390f35b6101b4611095565b005b6101d060048036038101906101cb9190612348565b6113db565b6040516101dd9190612a48565b60405180910390f35b6000610202826101f46113ed565b61141a90919063ffffffff16565b9050919050565b610211611485565b60000160009054906101000a900460ff1615610262576040517f08c379a000000000000000000000000000000000000000000000000000000000815260040161025990612b05565b60405180910390fd5b8181905084849050146102aa576040517f08c379a00000000000000000000000000000000000000000000000000000000081526004016102a190612b65565b60405180910390fd5b600080600001549050600080600601549050600080600090505b878790508110156105b55782888883818110610309577f4e487b7100000000000000000000000000000000000000000000000000000000600052603260045260246000fd5b905060200201351015610351576040517f08c379a000000000000000000000000000000000000000000000000000000000815260040161034890612a85565b60405180910390fd5b85858281811061038a577f4e487b7100000000000000000000000000000000000000000000000000000000600052603260045260246000fd5b905060200201358461039c9190612d79565b826103a79190612cf2565b915060008060090160008a8a858181106103ea577f4e487b7100000000000000000000000000000000000000000000000000000000600052603260045260246000fd5b90506020020135815260200190815260200160002060003373ffffffffffffffffffffffffffffffffffffffff1673ffffffffffffffffffffffffffffffffffffffff168152602001908152602001600020549050868683818110610478577f4e487b7100000000000000000000000000000000000000000000000000000000600052603260045260246000fd5b9050602002013581116104c0576040517f08c379a00000000000000000000000000000000000000000000000000000000081526004016104b790612aa5565b60405180910390fd5b8686838181106104f9577f4e487b7100000000000000000000000000000000000000000000000000000000600052603260045260246000fd5b905060200201358161050b9190612dd3565b600060090160008b8b8681811061054b577f4e487b7100000000000000000000000000000000000000000000000000000000600052603260045260246000fd5b90506020020135815260200190815260200160002060003373ffffffffffffffffffffffffffffffffffffffff1673ffffffffffffffffffffffffffffffffffffffff168152602001908152602001600020819055505080806105ad90612f00565b9150506102c4565b5061062d33600060040160009054906101000a900473ffffffffffffffffffffffffffffffffffffffff1683600060020160009054906101000a900473ffffffffffffffffffffffffffffffffffffffff1673ffffffffffffffffffffffffffffffffffffffff166114b2909392919063ffffffff16565b3373ffffffffffffffffffffffffffffffffffffffff167fd63285f33fab7fc260b1b9e7ce1abbf3fc8906df5a271e6ebd3062bdca7bb29e8888888860405161067994939291906129d0565b60405180910390a2600060030160009054906101000a900473ffffffffffffffffffffffffffffffffffffffff1673ffffffffffffffffffffffffffffffffffffffff16632eb2c2d630338a8a8a8a6040518763ffffffff1660e01b81526004016106e996959493929190612906565b600060405180830381600087803b15801561070357600080fd5b505af1158015610717573d6000803e3d6000fd5b5050505050505050505050565b61072c61153b565b60000160019054906101000a900460ff1661077c576040517f08c379a000000000000000000000000000000000000000000000000000000000815260040161077390612bc5565b60405180910390fd5b61078581611568565b50565b610790611fd9565b600060080160008373ffffffffffffffffffffffffffffffffffffffff1673ffffffffffffffffffffffffffffffffffffffff16815260200190815260200160002060405180606001604052908160008201548152602001600182015481526020016002820154815250509050919050565b61080a611485565b60000160009054906101000a900460ff161561085b576040517f08c379a000000000000000000000000000000000000000000000000000000000815260040161085290612b05565b60405180910390fd5b600080600061086933611785565b905060006006015484106108b2576040517f08c379a00000000000000000000000000000000000000000000000000000000081526004016108a990612b85565b60405180910390fd5b6000816000015190505b848111610a2957600080600901600083815260200190815260200160002060003373ffffffffffffffffffffffffffffffffffffffff1673ffffffffffffffffffffffffffffffffffffffff1681526020019081526020016000205490506000811115610a1557600080600701600084815260200190815260200160002060405180606001604052908160008201548152602001600182015481526020016002820154815250509050806000015182826020015161097a9190612d79565b6109849190612d48565b8661098f9190612cf2565b95506109ae8282604001516109a49190612d79565b8260000151611838565b856109b99190612cf2565b9450600080600901600085815260200190815260200160002060003373ffffffffffffffffffffffffffffffffffffffff1673ffffffffffffffffffffffffffffffffffffffff16815260200190815260200160002081905550505b508080610a2190612f00565b9150506108bc565b50600184610a379190612cf2565b600060080160003373ffffffffffffffffffffffffffffffffffffffff1673ffffffffffffffffffffffffffffffffffffffff16815260200190815260200160002060000181905550610af7600060040160009054906101000a900473ffffffffffffffffffffffffffffffffffffffff163384600060020160009054906101000a900473ffffffffffffffffffffffffffffffffffffffff1673ffffffffffffffffffffffffffffffffffffffff166114b2909392919063ffffffff16565b8160006005016000828254610b0c9190612cf2565b92505081905550610b633384600060010160009054906101000a900473ffffffffffffffffffffffffffffffffffffffff1673ffffffffffffffffffffffffffffffffffffffff166118709092919063ffffffff16565b50505050565b606060008383905067ffffffffffffffff811115610bb0577f4e487b7100000000000000000000000000000000000000000000000000000000600052604160045260246000fd5b604051908082528060200260200182016040528015610bde5781602001602082028036833780820191505090505b50905060005b84849050811015610cda5760006009016000868684818110610c2f577f4e487b7100000000000000000000000000000000000000000000000000000000600052603260045260246000fd5b90506020020135815260200190815260200160002060008773ffffffffffffffffffffffffffffffffffffffff1673ffffffffffffffffffffffffffffffffffffffff16815260200190815260200160002054828281518110610cbb577f4e487b7100000000000000000000000000000000000000000000000000000000600052603260045260246000fd5b6020026020010181815250508080610cd290612f00565b915050610be4565b50809150509392505050565b60008060030160009054906101000a900473ffffffffffffffffffffffffffffffffffffffff1673ffffffffffffffffffffffffffffffffffffffff163373ffffffffffffffffffffffffffffffffffffffff16148015610d735750600073ffffffffffffffffffffffffffffffffffffffff168873ffffffffffffffffffffffffffffffffffffffff16145b610db2576040517f08c379a0000000000000000000000000000000000000000000000000000000008152600401610da990612ac5565b60405180910390fd5b60008383810190610dc391906121f0565b90506000610dd082611785565b9050600060405180606001604052807fffffffffffffffffffffffffffffffffffffffffffffffffffffffffffffffff8152602001600081526020016000815250905060005b8a8a9050811015611070576000898983818110610e5c577f4e487b7100000000000000000000000000000000000000000000000000000000600052603260045260246000fd5b90506020020135600060090160008e8e86818110610ea3577f4e487b7100000000000000000000000000000000000000000000000000000000600052603260045260246000fd5b90506020020135815260200190815260200160002060008773ffffffffffffffffffffffffffffffffffffffff1673ffffffffffffffffffffffffffffffffffffffff16815260200190815260200160002054610f009190612cf2565b905080600060090160008e8e86818110610f43577f4e487b7100000000000000000000000000000000000000000000000000000000600052603260045260246000fd5b90506020020135815260200190815260200160002060008773ffffffffffffffffffffffffffffffffffffffff1673ffffffffffffffffffffffffffffffffffffffff16815260200190815260200160002081905550610fa78184604001516118f6565b836040018181525050610ffd8c8c84818110610fec577f4e487b7100000000000000000000000000000000000000000000000000000000600052603260045260246000fd5b90506020020135846000015161190f565b8360000181815250506110538c8c84818110611042577f4e487b7100000000000000000000000000000000000000000000000000000000600052603260045260246000fd5b9050602002013584602001516118f6565b83602001818152505050808061106890612f00565b915050610e16565b5061107c838383611928565b63bc197c8160e01b935050505098975050505050505050565b61109d611485565b60000160009054906101000a900460ff16156110ee576040517f08c379a00000000000000000000000000000000000000000000000000000000081526004016110e590612b05565b60405180910390fd5b60006110f933611785565b905060006006015481600001511015611147576040517f08c379a000000000000000000000000000000000000000000000000000000000815260040161113e90612b25565b60405180910390fd5b600081604001511161118e576040517f08c379a000000000000000000000000000000000000000000000000000000000815260040161118590612b45565b60405180910390fd5b600060405180606001604052808360000151815260200183602001518152602001600081525090505b60008060090160008360000151815260200190815260200160002060003373ffffffffffffffffffffffffffffffffffffffff1673ffffffffffffffffffffffffffffffffffffffff1681526020019081526020016000205414801561122557508060200151816000015111155b156112495760018160000181815161123d9190612cf2565b915081815250506111b7565b5b60008060090160008360200151815260200190815260200160002060003373ffffffffffffffffffffffffffffffffffffffff1673ffffffffffffffffffffffffffffffffffffffff168152602001908152602001600020541480156112b857508060000151816020015110155b156112dc576001816020018181516112d09190612dd3565b9150818152505061124a565b80602001518160000151111561133857611333338360405180606001604052807fffffffffffffffffffffffffffffffffffffffffffffffffffffffffffffffff8152602001600081526020016000815250611b5d565b6113d7565b6000816000015190505b816020015181116113ca576113ae82604001516000600901600084815260200190815260200160002060003373ffffffffffffffffffffffffffffffffffffffff1673ffffffffffffffffffffffffffffffffffffffff168152602001908152602001600020546118f6565b82604001818152505080806113c290612f00565b915050611342565b506113d6338383611b5d565b5b5050565b60008060e01b90509695505050505050565b6000807f326d0c59a7612f6a9919e2a8ee333c80ba689d8ba2634de89c85cbb04832e70590508091505090565b6000826000016000837bffffffffffffffffffffffffffffffffffffffffffffffffffffffff19167bffffffffffffffffffffffffffffffffffffffffffffffffffffffff1916815260200190815260200160002060009054906101000a900460ff16905092915050565b6000807f68721c0bbf2c02a4d65000340d1370666be06a630022208d4baa9bd7a4b6fea890508091505090565b611535846323b872dd60e01b8585856040516024016114d393929190612970565b604051602081830303815290604052907bffffffffffffffffffffffffffffffffffffffffffffffffffffffff19166020820180517bffffffffffffffffffffffffffffffffffffffffffffffffffffffff8381831617835250505050611d41565b50505050565b6000807f2ae1e818fc317b4c150084d41bf7468a28b0861c8b85a3e58e4bb4d5dbbc6aa190508091505090565b61157061153b565b60000160019054906101000a900460ff166115c0576040517f08c379a00000000000000000000000000000000000000000000000000000000081526004016115b790612bc5565b60405180910390fd5b600080600080848060200190518101906115da9190612219565b9350935093509350600084905080600060030160006101000a81548173ffffffffffffffffffffffffffffffffffffffff021916908373ffffffffffffffffffffffffffffffffffffffff1602179055508073ffffffffffffffffffffffffffffffffffffffff166369940d796040518163ffffffff1660e01b815260040160206040518083038186803b15801561167157600080fd5b505afa158015611685573d6000803e3d6000fd5b505050506040513d601f19601f820116820180604052508101906116a991906121c7565b600060010160006101000a81548173ffffffffffffffffffffffffffffffffffffffff021916908373ffffffffffffffffffffffffffffffffffffffff16021790555083600060020160006101000a81548173ffffffffffffffffffffffffffffffffffffffff021916908373ffffffffffffffffffffffffffffffffffffffff16021790555082600060040160006101000a81548173ffffffffffffffffffffffffffffffffffffffff021916908373ffffffffffffffffffffffffffffffffffffffff160217905550816000800181905550505050505050565b61178d611fd9565b600060080160008373ffffffffffffffffffffffffffffffffffffffff1673ffffffffffffffffffffffffffffffffffffffff1681526020019081526020016000206040518060600160405290816000820154815260200160018201548152602001600282015481525050905080600001517fffffffffffffffffffffffffffffffffffffffffffffffffffffffffffffffff61182a9190612dd3565b816000018181525050919050565b600081826001848661184a9190612cf2565b6118549190612dd3565b61185e9190612d48565b6118689190612d79565b905092915050565b6118f18363a9059cbb60e01b848460405160240161188f9291906129a7565b604051602081830303815290604052907bffffffffffffffffffffffffffffffffffffffffffffffffffffffff19166020820180517bffffffffffffffffffffffffffffffffffffffffffffffffffffffff8381831617835250505050611d41565b505050565b60008183116119055781611907565b825b905092915050565b600081831061191e5781611920565b825b905092915050565b8160000151816000015110156119c05780600001517fffffffffffffffffffffffffffffffffffffffffffffffffffffffffffffffff6119689190612dd3565b600060080160008573ffffffffffffffffffffffffffffffffffffffff1673ffffffffffffffffffffffffffffffffffffffff1681526020019081526020016000206000018190555080600001518260000181815250505b816020015181602001511115611a2d578060000151600060080160008573ffffffffffffffffffffffffffffffffffffffff1673ffffffffffffffffffffffffffffffffffffffff1681526020019081526020016000206000018190555080602001518260200181815250505b816040015181604001511115611b58578060400151600060080160008573ffffffffffffffffffffffffffffffffffffffff1673ffffffffffffffffffffffffffffffffffffffff1681526020019081526020016000206002018190555080604001518260400181815250506000611aa3611e08565b83604001518360400151611ab79190612dd3565b611ac19190612d79565b9050611b3a33600060040160009054906101000a900473ffffffffffffffffffffffffffffffffffffffff1683600060020160009054906101000a900473ffffffffffffffffffffffffffffffffffffffff1673ffffffffffffffffffffffffffffffffffffffff166114b2909392919063ffffffff16565b8060006005016000828254611b4f9190612cf2565b92505081905550505b505050565b816000015181600001511115611be75780600001517fffffffffffffffffffffffffffffffffffffffffffffffffffffffffffffffff611b9d9190612dd3565b600060080160008573ffffffffffffffffffffffffffffffffffffffff1673ffffffffffffffffffffffffffffffffffffffff168152602001908152602001600020600001819055505b816020015181602001511015611c46578060200151600060080160008573ffffffffffffffffffffffffffffffffffffffff1673ffffffffffffffffffffffffffffffffffffffff168152602001908152602001600020600101819055505b816040015181604001511015611d3c578060400151600060080160008573ffffffffffffffffffffffffffffffffffffffff1673ffffffffffffffffffffffffffffffffffffffff168152602001908152602001600020600201819055506000611cae611e08565b82604001518460400151611cc29190612dd3565b611ccc9190612d79565b9050611d1e8482600060020160009054906101000a900473ffffffffffffffffffffffffffffffffffffffff1673ffffffffffffffffffffffffffffffffffffffff166118709092919063ffffffff16565b8060006005016000828254611d339190612dd3565b92505081905550505b505050565b6000611da3826040518060400160405280602081526020017f5361666545524332303a206c6f772d6c6576656c2063616c6c206661696c65648152508573ffffffffffffffffffffffffffffffffffffffff16611e339092919063ffffffff16565b9050600081511115611e035780806020019051810190611dc391906124a7565b611e02576040517f08c379a0000000000000000000000000000000000000000000000000000000008152600401611df990612be5565b60405180910390fd5b5b505050565b60008060040160159054906101000a900460ff1660ff166000800154611e2e9190612d79565b905090565b6060611e428484600085611e4b565b90509392505050565b606082471015611e90576040517f08c379a0000000000000000000000000000000000000000000000000000000008152600401611e8790612ae5565b60405180910390fd5b611e9985611f5f565b611ed8576040517f08c379a0000000000000000000000000000000000000000000000000000000008152600401611ecf90612ba5565b60405180910390fd5b6000808673ffffffffffffffffffffffffffffffffffffffff168587604051611f0191906128ef565b60006040518083038185875af1925050503d8060008114611f3e576040519150601f19603f3d011682016040523d82523d6000602084013e611f43565b606091505b5091509150611f53828286611f72565b92505050949350505050565b600080823b905060008111915050919050565b60608315611f8257829050611fd2565b600083511115611f955782518084602001fd5b816040517f08c379a0000000000000000000000000000000000000000000000000000000008152600401611fc99190612a63565b60405180910390fd5b9392505050565b60405180606001604052806000815260200160008152602001600081525090565b600061200d61200884612c45565b612c20565b90508281526020810184848401111561202557600080fd5b612030848285612e8d565b509392505050565b60008135905061204781613306565b92915050565b60008151905061205c81613306565b92915050565b6000813590506120718161331d565b92915050565b6000815190506120868161331d565b92915050565b60008083601f84011261209e57600080fd5b8235905067ffffffffffffffff8111156120b757600080fd5b6020830191508360208202830111156120cf57600080fd5b9250929050565b6000815190506120e581613334565b92915050565b6000813590506120fa8161334b565b92915050565b60008083601f84011261211257600080fd5b8235905067ffffffffffffffff81111561212b57600080fd5b60208301915083600182028301111561214357600080fd5b9250929050565b600082601f83011261215b57600080fd5b813561216b848260208601611ffa565b91505092915050565b60008135905061218381613362565b92915050565b60008151905061219881613362565b92915050565b6000602082840312156121b057600080fd5b60006121be84828501612038565b91505092915050565b6000602082840312156121d957600080fd5b60006121e78482850161204d565b91505092915050565b60006020828403121561220257600080fd5b600061221084828501612062565b91505092915050565b6000806000806080858703121561222f57600080fd5b600061223d87828801612077565b945050602061224e87828801612077565b935050604061225f87828801612077565b925050606061227087828801612189565b91505092959194509250565b60008060008060008060008060a0898b03121561229857600080fd5b60006122a68b828c01612038565b98505060206122b78b828c01612038565b975050604089013567ffffffffffffffff8111156122d457600080fd5b6122e08b828c0161208c565b9650965050606089013567ffffffffffffffff8111156122ff57600080fd5b61230b8b828c0161208c565b9450945050608089013567ffffffffffffffff81111561232a57600080fd5b6123368b828c01612100565b92509250509295985092959890939650565b60008060008060008060a0878903121561236157600080fd5b600061236f89828a01612038565b965050602061238089828a01612038565b955050604061239189828a01612174565b94505060606123a289828a01612174565b935050608087013567ffffffffffffffff8111156123bf57600080fd5b6123cb89828a01612100565b92509250509295509295509295565b6000806000604084860312156123ef57600080fd5b60006123fd86828701612038565b935050602084013567ffffffffffffffff81111561241a57600080fd5b6124268682870161208c565b92509250509250925092565b6000806000806040858703121561244857600080fd5b600085013567ffffffffffffffff81111561246257600080fd5b61246e8782880161208c565b9450945050602085013567ffffffffffffffff81111561248d57600080fd5b6124998782880161208c565b925092505092959194509250565b6000602082840312156124b957600080fd5b60006124c7848285016120d6565b91505092915050565b6000602082840312156124e257600080fd5b60006124f0848285016120eb565b91505092915050565b60006020828403121561250b57600080fd5b600082013567ffffffffffffffff81111561252557600080fd5b6125318482850161214a565b91505092915050565b60006020828403121561254c57600080fd5b600061255a84828501612174565b91505092915050565b600061256f83836128d1565b60208301905092915050565b61258481612e07565b82525050565b60006125968385612cb4565b93507f07ffffffffffffffffffffffffffffffffffffffffffffffffffffffffffffff8311156125c557600080fd5b6020830292506125d6838584612e8d565b82840190509392505050565b60006125ed82612c86565b6125f78185612cb4565b935061260283612c76565b8060005b8381101561263357815161261a8882612563565b975061262583612ca7565b925050600181019050612606565b5085935050505092915050565b61264981612e2b565b82525050565b61265881612e37565b82525050565b600061266982612c91565b6126738185612cd6565b9350612683818560208601612e9c565b80840191505092915050565b600061269a82612c9c565b6126a48185612ce1565b93506126b4818560208601612e9c565b6126bd81612fd6565b840191505092915050565b60006126d5602183612ce1565b91506126e082612fe7565b604082019050919050565b60006126f8602283612ce1565b915061270382613036565b604082019050919050565b600061271b603683612ce1565b915061272682613085565b604082019050919050565b600061273e602683612ce1565b9150612749826130d4565b604082019050919050565b6000612761601083612ce1565b915061276c82613123565b602082019050919050565b6000612784601e83612ce1565b915061278f8261314c565b602082019050919050565b60006127a7601e83612ce1565b91506127b282613175565b602082019050919050565b60006127ca602283612ce1565b91506127d58261319e565b604082019050919050565b60006127ed602483612ce1565b91506127f8826131ed565b604082019050919050565b6000612810600083612cc5565b915061281b8261323c565b600082019050919050565b6000612833601d83612ce1565b915061283e8261323f565b602082019050919050565b6000612856602b83612ce1565b915061286182613268565b604082019050919050565b6000612879602a83612ce1565b9150612884826132b7565b604082019050919050565b6060820160008201516128a560008501826128d1565b5060208201516128b860208501826128d1565b5060408201516128cb60408501826128d1565b50505050565b6128da81612e83565b82525050565b6128e981612e83565b82525050565b60006128fb828461265e565b915081905092915050565b600060a08201905061291b600083018961257b565b612928602083018861257b565b818103604083015261293b81868861258a565b9050818103606083015261295081848661258a565b9050818103608083015261296381612803565b9050979650505050505050565b6000606082019050612985600083018661257b565b612992602083018561257b565b61299f60408301846128e0565b949350505050565b60006040820190506129bc600083018561257b565b6129c960208301846128e0565b9392505050565b600060408201905081810360008301526129eb81868861258a565b90508181036020830152612a0081848661258a565b905095945050505050565b60006020820190508181036000830152612a2581846125e2565b905092915050565b6000602082019050612a426000830184612640565b92915050565b6000602082019050612a5d600083018461264f565b92915050565b60006020820190508181036000830152612a7d818461268f565b905092915050565b60006020820190508181036000830152612a9e816126c8565b9050919050565b60006020820190508181036000830152612abe816126eb565b9050919050565b60006020820190508181036000830152612ade8161270e565b9050919050565b60006020820190508181036000830152612afe81612731565b9050919050565b60006020820190508181036000830152612b1e81612754565b9050919050565b60006020820190508181036000830152612b3e81612777565b9050919050565b60006020820190508181036000830152612b5e8161279a565b9050919050565b60006020820190508181036000830152612b7e816127bd565b9050919050565b60006020820190508181036000830152612b9e816127e0565b9050919050565b60006020820190508181036000830152612bbe81612826565b9050919050565b60006020820190508181036000830152612bde81612849565b9050919050565b60006020820190508181036000830152612bfe8161286c565b9050919050565b6000606082019050612c1a600083018461288f565b92915050565b6000612c2a612c3b565b9050612c368282612ecf565b919050565b6000604051905090565b600067ffffffffffffffff821115612c6057612c5f612fa7565b5b612c6982612fd6565b9050602081019050919050565b6000819050602082019050919050565b600081519050919050565b600081519050919050565b600081519050919050565b6000602082019050919050565b600082825260208201905092915050565b600082825260208201905092915050565b600081905092915050565b600082825260208201905092915050565b6000612cfd82612e83565b9150612d0883612e83565b9250827fffffffffffffffffffffffffffffffffffffffffffffffffffffffffffffffff03821115612d3d57612d3c612f49565b5b828201905092915050565b6000612d5382612e83565b9150612d5e83612e83565b925082612d6e57612d6d612f78565b5b828204905092915050565b6000612d8482612e83565b9150612d8f83612e83565b9250817fffffffffffffffffffffffffffffffffffffffffffffffffffffffffffffffff0483118215151615612dc857612dc7612f49565b5b828202905092915050565b6000612dde82612e83565b9150612de983612e83565b925082821015612dfc57612dfb612f49565b5b828203905092915050565b6000612e1282612e63565b9050919050565b6000612e2482612e63565b9050919050565b60008115159050919050565b60007fffffffff0000000000000000000000000000000000000000000000000000000082169050919050565b600073ffffffffffffffffffffffffffffffffffffffff82169050919050565b6000819050919050565b82818337600083830152505050565b60005b83811015612eba578082015181840152602081019050612e9f565b83811115612ec9576000848401525b50505050565b612ed882612fd6565b810181811067ffffffffffffffff82111715612ef757612ef6612fa7565b5b80604052505050565b6000612f0b82612e83565b91507fffffffffffffffffffffffffffffffffffffffffffffffffffffffffffffffff821415612f3e57612f3d612f49565b5b600182019050919050565b7f4e487b7100000000000000000000000000000000000000000000000000000000600052601160045260246000fd5b7f4e487b7100000000000000000000000000000000000000000000000000000000600052601260045260246000fd5b7f4e487b7100000000000000000000000000000000000000000000000000000000600052604160045260246000fd5b6000601f19601f8301169050919050565b7f44654d696e654167656e743a20746f6b656e206e6f742072656465656d61626c60008201527f6500000000000000000000000000000000000000000000000000000000000000602082015250565b7f44654d696e654167656e743a206e6f2073756666696369656e742062616c616e60008201527f6365000000000000000000000000000000000000000000000000000000000000602082015250565b7f44654d696e654167656e743a206f6e6c79206d696e74656420746f6b656e732060008201527f66726f6d2044654d696e654e465420616c6c6f77656400000000000000000000602082015250565b7f416464726573733a20696e73756666696369656e742062616c616e636520666f60008201527f722063616c6c0000000000000000000000000000000000000000000000000000602082015250565b7f5061757361626c653a2070617573656400000000000000000000000000000000600082015250565b7f44654d696e654167656e743a207061796f666620646562742066697273740000600082015250565b7f44654d696e654167656e743a206e6f206e65656420746f2061646a7573740000600082015250565b7f44654d696e654167656e743a206172726179206c656e677468206d69736d617460008201527f6368000000000000000000000000000000000000000000000000000000000000602082015250565b7f44654d696e654167656e743a20656e64206c6172676572207468616e2062696c60008201527f6c696e6700000000000000000000000000000000000000000000000000000000602082015250565b50565b7f416464726573733a2063616c6c20746f206e6f6e2d636f6e7472616374000000600082015250565b7f496e697469616c697a61626c653a20636f6e7472616374206973206e6f74206960008201527f6e697469616c697a696e67000000000000000000000000000000000000000000602082015250565b7f5361666545524332303a204552433230206f7065726174696f6e20646964206e60008201527f6f74207375636365656400000000000000000000000000000000000000000000602082015250565b61330f81612e07565b811461331a57600080fd5b50565b61332681612e19565b811461333157600080fd5b50565b61333d81612e2b565b811461334857600080fd5b50565b61335481612e37565b811461335f57600080fd5b50565b61336b81612e83565b811461337657600080fd5b5056fea2646970667358221220af619be4a4758cb79d65a67149da1648e6307f4a941c28eef66ec581f888db6764736f6c63430008040033",
  "devdoc": {
    "author": "Shu Dong",
    "details": "the contract also implements IERC1155Receiver to receive and lock demine nft",
    "kind": "dev",
    "methods": {
      "getAccountInfo(address)": {
        "params": {
          "account": "Address of account to query"
        }
      },
      "redeem(uint256[],uint256[])": {
        "params": {
          "amounts": "Amount of each demine nft token",
          "ids": "DeMine nft token ids to redeem"
        }
      },
      "supportsInterface(bytes4)": {
        "params": {
          "interfaceId": "interface id"
        },
        "returns": {
          "_0": "bool whether interface is supported"
        }
      }
    },
    "title": "MortgageFacet",
    "version": 1
  },
  "userdoc": {
    "kind": "user",
    "methods": {
      "adjustDeposit()": {
        "notice": "adjust deposit for msg sender and update account info         Ensure you have a valid start and end set for msg.sender         to prevent infinite loop"
      },
      "getAccountInfo(address)": {
        "notice": "get account info"
      },
      "payoff(uint256)": {
        "notice": "payoff debt from start to end. Ensure you have a         valid start set to prevent infinite loop"
      },
      "redeem(uint256[],uint256[])": {
        "notice": "Pay token cost and liquidize tokens"
      },
      "supportsInterface(bytes4)": {
        "notice": "query whether contract has registered support for given interface"
      }
    },
    "notice": "Facet contract holding functions for miners to manage mortgage.",
    "version": 1
  },
  "storageLayout": {
    "storage": [
      {
        "astId": 1886,
        "contract": "contracts/agent/facets/MortgageFacet.sol:MortgageFacet",
        "label": "s",
        "offset": 0,
        "slot": "0",
        "type": "t_struct(AppStorage)2970_storage"
      }
    ],
    "types": {
      "t_address": {
        "encoding": "inplace",
        "label": "address",
        "numberOfBytes": "20"
      },
      "t_bool": {
        "encoding": "inplace",
        "label": "bool",
        "numberOfBytes": "1"
      },
      "t_contract(IERC1155Rewardable)3043": {
        "encoding": "inplace",
        "label": "contract IERC1155Rewardable",
        "numberOfBytes": "20"
      },
      "t_contract(IERC20)126": {
        "encoding": "inplace",
        "label": "contract IERC20",
        "numberOfBytes": "20"
      },
      "t_mapping(t_address,t_mapping(t_address,t_mapping(t_uint256,t_uint256)))": {
        "encoding": "mapping",
        "key": "t_address",
        "label": "mapping(address => mapping(address => mapping(uint256 => uint256)))",
        "numberOfBytes": "32",
        "value": "t_mapping(t_address,t_mapping(t_uint256,t_uint256))"
      },
      "t_mapping(t_address,t_mapping(t_uint256,t_uint256))": {
        "encoding": "mapping",
        "key": "t_address",
        "label": "mapping(address => mapping(uint256 => uint256))",
        "numberOfBytes": "32",
        "value": "t_mapping(t_uint256,t_uint256)"
      },
      "t_mapping(t_address,t_struct(Account)2917_storage)": {
        "encoding": "mapping",
        "key": "t_address",
        "label": "mapping(address => struct Account)",
        "numberOfBytes": "32",
        "value": "t_struct(Account)2917_storage"
      },
      "t_mapping(t_address,t_uint256)": {
        "encoding": "mapping",
        "key": "t_address",
        "label": "mapping(address => uint256)",
        "numberOfBytes": "32",
        "value": "t_uint256"
      },
      "t_mapping(t_uint256,t_mapping(t_address,t_uint256))": {
        "encoding": "mapping",
        "key": "t_uint256",
        "label": "mapping(uint256 => mapping(address => uint256))",
        "numberOfBytes": "32",
        "value": "t_mapping(t_address,t_uint256)"
      },
      "t_mapping(t_uint256,t_struct(Statement)2924_storage)": {
        "encoding": "mapping",
        "key": "t_uint256",
        "label": "mapping(uint256 => struct Statement)",
        "numberOfBytes": "32",
        "value": "t_struct(Statement)2924_storage"
      },
      "t_mapping(t_uint256,t_uint256)": {
        "encoding": "mapping",
        "key": "t_uint256",
        "label": "mapping(uint256 => uint256)",
        "numberOfBytes": "32",
        "value": "t_uint256"
      },
      "t_struct(Account)2917_storage": {
        "encoding": "inplace",
        "label": "struct Account",
        "members": [
          {
            "astId": 2912,
            "contract": "contracts/agent/facets/MortgageFacet.sol:MortgageFacet",
            "label": "start",
            "offset": 0,
            "slot": "0",
            "type": "t_uint256"
          },
          {
            "astId": 2914,
            "contract": "contracts/agent/facets/MortgageFacet.sol:MortgageFacet",
            "label": "end",
            "offset": 0,
            "slot": "1",
            "type": "t_uint256"
          },
          {
            "astId": 2916,
            "contract": "contracts/agent/facets/MortgageFacet.sol:MortgageFacet",
            "label": "maxBalance",
            "offset": 0,
            "slot": "2",
            "type": "t_uint256"
          }
        ],
        "numberOfBytes": "96"
      },
      "t_struct(AppStorage)2970_storage": {
        "encoding": "inplace",
        "label": "struct AppStorage",
        "members": [
          {
            "astId": 2926,
            "contract": "contracts/agent/facets/MortgageFacet.sol:MortgageFacet",
            "label": "tokenCost",
            "offset": 0,
            "slot": "0",
            "type": "t_uint256"
          },
          {
            "astId": 2929,
            "contract": "contracts/agent/facets/MortgageFacet.sol:MortgageFacet",
            "label": "income",
            "offset": 0,
            "slot": "1",
            "type": "t_contract(IERC20)126"
          },
          {
            "astId": 2932,
            "contract": "contracts/agent/facets/MortgageFacet.sol:MortgageFacet",
            "label": "payment",
            "offset": 0,
            "slot": "2",
            "type": "t_contract(IERC20)126"
          },
          {
            "astId": 2935,
            "contract": "contracts/agent/facets/MortgageFacet.sol:MortgageFacet",
            "label": "nft",
            "offset": 0,
            "slot": "3",
            "type": "t_contract(IERC1155Rewardable)3043"
          },
          {
            "astId": 2937,
            "contract": "contracts/agent/facets/MortgageFacet.sol:MortgageFacet",
            "label": "payee",
            "offset": 0,
            "slot": "4",
            "type": "t_address"
          },
          {
            "astId": 2939,
            "contract": "contracts/agent/facets/MortgageFacet.sol:MortgageFacet",
            "label": "initialized",
            "offset": 20,
            "slot": "4",
            "type": "t_bool"
          },
          {
            "astId": 2941,
            "contract": "contracts/agent/facets/MortgageFacet.sol:MortgageFacet",
            "label": "depositMultiplier",
            "offset": 21,
            "slot": "4",
            "type": "t_uint8"
          },
          {
            "astId": 2943,
            "contract": "contracts/agent/facets/MortgageFacet.sol:MortgageFacet",
            "label": "deposit",
            "offset": 0,
            "slot": "5",
            "type": "t_uint256"
          },
          {
            "astId": 2945,
            "contract": "contracts/agent/facets/MortgageFacet.sol:MortgageFacet",
            "label": "billing",
            "offset": 0,
            "slot": "6",
            "type": "t_uint256"
          },
          {
            "astId": 2950,
            "contract": "contracts/agent/facets/MortgageFacet.sol:MortgageFacet",
            "label": "statements",
            "offset": 0,
            "slot": "7",
            "type": "t_mapping(t_uint256,t_struct(Statement)2924_storage)"
          },
          {
            "astId": 2955,
            "contract": "contracts/agent/facets/MortgageFacet.sol:MortgageFacet",
            "label": "accounts",
            "offset": 0,
            "slot": "8",
            "type": "t_mapping(t_address,t_struct(Account)2917_storage)"
          },
          {
            "astId": 2961,
            "contract": "contracts/agent/facets/MortgageFacet.sol:MortgageFacet",
            "label": "balances",
            "offset": 0,
            "slot": "9",
            "type": "t_mapping(t_uint256,t_mapping(t_address,t_uint256))"
          },
          {
            "astId": 2969,
            "contract": "contracts/agent/facets/MortgageFacet.sol:MortgageFacet",
            "label": "allowances",
            "offset": 0,
            "slot": "10",
            "type": "t_mapping(t_address,t_mapping(t_address,t_mapping(t_uint256,t_uint256)))"
          }
        ],
        "numberOfBytes": "352"
      },
      "t_struct(Statement)2924_storage": {
        "encoding": "inplace",
        "label": "struct Statement",
        "members": [
          {
            "astId": 2919,
            "contract": "contracts/agent/facets/MortgageFacet.sol:MortgageFacet",
            "label": "balance",
            "offset": 0,
            "slot": "0",
            "type": "t_uint256"
          },
          {
            "astId": 2921,
            "contract": "contracts/agent/facets/MortgageFacet.sol:MortgageFacet",
            "label": "income",
            "offset": 0,
            "slot": "1",
            "type": "t_uint256"
          },
          {
            "astId": 2923,
            "contract": "contracts/agent/facets/MortgageFacet.sol:MortgageFacet",
            "label": "debt",
            "offset": 0,
            "slot": "2",
            "type": "t_uint256"
          }
        ],
        "numberOfBytes": "96"
      },
      "t_uint256": {
        "encoding": "inplace",
        "label": "uint256",
        "numberOfBytes": "32"
      },
      "t_uint8": {
        "encoding": "inplace",
        "label": "uint8",
        "numberOfBytes": "1"
      }
    }
  }
}