{
  "address": "0x1D2832923e0dA8E476F74D3C760A556730c1db40",
  "abi": [
    {
      "inputs": [
        {
          "internalType": "address",
          "name": "account",
          "type": "address"
        },
        {
          "internalType": "uint256[]",
          "name": "ids",
          "type": "uint256[]"
        }
      ],
      "name": "balanceOfBatch",
      "outputs": [
        {
          "internalType": "uint256[]",
          "name": "",
          "type": "uint256[]"
        }
      ],
      "stateMutability": "view",
      "type": "function"
    },
    {
      "inputs": [
        {
          "internalType": "uint256[]",
          "name": "tokenIds",
          "type": "uint256[]"
        }
      ],
      "name": "billingStatementOfBatch",
      "outputs": [
        {
          "components": [
            {
              "internalType": "uint256",
              "name": "balance",
              "type": "uint256"
            },
            {
              "internalType": "uint256",
              "name": "surplus",
              "type": "uint256"
            },
            {
              "internalType": "uint256",
              "name": "debt",
              "type": "uint256"
            }
          ],
          "internalType": "struct BillingStatement[]",
          "name": "",
          "type": "tuple[]"
        }
      ],
      "stateMutability": "view",
      "type": "function"
    },
    {
      "inputs": [],
      "name": "getTokenCost",
      "outputs": [
        {
          "internalType": "uint256",
          "name": "",
          "type": "uint256"
        }
      ],
      "stateMutability": "view",
      "type": "function"
    },
    {
      "inputs": [
        {
          "internalType": "address",
          "name": "nft",
          "type": "address"
        },
        {
          "internalType": "address",
          "name": "paymentToken",
          "type": "address"
        },
        {
          "internalType": "address",
          "name": "custodian",
          "type": "address"
        },
        {
          "internalType": "uint256",
          "name": "tokenCost",
          "type": "uint256"
        },
        {
          "internalType": "address[]",
          "name": "pricingStrategies",
          "type": "address[]"
        },
        {
          "internalType": "address[]",
          "name": "allowanceStrategies",
          "type": "address[]"
        }
      ],
      "name": "init",
      "outputs": [],
      "stateMutability": "nonpayable",
      "type": "function"
    },
    {
      "inputs": [
        {
          "internalType": "address",
          "name": "",
          "type": "address"
        },
        {
          "internalType": "address",
          "name": "from",
          "type": "address"
        },
        {
          "internalType": "uint256[]",
          "name": "ids",
          "type": "uint256[]"
        },
        {
          "internalType": "uint256[]",
          "name": "amounts",
          "type": "uint256[]"
        },
        {
          "internalType": "bytes",
          "name": "data",
          "type": "bytes"
        }
      ],
      "name": "onERC1155BatchReceived",
      "outputs": [
        {
          "internalType": "bytes4",
          "name": "",
          "type": "bytes4"
        }
      ],
      "stateMutability": "nonpayable",
      "type": "function"
    },
    {
      "inputs": [
        {
          "internalType": "address",
          "name": "",
          "type": "address"
        },
        {
          "internalType": "address",
          "name": "",
          "type": "address"
        },
        {
          "internalType": "uint256",
          "name": "",
          "type": "uint256"
        },
        {
          "internalType": "uint256",
          "name": "",
          "type": "uint256"
        },
        {
          "internalType": "bytes",
          "name": "",
          "type": "bytes"
        }
      ],
      "name": "onERC1155Received",
      "outputs": [
        {
          "internalType": "bytes4",
          "name": "",
          "type": "bytes4"
        }
      ],
      "stateMutability": "pure",
      "type": "function"
    },
    {
      "inputs": [
        {
          "internalType": "uint256[]",
          "name": "ids",
          "type": "uint256[]"
        },
        {
          "internalType": "uint256[]",
          "name": "amounts",
          "type": "uint256[]"
        }
      ],
      "name": "redeemNFT",
      "outputs": [],
      "stateMutability": "nonpayable",
      "type": "function"
    },
    {
      "inputs": [
        {
          "internalType": "bytes4",
          "name": "interfaceId",
          "type": "bytes4"
        }
      ],
      "name": "supportsInterface",
      "outputs": [
        {
          "internalType": "bool",
          "name": "",
          "type": "bool"
        }
      ],
      "stateMutability": "view",
      "type": "function"
    },
    {
      "inputs": [
        {
          "internalType": "uint256[]",
          "name": "ids",
          "type": "uint256[]"
        }
      ],
      "name": "withdrawAndPayoff",
      "outputs": [],
      "stateMutability": "nonpayable",
      "type": "function"
    }
  ],
  "transactionHash": "0x931b5ebc1ab33dbccff0bc4a493a7f0a67a185aeee90ce9acc3726165b9bba32",
  "args": [],
  "numDeployments": 2,
  "solcInputHash": "e9a72363d7129de323877828de5d2608",
  "bytecode": "0x608060405234801561001057600080fd5b50612833806100206000396000f3fe608060405234801561001057600080fd5b50600436106100935760003560e01c8063bc197c8111610066578063bc197c8114610146578063e1a1bdc814610176578063e7da56cc14610192578063f057b6e5146101ae578063f23a6e61146101ca57610093565b806301ffc9a714610098578063887b8913146100c85780639d362920146100e6578063afd6908614610116575b600080fd5b6100b260048036038101906100ad9190611590565b6101fa565b6040516100bf91906115d8565b60405180910390f35b6100d061021d565b6040516100dd919061160c565b60405180910390f35b61010060048036038101906100fb919061168c565b610229565b60405161010d91906117d9565b60405180910390f35b610130600480360381019061012b9190611859565b610328565b60405161013d9190611968565b60405180910390f35b610160600480360381019061015b91906119e0565b610433565b60405161016d9190611acb565b60405180910390f35b610190600480360381019061018b9190611b68565b610688565b005b6101ac60048036038101906101a79190611c37565b61090f565b005b6101c860048036038101906101c3919061168c565b610cce565b005b6101e460048036038101906101df9190611cb8565b611030565b6040516101f19190611acb565b60405180910390f35b600061021682610208611042565b61106f90919063ffffffff16565b9050919050565b60008060000154905090565b606060008383905067ffffffffffffffff81111561024a57610249611d52565b5b60405190808252806020026020018201604052801561028357816020015b61027061150d565b8152602001906001900390816102685790505b50905060005b8484905081101561031d57600060070160008686848181106102ae576102ad611d81565b5b90506020020135815260200190815260200160002060405180606001604052908160008201548152602001600182015481526020016002820154815250508282815181106102ff576102fe611d81565b5b6020026020010181905250808061031590611ddf565b915050610289565b508091505092915050565b606060008383905067ffffffffffffffff81111561034957610348611d52565b5b6040519080825280602002602001820160405280156103775781602001602082028036833780820191505090505b50905060005b8484905081101561042757600060060160008686848181106103a2576103a1611d81565b5b90506020020135815260200190815260200160002060008773ffffffffffffffffffffffffffffffffffffffff1673ffffffffffffffffffffffffffffffffffffffff1681526020019081526020016000205482828151811061040857610407611d81565b5b602002602001018181525050808061041f90611ddf565b91505061037d565b50809150509392505050565b60008060010160009054906101000a900473ffffffffffffffffffffffffffffffffffffffff1673ffffffffffffffffffffffffffffffffffffffff1663375b74c36040518163ffffffff1660e01b8152600401602060405180830381865afa1580156104a4573d6000803e3d6000fd5b505050506040513d601f19601f820116820180604052508101906104c89190611e3d565b73ffffffffffffffffffffffffffffffffffffffff168873ffffffffffffffffffffffffffffffffffffffff1614610535576040517f08c379a000000000000000000000000000000000000000000000000000000000815260040161052c90611eed565b60405180910390fd5b600083838101906105469190611f4b565b905060005b8888905081101561067057600087878381811061056b5761056a611d81565b5b90506020020135600060060160008c8c8681811061058c5761058b611d81565b5b90506020020135815260200190815260200160002060008573ffffffffffffffffffffffffffffffffffffffff1673ffffffffffffffffffffffffffffffffffffffff168152602001908152602001600020546105e99190611f78565b905080600060060160008c8c8681811061060657610605611d81565b5b90506020020135815260200190815260200160002060008573ffffffffffffffffffffffffffffffffffffffff1673ffffffffffffffffffffffffffffffffffffffff1681526020019081526020016000208190555050808061066890611ddf565b91505061054b565b5063bc197c8160e01b91505098975050505050505050565b6106906110da565b60000160019054906101000a900460ff166106e0576040517f08c379a00000000000000000000000000000000000000000000000000000000081526004016106d790612040565b60405180910390fd5b600088905080600060010160006101000a81548173ffffffffffffffffffffffffffffffffffffffff021916908373ffffffffffffffffffffffffffffffffffffffff16021790555087600060030160006101000a81548173ffffffffffffffffffffffffffffffffffffffff021916908373ffffffffffffffffffffffffffffffffffffffff16021790555086600060040160006101000a81548173ffffffffffffffffffffffffffffffffffffffff021916908373ffffffffffffffffffffffffffffffffffffffff16021790555085600080018190555060005b8585905081101561085e5760016000600b0160008888858181106107e4576107e3611d81565b5b90506020020160208101906107f99190612060565b73ffffffffffffffffffffffffffffffffffffffff1673ffffffffffffffffffffffffffffffffffffffff16815260200190815260200160002060006101000a81548160ff021916908360ff160217905550808061085690611ddf565b9150506107bd565b5060005b838390508110156109035760026000600b01600086868581811061088957610888611d81565b5b905060200201602081019061089e9190612060565b73ffffffffffffffffffffffffffffffffffffffff1673ffffffffffffffffffffffffffffffffffffffff16815260200190815260200160002060006101000a81548160ff021916908360ff16021790555080806108fb90611ddf565b915050610862565b50505050505050505050565b610917611107565b60000160009054906101000a900460ff1615610968576040517f08c379a000000000000000000000000000000000000000000000000000000000815260040161095f906120d9565b60405180910390fd5b8181905084849050146109b0576040517f08c379a00000000000000000000000000000000000000000000000000000000081526004016109a79061216b565b60405180910390fd5b600080600001549050600080600090505b86869050811015610baa576109ee8787838181106109e2576109e1611d81565b5b90506020020135611134565b858583818110610a0157610a00611d81565b5b9050602002013584610a13919061218b565b610a1d919061218b565b82610a289190611f78565b91506000806006016000898985818110610a4557610a44611d81565b5b90506020020135815260200190815260200160002060003373ffffffffffffffffffffffffffffffffffffffff1673ffffffffffffffffffffffffffffffffffffffff168152602001908152602001600020549050600081118015610ac25750858583818110610ab857610ab7611d81565b5b9050602002013581115b610b01576040517f08c379a0000000000000000000000000000000000000000000000000000000008152600401610af890612257565b60405180910390fd5b858583818110610b1457610b13611d81565b5b9050602002013581610b269190612277565b600060060160008a8a86818110610b4057610b3f611d81565b5b90506020020135815260200190815260200160002060003373ffffffffffffffffffffffffffffffffffffffff1673ffffffffffffffffffffffffffffffffffffffff16815260200190815260200160002081905550508080610ba290611ddf565b9150506109c1565b506000811115610c2c57610c2b33600060040160009054906101000a900473ffffffffffffffffffffffffffffffffffffffff1683600060030160009054906101000a900473ffffffffffffffffffffffffffffffffffffffff1673ffffffffffffffffffffffffffffffffffffffff16611179909392919063ffffffff16565b5b600060010160009054906101000a900473ffffffffffffffffffffffffffffffffffffffff1673ffffffffffffffffffffffffffffffffffffffff16632eb2c2d63033898989896040518763ffffffff1660e01b8152600401610c9496959493929190612361565b600060405180830381600087803b158015610cae57600080fd5b505af1158015610cc2573d6000803e3d6000fd5b50505050505050505050565b610cd6611107565b60000160009054906101000a900460ff1615610d27576040517f08c379a0000000000000000000000000000000000000000000000000000000008152600401610d1e906120d9565b60405180910390fd5b60008060005b84849050811015610ee0576000806007016000878785818110610d5357610d52611d81565b5b905060200201358152602001908152602001600020604051806060016040529081600082015481526020016001820154815260200160028201548152505090506000806006016000888886818110610dae57610dad611d81565b5b90506020020135815260200190815260200160002060003373ffffffffffffffffffffffffffffffffffffffff1673ffffffffffffffffffffffffffffffffffffffff1681526020019081526020016000205490508160000151818360200151610e18919061218b565b610e2291906123fa565b85610e2d9190611f78565b94508160000151818360400151610e44919061218b565b610e4e91906123fa565b84610e599190611f78565b935060006006016000888886818110610e7557610e74611d81565b5b90506020020135815260200190815260200160002060003373ffffffffffffffffffffffffffffffffffffffff1673ffffffffffffffffffffffffffffffffffffffff1681526020019081526020016000206000905550508080610ed890611ddf565b915050610d2d565b506000811115610f6257610f61600060040160009054906101000a900473ffffffffffffffffffffffffffffffffffffffff163383600060030160009054906101000a900473ffffffffffffffffffffffffffffffffffffffff1673ffffffffffffffffffffffffffffffffffffffff16611179909392919063ffffffff16565b5b600082111561102a576110293383600060010160009054906101000a900473ffffffffffffffffffffffffffffffffffffffff1673ffffffffffffffffffffffffffffffffffffffff16637fe205c76040518163ffffffff1660e01b8152600401602060405180830381865afa158015610fe0573d6000803e3d6000fd5b505050506040513d601f19601f820116820180604052508101906110049190611e3d565b73ffffffffffffffffffffffffffffffffffffffff166112029092919063ffffffff16565b5b50505050565b60008060e01b90509695505050505050565b6000807f326d0c59a7612f6a9919e2a8ee333c80ba689d8ba2634de89c85cbb04832e70590508091505090565b6000826000016000837bffffffffffffffffffffffffffffffffffffffffffffffffffffffff19167bffffffffffffffffffffffffffffffffffffffffffffffffffffffff1916815260200190815260200160002060009054906101000a900460ff16905092915050565b6000807f2ae1e818fc317b4c150084d41bf7468a28b0861c8b85a3e58e4bb4d5dbbc6aa190508091505090565b6000807f68721c0bbf2c02a4d65000340d1370666be06a630022208d4baa9bd7a4b6fea890508091505090565b60006201518061114383611288565b61114c84611296565b6111569190612447565b611160919061247b565b6fffffffffffffffffffffffffffffffff169050919050565b6111fc846323b872dd60e01b85858560405160240161119a939291906124ac565b604051602081830303815290604052907bffffffffffffffffffffffffffffffffffffffffffffffffffffffff19166020820180517bffffffffffffffffffffffffffffffffffffffffffffffffffffffff83818316178352505050506112a0565b50505050565b6112838363a9059cbb60e01b84846040516024016112219291906124e3565b604051602081830303815290604052907bffffffffffffffffffffffffffffffffffffffffffffffffffffffff19166020820180517bffffffffffffffffffffffffffffffffffffffffffffffffffffffff83818316178352505050506112a0565b505050565b6000608082901c9050919050565b6000819050919050565b6000611302826040518060400160405280602081526020017f5361666545524332303a206c6f772d6c6576656c2063616c6c206661696c65648152508573ffffffffffffffffffffffffffffffffffffffff166113679092919063ffffffff16565b905060008151111561136257808060200190518101906113229190612538565b611361576040517f08c379a0000000000000000000000000000000000000000000000000000000008152600401611358906125d7565b60405180910390fd5b5b505050565b6060611376848460008561137f565b90509392505050565b6060824710156113c4576040517f08c379a00000000000000000000000000000000000000000000000000000000081526004016113bb90612669565b60405180910390fd5b6113cd85611493565b61140c576040517f08c379a0000000000000000000000000000000000000000000000000000000008152600401611403906126d5565b60405180910390fd5b6000808673ffffffffffffffffffffffffffffffffffffffff168587604051611435919061276f565b60006040518083038185875af1925050503d8060008114611472576040519150601f19603f3d011682016040523d82523d6000602084013e611477565b606091505b50915091506114878282866114a6565b92505050949350505050565b600080823b905060008111915050919050565b606083156114b657829050611506565b6000835111156114c95782518084602001fd5b816040517f08c379a00000000000000000000000000000000000000000000000000000000081526004016114fd91906127db565b60405180910390fd5b9392505050565b60405180606001604052806000815260200160008152602001600081525090565b600080fd5b600080fd5b60007fffffffff0000000000000000000000000000000000000000000000000000000082169050919050565b61156d81611538565b811461157857600080fd5b50565b60008135905061158a81611564565b92915050565b6000602082840312156115a6576115a561152e565b5b60006115b48482850161157b565b91505092915050565b60008115159050919050565b6115d2816115bd565b82525050565b60006020820190506115ed60008301846115c9565b92915050565b6000819050919050565b611606816115f3565b82525050565b600060208201905061162160008301846115fd565b92915050565b600080fd5b600080fd5b600080fd5b60008083601f84011261164c5761164b611627565b5b8235905067ffffffffffffffff8111156116695761166861162c565b5b60208301915083602082028301111561168557611684611631565b5b9250929050565b600080602083850312156116a3576116a261152e565b5b600083013567ffffffffffffffff8111156116c1576116c0611533565b5b6116cd85828601611636565b92509250509250929050565b600081519050919050565b600082825260208201905092915050565b6000819050602082019050919050565b61170e816115f3565b82525050565b60608201600082015161172a6000850182611705565b50602082015161173d6020850182611705565b5060408201516117506040850182611705565b50505050565b60006117628383611714565b60608301905092915050565b6000602082019050919050565b6000611786826116d9565b61179081856116e4565b935061179b836116f5565b8060005b838110156117cc5781516117b38882611756565b97506117be8361176e565b92505060018101905061179f565b5085935050505092915050565b600060208201905081810360008301526117f3818461177b565b905092915050565b600073ffffffffffffffffffffffffffffffffffffffff82169050919050565b6000611826826117fb565b9050919050565b6118368161181b565b811461184157600080fd5b50565b6000813590506118538161182d565b92915050565b6000806000604084860312156118725761187161152e565b5b600061188086828701611844565b935050602084013567ffffffffffffffff8111156118a1576118a0611533565b5b6118ad86828701611636565b92509250509250925092565b600081519050919050565b600082825260208201905092915050565b6000819050602082019050919050565b60006118f18383611705565b60208301905092915050565b6000602082019050919050565b6000611915826118b9565b61191f81856118c4565b935061192a836118d5565b8060005b8381101561195b57815161194288826118e5565b975061194d836118fd565b92505060018101905061192e565b5085935050505092915050565b60006020820190508181036000830152611982818461190a565b905092915050565b60008083601f8401126119a05761199f611627565b5b8235905067ffffffffffffffff8111156119bd576119bc61162c565b5b6020830191508360018202830111156119d9576119d8611631565b5b9250929050565b60008060008060008060008060a0898b031215611a00576119ff61152e565b5b6000611a0e8b828c01611844565b9850506020611a1f8b828c01611844565b975050604089013567ffffffffffffffff811115611a4057611a3f611533565b5b611a4c8b828c01611636565b9650965050606089013567ffffffffffffffff811115611a6f57611a6e611533565b5b611a7b8b828c01611636565b9450945050608089013567ffffffffffffffff811115611a9e57611a9d611533565b5b611aaa8b828c0161198a565b92509250509295985092959890939650565b611ac581611538565b82525050565b6000602082019050611ae06000830184611abc565b92915050565b611aef816115f3565b8114611afa57600080fd5b50565b600081359050611b0c81611ae6565b92915050565b60008083601f840112611b2857611b27611627565b5b8235905067ffffffffffffffff811115611b4557611b4461162c565b5b602083019150836020820283011115611b6157611b60611631565b5b9250929050565b60008060008060008060008060c0898b031215611b8857611b8761152e565b5b6000611b968b828c01611844565b9850506020611ba78b828c01611844565b9750506040611bb88b828c01611844565b9650506060611bc98b828c01611afd565b955050608089013567ffffffffffffffff811115611bea57611be9611533565b5b611bf68b828c01611b12565b945094505060a089013567ffffffffffffffff811115611c1957611c18611533565b5b611c258b828c01611b12565b92509250509295985092959890939650565b60008060008060408587031215611c5157611c5061152e565b5b600085013567ffffffffffffffff811115611c6f57611c6e611533565b5b611c7b87828801611636565b9450945050602085013567ffffffffffffffff811115611c9e57611c9d611533565b5b611caa87828801611636565b925092505092959194509250565b60008060008060008060a08789031215611cd557611cd461152e565b5b6000611ce389828a01611844565b9650506020611cf489828a01611844565b9550506040611d0589828a01611afd565b9450506060611d1689828a01611afd565b935050608087013567ffffffffffffffff811115611d3757611d36611533565b5b611d4389828a0161198a565b92509250509295509295509295565b7f4e487b7100000000000000000000000000000000000000000000000000000000600052604160045260246000fd5b7f4e487b7100000000000000000000000000000000000000000000000000000000600052603260045260246000fd5b7f4e487b7100000000000000000000000000000000000000000000000000000000600052601160045260246000fd5b6000611dea826115f3565b91507fffffffffffffffffffffffffffffffffffffffffffffffffffffffffffffffff821415611e1d57611e1c611db0565b5b600182019050919050565b600081519050611e378161182d565b92915050565b600060208284031215611e5357611e5261152e565b5b6000611e6184828501611e28565b91505092915050565b600082825260208201905092915050565b7f44654d696e654167656e743a206f6e6c7920746f6b656e732066726f6d20637560008201527f73746f6469616e20616c6c6f7765640000000000000000000000000000000000602082015250565b6000611ed7602f83611e6a565b9150611ee282611e7b565b604082019050919050565b60006020820190508181036000830152611f0681611eca565b9050919050565b6000611f18826117fb565b9050919050565b611f2881611f0d565b8114611f3357600080fd5b50565b600081359050611f4581611f1f565b92915050565b600060208284031215611f6157611f6061152e565b5b6000611f6f84828501611f36565b91505092915050565b6000611f83826115f3565b9150611f8e836115f3565b9250827fffffffffffffffffffffffffffffffffffffffffffffffffffffffffffffffff03821115611fc357611fc2611db0565b5b828201905092915050565b7f496e697469616c697a61626c653a20636f6e7472616374206973206e6f74206960008201527f6e697469616c697a696e67000000000000000000000000000000000000000000602082015250565b600061202a602b83611e6a565b915061203582611fce565b604082019050919050565b600060208201905081810360008301526120598161201d565b9050919050565b6000602082840312156120765761207561152e565b5b600061208484828501611844565b91505092915050565b7f5061757361626c653a2070617573656400000000000000000000000000000000600082015250565b60006120c3601083611e6a565b91506120ce8261208d565b602082019050919050565b600060208201905081810360008301526120f2816120b6565b9050919050565b7f44654d696e654167656e743a206172726179206c656e677468206d69736d617460008201527f6368000000000000000000000000000000000000000000000000000000000000602082015250565b6000612155602283611e6a565b9150612160826120f9565b604082019050919050565b6000602082019050818103600083015261218481612148565b9050919050565b6000612196826115f3565b91506121a1836115f3565b9250817fffffffffffffffffffffffffffffffffffffffffffffffffffffffffffffffff04831182151516156121da576121d9611db0565b5b828202905092915050565b7f44654d696e654167656e743a206e6f2073756666696369656e742062616c616e60008201527f6365000000000000000000000000000000000000000000000000000000000000602082015250565b6000612241602283611e6a565b915061224c826121e5565b604082019050919050565b6000602082019050818103600083015261227081612234565b9050919050565b6000612282826115f3565b915061228d836115f3565b9250828210156122a05761229f611db0565b5b828203905092915050565b6122b48161181b565b82525050565b600080fd5b82818337600083830152505050565b60006122da83856118c4565b93507f07ffffffffffffffffffffffffffffffffffffffffffffffffffffffffffffff83111561230d5761230c6122ba565b5b60208302925061231e8385846122bf565b82840190509392505050565b600082825260208201905092915050565b50565b600061234b60008361232a565b91506123568261233b565b600082019050919050565b600060a08201905061237660008301896122ab565b61238360208301886122ab565b81810360408301526123968186886122ce565b905081810360608301526123ab8184866122ce565b905081810360808301526123be8161233e565b9050979650505050505050565b7f4e487b7100000000000000000000000000000000000000000000000000000000600052601260045260246000fd5b6000612405826115f3565b9150612410836115f3565b9250826124205761241f6123cb565b5b828204905092915050565b60006fffffffffffffffffffffffffffffffff82169050919050565b60006124528261242b565b915061245d8361242b565b9250828210156124705761246f611db0565b5b828203905092915050565b60006124868261242b565b91506124918361242b565b9250826124a1576124a06123cb565b5b828204905092915050565b60006060820190506124c160008301866122ab565b6124ce60208301856122ab565b6124db60408301846115fd565b949350505050565b60006040820190506124f860008301856122ab565b61250560208301846115fd565b9392505050565b612515816115bd565b811461252057600080fd5b50565b6000815190506125328161250c565b92915050565b60006020828403121561254e5761254d61152e565b5b600061255c84828501612523565b91505092915050565b7f5361666545524332303a204552433230206f7065726174696f6e20646964206e60008201527f6f74207375636365656400000000000000000000000000000000000000000000602082015250565b60006125c1602a83611e6a565b91506125cc82612565565b604082019050919050565b600060208201905081810360008301526125f0816125b4565b9050919050565b7f416464726573733a20696e73756666696369656e742062616c616e636520666f60008201527f722063616c6c0000000000000000000000000000000000000000000000000000602082015250565b6000612653602683611e6a565b915061265e826125f7565b604082019050919050565b6000602082019050818103600083015261268281612646565b9050919050565b7f416464726573733a2063616c6c20746f206e6f6e2d636f6e7472616374000000600082015250565b60006126bf601d83611e6a565b91506126ca82612689565b602082019050919050565b600060208201905081810360008301526126ee816126b2565b9050919050565b600081519050919050565b600081905092915050565b60005b8381101561272957808201518184015260208101905061270e565b83811115612738576000848401525b50505050565b6000612749826126f5565b6127538185612700565b935061276381856020860161270b565b80840191505092915050565b600061277b828461273e565b915081905092915050565b600081519050919050565b6000601f19601f8301169050919050565b60006127ad82612786565b6127b78185611e6a565b93506127c781856020860161270b565b6127d081612791565b840191505092915050565b600060208201905081810360008301526127f581846127a2565b90509291505056fea2646970667358221220656d4d2f026ebadcdd3418ffd61ce7fd41d4e85d17a3837071fac6f61b07f55164736f6c634300080b0033",
  "devdoc": {
    "author": "Shu Dong, Yijie Hong",
    "details": "the contract also implements IERC1155Receiver to receive and lock demine nft",
    "kind": "dev",
    "methods": {
      "redeemNFT(uint256[],uint256[])": {
        "params": {
          "amounts": "Amount of each demine nft token",
          "ids": "DeMine nft token ids to redeem"
        }
      },
      "supportsInterface(bytes4)": {
        "params": {
          "interfaceId": "interface id"
        },
        "returns": {
          "_0": "bool whether interface is supported"
        }
      }
    },
    "title": "MortgageFacet",
    "version": 1
  },
  "userdoc": {
    "kind": "user",
    "methods": {
      "redeemNFT(uint256[],uint256[])": {
        "notice": "Pay token cost and liquidize tokens"
      },
      "supportsInterface(bytes4)": {
        "notice": "query whether contract has registered support for given interface"
      },
      "withdrawAndPayoff(uint256[])": {
        "notice": "Withdraw surplus or payoff debt for NFT tokens that have been billed.         All balances of ids need to be paid off or withdrawn. Partial payoff         or withdraw is not supported."
      }
    },
    "notice": "Facet contract holding functions for miners to manage mortgage.Facet contract currently only supports weekly NFT token.",
    "version": 1
  },
  "storageLayout": {
    "storage": [
      {
        "astId": 2017,
        "contract": "contracts/agent/facets/MortgageFacet.sol:MortgageFacet",
        "label": "s",
        "offset": 0,
        "slot": "0",
        "type": "t_struct(AppStorage)3431_storage"
      }
    ],
    "types": {
      "t_address": {
        "encoding": "inplace",
        "label": "address",
        "numberOfBytes": "20"
      },
      "t_contract(AggregatorV3Interface)45": {
        "encoding": "inplace",
        "label": "contract AggregatorV3Interface",
        "numberOfBytes": "20"
      },
      "t_contract(IERC1155Rewardable)3890": {
        "encoding": "inplace",
        "label": "contract IERC1155Rewardable",
        "numberOfBytes": "20"
      },
      "t_mapping(t_address,t_mapping(t_uint8,t_address))": {
        "encoding": "mapping",
        "key": "t_address",
        "label": "mapping(address => mapping(uint8 => address))",
        "numberOfBytes": "32",
        "value": "t_mapping(t_uint8,t_address)"
      },
      "t_mapping(t_address,t_uint256)": {
        "encoding": "mapping",
        "key": "t_address",
        "label": "mapping(address => uint256)",
        "numberOfBytes": "32",
        "value": "t_uint256"
      },
      "t_mapping(t_address,t_uint8)": {
        "encoding": "mapping",
        "key": "t_address",
        "label": "mapping(address => uint8)",
        "numberOfBytes": "32",
        "value": "t_uint8"
      },
      "t_mapping(t_uint256,t_mapping(t_address,t_uint256))": {
        "encoding": "mapping",
        "key": "t_uint256",
        "label": "mapping(uint256 => mapping(address => uint256))",
        "numberOfBytes": "32",
        "value": "t_mapping(t_address,t_uint256)"
      },
      "t_mapping(t_uint256,t_struct(BillingStatement)3383_storage)": {
        "encoding": "mapping",
        "key": "t_uint256",
        "label": "mapping(uint256 => struct BillingStatement)",
        "numberOfBytes": "32",
        "value": "t_struct(BillingStatement)3383_storage"
      },
      "t_mapping(t_uint256,t_uint256)": {
        "encoding": "mapping",
        "key": "t_uint256",
        "label": "mapping(uint256 => uint256)",
        "numberOfBytes": "32",
        "value": "t_uint256"
      },
      "t_mapping(t_uint8,t_address)": {
        "encoding": "mapping",
        "key": "t_uint8",
        "label": "mapping(uint8 => address)",
        "numberOfBytes": "32",
        "value": "t_address"
      },
      "t_struct(AppStorage)3431_storage": {
        "encoding": "inplace",
        "label": "struct AppStorage",
        "members": [
          {
            "astId": 3385,
            "contract": "contracts/agent/facets/MortgageFacet.sol:MortgageFacet",
            "label": "tokenCost",
            "offset": 0,
            "slot": "0",
            "type": "t_uint256"
          },
          {
            "astId": 3388,
            "contract": "contracts/agent/facets/MortgageFacet.sol:MortgageFacet",
            "label": "nft",
            "offset": 0,
            "slot": "1",
            "type": "t_contract(IERC1155Rewardable)3890"
          },
          {
            "astId": 3390,
            "contract": "contracts/agent/facets/MortgageFacet.sol:MortgageFacet",
            "label": "incomeToken",
            "offset": 0,
            "slot": "2",
            "type": "t_address"
          },
          {
            "astId": 3392,
            "contract": "contracts/agent/facets/MortgageFacet.sol:MortgageFacet",
            "label": "paymentToken",
            "offset": 0,
            "slot": "3",
            "type": "t_address"
          },
          {
            "astId": 3394,
            "contract": "contracts/agent/facets/MortgageFacet.sol:MortgageFacet",
            "label": "custodian",
            "offset": 0,
            "slot": "4",
            "type": "t_address"
          },
          {
            "astId": 3396,
            "contract": "contracts/agent/facets/MortgageFacet.sol:MortgageFacet",
            "label": "royaltyBps",
            "offset": 20,
            "slot": "4",
            "type": "t_uint16"
          },
          {
            "astId": 3398,
            "contract": "contracts/agent/facets/MortgageFacet.sol:MortgageFacet",
            "label": "royaltyCap",
            "offset": 0,
            "slot": "5",
            "type": "t_uint256"
          },
          {
            "astId": 3404,
            "contract": "contracts/agent/facets/MortgageFacet.sol:MortgageFacet",
            "label": "balances",
            "offset": 0,
            "slot": "6",
            "type": "t_mapping(t_uint256,t_mapping(t_address,t_uint256))"
          },
          {
            "astId": 3409,
            "contract": "contracts/agent/facets/MortgageFacet.sol:MortgageFacet",
            "label": "statements",
            "offset": 0,
            "slot": "7",
            "type": "t_mapping(t_uint256,t_struct(BillingStatement)3383_storage)"
          },
          {
            "astId": 3412,
            "contract": "contracts/agent/facets/MortgageFacet.sol:MortgageFacet",
            "label": "chainlink",
            "offset": 0,
            "slot": "8",
            "type": "t_contract(AggregatorV3Interface)45"
          },
          {
            "astId": 3414,
            "contract": "contracts/agent/facets/MortgageFacet.sol:MortgageFacet",
            "label": "swapRouter",
            "offset": 0,
            "slot": "9",
            "type": "t_address"
          },
          {
            "astId": 3416,
            "contract": "contracts/agent/facets/MortgageFacet.sol:MortgageFacet",
            "label": "earningTokenSaleDiscount10000Based",
            "offset": 20,
            "slot": "9",
            "type": "t_uint16"
          },
          {
            "astId": 3420,
            "contract": "contracts/agent/facets/MortgageFacet.sol:MortgageFacet",
            "label": "lockedUntil",
            "offset": 0,
            "slot": "10",
            "type": "t_mapping(t_uint256,t_uint256)"
          },
          {
            "astId": 3424,
            "contract": "contracts/agent/facets/MortgageFacet.sol:MortgageFacet",
            "label": "strategyRegistry",
            "offset": 0,
            "slot": "11",
            "type": "t_mapping(t_address,t_uint8)"
          },
          {
            "astId": 3430,
            "contract": "contracts/agent/facets/MortgageFacet.sol:MortgageFacet",
            "label": "strategies",
            "offset": 0,
            "slot": "12",
            "type": "t_mapping(t_address,t_mapping(t_uint8,t_address))"
          }
        ],
        "numberOfBytes": "416"
      },
      "t_struct(BillingStatement)3383_storage": {
        "encoding": "inplace",
        "label": "struct BillingStatement",
        "members": [
          {
            "astId": 3378,
            "contract": "contracts/agent/facets/MortgageFacet.sol:MortgageFacet",
            "label": "balance",
            "offset": 0,
            "slot": "0",
            "type": "t_uint256"
          },
          {
            "astId": 3380,
            "contract": "contracts/agent/facets/MortgageFacet.sol:MortgageFacet",
            "label": "surplus",
            "offset": 0,
            "slot": "1",
            "type": "t_uint256"
          },
          {
            "astId": 3382,
            "contract": "contracts/agent/facets/MortgageFacet.sol:MortgageFacet",
            "label": "debt",
            "offset": 0,
            "slot": "2",
            "type": "t_uint256"
          }
        ],
        "numberOfBytes": "96"
      },
      "t_uint16": {
        "encoding": "inplace",
        "label": "uint16",
        "numberOfBytes": "2"
      },
      "t_uint256": {
        "encoding": "inplace",
        "label": "uint256",
        "numberOfBytes": "32"
      },
      "t_uint8": {
        "encoding": "inplace",
        "label": "uint8",
        "numberOfBytes": "1"
      }
    }
  }
}