{
  "address": "0xb3280BB2fF7Bf4F5a05f0A45921c473fE484988a",
  "abi": [
    {
      "inputs": [
        {
          "internalType": "address",
          "name": "account",
          "type": "address"
        },
        {
          "internalType": "uint256[]",
          "name": "ids",
          "type": "uint256[]"
        }
      ],
      "name": "balanceOfBatch",
      "outputs": [
        {
          "internalType": "uint256[]",
          "name": "",
          "type": "uint256[]"
        }
      ],
      "stateMutability": "view",
      "type": "function"
    },
    {
      "inputs": [
        {
          "internalType": "uint256[]",
          "name": "tokenIds",
          "type": "uint256[]"
        }
      ],
      "name": "billingStatementOfBatch",
      "outputs": [
        {
          "components": [
            {
              "internalType": "uint256",
              "name": "balance",
              "type": "uint256"
            },
            {
              "internalType": "uint256",
              "name": "surplus",
              "type": "uint256"
            },
            {
              "internalType": "uint256",
              "name": "debt",
              "type": "uint256"
            }
          ],
          "internalType": "struct BillingStatement[]",
          "name": "",
          "type": "tuple[]"
        }
      ],
      "stateMutability": "view",
      "type": "function"
    },
    {
      "inputs": [],
      "name": "custodian",
      "outputs": [
        {
          "internalType": "address",
          "name": "",
          "type": "address"
        }
      ],
      "stateMutability": "view",
      "type": "function"
    },
    {
      "inputs": [],
      "name": "getTokenCost",
      "outputs": [
        {
          "internalType": "uint256",
          "name": "",
          "type": "uint256"
        }
      ],
      "stateMutability": "view",
      "type": "function"
    },
    {
      "inputs": [
        {
          "internalType": "address",
          "name": "nftAddr",
          "type": "address"
        },
        {
          "internalType": "address",
          "name": "paymentTokenAddr",
          "type": "address"
        },
        {
          "internalType": "address",
          "name": "custodianAddr",
          "type": "address"
        },
        {
          "internalType": "uint256",
          "name": "costPerToken",
          "type": "uint256"
        }
      ],
      "name": "init",
      "outputs": [],
      "stateMutability": "nonpayable",
      "type": "function"
    },
    {
      "inputs": [],
      "name": "nft",
      "outputs": [
        {
          "internalType": "address",
          "name": "",
          "type": "address"
        }
      ],
      "stateMutability": "view",
      "type": "function"
    },
    {
      "inputs": [
        {
          "internalType": "address",
          "name": "",
          "type": "address"
        },
        {
          "internalType": "address",
          "name": "from",
          "type": "address"
        },
        {
          "internalType": "uint256[]",
          "name": "ids",
          "type": "uint256[]"
        },
        {
          "internalType": "uint256[]",
          "name": "amounts",
          "type": "uint256[]"
        },
        {
          "internalType": "bytes",
          "name": "data",
          "type": "bytes"
        }
      ],
      "name": "onERC1155BatchReceived",
      "outputs": [
        {
          "internalType": "bytes4",
          "name": "",
          "type": "bytes4"
        }
      ],
      "stateMutability": "nonpayable",
      "type": "function"
    },
    {
      "inputs": [
        {
          "internalType": "address",
          "name": "",
          "type": "address"
        },
        {
          "internalType": "address",
          "name": "",
          "type": "address"
        },
        {
          "internalType": "uint256",
          "name": "",
          "type": "uint256"
        },
        {
          "internalType": "uint256",
          "name": "",
          "type": "uint256"
        },
        {
          "internalType": "bytes",
          "name": "",
          "type": "bytes"
        }
      ],
      "name": "onERC1155Received",
      "outputs": [
        {
          "internalType": "bytes4",
          "name": "",
          "type": "bytes4"
        }
      ],
      "stateMutability": "pure",
      "type": "function"
    },
    {
      "inputs": [],
      "name": "paymentToken",
      "outputs": [
        {
          "internalType": "address",
          "name": "",
          "type": "address"
        }
      ],
      "stateMutability": "view",
      "type": "function"
    },
    {
      "inputs": [
        {
          "internalType": "uint256[]",
          "name": "ids",
          "type": "uint256[]"
        },
        {
          "internalType": "uint256[]",
          "name": "amounts",
          "type": "uint256[]"
        }
      ],
      "name": "redeemNFT",
      "outputs": [],
      "stateMutability": "nonpayable",
      "type": "function"
    },
    {
      "inputs": [
        {
          "internalType": "bytes4",
          "name": "interfaceId",
          "type": "bytes4"
        }
      ],
      "name": "supportsInterface",
      "outputs": [
        {
          "internalType": "bool",
          "name": "",
          "type": "bool"
        }
      ],
      "stateMutability": "view",
      "type": "function"
    },
    {
      "inputs": [],
      "name": "tokenCost",
      "outputs": [
        {
          "internalType": "uint256",
          "name": "",
          "type": "uint256"
        }
      ],
      "stateMutability": "view",
      "type": "function"
    },
    {
      "inputs": [
        {
          "internalType": "uint256[]",
          "name": "ids",
          "type": "uint256[]"
        }
      ],
      "name": "withdrawAndPayoff",
      "outputs": [],
      "stateMutability": "nonpayable",
      "type": "function"
    }
  ],
  "transactionHash": "0x495a3c6932e376b924cf979fbb303fe95bbd5c0cec5b1a8ad82b4e1e45ee1f8c",
  "args": [],
  "numDeployments": 3,
  "solcInputHash": "7eb2b0fc510e8a394e64a23d0ea364e7",
  "bytecode": "0x608060405234801561001057600080fd5b50612759806100206000396000f3fe608060405234801561001057600080fd5b50600436106100cf5760003560e01c8063912221d51161008c578063bc197c8111610066578063bc197c8114610216578063e7da56cc14610246578063f057b6e514610262578063f23a6e611461027e576100cf565b8063912221d5146101985780639d362920146101b6578063afd69086146101e6576100cf565b806301ffc9a7146100d45780633013ce2914610104578063375b74c31461012257806346639dba1461014057806347ccca021461015c578063887b89131461017a575b600080fd5b6100ee60048036038101906100e99190611586565b6102ae565b6040516100fb91906115ce565b60405180910390f35b61010c6102d1565b604051610119919061162a565b60405180910390f35b61012a6102fd565b604051610137919061162a565b60405180910390f35b61015a600480360381019061015591906116a7565b610329565b005b610164610462565b604051610171919061162a565b60405180910390f35b61018261048e565b60405161018f919061171d565b60405180910390f35b6101a061049a565b6040516101ad919061171d565b60405180910390f35b6101d060048036038101906101cb919061179d565b6104a6565b6040516101dd91906118ea565b60405180910390f35b61020060048036038101906101fb919061190c565b6105a5565b60405161020d9190611a1b565b60405180910390f35b610230600480360381019061022b9190611a93565b6106b0565b60405161023d9190611b7e565b60405180910390f35b610260600480360381019061025b9190611b99565b610905565b005b61027c6004803603810190610277919061179d565b610cc4565b005b61029860048036038101906102939190611c1a565b611026565b6040516102a59190611b7e565b60405180910390f35b60006102ca826102bc611038565b61106590919063ffffffff16565b9050919050565b60008060020160009054906101000a900473ffffffffffffffffffffffffffffffffffffffff16905090565b60008060030160009054906101000a900473ffffffffffffffffffffffffffffffffffffffff16905090565b6103316110d0565b60000160019054906101000a900460ff16610381576040517f08c379a000000000000000000000000000000000000000000000000000000000815260040161037890611d37565b60405180910390fd5b600084905080600060010160006101000a81548173ffffffffffffffffffffffffffffffffffffffff021916908373ffffffffffffffffffffffffffffffffffffffff16021790555083600060020160006101000a81548173ffffffffffffffffffffffffffffffffffffffff021916908373ffffffffffffffffffffffffffffffffffffffff16021790555082600060030160006101000a81548173ffffffffffffffffffffffffffffffffffffffff021916908373ffffffffffffffffffffffffffffffffffffffff1602179055508160008001819055505050505050565b60008060010160009054906101000a900473ffffffffffffffffffffffffffffffffffffffff16905090565b60008060000154905090565b60008060000154905090565b606060008383905067ffffffffffffffff8111156104c7576104c6611d57565b5b60405190808252806020026020018201604052801561050057816020015b6104ed611503565b8152602001906001900390816104e55790505b50905060005b8484905081101561059a576000600601600086868481811061052b5761052a611d86565b5b905060200201358152602001908152602001600020604051806060016040529081600082015481526020016001820154815260200160028201548152505082828151811061057c5761057b611d86565b5b6020026020010181905250808061059290611de4565b915050610506565b508091505092915050565b606060008383905067ffffffffffffffff8111156105c6576105c5611d57565b5b6040519080825280602002602001820160405280156105f45781602001602082028036833780820191505090505b50905060005b848490508110156106a4576000600501600086868481811061061f5761061e611d86565b5b90506020020135815260200190815260200160002060008773ffffffffffffffffffffffffffffffffffffffff1673ffffffffffffffffffffffffffffffffffffffff1681526020019081526020016000205482828151811061068557610684611d86565b5b602002602001018181525050808061069c90611de4565b9150506105fa565b50809150509392505050565b60008060010160009054906101000a900473ffffffffffffffffffffffffffffffffffffffff1673ffffffffffffffffffffffffffffffffffffffff1663375b74c36040518163ffffffff1660e01b8152600401602060405180830381865afa158015610721573d6000803e3d6000fd5b505050506040513d601f19601f820116820180604052508101906107459190611e42565b73ffffffffffffffffffffffffffffffffffffffff168873ffffffffffffffffffffffffffffffffffffffff16146107b2576040517f08c379a00000000000000000000000000000000000000000000000000000000081526004016107a990611ee1565b60405180910390fd5b600083838101906107c39190611f3f565b905060005b888890508110156108ed5760008787838181106107e8576107e7611d86565b5b90506020020135600060050160008c8c8681811061080957610808611d86565b5b90506020020135815260200190815260200160002060008573ffffffffffffffffffffffffffffffffffffffff1673ffffffffffffffffffffffffffffffffffffffff168152602001908152602001600020546108669190611f6c565b905080600060050160008c8c8681811061088357610882611d86565b5b90506020020135815260200190815260200160002060008573ffffffffffffffffffffffffffffffffffffffff1673ffffffffffffffffffffffffffffffffffffffff168152602001908152602001600020819055505080806108e590611de4565b9150506107c8565b5063bc197c8160e01b91505098975050505050505050565b61090d6110fd565b60000160009054906101000a900460ff161561095e576040517f08c379a00000000000000000000000000000000000000000000000000000000081526004016109559061200e565b60405180910390fd5b8181905084849050146109a6576040517f08c379a000000000000000000000000000000000000000000000000000000000815260040161099d906120a0565b60405180910390fd5b600080600001549050600080600090505b86869050811015610ba0576109e48787838181106109d8576109d7611d86565b5b9050602002013561112a565b8585838181106109f7576109f6611d86565b5b9050602002013584610a0991906120c0565b610a1391906120c0565b82610a1e9190611f6c565b91506000806005016000898985818110610a3b57610a3a611d86565b5b90506020020135815260200190815260200160002060003373ffffffffffffffffffffffffffffffffffffffff1673ffffffffffffffffffffffffffffffffffffffff168152602001908152602001600020549050600081118015610ab85750858583818110610aae57610aad611d86565b5b9050602002013581115b610af7576040517f08c379a0000000000000000000000000000000000000000000000000000000008152600401610aee9061218c565b60405180910390fd5b858583818110610b0a57610b09611d86565b5b9050602002013581610b1c91906121ac565b600060050160008a8a86818110610b3657610b35611d86565b5b90506020020135815260200190815260200160002060003373ffffffffffffffffffffffffffffffffffffffff1673ffffffffffffffffffffffffffffffffffffffff16815260200190815260200160002081905550508080610b9890611de4565b9150506109b7565b506000811115610c2257610c2133600060030160009054906101000a900473ffffffffffffffffffffffffffffffffffffffff1683600060020160009054906101000a900473ffffffffffffffffffffffffffffffffffffffff1673ffffffffffffffffffffffffffffffffffffffff1661116f909392919063ffffffff16565b5b600060010160009054906101000a900473ffffffffffffffffffffffffffffffffffffffff1673ffffffffffffffffffffffffffffffffffffffff16632eb2c2d63033898989896040518763ffffffff1660e01b8152600401610c8a96959493929190612287565b600060405180830381600087803b158015610ca457600080fd5b505af1158015610cb8573d6000803e3d6000fd5b50505050505050505050565b610ccc6110fd565b60000160009054906101000a900460ff1615610d1d576040517f08c379a0000000000000000000000000000000000000000000000000000000008152600401610d149061200e565b60405180910390fd5b60008060005b84849050811015610ed6576000806006016000878785818110610d4957610d48611d86565b5b905060200201358152602001908152602001600020604051806060016040529081600082015481526020016001820154815260200160028201548152505090506000806005016000888886818110610da457610da3611d86565b5b90506020020135815260200190815260200160002060003373ffffffffffffffffffffffffffffffffffffffff1673ffffffffffffffffffffffffffffffffffffffff1681526020019081526020016000205490508160000151818360200151610e0e91906120c0565b610e189190612320565b85610e239190611f6c565b94508160000151818360400151610e3a91906120c0565b610e449190612320565b84610e4f9190611f6c565b935060006005016000888886818110610e6b57610e6a611d86565b5b90506020020135815260200190815260200160002060003373ffffffffffffffffffffffffffffffffffffffff1673ffffffffffffffffffffffffffffffffffffffff1681526020019081526020016000206000905550508080610ece90611de4565b915050610d23565b506000811115610f5857610f57600060030160009054906101000a900473ffffffffffffffffffffffffffffffffffffffff163383600060020160009054906101000a900473ffffffffffffffffffffffffffffffffffffffff1673ffffffffffffffffffffffffffffffffffffffff1661116f909392919063ffffffff16565b5b60008211156110205761101f3383600060010160009054906101000a900473ffffffffffffffffffffffffffffffffffffffff1673ffffffffffffffffffffffffffffffffffffffff16637fe205c76040518163ffffffff1660e01b8152600401602060405180830381865afa158015610fd6573d6000803e3d6000fd5b505050506040513d601f19601f82011682018060405250810190610ffa9190611e42565b73ffffffffffffffffffffffffffffffffffffffff166111f89092919063ffffffff16565b5b50505050565b60008060e01b90509695505050505050565b6000807f326d0c59a7612f6a9919e2a8ee333c80ba689d8ba2634de89c85cbb04832e70590508091505090565b6000826000016000837bffffffffffffffffffffffffffffffffffffffffffffffffffffffff19167bffffffffffffffffffffffffffffffffffffffffffffffffffffffff1916815260200190815260200160002060009054906101000a900460ff16905092915050565b6000807f2ae1e818fc317b4c150084d41bf7468a28b0861c8b85a3e58e4bb4d5dbbc6aa190508091505090565b6000807f68721c0bbf2c02a4d65000340d1370666be06a630022208d4baa9bd7a4b6fea890508091505090565b6000620151806111398361127e565b6111428461128c565b61114c919061236d565b61115691906123a1565b6fffffffffffffffffffffffffffffffff169050919050565b6111f2846323b872dd60e01b858585604051602401611190939291906123d2565b604051602081830303815290604052907bffffffffffffffffffffffffffffffffffffffffffffffffffffffff19166020820180517bffffffffffffffffffffffffffffffffffffffffffffffffffffffff8381831617835250505050611296565b50505050565b6112798363a9059cbb60e01b8484604051602401611217929190612409565b604051602081830303815290604052907bffffffffffffffffffffffffffffffffffffffffffffffffffffffff19166020820180517bffffffffffffffffffffffffffffffffffffffffffffffffffffffff8381831617835250505050611296565b505050565b6000608082901c9050919050565b6000819050919050565b60006112f8826040518060400160405280602081526020017f5361666545524332303a206c6f772d6c6576656c2063616c6c206661696c65648152508573ffffffffffffffffffffffffffffffffffffffff1661135d9092919063ffffffff16565b90506000815111156113585780806020019051810190611318919061245e565b611357576040517f08c379a000000000000000000000000000000000000000000000000000000000815260040161134e906124fd565b60405180910390fd5b5b505050565b606061136c8484600085611375565b90509392505050565b6060824710156113ba576040517f08c379a00000000000000000000000000000000000000000000000000000000081526004016113b19061258f565b60405180910390fd5b6113c385611489565b611402576040517f08c379a00000000000000000000000000000000000000000000000000000000081526004016113f9906125fb565b60405180910390fd5b6000808673ffffffffffffffffffffffffffffffffffffffff16858760405161142b9190612695565b60006040518083038185875af1925050503d8060008114611468576040519150601f19603f3d011682016040523d82523d6000602084013e61146d565b606091505b509150915061147d82828661149c565b92505050949350505050565b600080823b905060008111915050919050565b606083156114ac578290506114fc565b6000835111156114bf5782518084602001fd5b816040517f08c379a00000000000000000000000000000000000000000000000000000000081526004016114f39190612701565b60405180910390fd5b9392505050565b60405180606001604052806000815260200160008152602001600081525090565b600080fd5b600080fd5b60007fffffffff0000000000000000000000000000000000000000000000000000000082169050919050565b6115638161152e565b811461156e57600080fd5b50565b6000813590506115808161155a565b92915050565b60006020828403121561159c5761159b611524565b5b60006115aa84828501611571565b91505092915050565b60008115159050919050565b6115c8816115b3565b82525050565b60006020820190506115e360008301846115bf565b92915050565b600073ffffffffffffffffffffffffffffffffffffffff82169050919050565b6000611614826115e9565b9050919050565b61162481611609565b82525050565b600060208201905061163f600083018461161b565b92915050565b61164e81611609565b811461165957600080fd5b50565b60008135905061166b81611645565b92915050565b6000819050919050565b61168481611671565b811461168f57600080fd5b50565b6000813590506116a18161167b565b92915050565b600080600080608085870312156116c1576116c0611524565b5b60006116cf8782880161165c565b94505060206116e08782880161165c565b93505060406116f18782880161165c565b925050606061170287828801611692565b91505092959194509250565b61171781611671565b82525050565b6000602082019050611732600083018461170e565b92915050565b600080fd5b600080fd5b600080fd5b60008083601f84011261175d5761175c611738565b5b8235905067ffffffffffffffff81111561177a5761177961173d565b5b60208301915083602082028301111561179657611795611742565b5b9250929050565b600080602083850312156117b4576117b3611524565b5b600083013567ffffffffffffffff8111156117d2576117d1611529565b5b6117de85828601611747565b92509250509250929050565b600081519050919050565b600082825260208201905092915050565b6000819050602082019050919050565b61181f81611671565b82525050565b60608201600082015161183b6000850182611816565b50602082015161184e6020850182611816565b5060408201516118616040850182611816565b50505050565b60006118738383611825565b60608301905092915050565b6000602082019050919050565b6000611897826117ea565b6118a181856117f5565b93506118ac83611806565b8060005b838110156118dd5781516118c48882611867565b97506118cf8361187f565b9250506001810190506118b0565b5085935050505092915050565b60006020820190508181036000830152611904818461188c565b905092915050565b60008060006040848603121561192557611924611524565b5b60006119338682870161165c565b935050602084013567ffffffffffffffff81111561195457611953611529565b5b61196086828701611747565b92509250509250925092565b600081519050919050565b600082825260208201905092915050565b6000819050602082019050919050565b60006119a48383611816565b60208301905092915050565b6000602082019050919050565b60006119c88261196c565b6119d28185611977565b93506119dd83611988565b8060005b83811015611a0e5781516119f58882611998565b9750611a00836119b0565b9250506001810190506119e1565b5085935050505092915050565b60006020820190508181036000830152611a3581846119bd565b905092915050565b60008083601f840112611a5357611a52611738565b5b8235905067ffffffffffffffff811115611a7057611a6f61173d565b5b602083019150836001820283011115611a8c57611a8b611742565b5b9250929050565b60008060008060008060008060a0898b031215611ab357611ab2611524565b5b6000611ac18b828c0161165c565b9850506020611ad28b828c0161165c565b975050604089013567ffffffffffffffff811115611af357611af2611529565b5b611aff8b828c01611747565b9650965050606089013567ffffffffffffffff811115611b2257611b21611529565b5b611b2e8b828c01611747565b9450945050608089013567ffffffffffffffff811115611b5157611b50611529565b5b611b5d8b828c01611a3d565b92509250509295985092959890939650565b611b788161152e565b82525050565b6000602082019050611b936000830184611b6f565b92915050565b60008060008060408587031215611bb357611bb2611524565b5b600085013567ffffffffffffffff811115611bd157611bd0611529565b5b611bdd87828801611747565b9450945050602085013567ffffffffffffffff811115611c0057611bff611529565b5b611c0c87828801611747565b925092505092959194509250565b60008060008060008060a08789031215611c3757611c36611524565b5b6000611c4589828a0161165c565b9650506020611c5689828a0161165c565b9550506040611c6789828a01611692565b9450506060611c7889828a01611692565b935050608087013567ffffffffffffffff811115611c9957611c98611529565b5b611ca589828a01611a3d565b92509250509295509295509295565b600082825260208201905092915050565b7f496e697469616c697a61626c653a20636f6e7472616374206973206e6f74206960008201527f6e697469616c697a696e67000000000000000000000000000000000000000000602082015250565b6000611d21602b83611cb4565b9150611d2c82611cc5565b604082019050919050565b60006020820190508181036000830152611d5081611d14565b9050919050565b7f4e487b7100000000000000000000000000000000000000000000000000000000600052604160045260246000fd5b7f4e487b7100000000000000000000000000000000000000000000000000000000600052603260045260246000fd5b7f4e487b7100000000000000000000000000000000000000000000000000000000600052601160045260246000fd5b6000611def82611671565b91507fffffffffffffffffffffffffffffffffffffffffffffffffffffffffffffffff821415611e2257611e21611db5565b5b600182019050919050565b600081519050611e3c81611645565b92915050565b600060208284031215611e5857611e57611524565b5b6000611e6684828501611e2d565b91505092915050565b7f44654d696e654167656e743a206f6e6c7920746f6b656e732066726f6d20637560008201527f73746f6469616e20616c6c6f7765640000000000000000000000000000000000602082015250565b6000611ecb602f83611cb4565b9150611ed682611e6f565b604082019050919050565b60006020820190508181036000830152611efa81611ebe565b9050919050565b6000611f0c826115e9565b9050919050565b611f1c81611f01565b8114611f2757600080fd5b50565b600081359050611f3981611f13565b92915050565b600060208284031215611f5557611f54611524565b5b6000611f6384828501611f2a565b91505092915050565b6000611f7782611671565b9150611f8283611671565b9250827fffffffffffffffffffffffffffffffffffffffffffffffffffffffffffffffff03821115611fb757611fb6611db5565b5b828201905092915050565b7f5061757361626c653a2070617573656400000000000000000000000000000000600082015250565b6000611ff8601083611cb4565b915061200382611fc2565b602082019050919050565b6000602082019050818103600083015261202781611feb565b9050919050565b7f44654d696e654167656e743a206172726179206c656e677468206d69736d617460008201527f6368000000000000000000000000000000000000000000000000000000000000602082015250565b600061208a602283611cb4565b91506120958261202e565b604082019050919050565b600060208201905081810360008301526120b98161207d565b9050919050565b60006120cb82611671565b91506120d683611671565b9250817fffffffffffffffffffffffffffffffffffffffffffffffffffffffffffffffff048311821515161561210f5761210e611db5565b5b828202905092915050565b7f44654d696e654167656e743a206e6f2073756666696369656e742062616c616e60008201527f6365000000000000000000000000000000000000000000000000000000000000602082015250565b6000612176602283611cb4565b91506121818261211a565b604082019050919050565b600060208201905081810360008301526121a581612169565b9050919050565b60006121b782611671565b91506121c283611671565b9250828210156121d5576121d4611db5565b5b828203905092915050565b600080fd5b82818337600083830152505050565b60006122008385611977565b93507f07ffffffffffffffffffffffffffffffffffffffffffffffffffffffffffffff831115612233576122326121e0565b5b6020830292506122448385846121e5565b82840190509392505050565b600082825260208201905092915050565b50565b6000612271600083612250565b915061227c82612261565b600082019050919050565b600060a08201905061229c600083018961161b565b6122a9602083018861161b565b81810360408301526122bc8186886121f4565b905081810360608301526122d18184866121f4565b905081810360808301526122e481612264565b9050979650505050505050565b7f4e487b7100000000000000000000000000000000000000000000000000000000600052601260045260246000fd5b600061232b82611671565b915061233683611671565b925082612346576123456122f1565b5b828204905092915050565b60006fffffffffffffffffffffffffffffffff82169050919050565b600061237882612351565b915061238383612351565b92508282101561239657612395611db5565b5b828203905092915050565b60006123ac82612351565b91506123b783612351565b9250826123c7576123c66122f1565b5b828204905092915050565b60006060820190506123e7600083018661161b565b6123f4602083018561161b565b612401604083018461170e565b949350505050565b600060408201905061241e600083018561161b565b61242b602083018461170e565b9392505050565b61243b816115b3565b811461244657600080fd5b50565b60008151905061245881612432565b92915050565b60006020828403121561247457612473611524565b5b600061248284828501612449565b91505092915050565b7f5361666545524332303a204552433230206f7065726174696f6e20646964206e60008201527f6f74207375636365656400000000000000000000000000000000000000000000602082015250565b60006124e7602a83611cb4565b91506124f28261248b565b604082019050919050565b60006020820190508181036000830152612516816124da565b9050919050565b7f416464726573733a20696e73756666696369656e742062616c616e636520666f60008201527f722063616c6c0000000000000000000000000000000000000000000000000000602082015250565b6000612579602683611cb4565b91506125848261251d565b604082019050919050565b600060208201905081810360008301526125a88161256c565b9050919050565b7f416464726573733a2063616c6c20746f206e6f6e2d636f6e7472616374000000600082015250565b60006125e5601d83611cb4565b91506125f0826125af565b602082019050919050565b60006020820190508181036000830152612614816125d8565b9050919050565b600081519050919050565b600081905092915050565b60005b8381101561264f578082015181840152602081019050612634565b8381111561265e576000848401525b50505050565b600061266f8261261b565b6126798185612626565b9350612689818560208601612631565b80840191505092915050565b60006126a18284612664565b915081905092915050565b600081519050919050565b6000601f19601f8301169050919050565b60006126d3826126ac565b6126dd8185611cb4565b93506126ed818560208601612631565b6126f6816126b7565b840191505092915050565b6000602082019050818103600083015261271b81846126c8565b90509291505056fea2646970667358221220fff8ab613b12c1a719378549881b37f19ebb6e1cdd9c00734fbfba42471da78264736f6c634300080b0033",
  "devdoc": {
    "author": "Shu Dong, Yijie Hong",
    "details": "the contract also implements IERC1155Receiver to receive and lock demine nft",
    "kind": "dev",
    "methods": {
      "redeemNFT(uint256[],uint256[])": {
        "params": {
          "amounts": "Amount of each demine nft token",
          "ids": "DeMine nft token ids to redeem"
        }
      },
      "supportsInterface(bytes4)": {
        "params": {
          "interfaceId": "interface id"
        },
        "returns": {
          "_0": "bool whether interface is supported"
        }
      }
    },
    "title": "MortgageFacet",
    "version": 1
  },
  "userdoc": {
    "kind": "user",
    "methods": {
      "redeemNFT(uint256[],uint256[])": {
        "notice": "Pay token cost and liquidize tokens"
      },
      "supportsInterface(bytes4)": {
        "notice": "query whether contract has registered support for given interface"
      },
      "withdrawAndPayoff(uint256[])": {
        "notice": "Withdraw surplus or payoff debt for NFT tokens that have been billed.         All balances of ids need to be paid off or withdrawn. Partial payoff         or withdraw is not supported."
      }
    },
    "notice": "Facet contract holding functions for miners to manage mortgage.Facet contract currently only supports weekly NFT token.",
    "version": 1
  },
  "storageLayout": {
    "storage": [
      {
        "astId": 3735,
        "contract": "contracts/agent/facets/MortgageFacet.sol:MortgageFacet",
        "label": "s",
        "offset": 0,
        "slot": "0",
        "type": "t_struct(AppStorage)3732_storage"
      }
    ],
    "types": {
      "t_address": {
        "encoding": "inplace",
        "label": "address",
        "numberOfBytes": "20"
      },
      "t_contract(IERC1155Rewardable)3971": {
        "encoding": "inplace",
        "label": "contract IERC1155Rewardable",
        "numberOfBytes": "20"
      },
      "t_mapping(t_address,t_mapping(t_uint8,t_address))": {
        "encoding": "mapping",
        "key": "t_address",
        "label": "mapping(address => mapping(uint8 => address))",
        "numberOfBytes": "32",
        "value": "t_mapping(t_uint8,t_address)"
      },
      "t_mapping(t_address,t_uint256)": {
        "encoding": "mapping",
        "key": "t_address",
        "label": "mapping(address => uint256)",
        "numberOfBytes": "32",
        "value": "t_uint256"
      },
      "t_mapping(t_address,t_uint8)": {
        "encoding": "mapping",
        "key": "t_address",
        "label": "mapping(address => uint8)",
        "numberOfBytes": "32",
        "value": "t_uint8"
      },
      "t_mapping(t_uint256,t_mapping(t_address,t_uint256))": {
        "encoding": "mapping",
        "key": "t_uint256",
        "label": "mapping(uint256 => mapping(address => uint256))",
        "numberOfBytes": "32",
        "value": "t_mapping(t_address,t_uint256)"
      },
      "t_mapping(t_uint256,t_struct(BillingStatement)3689_storage)": {
        "encoding": "mapping",
        "key": "t_uint256",
        "label": "mapping(uint256 => struct BillingStatement)",
        "numberOfBytes": "32",
        "value": "t_struct(BillingStatement)3689_storage"
      },
      "t_mapping(t_uint8,t_address)": {
        "encoding": "mapping",
        "key": "t_uint8",
        "label": "mapping(uint8 => address)",
        "numberOfBytes": "32",
        "value": "t_address"
      },
      "t_struct(AppStorage)3732_storage": {
        "encoding": "inplace",
        "label": "struct AppStorage",
        "members": [
          {
            "astId": 3691,
            "contract": "contracts/agent/facets/MortgageFacet.sol:MortgageFacet",
            "label": "tokenCost",
            "offset": 0,
            "slot": "0",
            "type": "t_uint256"
          },
          {
            "astId": 3694,
            "contract": "contracts/agent/facets/MortgageFacet.sol:MortgageFacet",
            "label": "nft",
            "offset": 0,
            "slot": "1",
            "type": "t_contract(IERC1155Rewardable)3971"
          },
          {
            "astId": 3696,
            "contract": "contracts/agent/facets/MortgageFacet.sol:MortgageFacet",
            "label": "paymentToken",
            "offset": 0,
            "slot": "2",
            "type": "t_address"
          },
          {
            "astId": 3698,
            "contract": "contracts/agent/facets/MortgageFacet.sol:MortgageFacet",
            "label": "custodian",
            "offset": 0,
            "slot": "3",
            "type": "t_address"
          },
          {
            "astId": 3700,
            "contract": "contracts/agent/facets/MortgageFacet.sol:MortgageFacet",
            "label": "royaltyBps",
            "offset": 20,
            "slot": "3",
            "type": "t_uint16"
          },
          {
            "astId": 3702,
            "contract": "contracts/agent/facets/MortgageFacet.sol:MortgageFacet",
            "label": "royaltyCap",
            "offset": 0,
            "slot": "4",
            "type": "t_uint256"
          },
          {
            "astId": 3708,
            "contract": "contracts/agent/facets/MortgageFacet.sol:MortgageFacet",
            "label": "balances",
            "offset": 0,
            "slot": "5",
            "type": "t_mapping(t_uint256,t_mapping(t_address,t_uint256))"
          },
          {
            "astId": 3713,
            "contract": "contracts/agent/facets/MortgageFacet.sol:MortgageFacet",
            "label": "statements",
            "offset": 0,
            "slot": "6",
            "type": "t_mapping(t_uint256,t_struct(BillingStatement)3689_storage)"
          },
          {
            "astId": 3715,
            "contract": "contracts/agent/facets/MortgageFacet.sol:MortgageFacet",
            "label": "chainlink",
            "offset": 0,
            "slot": "7",
            "type": "t_address"
          },
          {
            "astId": 3717,
            "contract": "contracts/agent/facets/MortgageFacet.sol:MortgageFacet",
            "label": "swapRouter",
            "offset": 0,
            "slot": "8",
            "type": "t_address"
          },
          {
            "astId": 3719,
            "contract": "contracts/agent/facets/MortgageFacet.sol:MortgageFacet",
            "label": "swapRouterVersion",
            "offset": 20,
            "slot": "8",
            "type": "t_uint8"
          },
          {
            "astId": 3721,
            "contract": "contracts/agent/facets/MortgageFacet.sol:MortgageFacet",
            "label": "earningTokenSaleDiscount10000Based",
            "offset": 21,
            "slot": "8",
            "type": "t_uint16"
          },
          {
            "astId": 3725,
            "contract": "contracts/agent/facets/MortgageFacet.sol:MortgageFacet",
            "label": "strategyRegistry",
            "offset": 0,
            "slot": "9",
            "type": "t_mapping(t_address,t_uint8)"
          },
          {
            "astId": 3731,
            "contract": "contracts/agent/facets/MortgageFacet.sol:MortgageFacet",
            "label": "strategies",
            "offset": 0,
            "slot": "10",
            "type": "t_mapping(t_address,t_mapping(t_uint8,t_address))"
          }
        ],
        "numberOfBytes": "352"
      },
      "t_struct(BillingStatement)3689_storage": {
        "encoding": "inplace",
        "label": "struct BillingStatement",
        "members": [
          {
            "astId": 3684,
            "contract": "contracts/agent/facets/MortgageFacet.sol:MortgageFacet",
            "label": "balance",
            "offset": 0,
            "slot": "0",
            "type": "t_uint256"
          },
          {
            "astId": 3686,
            "contract": "contracts/agent/facets/MortgageFacet.sol:MortgageFacet",
            "label": "surplus",
            "offset": 0,
            "slot": "1",
            "type": "t_uint256"
          },
          {
            "astId": 3688,
            "contract": "contracts/agent/facets/MortgageFacet.sol:MortgageFacet",
            "label": "debt",
            "offset": 0,
            "slot": "2",
            "type": "t_uint256"
          }
        ],
        "numberOfBytes": "96"
      },
      "t_uint16": {
        "encoding": "inplace",
        "label": "uint16",
        "numberOfBytes": "2"
      },
      "t_uint256": {
        "encoding": "inplace",
        "label": "uint256",
        "numberOfBytes": "32"
      },
      "t_uint8": {
        "encoding": "inplace",
        "label": "uint8",
        "numberOfBytes": "1"
      }
    }
  }
}