{
  "address": "0x5D42ED13Ae28e56a5e6C91cC8Cc7424F63CE24fE",
  "abi": [
    {
      "inputs": [
        {
          "internalType": "address",
          "name": "owner",
          "type": "address"
        },
        {
          "internalType": "uint256[]",
          "name": "ids",
          "type": "uint256[]"
        }
      ],
      "name": "priceOfBatch",
      "outputs": [
        {
          "internalType": "uint256[]",
          "name": "",
          "type": "uint256[]"
        }
      ],
      "stateMutability": "view",
      "type": "function"
    },
    {
      "inputs": [
        {
          "internalType": "address",
          "name": "owner",
          "type": "address"
        },
        {
          "internalType": "uint256",
          "name": "tokenCost",
          "type": "uint256"
        },
        {
          "internalType": "bytes",
          "name": "args",
          "type": "bytes"
        }
      ],
      "name": "set",
      "outputs": [],
      "stateMutability": "nonpayable",
      "type": "function"
    }
  ],
  "transactionHash": "0xcd02a38990617c7e6a701c8b830a3bd355b2b13655634d69fcaf563094b1e7f4",
  "args": [],
  "numDeployments": 1,
  "solcInputHash": "e9a72363d7129de323877828de5d2608",
  "bytecode": "0x608060405234801561001057600080fd5b50610dad806100206000396000f3fe608060405234801561001057600080fd5b50600436106100365760003560e01c80634bbaaced1461003b5780635973921b1461006b575b600080fd5b6100556004803603810190610050919061071a565b610087565b6040516100629190610834565b60405180910390f35b6100856004803603810190610080919061090b565b61036b565b005b60606000825167ffffffffffffffff8111156100a6576100a56105a1565b5b6040519080825280602002602001820160405280156100d45781602001602082028036833780820191505090505b50905060006100e16104d3565b60000160008673ffffffffffffffffffffffffffffffffffffffff1673ffffffffffffffffffffffffffffffffffffffff1681526020019081526020016000206040518060a001604052908160008201548152602001600182015481526020016002820160009054906101000a90046fffffffffffffffffffffffffffffffff166fffffffffffffffffffffffffffffffff166fffffffffffffffffffffffffffffffff1681526020016002820160109054906101000a900467ffffffffffffffff1667ffffffffffffffff1667ffffffffffffffff1681526020016002820160189054906101000a900467ffffffffffffffff1667ffffffffffffffff1667ffffffffffffffff1681525050905060005b845181101561035f5760008582815181106102115761021061097a565b5b60200260200101519050600060808784815181106102325761023161097a565b5b6020026020010151901c905060006002828461024e91906109f4565b6102589190610a69565b905084604001516fffffffffffffffffffffffffffffffff16816fffffffffffffffffffffffffffffffff1610156102b35784600001518685815181106102a2576102a161097a565b5b602002602001018181525050610349565b6000856080015167ffffffffffffffff16866060015167ffffffffffffffff168760400151846102e39190610a9a565b6102ed9190610ace565b6102f79190610a69565b6fffffffffffffffffffffffffffffffff1686600001516103189190610b18565b9050610328818760200151610500565b87868151811061033b5761033a61097a565b5b602002602001018181525050505b505050808061035790610b4c565b9150506101f3565b50819250505092915050565b60006103756104d3565b905060008280602001905181019061038d9190610ca7565b905083816020015110156103d6576040517f08c379a00000000000000000000000000000000000000000000000000000000081526004016103cd90610d57565b60405180910390fd5b808260000160008773ffffffffffffffffffffffffffffffffffffffff1673ffffffffffffffffffffffffffffffffffffffff168152602001908152602001600020600082015181600001556020820151816001015560408201518160020160006101000a8154816fffffffffffffffffffffffffffffffff02191690836fffffffffffffffffffffffffffffffff16021790555060608201518160020160106101000a81548167ffffffffffffffff021916908367ffffffffffffffff16021790555060808201518160020160186101000a81548167ffffffffffffffff021916908367ffffffffffffffff1602179055509050505050505050565b6000807f574d010caaf693f957f1a3300ec7bf13f740c82d91d6967c3d41372429656a1990508091505090565b600081831161050f5781610511565b825b905092915050565b6000604051905090565b600080fd5b600080fd5b600073ffffffffffffffffffffffffffffffffffffffff82169050919050565b60006105588261052d565b9050919050565b6105688161054d565b811461057357600080fd5b50565b6000813590506105858161055f565b92915050565b600080fd5b6000601f19601f8301169050919050565b7f4e487b7100000000000000000000000000000000000000000000000000000000600052604160045260246000fd5b6105d982610590565b810181811067ffffffffffffffff821117156105f8576105f76105a1565b5b80604052505050565b600061060b610519565b905061061782826105d0565b919050565b600067ffffffffffffffff821115610637576106366105a1565b5b602082029050602081019050919050565b600080fd5b6000819050919050565b6106608161064d565b811461066b57600080fd5b50565b60008135905061067d81610657565b92915050565b60006106966106918461061c565b610601565b905080838252602082019050602084028301858111156106b9576106b8610648565b5b835b818110156106e257806106ce888261066e565b8452602084019350506020810190506106bb565b5050509392505050565b600082601f8301126107015761070061058b565b5b8135610711848260208601610683565b91505092915050565b6000806040838503121561073157610730610523565b5b600061073f85828601610576565b925050602083013567ffffffffffffffff8111156107605761075f610528565b5b61076c858286016106ec565b9150509250929050565b600081519050919050565b600082825260208201905092915050565b6000819050602082019050919050565b6107ab8161064d565b82525050565b60006107bd83836107a2565b60208301905092915050565b6000602082019050919050565b60006107e182610776565b6107eb8185610781565b93506107f683610792565b8060005b8381101561082757815161080e88826107b1565b9750610819836107c9565b9250506001810190506107fa565b5085935050505092915050565b6000602082019050818103600083015261084e81846107d6565b905092915050565b600080fd5b600067ffffffffffffffff821115610876576108756105a1565b5b61087f82610590565b9050602081019050919050565b82818337600083830152505050565b60006108ae6108a98461085b565b610601565b9050828152602081018484840111156108ca576108c9610856565b5b6108d584828561088c565b509392505050565b600082601f8301126108f2576108f161058b565b5b813561090284826020860161089b565b91505092915050565b60008060006060848603121561092457610923610523565b5b600061093286828701610576565b93505060206109438682870161066e565b925050604084013567ffffffffffffffff81111561096457610963610528565b5b610970868287016108dd565b9150509250925092565b7f4e487b7100000000000000000000000000000000000000000000000000000000600052603260045260246000fd5b60006fffffffffffffffffffffffffffffffff82169050919050565b7f4e487b7100000000000000000000000000000000000000000000000000000000600052601160045260246000fd5b60006109ff826109a9565b9150610a0a836109a9565b9250826fffffffffffffffffffffffffffffffff03821115610a2f57610a2e6109c5565b5b828201905092915050565b7f4e487b7100000000000000000000000000000000000000000000000000000000600052601260045260246000fd5b6000610a74826109a9565b9150610a7f836109a9565b925082610a8f57610a8e610a3a565b5b828204905092915050565b6000610aa5826109a9565b9150610ab0836109a9565b925082821015610ac357610ac26109c5565b5b828203905092915050565b6000610ad9826109a9565b9150610ae4836109a9565b9250816fffffffffffffffffffffffffffffffff0483118215151615610b0d57610b0c6109c5565b5b828202905092915050565b6000610b238261064d565b9150610b2e8361064d565b925082821015610b4157610b406109c5565b5b828203905092915050565b6000610b578261064d565b91507fffffffffffffffffffffffffffffffffffffffffffffffffffffffffffffffff821415610b8a57610b896109c5565b5b600182019050919050565b600080fd5b600081519050610ba981610657565b92915050565b610bb8816109a9565b8114610bc357600080fd5b50565b600081519050610bd581610baf565b92915050565b600067ffffffffffffffff82169050919050565b610bf881610bdb565b8114610c0357600080fd5b50565b600081519050610c1581610bef565b92915050565b600060a08284031215610c3157610c30610b95565b5b610c3b60a0610601565b90506000610c4b84828501610b9a565b6000830152506020610c5f84828501610b9a565b6020830152506040610c7384828501610bc6565b6040830152506060610c8784828501610c06565b6060830152506080610c9b84828501610c06565b60808301525092915050565b600060a08284031215610cbd57610cbc610523565b5b6000610ccb84828501610c1b565b91505092915050565b600082825260208201905092915050565b7f50726963696e674c696e65617244656361793a206d696e20707269636520736d60008201527f616c6c657220746f6b656e20636f737400000000000000000000000000000000602082015250565b6000610d41603083610cd4565b9150610d4c82610ce5565b604082019050919050565b60006020820190508181036000830152610d7081610d34565b905091905056fea2646970667358221220bba311f19dd7555cdf41a3aac9bf728aad6929310e4a1a44871ac1b0e2a72b3064736f6c634300080b0033",
  "devdoc": {
    "kind": "dev",
    "methods": {},
    "version": 1
  },
  "userdoc": {
    "kind": "user",
    "methods": {},
    "version": 1
  },
  "storageLayout": {
    "storage": [],
    "types": null
  }
}