{
  "address": "0xA8c74EA5322Af315A0A15900994f3E126c03Ba0d",
  "abi": [
    {
      "anonymous": false,
      "inputs": [
        {
          "indexed": true,
          "internalType": "address",
          "name": "operator",
          "type": "address"
        },
        {
          "indexed": true,
          "internalType": "address",
          "name": "from",
          "type": "address"
        },
        {
          "indexed": true,
          "internalType": "address",
          "name": "to",
          "type": "address"
        }
      ],
      "name": "Claim",
      "type": "event"
    },
    {
      "inputs": [
        {
          "internalType": "address",
          "name": "owner",
          "type": "address"
        },
        {
          "internalType": "address",
          "name": "buyer",
          "type": "address"
        },
        {
          "internalType": "uint256[]",
          "name": "ids",
          "type": "uint256[]"
        }
      ],
      "name": "allowanceOfBatch",
      "outputs": [
        {
          "internalType": "uint256[]",
          "name": "allowances",
          "type": "uint256[]"
        }
      ],
      "stateMutability": "view",
      "type": "function"
    },
    {
      "inputs": [
        {
          "internalType": "address[]",
          "name": "pricingStrategies",
          "type": "address[]"
        },
        {
          "internalType": "address[]",
          "name": "allowanceStrategies",
          "type": "address[]"
        }
      ],
      "name": "batchRegisterStrategies",
      "outputs": [],
      "stateMutability": "nonpayable",
      "type": "function"
    },
    {
      "inputs": [
        {
          "internalType": "address",
          "name": "from",
          "type": "address"
        },
        {
          "internalType": "address",
          "name": "to",
          "type": "address"
        },
        {
          "internalType": "uint256[]",
          "name": "ids",
          "type": "uint256[]"
        },
        {
          "internalType": "uint256[]",
          "name": "amounts",
          "type": "uint256[]"
        }
      ],
      "name": "claimFrom",
      "outputs": [
        {
          "internalType": "uint256[]",
          "name": "",
          "type": "uint256[]"
        }
      ],
      "stateMutability": "nonpayable",
      "type": "function"
    },
    {
      "inputs": [
        {
          "internalType": "uint8",
          "name": "strategyType",
          "type": "uint8"
        }
      ],
      "name": "getStrategy",
      "outputs": [
        {
          "internalType": "address",
          "name": "",
          "type": "address"
        }
      ],
      "stateMutability": "view",
      "type": "function"
    },
    {
      "inputs": [
        {
          "internalType": "address",
          "name": "account",
          "type": "address"
        },
        {
          "internalType": "uint256[]",
          "name": "ids",
          "type": "uint256[]"
        }
      ],
      "name": "priceOfBatch",
      "outputs": [
        {
          "internalType": "uint256[]",
          "name": "prices",
          "type": "uint256[]"
        }
      ],
      "stateMutability": "view",
      "type": "function"
    },
    {
      "inputs": [
        {
          "internalType": "address",
          "name": "strategy",
          "type": "address"
        },
        {
          "internalType": "uint8",
          "name": "strategyType",
          "type": "uint8"
        }
      ],
      "name": "registerStrategy",
      "outputs": [],
      "stateMutability": "nonpayable",
      "type": "function"
    },
    {
      "inputs": [
        {
          "internalType": "address",
          "name": "strategy",
          "type": "address"
        }
      ],
      "name": "registeredStrategyType",
      "outputs": [
        {
          "internalType": "uint8",
          "name": "",
          "type": "uint8"
        }
      ],
      "stateMutability": "view",
      "type": "function"
    },
    {
      "inputs": [
        {
          "internalType": "uint256",
          "name": "totalEarned",
          "type": "uint256"
        }
      ],
      "name": "royaltyInfo",
      "outputs": [
        {
          "internalType": "uint256",
          "name": "",
          "type": "uint256"
        }
      ],
      "stateMutability": "view",
      "type": "function"
    },
    {
      "inputs": [
        {
          "internalType": "address",
          "name": "buyer",
          "type": "address"
        },
        {
          "internalType": "bytes",
          "name": "args",
          "type": "bytes"
        }
      ],
      "name": "setAllowance",
      "outputs": [],
      "stateMutability": "nonpayable",
      "type": "function"
    },
    {
      "inputs": [
        {
          "internalType": "bytes",
          "name": "args",
          "type": "bytes"
        }
      ],
      "name": "setPricing",
      "outputs": [],
      "stateMutability": "nonpayable",
      "type": "function"
    },
    {
      "inputs": [
        {
          "internalType": "uint16",
          "name": "royaltyBps",
          "type": "uint16"
        },
        {
          "internalType": "uint256",
          "name": "royaltyCap",
          "type": "uint256"
        }
      ],
      "name": "setRoyaltyInfo",
      "outputs": [],
      "stateMutability": "nonpayable",
      "type": "function"
    },
    {
      "inputs": [
        {
          "internalType": "address",
          "name": "strategy",
          "type": "address"
        }
      ],
      "name": "setStrategy",
      "outputs": [],
      "stateMutability": "nonpayable",
      "type": "function"
    }
  ],
  "transactionHash": "0x9b738a41ce69d13979256b0422212b508f998d383c348b2ef905ad2e346fe9ac",
  "args": [],
  "numDeployments": 2,
  "solcInputHash": "7eb2b0fc510e8a394e64a23d0ea364e7",
  "bytecode": "0x608060405234801561001057600080fd5b50613239806100206000396000f3fe608060405234801561001057600080fd5b50600436106100b45760003560e01c806357efe3741161007157806357efe3741461019d5780637146d848146101cd578063a77c9a63146101e9578063c9a3510014610219578063cef6d36814610235578063f2ef10d414610265576100b4565b80630c23763f146100b95780631cfed885146100d557806333a100ca1461010557806348f60b99146101215780634bbaaced1461013d5780634d57cee71461016d575b600080fd5b6100d360048036038101906100ce9190611df6565b610281565b005b6100ef60048036038101906100ea9190611e78565b6104a0565b6040516100fc9190611ee6565b60405180910390f35b61011f600480360381019061011a9190611f2d565b610522565b005b61013b60048036038101906101369190611fca565b610657565b005b6101576004803603810190610152919061206a565b61071e565b6040516101649190612188565b60405180910390f35b61018760048036038101906101829190611f2d565b610955565b60405161019491906121b9565b60405180910390f35b6101b760048036038101906101b291906121d4565b6109ad565b6040516101c49190612188565b60405180910390f35b6101e760048036038101906101e2919061229e565b610be7565b005b61020360048036038101906101fe919061231f565b610dd0565b6040516102109190612188565b60405180910390f35b610233600480360381019061022e91906123c6565b6113b0565b005b61024f600480360381019061024a9190612406565b6114a8565b60405161025c9190612442565b60405180910390f35b61027f600480360381019061027a919061245d565b61150a565b005b600080600a0160003373ffffffffffffffffffffffffffffffffffffffff1673ffffffffffffffffffffffffffffffffffffffff1681526020019081526020016000206000600160ff16815260200190815260200160002060009054906101000a900473ffffffffffffffffffffffffffffffffffffffff169050600073ffffffffffffffffffffffffffffffffffffffff168173ffffffffffffffffffffffffffffffffffffffff16141561036c576040517f08c379a00000000000000000000000000000000000000000000000000000000081526004016103639061253c565b60405180910390fd5b6000808273ffffffffffffffffffffffffffffffffffffffff16635973921b60e01b336000800154876040516024016103a7939291906125e4565b604051602081830303815290604052907bffffffffffffffffffffffffffffffffffffffffffffffffffffffff19166020820180517bffffffffffffffffffffffffffffffffffffffffffffffffffffffff8381831617835250505050604051610411919061265e565b600060405180830381855af49150503d806000811461044c576040519150601f19603f3d011682016040523d82523d6000602084013e610451565b606091505b5091509150818190610499576040517f08c379a000000000000000000000000000000000000000000000000000000000815260040161049091906126b9565b60405180910390fd5b5050505050565b600080600a0160003373ffffffffffffffffffffffffffffffffffffffff1673ffffffffffffffffffffffffffffffffffffffff16815260200190815260200160002060008360ff1660ff16815260200190815260200160002060009054906101000a900473ffffffffffffffffffffffffffffffffffffffff169050919050565b60008060090160008373ffffffffffffffffffffffffffffffffffffffff1673ffffffffffffffffffffffffffffffffffffffff16815260200190815260200160002060009054906101000a900460ff16905060008160ff16116105bb576040517f08c379a00000000000000000000000000000000000000000000000000000000081526004016105b29061274d565b60405180910390fd5b816000600a0160003373ffffffffffffffffffffffffffffffffffffffff1673ffffffffffffffffffffffffffffffffffffffff16815260200190815260200160002060008360ff1660ff16815260200190815260200160002060006101000a81548173ffffffffffffffffffffffffffffffffffffffff021916908373ffffffffffffffffffffffffffffffffffffffff1602179055505050565b61065f611726565b60000160009054906101000a900473ffffffffffffffffffffffffffffffffffffffff1673ffffffffffffffffffffffffffffffffffffffff163373ffffffffffffffffffffffffffffffffffffffff16146106f0576040517f08c379a00000000000000000000000000000000000000000000000000000000081526004016106e7906127b9565b60405180910390fd5b81600060030160146101000a81548161ffff021916908361ffff160217905550806000600401819055505050565b6060600080600a0160008673ffffffffffffffffffffffffffffffffffffffff1673ffffffffffffffffffffffffffffffffffffffff1681526020019081526020016000206000600160ff16815260200190815260200160002060009054906101000a900473ffffffffffffffffffffffffffffffffffffffff169050600073ffffffffffffffffffffffffffffffffffffffff168173ffffffffffffffffffffffffffffffffffffffff16141561080b576040517f08c379a000000000000000000000000000000000000000000000000000000000815260040161080290612825565b60405180910390fd5b6000808273ffffffffffffffffffffffffffffffffffffffff16634bbaaced60e01b338888604051602401610842939291906128a6565b604051602081830303815290604052907bffffffffffffffffffffffffffffffffffffffffffffffffffffffff19166020820180517bffffffffffffffffffffffffffffffffffffffffffffffffffffffff83818316178352505050506040516108ac919061265e565b600060405180830381855afa9150503d80600081146108e7576040519150601f19603f3d011682016040523d82523d6000602084013e6108ec565b606091505b5091509150818190610934576040517f08c379a000000000000000000000000000000000000000000000000000000000815260040161092b91906126b9565b60405180910390fd5b508080602001905181019061094991906129b0565b93505050509392505050565b60008060090160008373ffffffffffffffffffffffffffffffffffffffff1673ffffffffffffffffffffffffffffffffffffffff16815260200190815260200160002060009054906101000a900460ff169050919050565b6060600080600a0160008773ffffffffffffffffffffffffffffffffffffffff1673ffffffffffffffffffffffffffffffffffffffff1681526020019081526020016000206000600260ff16815260200190815260200160002060009054906101000a900473ffffffffffffffffffffffffffffffffffffffff169050600073ffffffffffffffffffffffffffffffffffffffff168173ffffffffffffffffffffffffffffffffffffffff161415610a9a576040517f08c379a0000000000000000000000000000000000000000000000000000000008152600401610a9190612a6b565b60405180910390fd5b6000808273ffffffffffffffffffffffffffffffffffffffff166357efe37460e01b89898989604051602401610ad39493929190612a8b565b604051602081830303815290604052907bffffffffffffffffffffffffffffffffffffffffffffffffffffffff19166020820180517bffffffffffffffffffffffffffffffffffffffffffffffffffffffff8381831617835250505050604051610b3d919061265e565b600060405180830381855afa9150503d8060008114610b78576040519150601f19603f3d011682016040523d82523d6000602084013e610b7d565b606091505b5091509150818190610bc5576040517f08c379a0000000000000000000000000000000000000000000000000000000008152600401610bbc91906126b9565b60405180910390fd5b5080806020019051810190610bda91906129b0565b9350505050949350505050565b610bef611726565b60000160009054906101000a900473ffffffffffffffffffffffffffffffffffffffff1673ffffffffffffffffffffffffffffffffffffffff163373ffffffffffffffffffffffffffffffffffffffff1614610c80576040517f08c379a0000000000000000000000000000000000000000000000000000000008152600401610c77906127b9565b60405180910390fd5b60005b84849050811015610d2457600160006009016000878785818110610caa57610ca9612acb565b5b9050602002016020810190610cbf9190611f2d565b73ffffffffffffffffffffffffffffffffffffffff1673ffffffffffffffffffffffffffffffffffffffff16815260200190815260200160002060006101000a81548160ff021916908360ff1602179055508080610d1c90612b29565b915050610c83565b5060005b82829050811015610dc957600260006009016000858585818110610d4f57610d4e612acb565b5b9050602002016020810190610d649190611f2d565b73ffffffffffffffffffffffffffffffffffffffff1673ffffffffffffffffffffffffffffffffffffffff16815260200190815260200160002060006101000a81548160ff021916908360ff1602179055508080610dc190612b29565b915050610d28565b5050505050565b6060610dda611753565b60000160009054906101000a900460ff1615610e2b576040517f08c379a0000000000000000000000000000000000000000000000000000000008152600401610e2290612bbe565b60405180910390fd5b3373ffffffffffffffffffffffffffffffffffffffff168673ffffffffffffffffffffffffffffffffffffffff161480610e915750600073ffffffffffffffffffffffffffffffffffffffff168673ffffffffffffffffffffffffffffffffffffffff16145b610ed0576040517f08c379a0000000000000000000000000000000000000000000000000000000008152600401610ec790612c2a565b60405180910390fd5b828290508585905014610f18576040517f08c379a0000000000000000000000000000000000000000000000000000000008152600401610f0f90612cbc565b60405180910390fd5b610f26878787878787611780565b6000610f3388878761071e565b90506000604051806060016040528060008001548152602001600081526020016000815250905060005b8787905081101561117b5760008060050160008a8a85818110610f8357610f82612acb565b5b90506020020135815260200190815260200160002060008c73ffffffffffffffffffffffffffffffffffffffff1673ffffffffffffffffffffffffffffffffffffffff16815260200190815260200160002054905080878784818110610fec57610feb612acb565b5b905060200201351115611034576040517f08c379a000000000000000000000000000000000000000000000000000000000815260040161102b90612d4e565b60405180910390fd5b86868381811061104757611046612acb565b5b905060200201358103600060050160008b8b8681811061106a57611069612acb565b5b90506020020135815260200190815260200160002060008d73ffffffffffffffffffffffffffffffffffffffff1673ffffffffffffffffffffffffffffffffffffffff168152602001908152602001600020819055508686838181106110d3576110d2612acb565b5b9050602002013583600001516110e99190612d6e565b836020018181516110fa9190612dc8565b9150818152505086868381811061111457611113612acb565b5b90506020020135836000015185848151811061113357611132612acb565b5b60200260200101516111459190612e1e565b61114f9190612d6e565b836040018181516111609190612dc8565b9150818152505050808061117390612b29565b915050610f5d565b5060008060020160009054906101000a900473ffffffffffffffffffffffffffffffffffffffff16905060006111b483604001516114a8565b905061121733600060030160009054906101000a900473ffffffffffffffffffffffffffffffffffffffff168386602001516111f09190612dc8565b8573ffffffffffffffffffffffffffffffffffffffff166119a6909392919063ffffffff16565b611253338c83866040015161122c9190612e1e565b8573ffffffffffffffffffffffffffffffffffffffff166119a6909392919063ffffffff16565b600060010160009054906101000a900473ffffffffffffffffffffffffffffffffffffffff1673ffffffffffffffffffffffffffffffffffffffff16632eb2c2d630338c8c8c8c6040518763ffffffff1660e01b81526004016112bb96959493929190612e78565b600060405180830381600087803b1580156112d557600080fd5b505af11580156112e9573d6000803e3d6000fd5b505050508973ffffffffffffffffffffffffffffffffffffffff168b73ffffffffffffffffffffffffffffffffffffffff163373ffffffffffffffffffffffffffffffffffffffff167fcac3ed26c9dd72a2c44999857298af9c72ba2d1ca9784f5dad48c933e2224c1160405160405180910390a4868680806020026020016040519081016040528093929190818152602001838360200280828437600081840152601f19601f820116905080830192505050505050509450505050509695505050505050565b6113b8611726565b60000160009054906101000a900473ffffffffffffffffffffffffffffffffffffffff1673ffffffffffffffffffffffffffffffffffffffff163373ffffffffffffffffffffffffffffffffffffffff1614611449576040517f08c379a0000000000000000000000000000000000000000000000000000000008152600401611440906127b9565b60405180910390fd5b80600060090160008473ffffffffffffffffffffffffffffffffffffffff1673ffffffffffffffffffffffffffffffffffffffff16815260200190815260200160002060006101000a81548160ff021916908360ff1602179055505050565b600080612710600060030160149054906101000a900461ffff1661ffff16846114d19190612d6e565b6114db9190612f11565b90506000806004015490506000811180156114f557508082115b6114ff5781611501565b805b92505050919050565b600080600a0160003373ffffffffffffffffffffffffffffffffffffffff1673ffffffffffffffffffffffffffffffffffffffff1681526020019081526020016000206000600260ff16815260200190815260200160002060009054906101000a900473ffffffffffffffffffffffffffffffffffffffff169050600073ffffffffffffffffffffffffffffffffffffffff168173ffffffffffffffffffffffffffffffffffffffff1614156115f5576040517f08c379a00000000000000000000000000000000000000000000000000000000081526004016115ec90612a6b565b60405180910390fd5b6000808273ffffffffffffffffffffffffffffffffffffffff1663b8ac1b6860e01b33878760405160240161162c93929190612f42565b604051602081830303815290604052907bffffffffffffffffffffffffffffffffffffffffffffffffffffffff19166020820180517bffffffffffffffffffffffffffffffffffffffffffffffffffffffff8381831617835250505050604051611696919061265e565b600060405180830381855af49150503d80600081146116d1576040519150601f19603f3d011682016040523d82523d6000602084013e6116d6565b606091505b509150915081819061171e576040517f08c379a000000000000000000000000000000000000000000000000000000000815260040161171591906126b9565b60405180910390fd5b505050505050565b6000807f8a22373512790c48b83a1fe2efdd2888d4a917bcdc24d0adf63e60f67168046090508091505090565b6000807f68721c0bbf2c02a4d65000340d1370666be06a630022208d4baa9bd7a4b6fea890508091505090565b600080600a0160008873ffffffffffffffffffffffffffffffffffffffff1673ffffffffffffffffffffffffffffffffffffffff1681526020019081526020016000206000600260ff16815260200190815260200160002060009054906101000a900473ffffffffffffffffffffffffffffffffffffffff169050600073ffffffffffffffffffffffffffffffffffffffff168173ffffffffffffffffffffffffffffffffffffffff16141561186b576040517f08c379a000000000000000000000000000000000000000000000000000000000815260040161186290612a6b565b60405180910390fd5b6000808273ffffffffffffffffffffffffffffffffffffffff16632196f29160e01b8a8a8a8a8a8a6040516024016118a896959493929190612f80565b604051602081830303815290604052907bffffffffffffffffffffffffffffffffffffffffffffffffffffffff19166020820180517bffffffffffffffffffffffffffffffffffffffffffffffffffffffff8381831617835250505050604051611912919061265e565b600060405180830381855af49150503d806000811461194d576040519150601f19603f3d011682016040523d82523d6000602084013e611952565b606091505b509150915081819061199a576040517f08c379a000000000000000000000000000000000000000000000000000000000815260040161199191906126b9565b60405180910390fd5b50505050505050505050565b611a29846323b872dd60e01b8585856040516024016119c793929190612fd7565b604051602081830303815290604052907bffffffffffffffffffffffffffffffffffffffffffffffffffffffff19166020820180517bffffffffffffffffffffffffffffffffffffffffffffffffffffffff8381831617835250505050611a2f565b50505050565b6000611a91826040518060400160405280602081526020017f5361666545524332303a206c6f772d6c6576656c2063616c6c206661696c65648152508573ffffffffffffffffffffffffffffffffffffffff16611af69092919063ffffffff16565b9050600081511115611af15780806020019051810190611ab19190613046565b611af0576040517f08c379a0000000000000000000000000000000000000000000000000000000008152600401611ae7906130e5565b60405180910390fd5b5b505050565b6060611b058484600085611b0e565b90509392505050565b606082471015611b53576040517f08c379a0000000000000000000000000000000000000000000000000000000008152600401611b4a90613177565b60405180910390fd5b611b5c85611c22565b611b9b576040517f08c379a0000000000000000000000000000000000000000000000000000000008152600401611b92906131e3565b60405180910390fd5b6000808673ffffffffffffffffffffffffffffffffffffffff168587604051611bc4919061265e565b60006040518083038185875af1925050503d8060008114611c01576040519150601f19603f3d011682016040523d82523d6000602084013e611c06565b606091505b5091509150611c16828286611c35565b92505050949350505050565b600080823b905060008111915050919050565b60608315611c4557829050611c95565b600083511115611c585782518084602001fd5b816040517f08c379a0000000000000000000000000000000000000000000000000000000008152600401611c8c91906126b9565b60405180910390fd5b9392505050565b6000604051905090565b600080fd5b600080fd5b600080fd5b600080fd5b6000601f19601f8301169050919050565b7f4e487b7100000000000000000000000000000000000000000000000000000000600052604160045260246000fd5b611d0382611cba565b810181811067ffffffffffffffff82111715611d2257611d21611ccb565b5b80604052505050565b6000611d35611c9c565b9050611d418282611cfa565b919050565b600067ffffffffffffffff821115611d6157611d60611ccb565b5b611d6a82611cba565b9050602081019050919050565b82818337600083830152505050565b6000611d99611d9484611d46565b611d2b565b905082815260208101848484011115611db557611db4611cb5565b5b611dc0848285611d77565b509392505050565b600082601f830112611ddd57611ddc611cb0565b5b8135611ded848260208601611d86565b91505092915050565b600060208284031215611e0c57611e0b611ca6565b5b600082013567ffffffffffffffff811115611e2a57611e29611cab565b5b611e3684828501611dc8565b91505092915050565b600060ff82169050919050565b611e5581611e3f565b8114611e6057600080fd5b50565b600081359050611e7281611e4c565b92915050565b600060208284031215611e8e57611e8d611ca6565b5b6000611e9c84828501611e63565b91505092915050565b600073ffffffffffffffffffffffffffffffffffffffff82169050919050565b6000611ed082611ea5565b9050919050565b611ee081611ec5565b82525050565b6000602082019050611efb6000830184611ed7565b92915050565b611f0a81611ec5565b8114611f1557600080fd5b50565b600081359050611f2781611f01565b92915050565b600060208284031215611f4357611f42611ca6565b5b6000611f5184828501611f18565b91505092915050565b600061ffff82169050919050565b611f7181611f5a565b8114611f7c57600080fd5b50565b600081359050611f8e81611f68565b92915050565b6000819050919050565b611fa781611f94565b8114611fb257600080fd5b50565b600081359050611fc481611f9e565b92915050565b60008060408385031215611fe157611fe0611ca6565b5b6000611fef85828601611f7f565b925050602061200085828601611fb5565b9150509250929050565b600080fd5b600080fd5b60008083601f84011261202a57612029611cb0565b5b8235905067ffffffffffffffff8111156120475761204661200a565b5b6020830191508360208202830111156120635761206261200f565b5b9250929050565b60008060006040848603121561208357612082611ca6565b5b600061209186828701611f18565b935050602084013567ffffffffffffffff8111156120b2576120b1611cab565b5b6120be86828701612014565b92509250509250925092565b600081519050919050565b600082825260208201905092915050565b6000819050602082019050919050565b6120ff81611f94565b82525050565b600061211183836120f6565b60208301905092915050565b6000602082019050919050565b6000612135826120ca565b61213f81856120d5565b935061214a836120e6565b8060005b8381101561217b5781516121628882612105565b975061216d8361211d565b92505060018101905061214e565b5085935050505092915050565b600060208201905081810360008301526121a2818461212a565b905092915050565b6121b381611e3f565b82525050565b60006020820190506121ce60008301846121aa565b92915050565b600080600080606085870312156121ee576121ed611ca6565b5b60006121fc87828801611f18565b945050602061220d87828801611f18565b935050604085013567ffffffffffffffff81111561222e5761222d611cab565b5b61223a87828801612014565b925092505092959194509250565b60008083601f84011261225e5761225d611cb0565b5b8235905067ffffffffffffffff81111561227b5761227a61200a565b5b6020830191508360208202830111156122975761229661200f565b5b9250929050565b600080600080604085870312156122b8576122b7611ca6565b5b600085013567ffffffffffffffff8111156122d6576122d5611cab565b5b6122e287828801612248565b9450945050602085013567ffffffffffffffff81111561230557612304611cab565b5b61231187828801612248565b925092505092959194509250565b6000806000806000806080878903121561233c5761233b611ca6565b5b600061234a89828a01611f18565b965050602061235b89828a01611f18565b955050604087013567ffffffffffffffff81111561237c5761237b611cab565b5b61238889828a01612014565b9450945050606087013567ffffffffffffffff8111156123ab576123aa611cab565b5b6123b789828a01612014565b92509250509295509295509295565b600080604083850312156123dd576123dc611ca6565b5b60006123eb85828601611f18565b92505060206123fc85828601611e63565b9150509250929050565b60006020828403121561241c5761241b611ca6565b5b600061242a84828501611fb5565b91505092915050565b61243c81611f94565b82525050565b60006020820190506124576000830184612433565b92915050565b6000806040838503121561247457612473611ca6565b5b600061248285828601611f18565b925050602083013567ffffffffffffffff8111156124a3576124a2611cab565b5b6124af85828601611dc8565b9150509250929050565b600082825260208201905092915050565b7f4d696e696e67334167656e743a2070726963696e67207374726174656779206e60008201527f6f74207365740000000000000000000000000000000000000000000000000000602082015250565b60006125266026836124b9565b9150612531826124ca565b604082019050919050565b6000602082019050818103600083015261255581612519565b9050919050565b600081519050919050565b600082825260208201905092915050565b60005b8381101561259657808201518184015260208101905061257b565b838111156125a5576000848401525b50505050565b60006125b68261255c565b6125c08185612567565b93506125d0818560208601612578565b6125d981611cba565b840191505092915050565b60006060820190506125f96000830186611ed7565b6126066020830185612433565b818103604083015261261881846125ab565b9050949350505050565b600081905092915050565b60006126388261255c565b6126428185612622565b9350612652818560208601612578565b80840191505092915050565b600061266a828461262d565b915081905092915050565b600081519050919050565b600061268b82612675565b61269581856124b9565b93506126a5818560208601612578565b6126ae81611cba565b840191505092915050565b600060208201905081810360008301526126d38184612680565b905092915050565b7f4d696e696e67334167656e743a207374726174656779206e6f7420726567697360008201527f7465726564000000000000000000000000000000000000000000000000000000602082015250565b60006127376025836124b9565b9150612742826126db565b604082019050919050565b600060208201905081810360008301526127668161272a565b9050919050565b7f4f776e61626c653a2073656e646572206d757374206265206f776e6572000000600082015250565b60006127a3601d836124b9565b91506127ae8261276d565b602082019050919050565b600060208201905081810360008301526127d281612796565b9050919050565b7f4d696e696e67334167656e743a2070726963696e67206e6f7420736574000000600082015250565b600061280f601d836124b9565b915061281a826127d9565b602082019050919050565b6000602082019050818103600083015261283e81612802565b9050919050565b600080fd5b600061285683856120d5565b93507f07ffffffffffffffffffffffffffffffffffffffffffffffffffffffffffffff83111561288957612888612845565b5b60208302925061289a838584611d77565b82840190509392505050565b60006040820190506128bb6000830186611ed7565b81810360208301526128ce81848661284a565b9050949350505050565b600067ffffffffffffffff8211156128f3576128f2611ccb565b5b602082029050602081019050919050565b60008151905061291381611f9e565b92915050565b600061292c612927846128d8565b611d2b565b9050808382526020820190506020840283018581111561294f5761294e61200f565b5b835b8181101561297857806129648882612904565b845260208401935050602081019050612951565b5050509392505050565b600082601f83011261299757612996611cb0565b5b81516129a7848260208601612919565b91505092915050565b6000602082840312156129c6576129c5611ca6565b5b600082015167ffffffffffffffff8111156129e4576129e3611cab565b5b6129f084828501612982565b91505092915050565b7f4d696e696e67334167656e743a20616c6c6f77616e636520737472617465677960008201527f206e6f7420736574000000000000000000000000000000000000000000000000602082015250565b6000612a556028836124b9565b9150612a60826129f9565b604082019050919050565b60006020820190508181036000830152612a8481612a48565b9050919050565b6000606082019050612aa06000830187611ed7565b612aad6020830186611ed7565b8181036040830152612ac081848661284a565b905095945050505050565b7f4e487b7100000000000000000000000000000000000000000000000000000000600052603260045260246000fd5b7f4e487b7100000000000000000000000000000000000000000000000000000000600052601160045260246000fd5b6000612b3482611f94565b91507fffffffffffffffffffffffffffffffffffffffffffffffffffffffffffffffff821415612b6757612b66612afa565b5b600182019050919050565b7f5061757361626c653a2070617573656400000000000000000000000000000000600082015250565b6000612ba86010836124b9565b9150612bb382612b72565b602082019050919050565b60006020820190508181036000830152612bd781612b9b565b9050919050565b7f4d696e696e67334167656e743a20696e76616c6964206f70657261746f720000600082015250565b6000612c14601e836124b9565b9150612c1f82612bde565b602082019050919050565b60006020820190508181036000830152612c4381612c07565b9050919050565b7f546f6b656e4c6f636b65723a206172726179206c656e677468206d69736d617460008201527f6368000000000000000000000000000000000000000000000000000000000000602082015250565b6000612ca66022836124b9565b9150612cb182612c4a565b604082019050919050565b60006020820190508181036000830152612cd581612c99565b9050919050565b7f4d696e696e67334167656e743a20696e73756666696369656e742062616c616e60008201527f6365000000000000000000000000000000000000000000000000000000000000602082015250565b6000612d386022836124b9565b9150612d4382612cdc565b604082019050919050565b60006020820190508181036000830152612d6781612d2b565b9050919050565b6000612d7982611f94565b9150612d8483611f94565b9250817fffffffffffffffffffffffffffffffffffffffffffffffffffffffffffffffff0483118215151615612dbd57612dbc612afa565b5b828202905092915050565b6000612dd382611f94565b9150612dde83611f94565b9250827fffffffffffffffffffffffffffffffffffffffffffffffffffffffffffffffff03821115612e1357612e12612afa565b5b828201905092915050565b6000612e2982611f94565b9150612e3483611f94565b925082821015612e4757612e46612afa565b5b828203905092915050565b50565b6000612e62600083612567565b9150612e6d82612e52565b600082019050919050565b600060a082019050612e8d6000830189611ed7565b612e9a6020830188611ed7565b8181036040830152612ead81868861284a565b90508181036060830152612ec281848661284a565b90508181036080830152612ed581612e55565b9050979650505050505050565b7f4e487b7100000000000000000000000000000000000000000000000000000000600052601260045260246000fd5b6000612f1c82611f94565b9150612f2783611f94565b925082612f3757612f36612ee2565b5b828204905092915050565b6000606082019050612f576000830186611ed7565b612f646020830185611ed7565b8181036040830152612f7681846125ab565b9050949350505050565b6000608082019050612f956000830189611ed7565b612fa26020830188611ed7565b8181036040830152612fb581868861284a565b90508181036060830152612fca81848661284a565b9050979650505050505050565b6000606082019050612fec6000830186611ed7565b612ff96020830185611ed7565b6130066040830184612433565b949350505050565b60008115159050919050565b6130238161300e565b811461302e57600080fd5b50565b6000815190506130408161301a565b92915050565b60006020828403121561305c5761305b611ca6565b5b600061306a84828501613031565b91505092915050565b7f5361666545524332303a204552433230206f7065726174696f6e20646964206e60008201527f6f74207375636365656400000000000000000000000000000000000000000000602082015250565b60006130cf602a836124b9565b91506130da82613073565b604082019050919050565b600060208201905081810360008301526130fe816130c2565b9050919050565b7f416464726573733a20696e73756666696369656e742062616c616e636520666f60008201527f722063616c6c0000000000000000000000000000000000000000000000000000602082015250565b60006131616026836124b9565b915061316c82613105565b604082019050919050565b6000602082019050818103600083015261319081613154565b9050919050565b7f416464726573733a2063616c6c20746f206e6f6e2d636f6e7472616374000000600082015250565b60006131cd601d836124b9565b91506131d882613197565b602082019050919050565b600060208201905081810360008301526131fc816131c0565b905091905056fea26469706673582212201003d8996361afaa842b8bd7b9556937ec6aa5bcd792f2212d6b39607363b9da64736f6c634300080b0033",
  "devdoc": {
    "author": "Shu Dong",
    "kind": "dev",
    "methods": {},
    "title": "PrimaryMarketFacet",
    "version": 1
  },
  "userdoc": {
    "kind": "user",
    "methods": {},
    "notice": "Facet contract holding functions for primary market sale",
    "version": 1
  },
  "storageLayout": {
    "storage": [
      {
        "astId": 3735,
        "contract": "contracts/agent/facets/PrimaryMarketFacet.sol:PrimaryMarketFacet",
        "label": "s",
        "offset": 0,
        "slot": "0",
        "type": "t_struct(AppStorage)3732_storage"
      }
    ],
    "types": {
      "t_address": {
        "encoding": "inplace",
        "label": "address",
        "numberOfBytes": "20"
      },
      "t_contract(IERC1155Rewardable)3971": {
        "encoding": "inplace",
        "label": "contract IERC1155Rewardable",
        "numberOfBytes": "20"
      },
      "t_mapping(t_address,t_mapping(t_uint8,t_address))": {
        "encoding": "mapping",
        "key": "t_address",
        "label": "mapping(address => mapping(uint8 => address))",
        "numberOfBytes": "32",
        "value": "t_mapping(t_uint8,t_address)"
      },
      "t_mapping(t_address,t_uint256)": {
        "encoding": "mapping",
        "key": "t_address",
        "label": "mapping(address => uint256)",
        "numberOfBytes": "32",
        "value": "t_uint256"
      },
      "t_mapping(t_address,t_uint8)": {
        "encoding": "mapping",
        "key": "t_address",
        "label": "mapping(address => uint8)",
        "numberOfBytes": "32",
        "value": "t_uint8"
      },
      "t_mapping(t_uint256,t_mapping(t_address,t_uint256))": {
        "encoding": "mapping",
        "key": "t_uint256",
        "label": "mapping(uint256 => mapping(address => uint256))",
        "numberOfBytes": "32",
        "value": "t_mapping(t_address,t_uint256)"
      },
      "t_mapping(t_uint256,t_struct(BillingStatement)3689_storage)": {
        "encoding": "mapping",
        "key": "t_uint256",
        "label": "mapping(uint256 => struct BillingStatement)",
        "numberOfBytes": "32",
        "value": "t_struct(BillingStatement)3689_storage"
      },
      "t_mapping(t_uint8,t_address)": {
        "encoding": "mapping",
        "key": "t_uint8",
        "label": "mapping(uint8 => address)",
        "numberOfBytes": "32",
        "value": "t_address"
      },
      "t_struct(AppStorage)3732_storage": {
        "encoding": "inplace",
        "label": "struct AppStorage",
        "members": [
          {
            "astId": 3691,
            "contract": "contracts/agent/facets/PrimaryMarketFacet.sol:PrimaryMarketFacet",
            "label": "tokenCost",
            "offset": 0,
            "slot": "0",
            "type": "t_uint256"
          },
          {
            "astId": 3694,
            "contract": "contracts/agent/facets/PrimaryMarketFacet.sol:PrimaryMarketFacet",
            "label": "nft",
            "offset": 0,
            "slot": "1",
            "type": "t_contract(IERC1155Rewardable)3971"
          },
          {
            "astId": 3696,
            "contract": "contracts/agent/facets/PrimaryMarketFacet.sol:PrimaryMarketFacet",
            "label": "paymentToken",
            "offset": 0,
            "slot": "2",
            "type": "t_address"
          },
          {
            "astId": 3698,
            "contract": "contracts/agent/facets/PrimaryMarketFacet.sol:PrimaryMarketFacet",
            "label": "custodian",
            "offset": 0,
            "slot": "3",
            "type": "t_address"
          },
          {
            "astId": 3700,
            "contract": "contracts/agent/facets/PrimaryMarketFacet.sol:PrimaryMarketFacet",
            "label": "royaltyBps",
            "offset": 20,
            "slot": "3",
            "type": "t_uint16"
          },
          {
            "astId": 3702,
            "contract": "contracts/agent/facets/PrimaryMarketFacet.sol:PrimaryMarketFacet",
            "label": "royaltyCap",
            "offset": 0,
            "slot": "4",
            "type": "t_uint256"
          },
          {
            "astId": 3708,
            "contract": "contracts/agent/facets/PrimaryMarketFacet.sol:PrimaryMarketFacet",
            "label": "balances",
            "offset": 0,
            "slot": "5",
            "type": "t_mapping(t_uint256,t_mapping(t_address,t_uint256))"
          },
          {
            "astId": 3713,
            "contract": "contracts/agent/facets/PrimaryMarketFacet.sol:PrimaryMarketFacet",
            "label": "statements",
            "offset": 0,
            "slot": "6",
            "type": "t_mapping(t_uint256,t_struct(BillingStatement)3689_storage)"
          },
          {
            "astId": 3715,
            "contract": "contracts/agent/facets/PrimaryMarketFacet.sol:PrimaryMarketFacet",
            "label": "chainlink",
            "offset": 0,
            "slot": "7",
            "type": "t_address"
          },
          {
            "astId": 3717,
            "contract": "contracts/agent/facets/PrimaryMarketFacet.sol:PrimaryMarketFacet",
            "label": "swapRouter",
            "offset": 0,
            "slot": "8",
            "type": "t_address"
          },
          {
            "astId": 3719,
            "contract": "contracts/agent/facets/PrimaryMarketFacet.sol:PrimaryMarketFacet",
            "label": "swapRouterVersion",
            "offset": 20,
            "slot": "8",
            "type": "t_uint8"
          },
          {
            "astId": 3721,
            "contract": "contracts/agent/facets/PrimaryMarketFacet.sol:PrimaryMarketFacet",
            "label": "earningTokenSaleDiscount10000Based",
            "offset": 21,
            "slot": "8",
            "type": "t_uint16"
          },
          {
            "astId": 3725,
            "contract": "contracts/agent/facets/PrimaryMarketFacet.sol:PrimaryMarketFacet",
            "label": "strategyRegistry",
            "offset": 0,
            "slot": "9",
            "type": "t_mapping(t_address,t_uint8)"
          },
          {
            "astId": 3731,
            "contract": "contracts/agent/facets/PrimaryMarketFacet.sol:PrimaryMarketFacet",
            "label": "strategies",
            "offset": 0,
            "slot": "10",
            "type": "t_mapping(t_address,t_mapping(t_uint8,t_address))"
          }
        ],
        "numberOfBytes": "352"
      },
      "t_struct(BillingStatement)3689_storage": {
        "encoding": "inplace",
        "label": "struct BillingStatement",
        "members": [
          {
            "astId": 3684,
            "contract": "contracts/agent/facets/PrimaryMarketFacet.sol:PrimaryMarketFacet",
            "label": "balance",
            "offset": 0,
            "slot": "0",
            "type": "t_uint256"
          },
          {
            "astId": 3686,
            "contract": "contracts/agent/facets/PrimaryMarketFacet.sol:PrimaryMarketFacet",
            "label": "surplus",
            "offset": 0,
            "slot": "1",
            "type": "t_uint256"
          },
          {
            "astId": 3688,
            "contract": "contracts/agent/facets/PrimaryMarketFacet.sol:PrimaryMarketFacet",
            "label": "debt",
            "offset": 0,
            "slot": "2",
            "type": "t_uint256"
          }
        ],
        "numberOfBytes": "96"
      },
      "t_uint16": {
        "encoding": "inplace",
        "label": "uint16",
        "numberOfBytes": "2"
      },
      "t_uint256": {
        "encoding": "inplace",
        "label": "uint256",
        "numberOfBytes": "32"
      },
      "t_uint8": {
        "encoding": "inplace",
        "label": "uint8",
        "numberOfBytes": "1"
      }
    }
  }
}