{
  "address": "0x1Be9Bca9dc11E35183666C5AE1f15cd2dd6Dee8B",
  "abi": [
    {
      "anonymous": false,
      "inputs": [
        {
          "indexed": true,
          "internalType": "address",
          "name": "operator",
          "type": "address"
        },
        {
          "indexed": true,
          "internalType": "address",
          "name": "from",
          "type": "address"
        },
        {
          "indexed": true,
          "internalType": "address",
          "name": "to",
          "type": "address"
        }
      ],
      "name": "Claim",
      "type": "event"
    },
    {
      "inputs": [
        {
          "internalType": "address",
          "name": "owner",
          "type": "address"
        },
        {
          "internalType": "address",
          "name": "buyer",
          "type": "address"
        },
        {
          "internalType": "uint256[]",
          "name": "ids",
          "type": "uint256[]"
        }
      ],
      "name": "allowanceOfBatch",
      "outputs": [
        {
          "internalType": "uint256[]",
          "name": "allowances",
          "type": "uint256[]"
        }
      ],
      "stateMutability": "view",
      "type": "function"
    },
    {
      "inputs": [
        {
          "internalType": "address",
          "name": "from",
          "type": "address"
        },
        {
          "internalType": "address",
          "name": "to",
          "type": "address"
        },
        {
          "internalType": "uint256[]",
          "name": "ids",
          "type": "uint256[]"
        },
        {
          "internalType": "uint256[]",
          "name": "amounts",
          "type": "uint256[]"
        }
      ],
      "name": "claimFrom",
      "outputs": [
        {
          "internalType": "uint256[]",
          "name": "",
          "type": "uint256[]"
        }
      ],
      "stateMutability": "nonpayable",
      "type": "function"
    },
    {
      "inputs": [
        {
          "internalType": "uint8",
          "name": "strategyType",
          "type": "uint8"
        }
      ],
      "name": "getStrategy",
      "outputs": [
        {
          "internalType": "address",
          "name": "",
          "type": "address"
        }
      ],
      "stateMutability": "view",
      "type": "function"
    },
    {
      "inputs": [
        {
          "internalType": "uint16",
          "name": "royaltyBps",
          "type": "uint16"
        },
        {
          "internalType": "uint256",
          "name": "royaltyCap",
          "type": "uint256"
        },
        {
          "internalType": "address[]",
          "name": "pricingStrategies",
          "type": "address[]"
        },
        {
          "internalType": "address[]",
          "name": "allowanceStrategies",
          "type": "address[]"
        }
      ],
      "name": "init",
      "outputs": [],
      "stateMutability": "nonpayable",
      "type": "function"
    },
    {
      "inputs": [
        {
          "internalType": "address",
          "name": "account",
          "type": "address"
        },
        {
          "internalType": "uint256[]",
          "name": "ids",
          "type": "uint256[]"
        }
      ],
      "name": "priceOfBatch",
      "outputs": [
        {
          "internalType": "uint256[]",
          "name": "prices",
          "type": "uint256[]"
        }
      ],
      "stateMutability": "view",
      "type": "function"
    },
    {
      "inputs": [
        {
          "internalType": "address",
          "name": "strategy",
          "type": "address"
        },
        {
          "internalType": "uint8",
          "name": "strategyType",
          "type": "uint8"
        }
      ],
      "name": "registerStrategy",
      "outputs": [],
      "stateMutability": "nonpayable",
      "type": "function"
    },
    {
      "inputs": [
        {
          "internalType": "address",
          "name": "strategy",
          "type": "address"
        }
      ],
      "name": "registeredStrategyType",
      "outputs": [
        {
          "internalType": "uint8",
          "name": "",
          "type": "uint8"
        }
      ],
      "stateMutability": "view",
      "type": "function"
    },
    {
      "inputs": [
        {
          "internalType": "uint256",
          "name": "totalEarned",
          "type": "uint256"
        }
      ],
      "name": "royaltyInfo",
      "outputs": [
        {
          "internalType": "uint256",
          "name": "",
          "type": "uint256"
        }
      ],
      "stateMutability": "view",
      "type": "function"
    },
    {
      "inputs": [
        {
          "internalType": "address",
          "name": "buyer",
          "type": "address"
        },
        {
          "internalType": "bytes",
          "name": "args",
          "type": "bytes"
        }
      ],
      "name": "setAllowance",
      "outputs": [],
      "stateMutability": "nonpayable",
      "type": "function"
    },
    {
      "inputs": [
        {
          "internalType": "bytes",
          "name": "args",
          "type": "bytes"
        }
      ],
      "name": "setPricing",
      "outputs": [],
      "stateMutability": "nonpayable",
      "type": "function"
    },
    {
      "inputs": [
        {
          "internalType": "uint16",
          "name": "royaltyBps",
          "type": "uint16"
        },
        {
          "internalType": "uint256",
          "name": "royaltyCap",
          "type": "uint256"
        }
      ],
      "name": "setRoyaltyInfo",
      "outputs": [],
      "stateMutability": "nonpayable",
      "type": "function"
    },
    {
      "inputs": [
        {
          "internalType": "address",
          "name": "strategy",
          "type": "address"
        }
      ],
      "name": "setStrategy",
      "outputs": [],
      "stateMutability": "nonpayable",
      "type": "function"
    }
  ],
  "transactionHash": "0x3dc29730b6926d38def2966fee0cdc3a9c5962a065685d333388f1f2d80e46fc",
  "args": [],
  "numDeployments": 3,
  "solcInputHash": "dcdf536ceb931b0d458d3b0d33badb21",
  "bytecode": "0x608060405234801561001057600080fd5b50613359806100206000396000f3fe608060405234801561001057600080fd5b50600436106100b45760003560e01c806357efe3741161007157806357efe3741461019d5780639e5dd438146101cd578063a77c9a63146101e9578063c9a3510014610219578063cef6d36814610235578063f2ef10d414610265576100b4565b80630c23763f146100b95780631cfed885146100d557806333a100ca1461010557806348f60b99146101215780634bbaaced1461013d5780634d57cee71461016d575b600080fd5b6100d360048036038101906100ce9190611e5e565b610281565b005b6100ef60048036038101906100ea9190611ee0565b6104a0565b6040516100fc9190611f4e565b60405180910390f35b61011f600480360381019061011a9190611f95565b610522565b005b61013b60048036038101906101369190612032565b610657565b005b610157600480360381019061015291906120d2565b61077a565b60405161016491906121f0565b60405180910390f35b61018760048036038101906101829190611f95565b6109b1565b6040516101949190612221565b60405180910390f35b6101b760048036038101906101b2919061223c565b610a09565b6040516101c491906121f0565b60405180910390f35b6101e760048036038101906101e29190612306565b610c43565b005b61020360048036038101906101fe91906123ad565b610e38565b60405161021091906121f0565b60405180910390f35b610233600480360381019061022e9190612454565b611418565b005b61024f600480360381019061024a9190612494565b611510565b60405161025c91906124d0565b60405180910390f35b61027f600480360381019061027a91906124eb565b611572565b005b600080600a0160003373ffffffffffffffffffffffffffffffffffffffff1673ffffffffffffffffffffffffffffffffffffffff1681526020019081526020016000206000600160ff16815260200190815260200160002060009054906101000a900473ffffffffffffffffffffffffffffffffffffffff169050600073ffffffffffffffffffffffffffffffffffffffff168173ffffffffffffffffffffffffffffffffffffffff16141561036c576040517f08c379a0000000000000000000000000000000000000000000000000000000008152600401610363906125ca565b60405180910390fd5b6000808273ffffffffffffffffffffffffffffffffffffffff16635973921b60e01b336000800154876040516024016103a793929190612672565b604051602081830303815290604052907bffffffffffffffffffffffffffffffffffffffffffffffffffffffff19166020820180517bffffffffffffffffffffffffffffffffffffffffffffffffffffffff838183161783525050505060405161041191906126ec565b600060405180830381855af49150503d806000811461044c576040519150601f19603f3d011682016040523d82523d6000602084013e610451565b606091505b5091509150818190610499576040517f08c379a00000000000000000000000000000000000000000000000000000000081526004016104909190612747565b60405180910390fd5b5050505050565b600080600a0160003373ffffffffffffffffffffffffffffffffffffffff1673ffffffffffffffffffffffffffffffffffffffff16815260200190815260200160002060008360ff1660ff16815260200190815260200160002060009054906101000a900473ffffffffffffffffffffffffffffffffffffffff169050919050565b60008060090160008373ffffffffffffffffffffffffffffffffffffffff1673ffffffffffffffffffffffffffffffffffffffff16815260200190815260200160002060009054906101000a900460ff16905060008160ff16116105bb576040517f08c379a00000000000000000000000000000000000000000000000000000000081526004016105b2906127db565b60405180910390fd5b816000600a0160003373ffffffffffffffffffffffffffffffffffffffff1673ffffffffffffffffffffffffffffffffffffffff16815260200190815260200160002060008360ff1660ff16815260200190815260200160002060006101000a81548173ffffffffffffffffffffffffffffffffffffffff021916908373ffffffffffffffffffffffffffffffffffffffff1602179055505050565b61065f61178e565b60000160009054906101000a900473ffffffffffffffffffffffffffffffffffffffff1673ffffffffffffffffffffffffffffffffffffffff163373ffffffffffffffffffffffffffffffffffffffff16146106f0576040517f08c379a00000000000000000000000000000000000000000000000000000000081526004016106e790612847565b60405180910390fd5b612710600060030160149054906101000a900461ffff1661ffff16111561074c576040517f08c379a0000000000000000000000000000000000000000000000000000000008152600401610743906128d9565b60405180910390fd5b81600060030160146101000a81548161ffff021916908361ffff160217905550806000600401819055505050565b6060600080600a0160008673ffffffffffffffffffffffffffffffffffffffff1673ffffffffffffffffffffffffffffffffffffffff1681526020019081526020016000206000600160ff16815260200190815260200160002060009054906101000a900473ffffffffffffffffffffffffffffffffffffffff169050600073ffffffffffffffffffffffffffffffffffffffff168173ffffffffffffffffffffffffffffffffffffffff161415610867576040517f08c379a000000000000000000000000000000000000000000000000000000000815260040161085e90612945565b60405180910390fd5b6000808273ffffffffffffffffffffffffffffffffffffffff16634bbaaced60e01b33888860405160240161089e939291906129c6565b604051602081830303815290604052907bffffffffffffffffffffffffffffffffffffffffffffffffffffffff19166020820180517bffffffffffffffffffffffffffffffffffffffffffffffffffffffff838183161783525050505060405161090891906126ec565b600060405180830381855afa9150503d8060008114610943576040519150601f19603f3d011682016040523d82523d6000602084013e610948565b606091505b5091509150818190610990576040517f08c379a00000000000000000000000000000000000000000000000000000000081526004016109879190612747565b60405180910390fd5b50808060200190518101906109a59190612ad0565b93505050509392505050565b60008060090160008373ffffffffffffffffffffffffffffffffffffffff1673ffffffffffffffffffffffffffffffffffffffff16815260200190815260200160002060009054906101000a900460ff169050919050565b6060600080600a0160008773ffffffffffffffffffffffffffffffffffffffff1673ffffffffffffffffffffffffffffffffffffffff1681526020019081526020016000206000600260ff16815260200190815260200160002060009054906101000a900473ffffffffffffffffffffffffffffffffffffffff169050600073ffffffffffffffffffffffffffffffffffffffff168173ffffffffffffffffffffffffffffffffffffffff161415610af6576040517f08c379a0000000000000000000000000000000000000000000000000000000008152600401610aed90612b8b565b60405180910390fd5b6000808273ffffffffffffffffffffffffffffffffffffffff166357efe37460e01b89898989604051602401610b2f9493929190612bab565b604051602081830303815290604052907bffffffffffffffffffffffffffffffffffffffffffffffffffffffff19166020820180517bffffffffffffffffffffffffffffffffffffffffffffffffffffffff8381831617835250505050604051610b9991906126ec565b600060405180830381855afa9150503d8060008114610bd4576040519150601f19603f3d011682016040523d82523d6000602084013e610bd9565b606091505b5091509150818190610c21576040517f08c379a0000000000000000000000000000000000000000000000000000000008152600401610c189190612747565b60405180910390fd5b5080806020019051810190610c369190612ad0565b9350505050949350505050565b610c4b61178e565b60000160009054906101000a900473ffffffffffffffffffffffffffffffffffffffff1673ffffffffffffffffffffffffffffffffffffffff163373ffffffffffffffffffffffffffffffffffffffff1614610cdc576040517f08c379a0000000000000000000000000000000000000000000000000000000008152600401610cd390612847565b60405180910390fd5b610ce68686610657565b60005b84849050811015610d8a57600160006009016000878785818110610d1057610d0f612beb565b5b9050602002016020810190610d259190611f95565b73ffffffffffffffffffffffffffffffffffffffff1673ffffffffffffffffffffffffffffffffffffffff16815260200190815260200160002060006101000a81548160ff021916908360ff1602179055508080610d8290612c49565b915050610ce9565b5060005b82829050811015610e2f57600260006009016000858585818110610db557610db4612beb565b5b9050602002016020810190610dca9190611f95565b73ffffffffffffffffffffffffffffffffffffffff1673ffffffffffffffffffffffffffffffffffffffff16815260200190815260200160002060006101000a81548160ff021916908360ff1602179055508080610e2790612c49565b915050610d8e565b50505050505050565b6060610e426117bb565b60000160009054906101000a900460ff1615610e93576040517f08c379a0000000000000000000000000000000000000000000000000000000008152600401610e8a90612cde565b60405180910390fd5b3373ffffffffffffffffffffffffffffffffffffffff168673ffffffffffffffffffffffffffffffffffffffff161480610ef95750600073ffffffffffffffffffffffffffffffffffffffff168673ffffffffffffffffffffffffffffffffffffffff16145b610f38576040517f08c379a0000000000000000000000000000000000000000000000000000000008152600401610f2f90612d4a565b60405180910390fd5b828290508585905014610f80576040517f08c379a0000000000000000000000000000000000000000000000000000000008152600401610f7790612ddc565b60405180910390fd5b610f8e8787878787876117e8565b6000610f9b88878761077a565b90506000604051806060016040528060008001548152602001600081526020016000815250905060005b878790508110156111e35760008060050160008a8a85818110610feb57610fea612beb565b5b90506020020135815260200190815260200160002060008c73ffffffffffffffffffffffffffffffffffffffff1673ffffffffffffffffffffffffffffffffffffffff1681526020019081526020016000205490508087878481811061105457611053612beb565b5b90506020020135111561109c576040517f08c379a000000000000000000000000000000000000000000000000000000000815260040161109390612e6e565b60405180910390fd5b8686838181106110af576110ae612beb565b5b905060200201358103600060050160008b8b868181106110d2576110d1612beb565b5b90506020020135815260200190815260200160002060008d73ffffffffffffffffffffffffffffffffffffffff1673ffffffffffffffffffffffffffffffffffffffff1681526020019081526020016000208190555086868381811061113b5761113a612beb565b5b9050602002013583600001516111519190612e8e565b836020018181516111629190612ee8565b9150818152505086868381811061117c5761117b612beb565b5b90506020020135836000015185848151811061119b5761119a612beb565b5b60200260200101516111ad9190612f3e565b6111b79190612e8e565b836040018181516111c89190612ee8565b915081815250505080806111db90612c49565b915050610fc5565b5060008060020160009054906101000a900473ffffffffffffffffffffffffffffffffffffffff169050600061121c8360400151611510565b905061127f33600060030160009054906101000a900473ffffffffffffffffffffffffffffffffffffffff168386602001516112589190612ee8565b8573ffffffffffffffffffffffffffffffffffffffff16611a0e909392919063ffffffff16565b6112bb338c8386604001516112949190612f3e565b8573ffffffffffffffffffffffffffffffffffffffff16611a0e909392919063ffffffff16565b600060010160009054906101000a900473ffffffffffffffffffffffffffffffffffffffff1673ffffffffffffffffffffffffffffffffffffffff16632eb2c2d630338c8c8c8c6040518763ffffffff1660e01b815260040161132396959493929190612f98565b600060405180830381600087803b15801561133d57600080fd5b505af1158015611351573d6000803e3d6000fd5b505050508973ffffffffffffffffffffffffffffffffffffffff168b73ffffffffffffffffffffffffffffffffffffffff163373ffffffffffffffffffffffffffffffffffffffff167fcac3ed26c9dd72a2c44999857298af9c72ba2d1ca9784f5dad48c933e2224c1160405160405180910390a4868680806020026020016040519081016040528093929190818152602001838360200280828437600081840152601f19601f820116905080830192505050505050509450505050509695505050505050565b61142061178e565b60000160009054906101000a900473ffffffffffffffffffffffffffffffffffffffff1673ffffffffffffffffffffffffffffffffffffffff163373ffffffffffffffffffffffffffffffffffffffff16146114b1576040517f08c379a00000000000000000000000000000000000000000000000000000000081526004016114a890612847565b60405180910390fd5b80600060090160008473ffffffffffffffffffffffffffffffffffffffff1673ffffffffffffffffffffffffffffffffffffffff16815260200190815260200160002060006101000a81548160ff021916908360ff1602179055505050565b600080612710600060030160149054906101000a900461ffff1661ffff16846115399190612e8e565b6115439190613031565b905060008060040154905060008111801561155d57508082115b6115675781611569565b805b92505050919050565b600080600a0160003373ffffffffffffffffffffffffffffffffffffffff1673ffffffffffffffffffffffffffffffffffffffff1681526020019081526020016000206000600260ff16815260200190815260200160002060009054906101000a900473ffffffffffffffffffffffffffffffffffffffff169050600073ffffffffffffffffffffffffffffffffffffffff168173ffffffffffffffffffffffffffffffffffffffff16141561165d576040517f08c379a000000000000000000000000000000000000000000000000000000000815260040161165490612b8b565b60405180910390fd5b6000808273ffffffffffffffffffffffffffffffffffffffff1663b8ac1b6860e01b33878760405160240161169493929190613062565b604051602081830303815290604052907bffffffffffffffffffffffffffffffffffffffffffffffffffffffff19166020820180517bffffffffffffffffffffffffffffffffffffffffffffffffffffffff83818316178352505050506040516116fe91906126ec565b600060405180830381855af49150503d8060008114611739576040519150601f19603f3d011682016040523d82523d6000602084013e61173e565b606091505b5091509150818190611786576040517f08c379a000000000000000000000000000000000000000000000000000000000815260040161177d9190612747565b60405180910390fd5b505050505050565b6000807f8a22373512790c48b83a1fe2efdd2888d4a917bcdc24d0adf63e60f67168046090508091505090565b6000807f68721c0bbf2c02a4d65000340d1370666be06a630022208d4baa9bd7a4b6fea890508091505090565b600080600a0160008873ffffffffffffffffffffffffffffffffffffffff1673ffffffffffffffffffffffffffffffffffffffff1681526020019081526020016000206000600260ff16815260200190815260200160002060009054906101000a900473ffffffffffffffffffffffffffffffffffffffff169050600073ffffffffffffffffffffffffffffffffffffffff168173ffffffffffffffffffffffffffffffffffffffff1614156118d3576040517f08c379a00000000000000000000000000000000000000000000000000000000081526004016118ca90612b8b565b60405180910390fd5b6000808273ffffffffffffffffffffffffffffffffffffffff16632196f29160e01b8a8a8a8a8a8a604051602401611910969594939291906130a0565b604051602081830303815290604052907bffffffffffffffffffffffffffffffffffffffffffffffffffffffff19166020820180517bffffffffffffffffffffffffffffffffffffffffffffffffffffffff838183161783525050505060405161197a91906126ec565b600060405180830381855af49150503d80600081146119b5576040519150601f19603f3d011682016040523d82523d6000602084013e6119ba565b606091505b5091509150818190611a02576040517f08c379a00000000000000000000000000000000000000000000000000000000081526004016119f99190612747565b60405180910390fd5b50505050505050505050565b611a91846323b872dd60e01b858585604051602401611a2f939291906130f7565b604051602081830303815290604052907bffffffffffffffffffffffffffffffffffffffffffffffffffffffff19166020820180517bffffffffffffffffffffffffffffffffffffffffffffffffffffffff8381831617835250505050611a97565b50505050565b6000611af9826040518060400160405280602081526020017f5361666545524332303a206c6f772d6c6576656c2063616c6c206661696c65648152508573ffffffffffffffffffffffffffffffffffffffff16611b5e9092919063ffffffff16565b9050600081511115611b595780806020019051810190611b199190613166565b611b58576040517f08c379a0000000000000000000000000000000000000000000000000000000008152600401611b4f90613205565b60405180910390fd5b5b505050565b6060611b6d8484600085611b76565b90509392505050565b606082471015611bbb576040517f08c379a0000000000000000000000000000000000000000000000000000000008152600401611bb290613297565b60405180910390fd5b611bc485611c8a565b611c03576040517f08c379a0000000000000000000000000000000000000000000000000000000008152600401611bfa90613303565b60405180910390fd5b6000808673ffffffffffffffffffffffffffffffffffffffff168587604051611c2c91906126ec565b60006040518083038185875af1925050503d8060008114611c69576040519150601f19603f3d011682016040523d82523d6000602084013e611c6e565b606091505b5091509150611c7e828286611c9d565b92505050949350505050565b600080823b905060008111915050919050565b60608315611cad57829050611cfd565b600083511115611cc05782518084602001fd5b816040517f08c379a0000000000000000000000000000000000000000000000000000000008152600401611cf49190612747565b60405180910390fd5b9392505050565b6000604051905090565b600080fd5b600080fd5b600080fd5b600080fd5b6000601f19601f8301169050919050565b7f4e487b7100000000000000000000000000000000000000000000000000000000600052604160045260246000fd5b611d6b82611d22565b810181811067ffffffffffffffff82111715611d8a57611d89611d33565b5b80604052505050565b6000611d9d611d04565b9050611da98282611d62565b919050565b600067ffffffffffffffff821115611dc957611dc8611d33565b5b611dd282611d22565b9050602081019050919050565b82818337600083830152505050565b6000611e01611dfc84611dae565b611d93565b905082815260208101848484011115611e1d57611e1c611d1d565b5b611e28848285611ddf565b509392505050565b600082601f830112611e4557611e44611d18565b5b8135611e55848260208601611dee565b91505092915050565b600060208284031215611e7457611e73611d0e565b5b600082013567ffffffffffffffff811115611e9257611e91611d13565b5b611e9e84828501611e30565b91505092915050565b600060ff82169050919050565b611ebd81611ea7565b8114611ec857600080fd5b50565b600081359050611eda81611eb4565b92915050565b600060208284031215611ef657611ef5611d0e565b5b6000611f0484828501611ecb565b91505092915050565b600073ffffffffffffffffffffffffffffffffffffffff82169050919050565b6000611f3882611f0d565b9050919050565b611f4881611f2d565b82525050565b6000602082019050611f636000830184611f3f565b92915050565b611f7281611f2d565b8114611f7d57600080fd5b50565b600081359050611f8f81611f69565b92915050565b600060208284031215611fab57611faa611d0e565b5b6000611fb984828501611f80565b91505092915050565b600061ffff82169050919050565b611fd981611fc2565b8114611fe457600080fd5b50565b600081359050611ff681611fd0565b92915050565b6000819050919050565b61200f81611ffc565b811461201a57600080fd5b50565b60008135905061202c81612006565b92915050565b6000806040838503121561204957612048611d0e565b5b600061205785828601611fe7565b92505060206120688582860161201d565b9150509250929050565b600080fd5b600080fd5b60008083601f84011261209257612091611d18565b5b8235905067ffffffffffffffff8111156120af576120ae612072565b5b6020830191508360208202830111156120cb576120ca612077565b5b9250929050565b6000806000604084860312156120eb576120ea611d0e565b5b60006120f986828701611f80565b935050602084013567ffffffffffffffff81111561211a57612119611d13565b5b6121268682870161207c565b92509250509250925092565b600081519050919050565b600082825260208201905092915050565b6000819050602082019050919050565b61216781611ffc565b82525050565b6000612179838361215e565b60208301905092915050565b6000602082019050919050565b600061219d82612132565b6121a7818561213d565b93506121b28361214e565b8060005b838110156121e35781516121ca888261216d565b97506121d583612185565b9250506001810190506121b6565b5085935050505092915050565b6000602082019050818103600083015261220a8184612192565b905092915050565b61221b81611ea7565b82525050565b60006020820190506122366000830184612212565b92915050565b6000806000806060858703121561225657612255611d0e565b5b600061226487828801611f80565b945050602061227587828801611f80565b935050604085013567ffffffffffffffff81111561229657612295611d13565b5b6122a28782880161207c565b925092505092959194509250565b60008083601f8401126122c6576122c5611d18565b5b8235905067ffffffffffffffff8111156122e3576122e2612072565b5b6020830191508360208202830111156122ff576122fe612077565b5b9250929050565b6000806000806000806080878903121561232357612322611d0e565b5b600061233189828a01611fe7565b965050602061234289828a0161201d565b955050604087013567ffffffffffffffff81111561236357612362611d13565b5b61236f89828a016122b0565b9450945050606087013567ffffffffffffffff81111561239257612391611d13565b5b61239e89828a016122b0565b92509250509295509295509295565b600080600080600080608087890312156123ca576123c9611d0e565b5b60006123d889828a01611f80565b96505060206123e989828a01611f80565b955050604087013567ffffffffffffffff81111561240a57612409611d13565b5b61241689828a0161207c565b9450945050606087013567ffffffffffffffff81111561243957612438611d13565b5b61244589828a0161207c565b92509250509295509295509295565b6000806040838503121561246b5761246a611d0e565b5b600061247985828601611f80565b925050602061248a85828601611ecb565b9150509250929050565b6000602082840312156124aa576124a9611d0e565b5b60006124b88482850161201d565b91505092915050565b6124ca81611ffc565b82525050565b60006020820190506124e560008301846124c1565b92915050565b6000806040838503121561250257612501611d0e565b5b600061251085828601611f80565b925050602083013567ffffffffffffffff81111561253157612530611d13565b5b61253d85828601611e30565b9150509250929050565b600082825260208201905092915050565b7f4d696e696e67334167656e743a2070726963696e67207374726174656779206e60008201527f6f74207365740000000000000000000000000000000000000000000000000000602082015250565b60006125b4602683612547565b91506125bf82612558565b604082019050919050565b600060208201905081810360008301526125e3816125a7565b9050919050565b600081519050919050565b600082825260208201905092915050565b60005b83811015612624578082015181840152602081019050612609565b83811115612633576000848401525b50505050565b6000612644826125ea565b61264e81856125f5565b935061265e818560208601612606565b61266781611d22565b840191505092915050565b60006060820190506126876000830186611f3f565b61269460208301856124c1565b81810360408301526126a68184612639565b9050949350505050565b600081905092915050565b60006126c6826125ea565b6126d081856126b0565b93506126e0818560208601612606565b80840191505092915050565b60006126f882846126bb565b915081905092915050565b600081519050919050565b600061271982612703565b6127238185612547565b9350612733818560208601612606565b61273c81611d22565b840191505092915050565b60006020820190508181036000830152612761818461270e565b905092915050565b7f4d696e696e67334167656e743a207374726174656779206e6f7420726567697360008201527f7465726564000000000000000000000000000000000000000000000000000000602082015250565b60006127c5602583612547565b91506127d082612769565b604082019050919050565b600060208201905081810360008301526127f4816127b8565b9050919050565b7f4f776e61626c653a2073656e646572206d757374206265206f776e6572000000600082015250565b6000612831601d83612547565b915061283c826127fb565b602082019050919050565b6000602082019050818103600083015261286081612824565b9050919050565b7f4d696e696e67334167656e743a20496e76616c696420726f79616c747920627060008201527f7300000000000000000000000000000000000000000000000000000000000000602082015250565b60006128c3602183612547565b91506128ce82612867565b604082019050919050565b600060208201905081810360008301526128f2816128b6565b9050919050565b7f4d696e696e67334167656e743a2070726963696e67206e6f7420736574000000600082015250565b600061292f601d83612547565b915061293a826128f9565b602082019050919050565b6000602082019050818103600083015261295e81612922565b9050919050565b600080fd5b6000612976838561213d565b93507f07ffffffffffffffffffffffffffffffffffffffffffffffffffffffffffffff8311156129a9576129a8612965565b5b6020830292506129ba838584611ddf565b82840190509392505050565b60006040820190506129db6000830186611f3f565b81810360208301526129ee81848661296a565b9050949350505050565b600067ffffffffffffffff821115612a1357612a12611d33565b5b602082029050602081019050919050565b600081519050612a3381612006565b92915050565b6000612a4c612a47846129f8565b611d93565b90508083825260208201905060208402830185811115612a6f57612a6e612077565b5b835b81811015612a985780612a848882612a24565b845260208401935050602081019050612a71565b5050509392505050565b600082601f830112612ab757612ab6611d18565b5b8151612ac7848260208601612a39565b91505092915050565b600060208284031215612ae657612ae5611d0e565b5b600082015167ffffffffffffffff811115612b0457612b03611d13565b5b612b1084828501612aa2565b91505092915050565b7f4d696e696e67334167656e743a20616c6c6f77616e636520737472617465677960008201527f206e6f7420736574000000000000000000000000000000000000000000000000602082015250565b6000612b75602883612547565b9150612b8082612b19565b604082019050919050565b60006020820190508181036000830152612ba481612b68565b9050919050565b6000606082019050612bc06000830187611f3f565b612bcd6020830186611f3f565b8181036040830152612be081848661296a565b905095945050505050565b7f4e487b7100000000000000000000000000000000000000000000000000000000600052603260045260246000fd5b7f4e487b7100000000000000000000000000000000000000000000000000000000600052601160045260246000fd5b6000612c5482611ffc565b91507fffffffffffffffffffffffffffffffffffffffffffffffffffffffffffffffff821415612c8757612c86612c1a565b5b600182019050919050565b7f5061757361626c653a2070617573656400000000000000000000000000000000600082015250565b6000612cc8601083612547565b9150612cd382612c92565b602082019050919050565b60006020820190508181036000830152612cf781612cbb565b9050919050565b7f4d696e696e67334167656e743a20696e76616c6964206f70657261746f720000600082015250565b6000612d34601e83612547565b9150612d3f82612cfe565b602082019050919050565b60006020820190508181036000830152612d6381612d27565b9050919050565b7f546f6b656e4c6f636b65723a206172726179206c656e677468206d69736d617460008201527f6368000000000000000000000000000000000000000000000000000000000000602082015250565b6000612dc6602283612547565b9150612dd182612d6a565b604082019050919050565b60006020820190508181036000830152612df581612db9565b9050919050565b7f4d696e696e67334167656e743a20696e73756666696369656e742062616c616e60008201527f6365000000000000000000000000000000000000000000000000000000000000602082015250565b6000612e58602283612547565b9150612e6382612dfc565b604082019050919050565b60006020820190508181036000830152612e8781612e4b565b9050919050565b6000612e9982611ffc565b9150612ea483611ffc565b9250817fffffffffffffffffffffffffffffffffffffffffffffffffffffffffffffffff0483118215151615612edd57612edc612c1a565b5b828202905092915050565b6000612ef382611ffc565b9150612efe83611ffc565b9250827fffffffffffffffffffffffffffffffffffffffffffffffffffffffffffffffff03821115612f3357612f32612c1a565b5b828201905092915050565b6000612f4982611ffc565b9150612f5483611ffc565b925082821015612f6757612f66612c1a565b5b828203905092915050565b50565b6000612f826000836125f5565b9150612f8d82612f72565b600082019050919050565b600060a082019050612fad6000830189611f3f565b612fba6020830188611f3f565b8181036040830152612fcd81868861296a565b90508181036060830152612fe281848661296a565b90508181036080830152612ff581612f75565b9050979650505050505050565b7f4e487b7100000000000000000000000000000000000000000000000000000000600052601260045260246000fd5b600061303c82611ffc565b915061304783611ffc565b92508261305757613056613002565b5b828204905092915050565b60006060820190506130776000830186611f3f565b6130846020830185611f3f565b81810360408301526130968184612639565b9050949350505050565b60006080820190506130b56000830189611f3f565b6130c26020830188611f3f565b81810360408301526130d581868861296a565b905081810360608301526130ea81848661296a565b9050979650505050505050565b600060608201905061310c6000830186611f3f565b6131196020830185611f3f565b61312660408301846124c1565b949350505050565b60008115159050919050565b6131438161312e565b811461314e57600080fd5b50565b6000815190506131608161313a565b92915050565b60006020828403121561317c5761317b611d0e565b5b600061318a84828501613151565b91505092915050565b7f5361666545524332303a204552433230206f7065726174696f6e20646964206e60008201527f6f74207375636365656400000000000000000000000000000000000000000000602082015250565b60006131ef602a83612547565b91506131fa82613193565b604082019050919050565b6000602082019050818103600083015261321e816131e2565b9050919050565b7f416464726573733a20696e73756666696369656e742062616c616e636520666f60008201527f722063616c6c0000000000000000000000000000000000000000000000000000602082015250565b6000613281602683612547565b915061328c82613225565b604082019050919050565b600060208201905081810360008301526132b081613274565b9050919050565b7f416464726573733a2063616c6c20746f206e6f6e2d636f6e7472616374000000600082015250565b60006132ed601d83612547565b91506132f8826132b7565b602082019050919050565b6000602082019050818103600083015261331c816132e0565b905091905056fea26469706673582212206ad1e22937824ff4158ccea743e665834ba5952fa57437741b26db24ee47551d64736f6c634300080b0033",
  "devdoc": {
    "author": "Shu Dong",
    "kind": "dev",
    "methods": {},
    "title": "PrimaryMarketFacet",
    "version": 1
  },
  "userdoc": {
    "kind": "user",
    "methods": {},
    "notice": "Facet contract holding functions for primary market sale",
    "version": 1
  },
  "storageLayout": {
    "storage": [
      {
        "astId": 1674,
        "contract": "contracts/agent/facets/PrimaryMarketFacet.sol:PrimaryMarketFacet",
        "label": "s",
        "offset": 0,
        "slot": "0",
        "type": "t_struct(AppStorage)1671_storage"
      }
    ],
    "types": {
      "t_address": {
        "encoding": "inplace",
        "label": "address",
        "numberOfBytes": "20"
      },
      "t_contract(IERC1155Rewardable)1691": {
        "encoding": "inplace",
        "label": "contract IERC1155Rewardable",
        "numberOfBytes": "20"
      },
      "t_mapping(t_address,t_mapping(t_uint8,t_address))": {
        "encoding": "mapping",
        "key": "t_address",
        "label": "mapping(address => mapping(uint8 => address))",
        "numberOfBytes": "32",
        "value": "t_mapping(t_uint8,t_address)"
      },
      "t_mapping(t_address,t_uint256)": {
        "encoding": "mapping",
        "key": "t_address",
        "label": "mapping(address => uint256)",
        "numberOfBytes": "32",
        "value": "t_uint256"
      },
      "t_mapping(t_address,t_uint8)": {
        "encoding": "mapping",
        "key": "t_address",
        "label": "mapping(address => uint8)",
        "numberOfBytes": "32",
        "value": "t_uint8"
      },
      "t_mapping(t_uint256,t_mapping(t_address,t_uint256))": {
        "encoding": "mapping",
        "key": "t_uint256",
        "label": "mapping(uint256 => mapping(address => uint256))",
        "numberOfBytes": "32",
        "value": "t_mapping(t_address,t_uint256)"
      },
      "t_mapping(t_uint256,t_struct(BillingStatement)1628_storage)": {
        "encoding": "mapping",
        "key": "t_uint256",
        "label": "mapping(uint256 => struct BillingStatement)",
        "numberOfBytes": "32",
        "value": "t_struct(BillingStatement)1628_storage"
      },
      "t_mapping(t_uint8,t_address)": {
        "encoding": "mapping",
        "key": "t_uint8",
        "label": "mapping(uint8 => address)",
        "numberOfBytes": "32",
        "value": "t_address"
      },
      "t_struct(AppStorage)1671_storage": {
        "encoding": "inplace",
        "label": "struct AppStorage",
        "members": [
          {
            "astId": 1630,
            "contract": "contracts/agent/facets/PrimaryMarketFacet.sol:PrimaryMarketFacet",
            "label": "tokenCost",
            "offset": 0,
            "slot": "0",
            "type": "t_uint256"
          },
          {
            "astId": 1633,
            "contract": "contracts/agent/facets/PrimaryMarketFacet.sol:PrimaryMarketFacet",
            "label": "nft",
            "offset": 0,
            "slot": "1",
            "type": "t_contract(IERC1155Rewardable)1691"
          },
          {
            "astId": 1635,
            "contract": "contracts/agent/facets/PrimaryMarketFacet.sol:PrimaryMarketFacet",
            "label": "paymentToken",
            "offset": 0,
            "slot": "2",
            "type": "t_address"
          },
          {
            "astId": 1637,
            "contract": "contracts/agent/facets/PrimaryMarketFacet.sol:PrimaryMarketFacet",
            "label": "custodian",
            "offset": 0,
            "slot": "3",
            "type": "t_address"
          },
          {
            "astId": 1639,
            "contract": "contracts/agent/facets/PrimaryMarketFacet.sol:PrimaryMarketFacet",
            "label": "royaltyBps",
            "offset": 20,
            "slot": "3",
            "type": "t_uint16"
          },
          {
            "astId": 1641,
            "contract": "contracts/agent/facets/PrimaryMarketFacet.sol:PrimaryMarketFacet",
            "label": "royaltyCap",
            "offset": 0,
            "slot": "4",
            "type": "t_uint256"
          },
          {
            "astId": 1647,
            "contract": "contracts/agent/facets/PrimaryMarketFacet.sol:PrimaryMarketFacet",
            "label": "balances",
            "offset": 0,
            "slot": "5",
            "type": "t_mapping(t_uint256,t_mapping(t_address,t_uint256))"
          },
          {
            "astId": 1652,
            "contract": "contracts/agent/facets/PrimaryMarketFacet.sol:PrimaryMarketFacet",
            "label": "statements",
            "offset": 0,
            "slot": "6",
            "type": "t_mapping(t_uint256,t_struct(BillingStatement)1628_storage)"
          },
          {
            "astId": 1654,
            "contract": "contracts/agent/facets/PrimaryMarketFacet.sol:PrimaryMarketFacet",
            "label": "chainlink",
            "offset": 0,
            "slot": "7",
            "type": "t_address"
          },
          {
            "astId": 1656,
            "contract": "contracts/agent/facets/PrimaryMarketFacet.sol:PrimaryMarketFacet",
            "label": "swapRouter",
            "offset": 0,
            "slot": "8",
            "type": "t_address"
          },
          {
            "astId": 1658,
            "contract": "contracts/agent/facets/PrimaryMarketFacet.sol:PrimaryMarketFacet",
            "label": "swapRouterVersion",
            "offset": 20,
            "slot": "8",
            "type": "t_uint8"
          },
          {
            "astId": 1660,
            "contract": "contracts/agent/facets/PrimaryMarketFacet.sol:PrimaryMarketFacet",
            "label": "earningTokenSaleDiscount10000Based",
            "offset": 21,
            "slot": "8",
            "type": "t_uint16"
          },
          {
            "astId": 1664,
            "contract": "contracts/agent/facets/PrimaryMarketFacet.sol:PrimaryMarketFacet",
            "label": "strategyRegistry",
            "offset": 0,
            "slot": "9",
            "type": "t_mapping(t_address,t_uint8)"
          },
          {
            "astId": 1670,
            "contract": "contracts/agent/facets/PrimaryMarketFacet.sol:PrimaryMarketFacet",
            "label": "strategies",
            "offset": 0,
            "slot": "10",
            "type": "t_mapping(t_address,t_mapping(t_uint8,t_address))"
          }
        ],
        "numberOfBytes": "352"
      },
      "t_struct(BillingStatement)1628_storage": {
        "encoding": "inplace",
        "label": "struct BillingStatement",
        "members": [
          {
            "astId": 1623,
            "contract": "contracts/agent/facets/PrimaryMarketFacet.sol:PrimaryMarketFacet",
            "label": "balance",
            "offset": 0,
            "slot": "0",
            "type": "t_uint256"
          },
          {
            "astId": 1625,
            "contract": "contracts/agent/facets/PrimaryMarketFacet.sol:PrimaryMarketFacet",
            "label": "surplus",
            "offset": 0,
            "slot": "1",
            "type": "t_uint256"
          },
          {
            "astId": 1627,
            "contract": "contracts/agent/facets/PrimaryMarketFacet.sol:PrimaryMarketFacet",
            "label": "debt",
            "offset": 0,
            "slot": "2",
            "type": "t_uint256"
          }
        ],
        "numberOfBytes": "96"
      },
      "t_uint16": {
        "encoding": "inplace",
        "label": "uint16",
        "numberOfBytes": "2"
      },
      "t_uint256": {
        "encoding": "inplace",
        "label": "uint256",
        "numberOfBytes": "32"
      },
      "t_uint8": {
        "encoding": "inplace",
        "label": "uint8",
        "numberOfBytes": "1"
      }
    }
  }
}